:100000000C94A6040C94ED040C94ED040C94ED04F3
:100010000C94ED040C94ED040C94ED040C94ED049C
:100020000C94ED040C94ED040C94ED040C945C24FD
:100030000C940B250C948D1C0C94ED040C94B20ABA
:100040000C94ED040C94ED040C94750B0C94F51CBD
:100050000C94ED040C94ED040C94ED040C94ED045C
:100060000C94ED040C94ED040C94ED040C94ED044C
:100070000C94ED04590A5B0A600A630A660A690A6D
:100080006C0AB210B210E410E4103D115B11D012F2
:10009000D0129D11321243124312C012D012D0124C
:1000A000C912581358136A136A1361136A136A1337
:1000B0006A135813581366136A136A136613782564
:1000C0009F2597269F259726EB250E2697266526A2
:1000D00074262B0014001A000800150017001C00DD
:1000E00018000C00120013002A00E00004001600A3
:1000F000070009000A000B000D000E000F0033007E
:100100003400025502551D001B00060019000500B1
:1001100011001000360037003800165C7664035476
:1001200000002C000000000000002A442845E300E5
:10013000105D2B0014001A00090013000A000D00C6
:100140000F0018001C0033002A00E0000400150016
:100150001600170007000B00110008000C00120029
:100160003400025502551D001B0006001900050051
:100170000E001000360037003800165C7664035419
:1001800000002C000000000000002A442845E30085
:10019000105D0000000000000000000000000000F2
:1001A000000000000000000000000000000000004F
:1001B000000000000000000000000000000000003F
:1001C000000000000000000000000000000000002F
:1001D000000000000000000000000000000000001F
:1001E000000000000000000000000000000000000F
:1001F00000004C004B004A0052004D004900230211
:10020000240225022602270235002A004E00500053
:1002100051004F002E021E021F0220022102220264
:10022000310039003900A800AA00A9002D022E00D3
:100230002D002F0030002F023002AC00AB00010077
:100240000000AE00000000000000010001000100FD
:10025000010001001E001F002000210022000100FB
:100260004200430044004500010001002300240037
:1002700025002600270001003E003F00400041000D
:100280000100010001000100010001000100010066
:100290003A003B003C003D00010001004604160A04
:1002A0000000460C000000000000010001000100F9
:1002B000010001000100F900F000FA000100010056
:1002C0000100010001000100010001000100F20035
:1002D000F100F30001000100010001000100010034
:1002E00001000100010001000100FB00FC00010011
:1002F00001000100010001000100F700F800F60014
:100300000000F400000000000000F5000100010002
:1003100001000000000000000000000000000000DC
:1003200000000000000000000000000000000000CD
:1003300000000000000000000000000000000000BD
:1003400000000000000000000000000000000000AD
:10035000000000000000000000000000000000009D
:1006D0000000C25CC35CC55CC75CC95C0100010072
:1006E00001000100095D085D005C010001000100DE
:1006F0000100CA5C010001000100010001000100CD
:1007000001000100010001000100010001000100E1
:1007100001000100010001000100010001000100D1
:1007200000000100000000000000010001000100C5
:1007300001000000000000000000000000010102B4
:1007400003040506080A0C0F1114181C2024292E76
:1007500033393F464C535B626A7179818A929AA21F
:10076000AAB2B9C1C8CFD5DCE1E7EBF0F4F7FAFCE7
:10077000FDFEFFFEFDFCFAF7F4F0EBE7E1DCD5CF80
:10078000C8C1B9B2AAA29A928A8179716A625B538E
:100790004C463F39332E2924201C1814110F0C0A03
:1007A000080605040302010100000000000000002B
:1007B00000000403300000001C03450071007500B8
:1007C00069006E006F007800200062007900200050
:1007D0004E00520000002603610069003000330023
:1007E0002000440065007300690067006E0020006F
:1007F000530074007500640069006F00000004037A
:10080000090409023B00020100A0FA0904000001EA
:1008100003010100092111010001224000070581A7
:100820000308000A09040100010300000009211166
:1008300001000122BC000705820320000A120110FA
:10084000010000000803A1040001000102030105EA
:10085000010902A10185020901A100050919012967
:100860000515002501950575018102950175038126
:10087000010501093009311581257F95027508812F
:100880000609381581257F950175088106050C0A32
:1008900038021581257F950175088106C0C00501C4
:1008A0000980A101850319012AB700150126B700A7
:1008B000950175108100C0050C0901A1018504197D
:1008C000012AA002150126A002950175108100C021
:1008D00005010906A1018505050719E029E71500AD
:1008E00025019508750181020507190029EF1500FA
:1008F000250195F075018102050819012905950565
:1009000075019102950175039101C005010906A1C8
:1009100001050719E029E7150025019508750181F2
:10092000029501750881010507190029FF150026A8
:10093000FF00950675088100050819012905950530
:1009400075019102950175039101C00011241FBE2C
:10095000CFEFD4E0DEBFCDBF04B603FE27C0809149
:10096000840290918502A0918602B091870287301F
:10097000904BA740B04BD1F41092840210928502A4
:10098000109286021092870214BE84B7877F84BFBC
:100990000FB6F894A89580916000886180936000FC
:1009A000109260000FBEE0E0F8E3099511E0A0E0CE
:1009B000B1E0E4E2FFE402C005900D92A838B1076F
:1009C000D9F722E0A8E8B1E001C01D92A438B2072F
:1009D000E1F70E94A9210C9490270C940000CF937A
:1009E000DF93EC010E94D01ABE0180E090E0DF911D
:1009F000CF910C949F17CF93FB0189302DE592077F
:100A000041F080312DE5920791F088309D45D1F479
:100A100006C0C281CC23B9F081E090E005C0C2815C
:100A2000CC2389F082E090E00E94EF0406C0C281EE
:100A300080E1CC2321F00E94FF17C0E004C00E9497
:100A4000201801C0C1E08C2FCF91089581E0089556
:100A50000C94FB041F93CF93DF9300D000D01F9220
:100A6000CDB7DEB749835A836B832091A201898178
:100A70009A81211112C0662349F00E94FD18182F97
:100A8000682F89819A810E949D1803C00E94CE1808
:100A9000182F69817A81812F04C00E94FD18698115
:100AA0007A810F900F900F900F900F90DF91CF9160
:100AB0001F910C94D705FC014081518162817381A3
:100AC00084810C942A050E94411D0E94BD1A811147
:100AD00002C00E946B1B0E94A50B0C9405080C948D
:100AE000010808950C94710581E008950C94740533
:100AF000CF93C82F0E9472058C2F0E947605CF914C
:100B0000089508950E9446130E9481052FEF84E303
:100B10009CE0215080409040E1F700C000000C9420
:100B20001B1D0F931F93CF93DF93EC010E945B0576
:100B30008C01BE010E942805882379F1BE01C801FD
:100B40000E944A0A882349F1BE01C8010E942F0C65
:100B5000882319F1BE01C8010E94700C8823E9F0B6
:100B6000BE01C8010E949B0D8823B9F08A818823A9
:100B700069F001158CE5180731F00E3D1C4531F484
:100B80000E946B1B0AC00E94820507C0CE01DF9144
:100B9000CF911F910F910C94260580E0DF91CF91AA
:100BA0001F910F91089580E090E008950895382FE7
:100BB000262F872F90E06CE070E00E94D426FC0185
:100BC000832F90E060E370E00E94D4268E0F9F1F79
:100BD000FC01E20FF11DEE0FFF1FEE52FF4F85915A
:100BE00094910895880F991FFC01EE5CF84F859150
:100BF00094910895CF93DF930E94D7050E9419071F
:100C0000EC018115904508F041C0C11580E4D8077A
:100C100008F0D6C0C83ED10510F5C03ED10508F099
:100C200004C1C83AD10578F4C53AD10508F0A7C087
:100C3000C130D10509F4F9C008F4F5C0C430D105BC
:100C400008F0F3C0F0C0CF3BD10508F4A0C0C03C11
:100C5000D10508F4E8C0CE01805C9109A3C0C1159C
:100C600090E2D90758F4C11521E0D20708F0DDC0A1
:100C7000C03FD10508F4D7C0D065D7C0C11580E307
:100C8000D80708F093C0CE019F708CC0C11595E5C0
:100C9000D90708F048C0C11524E5D20708F0A9C05B
:100CA000C11582E5D80720F5C11591E5D90708F0EF
:100CB0008AC0CE01F4E096958795FA95E1F7282F42
:100CC00023703C2F337081E090E002C0880F991FA1
:100CD0003A95E2F79C68922BCF70C695C695D0E006
:100CE000A5E0CC0FDD1FAA95E1F7C82BD92B9DC03D
:100CF0009E01237033278C2F86958695C115D34589
:100D000008F066C0C1E0D0E002C0CC0FDD1F2A951C
:100D1000E2F790E075E0880F991F7A95E1F7C82B0C
:100D2000D92BDC6882C0C11529E5D207A0F4C11512
:100D300088E5D80708F062C0C11596E5D90708F024
:100D400072C08C2F0E94AD078F71C82FD0E0DC2FAE
:100D5000CC27D0626AC0C1152AE5D20708F453C077
:100D6000CE0190568115904208F05DC08D2F8F7195
:100D70000E94AD07DD27D0628F71D82B56C0C55AAF
:100D8000D0E0CC5BDE4FC881D0E0D0644EC0C85A02
:100D9000D0E0CC0FDD1FCA5EDE4F0990D881C02D98
:100DA000D46443C00E94F205EC013FC0CE019927F4
:100DB000D3FF03C0EC01D86C38C0EC01D06C35C057
:100DC000DF70D06A32C0DC2FCC27C16FD06A2DC053
:100DD000C1E0D0E002C0CC0FDD1F2A95E2F790E021
:100DE00065E0880F991F6A95E1F7C82BD92BDA685F
:100DF0001CC0DC2FCC27C46FD06A17C0DC2FCC27D7
:100E0000C06FD06A12C08C2F8F700E94AD0794E023
:100E1000D695C7959A95E1F7CF70D0E0DC2FCC2717
:100E2000D069C82B02C0C0E0D0E0CE01DF91CF91E5
:100E300008958238910569F1B0F48133910509F480
:100E40006DC048F48932910509F463C08A32910576
:100E500009F469C008958533910509F455C08933B3
:100E60009105B9F00895833E910569F138F4803E0B
:100E70009105B1F0823E910509F10895863E9105F4
:100E8000A9F1873E9105B9F1843E910509F064C04E
:100E900023C02091750220FD4FC021FD4DC0089553
:100EA0008091750280FD44C08091760280FF44C02D
:100EB0008091750284FD42C083EE4DC08091750221
:100EC00082FF38C0F5CF8091750282FD33C08091DA
:100ED000760280FD31C0ECCF8091760281FF32C076
:100EE0008091750284FD2AC087EE35C0809175021D
:100EF00083FF26C0F5CF8091750283FD21C08091CC
:100F0000760281FD1FC0ECCF8091750285FD1CC06B
:100F10001DC08091750285FD19C016C080917502B3
:100F200086FD16C017C08091750286FD13C010C0E3
:100F300089E311C082EE0FC080EE0DC080E00BC0CF
:100F400086EE09C084EE07C089E205C085E303C0D0
:100F50008AE201C081E390E008959091750292FFCA
:100F60000DC0282F2871283019F4877F846006C0AF
:100F7000282F2471243011F48B7F886093FF0DC0DB
:100F8000282F2871283119F4877E846106C0282F04
:100F90002471243111F48B7E88612091760220FF28
:100FA0000DC0382F3871383019F4877F816006C042
:100FB000382F3171313011F48E7F886021FF0DC0E0
:100FC000282F2871283119F4877E816106C0282FC7
:100FD0002171213111F48E7E886194FD877E089500
:100FE000E82FF0E0EE0FFF1FEA59FD4F808191815D
:100FF0000895089580EA8A95F1F7089508950C946C
:10100000FE070C94FF070C94FE070C940308CF9383
:10101000DF93A3E5B1E047E551E061E070E08D9139
:10102000E82FE295EF70F0E021A18F70EB0102C094
:10103000CC0FDD1F8A95E2F7CE019C2F909592236D
:1010400091A392A1892B82A34A175B0741F7A7E4DA
:10105000B1E041E050E08D91E82FE295EF70F0E0D3
:1010600021A18F70BA0102C0660F771F8A95E2F73F
:10107000CB01962F9095922391A392A1892B82A3C5
:1010800071E0A335B70739F710925F0210925E0244
:101090001092670210926602109261021092600232
:1010A000109269021092680210926302109262021A
:1010B00010926B0210926A02109265021092640202
:1010C00010926D0210926C0284E00E940809DF9178
:1010D000CF910C9463052F923F924F925F926F9243
:1010E0007F928F929F92AF92BF92CF92DF92EF92B8
:1010F000FF920F931F93CF93DF9383E5C82E81E078
:10110000D82E0EE512E096E6492E92E0592E312CAB
:1011100088248394912C5801D8016D907C9011976C
:101120001D921C92F60181916F01C82FC295CF705C
:10113000D0E099A18F70740101C0EE0C8A95EAF796
:10114000892F8E2989A38AA12E2C209482218AA3FB
:101150000E94FA07E7E4F1E020E030E06191A62F79
:10116000A295AF70B0E090968C91D8014D915C91B2
:1011700090E06F7002C0959587956A95E2F780FDC3
:1011800008C0C401022E02C0880F991F0A94E2F71A
:1011900002C080E090E0482B592BD8014D935C931E
:1011A0002F5F3F4F2C303105C9F689A1282229A293
:1011B0008AA1E82AEAA20E5F1F4F81E0F501208193
:1011C00031812615370509F480E0382A401651068A
:1011D00009F0A1CF232D44E066E672E08EE592E0AF
:1011E0000E9409090E946F05832DDF91CF911F9105
:1011F0000F91FF90EF90DF90CF90BF90AF909F90B6
:101200008F907F906F905F904F903F902F900895B8
:101210000895FF920F931F93CF93DF93F82E092F1A
:10122000162FD72FC42F222349F081E080938A0103
:101230000E94BF1C909389018093880180918A014C
:101240008823D9F080918801909189010E94CB1C5C
:10125000069798F0EF2DF02FA12FBD2F80E090E0A2
:101260004C2F50E08417950734F4219131912D9340
:101270003D930196F7CF10928A01DF91CF911F9194
:101280000F91FF90089580916E02869586958695C0
:10129000089580916E0281FD07C0826080936E0286
:1012A0000E94F71A0C941A0B089580916E0281FF28
:1012B00007C08D7F80936E020E94F71A0C94240B56
:1012C000089580916E0281FD0C9455090C94490992
:1012D00080916E0286958170089580910001089535
:1012E0000E94BD1A811102C00E946B1B0E94F31A5A
:1012F00080936E02282F26952695269530E026307D
:10130000310524F08770886280936E0280916E02AE
:1013100080FF04C086958695869501C080E00C9478
:10132000D60A20916E02822F869586958695482F43
:1013300050E04530510554F48F5F982F990F990F65
:10134000990F822F8770892B80936E0280916E0295
:10135000816080936E020E94F71A80916E028695DA
:10136000869586950C94D60A80916E02982F969554
:1013700096959695A1F0915E990F990F990F8770A8
:10138000892B80936E02887F91E009F490E0809130
:101390006E0290FB80F980936E020E94F71A809192
:1013A0006E028695869586950C94D60A80916E027B
:1013B00080FD13C0816080936E02813019F489E052
:1013C00080936E0280916E020E94F71A80916E02E5
:1013D0008695869586950C94D60A089580916E021E
:1013E00080FF08C08E7F80936E020E94F71A80E013
:1013F0000C94D60A089580916E0280FD0C94EE093B
:101400000C94D60990916E02892F869586958695C3
:101410008F5F8F719770863038F4880F880F880F30
:10142000892B80936E0202C090936E0280916E02AF
:10143000887F91E009F490E080916E0290FB80F942
:1014400080936E020E94F71A80916E0286958695AF
:1014500086950C94D60A863008F085E090916E024D
:101460009770282F220F220F220F922B90936E023B
:10147000987F21E009F420E090916E0220FB90F922
:1014800090936E020C94D60A0E942B0A80916E02F1
:101490000C94F71AFC01DB0112968C918823F9F069
:1014A000EB5BFC45E730F105D8F4E65CFF4F0C94AC
:1014B000482785E001C080E00E94440A80E008954A
:1014C0000E94B409FBCF0E949109F8CF0E94FB094A
:1014D000F5CF0E94020AF2CF0E946109EFCF81E0AE
:1014E0000895519A59980895599A089559980895C8
:1014F000CF92DF92EF92FF928C3724E1920728F48B
:1015000069E070E00E94FE2627C0A0E0B0E08A50AB
:10151000974DAF4FBF4F6627782F892F9A2F25EF12
:1015200038E241E050E00E94262769017A01CA01B1
:10153000B9010E94E526A70196010E94E526BB2776
:10154000A92F982F872F009721E0A207B10511F04E
:10155000BC0102C06FEF7FEFCB01FF90EF90DF90F7
:10156000CF9008951F920F920FB60F9211242F93D0
:101570003F934F935F936F937F938F939F93AF931B
:10158000BF93EF93FF930E94760AFF91EF91BF9173
:10159000AF919F918F917F916F915F914F913F910B
:1015A0002F910F900FBE0F901F901895CF93C82FBB
:1015B0008630A8F4811114C0809188009091890030
:1015C000892B51F080916F008D7F80936F00809107
:1015D0006F008E7F80936F000E94760A11C0C5E075
:1015E0008091880090918900892B51F480916F003F
:1015F000826080936F0080916F00816080936F00A4
:101600006C2F70E080E090E02FEF3FEF40E050E083
:101610000E94E52625E030E040E050E00E942627C9
:10162000C9010E94780A9093890080938800CF9125
:101630000895089510928D0110928C0110928E01E0
:1016400081E080938B01089510928B010E944309E1
:101650000C94D60ACF930E946D09E0918C01F09111
:101660008D01319690E064EF70E00E94D4269C01D9
:10167000CF01B9010E94FE2690938D0180938C01C9
:10168000B901660F672F661F770B71950E94FE26C2
:101690006F7780918E01823019F4603439F404C080
:1016A000813021F46F3711F410928B01E62FF0E0B6
:1016B000EE5CF84FC4910E944309282F8C2F90E0D4
:1016C00061E071E00E94D42665E070E00E94FE2691
:1016D000CB01622F70E00E94D4260E94780A90937A
:1016E000890080938800CF9108951F920F920FB6C2
:1016F0000F9211242F933F934F935F936F937F9398
:101700008F939F93AF93BF93EF93FF9380918B0140
:1017100081110E942A0B809188009091890081306C
:10172000914010F00E94740AFF91EF91BF91AF9128
:101730009F918F917F916F915F914F913F912F91E9
:101740000F900FBE0F901F9018950E94710A82E0B3
:101750008093800089E1809381008FEF9FEF9093C9
:101760008700809386000E9470090E946809811199
:101770000C941A0B08950F931F93CF93DF93C62FEA
:10178000D42F122FFC0182818823C9F0609391012C
:101790000E94BF1C9093900180938F0180E28C0F78
:1017A000883008F057C0C77081E001C0880FCA9523
:1017B000EAF7DF91CF911F910F910C9472108091F5
:1017C0009101681330C080918F01909190010E9427
:1017D000CB1C883C910538F500E20D0FCD17B9F010
:1017E00080E28C0F883040F4C77081E001C0880F20
:1017F000CA95EAF70E947910083028F581E09D2FFC
:10180000977001C0880F9A95EAF70E947210812F95
:101810000E945F100830F0F4D77081E001C0880F9B
:10182000DA95EAF70AC080E28C0F883098F4C77026
:1018300081E001C0880FCA95EAF7DF91CF911F912F
:101840000F910C947910812FDF91CF911F910F91FF
:101850000C945F10DF91CF911F910F9108959C011F
:10186000CB01233F4CE53407F9F078F4283DFCE543
:101870003F07B9F0293D4CE5340711F1273D3C45C0
:1018800031F526E241EE61EE1EC0253FFCE53F0743
:1018900099F070F0263F3C45D1F427E245EE66EE24
:1018A00012C027E245EE0EC026E241EE60EE0BC00C
:1018B00027E245EE64EE07C026E241EE62EE03C089
:1018C00028E241E065EE0E94BB0B80E00895FC0138
:1018D0008281882319F010929101089581E0089582
:1018E000CF93DF93EC01FB018281882309F41FC1B0
:1018F000C230FCE5DF0708F41BC1C6319CE5D907FF
:1019000038F09E012A5F3C452930310508F010C1AE
:101910000E94D51A9093760280937502C031ECE54F
:10192000DE0709F4C3C008F041C0C8308CE5D80711
:1019300009F49AC0F0F4C430ECE5DE0709F487C07E
:1019400068F4C2308CE5D80709F477C0C330DC45B1
:1019500009F0E3C080917502826076C0C630ECE584
:10196000DE0709F46EC008F07BC0809175028860C4
:101970006BC0CC308CE5D80709F485C068F4CA3058
:10198000ECE5DE0709F474C008F079C00E94461344
:1019900080917502806858C0CE308CE5D80709F474
:1019A00076C008F07FC0809175028BC0CB3FECE51C
:1019B000DE0709F44FC018F5C3318CE5D80709F4E8
:1019C0007DC078F4C131ECE5DE0709F473C0C231A3
:1019D000DC4509F0A2C00E944613809175028F7702
:1019E00033C0C5318CE5D80709F472C008F486C04D
:1019F000CA3FDC4509F091C0809176023EC0CF3FDE
:101A0000FCE5DF0709F45FC058F4CD3F9CE5D9073A
:101A100009F444C008F43FC08091760282602DC072
:101A2000C130FDE5DF0709F475C008F45DC0C230C0
:101A3000DD4509F072C080E06EC080917502816062
:101A400003C08091750280618093750266C08091A9
:101A5000750211C0809176028260809376025DC02B
:101A6000809175028062F0CF809175028064ECCF26
:101A70008091750288608460E7CF8160EECF8091AD
:101A800075028E7FE1CF809175028D7FDDCF8091D1
:101A90007502877FD9CF8091760218C08091760237
:101AA0008D7FDBCF809175028F7ECECF80917502C6
:101AB0008F7DCACF809175028F7BC6CF80917502D2
:101AC000877F8B7FC1CF809176028D7F8E7FC5CF40
:101AD0008091750282FB222720F991E0922790FBEA
:101AE00082F990FB83F9B0CF80917602982F909580
:101AF00091708E7F892B90FB81F9AFCF0E944613A6
:101B00008091750287FB222720F991E0922790FBB4
:101B100087F99ACF81E00E946D1B809175029091A8
:101B200076020E94E61A0E94461380E001C081E01E
:101B3000DF91CF910895CF93DF9386319C4571F566
:101B4000EB010E94CF19982F917119F4982F9A7A6E
:101B500001C090E08A812091010130910201882327
:101B600079F081E0911101C080E0809392019111A0
:101B700002C069E201C065E3C9010E94081C0AC0F5
:101B800080919201811102C069E201C065E3C9013F
:101B90000E94131C0E942C1A80E001C081E0DF919A
:101BA000CF91089590939801809397010895E091C3
:101BB0009701F0919801309721F00190F081E02D8C
:101BC000099480E00895E0919701F0919801309791
:101BD00099F020911501222359F02091750227FFD9
:101BE00007C0DC012C9111962C93119725E02C93C2
:101BF0000280F381E02D09940895E0919701F0911E
:101C00009801309739F022E0DC012C930480F581B3
:101C1000E02D09940895209195013091960128179F
:101C2000390771F09093960180939501E0919701A7
:101C3000F0919801309721F00680F781E02D09940A
:101C4000089520919301309194012817390771F07C
:101C50009093940180939301E0919701F091980102
:101C6000309721F00084F185E02D099408950895BE
:101C70000C94370E0C94380E0C94370E0C94370ECF
:101C80000E943C0E0C943A0E81E008950E94B61C0E
:101C90000E9407080E94551D0E947009E5E7F2E0C6
:101CA00080818068808380917502909176020E9485
:101CB000E61A0C943E0E7F928F929F92AF92BF9243
:101CC000CF92DF92EF92FF920F931F93CF93DF9308
:101CD000CDB7DEB72A970FB6F894DEBF0FBECDBFE3
:101CE0000E946B080E94440E811111C08FEF8983FE
:101CF0008A831B820E94BF1C8160782F9D838C8306
:101D000049815A816B818D810E940D0F4FC04AE934
:101D1000A42E41E0B42E00E010E0702E802F0E942F
:101D2000F0076C01F501819091905F01882699265A
:101D30008114910431F40F5F1F4F0430110569F7CE
:101D4000D5CF80912B0281FD0E94F90780E0EE241F
:101D5000E394F12C94012E213F21232B09F18E8352
:101D60007F82CE20DF2081E0CD2809F480E08887C3
:101D70000E94BF1C8160782F9A8789874E815F817E
:101D800068858A850E940D0F000F111FF801E65625
:101D9000FE4F80819181E826F926F182E08206C01B
:101DA0008F5FEE0CFF1C8C30A9F6C5CF0E94190B7B
:101DB0000E94EB1E0E94D70D909199018917C9F0DE
:101DC0000E94D70D809399012A960FB6F894DEBF32
:101DD0000FBECDBFDF91CF911F910F91FF90EF907C
:101DE000DF90CF90BF90AF909F908F907F900C949A
:101DF00078052A960FB6F894DEBF0FBECDBFDF91EF
:101E0000CF911F910F91FF90EF90DF90CF90BF90F7
:101E1000AF909F908F907F900895CF93DF93CDB731
:101E2000DEB72B970FB6F894DEBF0FBECDBF4F8342
:101E3000588769877A878B87DE01119686E0FD01D6
:101E400011928A95E9F785E0FE01379601900D928F
:101E50008A95E1F70E949D19882319F082E00E947B
:101E60009E1A0E94701981110E941E1A49815A817E
:101E70006B817C818D819E810E945D162B960FB6B1
:101E8000F894DEBF0FBECDBFDF91CF910895FC0166
:101E9000808191810E943F190895CF93882309F48E
:101EA000A4C0C82F8238C1F40E94D70D81FD9DC007
:101EB00069E380910101909102010E94081C0E9437
:101EC0002C1A2FEF81EE94E0215080409040E1F7F2
:101ED00000C0000069E319C0833801F50E94D70DE6
:101EE00080FD83C063E580910101909102010E9411
:101EF000081C0E942C1A2FEF81EE94E021508040A4
:101F00009040E1F700C0000063E5809101019091ED
:101F100002010E94131CCF910C942C1A8438C1F436
:101F20000E94D70D82FD61C067E48091010190910C
:101F300002010E94081C0E942C1A2FEF81EE94E0EF
:101F4000215080409040E1F700C0000067E4DDCF01
:101F50008CEF8C0F813AD0F46C2F8091010190911D
:101F600002010E94881B882349F06C2F8091010197
:101F7000909102010E94131C0E942C1A6C2F8091D8
:101F80000101909102010E94081CC5CF80E28C0FD4
:101F9000883048F4C77081E001C0880FCA95EAF71D
:101FA0000E94D219B8CFEBE5EC0FE33040F4F0E03B
:101FB000EB57FE4F808190E0CF910C940B0EE8E53B
:101FC000EC0FE73150F4F0E0EE0FFF1FE95AFE4F3F
:101FD00080819181CF910C94210EC03F30F08C2FE5
:101FE0000E94F31DCF910C94E01ECF910895882399
:101FF00009F464C0823879F40E94D70D81FF5EC075
:1020000069E380910101909102010E94081C0E94E5
:102010002C1A69E310C08338B1F40E94D70D80FFF9
:102020004DC063E580910101909102010E94081C5E
:102030000E942C1A63E580910101909102010E9497
:10204000131C0C942C1A843879F40E94D70D82FF4B
:1020500035C067E480910101909102010E94081C43
:102060000E942C1A67E4E7CF9CEF980F913A10F486
:10207000682FE1CF90E2980F983050F4877091E08C
:1020800001C0990F8A95EAF7892F0E94D819D9CFF4
:102090009BE5980F933020F480E090E00C940B0EB9
:1020A00098E5980F973120F480E090E00C94210E91
:1020B000803F20F00E945B1E0C94E01E0895CF9399
:1020C000C82F0E944D0FC93349F42FEF87EE93E0DC
:1020D000215080409040E1F700C000008C2FCF914C
:1020E0000C94F70F882321F00E94D2190C942C1A1B
:1020F0000895882321F00E94D8190C942C1A089571
:10210000CF92DF92EF92FF920F931F93CF93DF93C3
:102110007C01062FC72FFC01D581D295DF7012817B
:1021200011110E94EF190E94C819882379F0112318
:1021300069F080E2800F883048F082E00E949E1AA9
:102140000E94C81991E0D82ED92601C0D12CCC2EDE
:10215000C2948FE0C8228C2D90E0FC01EF5BFF4F12
:102160000C9448278C2F807FCF70882311F0C29564
:10217000C07F112399F0CC2309F4ECC180E2800FD9
:10218000883010F0011104C08C2F0E94D21903C0B6
:102190008C2F0E94E2190E942C1ADCC1802F0E9411
:1021A000F70FCC2309F4FCC180E2800F883010F0D7
:1021B000011104C08C2F0E94D81903C08C2F0E94DB
:1021C000E8190E942C1AECC18C2F807FCF708032CE
:1021D00011F0C295C07F002319F0013059F134C0CD
:1021E0001123B1F0DD2381F0D13031F40E94021AC5
:1021F0008C2B0E940A1AD4C1D33031F40E941E1ACB
:102200008C2F0E946A1A24C00E94021A8C2B21C0B3
:10221000DD2369F0D13041F40E94CF198C2309F4F9
:10222000BFC10E94731A03C0D33009F4B9C10E9420
:102230001E1A1FC0112321F0D43008F0B1C108C00C
:10224000D33008F0ADC115C0112331F0D11182C1D6
:102250008C2F0E947210A4C1DD2359F0093309F0BC
:102260008BC1FFEF27EE83E0F15020408040E1F783
:1022700081C18C2F0E94791093C18C2F86958695F1
:10228000837019F0813061F08BC1112321F0802F10
:102290009C2F937002C080E090E00E940B0E88C1DA
:1022A000112321F0802F9C2F937002C080E090E0DA
:1022B0000E94210E7DC11123F9F0053F51F0063F28
:1022C00071F0043FA9F480916F02909170028160D7
:1022D0000BC080916F0290917002826005C0809166
:1022E0006F029091700284609093700280936F02ED
:1022F000802F0E94F31D1EC0053F51F0063F71F074
:10230000043FA9F480916F02909170028E7F0BC000
:1023100080916F02909170028D7F05C080916F0255
:10232000909170028B7F9093700280936F02802F48
:102330000E945B1E0E94E01E3BC18C2F837009F03F
:1023400045C0111131C1402F429546954770440F49
:10235000440F602F6F70862F90E0A0E0B0E0042E55
:1023600004C0880F991FAA1FBB1F0A94D2F704FF4D
:1023700010C00FE010E020E030E004C0000F111F9B
:10238000221F331F4A95D2F700951095209530955E
:1023900003C000E010E09801C695C695C370BC016B
:1023A000CD01602B712B822B932BC23049F058F456
:1023B000C13019F00E94B317F7C00E94A117F4C0F2
:1023C0000E94C517F1C00E949F17EEC0112319F09B
:1023D0008C2F817001C08695882309F4E5C0402FB9
:1023E000429546954770440F440F602F6F70862FBB
:1023F00090E0A0E0B0E0042E04C0880F991FAA1F4F
:10240000BB1F0A94D2F704FF10C00FE010E020E0D9
:1024100030E004C0000F111F221F331F4A95D2F76E
:10242000009510952095309503C000E010E09801CC
:10243000C695C695C370BC01CD01602B712B822B54
:10244000932BC23049F058F4C13019F00E9478182B
:10245000ABC00E946618A8C00E948A18A5C00E943E
:10246000D917A2C0CF70112339F08C2F0E94FF170B
:10247000802F0E94721098C0802F0E9479108C2F9C
:102480000E94201891C0023F01F128F4003F41F062
:10249000013FA1F05AC0033FF9F0043F39F155C0A4
:1024A000112341F0D33008F07BC08C2F8F710E9434
:1024B000451876C0D43008F073C0F7CF112339F037
:1024C0008C2F8F710E94FF176BC01123C9F38C2FC3
:1024D0008F710E94201864C0112329F08C2F8F71F6
:1024E0000E94EA175DC00E94E5175AC01123C9F087
:1024F0000E946D190E94D8190E949919843039F4EC
:102500000E94951A8C2F8F710E9420186CC0D330B6
:1025100008F069C0CF718C2F0E94FF1763E08C2FE9
:102520000DC00E946D190E94D219D33050F00E9444
:10253000951A0E94731A64E08C2F8F710E947F1A83
:1025400052C081E00E949E1A4EC0112339F0DD2353
:1025500009F4B6CF802F0E944D0F22C0DD2309F46D
:10256000B6CF093349F49FEFE7EEF3E09150E04036
:10257000F040E1F700C00000802F0E94F70F10C06C
:102580004C2F4F70602FC7010E94D3050E94101777
:102590000FC04C2F4F70602FC7010E94D60508C096
:1025A00088EF8C0D843020F40E94D70D0E947805AE
:1025B000DD20D9F00E94991980FD17C0F701128221
:1025C0000E9493190E94FF17C7010E94FE120E94E9
:1025D0009319DF91CF911F910F91FF90EF90DF90B2
:1025E000CF900C942018D12CDFCFDF91CF911F9189
:1025F0000F91FF90EF90DF90CF9008950F931F936E
:10260000CF93DF93EC01988189812B813C81232B2F
:1026100031F08F3F31F481E09F3F19F403C081E036
:1026200001C080E080FD13C0CE010E949105882387
:1026300071F0688179818A810E944A198C010E9417
:102640009C180E948D17B801CE010E948010DF9166
:10265000CF911F910F9108950E94EF190E94FF19C9
:102660000E942C1A0E9418200E94E01E80E090E038
:102670000E940B0E80E090E00C94210E80910101ED
:10268000909102010E941E1C0C942C130E94DF19D1
:102690000C943E13E92FE295EF704E2F50E0FA01B3
:1026A0003297EE30F105B0F4EF5AFF4F0C94482703
:1026B000803F91F018F4883E68F40EC0843F51F4D6
:1026C0000BC0883E48F0813F29F406C093FB882761
:1026D00080F9089580E0089581E008950E943F19EF
:1026E0000E944A130895CF93DF9300D000D01F9229
:1026F000CDB7DEB70F900F900F900F900F90DF9136
:10270000CF910895CF93DF9300D000D000D0CDB704
:10271000DEB726960FB6F894DEBF0FBECDBFDF91B1
:10272000CF910895CF93DF93C091A3018091A4012D
:10273000C817A1F0D0E0CE0166E070E00E94D42678
:10274000FC01EB55FE4F4081518162817381848190
:1027500095810E9482132196C770E8CFDF91CF91B7
:1027600008954091D5015091D6016091D7017091A3
:10277000D8018091D9019091DA010C948213CF9302
:10278000B82FC62F2091A301A091A4012A17B1F060
:1027900030E0C90166E070E00E94D426FC01EB55F0
:1027A000FE4F81818C1306C080818B1303C0828110
:1027B000841306C02F5F3F4F2770E8CF80E001C031
:1027C00081E0CF9108951F93CF93DF938091DA0139
:1027D00082958F7009F066C08091D701882309F433
:1027E00061C02091A3011091A401C091D501D091A5
:1027F000D601E091D801F091D90181E0CF3F09F0F5
:1028000080E0482F211709F44DC0309721F0DF3FB9
:1028100021F080E003C081E001C0842F30E080FD22
:102820003DC0C90166E070E00E94D426DC01AB55D2
:10283000BE4F11968C9111978D1330C08C918C13D3
:102840002DC012968C911297811128C013968D91EC
:102850009C9114978E179F0708F401978E1B9F0B6E
:10286000883C9105D8F48091DA018F708061809363
:10287000DA01C90166E070E00E94D426FC01E65549
:10288000FE4F90819F709061908385ED91E00E9452
:10289000FE12DF91CF911F910C9492132F5F3F4F47
:1028A0002770B0CFDF91CF911F9108959F92AF9283
:1028B000BF92CF92DF92EF92FF920F931F93CF932D
:1028C000DF93CDB7DEB761970FB6F894DEBF0FBECA
:1028D000CDBF7C0185E0F701DE011D9601900D92D0
:1028E0008A95E1F7D701DC9011960C911197129619
:1028F000CC903091D5014091D6018091D801909132
:10290000D901009731F04F3F31F421E03F3F19F4F6
:1029100003C021E001C020E020FD9FC1F701A3809A
:10292000B4809090D701992009F42BC12091DA014D
:10293000A816B90628F0B501681B790BCB0104C0B5
:10294000809590958A0D9B1D11E0883C910590F033
:1029500010E0207F09F0DBC07A2DB98AA88A4D2DBE
:10296000502F6C2D89890E94731385ED91E00E9490
:10297000FE126BC1822F807F09F091C0041315C035
:10298000D31213C01C2DC11010C02F7020612093D2
:10299000DA010E94B11385ED91E00E94FE12809150
:1029A000DA01D70115968C9375C1A114B10439F0E1
:1029B0000F3F39F481E0BFEFDB1203C003C081E0B9
:1029C00001C080E080FD03C081E08C2502C080E072
:1029D00090E080FF15C04C2D602F8D2D0E94BF13FD
:1029E000882371F085ED91E00E94FE12E5EDF1E0A3
:1029F00086E0DF011D928A95E9F70E94B1134DC070
:102A0000AB2839F00F3F39F481E0BFEFDB1203C090
:102A100003C081E001C080E080FD03C081E08C251F
:102A200002C080E090E0E82FE170BE2E80FF2CC055
:102A30004C2D602F8D2D0E94BF13182F811124C0A3
:102A4000DD860E878D859E850E943F19292F229550
:102A50002F70223018F0243090F405C09F7059F088
:102A6000811109C017C19F7031F0D70115969C9153
:102A7000907F09F40FC1805E883008F40BC1C70154
:102A80000E94FE121B2D06C11C2DCC2009F402C190
:102A90008091DA0181608093DA0110E0FBC00413B9
:102AA00009C0D31207C0C11005C08091DA01F70137
:102AB0008583A5C0DD860E878D859E850E946E1359
:102AC000882379F1CC2069F12091DA01822F829557
:102AD0008F7090E0029774F08091D5019091D601AB
:102AE00098878F831986BB86AA862C87CE01079686
:102AF0000E94FE1286E0F701A5EDB1E001900D9273
:102B00008A95E1F70E94E3130E94B1130DC00417E8
:102B100069F0DD860E878D859E850E946E1381117A
:102B200019C0C7010E94FE1211E0B4C0D312F1CF48
:102B3000C110EFCF8091DA01F7018583C7010E94B0
:102B4000FE1286E0E5EDF1E0DF011D928A95E9F7DE
:102B5000192DA0C0CC2029F32091DA01822F829573
:102B60008F7090E0029734F28091D5019091D60158
:102B70009A8389831B82BD82AC822E83CE0101960B
:102B8000B7CFA816B90628F0F501E81BF90BCF015D
:102B900004C0809590958A0D9B1D883C910558F046
:102BA00010E07A2DB98AA88A4D2D502F6C2D898975
:102BB0000E9473134AC01C2DCC2009F4B2CF041319
:102BC00033C0D31231C02091DA0120FD24C0822FFE
:102BD00082958F70482F50E041155105E1F0D701E3
:102BE00015962C9315974F30510549F08F5F982F0C
:102BF0009295907F822F8F70892B15968C93C701A9
:102C00000E94FE1286E0F701A5EDB1E001900D9261
:102C10008A95E1F73DC086E0F701A5EDB1E00190AE
:102C20000D928A95E1F736C0DD860E878D859E85EB
:102C30000E946E1381115ECF8091DA0181608093D2
:102C4000DA01C7010E94FE1225C0E5EDF1E086E041
:102C5000DF011D928A95E9F71BC0CC2009F461CFF2
:102C6000DD860E878D859E850E946E13182F882322
:102C700009F457CF86E0F701A5EDB1E001900D9280
:102C80008A95E1F785ED91E00E94470F0E94E313DA
:102C90000E94B113812F61960FB6F894DEBF0FBE6C
:102CA000CDBFDF91CF911F910F91FF90EF90DF90FB
:102CB000CF90BF90AF909F900895CF93DF93CDB703
:102CC000DEB72C970FB6F894DEBF0FBECDBF4F8393
:102CD000588769877A878B879C87CE0107960E94E1
:102CE00056148823D1F09F8188852A853B85232B24
:102CF00031F08F3F31F481E09F3F19F403C081E050
:102D000001C080E080FD6FC04F81588569857A855C
:102D10008B859C850E94821366C086E0FE013796F3
:102D2000DE01119601900D928A95E1F7FF81E88509
:102D30006A857B856115710531F0EF3F31F481E0E3
:102D4000FF3F19F403C081E001C080E080FD4BC06B
:102D50008091A40190E09C012F5F3F4F27703327A3
:102D60004091A30150E02417350709F443C0F983CB
:102D7000EA837D836C8366E070E00E94D426DC01E8
:102D8000AB55BE4F96E0FE01319601900D929A959B
:102D9000E1F72093A4010E94921325C090E066E021
:102DA00070E00E94D4268B559E4F0E9456148823B3
:102DB00071F18091A30190E066E070E00E94D4265A
:102DC000FC01EB55FE4F408151816281738184810A
:102DD00095810E9482138091A30190E001968770F3
:102DE00099278093A3018091A3019091A401891355
:102DF000D5CF0DC00E9446131092A4011092A301DA
:102E0000E5EDF1E086E0DF011D928A95E9F72C9669
:102E10000FB6F894DEBF0FBECDBFDF91CF910895FE
:102E2000EF92FF920F931F93CF93DF938C01892B27
:102E300009F46CC0F12CEE24E394E8012196F8012A
:102E40008491843740F4843008F051C0813081F09F
:102E5000823019F15BC0853709F444C0A8F19CE7C2
:102E6000980F903708F052C08F770E94F70F41C03B
:102E70000E5F1F4FFE01849190E2980F983050F43E
:102E80008770FE2D01C0FF0F8A95EAF78F2F0E94F1
:102E9000F21914C00E944D0F2DC00E5F1F4FFE018E
:102EA000849190E2980F983060F48770FE2D01C0F5
:102EB000FF0F8A95EAF78F2F0E94F8190E942C1AAB
:102EC00019C00E94F70F16C00E5F1F4FFE01C4917C
:102ED000CC2381F08FE99FE00197F1F700C000005B
:102EE000C150F6CF0E5F1F4FFE01F49003C00E9449
:102EF0004D0F8E018F2D882309F49FCFEFE9FFE05E
:102F00003197F1F700C000008150F5CFDF91CF91EC
:102F10001F910F91FF90EF900895089508950C94DC
:102F20008E170C948F170E9491176093FD01709378
:102F3000FE018093FF01909300020C942C130C94DB
:102F400093170F931F930091FD011091FE012091A3
:102F5000FF0130910002602B712B822B932B1F916C
:102F60000F910C9493170F931F930091FD011091F3
:102F7000FE012091FF013091000260237123822322
:102F800093231F910F910C9493170F931F9300910C
:102F9000FD011091FE012091FF0130910002602798
:102FA0007127822793271F910F910C9493170C94EC
:102FB0008E170E94D7176093F9017093FA018093DE
:102FC000FB019093FC010C942C1360E070E0CB01AA
:102FD0000C94D9170F931F9341E050E060E070E02C
:102FE0008A019B0104C0000F111F221F331F8A9505
:102FF000D2F7C901B8011F910F910C94D9170F9303
:103000001F9341E050E060E070E004C0440F551FA2
:10301000661F771F8A95D2F78091F9019091FA0186
:10302000A091FB01B091FC018A019B01082B192B97
:103030002A2B3B2BC901B8011F910F910C94D91772
:103040000F931F9341E050E060E070E004C0440F34
:10305000551F661F771F8A95D2F74095509560954A
:1030600070958091F9019091FA01A091FB01B091C6
:10307000FC018A019B01082319232A233B23C90150
:10308000B8011F910F910C94D9170F931F9341E032
:1030900050E060E070E004C0440F551F661F771FCA
:1030A0008A95D2F78091F9019091FA01A091FB01E4
:1030B000B091FC018A019B01082719272A273B2789
:1030C000C901B8011F910F910C94D9170F931F9349
:1030D0000091F9011091FA012091FB013091FC015E
:1030E000602B712B822B932B1F910F910C94D9176E
:1030F0000F931F930091F9011091FA012091FB01A8
:103100003091FC0160237123822393231F910F913F
:103110000C94D9170F931F930091F9011091FA01A4
:103120002091FB013091FC016027712782279327B2
:103130001F910F910C94D9170895282F362F892F9E
:103140006CE00E94CB26820F982F9770A1E001C0FF
:10315000AA0F9A95EAF786958695869590E065E0A0
:1031600070E00E94D426FC01E552FE4F40E050E0A2
:10317000632F70E090819B01042E02C03695279545
:103180000A94E2F72170219529272A2329272193E0
:103190004F5F5F4F4530510569F70895282F892FFC
:1031A0006CE00E94CB26820FA82FA770869586958B
:1031B000869590E065E070E00E94D426BC0140E076
:1031C00050E080E0FB01E40FF51FE552FE4F208147
:1031D00030E00A2E02C0369527950A94E2F7217056
:1031E0003327042E01C0220F0A94EAF7822B4F5F87
:1031F0005F4F4530510531F70895BF92CF92DF926E
:10320000EF92FF920F931F93CF93DF938C01C090A7
:10321000F901D090FA01E090FB01F090FC0180915F
:10322000FD019091FE01A091FF01B0910002C82A1A
:10323000D92AEA2AFB2ACFE1D0E0D701C6010C2E19
:1032400004C0B695A795979587950A94D2F780FD07
:1032500004C0219790F7B12C07C0BC2EB8018C2F69
:103260000E94FA050197A9F38B2DDF91CF911F9151
:103270000F91FF90EF90DF90CF90BF900895CF9384
:10328000DF93EC010E94FD18BE010E94FA05DF9158
:10329000CF9108951F93CF93DF93EB019091A201FB
:1032A000992321F0CB010E943F1913C0882349F0D4
:1032B000CB010E94FD18182F682FCE010E949D1887
:1032C00004C0CB010E94CE18182FBE01812F0E948E
:1032D000FA05DF91CF911F9108958091060208951C
:1032E0000E94BF1C209104023091050282179307AF
:1032F00050F00E94BF1C2091040230910502821BF5
:10330000930B9C010AC00E94BF1C209104023091C3
:10331000050220953095280F391F81E02838334168
:1033200008F480E008958091030285958595859540
:10333000089580910302877008950E94BF1C209118
:1033400001023091020282179307A8F00E94BF1C6D
:103350002091010230910202821B930B8838934125
:1033600010F480E013C08091030282FB882780F96B
:1033700091E089270BC00E94BF1C2091010230916F
:10338000020220953095820F931FE8CF8170089537
:1033900090910302977081E009F480E00895809194
:1033A0002A02089590912A02892B80932A02089577
:1033B000809590912A02892380932A020895109281
:1033C0002A02089590912902892B80932902089559
:1033D0008095909129028923809329020895109263
:1033E0002902089590912802892B8093280208953C
:1033F0008095909128028923809328020895109245
:103400002802089580910702089508950C94051AE2
:103410000C94061ACF9390910702981769F0C82F61
:103420000E94BF1C9093050280930402C093070280
:103430008C2FCF910C94081ACF9108958091070298
:10344000882349F01092070210920502109204029C
:1034500080E00C94081A0895E0910101F0910201B6
:1034600080912A028083E0910101F0910201908114
:1034700080912902892B8083E0910101F091020162
:10348000908180912802892B808380910702882374
:10349000B9F00E94701981110E941E1AE091010179
:1034A000F0910201908180910702892B80838091A5
:1034B0000101909102010E94721B81110E941E1A4B
:1034C00080910101909102010C94E30D0C94051A76
:1034D0000C94661A90910602981721F080930602C8
:1034E0000C94681A089580910602882329F010929E
:1034F000060280E00C94681A08950C94051A982F1F
:10350000990F990F990F692B609303020E94FF177F
:103510000E94BF1C909302028093010280910302DB
:103520008595859585950C947D1A109203021092CD
:1035300002021092010280E00C947D1A2091030295
:103540008095822380930302982F977079F430E05E
:10355000482F082E000C550B2417350739F0859598
:10356000859585950E9420180C94951A08956FEF03
:103570007FEF80E090E00C947A2780E090E00E945A
:10358000562721E08C3E9E4F09F020E0822F0895BF
:1035900082E090E00C944E2783E090E00C944E275C
:1035A000682F83E090E00C945C27CF9384E090E058
:1035B0000E944E27C82F81E290E00E944E272C2FB8
:1035C00030E0A901582BCA01CF910895CF93C92F9C
:1035D000682F84E090E00E945C276C2F81E290E0ED
:1035E000CF910C945C2786E090E00C944E27682FD6
:1035F00086E090E00C945C27AB01BC018FE090E08A
:103600000C946E27AB01BC0183E190E00C946E2713
:1036100060E070E0CB010C94021B60E070E0CB0135
:103620000E94FC1A0C94081B6CEE7EEF80E090E088
:103630000E947A2760E082E090E00E945C2760E0D0
:1036400083E090E00E945C271092FD011092FE0141
:103650001092FF011092000260E084E090E00E946E
:103660005C2760E081E290E00E945C2760E085E0FA
:1036700090E00E945C2760E086E090E00E945C277A
:103680006FEF87E090E00E945C2740E050E0BA01D5
:1036900088E090E00E946E2760E08DE090E00E945C
:1036A0005C2740E050E0BA0188E190E00E946E277C
:1036B00060E087E190E00E945C2740E050E0BA01C2
:1036C0008CE190E00E946E2760E080E290E00E9432
:1036D0005C270C940D1B0C94141B682F8EE090E05B
:1036E0000C945C27FC01329680911501882331F0FF
:1036F0008091750287FF02C09EE101C096E080E0E4
:10370000915028F021912223D9F38F5FF9CF0895AA
:10371000662351F1209115012223E9F020917502D1
:1037200027FF19C0462F4695469546954E31E0F441
:10373000677021E030E002C0220F331F6A95E2F784
:10374000FC01E40FF11D828190E02823392381E000
:10375000232B69F409C0FC01329608962191621767
:1037600029F0E817F907D1F780E0089581E008957E
:103770009C01FC0132969FEF80E04191461789F051
:103780009F3F19F4411101C0982F8F5F8630A9F730
:103790009F3F39F0F901E90FF11D97FDFA9562831A
:1037A000089508959C012A5F3F4FFC014281461312
:1037B00001C01282019682179307B9F70895262F48
:1037C0002695269526952E3168F4FC01E20FF11D11
:1037D000677021E030E001C0220F6A95EAF782812C
:1037E000282B22830895262F2695269526952E315F
:1037F00070F4FC01E20FF11D677021E030E001C0C0
:10380000220F6A95EAF72095828128232283089562
:1038100020911501222329F02091750227FD0C9497
:10382000DF1B0C94B81B20911501222329F0209155
:10383000750227FD0C94F31B0C94D21B20911501EB
:10384000FC013296222331F08091750287FF02C07D
:103850008EE101C086E0DF011D928A95E9F70895A7
:1038600008950C94301C0C94301CCF930E94331C90
:103870000E946B080E94311CC0E08C2F0E94F00750
:10388000892B29F4CF5FC430C1F780E001C081E00B
:10389000CF9108950C94301C0C944A1C0E944C1C2F
:1038A00080917B02843061F110922C0220E488E147
:1038B00090E00FB6F894A895809360000FBE209317
:1038C000600080E00E94D60A80E00E9478050E9495
:1038D0004C1C83B7817F846083BF83B7816083BFC3
:1038E0007894889583B78E7F83BF0FB6F894A89598
:1038F00080916000886180936000109260000FBE2C
:1039000008950C94301C0E9446130E9470090E9476
:10391000D70D0E9478050C94811C1F920F920FB650
:103920000F9211248F939F93AF93BF9380912C029A
:10393000811113C08091710290917202A091730263
:10394000B09174024196A11DB11D809371029093B4
:103950007202A0937302B0937402BF91AF919F91D2
:103960008F910F900FBE0F901F90189582E084BD2D
:1039700093E095BD9AEF97BD80936E0008952FB7A1
:10398000F8948091710290917202A0917302B091AB
:1039900074022FBF0895CF92DF92EF92FF920F93A0
:1039A0001F932FB7F8944091710250917202609169
:1039B0007302709174022FBF6A017B01EE24FF2411
:1039C0008C0120E030E0C016D106E206F30610F4C8
:1039D000415051099A01281B390BC9011F910F91C0
:1039E000FF90EF90DF90CF90089578941F920F9200
:1039F0000FB60F9211248F939F93AF93BF93809133
:103A0000710290917202A0917302B09174020196BA
:103A1000A11DB11D8093710290937202A093730255
:103A2000B0937402BF91AF919F918F910F900FBE91
:103A30000F901F90189581E08093E00080E28093C2
:103A4000D8001092C9008FE19EE40197F1F700C001
:103A5000000087E090EBDC01809384029093850264
:103A6000A0938602B09387029CE088E10FB6F89499
:103A7000A895809360000FBE90936000FFCF0C94D8
:103A8000B71A0E946B088FE39CE90197F1F700C019
:103A900000000E946B0880E00E94F00780FF04C0D5
:103AA0000E943F1D0C941B1D08950E94BD1A811198
:103AB00002C00E946B1B0E94C81A80932B020E94B6
:103AC000D51A90937602809375020E94CC1A682FC3
:103AD00070E080E090E00C949F178091340280FFAA
:103AE0000CC08091080190E065E070E00E94D4264F
:103AF00095958795959587952EC081FF0AC08091F1
:103B0000080190E065E070E00E94D42695958795C5
:103B100022C082FF08C08091080190E065E070E05B
:103B20000E94D42618C0209133022223D9F030916C
:103B30000701231780F78091080190E065E070E0AD
:103B40000E94D426622F70E00E94D426632F70E07A
:103B50000E941227CB018038910538F4009739F480
:103B600081E005C085E090E008958FE7089508950D
:103B70008091340280FF08C06091040170E0759567
:103B800067957595679523C081FF06C06091040114
:103B900070E0759567951BC082FF04C060910401B9
:103BA00070E012C0609133026623A9F020910301F6
:103BB0006217A0F78091040170E090E00E94D42683
:103BC000622F70E00E9412276038710540F4611581
:103BD000710519F406C061E070E0862F08958FE743
:103BE000089581E00895803F21F40E946D1D819524
:103BF00004C0813F29F40E946D1D8093380208950E
:103C0000823F21F40E946D1D819504C0833F29F4F9
:103C10000E946D1D809337020895893F19F40E9418
:103C2000B81D05C08A3F31F40E94B81D819580936C
:103C3000390208958B3F21F40E94B81D819504C07C
:103C40008C3F29F40E94B81D80933A020895843F66
:103C500021F480913602816017C0853F21F4809164
:103C60003602826011C0863F21F480913602846062
:103C70000BC0873F21F480913602886005C0883FE1
:103C800031F48091360280618093360208958D3F31
:103C900021F48091340281600BC08E3F21F4809129
:103CA0003402826005C08F3F29F480913402846021
:103CB000809334020895803F39F48091380287FF61
:103CC0006CC01092380269C0813F29F4809138029B
:103CD0001816BCF362C090913702823F29F497FF17
:103CE0005CC01092370259C0833F19F41916CCF307
:103CF00054C0893F41F48091390218160CF04DC030
:103D0000109239024AC08A3F29F48091390287FF14
:103D100044C0F6CF8B3F39F480913A0287FF3DC013
:103D200010923A023AC08C3F29F480913A02181658
:103D3000BCF333C0843F21F4809136028E7F17C0DC
:103D4000853F21F4809136028D7F11C0863F21F49A
:103D5000809136028B7F0BC0873F21F48091360221
:103D6000877F05C0883F31F4809136028F7E809333
:103D7000360213C08D3F21F4809134028E7F0BC038
:103D80008E3F21F4809134028D7F05C08F3F29F44E
:103D9000809134028B7F80933402809137028111AD
:103DA0000EC08091380281110AC0809139028111C0
:103DB00006C080913A02811102C010923302089528
:103DC00085E392E00E94FD0D0E94BF1C9093320299
:103DD000809331020895CF93DF9300D000D000D0BC
:103DE000CDB7DEB786E0E5E3F2E0DE0111960190A3
:103DF0000D928A95E1F780913702811105C080917B
:103E00003802882309F481C080912F0290913002FA
:103E10000E94CB1CFC0120913302222339F08091B7
:103E2000090190E08E179F0760F06FC080910A0132
:103E300090E06AE070E00E94D4268E179F0718F089
:103E400064C02F3F19F02F5F209333021092390284
:103E500010923A0280913702181624F40E946D1DC8
:103E6000809337028091370287FF05C00E946D1D45
:103E700081958093370280913802181624F40E94AD
:103E80006D1D809338028091380287FF05C00E9423
:103E90006D1D81958093380280913702882311F13E
:103EA000209138022223F1F0082E000C990B65EBCB
:103EB00070E00E94D426992319F09093370203C032
:103EC00081E080933702822F220F990B65EB70E01F
:103ED0000E94D426992319F09093380203C081E000
:103EE000809338020E94E01E80913102909132024C
:103EF0009093300280932F0286E0FE013196A5E375
:103F0000B2E001900D928A95E1F78091390281111A
:103F100005C080913A02882309F481C080912D0266
:103F200090912E020E94CB1CFC012091330222238F
:103F300039F08091050190E08E179F0760F06FC007
:103F40008091060190E06AE070E00E94D4268E170E
:103F50009F0718F064C02F3F19F02F5F20933302A2
:103F6000109237021092380280913902181624F408
:103F70000E94B81D809339028091390287FF05C0E5
:103F80000E94B81D81958093390280913A021816DB
:103F900024F40E94B81D80933A0280913A0287FF70
:103FA00005C00E94B81D819580933A028091390224
:103FB000882311F120913A022223F1F0082E000CFF
:103FC000990B65EB70E00E94D426992319F0909329
:103FD000390203C081E080933902822F220F990BAE
:103FE00065EB70E00E94D426992319F090933A0271
:103FF00003C081E080933A020E94E01E809131026A
:104000009091320290932E0280932D0286E0FE0161
:104010003196A5E3B2E001900D928A95E1F72696DC
:104020000FB6F894DEBF0FBECDBFDF91CF910895DC
:10403000E5E3F2E086E0DF011D928A95E9F7109250
:10404000330210923402089580915B020895CF9359
:10405000DF9300D01F92CDB7DEB790917B029430F2
:1040600019F589837B836A8382E08093E9008FEF6F
:104070009091E800815095FD06C095ED9A95F1F775
:1040800000008111F5CF8091E80085FF0DC040E070
:1040900050E063E070E0CE0101960E946E228091B4
:1040A000E8008E778093E8000F900F900F90DF91DB
:1040B000CF910895CF93DF93EC010E94512282307B
:1040C00011F0843031F4BE0184E0DF91CF910C9483
:1040D0002720DF91CF910895BC0183E00C94272025
:1040E000CF93DF93EC010E945122823011F0843093
:1040F000F9F482E08093E9008FEF9091E80081501D
:1041000095FD06C095ED9A95F1F700008111F5CF68
:104110008091E80085FF0CC040E050E066E070E070
:10412000CE010E946E228091E8008E778093E80095
:10413000DF91CF910895CF93DF93EC010E9451223C
:10414000823011F08430D9F580911501882339F03F
:104150008091750287FF03C060E282E002C068E0E0
:1041600081E08093E9008FEF9091E800815095FD08
:1041700006C095ED9A95F1F700008111F5CF809179
:10418000E80085FF1CC080911501811105C040E049
:1041900050E068E070E003C070E040E050E0CE0125
:1041A0000E946E228091E8008E778093E80080E282
:1041B000FE01ABE3B2E001900D928A95E1F7DF9149
:1041C000CF910895089508950C94831C42E061EC0A
:1041D00081E00E94722342E261EC82E00C9472233F
:1041E00080917D02833009F45CC030F4813071F03D
:1041F000823009F495C008958A3009F481C08B306B
:1042000009F467C0893009F0A3C020C080917C0206
:10421000813A09F09DC08091E800877F8093E80093
:104220008091800290918102892B21F460E28BE3DE
:1042300092E003C060E080E090E070E00E94B9226C
:104240008091E8008B778093E800089580917C024C
:10425000813209F07DC080918002909181020297A5
:1042600008F076C08091E800877F8093E800809115
:10427000E80082FD05C080917B028111F8CF68C003
:104280008091F200823029F48091F1008B7F81309F
:1042900021F48091F10080935B028091E8008B779C
:1042A00053C080917C02813A09F052C08091800213
:1042B00090918102892B09F04BC08091E800877FA3
:1042C0008093E8008091E80080FFFCCF8091150189
:1042D00036C080917C028132D9F580918002909124
:1042E0008102892BA9F58091E800877F8093E800FF
:1042F0000E94A72380917E02809315010C9446139F
:1043000080917C02813221F58091E800877F809343
:10431000E8000E94A72380917F0280935C020895A9
:1043200080917C02813AA1F48091E800877F80939C
:10433000E8008091E80080FFFCCF80915C028093D0
:10434000F1008091E8008E778093E8000C94A72319
:10435000089584B7877F84BF0FB6F894A89580919D
:104360006000886180936000109260000FBE90E052
:1043700080E80FB6F89480936100909361000FBEBF
:104380000E94400E0E94F9230E944C248091E2007A
:1043900084608093E20078940E94B0260E94460ECA
:1043A0008BE091E00E94D20D80917B02853069F410
:1043B0000E944E1C809179028823B1F30E94351C23
:1043C000882391F30E945822EFCF0E945B0EECCF1E
:1043D0000C94EA21292F332723303105C9F060F4EA
:1043E0002130310581F02230310509F04AC08BE3DC
:1043F00090E022E038E049C02132310511F122324B
:10440000310579F13EC082E190E02DE338E03DC016
:1044100099278130910561F040F08230910559F083
:10442000039779F5E2EBF7E008C0EEEFF7E005C09F
:10443000E6EDF7E002C0E8EBF7E0849190E09F0141
:1044400024C06115710541F061307105D1F489E036
:1044500090E02DE238E019C089E090E024E138E0F6
:1044600014C06115710541F06130710551F48CEB98
:1044700090E02FE438E009C080E490E02BE039E0E0
:1044800004C080E090E020E030E0FA013183208336
:10449000089580917B02843011F081E0089582E0DC
:1044A000089580915D02811102C00C944922089503
:1044B00084E089BD86E089BD09B400FEFDCF80910E
:1044C000D8008F7D8093D8008091E0008260809337
:1044D000E0008091E00081FDFCCF0895CF92DF9253
:1044E000EF92FF920F931F93CF93DF93EC018B0119
:1044F0007A010E94C623811133C0E114F10439F01E
:10450000F70180819181081B190BC80FD91FC12C9D
:10451000D12C0115110519F18091E80085FD16C017
:104520008091E8008E778093E800E114F10449F06F
:10453000F70180819181C80ED91ED182C08285E0A9
:104540000FC00E94C623882321F30AC0899180935B
:10455000F10001501109FFEFCF1ADF0ADACF80E036
:10456000DF91CF911F910F91FF90EF90DF90CF904F
:10457000089520918202309183022617370748F070
:104580006115710539F42091E8002E772093E80039
:1045900001C0B901FC0120E06115710561F1809154
:1045A0007B028823D9F18530D9F18091E80083FD21
:1045B00039C08091E80082FD2BC08091E80080FF27
:1045C000EBCF8091F20090E06115710551F08830D9
:1045D000910538F421912093F10061507109019601
:1045E000F3CF21E0089709F020E08091E8008E7772
:1045F0008093E800D1CF2111D2CF0AC080917B02F5
:10460000882361F0853061F08091E80083FD0AC065
:104610008091E80082FFF2CF80E0089582E0089563
:1046200083E0089581E00895209182023091830211
:104630002617370748F06115710539F42091E80015
:104640002E772093E80001C0B901FC0120E061153C
:10465000710579F180917B02882309F43DC0853092
:1046600009F43CC08091E80083FD3AC08091E800E5
:1046700082FD2CC08091E80080FFE9CF8091F2009C
:1046800090E06115710559F08830910540F424914E
:104690002093F1003196615071090196F2CF21E02B
:1046A000089709F020E08091E8008E778093E80079
:1046B000CECF2111CFCF0AC080917B02882361F039
:1046C000853061F08091E80083FD0AC08091E800A8
:1046D00082FFF2CF80E0089582E0089583E008959C
:1046E00081E00895982F953068F59093E900981728
:1046F00039F07091EC002091ED005091F00003C072
:10470000242F762F50E021FD02C09F5FECCF309127
:10471000EB003E7F3093EB003091ED003D7F309316
:10472000ED003091EB0031603093EB007093EC00C2
:104730002093ED005093F0002091EE0027FDE5CF8F
:1047400080E008958F708093E90081E00895809162
:104750007C0287FF11C08091E80082FD05C0809136
:104760007B028111F8CF11C08091E8008B770BC0DC
:1047700080917B02882349F08091E80080FFF8CF88
:104780008091E8008E778093E80008952091E400FE
:104790003091E50095E64091EC00842F817040FF58
:1047A00023C08091E80080FD1DC080917B0288239A
:1047B00099F0853099F08091EB0085FD11C0409112
:1047C000E4005091E5002417350729F3915011F0CA
:1047D0009A01E1CF84E0089582E0089583E008958E
:1047E00081E0089580E008954091E80042FFDDCF28
:1047F00008950E9456240E945924E0EEF0E0808142
:1048000081608083E8EDF0E080818F77808319BC40
:10481000E3E6F0E080818160808310927A0208955F
:104820000E9456240E9459248091D8008F7780934B
:10483000D8008091D80080688093D8008091D800FB
:104840008F7D8093D80084E089BD86E089BD09B45E
:1048500000FEFDCF10927B02109277021092790237
:104860001092780242E060E080E00E947223809122
:10487000E1008E7F8093E1008091E200816080936F
:10488000E2008091E20088608093E2008091E00085
:104890008E7F8093E0000895E3E6F0E080818E7FD4
:1048A000808381E080937A020C9410241092E200BD
:1048B00008951092E10008951F920F920FB60F9283
:1048C00011242F933F934F935F936F937F938F9315
:1048D0009F93AF93BF93EF93FF938091E10082FF8B
:1048E0000BC08091E20082FF07C08091E1008B7FC6
:1048F0008093E1000E94AF268091E10080FF19C003
:104900008091E20080FF15C08091E2008E7F80934D
:10491000E2008091E20080618093E2008091D80003
:1049200080628093D80019BC85E080937B020E944E
:10493000E3208091E10084FF30C08091E20084FF99
:104940002CC084E089BD86E089BD09B400FEFDCF9E
:104950008091D8008F7D8093D8008091E1008F7E78
:104960008093E1008091E2008F7E8093E20080914D
:10497000E20081608093E20080917702882311F049
:1049800084E007C08091E30087FD02C081E001C0A0
:1049900083E080937B020E94E4208091E10083FF0A
:1049A00029C08091E20083FF25C08091E100877FCC
:1049B0008093E10082E080937B02109277028091E5
:1049C000E1008E7F8093E1008091E2008E7F8093F2
:1049D000E2008091E20080618093E20042E060E0CA
:1049E00080E00E9472238091F00088608093F00044
:1049F0000E94E220FF91EF91BF91AF919F918F9123
:104A00007F916F915F914F913F912F910F900FBECA
:104A10000F901F9018951F920F920FB60F921124AE
:104A20002F933F934F935F936F937F938F939F93B6
:104A3000AF93BF93CF93DF93EF93FF93C091E900C0
:104A4000CF708091EC00D82FD17080FDD0E810920B
:104A5000E9008091F000877F8093F00078940E94B5
:104A60004F251092E9008091F00088608093F0005B
:104A7000CD2BCF70C093E900FF91EF91DF91CF91E3
:104A8000BF91AF919F918F917F916F915F914F9166
:104A90003F912F910F900FBE0F901F9018951F936D
:104AA000CF93DF93CDB7DEB7AA970FB6F894DEBFEA
:104AB0000FBECDBFECE7F2E08091F100819322E0E0
:104AC000E438F207C9F70E94F0208091E80083FFE4
:104AD0002EC180917C0290917D02492F50E04A3096
:104AE000510508F024C1FA01E15AFF4F0C94482700
:104AF000803821F0823809F01AC108C0809178020C
:104B000090917902992389F082600FC08091800290
:104B10008F70853008F00BC18093E9008091EB0025
:104B200085FB882780F91092E9009091E800977F33
:104B30009093E8008093F1001092F100D1C0282FEB
:104B40002D7F09F0F4C0882319F0823061F0EFC0A6
:104B500080917E02813009F0EAC0933009F080E054
:104B6000809379022EC080917E0281112AC08091AB
:104B700080028F702FEF280F243008F0D8C0809368
:104B8000E9002091EB0020FF1CC0933021F48091BC
:104B9000EB00806214C09091EB0090619093EB0069
:104BA00021E030E0A90102C0440F551F8A95E2F7C9
:104BB0004093EA001092EA008091EB0088608093B5
:104BC000EB001092E9008091E800877F8093E80075
:104BD0000E94A723ACC08111AAC010917E021F774A
:104BE0008091E3008078812B8093E3008091E8003E
:104BF000877F8093E8000E94A7238091E80080FFD0
:104C0000FCCF8091E30080688093E300111102C023
:104C100082E001C083E080937B0289C080588230AB
:104C200008F085C080917E0290917F028C3D53E018
:104C3000950779F583E08A838AE289834FB7F894F0
:104C4000DE01139620E03EE051E2E32FF0E05093C6
:104C50005700E49120FF03C0E295EF703F5FEF70D3
:104C60008E2F90E0EA3010F0C79601C0C0968D9369
:104C70009D932F5F243149F74FBF8091E800877FD4
:104C80008093E8006AE270E0CE0101960E94B922AA
:104C900016C06091800270918102AE014F5F5F4F3C
:104CA0000E94E821BC01892B09F441C09091E800E1
:104CB000977F9093E80089819A810E9414238091C4
:104CC000E8008B778093E80032C0803881F58091CE
:104CD000E800877F8093E800809177028093F1005D
:104CE0008091E8008E7772CF811121C080917E0281
:104CF00090917F0299270297D4F48091E800877FF2
:104D00008093E80080917E02809377020E94A7231F
:104D100080917702811106C08091E30087FD02C077
:104D200081E001C084E080937B020E94E6208091B4
:104D3000E80083FF0AC08091E800877F8093E80045
:104D40008091EB0080628093EB00AA960FB6F894F6
:104D5000DEBF0FBECDBFDF91CF911F9108950895A3
:104D6000CF9380917B028823A1F0C091E900CF709E
:104D70009091EC00892F817090FD80E8C82B1092F3
:104D8000E9008091E80083FD0E944F25CF70C09319
:104D9000E900CF910895002480FD060E660F11F002
:104DA0008695D1F7802D08950024552704C0080E5C
:104DB000591F880F991F009729F076956795B8F3CA
:104DC0007105B9F7802D952F0895EE27FF27AA27A3
:104DD000BB2708C0A20FB31FE41FF51F220F331F0C
:104DE000441F551F969587957795679598F3704062
:104DF000A9F7009799F7BD01CF010895AA1BBB1B26
:104E000051E107C0AA1FBB1FA617B70710F0A61BCA
:104E1000B70B881F991F5A95A9F780959095BC01EB
:104E2000CD01089597FB072E16F4009407D077FD67
:104E300009D00E94FE2607FC05D03EF4909581958E
:104E40009F4F0895709561957F4F0895A1E21A2EA6
:104E5000AA1BBB1BFD010DC0AA1FBB1FEE1FFF1F1E
:104E6000A217B307E407F50720F0A21BB30BE40B6E
:104E7000F50B661F771F881F991F1A9469F76095B5
:104E80007095809590959B01AC01BD01CF0108956F
:104E9000EE0FFF1F0590F491E02D0994F999FECFD4
:104EA00092BD81BDF89A992780B50895A8E1B0E038
:104EB00042E050E00C948227262FF999FECF92BD54
:104EC00081BDF89A019700B4021639F01FBA20BDCF
:104ED0000FB6F894FA9AF99A0FBE08950396272F01
:104EE0000E945D270E945C27252F0E945D27242FAA
:104EF0000C945D270196272F0E945D270C945C2758
:104F0000DC01CB01FC01F999FECF06C0F2BDE1BD89
:104F1000F89A319600B40D9241505040B8F7089578
:044F2000F894FFCF33
:104F24000608022808641E140A321E24209B2070DE
:104F3400206C205A2001E200E900EA00B500B60026
:104F4400B700CD008301CC008A01920194012102B3
:104F5400230224022502260227022A02B300B400F7
:104F64006F0070008182836437666736353433326C
:104F740031309693659495E200E900EA00B500B6F5
:104F840000B700CD008301CC008A01920194012175
:104F940002230224022502260227022A02B300B4B5
:084FA400006F007000818283A0
:00000001FF
