:100000000C9455020C949C020C949C020C949C023F
:100010000C949C020C949C020C949C020C949C02E8
:100020000C949C020C949C020C949C020C94FA225A
:100030000C94A9230C942B1B0C949C020C949C02F2
:100040000C949C020C949C020C949C020C94931BA8
:100050000C949C020C949C020C949C020C949C02A8
:100060000C949C020C949C020C949C020C949C0298
:100070000C949C024D0F4D0F7F0F7F0FD80FF60F82
:100080006B116B113810CD10DE10DE105B116B118F
:100090006B11641101120112131213120A121312BE
:1000A00013121312011201120F12131213120F1254
:1000B00016243D2435253D2435258924AC243525B9
:1000C000032512252B0014001A0008001500170044
:1000D0001C0018000C00120013002A00E0000400AD
:1000E0001600070009000A000B000D000E000F00AB
:1000F00000573400025500001D001B0006001900C7
:10010000050011001000360037003800165CE200D0
:10011000035400002C000000284500002A4465001C
:10012000E30046002B0014001A00090013000A0027
:100130000D000F0018001C0000572A00E00004000A
:1001400015001600170007000B00110008000C0036
:1001500012003400025500001D001B0006001900AB
:1001600005000E001000360037003800165CE20073
:10017000035400002C000000284500002A446500BC
:10018000E300460000000000000000000000000046
:10019000000000000000000000000000000000005F
:1001A000000000000000000000000000000000004F
:1001B000000000000000000000000000000000003F
:1001C000000000000000000000000000000000002F
:1001D000000000000000000000000000000000001F
:1001E0000000000006574B004A0052004D00490035
:1001F000230224022502015727024C002A004E0048
:10020000500051004F002E021E021F022002210248
:1002100022020457A8000000AA00A900AC00AB000D
:100220000757055702573000035730023900AF0017
:1002300001000000AE00000001000000010001000C
:100240000100010001001E001F002000210022000B
:10025000010042004300440045000100010023006A
:10026000240025002600270001003E003F0040003A
:100270004100010001000000010001000100010037
:1002800046003A003B003C003D0001000100010037
:100290000100000001000000010000000100010059
:1002A00001000100005C0100F700FB00FC00F90008
:1002B00001000100F000010001000100095D0100E2
:1002C000F600F500F400FA000100F200F100F3007E
:1002D00001000100085D0000F8004604160A460C03
:1002E0000100010001000100010001000100010006
:1002F00001000000460C00000100000001000100A8
:10030000010001001A000900000014001A0000009A
:100310000403300000001C034500710075006900F3
:100320006E006F00780020006200790020004E000F
:1003300052000000260361006900300033002000F5
:10034000440065007300690067006E0020005300E0
:1003500074007500640069006F0000000403090464
:1003600009023B00020100A0FA0904000001030198
:100370000100092111010001224000070581030845
:10038000000A090401000103000000092111010015
:100390000122BC000705820320000A12011001009F
:1003A00000000803A1040001000102030105010986
:1003B00002A10185020901A10005091901290515FC
:1003C00000250195057501810295017503810105DF
:1003D00001093009311581257F95027508810609CB
:1003E000381581257F950175088106050C0A3802AC
:1003F0001581257F950175088106C0C0050109801A
:10040000A101850319012AB700150126B70095013E
:1004100075108100C0050C0901A101850419012A8C
:10042000A002150126A002950175108100C00501EA
:100430000906A1018505050719E029E71500250131
:100440009508750181020507190029EF150025019E
:1004500095F07501810205081901290595057501B9
:100460009102950175039101C005010906A10105DD
:100470000719E029E7150025019508750181029506
:1004800001750881010507190029FF150026FF00E5
:10049000950675088100050819012905950575015E
:1004A0009102950175039101C00011241FBECFEF89
:1004B000D4E0DEBFCDBF04B603FE27C08091730336
:1004C00090917403A0917503B09176038730904B9F
:1004D000A740B04BD1F410927303109274031092A2
:1004E00075031092760314BE84B7877F84BF0FB65E
:1004F000F894A895809160008861809360001092C4
:1005000060000FBEE0E0F8E3099512E0A0E0B1E082
:10051000EAEEFBE402C005900D92A436B107D9F7CC
:1005200023E0A4E6B2E001C01D92A337B207E1F7D1
:100530000E9447200C94F3250C940000CF93DF9386
:10054000EC010E947C19BE0180E090E0DF91CF9128
:100550000C94481688302DE5920751F089309D455E
:1005600089F4FB018281882371F081E090E006C06C
:10057000FB018281882339F082E090E00E949E0294
:1005800080E0089581E008959C013A9521153F414E
:1005900038F5DC01AA27B270AC01442754709C01E5
:1005A0002227387094FF0FC090FF02C080E101C085
:1005B00080E0AB2B09F08062452B09F08064232B8F
:1005C00069F080680BC0892F8170AB2B09F08260C5
:1005D000452B09F08460232B09F08860FB01099406
:1005E0000895CF93DF93EC01805E9109089710F096
:1005F000209719F46DE07FE002C067EC71E1CE0155
:100600000E94C4028C2FDF91CF910C94E80DCF9300
:10061000DF93EC010E94920ECE01805E9109089753
:1006200010F0209719F464E17FE002C06EEC71E1F4
:10063000CE01DF91CF910C94C40281E008950C9417
:10064000AA021F93CF93DF9300D000D01F92CDB7A3
:10065000DEB749835A836B832091920289819A8104
:10066000211112C0662349F00E94A617182F682F87
:1006700089819A810E94461703C00E947717182F1C
:1006800069817A81812F04C00E94A61769817A81CD
:100690000F900F900F900F900F90DF91CF911F91BF
:1006A0000C94DA03FC014081518162817381848161
:1006B0000C9421030E94DF1B0E946919811102C062
:1006C0000E940E1A0C9408060E94060A0E946707F0
:1006D0000C94040608950C946A0381E008950C9428
:1006E0006D03CF93C82F0E946B038C2F0E946F0362
:1006F000CF91089508950E94EF110E947A032FEF81
:1007000084E39CE0215080409040E1F700C000006D
:100710000C94B91B0F931F93CF93DF93EC010E94AE
:1007200052038C01BE010E945A09BE01C8010E94F9
:100730001F038823A9F1BE01C8010E94A1098823D3
:1007400079F1BE01C8010E949407882349F1BE01D6
:10075000C8010E94CE0A882319F1BE01C8010E9477
:100760000F0B8823E9F0BE01C8010E943A0C8823D0
:10077000B9F08A81882369F001158CE5180731F0FA
:100780000E3D1C4531F40E940E1A0AC00E947B03E4
:1007900007C0CE01DF91CF911F910F910C941D03E3
:1007A00080E0DF91CF911F910F91089580E090E05C
:1007B00008950895382F262F872F90E06CE070E081
:1007C0000E947225FC01832F90E060E370E00E949C
:1007D00072258E0F9F1FFC01E20FF11DEE0FFF1F10
:1007E000EC53FF4F859194910895880F991FFC0158
:1007F000E05FFC4F859194910895CF93DF930E9421
:10080000DA030E941C05EC018115904508F041C0F7
:10081000C11580E4D80708F0D6C0C83ED10510F550
:10082000C03ED10508F004C1C83AD10578F4C53AF4
:10083000D10508F0A7C0C130D10509F4F9C008F40A
:10084000F5C0C430D10508F0F3C0F0C0CF3BD105EE
:1008500008F4A0C0C03CD10508F4E8C0CE01805C1B
:100860009109A3C0C11590E2D90758F4C11521E040
:10087000D20708F0DDC0C03FD10508F4D7C0D0656D
:10088000D7C0C11580E3D80708F093C0CE019F7090
:100890008CC0C11595E5D90708F048C0C11524E5FD
:1008A000D20708F0A9C0C11582E5D80720F5C11507
:1008B00091E5D90708F08AC0CE01F4E096958795B6
:1008C000FA95E1F7282F23703C2F337081E090E0F8
:1008D00002C0880F991F3A95E2F79C68922BCF705F
:1008E000C695C695D0E0A5E0CC0FDD1FAA95E1F72F
:1008F000C82BD92B9DC09E01237033278C2F869542
:100900008695C115D34508F066C0C1E0D0E002C0AD
:10091000CC0FDD1F2A95E2F790E075E0880F991F54
:100920007A95E1F7C82BD92BDC6882C0C11529E57F
:10093000D207A0F4C11588E5D80708F062C0C11538
:1009400096E5D90708F072C08C2F0E94B0058F7110
:10095000C82FD0E0DC2FCC27D0626AC0C1152AE5B1
:10096000D20708F453C0CE0190568115904208F08A
:100970005DC08D2F8F710E94B005DD27D0628F7111
:10098000D82B56C0C55AD0E0C15EDD4FC881D0E03B
:10099000D0644EC0C85AD0E0CC0FDD1FCF50DE4F20
:1009A0000990D881C02DD46443C00E94F503EC01A6
:1009B0003FC0CE019927D3FF03C0EC01D86C38C0EB
:1009C000EC01D06C35C0DF70D06A32C0DC2FCC2790
:1009D000C16FD06A2DC0C1E0D0E002C0CC0FDD1FD6
:1009E0002A95E2F790E065E0880F991F6A95E1F794
:1009F000C82BD92BDA681CC0DC2FCC27C46FD06A77
:100A000017C0DC2FCC27C06FD06A12C08C2F8F701C
:100A10000E94B00594E0D695C7959A95E1F7CF70FE
:100A2000D0E0DC2FCC27D069C82B02C0C0E0D0E0DA
:100A3000CE01DF91CF9108958238910569F1B0F42C
:100A40008133910509F46DC048F48932910509F4A8
:100A500063C08A32910509F469C008958533910510
:100A600009F455C089339105B9F00895833E910585
:100A700069F138F4803E9105B1F0823E910509F1AB
:100A80000895863E9105A9F1873E9105B9F1843E0E
:100A9000910509F064C023C02091640320FD4FC07C
:100AA00021FD4DC008958091640380FD44C0809174
:100AB000650380FF44C08091640384FD42C083EEDF
:100AC0004DC08091640382FF38C0F5CF80916403EC
:100AD00082FD33C08091650380FD31C0ECCF8091F1
:100AE000650381FF32C08091640384FD2AC087EED4
:100AF00035C08091640383FF26C0F5CF80916403E5
:100B000083FD21C08091650381FD1FC0ECCF8091E2
:100B1000640385FD1CC01DC08091640385FD19C060
:100B200016C08091640386FD16C017C080916403CF
:100B300086FD13C010C089E311C082EE0FC080EEA5
:100B40000DC080E00BC086EE09C084EE07C089E2CC
:100B500005C085E303C08AE201C081E390E0089507
:100B60009091640392FF0DC0282F2871283019F44A
:100B7000877F846006C0282F2471243011F48B7F76
:100B8000886093FF0DC0282F2871283119F4877EC3
:100B9000846106C0282F2471243111F48B7E886172
:100BA0002091650320FF0DC0382F3871383019F4BB
:100BB000877F816006C0382F3171313011F48E7F0C
:100BC000886021FF0DC0282F2871283119F4877EF5
:100BD000816106C0282F2171213111F48E7E886138
:100BE00094FD877E0895E82FF0E0EE0FFF1FEA5A8C
:100BF000FC4F808191810895089580EA8A95F1F7EC
:100C0000089508950C9401060C9402060C940106B4
:100C10000C940606CF93DF93AEE2B2E042E352E0DB
:100C200061E070E08D91E82FE295EF70F0E021A196
:100C30008F70EB0102C0CC0FDD1F8A95E2F7CE0169
:100C40009C2F9095922391A392A1892B82A34A175E
:100C50005B0741F7A2E2B2E041E050E08D91E82F5E
:100C6000E295EF70F0E021A18F70BA0102C0660F2B
:100C7000771F8A95E2F7CB01962F9095922391A347
:100C800092A1892B82A372E0AE32B70739F7109296
:100C90004F0310924E031092570310925603109276
:100CA000510310925003109259031092580310925E
:100CB00053031092520310925B0310925A03109246
:100CC00055031092540310925D0310925C0384E06C
:100CD0000E940B07DF91CF910C945A032F923F9201
:100CE0004F925F926F927F928F929F92AF92BF923C
:100CF000CF92DF92EF92FF920F931F93CF93DF93E8
:100D00008EE2C82E82E0D82E0EE413E096E5492E3E
:100D100093E0592E312C88248394912C5801D801CA
:100D20006D907C9011971D921C92F60181916F013C
:100D3000C82FC295CF70D0E099A18F70740101C007
:100D4000EE0C8A95EAF7892F8E2989A38AA12E2C89
:100D5000209482218AA30E94FD05E2E2F2E020E0D5
:100D600030E06191A62FA295AF70B0E090968C9183
:100D7000D8014D915C9190E06F7002C09595879578
:100D80006A95E2F780FD08C0C401022E02C0880FF8
:100D9000991F0A94E2F702C080E090E0482B592B9B
:100DA000D8014D935C932F5F3F4F2C303105C9F62E
:100DB00089A1282229A28AA1E82AEAA20E5F1F4F50
:100DC00081E0F501208131812615370509F480E0A5
:100DD000382A4016510609F0A1CF232D44E066E5DC
:100DE00073E08EE493E00E940C070E946403832D5D
:100DF000DF91CF911F910F91FF90EF90DF90CF90F7
:100E0000BF90AF909F908F907F906F905F904F902A
:100E10003F902F9008950895FF920F931F93CF93C3
:100E2000DF93F82E092F162FD72FC42F222349F036
:100E300081E0809366020E945D1B9093650280931F
:100E40006402809166028823D9F0809164029091B7
:100E500065020E94691B069798F0EF2DF02FA12FD5
:100E6000BD2F80E090E04C2F50E08417950734F4BC
:100E7000219131912D933D930196F7CF1092660207
:100E8000DF91CF911F910F91FF900895CF93909193
:100E900077029923C9F0882311F0C0E003C01092B3
:100EA000770212C080917702C817C8F7EC2FF0E0E4
:100EB000EE0FFF1FE959FD4F808191810E94F102E1
:100EC0000E94D818CF5FEECFCF91089508958091FA
:100ED000DA018823A1F080917802882381F0809143
:100EE0007B0290917C02009751F00E94691B85362D
:100EF000910528F01092780281E00C94460708953D
:100F0000109278021092DA0110927C0210927B0209
:100F100081E00C9446078091DA0181110C948007DE
:100F200081E08093DA0108956F927F928F929F9271
:100F3000AF92BF92CF92DF92EF92FF920F931F93E7
:100F4000CF93DF938C017B0110927902073F8CE5F0
:100F5000180741F4FB01C281CC23D1F081E08093DA
:100F6000DA010BC1083FFCE51F0739F4FB01C28120
:100F7000CC2371F00E94800700C1093FFCE51F07E8
:100F800039F4FB01C281CC2319F00E948B07F5C014
:100F90008091DA01882309F4EFC010927A02D1E03F
:100FA000C0E0AA24A394B12C8824839430917A02BF
:100FB000323008F0A4C0C32ED12CC60165E070E029
:100FC0000E94722580539E4FFC018081918199245B
:100FD0009A9420E0E22FF0E0EE0FFF1FE80FF91FD8
:100FE000459154910417150709F4922E452B11F0E1
:100FF0002F5FF0CFFFEF9F1202C0712C6AC060908C
:101000007802F7017280772061F1C60165E070E037
:101010000E947225FC01E053FE4FA50101C0440F60
:101020009A94EAF78481482B4483662031F3C50102
:1010300002C0880F991F2A95E2F7019750E08417A4
:10104000950709F046C082819381009719F00E94AC
:10105000F10204C061E0832F0E946607809279024A
:1010600038C0F50102C0EE0FFF1F2A95E2F7319755
:10107000C60165E070E00E947225DC01A053BE4FFE
:1010800014964C91149750E0E417F50771F41296FA
:101090008D919C911397009719F00E94070306C049
:1010A00060E0832F0E94660701C0612CC60165E0E5
:1010B00070E00E947225FC01E053FE4F950101C0D3
:1010C000220F9A94EAF7922F909524819223948389
:1010D000762CC729DD2359F0C60165E070E00E9437
:1010E000722580539E4FD1E0FC0184818111D0E0B4
:1010F000D17080917A028F5F80937A0257CF80916E
:101100007902882351F00E945D1B90937C028093AA
:101110007B0280E00E9446072CC0C1110DC081E017
:101120000E944607DD2329F110927C0210927B0277
:1011300081E0809378021DC0F70182818823C9F085
:10114000809178028823A9F00E945D1B90937C0215
:1011500080937B02E0917702E83058F481E08E0FB3
:1011600080937702F0E0EE0FFF1FE959FD4F1183E6
:10117000008381E0C82701C0C1E08C2FDF91CF91AF
:101180001F910F91FF90EF90DF90CF90BF90AF90A5
:101190009F908F907F906F900895CF93DF93EC0195
:1011A00081E0898B8F810E947B1888850E948E1830
:1011B0000E94D818EA81FB81CE010696309729F06B
:1011C0006C897D89DF91CF910994DF91CF9108954A
:1011D000CF93DF93FC012081223041F4FB01EC012D
:1011E000828193810E94F10281E08B87DF91CF9110
:1011F0000895FC018081813021F4FB01808191817F
:1012000005C0823029F4FB01828193810C94F102A4
:101210000895FC018081813021F4FB01808191815E
:1012200005C0823029F4FB01828193810C9407036D
:1012300008950F931F93CF93DF93FC012285211113
:1012400034C0EC01038114811755C80166E170E0D8
:101250000E947225DC01A050BF4F1496ED91FC91C5
:1012600015978A5F9E4F309729F054966D917C9127
:1012700055970995C80166E170E00E9472258C01BE
:1012800000501F4FF80187810E948118F801808566
:101290000E9494180E94D818188219861B861E82F4
:1012A0001D8210927E0210927D02DF91CF911F91DC
:1012B0000F910895DF92EF92FF920F931F93CF93B8
:1012C000DF93FB0122812223A1F12091DB012F3F3B
:1012D00081F18C01C0E0D1E0E12CF12CDD24D3942C
:1012E0008091DB01082E000C990B8E159F050CF1E7
:1012F0008E818823C9F089859A858017910739F4F2
:1013000080917D0290917E020817190769F0DF86AF
:101310001C870B878989811103C0CE010E94CD08EB
:10132000CE0106960E941909FFEFEF1AFF0A669692
:10133000D7CFDF91CF911F910F91FF90EF90DF906A
:101340000895CF92DF92EF92FF920F931F93CF9366
:10135000DF938C0117550F3F110511F008F04CC0B9
:101360002091DB01022E000C330B2017310714F4FF
:101370000093DB01FB017C012281C80166E170E082
:101380000E9472256C01EC01C050DF4F288B8281D6
:101390009E81882319F1FA86E9869F5F9E830E94C9
:1013A0005D1B9E878D870E94AE188F830E947818E0
:1013B00088870E948B189885892B8887E881F98116
:1013C00096012A5F3E4F309721F06C897D89C901D3
:1013D0000995F0927E02E0927D020EC0992361F0A1
:1013E0008989882349F0C80166E170E00E9472256E
:1013F0008A5F9E4F0E94190981E0DF91CF911F9172
:101400000F91FF90EF90DF90CF900895CF92DF92F1
:10141000FF920F931F93CF93DF938091DB018F3F58
:1014200009F440C0F12CCF2DD0E08091DB01082ED3
:10143000000C990B8C179D07ACF1CE0166E170E0B2
:101440000E94722580509F4FFC01C288D388C1142E
:10145000D10419F484E6C82ED12CCE0166E170E0E7
:101460000E9472258C0100501F4FF801868188234D
:10147000B9F0858596850E94691BC816D90680F447
:10148000F8018189811103C0C8010E94CD08CE01F5
:1014900066E170E00E9472258A5F9E4F0E941909E2
:1014A000F394C1CFDF91CF911F910F91FF90DF9007
:1014B000CF9008950F931F93CF93DF93C62FD42F10
:1014C000122FFC0182818823C9F0609381020E945F
:1014D0005D1B9093800280937F0280E28C0F8830A6
:1014E00008F057C0C77081E001C0880FCA95EAF7BD
:1014F000DF91CF911F910F910C940D0F809181027C
:10150000681330C080917F02909180020E94691B15
:101510008436910538F500E20D0FCD17B9F080E261
:101520008C0F883040F4C77081E001C0880FCA95E5
:10153000EAF70E94140F083028F581E09D2F97707C
:1015400001C0880F9A95EAF70E940D0F812F0E9423
:10155000FA0E0830F0F4D77081E001C0880FDA95F8
:10156000EAF70AC080E28C0F883098F4C77081E0F7
:1015700001C0880FCA95EAF7DF91CF911F910F91B3
:101580000C94140F812FDF91CF911F910F910C9428
:10159000FA0EDF91CF911F910F9108959C01CB011D
:1015A000233F4CE53407F9F078F4283DFCE53F078C
:1015B000B9F0293D4CE5340711F1273D3C4531F5A3
:1015C00026E241EE61EE1EC0253FFCE53F0799F0A3
:1015D00070F0263F3C45D1F427E245EE66EE12C09E
:1015E00027E245EE0EC026E241EE60EE0BC027E298
:1015F00045EE64EE07C026E241EE62EE03C028E24B
:1016000041E065EE0E945A0A80E00895FC01828163
:10161000882319F010928102089581E00895CF93F4
:10162000DF93EC01FB018281882309F41FC1C230E2
:10163000FCE5DF0708F41BC1C6319CE5D90738F08B
:101640009E012A5F3C452930310508F010C10E94F7
:1016500081199093650380936403C031ECE5DE0744
:1016600009F4C3C008F041C0C8308CE5D80709F4BC
:101670009AC0F0F4C430ECE5DE0709F487C068F4E2
:10168000C2308CE5D80709F477C0C330DC4509F0D7
:10169000E3C080916403826076C0C630ECE5DE076B
:1016A00009F46EC008F07BC08091640388606BC051
:1016B000CC308CE5D80709F485C068F4CA30ECE575
:1016C000DE0709F474C008F079C00E94EF11809120
:1016D0006403806858C0CE308CE5D80709F476C022
:1016E00008F07FC0809164038BC0CB3FECE5DE0740
:1016F00009F44FC018F5C3318CE5D80709F47DC053
:1017000078F4C131ECE5DE0709F473C0C231DC4581
:1017100009F0A2C00E94EF11809164038F7733C05B
:10172000C5318CE5D80709F472C008F486C0CA3FF9
:10173000DC4509F091C0809165033EC0CF3FFCE5D8
:10174000DF0709F45FC058F4CD3F9CE5D90709F4E1
:1017500044C008F43FC08091650382602DC0C13051
:10176000FDE5DF0709F475C008F45DC0C230DD4552
:1017700009F072C080E06EC080916403816003C094
:101780008091640380618093640366C080916403E8
:1017900011C0809165038260809365035DC0809174
:1017A00064038062F0CF809164038064ECCF809109
:1017B000640388608460E7CF8160EECF809164032A
:1017C0008E7FE1CF809164038D7FDDCF80916403B4
:1017D000877FD9CF8091650318C0809165038D7F85
:1017E000DBCF809164038F7ECECF809164038F7DA9
:1017F000CACF809164038F7BC6CF80916403877FBB
:101800008B7FC1CF809165038D7F8E7FC5CF809107
:10181000640382FB222720F991E0922790FB82F952
:1018200090FB83F9B0CF80916503982F90959170CC
:101830008E7F892B90FB81F9AFCF0E94EF118091B1
:10184000640387FB222720F991E0922790FB87F918
:101850009ACF81E00E94101A8091640390916503F1
:101860000E9492190E94EF1180E001C081E0DF9197
:10187000CF910895CF93DF9386319C4571F5EB01AD
:101880000E947818982F917119F4982F9A7A01C0B4
:1018900090E08A812091DC013091DD01882379F08C
:1018A00081E0911101C080E080938202911102C019
:1018B00069E201C065E3C9010E94AB1A0AC08091C8
:1018C0008202811102C069E201C065E3C9010E9480
:1018D000B61A0E94D81880E001C081E0DF91CF9154
:1018E000089590938802809387020895E09187027B
:1018F000F0918802309721F00190F081E02D099459
:1019000080E00895E0918702F0918802309799F085
:101910002091F001222359F02091640327FF07C092
:10192000DC012C9111962C93119725E02C930280C9
:10193000F381E02D09940895E0918702F0918802E7
:10194000309739F022E0DC012C930480F581E02D02
:10195000099408952091850230918602281739074D
:1019600071F09093860280938502E0918702F09156
:101970008802309721F00680F781E02D09940895C0
:1019800020918302309184022817390771F09093D7
:10199000840280938302E0918702F091880230975D
:1019A00021F00084F185E02D0994089508950C94A8
:1019B000D60C0C94D70C0C94D60C0C94D60C0E941C
:1019C000DB0C0C94D90C81E008950E94541B0E94FA
:1019D0000A060E94F31BE4E6F3E0808180688083BE
:1019E00080916403909165030E9492190C94DD0C20
:1019F0007F928F929F92AF92BF92CF92DF92EF929F
:101A0000FF920F931F93CF93DF93CDB7DEB72A9743
:101A10000FB6F894DEBF0FBECDBF0E946E060E94C7
:101A2000E30C811111C08FEF89838A831B820E948E
:101A30005D1B8160782F9D838C8349815A816B81E6
:101A40008D810E94A80D4FC04AE8A42E42E0B42E1A
:101A500000E010E0702E802F0E94F3056C01F5016C
:101A6000819091905F01882699268114910431F428
:101A70000F5F1F4F0430110569F7D5CF80911B030D
:101A800081FD0E94FC0580E0EE24E394F12C94019A
:101A90002E213F21232B09F18E837F82CE20DF2050
:101AA00081E0CD2809F480E088870E945D1B816079
:101AB000782F9A8789874E815F8168858A850E9401
:101AC000A80D000F111FF801E657FD4F808191818D
:101AD000E826F926F182E08206C08F5FEE0CFF1C3B
:101AE0008C30A9F6C5CF0E94891D0E94760C90917A
:101AF00089028917C9F00E94760C809389022A9680
:101B00000FB6F894DEBF0FBECDBFDF91CF911F910E
:101B10000F91FF90EF90DF90CF90BF90AF909F908C
:101B20008F907F900C9471032A960FB6F894DEBFC5
:101B30000FBECDBFDF91CF911F910F91FF90EF901E
:101B4000DF90CF90BF90AF909F908F907F9008953F
:101B5000CF93DF93CDB7DEB72B970FB6F894DEBFE8
:101B60000FBECDBF4F83588769877A878B87DE0189
:101B7000119686E0FD0111928A95E9F785E0FE0154
:101B8000379601900D928A95E1F70E9446188823B6
:101B900019F082E00E944A190E94191881110E94CE
:101BA000CA1849815A816B817C818D819E810E94F6
:101BB00006152B960FB6F894DEBF0FBECDBFDF9192
:101BC000CF910895FC01808191810E94E8170895CA
:101BD000CF93882309F4A4C0C82F8238C1F40E948F
:101BE000760C81FD9DC069E38091DC019091DD015F
:101BF0000E94AB1A0E94D8182FEF81EE94E021507A
:101C000080409040E1F700C0000069E319C08338CC
:101C100001F50E94760C80FD83C063E58091DC01B4
:101C20009091DD010E94AB1A0E94D8182FEF81EE2F
:101C300094E0215080409040E1F700C0000063E54F
:101C40008091DC019091DD010E94B61ACF910C9435
:101C5000D8188438C1F40E94760C82FD61C067E414
:101C60008091DC019091DD010E94AB1A0E94D8188E
:101C70002FEF81EE94E0215080409040E1F700C0CA
:101C8000000067E4DDCF8CEF8C0F813AD0F46C2F2D
:101C90008091DC019091DD010E942B1A882349F08C
:101CA0006C2F8091DC019091DD010E94B61A0E9498
:101CB000D8186C2F8091DC019091DD010E94AB1A45
:101CC000C5CF80E28C0F883048F4C77081E001C036
:101CD000880FCA95EAF70E947B18B8CFEBE5EC0FA6
:101CE000E33040F4F0E0E05AFD4F808190E0CF9186
:101CF0000C94AA0CE8E5EC0FE73150F4F0E0EE0F9D
:101D0000FF1FEE5CFD4F80819181CF910C94C00C40
:101D1000C03F30F08C2F0E94911CCF910C947E1DFF
:101D2000CF910895882309F464C0823879F40E9421
:101D3000760C81FF5EC069E38091DC019091DD014A
:101D40000E94AB1A0E94D81869E310C08338B1F41E
:101D50000E94760C80FF4DC063E58091DC0190917C
:101D6000DD010E94AB1A0E94D81863E58091DC0166
:101D70009091DD010E94B61A0C94D818843879F439
:101D80000E94760C82FF35C067E48091DC0190915F
:101D9000DD010E94AB1A0E94D81867E4E7CF9CEFE0
:101DA000980F913A10F4682FE1CF90E2980F983095
:101DB00050F4877091E001C0990F8A95EAF7892F56
:101DC0000E948118D9CF9BE5980F933020F480E0D2
:101DD00090E00C94AA0C98E5980F973120F480E0DD
:101DE00090E00C94C00C803F20F00E94F91C0C94F1
:101DF0007E1D0895CF93C82F0E94E80DC93349F482
:101E00002FEF87EE93E0215080409040E1F700C033
:101E100000008C2FCF910C94920E882321F00E9409
:101E20007B180C94D8180895882321F00E948118FB
:101E30000C94D8180895CF92DF92EF92FF920F93EF
:101E40001F93CF93DF937C01062FC72FFC01D58111
:101E5000D295DF70128111110E949B180E94711897
:101E6000882379F0112369F080E2800F883048F0F0
:101E700082E00E944A190E94711891E0D82ED9265A
:101E800001C0D12CCC2EC2948FE0C8228C2D90E0C2
:101E9000FC01E65CFF4F0C9497258C2F807FCF7060
:101EA000882311F0C295C07F112399F0CC2309F447
:101EB000ECC180E2800F883010F0011104C08C2F3B
:101EC0000E947B1803C08C2F0E948E180E94D81885
:101ED000DCC1802F0E94920ECC2309F4FCC180E269
:101EE000800F883010F0011104C08C2F0E948118DF
:101EF00003C08C2F0E9494180E94D818ECC18C2F1C
:101F0000807FCF70803211F0C295C07F002319F01E
:101F1000013059F134C01123B1F0DD2381F0D1300B
:101F200031F40E94AE188C2B0E94B618D4C1D33065
:101F300031F40E94CA188C2F0E94161924C00E94E6
:101F4000AE188C2B21C0DD2369F0D13041F40E9402
:101F500078188C2309F4BFC10E941F1903C0D33025
:101F600009F4B9C10E94CA181FC0112321F0D4304E
:101F700008F0B1C108C0D33008F0ADC115C01123BD
:101F800031F0D11182C18C2F0E940D0FA4C1DD232D
:101F900059F0093309F08BC1FFEF27EE83E0F150D0
:101FA00020408040E1F781C18C2F0E94140F93C123
:101FB0008C2F86958695837019F0813061F08BC1E6
:101FC000112321F0802F9C2F937002C080E090E0BD
:101FD0000E94AA0C88C1112321F0802F9C2F93709E
:101FE00002C080E090E00E94C00C7DC11123F9F096
:101FF000053F51F0063F71F0043FA9F480915E0364
:1020000090915F0381600BC080915E0390915F03AC
:10201000826005C080915E0390915F03846090931D
:102020005F0380935E03802F0E94911C1EC0053FBA
:1020300051F0063F71F0043FA9F480915E03909146
:102040005F038E7F0BC080915E0390915F038D7F55
:1020500005C080915E0390915F038B7F90935F0337
:1020600080935E03802F0E94F91C0E947E1D3BC15D
:102070008C2F837009F045C0111131C1402F42955A
:1020800046954770440F440F602F6F70862F90E085
:10209000A0E0B0E0042E04C0880F991FAA1FBB1F48
:1020A0000A94D2F704FF10C00FE010E020E030E007
:1020B00004C0000F111F221F331F4A95D2F700954D
:1020C00010952095309503C000E010E09801C6956A
:1020D000C695C370BC01CD01602B712B822B932B55
:1020E000C23049F058F4C13019F00E945C16F7C0B4
:1020F0000E944A16F4C00E946E16F1C00E94481653
:10210000EEC0112319F08C2F817001C086958823B1
:1021100009F4E5C0402F429546954770440F440F9F
:10212000602F6F70862F90E0A0E0B0E0042E04C016
:10213000880F991FAA1FBB1F0A94D2F704FF10C073
:102140000FE010E020E030E004C0000F111F221F5C
:10215000331F4A95D2F7009510952095309503C00E
:1021600000E010E09801C695C695C370BC01CD0192
:10217000602B712B822B932BC23049F058F4C13065
:1021800019F00E942117ABC00E940F17A8C00E942F
:102190003317A5C00E948216A2C0CF70112339F058
:1021A0008C2F0E94A816802F0E940D0F98C0802FA0
:1021B0000E94140F8C2F0E94C91691C0023F01F19A
:1021C00028F4003F41F0013FA1F05AC0033FF9F06D
:1021D000043F39F155C0112341F0D33008F07BC0E2
:1021E0008C2F8F710E94EE1676C0D43008F073C029
:1021F000F7CF112339F08C2F8F710E94A8166BC076
:102200001123C9F38C2F8F710E94C91664C011234A
:1022100029F08C2F8F710E9493165DC00E948E163C
:102220005AC01123C9F00E9416180E9481180E94FA
:102230004218843039F40E9441198C2F8F710E940A
:10224000C9166CC0D33008F069C0CF718C2F0E94C2
:10225000A81663E08C2F0DC00E9416180E947B18F0
:10226000D33050F00E9441190E941F1964E08C2F56
:102270008F710E942B1952C081E00E944A194EC0F2
:10228000112339F0DD2309F4B6CF802F0E94E80D29
:1022900022C0DD2309F4B6CF093349F49FEFE7EEFE
:1022A000F3E09150E040F040E1F700C00000802FE3
:1022B0000E94920E10C04C2F4F70602FC7010E94D9
:1022C000D6030E94B9150FC04C2F4F70602FC70165
:1022D0000E94D90308C088EF8C0D843020F40E943E
:1022E000760C0E947103DD20D9F00E94421880FD17
:1022F00017C0F70112820E943C180E94A816C7015D
:102300000E9499110E943C18DF91CF911F910F916B
:10231000FF90EF90DF90CF900C94C916D12CDFCFB7
:10232000DF91CF911F910F91FF90EF90DF90CF90B1
:1023300008950F931F93CF93DF93EC0198818981C8
:102340002B813C81232B31F08F3F31F481E09F3F83
:1023500019F403C081E001C080E080FD13C0CE010C
:102360000E948A03882371F0688179818A810E94A2
:10237000F3178C010E9445170E943616B801CE0152
:102380000E941B0FDF91CF911F910F910895882319
:1023900021F00E948E180C94D8180895882321F0FB
:1023A0000E9494180C94D81808950E949B180E94BB
:1023B000AB180E94D8180E94B61E0E947E1D80E0B5
:1023C00090E00E94AA0C80E090E00C94C00C8091F8
:1023D000DC019091DD010E94C11A0C94D5110E947C
:1023E00088180C94E711E92FE295EF704E2F50E01A
:1023F000FA013297EE30F105B0F4E65BFF4F0C9432
:102400009725803F91F018F4883E68F40EC0843F11
:1024100051F40BC0883E48F0813F29F406C093FB7D
:10242000882780F9089580E0089581E008950E944A
:10243000E8170E94F3110895CF93DF9300D000D0E6
:102440001F92CDB7DEB70F900F900F900F900F90A7
:10245000DF91CF910895CF93DF9300D000D000D0CB
:10246000CDB7DEB726960FB6F894DEBF0FBECDBF50
:10247000DF91CF910895CF93DF93C0919302809124
:102480009402C817A1F0D0E0CE0166E070E00E948F
:102490007225FC01EB56FD4F4081518162817381B1
:1024A000848195810E942B122196C770E8CFDF911D
:1024B000CF9108954091C5025091C6026091C70224
:1024C0007091C8028091C9029091CA020C942B129B
:1024D000CF93B82FC62F20919302A09194022A1770
:1024E000B1F030E0C90166E070E00E947225FC01A5
:1024F000EB56FD4F81818C1306C080818B1303C086
:102500008281841306C02F5F3F4F2770E8CF80E0A1
:1025100001C081E0CF9108951F93CF93DF93809105
:10252000CA0282958F7009F066C08091C702882325
:1025300009F461C02091930210919402C091C502E8
:10254000D091C602E091C802F091C90281E0CF3F6C
:1025500009F080E0482F211709F44DC0309721F091
:10256000DF3F21F080E003C081E001C0842F30E034
:1025700080FD3DC0C90166E070E00E947225DC016B
:10258000AB56BD4F11968C9111978D1330C08C9125
:102590008C132DC012968C911297811128C013961E
:1025A0008D919C9114978E179F0708F401978E1BAD
:1025B0009F0B84369105D8F48091CA028F70806198
:1025C0008093CA02C90166E070E00E947225FC0196
:1025D000E656FD4F90819F709061908385EC92E06C
:1025E0000E949911DF91CF911F910C943B122F5FA4
:1025F0003F4F2770B0CFDF91CF911F9108959F92E9
:10260000AF92BF92CF92DF92EF92FF920F931F9300
:10261000CF93DF93CDB7DEB761970FB6F894DEBFE7
:102620000FBECDBF7C0185E0F701DE011D96019054
:102630000D928A95E1F7D701DC9011960C911197D4
:102640001296CC903091C5024091C6028091C8028A
:102650009091C902009731F04F3F31F421E03F3FA4
:1026600019F403C021E001C020E020FD9FC1F70163
:10267000A380B4809090C702992009F42BC12091C7
:10268000CA02A816B90628F0B501681B790BCB0160
:1026900004C0809590958A0D9B1D11E084369105AC
:1026A00090F010E0207F09F0DBC07A2DB98AA88A6B
:1026B0004D2D502F6C2D89890E941C1285EC92E0C3
:1026C0000E9499116BC1822F807F09F091C0041381
:1026D00015C0D31213C01C2DC11010C02F70206163
:1026E0002093CA020E945A1285EC92E00E9499112E
:1026F0008091CA02D70115968C9375C1A114B104BB
:1027000039F00F3F39F481E0BFEFDB1203C003C0A3
:1027100081E001C080E080FD03C081E08C2502C023
:1027200080E090E080FF15C04C2D602F8D2D0E9421
:102730006812882371F085EC92E00E949911E5EC13
:10274000F2E086E0DF011D928A95E9F70E945A12B5
:102750004DC0AB2839F00F3F39F481E0BFEFDB12F9
:1027600003C003C081E001C080E080FD03C081E0C0
:102770008C2502C080E090E0E82FE170BE2E80FF43
:102780002CC04C2D602F8D2D0E946812182F8111A6
:1027900024C0DD860E878D859E850E94E817292F2F
:1027A00022952F70223018F0243090F405C09F70CD
:1027B00059F0811109C017C19F7031F0D7011596EA
:1027C0009C91907F09F40FC1805E883008F40BC1A2
:1027D000C7010E9499111B2D06C11C2DCC2009F4A4
:1027E00002C18091CA0281608093CA0210E0FBC0DE
:1027F000041309C0D31207C0C11005C08091CA02DA
:10280000F7018583A5C0DD860E878D859E850E9494
:102810001712882379F1CC2069F12091CA02822F06
:1028200082958F7090E0029774F08091C50290912C
:10283000C60298878F831986BB86AA862C87CE010D
:1028400007960E94991186E0F701A5ECB2E001908D
:102850000D928A95E1F70E948C120E945A120DC0C7
:10286000041769F0DD860E878D859E850E941712FC
:10287000811119C0C7010E94991111E0B4C0D3128F
:10288000F1CFC110EFCF8091CA02F7018583C70154
:102890000E94991186E0E5ECF2E0DF011D928A9535
:1028A000E9F7192DA0C0CC2029F32091CA02822F6C
:1028B00082958F7090E0029734F28091C5029091DA
:1028C000C6029A8389831B82BD82AC822E83CE018D
:1028D0000196B7CFA816B90628F0F501E81BF90B49
:1028E000CF0104C0809590958A0D9B1D843691057B
:1028F00058F010E07A2DB98AA88A4D2D502F6C2DF2
:1029000089890E941C124AC01C2DCC2009F4B2CF28
:10291000041333C0D31231C02091CA0220FD24C059
:10292000822F82958F70482F50E041155105E1F0BC
:10293000D70115962C9315974F30510549F08F5FAD
:10294000982F9295907F822F8F70892B15968C935C
:10295000C7010E94991186E0F701A5ECB2E0019051
:102960000D928A95E1F73DC086E0F701A5ECB2E053
:1029700001900D928A95E1F736C0DD860E878D8530
:102980009E850E94171281115ECF8091CA028160DC
:102990008093CA02C7010E94991125C0E5ECF2E0BC
:1029A00086E0DF011D928A95E9F71BC0CC2009F46F
:1029B00061CFDD860E878D859E850E941712182FA8
:1029C000882309F457CF86E0F701A5ECB2E0019027
:1029D0000D928A95E1F785EC92E00E94E20D0E944B
:1029E0008C120E945A12812F61960FB6F894DEBFA6
:1029F0000FBECDBFDF91CF911F910F91FF90EF9050
:102A0000DF90CF90BF90AF909F900895CF93DF93CA
:102A1000CDB7DEB72C970FB6F894DEBF0FBECDBF93
:102A20004F83588769877A878B879C87CE01079663
:102A30000E94FF128823D1F09F8188852A853B85DB
:102A4000232B31F08F3F31F481E09F3F19F403C015
:102A500081E001C080E080FD6FC04F8158856985AD
:102A60007A858B859C850E942B1266C086E0FE01CC
:102A70003796DE01119601900D928A95E1F7FF815C
:102A8000E8856A857B856115710531F0EF3F31F48A
:102A900081E0FF3F19F403C081E001C080E080FDC8
:102AA0004BC08091940290E09C012F5F3F4F2770B4
:102AB00033274091930250E02417350709F443C0AF
:102AC000F983EA837D836C8366E070E00E9472255F
:102AD000DC01AB56BD4F96E0FE01319601900D92A0
:102AE0009A95E1F7209394020E943B1225C090E052
:102AF00066E070E00E9472258B569D4F0E94FF1287
:102B0000882371F18091930290E066E070E00E946A
:102B10007225FC01EB56FD4F40815181628173812A
:102B2000848195810E942B128091930290E00196FE
:102B300087709927809393028091930290919402D9
:102B40008913D5CF0DC00E94EF11109294021092FC
:102B50009302E5ECF2E086E0DF011D928A95E9F749
:102B60002C960FB6F894DEBF0FBECDBFDF91CF918C
:102B70000895EF92FF920F931F93CF93DF938C01F1
:102B8000892B09F46CC0F12CEE24E394E801219622
:102B9000F8018491843740F4843008F051C08130CA
:102BA00081F0823019F15BC0853709F444C0A8F187
:102BB0009CE7980F903708F052C08F770E94920ED2
:102BC00041C00E5F1F4FFE01849190E2980F983034
:102BD00050F48770FE2D01C0FF0F8A95EAF78F2F02
:102BE0000E949E1814C00E94E80D2DC00E5F1F4F5A
:102BF000FE01849190E2980F983060F48770FE2D6A
:102C000001C0FF0F8A95EAF78F2F0E94A4180E9437
:102C1000D81819C00E94920E16C00E5F1F4FFE01F9
:102C2000C491CC2381F08FE99FE00197F1F700C0B8
:102C30000000C150F6CF0E5F1F4FFE01F49003C09D
:102C40000E94E80D8E018F2D882309F49FCFEFE9B4
:102C5000FFE03197F1F700C000008150F5CFDF9120
:102C6000CF911F910F91FF90EF90089508950895CF
:102C70000C9437160C9438160E943A166093ED02A5
:102C80007093EE028093EF029093F0020C94D511B2
:102C90000C943C160F931F930091ED021091EE02DD
:102CA0002091EF023091F002602B712B822B932B3D
:102CB0001F910F910C943C160F931F930091ED02FE
:102CC0001091EE022091EF023091F0026023712307
:102CD000822393231F910F910C943C160F931F9303
:102CE0000091ED021091EE022091EF023091F0027E
:102CF00060277127822793271F910F910C943C1610
:102D00000C9437160E9480166093E9027093EA02D1
:102D10008093EB029093EC020C94D51160E070E08C
:102D2000CB010C9482160F931F9341E050E060E0BA
:102D300070E08A019B0104C0000F111F221F331F86
:102D40008A95D2F7C901B8011F910F910C94821690
:102D50000F931F9341E050E060E070E004C0440F27
:102D6000551F661F771F8A95D2F78091E9029091CF
:102D7000EA02A091EB02B091EC028A019B01082BC0
:102D8000192B2A2B3B2BC901B8011F910F910C94D1
:102D900082160F931F9341E050E060E070E004C0A2
:102DA000440F551F661F771F8A95D2F7409550959F
:102DB000609570958091E9029091EA02A091EB02F2
:102DC000B091EC028A019B01082319232A233B239B
:102DD000C901B8011F910F910C9482160F931F9394
:102DE00041E050E060E070E004C0440F551F661FF2
:102DF000771F8A95D2F78091E9029091EA02A0911B
:102E0000EB02B091EC028A019B01082719272A27BF
:102E10003B27C901B8011F910F910C9482160F93A3
:102E20001F930091E9021091EA022091EB02309188
:102E3000EC02602B712B822B932B1F910F910C9422
:102E400082160F931F930091E9021091EA022091DC
:102E5000EB023091EC0260237123822393231F91B4
:102E60000F910C9482160F931F930091E902109119
:102E7000EA022091EB023091EC0260277127822751
:102E800093271F910F910C9482160895282F362FA7
:102E9000892F6CE00E946925820F982F9770A1E01E
:102EA00001C0AA0F9A95EAF786958695869590E0D7
:102EB00065E070E00E947225FC01E553FD4F40E0A3
:102EC00050E0632F70E090819B01042E02C0369584
:102ED00027950A94E2F72170219529272A2329278B
:102EE00021934F5F5F4F4530510569F70895282FB3
:102EF000892F6CE00E946925820FA82FA770869504
:102F00008695869590E065E070E00E947225BC0190
:102F100040E050E080E0FB01E40FF51FE553FD4F7A
:102F2000208130E00A2E02C0369527950A94E2F7F8
:102F300021703327042E01C0220F0A94EAF7822B56
:102F40004F5F5F4F4530510531F70895BF92CF92E3
:102F5000DF92EF92FF920F931F93CF93DF938C0139
:102F6000C090E902D090EA02E090EB02F090EC020F
:102F70008091ED029091EE02A091EF02B091F002EB
:102F8000C82AD92AEA2AFB2ACFE1D0E0D701C60114
:102F90000C2E04C0B695A795979587950A94D2F7FD
:102FA00080FD04C0219790F7B12C07C0BC2EB8015A
:102FB0008C2F0E94FD030197A9F38B2DDF91CF91F8
:102FC0001F910F91FF90EF90DF90CF90BF900895E9
:102FD000CF93DF93EC010E94A617BE010E94FD0370
:102FE000DF91CF9108951F93CF93DF93EB019091E1
:102FF0009202992321F0CB010E94E81713C0882385
:1030000049F0CB010E94A617182F682FCE010E940D
:10301000461704C0CB010E947717182FBE01812FDD
:103020000E94FD03DF91CF911F9108958091F602D8
:1030300008950E945D1B2091F4023091F5028217E1
:10304000930750F00E945D1B2091F4023091F5022D
:10305000821B930B9C010AC00E945D1B2091F4020D
:103060003091F50220953095280F391F81E0283CDA
:10307000310508F480E008958091F30285958595E7
:10308000859508958091F302877008950E945D1BD5
:103090002091F1023091F20282179307A8F00E946A
:1030A0005D1B2091F1023091F202821B930B883C50
:1030B000910510F480E013C08091F30282FB882711
:1030C00080F991E089270BC00E945D1B2091F102DD
:1030D0003091F20220953095820F931FE8CF8170D6
:1030E00008959091F302977081E009F480E00895CB
:1030F00080911A03089590911A03892B80931A03E3
:103100000895809590911A03892380931A03089556
:1031100010921A030895809119030895909119034C
:10312000892B809319030895809590911903892321
:10313000809319030895109219030895909118032C
:10314000892B809318030895809590911803892303
:103150008093180308951092180308958091F70240
:10316000089508950C94B1180C94B218CF939091CF
:10317000F702981769F0C82F0E945D1B9093F50223
:103180008093F402C093F7028C2FCF910C94B41863
:10319000CF9108958091F702882349F01092F702A9
:1031A0001092F5021092F40280E00C94B418089585
:1031B000E091DC01F091DD0180911A038083E091C0
:1031C000DC01F091DD01908180911903892B8083CE
:1031D000E091DC01F091DD01908180911803892B51
:1031E00080838091F7028823B9F00E941918811119
:1031F0000E94CA18E091DC01F091DD01908180917C
:10320000F702892B80838091DC019091DD010E947F
:10321000151A81110E94CA188091DC019091DD017C
:103220000C94820C0C94B1180C9412199091F60223
:10323000981721F08093F6020C9414190895809148
:10324000F602882329F01092F60280E00C941419FB
:1032500008950C94B118982F990F990F990F692B15
:103260006093F3020E94A8160E945D1B9093F202E5
:103270008093F1028091F3028595859585950C9454
:1032800029191092F3021092F2021092F10280E0DA
:103290000C9429192091F302809582238093F302E4
:1032A000982F977079F430E0482F082E000C550BBA
:1032B0002417350739F08595859585950E94C9169F
:1032C0000C94411908956FEF7FEF80E090E00C942B
:1032D000DD2580E090E00E94B92521E08C3E9E4FE4
:1032E00009F020E0822F089582E090E00C94B1254F
:1032F00083E090E00C94B125682F83E090E00C947B
:10330000BF25CF9384E090E00E94B125C82F81E2D1
:1033100090E00E94B1252C2F30E0A901582BCA0162
:10332000CF910895CF93C92F682F84E090E00E9439
:10333000BF256C2F81E290E0CF910C94BF25AB01AB
:10334000BC018FE090E00C94D125AB01BC0183E17E
:1033500090E00C94D12560E070E0CB010C94A519AD
:1033600060E070E0CB010E949F190C94AB196CEEE9
:103370007EEF80E090E00E94DD2560E082E090E05A
:103380000E94BF2560E083E090E00E94BF2510927C
:10339000ED021092EE021092EF021092F00260E045
:1033A00084E090E00E94BF2560E081E290E00E940E
:1033B000BF2560E085E090E00E94BF2560E086E0E8
:1033C00090E00E94BF256FEF87E090E00E94BF254C
:1033D00040E050E0BA0188E090E00E94D12560E032
:1033E0008DE090E00E94BF2540E050E0BA0188E106
:1033F00090E00E94D12560E087E190E00E94BF2527
:1034000040E050E0BA018CE190E00E94D12560E0FC
:1034100080E290E00E94BF250C94B0190C94B7197B
:10342000682F8EE090E00C94BF25FC0132968091CD
:10343000F001882331F08091640387FF02C09EE190
:1034400001C096E080E0915028F021912223D9F329
:103450008F5FF9CF0895662351F12091F001222367
:10346000E9F02091640327FF19C0462F4695469541
:1034700046954E31E0F4677021E030E002C0220F43
:10348000331F6A95E2F7FC01E40FF11D828190E0A1
:103490002823392381E0232B69F409C0FC013296EB
:1034A00008962191621729F0E817F907D1F780E013
:1034B000089581E008959C01FC0132969FEF80E021
:1034C0004191461789F09F3F19F4411101C0982F8F
:1034D0008F5F8630A9F79F3F39F0F901E90FF11DA1
:1034E00097FDFA956283089508959C012A5F3F4FE6
:1034F000FC014281461301C0128201968217930794
:10350000B9F70895262F2695269526952E3168F42D
:10351000FC01E20FF11D677021E030E001C0220FD5
:103520006A95EAF78281282B22830895262F269513
:10353000269526952E3170F4FC01E20FF11D67707F
:1035400021E030E001C0220F6A95EAF720958281E0
:103550002823228308952091F001222329F020912D
:10356000640327FD0C94821A0C945B1A2091F001DD
:10357000222329F02091640327FD0C94961A0C94C1
:10358000751A2091F001FC013296222331F08091CE
:10359000640387FF02C08EE101C086E0DF011D9257
:1035A0008A95E9F7089508950C94D31A0C94D31AC8
:1035B000CF930E94D61A0E946E060E94D41AC0E0D1
:1035C0008C2F0E94F305892B29F4CF5FC430C1F7FB
:1035D00080E001C081E0CF9108950C94D31A0C943F
:1035E000ED1A0E94EF1A80916A03843049F110921B
:1035F0001C0320E488E190E00FB6F894A89580932E
:1036000060000FBE2093600080E00E9471030E9462
:10361000EF1A83B7817F846083BF83B7816083BFE4
:103620007894889583B78E7F83BF0FB6F894A8955A
:1036300080916000886180936000109260000FBEEE
:1036400008950C94D31A0E94EF110E94760C0E94E8
:1036500071030C94211B1F920F920FB60F9211242D
:103660008F939F93AF93BF9380911C03811113C0DD
:103670008091600390916103A0916203B091630314
:103680004196A11DB11D8093600390936103A093A7
:103690006203B0936303BF91AF919F918F910F909D
:1036A0000FBE0F901F90189582E084BD93E095BDEA
:1036B0009AEF97BD80936E0008952FB7F89480918C
:1036C000600390916103A0916203B09163032FBFE7
:1036D0000895CF92DF92EF92FF920F931F932FB72F
:1036E000F89440916003509161036091620370917E
:1036F00063032FBF6A017B01EE24FF248C0120E0CD
:1037000030E0C016D106E206F30610F4415051092C
:103710009A01281B390BC9011F910F91FF90EF905F
:10372000DF90CF90089578941F920F920FB60F926A
:1037300011248F939F93AF93BF93809160039091D7
:103740006103A0916203B09163030196A11DB11DB5
:103750008093600390936103A0936203B09363032B
:10376000BF91AF919F918F910F900FBE0F901F90BF
:10377000189581E08093E00080E28093D800109259
:10378000C9008FE19EE40197F1F700C0000087E0D7
:1037900090EBDC018093730390937403A093750303
:1037A000B09376039CE088E10FB6F894A8958093D7
:1037B00060000FBE90936000FFCF0C9463190E94CD
:1037C0006E068FE39CE90197F1F700C000000E94AC
:1037D0006E0680E00E94F30580FF04C00E94DD1B9E
:1037E0000C94B91B08950E946919811102C00E94AE
:1037F0000E1A0E94741980931B030E9481199093E2
:103800006503809364030E947819682F70E080E05C
:1038100090E00C9448168091240380FF0CC08091A6
:10382000E30190E065E070E00E9472259595879530
:10383000959587952EC081FF0AC08091E30190E0A5
:1038400065E070E00E9472259595879522C082FF01
:1038500008C08091E30190E065E070E00E9472256D
:1038600018C0209123032223D9F03091E2012317BD
:1038700080F78091E30190E065E070E00E9472259E
:10388000622F70E00E947225632F70E00E948325F2
:10389000CB018038910538F4009739F481E005C0F8
:1038A00085E090E008958FE70895089580912403BE
:1038B00080FF08C06091DF0170E075956795759590
:1038C000679523C081FF06C06091DF0170E07595A8
:1038D00067951BC082FF04C06091DF0170E012C0D9
:1038E000609123036623A9F02091DE016217A0F7FF
:1038F0008091DF0170E090E00E947225622F70E0FD
:103900000E9483256038710540F46115710519F432
:1039100006C061E070E0862F08958FE7089581E08A
:103920000895803F21F40E940B1C819504C0813FC3
:1039300029F40E940B1C809328030895823F21F4F0
:103940000E940B1C819504C0833F29F40E940B1C2C
:10395000809327030895893F19F40E94561C05C0DF
:103960008A3F31F40E94561C819580932903089563
:103970008B3F21F40E94561C819504C08C3F29F492
:103980000E94561C80932A030895843F21F480915D
:103990002603816017C0853F21F480912603826051
:1039A00011C0863F21F48091260384600BC0873FBD
:1039B00021F480912603886005C0883F31F480910E
:1039C000260380618093260308958D3F21F4809122
:1039D000240381600BC08E3F21F480912403826018
:1039E00005C08F3F29F480912403846080932403D1
:1039F0000895803F39F48091280387FF6CC01092AE
:103A0000280369C0813F29F4809128031816BCF36C
:103A100062C090912703823F29F497FF5CC0109207
:103A2000270359C0833F19F41916CCF354C0893FBA
:103A300041F48091290318160CF04DC0109229030F
:103A40004AC08A3F29F48091290387FF44C0F6CFFA
:103A50008B3F39F480912A0387FF3DC010922A03DF
:103A60003AC08C3F29F480912A031816BCF333C066
:103A7000843F21F4809126038E7F17C0853F21F477
:103A8000809126038D7F11C0863F21F4809126030B
:103A90008B7F0BC0873F21F480912603877F05C071
:103AA000883F31F4809126038F7E8093260313C0D4
:103AB0008D3F21F4809124038E7F0BC08E3F21F433
:103AC000809124038D7F05C08F3F29F480912403CA
:103AD0008B7F809324038091270381110EC08091F6
:103AE000280381110AC080912903811106C08091A9
:103AF0002A03811102C010922303089585E293E006
:103B00000E949C0C0E945D1B9093220380932103D2
:103B10000895CF93DF9300D000D000D0CDB7DEB7AB
:103B200086E0E5E2F3E0DE01119601900D928A95C0
:103B3000E1F780912703811105C080912803882334
:103B400009F481C080911F03909120030E94691B9A
:103B5000FC0120912303222339F08091E40190E0BD
:103B60008E179F0760F06FC08091E50190E06AE0DA
:103B700070E00E9472258E179F0718F064C02F3FD7
:103B800019F02F5F209323031092290310922A0328
:103B900080912703181624F40E940B1C809327039E
:103BA0008091270387FF05C00E940B1C819580939D
:103BB000270380912803181624F40E940B1C80937D
:103BC00028038091280387FF05C00E940B1C819564
:103BD0008093280380912703882311F120912803E3
:103BE0002223F1F0082E000C990B65EB70E00E9487
:103BF0007225992319F09093270303C081E08093E5
:103C00002703822F220F990B65EB70E00E9472252B
:103C1000992319F09093280303C081E0809328032F
:103C20000E947E1D80912103909122039093200396
:103C300080931F0386E0FE013196A5E2B3E0019078
:103C40000D928A95E1F780912903811105C0809139
:103C50002A03882309F481C080911D0390911E03DB
:103C60000E94691BFC0120912303222339F08091DB
:103C7000E00190E08E179F0760F06FC08091E10136
:103C800090E06AE070E00E9472258E179F0718F09E
:103C900064C02F3F19F02F5F209323031092270356
:103CA0001092280380912903181624F40E94561CB0
:103CB000809329038091290387FF05C00E94561C29
:103CC00081958093290380912A03181624F40E9479
:103CD000561C80932A0380912A0387FF05C00E9407
:103CE000561C819580932A0380912903882311F122
:103CF00020912A032223F1F0082E000C990B65EB8A
:103D000070E00E947225992319F09093290303C053
:103D100081E080932903822F220F990B65EB70E0DD
:103D20000E947225992319F090932A0303C081E021
:103D300080932A030E947E1D80912103909122038B
:103D400090931E0380931D0386E0FE013196A5E249
:103D5000B3E001900D928A95E1F726960FB6F8949C
:103D6000DEBF0FBECDBFDF91CF910895E5E2F3E056
:103D700086E0DF011D928A95E9F7109223031092E5
:103D80002403089580914B030895CF93DF9300D0CF
:103D90001F92CDB7DEB790916A03943019F58983ED
:103DA0007B836A8382E08093E9008FEF9091E80043
:103DB000815095FD06C095ED9A95F1F700008111AF
:103DC000F5CF8091E80085FF0DC040E050E063E052
:103DD00070E0CE0101960E940C218091E8008E7760
:103DE0008093E8000F900F900F90DF91CF9108958E
:103DF000CF93DF93EC010E94EF20823011F08430EA
:103E000031F4BE0184E0DF91CF910C94C51EDF91A7
:103E1000CF910895BC0183E00C94C51ECF93DF932E
:103E2000EC010E94EF20823011F08430F9F482E03E
:103E30008093E9008FEF9091E800815095FD06C0D6
:103E400095ED9A95F1F700008111F5CF8091E8008A
:103E500085FF0CC040E050E066E070E0CE010E94BB
:103E60000C218091E8008E778093E800DF91CF915C
:103E70000895CF93DF93EC010E94EF20823011F080
:103E80008430D9F58091F001882339F08091640362
:103E900087FF03C060E282E002C068E081E08093B7
:103EA000E9008FEF9091E800815095FD06C095EDF7
:103EB0009A95F1F700008111F5CF8091E80085FF18
:103EC0001CC08091F001811105C040E050E068E025
:103ED00070E003C070E040E050E0CE010E940C2191
:103EE0008091E8008E778093E80080E2FE01ABE2EB
:103EF000B3E001900D928A95E1F7DF91CF9108959B
:103F0000089508950C94231B42E061EC81E00E9427
:103F1000102242E261EC82E00C94102280916C034A
:103F2000833009F45CC030F4813071F0823009F4E0
:103F300095C008958A3009F481C08B3009F467C0B8
:103F4000893009F0A3C020C080916B03813A09F049
:103F50009DC08091E800877F8093E80080916F0387
:103F600090917003892B21F460E28BE293E003C00F
:103F700060E080E090E070E00E9457218091E800CE
:103F80008B778093E800089580916B03813209F06C
:103F90007DC080916F0390917003029708F076C006
:103FA0008091E800877F8093E8008091E80082FD9F
:103FB00005C080916A038111F8CF68C08091F2003A
:103FC000823029F48091F1008B7F813021F480913F
:103FD000F10080934B038091E8008B7753C0809170
:103FE0006B03813A09F052C080916F039091700386
:103FF000892B09F04BC08091E800877F8093E8000F
:104000008091E80080FFFCCF8091F00136C0809164
:104010006B038132D9F580916F0390917003892BE6
:10402000A9F58091E800877F8093E8000E944522EF
:1040300080916D038093F0010C94EF1180916B03DC
:10404000813221F58091E800877F8093E8000E940B
:10405000452280916E0380934C03089580916B03F9
:10406000813AA1F48091E800877F8093E8008091F5
:10407000E80080FFFCCF80914C038093F100809199
:10408000E8008E778093E8000C944522089584B769
:10409000877F84BF0FB6F894A895809160008861EF
:1040A00080936000109260000FBE90E080E80FB631
:1040B000F89480936100909361000FBE0E94DF0C22
:1040C0000E9497220E94EA228091E20084608093FD
:1040D000E20078940E944E250E94E50C86EE91E065
:1040E0000E94710C80916A03853069F40E94F11A74
:1040F000809168038823B1F30E94D81A882391F332
:104100000E94F620EFCF0E94F80CECCF0C94882090
:10411000292F332723303105C9F060F421303105D0
:1041200081F02230310509F04AC08BE390E020E6AF
:1041300033E049C02132310511F12232310579F1E4
:104140003EC082E190E02BE933E03DC09927813009
:10415000910561F040F08230910559F0039779F5AF
:10416000E0E1F3E008C0ECE5F3E005C0E4E3F3E0F0
:1041700002C0E6E1F3E0849190E09F0124C0611564
:10418000710541F061307105D1F489E090E02BE8D0
:1041900033E019C089E090E022E733E014C06115F4
:1041A000710541F06130710551F48CEB90E02DEA1E
:1041B00033E009C080E490E029E634E004C080E008
:1041C00090E020E030E0FA0131832083089580916F
:1041D0006A03843011F081E0089582E008958091AF
:1041E0004D03811102C00C94E720089584E089BD3D
:1041F00086E089BD09B400FEFDCF8091D8008F7D97
:104200008093D8008091E00082608093E0008091EC
:10421000E00081FDFCCF0895CF92DF92EF92FF92F4
:104220000F931F93CF93DF93EC018B017A010E94D0
:104230006422811133C0E114F10439F0F701808167
:104240009181081B190BC80FD91FC12CD12C011546
:10425000110519F18091E80085FD16C08091E800F4
:104260008E778093E800E114F10449F0F701808132
:104270009181C80ED91ED182C08285E00FC00E94F4
:104280006422882321F30AC089918093F1000150B0
:104290001109FFEFCF1ADF0ADACF80E0DF91CF916B
:1042A0001F910F91FF90EF90DF90CF900895209194
:1042B0007103309172032617370748F061157105B5
:1042C00039F42091E8002E772093E80001C0B9016D
:1042D000FC0120E06115710561F180916A0388237A
:1042E000D9F18530D9F18091E80083FD39C0809102
:1042F000E80082FD2BC08091E80080FFEBCF809129
:10430000F20090E06115710551F08830910538F4A4
:1043100021912093F100615071090196F3CF21E0C2
:10432000089709F020E08091E8008E778093E800FC
:10433000D1CF2111D2CF0AC080916A03882361F0C6
:10434000853061F08091E80083FD0AC08091E8002B
:1043500082FFF2CF80E0089582E0089583E008951F
:1043600081E0089520917103309172032617370779
:1043700048F06115710539F42091E8002E772093FB
:10438000E80001C0B901FC0120E06115710579F177
:1043900080916A03882309F43DC0853009F43CC04C
:1043A0008091E80083FD3AC08091E80082FD2CC036
:1043B0008091E80080FFE9CF8091F20090E06115E4
:1043C000710559F08830910540F424912093F10053
:1043D0003196615071090196F2CF21E0089709F0FA
:1043E00020E08091E8008E778093E800CECF211105
:1043F000CFCF0AC080916A03882361F0853061F0D5
:104400008091E80083FD0AC08091E80082FFF2CF2E
:1044100080E0089582E0089583E0089581E00895A2
:10442000982F953068F59093E900981739F07091BE
:10443000EC002091ED005091F00003C0242F762F66
:1044400050E021FD02C09F5FECCF3091EB003E7F3A
:104450003093EB003091ED003D7F3093ED003091D3
:10446000EB0031603093EB007093EC002093ED0093
:104470005093F0002091EE0027FDE5CF80E00895F5
:104480008F708093E90081E0089580916B0387FF2E
:1044900011C08091E80082FD05C080916A038111FE
:1044A000F8CF11C08091E8008B770BC080916A0330
:1044B000882349F08091E80080FFF8CF8091E800E0
:1044C0008E778093E80008952091E4003091E50014
:1044D00095E64091EC00842F817040FF23C08091CD
:1044E000E80080FD1DC080916A03882399F0853023
:1044F00099F08091EB0085FD11C04091E40050914E
:10450000E5002417350729F3915011F09A01E1CF06
:1045100084E0089582E0089583E0089581E008959D
:1045200080E008954091E80042FFDDCF08950E94A9
:10453000F4220E94F722E0EEF0E080818160808327
:10454000E8EDF0E080818F77808319BCE3E6F0E04E
:104550008081816080831092690308950E94F42213
:104560000E94F7228091D8008F778093D8008091A5
:10457000D80080688093D8008091D8008F7D809388
:10458000D80084E089BD86E089BD09B400FEFDCF76
:1045900010926A03109266031092680310926703E8
:1045A00042E060E080E00E9410228091E1008E7F76
:1045B0008093E1008091E20081608093E20080912D
:1045C000E20088608093E2008091E0008E7F80931B
:1045D000E0000895E3E6F0E080818E7F808381E053
:1045E000809369030C94AE221092E2000895109219
:1045F000E10008951F920F920FB60F9211242F938E
:104600003F934F935F936F937F938F939F93AF935A
:10461000BF93EF93FF938091E10082FF0BC08091E5
:10462000E20082FF07C08091E1008B7F8093E10070
:104630000E944D258091E10080FF19C08091E20029
:1046400080FF15C08091E2008E7F8093E200809110
:10465000E20080618093E2008091D80080628093C4
:10466000D80019BC85E080936A030E94811F809165
:10467000E10084FF30C08091E20084FF2CC084E020
:1046800089BD86E089BD09B400FEFDCF8091D800C8
:104690008F7D8093D8008091E1008F7E8093E10030
:1046A0008091E2008F7E8093E2008091E200816041
:1046B0008093E20080916603882311F084E007C0B4
:1046C0008091E30087FD02C081E001C083E0809318
:1046D0006A030E94821F8091E10083FF29C08091BC
:1046E000E20083FF25C08091E100877F8093E10095
:1046F00082E080936A03109266038091E1008E7FCE
:104700008093E1008091E2008E7F8093E2008091AF
:10471000E20080618093E20042E060E080E00E947D
:1047200010228091F00088608093F0000E94801F2A
:10473000FF91EF91BF91AF919F918F917F916F9179
:104740005F914F913F912F910F900FBE0F901F904F
:1047500018951F920F920FB60F9211242F933F932B
:104760004F935F936F937F938F939F93AF93BF9379
:10477000CF93DF93EF93FF93C091E900CF708091C7
:10478000EC00D82FD17080FDD0E81092E900809124
:10479000F000877F8093F00078940E94ED231092C0
:1047A000E9008091F00088608093F000CD2BCF70FD
:1047B000C093E900FF91EF91DF91CF91BF91AF914D
:1047C0009F918F917F916F915F914F913F912F9129
:1047D0000F900FBE0F901F9018951F93CF93DF93EC
:1047E000CDB7DEB7AA970FB6F894DEBF0FBECDBF28
:1047F000EBE6F3E08091F100819323E0E337F207E9
:10480000C9F70E948E1F8091E80083FF2EC180911E
:104810006B0390916C03492F50E04A30510508F02A
:1048200024C1FA01E85AFF4F0C949725803821F0F3
:10483000823809F01AC108C080916703909168031B
:10484000992389F082600FC080916F038F7085304B
:1048500008F00BC18093E9008091EB0085FB88276D
:1048600080F91092E9009091E800977F9093E8001A
:104870008093F1001092F100D1C0282F2D7F09F014
:10488000F4C0882319F0823061F0EFC080916D038D
:10489000813009F0EAC0933009F080E0809368032A
:1048A0002EC080916D0381112AC080916F038F709B
:1048B0002FEF280F243008F0D8C08093E900209112
:1048C000EB0020FF1CC0933021F48091EB0080624C
:1048D00014C09091EB0090619093EB0021E030E0E8
:1048E000A90102C0440F551F8A95E2F74093EA00E0
:1048F0001092EA008091EB0088608093EB001092A8
:10490000E9008091E800877F8093E8000E944522BB
:10491000ACC08111AAC010916D031F778091E30094
:104920008078812B8093E3008091E800877F8093DB
:10493000E8000E9445228091E80080FFFCCF809132
:10494000E30080688093E300111102C082E001C09F
:1049500083E080936A0389C08058823008F085C064
:1049600080916D0390916E038C3D53E0950779F52E
:1049700083E08A838AE289834FB7F894DE01139635
:1049800020E03EE051E2E32FF0E050935700E49145
:1049900020FF03C0E295EF703F5FEF708E2F90E035
:1049A000EA3010F0C79601C0C0968D939D932F5F9B
:1049B000243149F74FBF8091E800877F8093E8005A
:1049C0006AE270E0CE0101960E94572116C0609104
:1049D0006F0370917003AE014F5F5F4F0E9486209E
:1049E000BC01892B09F441C09091E800977F909316
:1049F000E80089819A810E94B2218091E8008B773A
:104A00008093E80032C0803881F58091E800877F8C
:104A10008093E800809166038093F1008091E80024
:104A20008E7772CF811121C080916D0390916E03BA
:104A300099270297D4F48091E800877F8093E8005B
:104A400080916D03809366030E94452280916603E6
:104A5000811106C08091E30087FD02C081E001C0A2
:104A600084E080936A030E94841F8091E80083FFA2
:104A70000AC08091E800877F8093E8008091EB0076
:104A800080628093EB00AA960FB6F894DEBF0FBE4B
:104A9000CDBFDF91CF911F9108950895CF9380915D
:104AA0006A038823A1F0C091E900CF709091EC00D7
:104AB000892F817090FD80E8C82B1092E9008091C9
:104AC000E80083FD0E94ED23CF70C093E900CF91F1
:104AD0000895002480FD060E660F11F08695D1F72B
:104AE000802D08950024552704C0080E591F880FF3
:104AF000991F009729F076956795B8F37105B9F776
:104B0000802D952F089597FB072E16F4009407D05B
:104B100077FD09D00E949D2507FC05D03EF49095B5
:104B200081959F4F0895709561957F4F0895EE0F81
:104B3000FF1F0590F491E02D0994AA1BBB1B51E1C6
:104B400007C0AA1FBB1FA617B70710F0A61BB70BFD
:104B5000881F991F5A95A9F780959095BC01CD01A2
:104B60000895F999FECF92BD81BDF89A992780B535
:104B70000895A8E1B0E042E050E00C94E525262F2E
:104B8000F999FECF92BD81BDF89A019700B4021643
:104B900039F01FBA20BD0FB6F894FA9AF99A0FBEF1
:104BA00008950396272F0E94C0250E94BF25252F18
:104BB0000E94C025242F0C94C0250196272F0E9407
:104BC000C0250C94BF25DC01CB01FC01F999FECF77
:104BD00006C0F2BDE1BDF89A319600B40D92415085
:0A4BE0005040B8F70895F894FFCF95
:104BEA00E808F908090900000000000000000000B8
:104BFA0000000000CC01E808F908090900000000DB
:104C0A0000000000000000000000C801E808F908E0
:104C1A000909000000000000000000000000000078
:104C2A00C401E808F90809090000000000000000B2
:104C3A00000000000000C001E808F90809090000A6
:104C4A00000000000000000000000000BC01E808AD
:104C5A00F908090900000000000000000000000037
:104C6A000000B801E808F90809090000000000007E
:104C7A000000000000000000B401E808F908090972
:104C8A000000000000000000000000000000B00169
:104C9A002E002E02350035022D002D023100310280
:104CAA002F0230022F003000260227023300340080
:104CBA000A03000000040300000001FFF8022808AC
:104CCA00641E140A321EC21E391F0E1F0A1FF81E46
:104CDA0001E200E900EA00B500B600B700CD0083A2
:104CEA0001CC008A019201940121022302240225A7
:104CFA0002260227022A02B300B4006F0070008164
:104D0A008283643766673635343332313096936539
:104D1A009495E200E900EA00B500B600B700CD00BC
:104D2A008301CC008A019201940121022302240208
:104D3A002502260227022A02B300B4006F0070007F
:044D4A0081828300DF
:00000001FF
