:100000000C9437020C947E020C947E020C947E02B7
:100010000C947E020C947E020C947E020C947E0260
:100020000C947E020C947E020C947E020C94C022EE
:100030000C946F230C94051B0C947E020C947E028E
:100040000C947E020C947E020C947E020C946D1B28
:100050000C947E020C947E020C947E020C947E0220
:100060000C947E020C947E020C947E020C947E0210
:100070000C947E02980F980FCA0FCA0F23104110DC
:10008000B611B6118310181129112911A611B61134
:10009000B611AF114C124C125E125E1255125E1266
:1000A0005E125E124C124C125A125E125E125A12FC
:1000B000DC230324FB240324FB244F247224FB248D
:1000C000C924D8241A000900000014001A000000F6
:1000D0002B0014001A00090013000A000D000F0085
:1000E00018001C0000572A00E000046115001600EB
:1000F000170007000B00110008000C00120034006C
:10010000025500001D001B000600190005000E002E
:100110001000360037003800165CE200035400007F
:100120002C430000000000002A442845E30046005C
:100130002B0014001A000800150017001C001800FE
:100140000C00120013002A00E000046116000700F2
:1001500009000A000B000D000E000F0000573400CC
:10016000025500001D001B000600190005001100CB
:100170001000360037003800165CE200035400001F
:100180002C430000000000002A442845E3004600FC
:10019000000000000000000000000000000000005F
:1001A000000000000000000000000000000000004F
:1001B000000000000000000000000000000000003F
:1001C000000000000000000000000000000000002F
:1001D000000000000000000000000000000000001F
:1001E000000000000000000000000000000000000F
:1001F000065709574A0052004D00490023022402C5
:100200002502015727024C002A00085750005100D0
:100210004F002E021E021F0220022102220204575A
:10022000A800000001000A57AC000B5707570557FC
:1002300002573000035730023900AF0001000000C0
:10024000AE000000000000000100010001000100FC
:1002500001001E001F0020002100220001004200BA
:100260004300440045000100010023002400250054
:100270002600270001003E003F0040004100010031
:1002800001000000010001000100010001003A002E
:100290003B003C003D0001000100010001000000A6
:1002A0000100000000000000010001000100010049
:1002B000005C0100F700FB00FC00F90001000100F8
:1002C000F000010001000100095D0100F600F500E9
:1002D000F400FA000100F200F100F3000100010057
:1002E000085D0000F8004604160A460C01000100F3
:1002F00001000100010001000100010001000000F7
:10030000460C000000000000010001000100010097
:100310000403300000001C034500710075006900F3
:100320006E006F00780020006200790020004E000F
:1003300052000000260361006900300033002000F5
:10034000440065007300690067006E0020005300E0
:1003500074007500640069006F0000000403090464
:1003600009023B00020100A0FA0904000001030198
:100370000100092111010001224000070581030845
:10038000000A090401000103000000092111010015
:10039000012281000705820320000A1201100100DA
:1003A00000000803A1040001000102030105010986
:1003B00002A10185020901A10005091901290515FC
:1003C00000250195057501810295017503810105DF
:1003D00001093009311581257F95027508810609CB
:1003E000381581257F950175088106050C0A3802AC
:1003F0001581257F950175088106C0C0050109801A
:10040000A101850319012AB700150126B70095013E
:1004100075108100C0050C0901A101850419012A8C
:10042000A002150126A002950175108100C00501EA
:100430000906A101050719E029E71500250195081E
:10044000750181029501750881010507190029FFD1
:10045000150026FF00950675088100050819012979
:1004600005950575019102950175039101C011244F
:100470001FBECFEFD4E0DEBFCDBF04B603FE27C062
:1004800080919B0390919C03A0919D03B0919E034A
:100490008730904BA740B04BD1F410929B03109241
:1004A0009C0310929D0310929E0314BE84B7877F15
:1004B00084BF0FB6F894A8958091600088618093FE
:1004C0006000109260000FBEE0E0F8E3099512E0D2
:1004D000A0E0B1E0E6E7FBE402C005900D92AC3B82
:1004E000B107D9F723E0ACEBB2E001C01D92AB3904
:1004F000B207E1F70E940D200C94B9250C9400007E
:10050000CF93DF93EC018881823039F0833041F062
:10051000813051F48EE490E005C08DE490E002C09B
:100520008DE491E00E947A03CE01DF91CF910C948B
:100530007E09CF93DF93EC018881823039F08330DC
:1005400041F0813051F48BE490E005C08AE490E002
:1005500002C08AE491E00E947A03CE01DF91CF913C
:100560000C947E09CF93DF93EC018881823039F0BF
:10057000833041F0813051F48AEA90E005C089EA85
:1005800090E002C088EA90E00E947A03CE01DF91F9
:10059000CF910C947E09CF93DF93EC018881823058
:1005A00069F028F4813089F48EEA90E00CC0833041
:1005B00041F0843051F48FEA90E005C08BEA90E07E
:1005C00002C08CEA90E00E947A03CE01DF91CF91C5
:1005D0000C947E09882319F0813031F00895662348
:1005E00049F089E290E004C0662321F08BE290E0BC
:1005F0000C947A030895CF93DF93EC010E94C719FE
:10060000BE0180E090E0DF91CF910C94931688308A
:100610002DE5920751F089309D4589F4FB018281D7
:10062000882371F082E090E006C0FB01828188237C
:1006300039F081E090E00E94FB0280E0089581E0C3
:1006400008959C013A9521153F4138F5DC01AA2710
:10065000B270AC01442754709C012227387094FF7B
:100660000FC090FF02C080E101C080E0AB2B09F019
:100670008062452B09F08064232B69F080680BC0F1
:10068000892F8170AB2B09F08260452B09F08460C3
:10069000232B09F08860FB0109940895CF93DF9321
:1006A000EC01805E9109089710F0209719F468E535
:1006B0007FE002C062E172E1CE010E9421038C2F33
:1006C000DF91CF910C94330ECF93DF93EC010E9416
:1006D000DD0ECE01805E9109089710F0209719F485
:1006E0006FE57FE002C069E172E1CE01DF91CF9159
:1006F0000C942103CF93DF93EC010E944E03CE01B3
:10070000DF91CF910C94640381E008950C9407036A
:100710001F93CF93DF9300D000D01F92CDB7DEB7E9
:1007200049835A836B832091EA0289819A8121113E
:1007300012C0662349F00E94F117182F682F898193
:100740009A810E94911703C00E94C217182F6981D5
:100750007A81812F04C00E94F11769817A810F90FC
:100760000F900F900F900F90DF91CF911F910C94ED
:100770004104FC01408151816281738184810C9428
:1007800088030E94B91B0E94B419811102C00E9403
:10079000591A0C946F060E946B0A0E94CD070C94A4
:1007A0006B0608950C94D10381E008950C94D40352
:1007B000CF93C82F0E94D2038C2F0E94D603CF91D3
:1007C000089508950E943A120E94E1032FEF84E3F6
:1007D0009CE0215080409040E1F700C000000C9464
:1007E000931B0F931F93CF93DF93EC010E94B903E8
:1007F0008C01BE010E94BF09BE01C8010E94860390
:100800008823A9F1BE01C8010E94060A882379F154
:10081000BE01C8010E94F907882349F1BE01C80141
:100820000E94330B882319F1BE01C8010E94740B8A
:100830008823E9F0BE01C8010E949F0C8823B9F00B
:100840008A81882369F001158CE5180731F00E3D87
:100850001C4531F40E94591A0AC00E94E20307C0E5
:10086000CE01DF91CF911F910F910C94840380E012
:10087000DF91CF911F910F91089580E090E008954E
:100880000895382F262F872F90E06CE070E00E94AB
:100890003825FC01832F90E060E370E00E9438254A
:1008A0008E0F9F1FFC01E20FF11DEE0FFF1FE053A3
:1008B000FF4F859194910895880F991FFC01E05F87
:1008C000FC4F859194910895CF93DF930E9441044A
:1008D0000E948305EC018115904508F041C0C115C7
:1008E00080E4D80708F0D6C0C83ED10510F5C03E58
:1008F000D10508F004C1C83AD10578F4C53AD1054C
:1009000008F0A7C0C130D10509F4F9C008F4F5C05A
:10091000C430D10508F0F3C0F0C0CF3BD10508F4D6
:10092000A0C0C03CD10508F4E8C0CE01805C9109AC
:10093000A3C0C11590E2D90758F4C11521E0D20730
:1009400008F0DDC0C03FD10508F4D7C0D065D7C0DE
:10095000C11580E3D80708F093C0CE019F708CC00A
:10096000C11595E5D90708F048C0C11524E5D2079F
:1009700008F0A9C0C11582E5D80720F5C11591E599
:10098000D90708F08AC0CE01F4E096958795FA95CC
:10099000E1F7282F23703C2F337081E090E002C0F4
:1009A000880F991F3A95E2F79C68922BCF70C695F5
:1009B000C695D0E0A5E0CC0FDD1FAA95E1F7C82BC6
:1009C000D92B9DC09E01237033278C2F8695869549
:1009D000C115D34508F066C0C1E0D0E002C0CC0F1D
:1009E000DD1F2A95E2F790E075E0880F991F7A9550
:1009F000E1F7C82BD92BDC6882C0C11529E5D207E5
:100A0000A0F4C11588E5D80708F062C0C11596E5C5
:100A1000D90708F072C08C2F0E9417068F71C82F5B
:100A2000D0E0DC2FCC27D0626AC0C1152AE5D207FE
:100A300008F453C0CE0190568115904208F05DC075
:100A40008D2F8F710E941706DD27D0628F71D82BF2
:100A500056C0C55AD0E0C958DD4FC881D0E0D06437
:100A60004EC0C85AD0E0CC0FDD1FC75BDD4F0990E8
:100A7000D881C02DD46443C00E945C04EC013FC007
:100A8000CE019927D3FF03C0EC01D86C38C0EC012C
:100A9000D06C35C0DF70D06A32C0DC2FCC27C16F7C
:100AA000D06A2DC0C1E0D0E002C0CC0FDD1F2A9576
:100AB000E2F790E065E0880F991F6A95E1F7C82B8F
:100AC000D92BDA681CC0DC2FCC27C46FD06A17C0C2
:100AD000DC2FCC27C06FD06A12C08C2F8F700E9481
:100AE000170694E0D695C7959A95E1F7CF70D0E0B8
:100AF000DC2FCC27D069C82B02C0C0E0D0E0CE01EB
:100B0000DF91CF9108958238910569F1B0F4813376
:100B1000910509F46DC048F48932910509F463C068
:100B20008A32910509F469C008958533910509F465
:100B300055C089339105B9F00895833E910569F157
:100B400038F4803E9105B1F0823E910509F1089597
:100B5000863E9105A9F1873E9105B9F1843E910544
:100B600009F064C023C020918C0320FD4FC021FDFB
:100B70004DC0089580918C0380FD44C080918D0309
:100B800080FF44C080918C0384FD42C083EE4DC041
:100B900080918C0382FF38C0F5CF80918C0382FD59
:100BA00033C080918D0380FD31C0ECCF80918D03E7
:100BB00081FF32C080918C0384FD2AC087EE35C04E
:100BC00080918C0383FF26C0F5CF80918C0383FD39
:100BD00021C080918D0381FD1FC0ECCF80918C03DB
:100BE00085FD1CC01DC080918C0385FD19C016C0F9
:100BF00080918C0386FD16C017C080918C0386FD02
:100C000013C010C089E311C082EE0FC080EE0DC08A
:100C100080E00BC086EE09C084EE07C089E205C003
:100C200085E303C08AE201C081E390E008959091DA
:100C30008C0392FF0DC0282F2871283019F4877F6C
:100C4000846006C0282F2471243011F48B7F8860C3
:100C500093FF0DC0282F2871283119F4877E8461F5
:100C600006C0282F2471243111F48B7E88612091D5
:100C70008D0320FF0DC0382F3871383019F4877F6D
:100C8000816006C0382F3171313011F48E7F886059
:100C900021FF0DC0282F2871283119F4877E81612A
:100CA00006C0282F2171213111F48E7E886194FDB8
:100CB000877E0895E82FF0E0EE0FFF1FE258FC4F0B
:100CC000808191810895089580EA8A95F1F70895C9
:100CD00008950C9468060C9469060C9468060C94AC
:100CE0006D06CF93DF93A6E8B2E04AE852E061E0F8
:100CF00070E08D91E82FE295EF70F0E021A18F7008
:100D0000EB0102C0CC0FDD1F8A95E2F7CE019C2FCC
:100D10009095922391A392A1892B82A34A175B07F6
:100D200041F7AAE7B2E041E050E08D91E82FE2956B
:100D3000EF70F0E021A18F70BA0102C0660F771F3B
:100D40008A95E2F7CB01962F9095922391A392A1D9
:100D5000892B82A372E0A638B70739F71092770380
:100D60001092760310927F0310927E031092790303
:100D700010927803109281031092800310927B03EB
:100D800010927A03109283031092820310927D03D3
:100D900010927C03109285031092840384E00E94D9
:100DA0007207DF91CF910C94C1032F923F924F9223
:100DB0005F926F927F928F929F92AF92BF92CF92EB
:100DC000DF92EF92FF920F931F93CF93DF9386E80A
:100DD000C82E82E0D82E06E713E09EE7492E93E066
:100DE000592E312C88248394912C5801D8016D9070
:100DF0007C9011971D921C92F60181916F01C82F72
:100E0000C295CF70D0E099A18F70740101C0EE0C33
:100E10008A95EAF7892F8E2989A38AA12E2C2094FE
:100E200082218AA30E946406EAE7F2E020E030E033
:100E30006191A62FA295AF70B0E090968C91D801E9
:100E40004D915C9190E06F7002C0959587956A9581
:100E5000E2F780FD08C0C401022E02C0880F991F6E
:100E60000A94E2F702C080E090E0482B592BD801A9
:100E70004D935C932F5F3F4F2C303105C9F689A10C
:100E8000282229A28AA1E82AEAA20E5F1F4F81E048
:100E9000F501208131812615370509F480E0382AD3
:100EA0004016510609F0A1CF232D44E06EE773E010
:100EB00086E793E00E9473070E94CB03832DDF91A6
:100EC000CF911F910F91FF90EF90DF90CF90BF9047
:100ED000AF909F908F907F906F905F904F903F90DA
:100EE0002F9008950895FF920F931F93CF93DF9350
:100EF000F82E092F162FD72FC42F222349F081E077
:100F00008093BE020E94371B9093BD028093BC0267
:100F10008091BE028823D9F08091BC029091BD02DD
:100F20000E94431B069798F0EF2DF02FA12FBD2FA5
:100F300080E090E04C2F50E08417950734F4219125
:100F400031912D933D930196F7CF1092BE02DF9120
:100F5000CF911F910F91FF900895CF939091CF0261
:100F60009923C9F0882311F0C0E003C01092CF028A
:100F700012C08091CF02C817C8F7EC2FF0E0EE0F37
:100F8000FF1FE154FD4F808191810E944E030E941A
:100F90002319CF5FEECFCF9108958091320288233D
:100FA00099F08091D002882379F08091D3029091BA
:100FB000D402009749F00E94431B4A9728F01092F0
:100FC000D00281E00C94AD0708951092D0021092E7
:100FD00032021092D4021092D30281E00C94AD0739
:100FE0008091320281110C94E50781E080933202F6
:100FF00008956F927F928F929F92AF92BF92CF92FD
:10100000DF92EF92FF920F931F93CF93DF938C01A8
:101010007B011092D102073F8CE5180741F4FB01D8
:10102000C281CC23D1F081E0809332020BC1083F12
:10103000FCE51F0739F4FB01C281CC2371F00E944B
:10104000E50700C1093FFCE51F0739F4FB01C28138
:10105000CC2319F00E94F007F5C08091320288235A
:1010600009F4EFC01092D202D1E0C0E0AA24A39408
:10107000B12C882483943091D202323008F0A4C07D
:10108000C32ED12CC60165E070E00E943825885D32
:101090009D4FFC018081918199249A9420E0E22F58
:1010A000F0E0EE0FFF1FE80FF91F45915491041770
:1010B000150709F4922E452B11F02F5FF0CFFFEFAB
:1010C0009F1202C0712C6AC06090D002F70172803A
:1010D000772061F1C60165E070E00E943825FC01CF
:1010E000E85DFD4FA50101C0440F9A94EAF78481A1
:1010F000482B4483662031F3C50102C0880F991F35
:101100002A95E2F7019750E08417950709F046C049
:1011100082819381009719F00E944E0304C061E020
:10112000832F0E94EA028092D10238C0F50102C0EA
:10113000EE0FFF1F2A95E2F73197C60165E070E0D8
:101140000E943825DC01A85DBD4F14964C91149780
:1011500050E0E417F50771F412968D919C91139766
:10116000009719F00E94640306C060E0832F0E947C
:10117000EA0201C0612CC60165E070E00E943825DA
:10118000FC01E85DFD4F950101C0220F9A94EAF73A
:10119000922F9095248192239483762CC729DD2366
:1011A00059F0C60165E070E00E943825885D9D4FCA
:1011B000D1E0FC0184818111D0E0D1708091D20214
:1011C0008F5F8093D20257CF8091D102882351F054
:1011D0000E94371B9093D4028093D30280E00E9438
:1011E000AD072CC0C1110DC081E00E94AD07DD2309
:1011F00029F11092D4021092D30281E08093D002A0
:101200001DC0F70182818823C9F08091D002882314
:10121000A9F00E94371B9093D4028093D302E091EF
:10122000CF02E83058F481E08E0F8093CF02F0E0D7
:10123000EE0FFF1FE154FD4F1183008381E0C827AB
:1012400001C0C1E08C2FDF91CF911F910F91FF90D2
:10125000EF90DF90CF90BF90AF909F908F907F9056
:101260006F900895CF93DF93EC0181E0898B8F819C
:101270000E94C61888850E94D9180E942319EA8105
:10128000FB81CE010696309729F06C897D89DF912C
:10129000CF910994DF91CF910895CF93DF93FC0113
:1012A0002081223041F4FB01EC01828193810E9474
:1012B0004E0381E08B87DF91CF910895FC018081FF
:1012C000813021F4FB018081918105C0823029F4B5
:1012D000FB01828193810C944E030895FC0180816F
:1012E000813021F4FB018081918105C0823029F495
:1012F000FB01828193810C94640308950F931F93E3
:10130000CF93DF93FC012285211134C0EC010381CE
:1013100014811755C80166E170E00E943825DC0190
:10132000A050BF4F1496ED91FC9115978A5F9E4F88
:10133000309729F054966D917C9155970995C80185
:1013400066E170E00E9438258C0100501F4FF801C3
:1013500087810E94CC18F80180850E94DF180E94C6
:101360002319188219861B861E821D821092D602AE
:101370001092D502DF91CF911F910F910895DF92C6
:10138000EF92FF920F931F93CF93DF93FB01228184
:101390002223A1F1209133022F3F81F18C01C0E083
:1013A000D1E0E12CF12CDD24D39480913302082E7E
:1013B000000C990B8E159F050CF18E818823C9F0C6
:1013C00089859A858017910739F48091D50290918B
:1013D000D6020817190769F0DF861C870B878989F1
:1013E000811103C0CE010E943209CE0106960E94EF
:1013F0007E09FFEFEF1AFF0A6696D7CFDF91CF91F4
:101400001F910F91FF90EF90DF900895CF92DF92A0
:10141000EF92FF920F931F93CF93DF938C01175599
:101420000F3F110511F008F04CC020913302022E3D
:10143000000C330B2017310714F400933302FB0127
:101440007C012281C80166E170E00E9438256C01B0
:10145000EC01C050DF4F288B82819E81882319F1D7
:10146000FA86E9869F5F9E830E94371B9E878D8741
:101470000E94F9188F830E94C31888870E94D6188B
:101480009885892B8887E881F98196012A5F3E4FEC
:10149000309721F06C897D89C9010995F092D602B7
:1014A000E092D5020EC0992361F08989882349F022
:1014B000C80166E170E00E9438258A5F9E4F0E9455
:1014C0007E0981E0DF91CF911F910F91FF90EF9006
:1014D000DF90CF900895CF92DF92FF920F931F93EA
:1014E000CF93DF93809133028F3F09F440C0F12CFA
:1014F000CF2DD0E080913302082E000C990B8C1771
:101500009D07ACF1CE0166E170E00E943825805065
:101510009F4FFC01C288D388C114D10419F488EC10
:10152000C82ED12CCE0166E170E00E9438258C01D6
:1015300000501F4FF80186818823B9F08585968574
:101540000E94431BC816D90680F4F80181898111D5
:1015500003C0C8010E943209CE0166E170E00E941A
:1015600038258A5F9E4F0E947E09F394C1CFDF9198
:10157000CF911F910F91FF90DF90CF9008950F931F
:101580001F93CF93DF93C62FD42F122FFC0182819C
:101590008823C9F06093D9020E94371B9093D80228
:1015A0008093D70280E28C0F883008F057C0C77054
:1015B00081E001C0880FCA95EAF7DF91CF911F91B2
:1015C0000F910C94580F8091D902681330C080910C
:1015D000D7029091D8020E94431B883C910538F5B0
:1015E00000E20D0FCD17B9F080E28C0F883040F487
:1015F000C77081E001C0880FCA95EAF70E945F0FAB
:10160000083028F581E09D2F977001C0880F9A95CA
:10161000EAF70E94580F812F0E94450F0830F0F41E
:10162000D77081E001C0880FDA95EAF70AC080E23E
:101630008C0F883098F4C77081E001C0880FCA957C
:10164000EAF7DF91CF911F910F910C945F0F812FDB
:10165000DF91CF911F910F910C94450FDF91CF91A6
:101660001F910F9108959C01CB01233F4CE5340756
:10167000F9F078F4283DFCE53F07B9F0293D4CE549
:10168000340711F1273D3C4531F526E241EE61EE8C
:101690001EC0253FFCE53F0799F070F0263F3C4512
:1016A000D1F427E245EE66EE12C027E245EE0EC009
:1016B00026E241EE60EE0BC027E245EE64EE07C085
:1016C00026E241EE62EE03C028E241E065EE0E94B0
:1016D000BF0A80E00895FC018281882319F01092EE
:1016E000D902089581E00895CF93DF93EC01FB01C7
:1016F0008281882309F41FC1C230FCE5DF0708F4AA
:101700001BC1C6319CE5D90738F09E012A5F3C45D4
:101710002930310508F010C10E94CC1990938D0337
:1017200080938C03C031ECE5DE0709F4C3C008F0F8
:1017300041C0C8308CE5D80709F49AC0F0F4C43031
:10174000ECE5DE0709F487C068F4C2308CE5D80701
:1017500009F477C0C330DC4509F0E3C080918C0305
:10176000826076C0C630ECE5DE0709F46EC008F092
:101770007BC080918C0388606BC0CC308CE5D8072F
:1017800009F485C068F4CA30ECE5DE0709F474C0DA
:1017900008F079C00E943A1280918C03806858C08A
:1017A000CE308CE5D80709F476C008F07FC0809170
:1017B0008C038BC0CB3FECE5DE0709F44FC018F576
:1017C000C3318CE5D80709F47DC078F4C131ECE56C
:1017D000DE0709F473C0C231DC4509F0A2C00E94E3
:1017E0003A1280918C038F7733C0C5318CE5D807CE
:1017F00009F472C008F486C0CA3FDC4509F091C004
:1018000080918D033EC0CF3FFCE5DF0709F45FC048
:1018100058F4CD3F9CE5D90709F444C008F43FC013
:1018200080918D0382602DC0C130FDE5DF0709F492
:1018300075C008F45DC0C230DD4509F072C080E0BB
:101840006EC080918C03816003C080918C038061A5
:1018500080938C0366C080918C0311C080918D03AE
:10186000826080938D035DC080918C038062F0CF95
:1018700080918C038064ECCF80918C0388608460BD
:10188000E7CF8160EECF80918C038E7FE1CF809196
:101890008C038D7FDDCF80918C03877FD9CF8091A2
:1018A0008D0318C080918D038D7FDBCF80918C03D9
:1018B0008F7ECECF80918C038F7DCACF80918C0399
:1018C0008F7BC6CF80918C03877F8B7FC1CF809128
:1018D0008D038D7F8E7FC5CF80918C0382FB222765
:1018E00020F991E0922790FB82F990FB83F9B0CF29
:1018F00080918D03982F909591708E7F892B90FB0E
:1019000081F9AFCF0E943A1280918C0387FB222786
:1019100020F991E0922790FB87F99ACF81E00E940D
:101920005B1A80918C0390918D030E94DD190E94B7
:101930003A1280E001C081E0DF91CF910895CF930A
:10194000DF9386319C4571F5EB010E94C318982FF7
:10195000917119F4982F9A7A01C090E08A812091B0
:10196000340230913502882379F081E0911101C071
:1019700080E08093DA02911102C069E201C065E360
:10198000C9010E94A21A0AC08091DA02811102C024
:1019900069E201C065E3C9010E94A41A0E942319EB
:1019A00080E001C081E0DF91CF9108959093E00243
:1019B0008093DF020895E091DF02F091E00230971A
:1019C00021F00190F081E02D099480E00895E091EC
:1019D000DF02F091E002309721F00280F381E02DE8
:1019E00009940895E091DF02F091E002309739F018
:1019F00022E0DC012C930480F581E02D0994089508
:101A00002091DD023091DE022817390771F09093A2
:101A1000DE028093DD02E091DF02F091E002309778
:101A200021F00680F781E02D099408952091DB02D2
:101A30003091DC022817390771F09093DC02809313
:101A4000DB02E091DF02F091E002309721F00084A8
:101A5000F185E02D0994089508950C942C0D0C94B3
:101A60002D0D0C942C0D0C942C0D0E94310D0C940A
:101A70002F0D81E008950E942E1B0E9471060E9486
:101A8000CD1B0C94330D7F928F929F92AF92BF9299
:101A9000CF92DF92EF92FF920F931F93CF93DF933A
:101AA000CDB7DEB72A970FB6F894DEBF0FBECDBF15
:101AB0000E94D5060E94390D811111C08FEF8983D4
:101AC0008A831B820E94371B8160782F9D838C83C1
:101AD00049815A816B818D810E94F30D4FC042EE86
:101AE000A42E42E0B42E00E010E0702E802F0E9461
:101AF0005A066C01F501819091905F018826992624
:101B00008114910431F40F5F1F4F0430110569F700
:101B1000D5CF80915B0381FD0E94630680E0EE24B7
:101B2000E394F12C94012E213F21232B09F18E8384
:101B30007F82CE20DF2081E0CD2809F480E08887F5
:101B40000E94371B8160782F9A8789874E815F8139
:101B500068858A850E94F30D000F111FF801EE5170
:101B6000FD4F80819181E826F926F182E08206C04E
:101B70008F5FEE0CFF1C8C30A9F6C5CF0E94631D51
:101B80000E94DB0C9091E1028917C9F00E94DB0CE6
:101B90008093E1022A960FB6F894DEBF0FBECDBF48
:101BA000DF91CF911F910F91FF90EF90DF90CF9039
:101BB000BF90AF909F908F907F900C94D8032A96FF
:101BC0000FB6F894DEBF0FBECDBFDF91CF911F914E
:101BD0000F91FF90EF90DF90CF90BF90AF909F90CC
:101BE0008F907F900895CF93DF93CDB7DEB72B977B
:101BF0000FB6F894DEBF0FBECDBF4F8358876987FD
:101C00007A878B87DE01119686E0FD0111928A9515
:101C1000E9F785E0FE01379601900D928A95E1F78C
:101C20000E949118882319F082E00E9495190E9461
:101C3000641881110E94151949815A816B817C8138
:101C40008D819E810E9451152B960FB6F894DEBFB0
:101C50000FBECDBFDF91CF910895FC0180819181AE
:101C60000E9433180895CF93882309F4A4C0C82F85
:101C70008238C1F40E94DB0C81FD9DC069E3809134
:101C80003402909135020E94A21A0E9423192FEF6C
:101C900081EE94E0215080409040E1F700C00000C8
:101CA00069E319C0833801F50E94DB0C80FD83C015
:101CB00063E580913402909135020E94A21A0E943D
:101CC00023192FEF81EE94E0215080409040E1F7FE
:101CD00000C0000063E580913402909135020E94BB
:101CE000A41ACF910C9423198438C1F40E94DB0C00
:101CF00082FD61C067E480913402909135020E94B8
:101D0000A21A0E9423192FEF81EE94E02150804007
:101D10009040E1F700C0000067E4DDCF8CEF8C0F4E
:101D2000813AD0F46C2F80913402909135020E9458
:101D30006C1A882349F06C2F8091340290913502FF
:101D40000E94A41A0E9423196C2F80913402909152
:101D500035020E94A21AC5CF80E28C0F883048F469
:101D6000C77081E001C0880FCA95EAF70E94C618C3
:101D7000B8CFEBE5EC0FE33040F4F0E0E854FD4F72
:101D8000808190E0CF910C94000DE8E5EC0FE731F5
:101D900050F4F0E0EE0FFF1FE657FD4F8081918178
:101DA000CF910C94160DC03F30F08C2F0E946B1C0D
:101DB000CF910C94581DCF910895882309F464C0E5
:101DC000823879F40E94DB0C81FF5EC069E3809168
:101DD0003402909135020E94A21A0E94231969E3ED
:101DE00010C08338B1F40E94DB0C80FF4DC063E566
:101DF00080913402909135020E94A21A0E94231908
:101E000063E580913402909135020E94A41A0C94EB
:101E10002319843879F40E94DB0C82FF35C067E413
:101E200080913402909135020E94A21A0E942319D7
:101E300067E4E7CF9CEF980F913A10F4682FE1CF59
:101E400090E2980F983050F4877091E001C0990F9C
:101E50008A95EAF7892F0E94CC18D9CF9BE5980F75
:101E6000933020F480E090E00C94000D98E5980FFA
:101E7000973120F480E090E00C94160D803F20F024
:101E80000E94D31C0C94581D0895CF93C82F0E9414
:101E9000330EC93349F42FEF87EE93E02150804091
:101EA0009040E1F700C000008C2FCF910C94DD0E24
:101EB000882321F00E94C6180C94231908958823C2
:101EC00021F00E94CC180C9423190895CF92DF9230
:101ED000EF92FF920F931F93CF93DF937C01062F16
:101EE000C72FFC01D581D295DF70128111110E949C
:101EF000E6180E94BC18882379F0112369F080E26B
:101F0000800F883048F082E00E9495190E94BC182A
:101F100091E0D82ED92601C0D12CCC2EC2948FE0CE
:101F2000C8228C2D90E0FC01E65CFF4F0C945D25EF
:101F30008C2F807FCF70882311F0C295C07F112332
:101F400099F0CC2309F4ECC180E2800F883010F0C6
:101F5000011104C08C2F0E94C61803C08C2F0E9450
:101F6000D9180E942319DCC1802F0E94DD0ECC23DA
:101F700009F4FCC180E2800F883010F0011104C028
:101F80008C2F0E94CC1803C08C2F0E94DF180E9457
:101F90002319ECC18C2F807FCF70803211F0C29555
:101FA000C07F002319F0013059F134C01123B1F082
:101FB000DD2381F0D13031F40E94F9188C2B0E947E
:101FC0000119D4C1D33031F40E9415198C2F0E940D
:101FD000611924C00E94F9188C2B21C0DD2369F0FF
:101FE000D13041F40E94C3188C2309F4BFC10E9470
:101FF0006A1903C0D33009F4B9C10E9415191FC072
:10200000112321F0D43008F0B1C108C0D33008F05A
:10201000ADC115C0112331F0D11182C18C2F0E94A6
:10202000580FA4C1DD2359F0093309F08BC1FFEF2C
:1020300027EE83E0F15020408040E1F781C18C2FF2
:102040000E945F0F93C18C2F86958695837019F03F
:10205000813061F08BC1112321F0802F9C2F937070
:1020600002C080E090E00E94000D88C1112321F0A1
:10207000802F9C2F937002C080E090E00E94160D8C
:102080007DC11123F9F0053F51F0063F71F0043F87
:10209000A9F4809186039091870381600BC08091A1
:1020A000860390918703826005C08091860390919A
:1020B000870384609093870380938603802F0E9418
:1020C0006B1C1EC0053F51F0063F71F0043FA9F4A0
:1020D00080918603909187038E7F0BC08091860349
:1020E000909187038D7F05C080918603909187032F
:1020F0008B7F9093870380938603802F0E94D31C4D
:102100000E94581D3BC18C2F837009F045C01111EE
:1021100031C1402F429546954770440F440F602FC0
:102120006F70862F90E0A0E0B0E0042E04C0880F0E
:10213000991FAA1FBB1F0A94D2F704FF10C00FE01B
:1021400010E020E030E004C0000F111F221F331FF9
:102150004A95D2F7009510952095309503C000E080
:1021600010E09801C695C695C370BC01CD01602BE7
:10217000712B822B932BC23049F058F4C13019F0E7
:102180000E94A716F7C00E949516F4C00E94B916C7
:10219000F1C00E949316EEC0112319F08C2F8170AC
:1021A00001C08695882309F4E5C0402F42954695E5
:1021B0004770440F440F602F6F70862F90E0A0E0AF
:1021C000B0E0042E04C0880F991FAA1FBB1F0A94F9
:1021D000D2F704FF10C00FE010E020E030E004C0B0
:1021E000000F111F221F331F4A95D2F7009510953B
:1021F0002095309503C000E010E09801C695C69583
:10220000C370BC01CD01602B712B822B932BC2308C
:1022100049F058F4C13019F00E946C17ABC00E940D
:102220005A17A8C00E947E17A5C00E94CD16A2C052
:10223000CF70112339F08C2F0E94F316802F0E944B
:10224000580F98C0802F0E945F0F8C2F0E94141788
:1022500091C0023F01F128F4003F41F0013FA1F09D
:102260005AC0033FF9F0043F39F155C0112341F042
:10227000D33008F07BC08C2F8F710E94391776C045
:10228000D43008F073C0F7CF112339F08C2F8F7141
:102290000E94F3166BC01123C9F38C2F8F710E941B
:1022A000141764C0112329F08C2F8F710E94DE1641
:1022B0005DC00E94D9165AC01123C9F00E9461184E
:1022C0000E94CC180E948D18843039F40E948C1919
:1022D0008C2F8F710E9414176CC0D33008F069C026
:1022E000CF718C2F0E94F31663E08C2F0DC00E94DB
:1022F00061180E94C618D33050F00E948C190E94B9
:102300006A1964E08C2F8F710E94761952C081E0A7
:102310000E9495194EC0112339F0DD2309F4B6CF80
:10232000802F0E94330E22C0DD2309F4B6CF09337B
:1023300049F49FEFE7EEF3E09150E040F040E1F721
:1023400000C00000802F0E94DD0E10C04C2F4F7087
:10235000602FC7010E943D040E9404160FC04C2F3D
:102360004F70602FC7010E94400408C088EF8C0D99
:10237000843020F40E94DB0C0E94D803DD20D9F0C9
:102380000E948D1880FD17C0F70112820E948718E5
:102390000E94F316C7010E94E4110E948718DF9182
:1023A000CF911F910F91FF90EF90DF90CF900C9401
:1023B0001417D12CDFCFDF91CF911F910F91FF9098
:1023C000EF90DF90CF9008950F931F93CF93DF93FB
:1023D000EC01988189812B813C81232B31F08F3F47
:1023E00031F481E09F3F19F403C081E001C080E037
:1023F00080FD13C0CE010E94F103882371F0688133
:1024000079818A810E943E188C010E9490170E9457
:102410008116B801CE010E94660FDF91CF911F9106
:102420000F910895882321F00E94D9180C94231944
:102430000895882321F00E94DF180C942319089531
:102440000E94E6180E94F6180E9423190E94901E0E
:102450000E94581D80E090E00E94000D80E090E016
:102460000C94160D80913402909135020E94A61AA8
:102470000C9420120E94D3180C943212E92FE2958A
:10248000EF704E2F50E0FA013297EE30F105B0F4C4
:10249000E65BFF4F0C945D25803F91F018F4883E79
:1024A00068F40EC0843F51F40BC0883E48F0813F71
:1024B00029F406C093FB882780F9089580E00895E9
:1024C00081E008950E9433180E943E120895CF9330
:1024D000DF9300D000D01F92CDB7DEB70F900F90E2
:1024E0000F900F900F90DF91CF910895CF93DF93CE
:1024F00000D000D000D0CDB7DEB726960FB6F89446
:10250000DEBF0FBECDBFDF91CF910895CF93DF9394
:10251000C091EB028091EC02C817A1F0D0E0CE018F
:1025200066E070E00E943825FC01E351FD4F4081D8
:10253000518162817381848195810E9476122196F6
:10254000C770E8CFDF91CF91089540911D0350915E
:102550001E0360911F0370912003809121039091CD
:1025600022030C947612CF93B82FC62F2091EB0242
:10257000A091EC022A17B1F030E0C90166E070E0EA
:102580000E943825FC01E351FD4F81818C1306C068
:1025900080818B1303C08281841306C02F5F3F4F5D
:1025A0002770E8CF80E001C081E0CF9108951F93AC
:1025B000CF93DF938091220382958F7009F066C0DC
:1025C00080911F03882309F461C02091EB021091D0
:1025D000EC02C0911D03D0911E03E0912003F09105
:1025E000210381E0CF3F09F080E0482F211709F453
:1025F0004DC0309721F0DF3F21F080E003C081E043
:1026000001C0842F30E080FD3DC0C90166E070E06C
:102610000E943825DC01A351BD4F11968C91119772
:102620008D1330C08C918C132DC012968C91129703
:10263000811128C013968D919C9114978E179F0736
:1026400008F401978E1B9F0B883C9105D8F480916C
:1026500022038F70806180932203C90166E070E0DD
:102660000E943825FC01EE50FD4F90819F709061D3
:1026700090838DE193E00E94E411DF91CF911F914F
:102680000C9486122F5F3F4F2770B0CFDF91CF9110
:102690001F9108959F92AF92BF92CF92DF92EF92D7
:1026A000FF920F931F93CF93DF93CDB7DEB7619760
:1026B0000FB6F894DEBF0FBECDBF7C0185E0F701F9
:1026C000DE011D9601900D928A95E1F7D701DC900D
:1026D00011960C9111971296CC9030911D03409158
:1026E0001E038091200390912103009731F04F3F0A
:1026F00031F421E03F3F19F403C021E001C020E0A4
:1027000020FD9FC1F701A380B48090901F03992002
:1027100009F42BC120912203A816B90628F0B501AF
:10272000681B790BCB0104C0809590958A0D9B1D89
:1027300011E0883C910590F010E0207F09F0DBC0AB
:102740007A2DB98AA88A4D2D502F6C2D89890E9427
:1027500067128DE193E00E94E4116BC1822F807FAC
:1027600009F091C0041315C0D31213C01C2DC11061
:1027700010C02F702061209322030E94A5128DE1CA
:1027800093E00E94E41180912203D70115968C9367
:1027900075C1A114B10439F00F3F39F481E0BFEFE6
:1027A000DB1203C003C081E001C080E080FD03C0F4
:1027B00081E08C2502C080E090E080FF15C04C2DA8
:1027C000602F8D2D0E94B312882371F08DE193E06C
:1027D0000E94E411EDE1F3E086E0DF011D928A95AD
:1027E000E9F70E94A5124DC0AB2839F00F3F39F42C
:1027F00081E0BFEFDB1203C003C081E001C080E0D5
:1028000080FD03C081E08C2502C080E090E0E82FCD
:10281000E170BE2E80FF2CC04C2D602F8D2D0E94AC
:10282000B312182F811124C0DD860E878D859E85F9
:102830000E943318292F22952F70223018F024304F
:1028400090F405C09F7059F0811109C017C19F70A5
:1028500031F0D70115969C91907F09F40FC1805EED
:10286000883008F40BC1C7010E94E4111B2D06C17A
:102870001C2DCC2009F402C1809122038160809339
:10288000220310E0FBC0041309C0D31207C0C1101B
:1028900005C080912203F7018583A5C0DD860E87E0
:1028A0008D859E850E946212882379F1CC2069F182
:1028B00020912203822F82958F7090E0029774F00E
:1028C00080911D0390911E0398878F831986BB8684
:1028D000AA862C87CE0107960E94E41186E0F701B4
:1028E000ADE1B3E001900D928A95E1F70E94D71215
:1028F0000E94A5120DC0041769F0DD860E878D8534
:102900009E850E946212811119C0C7010E94E411C4
:1029100011E0B4C0D312F1CFC110EFCF80912203E8
:10292000F7018583C7010E94E41186E0EDE1F3E041
:10293000DF011D928A95E9F7192DA0C0CC2029F35B
:1029400020912203822F82958F7090E0029734F2BB
:1029500080911D0390911E039A8389831B82BD82FF
:10296000AC822E83CE010196B7CFA816B90628F007
:10297000F501E81BF90BCF0104C0809590958A0DF5
:102980009B1D883C910558F010E07A2DB98AA88AE1
:102990004D2D502F6C2D89890E9467124AC01C2D25
:1029A000CC2009F4B2CF041333C0D31231C020912C
:1029B000220320FD24C0822F82958F70482F50E083
:1029C00041155105E1F0D70115962C9315974F301D
:1029D000510549F08F5F982F9295907F822F8F70CD
:1029E000892B15968C93C7010E94E41186E0F701AC
:1029F000ADE1B3E001900D928A95E1F73DC086E02C
:102A0000F701ADE1B3E001900D928A95E1F736C090
:102A1000DD860E878D859E850E94621281115ECFB4
:102A200080912203816080932203C7010E94E411F8
:102A300025C0EDE1F3E086E0DF011D928A95E9F71C
:102A40001BC0CC2009F461CFDD860E878D859E8565
:102A50000E946212182F882309F457CF86E0F701ED
:102A6000ADE1B3E001900D928A95E1F78DE193E03D
:102A70000E942D0E0E94D7120E94A512812F6196EE
:102A80000FB6F894DEBF0FBECDBFDF91CF911F917F
:102A90000F91FF90EF90DF90CF90BF90AF909F90FD
:102AA0000895CF93DF93CDB7DEB72C970FB6F89488
:102AB000DEBF0FBECDBF4F83588769877A878B876C
:102AC0009C87CE0107960E944A138823D1F09F81EC
:102AD00088852A853B85232B31F08F3F31F481E0B7
:102AE0009F3F19F403C081E001C080E080FD6FC00A
:102AF0004F81588569857A858B859C850E947612E1
:102B000066C086E0FE013796DE01119601900D92B7
:102B10008A95E1F7FF81E8856A857B8561157105F6
:102B200031F0EF3F31F481E0FF3F19F403C081E061
:102B300001C080E080FD4BC08091EC0290E09C01E0
:102B40002F5F3F4F277033274091EB0250E024174F
:102B5000350709F443C0F983EA837D836C8366E01B
:102B600070E00E943825DC01A351BD4F96E0FE01C4
:102B7000319601900D929A95E1F72093EC020E9414
:102B8000861225C090E066E070E00E9438258351EF
:102B90009D4F0E944A13882371F18091EB0290E0CF
:102BA00066E070E00E943825FC01E351FD4F408152
:102BB000518162817381848195810E947612809116
:102BC000EB0290E00196877099278093EB02809149
:102BD000EB029091EC028913D5CF0DC00E943A12FE
:102BE0001092EC021092EB02EDE1F3E086E0DF01DF
:102BF0001D928A95E9F72C960FB6F894DEBF0FBEAA
:102C0000CDBFDF91CF910895EF92FF920F931F9365
:102C1000CF93DF938C01892B09F46CC0F12CEE2447
:102C2000E394E8012196F8018491843740F48430DC
:102C300008F051C0813081F0823019F15BC08537D6
:102C400009F444C0A8F19CE7980F903708F052C0EF
:102C50008F770E94DD0E41C00E5F1F4FFE018491F1
:102C600090E2980F983050F48770FE2D01C0FF0F4E
:102C70008A95EAF78F2F0E94E91814C00E94330E3C
:102C80002DC00E5F1F4FFE01849190E2980F983087
:102C900060F48770FE2D01C0FF0F8A95EAF78F2F31
:102CA0000E94EF180E94231919C00E94DD0E16C061
:102CB0000E5F1F4FFE01C491CC2381F08FE99FE08E
:102CC0000197F1F700C00000C150F6CF0E5F1F4F13
:102CD000FE01F49003C00E94330E8E018F2D8823D5
:102CE00009F49FCFEFE9FFE03197F1F700C0000052
:102CF0008150F5CFDF91CF911F910F91FF90EF9011
:102D00000895089508950C9482160C9483160E94D9
:102D10008516609345037093460380934703909311
:102D200048030C9420120C9487160F931F93009164
:102D30004503109146032091470330914803602BCF
:102D4000712B822B932B1F910F910C9487160F934D
:102D50001F93009145031091460320914703309142
:102D6000480360237123822393231F910F910C94B6
:102D700087160F931F9300914503109146032091EE
:102D800047033091480360277127822793271F91BB
:102D90000F910C9487160C9482160E94CB166093A8
:102DA00041037093420380934303909344030C9434
:102DB000201260E070E0CB010C94CD160F931F93AE
:102DC00041E050E060E070E08A019B0104C0000F28
:102DD000111F221F331F8A95D2F7C901B8011F9115
:102DE0000F910C94CD160F931F9341E050E060E0DB
:102DF00070E004C0440F551F661F771F8A95D2F7F5
:102E00008091410390914203A0914303B091440308
:102E10008A019B01082B192B2A2B3B2BC901B801D6
:102E20001F910F910C94CD160F931F9341E050E02A
:102E300060E070E004C0440F551F661F771F8A953D
:102E4000D2F740955095609570958091410390918F
:102E50004203A0914303B09144038A019B010823DC
:102E600019232A233B23C901B8011F910F910C9408
:102E7000CD160F931F9341E050E060E070E004C076
:102E8000440F551F661F771F8A95D2F78091410323
:102E900090914203A0914303B09144038A019B01A6
:102EA000082719272A273B27C901B8011F910F912D
:102EB0000C94CD160F931F93009141031091420380
:102EC0002091430330914403602B712B822B932B71
:102ED0001F910F910C94CD160F931F9300914103F6
:102EE00010914203209143033091440360237123E6
:102EF000822393231F910F910C94CD160F931F9350
:102F00000091410310914203209143033091440307
:102F100060277127822793271F910F910C94CD165C
:102F20000895282F362F892F6CE00E942F25820FBD
:102F3000982F9770A1E001C0AA0F9A95EAF786959D
:102F40008695869590E065E070E00E943825FC014A
:102F5000ED5DFC4F40E050E0632F70E090819B01FD
:102F6000042E02C0369527950A94E2F72170219528
:102F700029272A23292721934F5F5F4F4530510589
:102F800069F70895282F892F6CE00E942F25820F62
:102F9000A82FA77086958695869590E065E070E0ED
:102FA0000E943825BC0140E050E080E0FB01E40FC6
:102FB000F51FED5DFC4F208130E00A2E02C03695F2
:102FC00027950A94E2F721703327042E01C0220FBF
:102FD0000A94EAF7822B4F5F5F4F4530510531F776
:102FE0000895BF92CF92DF92EF92FF920F931F93BB
:102FF000CF93DF938C01C0904103D0904203E090C7
:103000004303F09044038091450390914603A091BF
:103010004703B0914803C82AD92AEA2AFB2ACFE1FC
:10302000D0E0D701C6010C2E04C0B695A7959795A0
:1030300087950A94D2F780FD04C0219790F7B12CB0
:1030400007C0BC2EB8018C2F0E9464040197A9F31D
:103050008B2DDF91CF911F910F91FF90EF90DF901B
:10306000CF90BF900895CF93DF93EC010E94F117AA
:10307000BE010E946404DF91CF9108951F93CF9306
:10308000DF93EB019091EA02992321F0CB010E949A
:10309000331813C0882349F0CB010E94F117182F71
:1030A000682FCE010E94911704C0CB010E94C21765
:1030B000182FBE01812F0E946404DF91CF911F91D0
:1030C000089580914E0308950E94371B20914C0370
:1030D00030914D038217930750F00E94371B2091C7
:1030E0004C0330914D03821B930B9C010AC00E943C
:1030F000371B20914C0330914D0320953095280FBC
:10310000391F81E0283C310508F480E00895809162
:103110004B03859585958595089580914B03877020
:1031200008950E94371B2091490330914A0382176A
:103130009307A8F00E94371B2091490330914A035E
:10314000821B930B883C910510F480E013C08091A2
:103150004B0382FB882780F991E089270BC00E94EE
:10316000371B2091490330914A0320953095820FF7
:10317000931FE8CF8170089590914B03977081E081
:1031800009F480E0089580915A03089590915A03BC
:10319000892B80935A030895809590915A0389232F
:1031A00080935A03089510925A0308958091590309
:1031B000089590915903892B809359030895809520
:1031C00090915903892380935903089510925903CC
:1031D000089590915803892B809358030895809502
:1031E00090915803892380935803089510925803AF
:1031F000089580914F03089508950C94FC180C9441
:10320000FD18CF9390914F03981769F0C82F0E9433
:10321000371B90934D0380934C03C0934F038C2F27
:10322000CF910C94FF18CF91089580914F0388237C
:1032300049F010924F0310924D0310924C0380E01E
:103240000C94FF180895E0913402F09135028091BA
:103250005A038083E0913402F0913502908180918D
:103260005903892B8083E0913402F09135029081DB
:1032700080915803892B808380914F038823B9F074
:103280000E94641881110E941519E0913402F09196
:103290003502908180914F03892B80838091340285
:1032A000909135020E94601A81110E941519809137
:1032B0003402909135020C94E70C0C94FC180C9499
:1032C0005D1990914E03981721F080934E030C9452
:1032D0005F19089580914E03882329F010924E03C0
:1032E00080E00C945F1908950C94FC18982F990FA6
:1032F000990F990F692B60934B030E94F3160E945C
:10330000371B90934A038093490380914B03859523
:10331000859585950C94741910924B0310924A036D
:103320001092490380E00C94741920914B0380950E
:10333000822380934B03982F977079F430E0482FC5
:10334000082E000C550B2417350739F08595859507
:1033500085950E9414170C948C1908956FEF7FEFD8
:1033600080E090E00C94A32580E090E00E947F250F
:1033700021E08C3E9E4F09F020E0822F089582E0EC
:1033800090E00C94772583E090E00C947725682FEB
:1033900083E090E00C948525CF9384E090E00E9438
:1033A0007725C82F81E290E00E9477252C2F30E00E
:1033B000A901582BCA01CF910895CF93C92F682F27
:1033C00084E090E00E9485256C2F81E290E0CF910F
:1033D0000C948525AB01BC018FE090E00C949725FF
:1033E000AB01BC0183E190E00C94972560E070E0B4
:1033F000CB010C94F01960E070E0CB010E94EA1957
:103400000C94F6196CEE7EEF80E090E00E94A3250C
:1034100060E082E090E00E94852560E083E090E03B
:103420000E9485251092450310924603109247038F
:103430001092480360E084E090E00E94852560E0FF
:1034400081E290E00E94852560E085E090E00E94A6
:10345000852560E086E090E00E9485256FEF87E09B
:1034600090E00E94852540E050E0BA0188E090E0BD
:103470000E94972560E08DE090E00E94852540E065
:1034800050E0BA0188E190E00E94972560E087E172
:1034900090E00E94852540E050E0BA018CE190E088
:1034A0000E94972560E080E290E00E9485250C94C0
:1034B000FB190C94021A682F8EE090E00C9485257D
:1034C000FC01329697E080E0915029F0219122236F
:1034D000D9F38F5FF9CF0895662349F0FC01329646
:1034E00008962191621729F0E817F907D1F780E0D3
:1034F000089581E008959C01FC0132969FEF80E0E1
:103500004191461789F09F3F19F4411101C0982F4E
:103510008F5F8630A9F79F3F39F0F901E90FF11D60
:1035200097FDFA956283089508959C012A5F3F4FA5
:10353000FC014281461301C0128201968217930753
:10354000B9F708950C947B1A0C94951A029626E00C
:10355000FC0111922A95E9F7089508950C94AD1A8B
:103560000C94AD1ACF930E94B01A0E94D5060E9407
:10357000AE1AC0E08C2F0E945A06892B29F4CF5F27
:10358000C430C1F780E001C081E0CF9108950C9470
:10359000AD1A0C94C71A0E94C91A80919203843004
:1035A00049F110925C0320E488E190E00FB6F894B2
:1035B000A895809360000FBE2093600080E00E9479
:1035C000D8030E94C91A83B7817F846083BF83B701
:1035D000816083BF7894889583B78E7F83BF0FB651
:1035E000F894A895809160008861809360001092A3
:1035F00060000FBE08950C94AD1A0E943A120E940A
:10360000DB0C0E94D8030C94FB1A1F920F920FB68A
:103610000F9211248F939F93AF93BF9380915C037C
:10362000811113C08091880390918903A0918A032E
:10363000B0918B034196A11DB11D80938803909397
:103640008903A0938A03B0938B03BF91AF919F919D
:103650008F910F900FBE0F901F90189582E084BD40
:1036600093E095BD9AEF97BD80936E0008952FB7B4
:10367000F8948091880390918903A0918A03B09176
:103680008B032FBF0895CF92DF92EF92FF920F939B
:103690001F932FB7F894409188035091890360914C
:1036A0008A0370918B032FBF6A017B01EE24FF24F4
:1036B0008C0120E030E0C016D106E206F30610F4DB
:1036C000415051099A01281B390BC9011F910F91D3
:1036D000FF90EF90DF90CF90089578941F920F9213
:1036E0000FB60F9211248F939F93AF93BF93809146
:1036F000880390918903A0918A03B0918B0301966E
:10370000A11DB11D8093880390938903A0938A0320
:10371000B0938B03BF91AF919F918F910F900FBE8C
:103720000F901F90189581E08093E00080E28093D5
:10373000D8001092C9008FE19EE40197F1F700C014
:10374000000087E090EBDC0180939B0390939C0347
:10375000A0939D03B0939E039CE088E10FB6F8947C
:10376000A895809360000FBE90936000FFCF0C94EB
:10377000AE190E94D5068FE39CE90197F1F700C0CE
:1037800000000E94D50680E00E945A0680FF04C017
:103790000E94B71B0C94931B08950E94B4198111C9
:1037A00002C00E94591A0E94BF1980935B030E94B5
:1037B000CC1990938D0380938C030E94C319682FBA
:1037C00070E080E090E00C9493168091640380FF99
:1037D0000CC080913B0290E065E070E00E943825CB
:1037E00095958795959587952EC081FF0AC0809104
:1037F0003B0290E065E070E00E9438259595879542
:1038000022C082FF08C080913B0290E065E070E03A
:103810000E94382518C0209163032223D9F03091EB
:103820003A02231780F780913B0290E065E070E058
:103830000E943825622F70E00E943825632F70E0C7
:103840000E944925CB018038910538F4009739F45E
:1038500081E005C085E090E008958FE70895089520
:103860008091640380FF08C06091370270E0759515
:1038700067957595679523C081FF06C060913702F3
:1038800070E0759567951BC082FF04C06091370298
:1038900070E012C0609163036623A9F020913602A4
:1038A0006217A0F78091370270E090E00E943825FF
:1038B000622F70E00E9449256038710540F461155F
:1038C000710519F406C061E070E0862F08958FE756
:1038D000089581E00895803F21F40E94E51B8195C1
:1038E00004C0813F29F40E94E51B8093680308957A
:1038F000823F21F40E94E51B819504C0833F29F497
:103900000E94E51B809367030895893F19F40E9484
:10391000301C05C08A3F31F40E94301C8195809391
:10392000690308958B3F21F40E94301C819504C0E7
:103930008C3F29F40E94301C80936A030895843FD1
:1039400021F480916603816017C0853F21F4809146
:103950006603826011C0863F21F480916603846013
:103960000BC0873F21F480916603886005C0883FC3
:1039700031F48091660380618093660308958D3FE2
:1039800021F48091640381600BC08E3F21F480910B
:103990006403826005C08F3F29F4809164038460D2
:1039A000809364030895803F39F48091680387FF12
:1039B0006CC01092680369C0813F29F4809168034C
:1039C0001816BCF362C090916703823F29F497FFF9
:1039D0005CC01092670359C0833F19F41916CCF3E9
:1039E00054C0893F41F48091690318160CF04DC012
:1039F000109269034AC08A3F29F48091690387FFC6
:103A000044C0F6CF8B3F39F480916A0387FF3DC0F5
:103A100010926A033AC08C3F29F480916A03181609
:103A2000BCF333C0843F21F4809166038E7F17C0BE
:103A3000853F21F4809166038D7F11C0863F21F47C
:103A4000809166038B7F0BC0873F21F480916603D2
:103A5000877F05C0883F31F4809166038F7E809315
:103A6000660313C08D3F21F4809164038E7F0BC0E9
:103A70008E3F21F4809164038D7F05C08F3F29F430
:103A8000809164038B7F809364038091670381112D
:103A90000EC08091680381110AC080916903811171
:103AA00006C080916A03811102C0109263030895D9
:103AB00085E693E00E94F20C0E94371B909362030C
:103AC000809361030895CF93DF9300D000D000D09E
:103AD000CDB7DEB786E0E5E6F3E0DE0111960190B2
:103AE0000D928A95E1F780916703811105C080915D
:103AF0006803882309F481C080915F03909160037B
:103B00000E94431BFC0120916303222339F0809122
:103B10003C0290E08E179F0760F06FC080913D02DD
:103B200090E06AE070E00E9438258E179F0718F039
:103B300064C02F3F19F02F5F209363031092690335
:103B400010926A0380916703181624F40E94E51B03
:103B5000809367038091670387FF05C00E94E51B80
:103B600081958093670380916803181624F40E945E
:103B7000E51B809368038091680387FF05C00E945E
:103B8000E51B81958093680380916703882311F179
:103B9000209168032223F1F0082E000C990B65EBAD
:103BA00070E00E943825992319F09093670303C0B1
:103BB00081E080936703822F220F990B65EB70E001
:103BC0000E943825992319F09093680303C081E07F
:103BD000809368030E94581D809161039091620355
:103BE0009093600380935F0386E0FE013196A5E623
:103BF000B3E001900D928A95E1F7809169038111FC
:103C000005C080916A03882309F481C080915D0317
:103C100090915E030E94431BFC01209163032223C9
:103C200039F08091380290E08E179F0760F06FC0E6
:103C30008091390290E06AE070E00E9438258E178A
:103C40009F0718F064C02F3F19F02F5F2093630384
:103C5000109267031092680380916903181624F488
:103C60000E94301C809369038091690387FF05C01F
:103C70000E94301C81958093690380916A03181615
:103C800024F40E94301C80936A0380916A0387FFAA
:103C900005C00E94301C819580936A03809169035E
:103CA000882311F120916A032223F1F0082E000CE1
:103CB000990B65EB70E00E943825992319F09093D9
:103CC000690303C081E080936903822F220F990B5F
:103CD00065EB70E00E943825992319F090936A03F0
:103CE00003C081E080936A030E94581D80916103A4
:103CF0009091620390935E0380935D0386E0FE01E2
:103D00003196A5E6B3E001900D928A95E1F72696EB
:103D10000FB6F894DEBF0FBECDBFDF91CF910895EF
:103D2000E5E6F3E086E0DF011D928A95E9F710925F
:103D30006303109264030895809173030895CF93F1
:103D4000DF9300D01F92CDB7DEB7909192039430ED
:103D500019F589837B836A8382E08093E9008FEF82
:103D60009091E800815095FD06C095ED9A95F1F788
:103D700000008111F5CF8091E80085FF0DC040E083
:103D800050E063E070E0CE0101960E94D220809165
:103D9000E8008E778093E8000F900F900F90DF91EE
:103DA000CF910895CF93DF93EC010E94B52082302C
:103DB00011F0843031F4BE0184E0DF91CF910C9496
:103DC0009F1EDF91CF910895BC0183E00C949F1E4C
:103DD000CF93DF93EC010E94B520823011F0843044
:103DE000F9F482E08093E9008FEF9091E800815030
:103DF00095FD06C095ED9A95F1F700008111F5CF7C
:103E00008091E80085FF0CC040E050E066E070E083
:103E1000CE010E94D2208091E8008E778093E80046
:103E2000DF91CF910895CF93DF93EC010E94B520ED
:103E3000823011F0843039F581E08093E9008FEF12
:103E40009091E800815095FD06C095ED9A95F1F7A7
:103E500000008111F5CF8091E80085FF14C040E09B
:103E600050E068E070E0CE010E94D2208091E8002E
:103E70008E778093E80088E0FE01ABE6B3E0019026
:103E80000D928A95E1F7DF91CF91089508950895F5
:103E90000C94FD1A42E061EC81E00E94D62142E2DE
:103EA00061EC82E00C94D62180919403833009F474
:103EB0005CC030F4813071F0823009F495C008950F
:103EC0008A3009F481C08B3009F467C0893009F069
:103ED000A3C020C080919303813A09F09DC08091D6
:103EE000E800877F8093E800809197039091980382
:103EF000892B21F468E08BE693E003C060E080E06A
:103F000090E070E00E941D218091E8008B77809303
:103F1000E800089580919303813209F07DC080917B
:103F2000970390919803029708F076C08091E8007B
:103F3000877F8093E8008091E80082FD05C0809132
:103F400092038111F8CF68C08091F200823029F489
:103F50008091F1008B7F813021F48091F10080937A
:103F600073038091E8008B7753C080919303813A6B
:103F700009F052C08091970390919803892B09F022
:103F80004BC08091E800877F8093E8008091E80033
:103F900080FFFCCF8091480236C08091930381322C
:103FA000D9F58091970390919803892BA9F5809179
:103FB000E800877F8093E8000E940B2280919503A0
:103FC000809348020C943A1280919303813221F538
:103FD0008091E800877F8093E8000E940B22809107
:103FE000960380937403089580919303813AA1F41A
:103FF0008091E800877F8093E8008091E80080FF4F
:10400000FCCF809174038093F1008091E8008E775B
:104010008093E8000C940B22089584B7877F84BFB7
:104020000FB6F894A8958091600088618093600035
:10403000109260000FBE90E080E80FB6F894809375
:104040006100909361000FBE0E94350D0E945D22B9
:104050000E94B0228091E20084608093E200789414
:104060000E9414250E943B0D8EE392E00E94D60C24
:1040700080919203853069F40E94CB1A809190035D
:104080008823B1F30E94B21A882391F30E94BC20C6
:10409000EFCF0E94430DECCF0C944E20292F3327F5
:1040A00023303105C9F060F42130310581F0223030
:1040B000310509F04AC08BE390E020E633E049C0C7
:1040C0002132310511F12232310579F13EC082E110
:1040D00090E02BE933E03DC099278130910561F0F4
:1040E00040F08230910559F0039779F5E0E1F3E073
:1040F00008C0ECE5F3E005C0E4E3F3E002C0E6E16C
:10410000F3E0849190E09F0124C06115710541F0B6
:1041100061307105D1F489E090E02BE833E019C0FB
:1041200089E090E022E733E014C06115710541F0A9
:104130006130710551F481E890E02DEA33E009C067
:1041400080E490E02EE234E004C080E090E020E0E3
:1041500030E0FA0131832083089580919203843006
:1041600011F081E0089582E0089580917503811136
:1041700002C00C94AD20089584E089BD86E089BD1D
:1041800009B400FEFDCF8091D8008F7D8093D800C8
:104190008091E00082608093E0008091E00081FDEA
:1041A000FCCF0895CF92DF92EF92FF920F931F936F
:1041B000CF93DF93EC018B017A010E942A228111B7
:1041C00033C0E114F10439F0F70180819181081BBB
:1041D000190BC80FD91FC12CD12C0115110519F1CC
:1041E0008091E80085FD16C08091E8008E7780936D
:1041F000E800E114F10449F0F70180819181C80ED3
:10420000D91ED182C08285E00FC00E942A22882355
:1042100021F30AC089918093F10001501109FFEF49
:10422000CF1ADF0ADACF80E0DF91CF911F910F9193
:10423000FF90EF90DF90CF900895209199033091F7
:104240009A032617370748F06115710539F4209154
:10425000E8002E772093E80001C0B901FC0120E0BE
:104260006115710561F1809192038823D9F1853040
:10427000D9F18091E80083FD39C08091E80082FD8A
:104280002BC08091E80080FFEBCF8091F20090E09E
:104290006115710551F08830910538F42191209312
:1042A000F100615071090196F3CF21E0089709F000
:1042B00020E08091E8008E778093E800D1CF211133
:1042C000D2CF0AC080919203882361F0853061F0DB
:1042D0008091E80083FD0AC08091E80082FFF2CF60
:1042E00080E0089582E0089583E0089581E00895D4
:1042F0002091990330919A032617370748F06115EA
:10430000710539F42091E8002E772093E80001C070
:10431000B901FC0120E06115710579F180919203EA
:10432000882309F43DC0853009F43CC08091E80041
:1043300083FD3AC08091E80082FD2CC08091E800A6
:1043400080FFE9CF8091F20090E06115710559F08E
:104350008830910540F424912093F100319661500A
:1043600071090196F2CF21E0089709F020E08091D1
:10437000E8008E778093E800CECF2111CFCF0AC01E
:1043800080919203882361F0853061F08091E8008C
:1043900083FD0AC08091E80082FFF2CF80E008959B
:1043A00082E0089583E0089581E00895982F953084
:1043B00068F59093E900981739F07091EC0020911E
:1043C000ED005091F00003C0242F762F50E021FD26
:1043D00002C09F5FECCF3091EB003E7F3093EB004B
:1043E0003091ED003D7F3093ED003091EB00316076
:1043F0003093EB007093EC002093ED005093F000AD
:104400002091EE0027FDE5CF80E008958F70809326
:10441000E90081E008958091930387FF11C08091A6
:10442000E80082FD05C0809192038111F8CF11C090
:104430008091E8008B770BC080919203882349F02C
:104440008091E80080FFF8CF8091E8008E7780931C
:10445000E80008952091E4003091E50095E6409150
:10446000EC00842F817040FF23C08091E80080FD24
:104470001DC080919203882399F0853099F0809136
:10448000EB0085FD11C04091E4005091E500241738
:10449000350729F3915011F09A01E1CF84E0089596
:1044A00082E0089583E0089581E0089580E0089512
:1044B0004091E80042FFDDCF08950E94BA220E9499
:1044C000BD22E0EEF0E0808181608083E8EDF0E0E5
:1044D00080818F77808319BCE3E6F0E08081816082
:1044E00080831092910308950E94BA220E94BD22F7
:1044F0008091D8008F778093D8008091D800806811
:104500008093D8008091D8008F7D8093D80084E07C
:1045100089BD86E089BD09B400FEFDCF10929203EB
:1045200010928E031092900310928F0342E060E08D
:1045300080E00E94D6218091E1008E7F8093E1008F
:104540008091E20081608093E2008091E2008860C7
:104550008093E2008091E0008E7F8093E0000895D8
:10456000E3E6F0E080818E7F808381E08093910399
:104570000C9474221092E20008951092E1000895C4
:104580001F920F920FB60F9211242F933F934F93C8
:104590005F936F937F938F939F93AF93BF93EF93AB
:1045A000FF938091E10082FF0BC08091E20082FFC7
:1045B00007C08091E1008B7F8093E1000E9413256A
:1045C0008091E10080FF19C08091E20080FF15C05A
:1045D0008091E2008E7F8093E2008091E200806112
:1045E0008093E2008091D80080628093D80019BC4B
:1045F00085E0809392030E94471F8091E10084FF31
:1046000030C08091E20084FF2CC084E089BD86E048
:1046100089BD09B400FEFDCF8091D8008F7D8093C5
:10462000D8008091E1008F7E8093E1008091E200CC
:104630008F7E8093E2008091E20081608093E200AF
:1046400080918E03882311F084E007C08091E300FD
:1046500087FD02C081E001C083E0809392030E9445
:10466000481F8091E10083FF29C08091E20083FF11
:1046700025C08091E100877F8093E10082E08093F4
:10468000920310928E038091E1008E7F8093E1006F
:104690008091E2008E7F8093E2008091E200806151
:1046A0008093E20042E060E080E00E94D6218091A9
:1046B000F00088608093F0000E94461FFF91EF9108
:1046C000BF91AF919F918F917F916F915F914F912A
:1046D0003F912F910F900FBE0F901F9018951F9232
:1046E0000F920FB60F9211242F933F934F935F9326
:1046F0006F937F938F939F93AF93BF93CF93DF93EA
:10470000EF93FF93C091E900CF708091EC00D82F18
:10471000D17080FDD0E81092E9008091F000877F91
:104720008093F00078940E94B3231092E900809166
:10473000F00088608093F000CD2BCF70C093E9002B
:10474000FF91EF91DF91CF91BF91AF919F918F91A9
:104750007F916F915F914F913F912F910F900FBE7D
:104760000F901F9018951F93CF93DF93CDB7DEB7AF
:10477000AA970FB6F894DEBF0FBECDBFE3E9F3E012
:104780008091F100819323E0EB39F207C9F70E9491
:10479000541F8091E80083FF2EC180919303909174
:1047A0009403492F50E04A30510508F024C1FA0122
:1047B000E85AFF4F0C945D25803821F0823809F0CB
:1047C0001AC108C080918F0390919003992389F0BA
:1047D00082600FC0809197038F70853008F00BC105
:1047E0008093E9008091EB0085FB882780F9109287
:1047F000E9009091E800977F9093E8008093F100A2
:104800001092F100D1C0282F2D7F09F0F4C0882329
:1048100019F0823061F0EFC080919503813009F08A
:10482000EAC0933009F080E0809390032EC080911D
:10483000950381112AC0809197038F702FEF280F65
:10484000243008F0D8C08093E9002091EB0020FFCD
:104850001CC0933021F48091EB00806214C09091D1
:10486000EB0090619093EB0021E030E0A90102C0E1
:10487000440F551F8A95E2F74093EA001092EA0030
:104880008091EB0088608093EB001092E9008091AA
:10489000E800877F8093E8000E940B22ACC0811162
:1048A000AAC0109195031F778091E3008078812B37
:1048B0008093E3008091E800877F8093E8000E9466
:1048C0000B228091E80080FFFCCF8091E30080689C
:1048D0008093E300111102C082E001C083E0809365
:1048E000920389C08058823008F085C0809195037A
:1048F000909196038C3D53E0950779F583E08A8388
:104900008AE289834FB7F894DE01139620E03EE0F7
:1049100051E2E32FF0E050935700E49120FF03C0F1
:10492000E295EF703F5FEF708E2F90E0EA3010F06D
:10493000C79601C0C0968D939D932F5F243149F790
:104940004FBF8091E800877F8093E8006AE270E0C3
:10495000CE0101960E941D2116C0609197037091AF
:104960009803AE014F5F5F4F0E944C20BC01892B22
:1049700009F441C09091E800977F9093E800898105
:104980009A810E9478218091E8008B778093E800DB
:1049900032C0803881F58091E800877F8093E800FD
:1049A00080918E038093F1008091E8008E7772CF22
:1049B000811121C0809195039091960399270297C8
:1049C000D4F48091E800877F8093E800809195037C
:1049D00080938E030E940B2280918E03811106C06A
:1049E0008091E30087FD02C081E001C084E08093F4
:1049F00092030E944A1F8091E80083FF0AC08091C1
:104A0000E800877F8093E8008091EB0080628093CC
:104A1000EB00AA960FB6F894DEBF0FBECDBFDF91B4
:104A2000CF911F9108950895CF9380919203882389
:104A3000A1F0C091E900CF709091EC00892F8170B6
:104A400090FD80E8C82B1092E9008091E80083FD7A
:104A50000E94B323CF70C093E900CF910895002442
:104A600080FD060E660F11F08695D1F7802D089512
:104A70000024552704C0080E591F880F991F00975E
:104A800029F076956795B8F37105B9F7802D952FC4
:104A9000089597FB072E16F4009407D077FD09D0F0
:104AA0000E94632507FC05D03EF4909581959F4FA9
:104AB0000895709561957F4F0895EE0FFF1F059043
:104AC000F491E02D0994AA1BBB1B51E107C0AA1F5A
:104AD000BB1FA617B70710F0A61BB70B881F991F9F
:104AE0005A95A9F780959095BC01CD010895F99943
:104AF000FECF92BD81BDF89A992780B50895A8E1AF
:104B0000B0E042E050E00C94AB25262FF999FECF9F
:104B100092BD81BDF89A019700B4021639F01FBA10
:104B200020BD0FB6F894FA9AF99A0FBE089503962D
:104B3000272F0E9486250E948525252F0E948625E5
:104B4000242F0C9486250196272F0E9486250C94ED
:104B50008525DC01CB01FC01F999FECF06C0F2BD31
:104B6000E1BDF89A319600B40D9241505040B8F72B
:064B70000895F894FFCF48
:104B76004D095E096E0900000000000000000000FB
:104B86000000000024024D095E096E0900000000C5
:104B96000000000000000000000020024D095E0930
:104BA6006E09000000000000000000000000000088
:104BB6001C024D095E096E0900000000000000009D
:104BC60000000000000018024D095E096E09000091
:104BD60000000000000000000000000014024D0963
:104BE6005E096E09000000000000000000000000E1
:104BF600000010024D095E096E0900000000000069
:104C060000000000000000000C024D095E096E095C
:104C16000000000000000000000000000000080284
:104C260000008002000000000000000000000000FC
:104C360000000000000000009902000000000000D3
:104C46000000000000000000000000000000B202AA
:104C5600000000000000000000000000000000004E
:104C660000000000CB020000000000000000000071
:104C760000000000000000002E002E023500350264
:104C86002D002D02310031022F0230022F0030009C
:104C96002602270233003400CA00000000C40000C8
:104CA600000001FF50036408641E1407101E9C1EBA
:104CB600131FE81EE41ED21E01E200E900EA00B559
:104CC60000B600B700CD008301CC008A01920194A2
:104CD600012102230224022502260227022A02B308
:104CE60000B4006F0070008182839192666736354A
:104CF60034333231309693659495E200E900EA0048
:104D0600B500B600B700CD008301CC008A01920140
:104D160094012102230224022502260227022A02E6
:0C4D2600B300B4006F00700081828300B5
:00000001FF
