:100000000C949E060C94E5060C94E5060C94621A7A
:100010000C94E5060C94E5060C94E5060C94E506B4
:100020000C94E5060C94E5060C94F4300C94C6315F
:100030000C94F3280C94E5060C94E5060C94E50664
:100040000C94E5060C94E5060C94E5060C94E50684
:100050000C94E5060C9493290C94E5060C94E506A3
:100060000C94E5060C94E5060C94E5060C94E50664
:100070000C94E5060C94E5060C94E5060C94E50654
:100080000C94E5060C94E5060C94E5060C94E50644
:100090000C94E5060C94E5060C94E5060C94E50634
:1000A0000C94E5060C94E5060C94E50630144C140B
:1000B000511456145B14601465146A1498159B153A
:1000C000A015A715AC15B115B615BB15C015C515EE
:1000D000CA15CF15D515D515D515D515D515D515E1
:1000E000D515D515A01DA01DD21DD21D2B1E491E34
:1000F000BE1FBE1F8B1E201F311F311FAE1FBE1F14
:10010000BE1FB71F54205420662066205D20662045
:1001100066206620542054206220662066206220DB
:1001200033325A3252335A325233A632C9325233F0
:1001300020332F3354657374204D6163726F204DEB
:10014000350001014A01043130307C0102E0010137
:100150004F0103E001043130307C0102E001014F26
:100160000103E001043130307C0102E001014F0164
:1001700003E001043130307C01014C0104313030A6
:100180007C0102E101014A0103E101043130307CCC
:1001900001012A000102E00101500103E001012AEE
:1001A0002E01043135307C000102E00101500103D1
:1001B000E001043135307C0102E00101500103E02F
:1001C00001043135307C01012A2E01043135307CA7
:1001D000000102E101014D0103E101012A2E6A70D3
:1001E0006701043130307C00576F742074686520DB
:1001F000666F636B2064696420796F75206A75731C
:100200007420666F6B696E27207361792061626F5D
:100210007574206D652C20796F75206C6974746C11
:10022000652062657463683F2049E280996C6C20A8
:100230006861766520796F75206B6E6F7720492035
:1002400067726164756174656420746F70206F6695
:10025000206D7920636C61737320696E207468650A
:10026000204D49362C20616E642049E280997665E4
:10027000206265656E20696E766F6C7665642069B4
:100280006E206E756D65726F757320736563726530
:1002900074207261696473206F6E204166676861C3
:1002A0006E697374616E2C20616E642049206861F0
:1002B0007665206F7665722033303020636F6E660E
:1002C00069726D6564206B696C6C732E20492061C6
:1002D0006D20747261696E656420696E2074656159
:1002E000206472696E6B696E272C206272757620AD
:1002F000616E642049E280996D2074686520746F96
:100300007020746561206472696E6B276120696E6C
:100310002074686520656E7469726520554B206194
:10032000726D656420666F726365732E20596F75F8
:1003300020617265206E6F7468696E6720746F202B
:100340006D6520627574206A75737420616E6F74B8
:10035000686572207461726765742E204920776920
:100360006C6C207769706520796F752074686520E2
:10037000666F636B206F7574207769746820707284
:1003800065636973696F6E20746865206C696B655D
:1003900073206F6620776869636820686173206ED8
:1003A00065766572206265656E207365656E206294
:1003B00065666F7265206F6E207468697320626C69
:1003C0006F6F64792045617274682C206D61726B67
:1003D000206D7920666F636B696E2720776F72647A
:1003E000732E20596F75207468696E6B20796F7554
:1003F0002063616E20676574206177617920776979
:10040000746820736179696E672074686174207301
:100410006869746520746F206D65206F7665722041
:1004200074686520496E7465726E65743F20546807
:10043000696E6B20616761696E2C20666F636B6506
:1004400027722E20417320776520737065616B20C1
:100450004920616D20636F6E74616374696E6720FB
:100460006D7920736563726574206E6574776F7241
:100470006B206F66207370696573206163726F73A0
:10048000732074686520554B20616E6420796F7508
:1004900072204950206973206265696E672074720A
:1004A00061636564207269676874206E6F7720737A
:1004B0006F20796F75206265747465722070726543
:1004C0007061726520666F72207468652073746F46
:1004D000726D2C20627275762E20546865207374BC
:1004E0006F726D2074686174207769706573206F16
:1004F0007574207468652070617468652763206C6A
:100500006974746C65207468696E6720796F7520F2
:1005100063616C6C20796F7572206C6966652E2042
:10052000596F75E28099726520666F636B696E27FB
:1005300020646561642C20627275762E20492063E8
:10054000616E20626520616E7977686572652C2026
:10055000616E7974696D652C20616E642049206339
:10056000616E206B696C6C20796F7520696E206FED
:1005700076657220736576656E2068756E64726547
:100580006420776179732C20616E642074686174D3
:10059000E2809973206A7573742077697468206D9E
:1005A0007920626172652068616E64732C206272CA
:1005B00075762E204E6F74206F6E6C7920616D20E1
:1005C0004920657874656E736976656C79207472FC
:1005D00061696E656420696E20756E61726D656417
:1005E00020636F6D6261742C2062757420492068ED
:1005F0006176652061636365737320746F2074682E
:100600006520656E7469726520617273656E616CD8
:10061000206F662074686520556E69746564204B90
:10062000696E67646F6D20616E6420492077696C24
:100630006C2075736520697420746F206974732051
:1006400066756C6C20657874656E7420746F2077A5
:1006500069706520796F7572206D6973657261626A
:100660006C652061727365206F6666207468652012
:1006700066616365206F662074686520636F6E74C1
:10068000696E656E742C20796F75206C6974746C5A
:100690006520736869746562616C6C2E2049662000
:1006A0006F6E6C7920796F7520636F756C6420684C
:1006B000617665206B6E6F776E2077686174207548
:1006C0006E686F6C79207265747269627574696F97
:1006D0006E20796F7572206C6974746C6520E2808D
:1006E0009C636C6576652761E2809D20636F6D6D0C
:1006F000656E74207761732061626F757420746F0A
:10070000206272696E6720646F776E2075706F6EFD
:1007100020796F752C206D6179626520796F752065
:10072000776F756C6420686176652068656C6420FD
:10073000796F757220666F636B696E2720746F6EB8
:100740006775652E2042757420796F7520636F750B
:100750006C646EE28099742C20796F7520646964F2
:100760006EE28099742C20616E64206E6F77207920
:100770006F75E28099726520706179696E67207487
:10078000686520626C6F6F64792070726963652C94
:1007900020796F7520676F6464616D6E206172737C
:1007A00065686F6C652E20492077696C6C207368D2
:1007B000697465206675727920616C6C206F76654E
:1007C0007220796F7520616E6420796F752077696A
:1007D0006C6C2064726F776E20696E2069742E20B5
:1007E000596F75E28099726520626C6F6F64792031
:1007F000646561642C20627275762E0001043132CA
:1008000035307C0001043530307C76001A00090058
:10081000000014001A0000002B0014001A00090048
:1008200013000A00E000040015001600170007007E
:1008300002551D001B000600190005000000000005
:10084000000028452A432C442A0000571C001800A9
:100850000F000D004C0012000C00080011000B00EE
:10086000045738683700360010000E000000000002
:10087000000065642A4428452B0014001A00080073
:1008800015001700E00004001600070009000A0028
:1008900002551D001B0006001900050000000000A5
:1008A000000028452A432C442A00130012000C00A3
:1008B00018001C00340000570F000E000D000B0044
:1008C000045738683700360010001100000000009F
:1008D000000065642A442845000000000000000074
:1008E0000000000000000000000000000000000008
:1008F00000000000000000000000000000000000F8
:1009000000000000000000000000000000000000E7
:1009100000000000000000000000000000000000D7
:1009200000000000000000000000000000000000C7
:1009300000000000000000002B040E574A00520087
:100940004D0049004C000D57500051004F00280049
:10095000390011570A57095708571057000000006F
:10096000000029000100AE004C0006570157250287
:100970002402230201002202210220021F021E0281
:1009800001000100035702570557075700000000F8
:1009900000000100010001002900F700F500F0004F
:1009A000F400F9002A00F800F200F100F300FA0068
:1009B000115D0D5D0E5DF600FB00FC000000000007
:1009C00000000C572B0001000100450044004300CB
:1009D000420001000100410040003F003E00F400E1
:1009E00001003D003C003B003A00460000000000D2
:1009F0000000010001000100005CC25CC35C01005A
:100A000001000100095DC55CC95C01000100010035
:100A1000085DC75CCA5C4604160A460C000000006C
:100A20000000010001000100B2005600570026003E
:100A3000250024000100540055002300220021005D
:100A400001000100630020001F001E0000000000E4
:100A5000000001002700010000000000000000006D
:100A60002A2B280000000000000000000000000009
:100A700000000029000000002C1E34202122243414
:100A80002627252E362D3738271E1F2021222324E6
:100A900025263333362E37381F0405060708090A82
:100AA0000B0C0D0E0F101112131415161718191A1E
:100AB0001B1C1D2F3130232D350405060708090A9C
:100AC0000B0C0D0E0F101112131415161718191AFE
:100AD0001B1C1D2F3130354C0000000000000000B1
:100AE0000000000000000000000000007E0F00D4A5
:100AF000FFFFFFC7000000780001010101010101B3
:100B000001010202020202020202020303030303C2
:100B10000303030404040404040405050505050691
:100B2000060606060707070707080808080909094F
:100B3000090A0A0A0B0B0B0C0C0C0D0D0D0E0E0EF8
:100B40000F0F0F1010111111121213131414151589
:100B500016161717181819191A1A1B1B1C1D1D1EFB
:100B60001E1F20202122222324242526262728294F
:100B7000292A2B2C2D2D2E2F30313232333435367D
:100B80003738393A3B3C3D3E3F404142434445467D
:100B90004748494A4C4D4E4F505153545556585959
:100BA0005A5B5D5E5F616264656668696B6C6D6F00
:100BB0007072737577787A7B7D7E80828385878873
:100BC0008A8C8E8F91939596989A9C9EA0A2A3A5AD
:100BD000A7A9ABADAFB1B3B5B7BABCBEC0C2C4C6AE
:100BE000C9CBCDCFD1D4D6D8DBDDDFE2E4E7E9EB6A
:100BF000EEF0F3F5F8FAFDFF0403300000001803EF
:100C000043006F0072006E006500200062007900F2
:100C100020004E0052000000100366006F006F00BD
:100C20007300740061006E000000040309040902EF
:100C30003B00020100A0FA090400000103010100C9
:100C40000921110100012240000705810308000A63
:100C50000904010001030000000921110100012223
:100C600081000705820320000A1201100100000024
:100C700008EDFE603001000102030105010902A137
:100C80000185020901A100050919012905150025A1
:100C90000195057501810295017503810105010921
:100CA0003009311581257F950275088106093815AF
:100CB00081257F950175088106050C0A380215818A
:100CC000257F950175088106C0C005010980A10135
:100CD000850319012AB700150126B7009501751083
:100CE0008100C0050C0901A101850419012AA00297
:100CF000150126A002950175108100C005010906A5
:100D0000A101050719E029E71500250195087501DE
:100D100081029501750881010507190029FF150059
:100D200026FF00950675088100050819012905951B
:100D30000575019102950175039101C011241FBE33
:100D4000CFEFDAE0DEBFCDBF04B603FE27C080914F
:100D5000B9069091BA06A091BB06B091BC06873047
:100D6000904BA740B04BD1F41092B9061092BA063E
:100D70001092BB061092BC0614BE84B7877F84BF56
:100D80000FB6F894A8958091600088618093600008
:100D9000109260000FBEE0E0F8E3099515E0A0E0D6
:100DA000B1E0EAE2F8E602C005900D92A631B10783
:100DB000D9F726E0A6E1B5E001C01D92A93BB20734
:100DC000E1F70E94232E0C9413340C940000CF936F
:100DD000DF93ACE9B4E040EA54E061E070E08D916B
:100DE000E82FE295EF70F0E021A18F70EB0102C0D7
:100DF000CC0FDD1F8A95E2F7CE019C2F90959223B0
:100E000091A392A1892B82A34A175B0741F7DF9137
:100E1000CF91089508950C940A07209A559A289A1C
:100E20005D9A08955D9808955D9A089528980895AB
:100E3000289A08950E94C4080E94E706A6E9B4E033
:100E400041E050E08D91E82FE295EF70F0E021A1B4
:100E50008F70BA0102C0660F771F8A95E2F7CB0147
:100E6000962F9095922391A392A1892B82A374E04F
:100E7000AC39B70739F70E940D07EEE1F5E0A6E1BE
:100E8000B5E011921D9285E0E632F807D1F70E9495
:100E9000A508809326050C943C0C9F92AF92BF92BC
:100EA000CF92DF92EF92FF920F931F93CF93DF9336
:100EB00080910101811103C0C4E0D0E002C0C0E014
:100EC000D0E0AE014A5E5A4F7A018CE9C82E84E028
:100ED000D82E8A01AA24A394B12C25E0922EF0EA00
:100EE000CF16F4E0DF0609F44AC0F60181916F01E4
:100EF000E82FE295EF70F0E021A18F70A50102C00C
:100F0000440F551F8A95E2F7CA01922F982B91A39F
:100F100092A18095892382A350EA5A95F1F7E6E9D8
:100F2000F4E020E040E050E03191A32FA295AF70B3
:100F3000B0E090968C9190E03F7002C095958795B7
:100F40003A95E2F780FD07C0C501042E01C0880F65
:100F50000A94EAF702C080E090E0282B4F5F5F4FD1
:100F60004630510509F7F8018081821719F0208376
:100F7000909200010E94E7060F5F1F4FB0CF809153
:100F800000018823B1F0815080930001811103C0DA
:100F9000C25EDA4F07C08FE99FE00197F1F700C00A
:100FA000000007C0F70191917F0199938F5F843012
:100FB000C9F781E0DF91CF911F910F91FF90EF90E2
:100FC000DF90CF90BF90AF909F900895CF93DF9325
:100FD00020910101211103C0C0E0D0E002C0C4E0B3
:100FE000D0E00E94DF08009729F00297B1F40E9438
:100FF000160713C00E941807C25EDA4F80913205AF
:1010000090913305A0913405B0913505888399837B
:10101000AA83BB8380E090E002C081E090E0DF9192
:10102000CF9108950E944D0780910101811103C065
:10103000E4E0F0E002C0E0E0F0E0E25EFA4F20E041
:1010400030E080E0D901AE5CBA4F4C9191914913E8
:1010500081E09C932F5F3F4F2430310599F79091A9
:101060002B05890F80932B050895CF93DF938091F3
:101070002605882309F442C00E944D078091010192
:10108000811103C0C4E0D0E002C0C0E0D0E0C25E85
:10109000DA4F44E050E0BE018EE295E00E94B433A6
:1010A000488159816A817B8140932E0550932F0599
:1010B00060933005709331050E94E607892BC9F0D3
:1010C0000E941207809127058F5F80932705863045
:1010D00078F180910101811103C0E0E0F0E002C0ED
:1010E000E4E0F0E0E25EFA4F108211821282138295
:1010F0001FC00E941407109227051AC00E941208F0
:1011000080910101811103C080E090E002C084E081
:1011100090E0FC01E25EFA4F40912E0550912F05C0
:1011200060913005709131054083518362837383F0
:101130000E94480C81E0DF91CF910895E82FF0E004
:10114000E25EFA4F8081089508958091280581110B
:1011500012C08091D80080618093D8008AE18A957E
:10116000F1F700C08091D90080FD02C082E001C08B
:1011700081E08093280581E090912805913009F065
:1011800080E008950C94A5080E94C2088093010194
:101190000E94A508882319F00E94D30802C00E946B
:1011A000D9087894089563E070E082E091E00C94AF
:1011B000101A63E070E082E091E00C94191A0F932A
:1011C0001F93CF93DF938C0190911B0180911A01A3
:1011D000981761F082E090E00E94F21AEC01892BEE
:1011E00039F480911A0180931B0102C0C0E0D0E065
:1011F000012B49F48091290590912A05892B19F436
:1012000080E090E002C081E090E00E94F21A892B19
:1012100049F480912B0580931A0110922A051092AF
:10122000290506C081E090E090932A058093290566
:10123000CE01DF91CF911F910F910895CF93DF934E
:10124000EC018881813029F0823039F48BE491E01F
:1012500002C08EE491E00E94390BCE01DF91CF9164
:101260000C942716CF93DF93EC018881823039F0FC
:10127000833041F0813051F48AE191E005C087E18B
:1012800093E002C087E191E00E94390BCE01DF912B
:10129000CF910C942716CF93DF93EC018881823095
:1012A00039F0833041F0813051F486E091E005C09F
:1012B00089E191E002C08BE191E00E94390BCE01FF
:1012C000DF91CF910C942716CF93DF93EC018881A7
:1012D000823039F0833041F0813071F48DE492E056
:1012E00005C08DE493E002C084E091E00E94390BD8
:1012F00086E091E00E94390BCE01DF91CF910C94F2
:101300002716CF93DF93EC018881823039F0833048
:1013100041F0813051F48EE490E005C08DE490E01E
:1013200002C08DE491E00E94390BCE01DF91CF9194
:101330000C942716CF93DF93EC018881823039F02B
:10134000833041F0813051F48BE490E005C08AE4B1
:1013500090E002C08AE491E00E94390BCE01DF9157
:10136000CF910C942716CF93DF93EC0188818230C4
:1013700039F0833041F0813051F48AEA90E005C0C1
:1013800089EA90E002C088EA90E00E94390BCE0121
:10139000DF91CF910C942716CF93DF93EC018881D6
:1013A000823069F028F4813089F48EEA90E00CC034
:1013B000833041F0843051F48FEA90E005C08BEA2D
:1013C00090E002C08CEA90E00E94390BCE01DF91E0
:1013D000CF910C942716CF93DF93EC018881823054
:1013E00081F485EF90E00E94390B84E098E00E9440
:1013F000390C8CEF97E00E94390C88E290E00E9453
:10140000390BCE01DF91CF910C94271608958823D4
:1014100019F0813031F00895662349F089E290E0B7
:1014200004C0662321F08BE290E00C94390B089500
:10143000FC018081823069F08330A1F08130D9F4E1
:10144000818581111BC082858823C1F082E090E0F4
:1014500008958185811115C08285882391F084E0EB
:1014600090E00895818581110FC08285882361F005
:1014700086E090E0089580E090E0089581E090E0BB
:10148000089583E090E0089585E090E008950E943B
:10149000180A8330910579F034F48130910549F0D0
:1014A000029739F008958430910529F0059729F0C5
:1014B00008958AEA03C089EA01C088EA0C94C31C33
:1014C0000E94180A8330910579F034F48130910537
:1014D00049F0029739F008958430910529F0059775
:1014E00029F008958AEA03C089EA01C088EA0C94C9
:1014F000191DCF93DF93EC010E94B627BE0180E057
:1015000090E0DF91CF910C948924CF93FB018D3033
:101510002DE5920701F140F488302DE5920791F016
:1015200089309D4549F037C08E302DE59207C9F0CE
:1015300081319D4541F12FC0C281CC2369F182E008
:1015400090E005C0C281CC2339F181E090E00E9497
:10155000790AC0E021C0C281CC23E9F088EE91E095
:1015600017C0C281CC23B9F081ED91E00E94390C03
:1015700088EA91E00E94390C84E991E00E94390CDC
:1015800082E491E005C0C281CC2329F084E391E09C
:101590000E94390C01C0C1E08C2FCF9108950C94AA
:1015A000850A80910101811109C082EDE1ECF3E02F
:1015B000A2EDB2E001900D928A95E1F70C94060A33
:1015C0009C013A9521153F4138F5DC01AA27B270FC
:1015D000AC01442754709C012227387094FF0FC03F
:1015E00090FF02C080E101C080E0AB2B09F0806277
:1015F000452B09F08064232B69F080680BC0892F8C
:101600008170AB2B09F08260452B09F08460232B9D
:1016100009F08860FB0109940895CF93DF93EC01F2
:10162000805E9109089710F0209719F460E67DE13B
:1016300002C06AE170E2CE010E94E00A8C2FDF91C5
:10164000CF910C94C31CCF93DF93EC010E94191D22
:10165000CE01805E9109089710F0209719F467E693
:101660007DE102C061E270E2CE01DF91CF910C9486
:10167000E00ACF93DF93EC010E940D0BCE01DF91C6
:10168000CF910C94230B81E008951F93CF93DF93A8
:1016900000D000D01F92CDB7DEB749835A836B8349
:1016A0002091690589819A81211112C0662349F030
:1016B0000E94E025182F682F89819A810E94872532
:1016C00003C00E94B325182F69817A81812F04C03D
:1016D0000E94E02569817A810F900F900F900F9002
:1016E0000F90DF91CF911F910C94D30CFC0140819E
:1016F00051816281738184810C94450BFF920F9319
:101700001F93CF93DF93E82FF0E0E85AF54FF49062
:10171000C82FC695C695C695D0E0FE01E851F54F95
:101720000491877010E0082E02C0159507950A9461
:10173000E2F701701127FE01E852F54FC491D0E0A5
:1017400002C0D595C7958A95E2F7C170DD270115CE
:10175000110519F081EE0E94C31C209719F086EE46
:101760000E94C31C8F2D0E944D1DCD2B19F086EEBB
:101770000E94191D012B41F081EEDF91CF911F9145
:101780000F91FF900C94191DDF91CF911F910F9134
:10179000FF900895EF92FF920F931F93CF93DF93E3
:1017A0008C01F62E8AE0E82EF8018491882309F452
:1017B00059C0813009F044C0E8012196FE018491AE
:1017C000813041F42196FE011491812F0E94C31CA7
:1017D000812F0FC0823039F4E8012296FE018491F6
:1017E0000E94C31C30C0833039F4E8012296FE0108
:1017F00084910E94191D27C0843029F5E8012296A2
:10180000FE01249180E090E030E0205331092A303D
:10181000310560F4E89EA001E99E500D1124C90134
:10182000840F951F2196FE012491EECF009759F069
:10183000EFE9FFE03197F1F700C000000197F6CF24
:101840000E947E0BE8018E010F5F1F4F8F2D8823B2
:1018500009F4AACFEFE9FFE03197F1F700C00000EB
:101860008150F5CFDF91CF911F910F91FF90EF90B5
:10187000089560E00C94CA0B0E94CC290E94A32713
:10188000811102C00E9448280E94B4140C94D10A0D
:101890000E9411170E94FD0E0E949E130C940B07CC
:1018A00008950C94500C81E008950C94530CCF9340
:1018B000C82F0E94510C8C2F0E94550CCF91089577
:1018C00008950E9442200E94600C2FEF84E39CE068
:1018D000215080409040E1F700C0000087E797E783
:1018E00090930108809300080C94B9290F931F93DB
:1018F000CF93DF93EC010E94760B8C01BE010E9416
:101900006E16BE01C8010E949513882309F441C0D8
:10191000BE01C8010E94CF0A8823D9F1BE01C801C7
:101920000E94B5168823A9F1BE01C8010E94290FA3
:10193000882379F1BE01C8010E940D18882349F15E
:10194000BE01C8010E944E18882319F1BE01C801CA
:101950000E9479198823E9F0BE01C8010E9481150F
:101960008823B9F08A81882369F001158CE518076E
:1019700031F00E3D1C4531F40E9448280AC00E94F7
:10198000610C07C0CE01DF91CF911F910F910C9494
:10199000430B80E0DF91CF911F910F91089580E07C
:1019A00090E00895089520E3829FC0011124FC0176
:1019B00026E0729FE00DF11D1124E60FF11DEE0FE0
:1019C000FF1FE85EF74F859194910895880F991F46
:1019D000FC01E850F54F859194910895CF93DF93E2
:1019E0000E94D30C0E94060EEC018115904508F070
:1019F00041C0C11580E4D80708F0D1C0C83ED10568
:101A000010F5C03ED10508F0FDC0C83AD10578F404
:101A1000C53AD10508F0A2C0C130D10509F4F2C021
:101A200008F4EEC0C430D10508F0ECC0E9C0CF3BEB
:101A3000D10508F49BC0C03CD10508F4E1C0CE013B
:101A4000805C91099EC0C11590E2D90758F4C11578
:101A500021E0D20708F0D6C0C03FD10508F4D0C0BD
:101A6000D065D0C0C11580E3D80708F08EC0CE0184
:101A70009F7087C0C11595E5D90708F043C0C1150F
:101A800024E5D20708F0A2C0C11582E5D80708F501
:101A9000C11591E5D90708F085C0CE0174E096958F
:101AA00087957A95E1F783709C2F937021E030E061
:101AB00002C0220F331F9A95E2F73C68382BCF7093
:101AC000C695C69580E2C89FE0011124C22BD32B96
:101AD00099C09E01237033278C2F86958695C1155A
:101AE000D34508F064C0C1E0D0E002C0CC0FDD1FD8
:101AF0002A95E2F720E2829FC0011124C82BD92B3E
:101B0000DC6880C0C11529E5D207A0F4C11588E5BD
:101B1000D80708F060C0C11596E5D90708F070C075
:101B20008C2F0E949A0E8F71C82FD0E0DC2FCC270B
:101B3000D06268C0C1152AE5D20708F451C0CE01B1
:101B400090568115904208F05BC08D2F8F710E94D6
:101B50009A0EDD27D0628F71D82B54C0C55AD0E0C1
:101B6000CE52DB4FC881D0E0D0644CC0C85AD0E020
:101B7000CC0FDD1FCC55DB4F0990D881C02DD4642C
:101B800041C00E94E60CEC013DC0CE019927D3FF75
:101B900003C0EC01D86C36C0EC01D06C33C0DF70F0
:101BA000D06A30C0DC2FCC27C16FD06A2BC0C1E017
:101BB000D0E002C0CC0FDD1F2A95E2F720E2829F21
:101BC000C0011124C82BD92BDA681CC0DC2FCC270C
:101BD000C46FD06A17C0DC2FCC27C06FD06A12C088
:101BE0008C2F8F700E949A0E94E0D695C7959A9587
:101BF000E1F7CF70D0E0DC2FCC27D069C82B02C032
:101C0000C0E0D0E0CE01DF91CF91089582389105F8
:101C100069F1B0F48133910509F46DC048F489325B
:101C2000910509F463C08A32910509F469C00895E9
:101C30008533910509F455C089339105B9F00895AC
:101C4000833E910569F138F4803E9105B1F0823E02
:101C5000910509F10895863E9105A9F1873E910508
:101C6000B9F1843E910509F064C023C02091AA0611
:101C700020FD4FC021FD4DC008958091AA0680FD32
:101C800044C08091AB0680FF44C08091AA0684FDC9
:101C900042C083EE4DC08091AA0682FF38C0F5CFC6
:101CA0008091AA0682FD33C08091AB0680FD31C0D1
:101CB000ECCF8091AB0681FF32C08091AA0684FDF3
:101CC0002AC087EE35C08091AA0683FF26C0F5CFD3
:101CD0008091AA0683FD21C08091AB0681FD1FC0C3
:101CE000ECCF8091AA0685FD1CC01DC08091AA067C
:101CF00085FD19C016C08091AA0686FD16C017C0C2
:101D00008091AA0686FD13C010C089E311C082EE3F
:101D10000FC080EE0DC080E00BC086EE09C084EEDF
:101D200007C089E205C085E303C08AE201C081E300
:101D300090E008959091AA0692FF0DC0282F287177
:101D4000283019F4877F846006C0282F247124303E
:101D500011F48B7F886093FF0DC0282F28712831E4
:101D600019F4877E846106C0282F2471243111F470
:101D70008B7E88612091AB0620FF0DC0382F387113
:101D8000383019F4877F816006C0382F31713130C7
:101D900011F48E7F886021FF0DC0282F2871283113
:101DA00019F4877E816106C0282F2171213111F439
:101DB0008E7E886194FD877E0895CF93909146052D
:101DC0009923C9F0882311F0C0E003C010924605A2
:101DD00012C080914605C817C8F7EC2FF0E0EE0F4F
:101DE000FF1FEA5CFA4F808191810E940D0B0E94D7
:101DF0001227CF5FEECFCF9108958091A40388235F
:101E000099F080914705882379F080914A05909157
:101E10004B05009749F00E943D294A9728F01092FF
:101E2000470581E00C94DD0E08951092470510924D
:101E3000A40310924B0510924A0581E00C94DD0E2C
:101E40008091A40381110C94150F81E08093A40369
:101E500008955F926F927F928F929F92AF92BF92FE
:101E6000CF92DF92EF92FF920F931F93CF93DF9366
:101E70008C017B0110924805873F2CE5920741F4C5
:101E8000FB01C281CC23C9F081E08093A4030AC185
:101E9000883FFCE59F0739F4FB01C281CC2369F040
:101EA0000E94150FFFC0893F9C4539F4FB01C28198
:101EB000CC2319F00E94200FF5C08091A403882341
:101EC00009F4EFC010924905AA24A394B12C95E01F
:101ED000992EC1E0D0E08824839480914905823016
:101EE00008F0A1C0C82ED12C9C9CF0019D9CF00D47
:101EF0001124E853FD4F4081518177247A9490E07A
:101F0000FA01E90FF11DE90FF11D25913491021736
:101F1000130709F4792E232B11F09F5FF1CFFFEF08
:101F20007F1202C0612C66C050904705F7016280A5
:101F3000662069F19C9CF0019D9CF00D1124E853F2
:101F4000FD4F9E0101C0220F7A94EAF73481232BC2
:101F50002483552039F3AE0102C0440F551F9A95D2
:101F6000E2F74150510930E04217530709F042C0EF
:101F7000228133812115310521F0C9010E940D0B09
:101F800003C061E00E94070A8092480533C09E01A9
:101F900002C0220F331F9A95E2F7215031099C9C11
:101FA000F0019D9CF00D1124E853FD4F448150E059
:101FB0002417350769F4228133812115310521F079
:101FC000C9010E94230B05C060E00E94070A01C0FE
:101FD000512C9C9CF0019D9CF00D1124E853FD4F69
:101FE000CE0101C0880F7A94EAF780959481892305
:101FF0008483652CB628AA2069F09C9CF0019D9CE6
:10200000F00D1124E853FD4F91E08481811190E09F
:10201000892F01C080E08170A82E809149058F5FD3
:10202000809349055ACF80914805882351F00E943A
:10203000252990934B0580934A0580E00E94DD0E90
:102040002CC0B1100DC081E00E94DD0EAA2029F144
:1020500010924B0510924A0581E0809347051DC000
:10206000F70182818823C9F0809147058823A9F070
:102070000E94252990934B0580934A05E0914605DF
:10208000E83058F481E08E0F80934605F0E0EE0FC3
:10209000FF1FEA5CFA4F1183008381E0CB2DC82734
:1020A00001C0C1E08C2FDF91CF911F910F91FF9064
:1020B000EF90DF90CF90BF90AF909F908F907F90E8
:1020C0006F905F900895EF92FF920F931F93CF93BD
:1020D000DF93F62E472FE82FF0E0711106C0E8508D
:1020E000F54F6491762F862F72C0272F30E0E8508D
:1020F000F54FE4910E2F10E056E0659FC0011124CA
:10210000CFEFD0E0BE010E9486335BEA5603C001E8
:10211000579F900D11248F0D911D8F0D911D982F9C
:10212000990F890F7E01E21AF30AE09ED001E19E29
:10213000B00DF09EB00D1124489FA0011124452F31
:1021400055277E01E41AF50AE09EA001E19E500D9C
:10215000F09E500D11247E01E81AF108E29EC001A4
:10216000E39E900DF29E900D1124892F9927C81B94
:10217000D90BC09FC001C19F900DD09F900D11241D
:102180006230710591F048F461157105E1F061303C
:102190007105A9F48B2F752F19C06430710561F09A
:1021A00038F06630710579F00AC0892F7B2F0EC098
:1021B0008E2F7B2FE52F0AC08E2F792F02C0852FFF
:1021C0007E2FEB2F03C08B2F7E2FE92F6E2FDF91F9
:1021D000CF911F910F91FF90EF90089520E030E094
:1021E000869F212D969F200D311D1124C901089530
:1021F000482F982F46FD9095E92FEF739F7046FD6D
:102200009F5FE295EF70EE0FF0E0EB52FB4F218104
:10221000299F802D212D112482958F702295207F5A
:10222000822B3081982F930F892F47FD81958058FD
:102230000895622F0895A22F50E0FA01EE0FFF1FBC
:10224000EE52FD4F91A9905297FD9195440F551F65
:10225000FA01EE5FFC4F3081232F30E02A1B310959
:10226000290F311D97FD3A95620F08950F931F9323
:10227000522F10E0F801EE0FFF1FEE52FD4FE1A9C3
:10228000F0E0B097EE0FFF1F9F015203D001539F64
:10229000B00D1124000F111FF801EE5FFC4F0081FB
:1022A00010E000571109000F111F40039001419FDA
:1022B000300D11242A0F3B1F37FF02C021583F4F1A
:1022C000220F232F221F330B620F1F910F910895AE
:1022D00045E050E06CE170E085EF95E00C94C1338F
:1022E00045E050E06CE170E085EF95E00C94DF3361
:1022F000E5EFF5E085E0808380919304909194046C
:10230000A091950481839283A3838FE784830C94A7
:102310007011E091E304F091E4040994E091DF048A
:10232000F091E0040994BF92CF92DF92EF92FF9276
:102330000F931F93CF93DF938C017B01FC01C0812E
:102340008BE0C89FC02D1124DBE0DC0FD73308F0F1
:10235000D6E36091F905669566958091FA059091AE
:10236000FB050E94EE10B82ECD17F0F4CC2ED12C28
:10237000F601E259FC4F9081F8018181892391F0A7
:102380006091F6057091F7058091F8052B2D4C2F83
:10239000F70109950E946310462F282F672FC60169
:1023A0000E948E11CF5FE0CF81E0D63308F080E04D
:1023B000DF91CF911F910F91FF90EF90DF90CF9021
:1023C000BF90089569E171E10C9493116BE171E1A3
:1023D0000C9493117F928F929F92AF92BF92CF9263
:1023E000DF92EF92FF920F931F93CF93DF936C01D5
:1023F0005B01FC01C0818BE0C89FC02D1124DBE094
:10240000DC0FD73308F0D6E36091F9056695669541
:102410008091FA059091FB050E94EE10182F80E440
:10242000810F0E94F81090E8F92EF80E812F0E947B
:10243000F81020E8722E780ECD1700F58C2E912C16
:10244000F401E259FC4F9081F60181818923A1F0CA
:102450006091F6057091F7058091F805E12E0C2F3B
:10246000272D4F2DF50109950E946310462F282F27
:10247000672FC4010E948E11CF5FDECF81E0D6337B
:1024800008F080E0DF91CF911F910F91FF90EF90C6
:10249000DF90CF90BF90AF909F908F907F900895E6
:1024A00066E371E10C94EA11DF92EF92FF920F93D1
:1024B0001F93CF93DF938C01DC018C91CBE08C9F39
:1024C000C02D1124DBE0DC0FD73308F0D6E3609198
:1024D000F6057091F7058091F8050E946310F62EBD
:1024E000E72ED82ECD1798F4EC2FF0E0DF01A2599B
:1024F000BC4F8C91D80111969C91982331F02D2DD1
:102500004F2D6E2DCF010E948E11CF5FEBCF81E05A
:10251000D63308F080E0DF91CF911F910F91FF90AB
:10252000EF90DF900895BF92CF92DF92EF92FF92EB
:102530000F931F93CF93DF936C01FC01C0818BE05D
:10254000C89FC02D1124DBE0DC0FD73308F0D6E3A1
:102550000091F705B090F8052091F90510E4129F5D
:10256000112D1124CD1718F5EC2EF12CF701E2599D
:10257000FC4F9081F60181818923B9F0F701EE0FBC
:10258000FF1FEE52FD4F81A982958F706091F60575
:10259000819F600D1124702F8B2D0E946310462F98
:1025A000282F672FC7010E948E11CF5FDBCF81E0FC
:1025B000D63308F080E0DF91CF911F910F91FF900B
:1025C000EF90DF90CF90BF900895BF92CF92DF92AF
:1025D000EF92FF920F931F93CF93DF937C01FC0147
:1025E000C0818BE0C89FC02D1124DBE0DC0FD73306
:1025F00008F0D6E3C090F705B090F8052091F905F2
:1026000030E4D32E3D2D329F312D1124D32ECD1702
:1026100038F50C2F10E0F801E259FC4F9081F701DA
:1026200081818923D9F0F801EE0FFF1FEE5FFC4F87
:102630006081D69EB001112495E0759567959A95B5
:10264000E1F78091F605680F7C2D8B2D0E946310B9
:10265000462F282F672FC8010E948E11CF5FD7CF3A
:1026600081E0D63308F080E0DF91CF911F910F9188
:10267000FF90EF90DF90CF90BF900895DF92EF92A0
:10268000FF920F931F93CF93DF938C01DC01CC91CA
:102690008BE0C89FC02D1124DBE0DC0FD73308F09E
:1026A000D6E3E090F605F090F705D090F80560913C
:1026B000F9056695669566958091FA059091FB05FA
:1026C0000E94EE100E94F810805887FD8195880FB7
:1026D000282F3D2D239F212D1124822FB7010E94E9
:1026E0006310F62EE72ED82ECD1798F4EC2FF0E0DD
:1026F000DF01A259BC4F8C91D80111969C9198236F
:1027000031F02D2D4F2D6E2DCF010E948E11CF5FF8
:10271000EBCF81E0D63308F080E0DF91CF911F91BD
:102720000F91FF90EF90DF90089581E00895089554
:102730000C9497130E9498130C949713CF92DF92E6
:10274000EF92FF920F931F93CF93DF9360914C050D
:1027500070914D0580914E0590914F050E9467291B
:102760006B017C010E9431298B019C0160934C0517
:1027700070934D0580934E0590934F054091FE0553
:102780005091FF0560910006709101064F3F8FEF59
:10279000580768077807F9F0D701C601AA27BB27B1
:1027A0006C017D01C094D094E094F094C416D506D9
:1027B000E606F70620F48FEF9FEFDC0104C0840FDC
:1027C000951FA61FB71F8093FE059093FF05A0934A
:1027D0000006B0930106F0905005F11008C0C091BA
:1027E000F5058C2F837019F0C695C69501C0C0E021
:1027F0008091A5038130A1F038F0823009F481C0C6
:10280000833009F48BC09BC01092A6030093FA0595
:102810001093FB052093FC053093FD0581E07BC000
:102820008091A903C8130DC02091F505237030E0F5
:102830004091AA0350E081E02417350719F480E0A5
:1028400001C081E081708093A8034C2F50E0483094
:10285000510508F044C0FA01EA5AFF4F0C94AE3318
:102860008823E9F18091A603DBE08D9FD02D112410
:102870001BE01D0F173308F016E3D11748F420E0D2
:1028800040E060E08D2F90E00E948E11DF5FF5CF79
:1028900081E0163328F123C086EA93E00E945412A7
:1028A0001FC086EA93E00E9493121AC086EA93E062
:1028B0000E94E51215C086EA93E00E943E1310C004
:1028C00086EA93E00E94E2110BC086EA93E00E9440
:1028D000E61106C086EA93E00E94501201C080E033
:1028E0009091A6039F5F9093A603811128C082E078
:1028F0008093A5038091A803811121C0CC2351F0BE
:102900001EC0C093A9038091F50583708093AA032C
:102910000E94891183E08093A50311C06091FA059C
:102920007091FB058091FC059091FD050E9467293F
:10293000603171058105910510F01092A503F11029
:102940000AC0DF91CF911F910F91FF90EF90DF9020
:10295000CF900C949A13DF91CF911F910F91FF901C
:10296000EF90DF90CF900895E091DD04F091DE04C8
:1029700009950E94A327811104C00E9448280E9443
:1029800078110E9468118091F5058C7F11F40C94E8
:1029900078110895E5EFF5E0908181E08927808343
:1029A0001092A5030C9470119091F505892F8695CE
:1029B00086958F5F8F739370883020F4880F880F0F
:1029C000892B02C0892F84608093F5051092A5039E
:1029D0000C9470119091F505892F86958695815CF0
:1029E0008F739370882321F0880F880F892B02C082
:1029F000892F8C618093F5051092A5030C947011BA
:102A0000E5EFF5E08181885F81830C947011E5EF3B
:102A1000F5E08181885081830C947011E5EFF5E039
:102A2000228138E0230F08F42FEF22830C947011D9
:102A3000E5EFF5E0228138E0231B08F420E0228353
:102A40000C9470112091F80538E0230F08F42FEF53
:102A5000273918F42093F80503C086E98093F80518
:102A60000C947011E5EFF5E0238138E0231B08F4A6
:102A700020E023830C947011E5EFF5E024813AE027
:102A8000230F08F42FEF24830C947011E5EFF5E089
:102A900024813AE0231B08F420E024830C94701175
:102AA000E5EFF5E0880F880F90819370892B808384
:102AB0001092A5030C9470110895FC01EE0FFF1FF6
:102AC0008E0F9F1FFC01EE5FF94F618340832283CD
:102AD0000895E2E0F6E096E0E43AF90729F0818310
:102AE000608342833396F7CF089566E370E082E017
:102AF00096E00C949617882311F0FA0101C0FB01AF
:102B000009940F931F93CF93FB01C281CC2309F447
:102B10004AC08C010E94B2268272F801E25CFC4538
:102B2000E431F10508F042C0E25AFF4F0C94AE3395
:102B30000E94CA143AC04AEE54E164ED74E104C044
:102B400044ED54E16AEE74E10E947B152EC047E02B
:102B500055E160E075E1F8CF40E055E167E075E1EF
:102B6000F3CF48E155E16EE075E1EECF4EE055E17F
:102B700068E175E1E9CF42E355E162E275E1E4CF56
:102B800042E255E162E375E1DFCF46E455E16CE3F3
:102B900075E1DACF4CE355E166E475E1D5CF81E02C
:102BA0000E94501502C0C1E001C0C0E08C2FCF913F
:102BB0001F910F910895CF93DF93EC0181E0898BF2
:102BC0008F810E94B52688850E94C8260E94122700
:102BD000EA81FB81CE010696309729F06C897D89C8
:102BE000DF91CF910994DF91CF910895CF93DF9337
:102BF000FC012081223041F4FB01EC0182819381B0
:102C00000E940D0B81E08B87DF91CF910895FC012D
:102C10008081813021F4FB018081918105C0823067
:102C200029F4FB01828193810C940D0B0895FC0122
:102C30008081813021F4FB018081918105C0823047
:102C400029F4FB01828193810C94230B0895EF9268
:102C5000FF920F931F93CF93DF93FC0122852111E5
:102C600036C0EC01E380F480F7E5FF1A26E12E9DE3
:102C7000C0012F9D900D1124DC01A45EBE4F14965F
:102C8000ED91FC9115978E5D9E4F309729F05496EB
:102C90006D917C915597099586E18E9D80018F9D60
:102CA000100D1124045E1E4FF80187810E94BB267F
:102CB000F80180850E94CE260E941227188219866C
:102CC0001B861E821D821092520510925105DF91C3
:102CD000CF911F910F91FF90EF900895DF92EF92A7
:102CE000FF920F931F93CF93DF93FB012281222347
:102CF000A1F12091AB032F3F81F18C01CCE1D1E018
:102D0000E12CF12CDD24D3948091AB03082E000C30
:102D1000990B8E159F050CF18E818823C9F089854A
:102D20009A858017910739F4809151059091520549
:102D30000817190769F0DF861C870B8789898111BD
:102D400003C0CE010E94DB15CE0106960E94271615
:102D5000FFEFEF1AFF0A6696D7CFDF91CF911F9151
:102D60000F91FF90EF90DF900895EF92FF920F93F5
:102D70001F93CF93DF939C0137552F3F310511F0FF
:102D800008F047C04091AB03042E000C550B4217CE
:102D9000530714F42093AB03FB017C01828196E17D
:102DA000929F8001939F100D1124E801C45EDE4FB5
:102DB000888B92818E81992311F1FA86E9868F5F43
:102DC0008E830E9425299E878D870E94E8268F8307
:102DD0000E94B22688870E94C5269885892B8887FD
:102DE000E881F981C8018E5D9E4F309719F06C899A
:102DF0007D890995F0925205E09251050AC0882319
:102E000041F08989882329F0C8018E5D9E4F0E9478
:102E1000271681E0DF91CF911F910F91FF90EF90E6
:102E20000895CF92DF92EF92FF920F931F93CF936B
:102E3000DF938091AB038F3FF1F1F12C96E1E92E06
:102E40000F2D10E08091AB03082E000C990B80171A
:102E500091078CF1E09EF001E19EF00D1124E45EFB
:102E6000FE4FC288D388C114D10419F488ECC82E4F
:102E7000D12CE09EE001E19ED00D1124C45EDE4F16
:102E80008E818823B1F08D859E850E943D29C816CC
:102E9000D90678F48989811103C0CE010E94DB151F
:102EA000E09EC001E19E900D11248E5D9E4F0E9418
:102EB0002716F394C5CFDF91CF911F910F91FF900B
:102EC000EF90DF90CF9008952BB1342F30952323CE
:102ED0003BB1432B3FB7F894FC01680F791FE6170D
:102EE000F70789F0819198E04BB9000000C087FF97
:102EF0002BB9880F000000C000C000C02BB900C073
:102F00009A9591F7ECCF3FBF08952AB1242B2AB9A7
:102F10009B01220F331F620F731F0E94641787ECFF
:102F200090E00197F1F700C00000089548E00C948C
:102F300085170F931F93CF93DF93C62FD42F122F94
:102F4000FC0182818823C9F0609355050E942529E0
:102F5000909354058093530580E28C0F883008F0DD
:102F600057C0C77081E001C0880FCA95EAF7DF91AA
:102F7000CF911F910F910C94601D8091550568139E
:102F800030C080915305909154050E943D29883CA2
:102F9000910538F500E20D0FCD17B9F080E28C0FE6
:102FA000883040F4C77081E001C0880FCA95EAF705
:102FB0000E94671D083028F581E09D2F977001C0A1
:102FC000880F9A95EAF70E94601D812F0E944D1D7F
:102FD0000830F0F4D77081E001C0880FDA95EAF785
:102FE0000AC080E28C0F883098F4C77081E001C07D
:102FF000880FCA95EAF7DF91CF911F910F910C943A
:10300000671D812FDF91CF911F910F910C944D1D62
:10301000DF91CF911F910F9108959C01CB01233F28
:103020004CE53407F9F078F4283DFCE53F07B9F0AA
:10303000293D4CE5340711F1273D3C4531F526E2A9
:1030400041EE61EE1EC0253FFCE53F0799F070F0B0
:10305000263F3C45D1F427E245EE66EE12C027E25A
:1030600045EE0EC026E241EE60EE0BC027E245EED3
:1030700064EE07C026E241EE62EE03C028E241E0C2
:1030800065EE0E94991780E00895FC0182818823F3
:1030900019F010925505089581E00895CF93DF93BC
:1030A000EC01FB018281882309F41FC1C230FCE5D9
:1030B000DF0708F41BC1C6319CE5D90738F09E0133
:1030C0002A5F3C452930310508F010C10E94BB271A
:1030D0009093AB068093AA06C031ECE5DE0709F4B5
:1030E000C3C008F041C0C8308CE5D80709F49AC0C5
:1030F000F0F4C430ECE5DE0709F487C068F4C230B0
:103100008CE5D80709F477C0C330DC4509F0E3C08B
:103110008091AA06826076C0C630ECE5DE0709F42D
:103120006EC008F07BC08091AA0688606BC0CC306E
:103130008CE5D80709F485C068F4CA30ECE5DE07F1
:1031400009F474C008F079C00E9442208091AA0658
:10315000806858C0CE308CE5D80709F476C008F0F6
:103160007FC08091AA068BC0CB3FECE5DE0709F457
:103170004FC018F5C3318CE5D80709F47DC078F449
:10318000C131ECE5DE0709F473C0C231DC4509F05A
:10319000A2C00E9442208091AA068F7733C0C53119
:1031A0008CE5D80709F472C008F486C0CA3FDC4534
:1031B00009F091C08091AB063EC0CF3FFCE5DF0730
:1031C00009F45FC058F4CD3F9CE5D90709F444C029
:1031D00008F43FC08091AB0682602DC0C130FDE590
:1031E000DF0709F475C008F45DC0C230DD4509F0A1
:1031F00072C080E06EC08091AA06816003C0809199
:10320000AA0680618093AA0666C08091AA0611C0B2
:103210008091AB0682608093AB065DC08091AA0668
:103220008062F0CF8091AA068064ECCF8091AA06DC
:1032300088608460E7CF8160EECF8091AA068E7FA0
:10324000E1CF8091AA068D7FDDCF8091AA06877F8E
:10325000D9CF8091AB0618C08091AB068D7FDBCFB4
:103260008091AA068F7ECECF8091AA068F7DCACF8D
:103270008091AA068F7BC6CF8091AA06877F8B7F1D
:10328000C1CF8091AB068D7F8E7FC5CF8091AA067E
:1032900082FB222720F991E0922790FB82F990FB94
:1032A00083F9B0CF8091AB06982F909591708E7F67
:1032B000892B90FB81F9AFCF0E9442208091AA0612
:1032C00087FB222720F991E0922790FB87F99ACF7C
:1032D00081E00E944A288091AA069091AB060E9444
:1032E000CC270E94422080E001C081E0DF91CF9195
:1032F0000895CF93DF9386319C4571F5EB010E94D1
:10330000B226982F917119F4982F9A7A01C090E003
:103310008A812091AC033091AD03882379F081E05C
:10332000911101C080E080935605911102C069E2BD
:1033300001C065E3C9010E9491280AC08091560529
:10334000811102C069E201C065E3C9010E949328AE
:103350000E94122780E001C081E0DF91CF910895A3
:103360008EE14A9B02C08150E1F74A9BFECF08954F
:103370005A9880E28A95F1F75A9A0895FC012AE05A
:103380002A95F1F790E020E080E031E0261779F00F
:1033900040E14A95F1F7880F4A9B02C0816093276C
:1033A00000C0000040E14A95F1F72F5FEFCF20E128
:1033B0002A95F1F729B100C0000030E13A95F1F704
:1033C00022FB222720F992272081920F90830895D3
:1033D000EF92FF920F931F93CF93DF931F92CDB77E
:1033E000DEB719828C017C01E60EF11C0E151F055B
:1033F00059F00E94B01968E0CE0101960E94BE19F2
:10340000F80181938F01F2CF81E09981911180E0E1
:103410000F90DF91CF911F910F91FF90EF90089542
:10342000909359058093580560935705529A5A9A7C
:1034300008959093590580935805609357055298C5
:103440005A9AEA9AE9E6F0E080818F7C80830895B9
:10345000615091E001C0990F6A95EAF720E031E0F0
:10346000992361F0492F482319F05A9A232701C064
:103470005A9840E24A95F1F79695F2CF222311F03F
:103480005A9A01C05A9880E28A95F1F75A9808959D
:10349000FF920F931F93CF93DF93EC018C01060FE4
:1034A000111DC017D10741F0F9900E94B81968E0CA
:1034B0008F2D0E94281AF5CFDF91CF911F910F9188
:1034C000FF9008951F920F920FB60F9211240F9341
:1034D0001F932F933F934F935F936F937F938F939C
:1034E0009F93AF93BF93EF93FF93CF93DF931F927D
:1034F000CDB7DEB719820E94B01967E0CE01019600
:103500000E94BE19382F369536953695932F96958D
:103510009570232F2570920F292F237096959695DD
:103520008770920F891348C08981811145C08091AD
:103530005705831708F440C080E18A95F1F75A9A3D
:10354000529AA2E0AA95F1F700C000915805109197
:103550005905B8E03B9F000D111D11245A98F80140
:103560006581662321F0868197810E94481A0E9416
:10357000B819F0E1FA95F1F75A9852985A9A80E101
:103580008A95F1F7D80112966C911297662369F02B
:1035900013968D919C9114970E94E819D801ED9192
:1035A000FC91811105C082E004C0D801ED91FC912D
:1035B00088E080830E94B0190F90DF91CF91FF9136
:1035C000EF91BF91AF919F918F917F916F915F919B
:1035D0004F913F912F911F910F910F900FBE0F9020
:1035E0001F9018950F931F93CF93DF93209157054A
:1035F00030E0281739070CF471C09C0193E0220FCA
:10360000331F9A95E1F7C0915805D0915905C20F23
:10361000D31FF894529A5A9845E04A95F1F7000062
:10362000982F969595708570890F982F9370869531
:103630008695890F8901082B0E94B81984E08A9524
:10364000F1F700C067E0802F0E94281A40E14A95F8
:10365000F1F752985A9A4A9902C000C0FCCF87E00D
:1036600090E04A9B0EC0019751F4529A5A9AE88111
:10367000F98181E08083789481E090E031C000C0DE
:10368000F0CF6D81662381F08E819F810E94E819C1
:1036900081110AC0529A5A9AE881F98182E08083A6
:1036A000789482E090E01CC00E94B01980E28A9574
:1036B000F1F75A98529A40E14A95F1F76A816623E8
:1036C00021F08B819C810E94481A0E94B819E881E0
:1036D000F9811082789480E090E002C084E090E06C
:1036E000DF91CF911F910F91089590935F05809383
:1036F0005E050895E0915E05F0915F05309721F039
:103700000190F081E02D099480E00895E0915E053C
:10371000F0915F05309721F00280F381E02D09944C
:103720000895E0915E05F0915F05309739F022E051
:10373000DC012C930480F581E02D099408952091FB
:103740005C0530915D052817390771F090935D0590
:1037500080935C05E0915E05F0915F05309721F064
:103760000680F781E02D0994089520915A05309143
:103770005B052817390771F090935B0580935A0514
:10378000E0915E05F0915F05309721F00084F185AE
:10379000E02D0994089585B7806885BF85B7806856
:1037A00085BF089508950C94D21B0C94D31B0C94E0
:1037B000D21B0C94D21B0E94CB1B0E94D71B0C94D3
:1037C000D51B81E008950E941C290E941A070E94BF
:1037D000E0290C94D91BAF92BF92CF92DF92EF9267
:1037E000FF920F931F93CF93DF93CDB7DEB72A9746
:1037F0000FB6F894DEBF0FBECDBF0E9435080E9401
:10380000E11B811111C08FEF89838A831B820E9483
:1038100025298160782F9D838C8349815A816B8112
:103820008D810E94831C40C081E6A82E85E0B82EC1
:1038300000E010E0C02E802F0E949E08E82EF501C7
:10384000D1905F01D82631F40F5F1F4F083011056A
:1038500089F7D9CF8091DA0581FD0E94A40880E024
:10386000FF24F3949D2D9F21D1F08E83CF82EF20F2
:1038700081E009F480E088870E9425298160782F03
:103880009A8789874E815F8168858A850E94831C1B
:10389000F801EF59FA4F8081F826F08205C08F5F5A
:1038A000FF0C8630F9F6D0CF0E94722B0E947A1B53
:1038B000909160058917B1F00E947A1B8093600592
:1038C0002A960FB6F894DEBF0FBECDBFDF91CF9121
:1038D0001F910F91FF90EF90DF90CF90BF90AF902E
:1038E0000C94570C2A960FB6F894DEBF0FBECDBFCE
:1038F000DF91CF911F910F91FF90EF90DF90CF90CC
:10390000BF90AF900895CF93DF93CDB7DEB72B97DD
:103910000FB6F894DEBF0FBECDBF4F8358876987BF
:103920007A878B87DE01119686E0FD0111928A95D8
:10393000E9F785E0FE01379601900D928A95E1F74F
:103940000E948026882319F082E00E9484270E942A
:10395000532681110E94042749815A816B817C8101
:103960008D819E810E944C232B960FB6F894DEBF6A
:103970000FBECDBFDF91CF910895FC018081918171
:103980000E9422260895CF93882309F450C0C82F9F
:103990008CEF8C0F813AD0F46C2F8091AC03909116
:1039A000AD030E945B28882349F06C2F8091AC0303
:1039B0009091AD030E9493280E9412276C2F809152
:1039C000AC039091AD030E9491280CC080E28C0F53
:1039D000883058F4C77081E001C0880FCA95EAF7B3
:1039E0000E94B526CF910C941227EBE5EC0FE33043
:1039F00040F4F0E0ED5EFA4F808190E0CF910C94BE
:103A00009F1BE8E5EC0FE73150F4F0E0EE0FFF1FED
:103A1000EB51FB4F80819181CF910C94B51BC03F3E
:103A200030F08C2F0E947A2ACF910C94672BCF9183
:103A30000895882389F19CEF980F913A40F4682FFC
:103A40008091AC039091AD030E9493280DC090E249
:103A5000980F983058F4877091E001C0990F8A95BB
:103A6000EAF7892F0E94BB260C9412279BE5980F3A
:103A7000933020F480E090E00C949F1B98E5980F21
:103A8000973120F480E090E00C94B51B803F20F04B
:103A90000E94E22A0C94672B0895CF93C82F0E94AE
:103AA000C31CC93349F42FEF87EE93E021508040C7
:103AB0009040E1F700C000008C2FCF910C94191DAD
:103AC000882321F00E94B5260C941227089588239C
:103AD00021F00E94BB260C9412270895CF92DF920A
:103AE000EF92FF920F931F93CF93DF937C01062FEA
:103AF000C72FFC01D581D295DF70128111110E9470
:103B0000D5260E94AB26882379F0112369F080E244
:103B1000800F883048F082E00E9484270E94AB2604
:103B200091E0D82ED92601C0D12CCC2EC2948FE0A2
:103B3000C8228C2D90E0FC01EE58FF4F0C94AE3360
:103B40008C2F807FCF70882311F0C295C07F112306
:103B500099F0CC2309F4ECC180E2800F883010F09A
:103B6000011104C08C2F0E94B52603C08C2F0E9427
:103B7000C8260E941227DCC1802F0E94191DCC2369
:103B800009F4FCC180E2800F883010F0011104C0FC
:103B90008C2F0E94BB2603C08C2F0E94CE260E9431
:103BA0001227ECC18C2F807FCF70803211F0C2952C
:103BB000C07F002319F0013059F134C01123B1F056
:103BC000DD2381F0D13031F40E94E8268C2B0E9455
:103BD000F026D4C1D33031F40E9404278C2F0E94E8
:103BE000502724C00E94E8268C2B21C0DD2369F0D9
:103BF000D13041F40E94B2268C2309F4BFC10E9447
:103C0000592703C0D33009F4B9C10E9404271FC04B
:103C1000112321F0D43008F0B1C108C0D33008F02E
:103C2000ADC115C0112331F0D11182C18C2F0E947A
:103C3000601DA4C1DD2359F0093309F08BC1FFEFEA
:103C400027EE83E0F15020408040E1F781C18C2FC6
:103C50000E94671D93C18C2F86958695837019F0FD
:103C6000813061F08BC1112321F0802F9C2F937044
:103C700002C080E090E00E949F1B88C1112321F0C8
:103C8000802F9C2F937002C080E090E00E94B51BB3
:103C90007DC11123F9F0053F51F0063F71F0043F5B
:103CA000A9F48091A4069091A50681600BC0809133
:103CB000A4069091A506826005C08091A40690910B
:103CC000A50684609093A5068093A406802F0E9489
:103CD0007A2A1EC0053F51F0063F71F0043FA9F457
:103CE0008091A4069091A5068E7F0BC08091A406BA
:103CF0009091A5068D7F05C08091A4069091A506A0
:103D00008B7F9093A5068093A406802F0E94E22AC1
:103D10000E94672B3BC18C2F837009F045C01111A5
:103D200031C1402F429546954770440F440F602F94
:103D30006F70862F90E0A0E0B0E0042E04C0880FE2
:103D4000991FAA1FBB1F0A94D2F704FF10C00FE0EF
:103D500010E020E030E004C0000F111F221F331FCD
:103D60004A95D2F7009510952095309503C000E054
:103D700010E09801C695C695C370BC01CD01602BBB
:103D8000712B822B932BC23049F058F4C13019F0BB
:103D90000E949D24F7C00E948B24F4C00E94AF248F
:103DA000F1C00E948924EEC0112319F08C2F81707C
:103DB00001C08695882309F4E5C0402F42954695B9
:103DC0004770440F440F602F6F70862F90E0A0E083
:103DD000B0E0042E04C0880F991FAA1FBB1F0A94CD
:103DE000D2F704FF10C00FE010E020E030E004C084
:103DF000000F111F221F331F4A95D2F7009510950F
:103E00002095309503C000E010E09801C695C69556
:103E1000C370BC01CD01602B712B822B932BC23060
:103E200049F058F4C13019F00E946225ABC00E94DD
:103E30005025A8C00E947425A5C00E94C324A2C01A
:103E4000CF70112339F08C2F0E94E924802F0E941B
:103E5000601D98C0802F0E94671D8C2F0E940A252C
:103E600091C0023F01F128F4003F41F0013FA1F071
:103E70005AC0033FF9F0043F39F155C0112341F016
:103E8000D33008F07BC08C2F8F710E942F2576C015
:103E9000D43008F073C0F7CF112339F08C2F8F7115
:103EA0000E94E9246BC01123C9F38C2F8F710E94EB
:103EB0000A2564C0112329F08C2F8F710E94D4240D
:103EC0005DC00E94CF245AC01123C9F00E94502621
:103ED0000E94BB260E947C26843039F40E947B27F6
:103EE0008C2F8F710E940A256CC0D33008F069C0F6
:103EF000CF718C2F0E94E92463E08C2F0DC00E94AB
:103F000050260E94B526D33050F00E947B270E9495
:103F1000592764E08C2F8F710E94652752C081E081
:103F20000E9484274EC0112339F0DD2309F4B6CF57
:103F3000802F0E94C31C22C0DD2309F4B6CF0933B1
:103F400049F49FEFE7EEF3E09150E040F040E1F7F5
:103F500000C00000802F0E94191D10C04C2F4F7010
:103F6000602FC7010E94CF0C0E94FA230FC04C2F74
:103F70004F70602FC7010E94D20C08C088EF8C0DD3
:103F8000843020F40E947A1B0E94570CDD20D9F067
:103F90000E947C2680FD17C0F70112820E947626BF
:103FA0000E94E924C7010E94EC1F0E947626DF913F
:103FB000CF911F910F91FF90EF90DF90CF900C94D5
:103FC0000A25D12CDFCFDF91CF911F910F91FF9068
:103FD000EF90DF90CF9008950F931F93CF93DF93CF
:103FE000EC01988189812B813C81232B31F08F3F1B
:103FF00031F481E09F3F19F403C081E001C080E00B
:1040000080FD13C0CE010E94760C882371F0688178
:1040100079818A810E942D268C010E9486250E942A
:104020007724B801CE010E946E1DDF91CF911F91C0
:104030000F910895882321F00E94C8260C9412271E
:104040000895882321F00E94CE260C94122708950B
:104050000E94D5260E94E5260E9412270E94912CDC
:104060000E94672B80E090E00E949F1B80E090E020
:104070000C94B51B8091AC039091AD030E949528E0
:104080000C9428200E94C2260C943A20E92FE29535
:10409000EF704E2F50E0FA013297EE30F105B0F498
:1040A000EE57FF4F0C94AE33803F91F018F4883EEA
:1040B00068F40EC0843F51F40BC0883E48F0813F45
:1040C00029F406C093FB882780F9089580E00895BD
:1040D00081E008950E9422260E9446200895CF93F1
:1040E000DF9300D000D01F92CDB7DEB70F900F90B6
:1040F0000F900F900F90DF91CF910895CF93DF93A2
:1041000000D000D000D0CDB7DEB726960FB6F89419
:10411000DEBF0FBECDBFDF91CF9108951F93CF9328
:10412000DF93C0916A0516E080916B05C81799F07E
:10413000D0E01C9FF0011D9FF00D1124E459FA4FAF
:104140004081518162817381848195810E947E20AA
:104150002196C770E9CFDF91CF911F9108954091CB
:104160009C0550919D0560919E0570919F058091E1
:10417000A0059091A1050C947E2020916A05909154
:104180006B0556E02917A9F030E0529FF001539FCC
:10419000F00D1124E459FA4F7181761306C0708135
:1041A000781303C07281741306C02F5F3F4F2770CE
:1041B000E9CF80E0089581E00895CF938091A10533
:1041C00082958F7009F05FC080919E05882309F465
:1041D0005AC080916A05B0916B0570919C05A091C1
:1041E0009D0540919F055091A00591E07F3F09F00A
:1041F00090E0692FC6E08B1709F445C041155105C1
:1042000021F0AF3F21F020E003C021E001C0262FC4
:1042100090E020FD35C0C89FF001C99FF00D11242A
:10422000E459FA4F21812A132BC02081271328C07B
:104230002281211125C0238134812417350710F4F0
:1042400021503109241B350B283C3105C8F420913D
:10425000A1052F7020612093A10526E0289FF00181
:10426000299FF00D1124EF58FA4F80818F708061E3
:1042700080838CE995E00E94EC1FCF910C948E20F6
:1042800001968770B8CFCF9108959F92AF92BF9259
:10429000CF92DF92EF92FF920F931F93CF93DF9312
:1042A000CDB7DEB761970FB6F894DEBF0FBECDBFB6
:1042B0007C0185E0F701DE011D9601900D928A9543
:1042C000E1F7D701DC9011960C9111971296CC90E2
:1042D00030919C0540919D0580919F059091A0058E
:1042E000009731F04F3F31F421E03F3F19F403C014
:1042F00021E001C020E020FD9FC1F701A380B48030
:1043000090909E05992009F42BC12091A105A81633
:10431000B90628F0B501681B790BCB0104C0809564
:1043200090958A0D9B1D11E0883C910590F010E05E
:10433000207F09F0DBC07A2DB98AA88A4D2D502F35
:104340006C2D89890E946F208CE995E00E94EC1FFA
:104350006BC1822F807F09F091C0041315C0D31266
:1043600013C01C2DC11010C02F7020612093A10517
:104370000E94AF208CE995E00E94EC1F8091A1057E
:10438000D70115968C9375C1A114B10439F00F3F74
:1043900039F481E0BFEFDB1203C003C081E001C04C
:1043A00080E080FD03C081E08C2502C080E090E0C9
:1043B00080FF15C04C2D602F8D2D0E94BD208823BD
:1043C00071F08CE995E00E94EC1FECE9F5E086E0E5
:1043D000DF011D928A95E9F70E94AF204DC0AB28FE
:1043E00039F00F3F39F481E0BFEFDB1203C003C0A7
:1043F00081E001C080E080FD03C081E08C2502C027
:1044000080E090E0E82FE170BE2E80FF2CC04C2DA4
:10441000602F8D2D0E94BD20182F811124C0DD86B4
:104420000E878D859E850E942226292F22952F702A
:10443000223018F0243090F405C09F7059F081119B
:1044400009C017C19F7031F0D70115969C91907FDC
:1044500009F40FC1805E883008F40BC1C7010E94C7
:10446000EC1F1B2D06C11C2DCC2009F402C180912C
:10447000A10581608093A10510E0FBC0041309C071
:10448000D31207C0C11005C08091A105F701858333
:10449000A5C0DD860E878D859E850E946A208823B3
:1044A00079F1CC2069F12091A105822F82958F703E
:1044B00090E0029774F080919C0590919D059887FB
:1044C0008F831986BB86AA862C87CE0107960E9409
:1044D000EC1F86E0F701ACE9B5E001900D928A95FA
:1044E000E1F70E94DD200E94AF200DC0041769F0A3
:1044F000DD860E878D859E850E946A20811119C0F8
:10450000C7010E94EC1F11E0B4C0D312F1CFC1105B
:10451000EFCF8091A105F7018583C7010E94EC1FB1
:1045200086E0ECE9F5E0DF011D928A95E9F7192DA7
:10453000A0C0CC2029F32091A105822F82958F70F5
:1045400090E0029734F280919C0590919D059A83AA
:1045500089831B82BD82AC822E83CE010196B7CFA8
:10456000A816B90628F0F501E81BF90BCF0104C025
:10457000809590958A0D9B1D883C910558F010E020
:104580007A2DB98AA88A4D2D502F6C2D89890E94C9
:104590006F204AC01C2DCC2009F4B2CF041333C0C5
:1045A000D31231C02091A10520FD24C0822F829515
:1045B0008F70482F50E041155105E1F0D701159655
:1045C0002C9315974F30510549F08F5F982F929596
:1045D000907F822F8F70892B15968C93C7010E9434
:1045E000EC1F86E0F701ACE9B5E001900D928A95E9
:1045F000E1F73DC086E0F701ACE9B5E001900D922E
:104600008A95E1F736C0DD860E878D859E850E94EE
:104610006A2081115ECF8091A10581608093A10500
:10462000C7010E94EC1F25C0ECE9F5E086E0DF0140
:104630001D928A95E9F71BC0CC2009F461CFDD8675
:104640000E878D859E850E946A20182F882309F485
:1046500057CF86E0F701ACE9B5E001900D928A955D
:10466000E1F78CE995E00E94BD1C0E94DD200E94CC
:10467000AF20812F61960FB6F894DEBF0FBECDBF7D
:10468000DF91CF911F910F91FF90EF90DF90CF902E
:10469000BF90AF909F9008951F93CF93DF93CDB7B6
:1046A000DEB72C970FB6F894DEBF0FBECDBF4F8399
:1046B000588769877A878B879C87CE0107960E94E7
:1046C00045218823D1F09F8188852A853B85232B2E
:1046D00031F08F3F31F481E09F3F19F403C081E056
:1046E00001C080E080FD47C04F81588569857A858B
:1046F0008B859C850E947E203EC086E0FE01379619
:10470000DE01119601900D928A95E1F7FF81E8850F
:104710006A857B856115710531F0EF3F31F481E0E9
:10472000FF3F19F403C081E001C080E080FD23C099
:1047300020916B0530E0C90101968770992740915F
:104740006A0550E084179507F1F1F983EA837D83C8
:104750006C8396E0929FD001939FB00D1124A459D1
:10476000BA4FFE01319601900D929A95E1F7809330
:104770006B050E948E2016E080916A0590916B0572
:10478000891771F1189FC001112484599A4F0E9412
:104790004521882329F1E0916A051E9FF00111242B
:1047A000E459FA4F408151816281738184819581FE
:1047B0000E947E2080916A0590E00196877099277B
:1047C00080936A05D9CF0E94422010926B05109207
:1047D0006A05ECE9F5E086E0DF011D928A95E9F7CC
:1047E0002C960FB6F894DEBF0FBECDBFDF91CF91F0
:1047F0001F910895EF92FF920F931F93CF93DF9332
:104800008C01892B09F46CC0F12CEE24E394E801AF
:104810002196F8018491843740F4843008F051C027
:10482000813081F0823019F15BC0853709F444C0D2
:10483000A8F19CE7980F903708F052C08F770E943C
:10484000191D41C00E5F1F4FFE01849190E2980F29
:10485000983050F48770FE2D01C0FF0F8A95EAF75B
:104860008F2F0E94D82614C00E94C31C2DC00E5F3B
:104870001F4FFE01849190E2980F983060F487708A
:10488000FE2D01C0FF0F8A95EAF78F2F0E94DE26CA
:104890000E94122719C00E94191D16C00E5F1F4FDB
:1048A000FE01C491CC2381F08FE99FE00197F1F7DD
:1048B00000C00000C150F6CF0E5F1F4FFE01F49004
:1048C00003C00E94C31C8E018F2D882309F49FCF43
:1048D000EFE9FFE03197F1F700C000008150F5CF1C
:1048E000DF91CF911F910F91FF90EF900895089560
:1048F00008950C9478240C9479240E947B2460936E
:10490000C4057093C5058093C6059093C7050C94A4
:1049100028200C947D240F931F930091C4051091BF
:10492000C5052091C6053091C705602B712B822BE0
:10493000932B1F910F910C947D240F931F93009143
:10494000C4051091C5052091C6053091C7056023A7
:104950007123822393231F910F910C947D240F9335
:104960001F930091C4051091C5052091C605309193
:10497000C70560277127822793271F910F910C94F9
:104980007D240C9478240E94C1246093C005709308
:10499000C1058093C2059093C3050C94282060E064
:1049A00070E0CB010C94C3240F931F9341E050E0BF
:1049B00060E070E08A019B0104C0000F111F221FFC
:1049C000331F8A95D2F7C901B8011F910F910C943A
:1049D000C3240F931F9341E050E060E070E004C0F7
:1049E000440F551F661F771F8A95D2F78091C00527
:1049F0009091C105A091C205B091C3058A019B01A8
:104A0000082B192B2A2B3B2BC901B8011F910F91A1
:104A10000C94C3240F931F9341E050E060E070E0DA
:104A200004C0440F551F661F771F8A95D2F7409523
:104A30005095609570958091C0059091C105A091A9
:104A4000C205B091C3058A019B01082319232A23BB
:104A50003B23C901B8011F910F910C94C3240F93FC
:104A60001F9341E050E060E070E004C0440F551F28
:104A7000661F771F8A95D2F78091C0059091C10576
:104A8000A091C205B091C3058A019B01082719278F
:104A90002A273B27C901B8011F910F910C94C32409
:104AA0000F931F930091C0051091C1052091C2057D
:104AB0003091C305602B712B822B932B1F910F918B
:104AC0000C94C3240F931F930091C0051091C1054E
:104AD0002091C2053091C305602371238223932363
:104AE0001F910F910C94C3240F931F930091C00545
:104AF0001091C1052091C2053091C305602771272F
:104B0000822793271F910F910C94C3240895292F76
:104B1000220F920F990F890FE82FE695E695E695FB
:104B2000877051E001C0550F8A95EAF785E0E89F4C
:104B3000F0011124EE55FA4F20E030E070E04081A2
:104B4000CB01022E02C0969587950A94E2F78170F8
:104B5000819584278523842781932F5F3F4F2530BC
:104B6000310569F70895292F220F920F990F890FA8
:104B7000682F669566956695982F977085E0689F73
:104B8000B001112440E050E080E0FB01E40FF51F8C
:104B9000EE55FA4F208130E0092E02C03695279558
:104BA0000A94E2F721703327042E01C0220F0A94E1
:104BB000EAF7822B4F5F5F4F4530510531F708957B
:104BC000BF92CF92DF92EF92FF920F931F93CF93FA
:104BD000DF938C01C090C005D090C105E090C20564
:104BE000F090C3058091C4059091C505A091C605BC
:104BF000B091C705C82AD92AEA2AFB2ACFE1D0E01A
:104C0000D701C6010C2E04C0B695A7959795879538
:104C10000A94D2F780FD04C0219790F7B12C07C009
:104C2000BC2EB8018C2F0E94EE0C0197A9F38B2D9E
:104C3000DF91CF911F910F91FF90EF90DF90CF9078
:104C4000BF900895CF93DF93EC010E94E025BE0151
:104C50000E94EE0CDF91CF9108951F93CF93DF93C5
:104C6000EB0190916905992321F0CB010E94222646
:104C700013C0882349F0CB010E94E025182F682F2C
:104C8000CE010E94872504C0CB010E94B325182FB6
:104C9000BE01812F0E94EE0CDF91CF911F910895EC
:104CA0008091CD0508950E9425292091CB05309152
:104CB000CC058217930750F00E9425292091CB053F
:104CC0003091CC05821B930B9C010AC00E942529C0
:104CD0002091CB053091CC0520953095280F391FB8
:104CE00081E02E3E324008F480E008958091CA05AC
:104CF00085958595859508958091CA058770089555
:104D00000E9425292091C8053091C9058217930773
:104D1000A8F00E9425292091C8053091C905821B61
:104D2000930B8E3E924010F480E013C08091CA0530
:104D300082FB882780F991E089270BC00E942529F2
:104D40002091C8053091C90520953095820F931F99
:104D5000E8CF817008959091CA05977081E009F4B9
:104D600080E008958091D90508959091D905892B07
:104D70008093D905089580959091D90589238093D2
:104D8000D90508951092D90508958091D805089500
:104D90009091D805892B8093D8050895809590919E
:104DA000D80589238093D80508951092D8050895D1
:104DB0009091D705892B8093D70508958095909180
:104DC000D70589238093D70508951092D7050895B4
:104DD0008091CE05089508950C94EB260C94EC2652
:104DE000CF939091CE05981769F0C82F0E9425297E
:104DF0009093CC058093CB05C093CE058C2FCF919B
:104E00000C94EE26CF9108958091CE05882349F029
:104E10001092CE051092CC051092CB0580E00C9438
:104E2000EE260895E091AC03F091AD038091D90591
:104E30008083E091AC03F091AD0390818091D8051F
:104E4000892B8083E091AC03F091AD039081809138
:104E5000D705892B80838091CE058823B9F00E94E5
:104E6000532681110E940427E091AC03F091AD0319
:104E700090818091CE05892B80838091AC039091A5
:104E8000AD030E944F2881110E9404278091AC033A
:104E90009091AD030C94861B0C94EB260C944C273C
:104EA0009091CD05981721F08093CD050C944E2755
:104EB00008958091CD05882329F01092CD0580E0DA
:104EC0000C944E2708950C94EB2698E0899F90014E
:104ED0001124262B2093CA050E94E9240E9425292B
:104EE0009093C9058093C8058091CA0585958595DD
:104EF00085950C9463271092CA051092C9051092EB
:104F0000C80580E00C9463272091CA058095822310
:104F10008093CA05982F977079F430E0482F082EB7
:104F2000000C550B2417350739F085958595859527
:104F30000E940A250C947B2708956FEF7FEF80E095
:104F400090E00C940D3480E090E00E94D93321E091
:104F50008C3E9E4F09F020E0822F089582E090E081
:104F60000C94D13383E090E00C94D133682F83E02C
:104F700090E00C94EF33CF9384E090E00E94D13323
:104F8000C82F81E290E00E94D1332C2F30E0A9019C
:104F9000582BCA01CF910895CF93C92F682F84E071
:104FA00090E00E94EF336C2F81E290E0CF910C945F
:104FB000EF33AB01BC018FE090E00C940134AB0106
:104FC000BC0183E190E00C94013460E070E0CB011F
:104FD0000C94DF2760E070E0CB010E94D9270C948D
:104FE000E5276CEE7EEF80E090E00E940D3460E0FB
:104FF00082E090E00E94EF3360E083E090E00E9466
:10500000EF331092C4051092C5051092C605109298
:10501000C70560E084E090E00E94EF3360E081E249
:1050200090E00E94EF3360E085E090E00E94EF3373
:1050300060E086E090E00E94EF336FEF87E090E061
:105040000E94EF3340E050E0BA0188E090E00E9417
:10505000013460E08DE090E00E94EF3340E050E0EA
:10506000BA0188E190E00E94013460E087E190E0BD
:105070000E94EF3340E050E0BA018CE190E00E94E2
:10508000013460E080E290E00E94EF330C94EA2764
:105090000C94F127682F8EE090E00C94EF33FC0124
:1050A000329697E080E0915029F021912223D9F3A4
:1050B0008F5FF9CF0895662349F0FC013296089678
:1050C0002191621729F0E817F907D1F780E00895D8
:1050D00081E008959C01FC0132969FEF80E04191B0
:1050E000461789F09F3F19F4411101C0982F8F5F37
:1050F0008630A9F79F3F39F0F901E90FF11D97FDBF
:10510000FA956283089508959C012A5F3F4FFC0140
:105110004281461301C01282019682179307B9F7A4
:1051200008950C946A280C948428029626E0FC01C9
:1051300011922A95E9F7089508950C949C280C94EF
:105140009C28CF930E949F280E9435080E949D288A
:10515000C0E08C2F0E949E08811104C0CF5FC83030
:10516000C1F701C081E0CF9108950C949C280C9464
:10517000B5280E94B7288091B006843049F110927A
:10518000DB0520E488E190E00FB6F894A8958093C1
:1051900060000FBE2093600080E00E94570C0E94C8
:1051A000B72883B7817F846083BF83B7816083BF63
:1051B0007894889583B78E7F83BF0FB6F894A895AF
:1051C00080916000886180936000109260000FBE43
:1051D00008950C949C280E9442200E947A1B0E94F1
:1051E000570C0C94E9281F920F920FB60F921124BE
:1051F0008F939F93AF93BF938091DB05811113C071
:105200008091A6069091A706A091A806B091A90644
:105210004196A11DB11D8093A6069093A706A09369
:10522000A806B093A906BF91AF919F918F910F905F
:105230000FBE0F901F90189582E084BD93E095BD3E
:105240009AEF97BD80936E0008952FB7F8948091E0
:10525000A6069091A706A091A806B091A9062FBF17
:1052600008952FB7F8946091A6067091A7068091D3
:10527000A8069091A9062FBF0895CF92DF92EF92D2
:10528000FF920F931F932FB7F8944091A606509169
:10529000A7066091A8067091A9062FBF6A017B013D
:1052A000EE24FF248C0120E030E0C016D106E20697
:1052B000F30610F4415051099A01281B390BC9011A
:1052C0001F910F91FF90EF90DF90CF900895CF92B4
:1052D000DF92EF92FF920F931F932FB7F894C09035
:1052E000A606D090A706E090A806F090A9062FBFCA
:1052F00097018601061B170B280B390BC616D7061C
:10530000E806F90618F0C901B80106C0C901B801DC
:1053100061507109810991091F910F91FF90EF90E0
:10532000DF90CF90089578941F920F920FB60F924E
:1053300011248F939F93AF93BF938091A606909172
:10534000A706A091A806B091A9060196A11DB11DBE
:105350008093A6069093A706A093A806B093A906EB
:10536000BF91AF919F918F910F900FBE0F901F90A3
:10537000189587E797E790930108809300089AE0D3
:1053800088E10FB6F894A895809360000FBE9093C3
:105390006000FFCF0C949D270E9435088FE39CE9A5
:1053A0000197F1F700C000000E94350880E00E94DC
:1053B0009E0880FF04C00E94CA290C94B929089550
:1053C0000E94A327811102C00E9448280E94AE2794
:1053D0008093DA050E94BB279093AB068093AA06C0
:1053E0000E94B227682F70E080E090E00C9489243E
:1053F0008091E30580FF0BC06091B30385E0689F57
:10540000B001112475956795759567952BC081FF3F
:1054100009C06091B30385E0689FB00111247595C0
:10542000679520C082FF07C06091B30385E0689F45
:10543000B001112417C09091E2059923D1F0609139
:10544000B203961788F72091B30385E0289F900157
:105450001124929FA001939F500D112470E0CA0166
:105460000E949A336038710540F46115710519F492
:1054700006C065E070E0862F08958FE7089581E00B
:1054800008958091E30580FF08C06091AF0370E04C
:10549000759567957595679521C081FF06C06091E8
:1054A000AF0370E07595679519C082FF04C06091E5
:1054B000AF0370E010C09091E205992399F06091DC
:1054C000AE039617A0F78091AF03899FC001112406
:1054D00070E00E949A336038710540F461157105DF
:1054E00019F406C061E070E0862F08958FE70895F3
:1054F00081E00895803F21F40E94F829819504C03D
:10550000813F29F40E94F8298093E7050895823F9E
:1055100021F40E94F829819504C0833F29F40E9458
:10552000F8298093E6050895893F19F40E94412ADD
:1055300005C08A3F31F40E94412A81958093E80595
:1055400008958B3F21F40E94412A819504C08C3F2D
:1055500029F40E94412A8093E9050895843F21F4AB
:105560008091E505816017C0853F21F48091E505B4
:10557000826011C0863F21F48091E50584600BC0F4
:10558000873F21F48091E505886005C0883F31F4AC
:105590008091E50580618093E50508958D3F21F4B4
:1055A0008091E30581600BC08E3F21F48091E3057B
:1055B000826005C08F3F29F48091E3058460809369
:1055C000E3050895803F39F48091E70587FF6CC0BB
:1055D0001092E70569C0813F29F48091E70518160C
:1055E000BCF362C09091E605823F29F497FF5CC04E
:1055F0001092E60559C0833F19F41916CCF354C034
:10560000893F41F48091E80518160CF04DC01092C6
:10561000E8054AC08A3F29F48091E80587FF44C025
:10562000F6CF8B3F39F48091E90587FF3DC010929A
:10563000E9053AC08C3F29F48091E9051816BCF3BE
:1056400033C0843F21F48091E5058E7F17C0853FEC
:1056500021F48091E5058D7F11C0863F21F4809172
:10566000E5058B7F0BC0873F21F48091E505877F9F
:1056700005C0883F31F48091E5058F7E8093E50574
:1056800013C08D3F21F48091E3058E7F0BC08E3FC8
:1056900021F48091E3058D7F05C08F3F29F480912F
:1056A000E3058B7F8093E3058091E60581110EC0B1
:1056B0008091E70581110AC08091E805811106C03B
:1056C0008091E905811102C01092E205089584EEEF
:1056D00095E00E94911B0E9425299093E1058093FB
:1056E000E0050895CF93DF9300D000D000D0CDB770
:1056F000DEB786E0E4EEF5E0DE01119601900D9252
:105700008A95E1F78091E605811105C08091E70552
:10571000882309F47AC08091DE059091DF050E940C
:105720003D29AC019091E205992339F02091B40311
:1057300030E02417350758F068C02091B5038AE09F
:10574000289F900111242417350718F05EC09F3F51
:1057500019F09F5F9093E2051092E8051092E90519
:105760008091E605181624F40E94F8298093E60536
:105770008091E60587FF05C00E94F82981958093F6
:10578000E6058091E705181624F40E94F829809315
:10579000E7058091E70587FF05C00E94F8298195FC
:1057A0008093E7053091E6053323E1F02091E7058A
:1057B0002223C1F045EB3403C0011124992319F0D1
:1057C0009093E60503C081E08093E60535EB230363
:1057D000C0011124992319F09093E70503C081E0DB
:1057E0008093E7050E94672B8091E0059091E10589
:1057F0009093DF058093DE0586E0FE013196A4EEEE
:10580000B5E001900D928A95E1F78091E80581114C
:1058100005C08091E905882309F47AC08091DC05F0
:105820009091DD050E943D29AC019091E2059923FC
:1058300039F02091B00330E02417350758F068C0E4
:105840002091B1038AE0289F900111242417350785
:1058500018F05EC09F3F19F09F5F9093E205109291
:10586000E6051092E7058091E805181624F40E94D9
:10587000412A8093E8058091E80587FF05C00E94D2
:10588000412A81958093E8058091E905181624F452
:105890000E94412A8093E9058091E90587FF05C0B0
:1058A0000E94412A81958093E9053091E8053323D0
:1058B000E1F02091E9052223C1F045EB3403C0015A
:1058C0001124992319F09093E80503C081E0809397
:1058D000E80535EB2303C0011124992319F09093B7
:1058E000E90503C081E08093E9050E94672B809160
:1058F000E0059091E1059093DD058093DC0586E05D
:10590000FE013196A4EEB5E001900D928A95E1F783
:1059100026960FB6F894DEBF0FBECDBFDF91CF91B4
:105920000895E4EEF5E086E0DF011D928A95E9F73F
:105930001092E2051092E30508958091F205089512
:10594000CF93DF9300D01F92CDB7DEB79091B00612
:10595000943019F589837B836A8382E08093E90020
:105960008FEF9091E800815095FD06C095ED9A95D6
:10597000F1F700008111F5CF8091E80085FF0DC09F
:1059800040E050E063E070E0CE0101960E94E82E16
:105990008091E8008E778093E8000F900F900F9031
:1059A000DF91CF910895CF93DF93EC010E94CB2E2E
:1059B000823011F0843031F4BE0184E0DF91CF9168
:1059C0000C94A02CDF91CF910895BC0183E00C943E
:1059D000A02CCF93DF93EC010E94CB2E823011F0EC
:1059E0008430F9F482E08093E9008FEF9091E80031
:1059F000815095FD06C095ED9A95F1F70000811153
:105A0000F5CF8091E80085FF0CC040E050E066E0F3
:105A100070E0CE010E94E82E8091E8008E7780939E
:105A2000E800DF91CF910895CF93DF93EC010E94BE
:105A3000CB2E823011F0843039F581E08093E9007B
:105A40008FEF9091E800815095FD06C095ED9A95F5
:105A5000F1F700008111F5CF8091E80085FF14C0B7
:105A600040E050E068E070E0CE010E94E82E8091B6
:105A7000E8008E778093E80088E0FE01AAEEB5E0AA
:105A800001900D928A95E1F7DF91CF910895809171
:105A9000AF06811109C00E9479300E94D6308091F2
:105AA000E20084608093E20008951092AF060895AA
:105AB000089508950C94EB2842E061EC81E00E9487
:105AC000F22F42E261EC82E00C94F22F8091B20658
:105AD000833009F460C030F4813071F0823009F411
