:100000000C9428050C946F050C946F050C946F05E7
:100010000C946F050C946F050C946F050C946F0590
:100020000C946F050C946F050C94102E0C94E22E1A
:100030000C9434260C946F050C946F050C946F058A
:100040000C946F050C946F050C946F050C946F0560
:100050000C946F050C949C260C946F050C946F0502
:100060000C946F050C946F050C946F050C946F0540
:100070000C946F050C946F050C946F050C946F0530
:100080000C946F050C946F050C946F050C946F0520
:100090000C946F050C946F050C946F050C946F0510
:1000A0000C946F050C946F050C946F050B070307F8
:1000B0005D075D075D0716071E0731075D074D07E2
:1000C0005407DB13DE13E313EA13EF13F413F913EE
:1000D000FE13031408140D141214161419141C140E
:1000E0001F142214291429142914D31AD31A051BF6
:1000F000051B5E1B7C1BF11CF11CBE1B531C641CEE
:10010000641CE11CF11CF11CEA1C871D871D991D54
:10011000991D901D991D991D991D871D871D951D60
:10012000991D991D951D4F2F762F6E30762F6E30AD
:10013000C22FE52F6E303C304B3000760101280095
:100140000101280001014A627420747769747465A2
:1001500072203C01043135307C01014D0104313500
:10016000307C3E0001014A01043135307C0102E05F
:1001700001014F0103E001043130307C0102E00154
:10018000014F0103E001043130307C0102E0010144
:100190004F0103E001043130307C01014C01043196
:1001A00030307C0102E101014A0103E101043130F8
:1001B000307C01012A000102E00101500103E0014D
:1001C000012A2E01043135307C000102E00101508A
:1001D0000103E001043135307C0102E001015001EE
:1001E00003E001043135307C01012A2E0104313550
:1001F000307C000102E101014D0103E101012A2EE1
:100200006A706701043135307C0001014A01043114
:1002100035307C0102E001014F0103E0010431307F
:10022000307C0102E001014F0103E0010431303074
:100230007C0102E001014F0103E001043130307C18
:1002400001014C01043130307C0102E101014A011D
:1002500003E101043130307C01012A000102E00198
:1002600001500103E001012A2E01043135307C00E8
:100270000102E00101500103E001043135307C014D
:1002800002E00101500103E001043135307C01013D
:100290002A2E01043135307C000102E101014D01BB
:1002A00003E101012A2E6A706701043135307C00B8
:1002B000000104313235307C0001043530307C7669
:1002C000001A000900000014001A000000165C1E4D
:1002D000001F00200021002200230024002500260A
:1002E000002700055707572A004C002B6400001414
:1002F000001A00090013000A000D000F0018001C6E
:10030000000057025730000457E000000004611558
:10031000001600170007000B00110008000C001267
:1003200000340028000000025500001D001B0006DC
:1003300000190005000E00100036003700380000DC
:10034000000657E5006500E3000000E2002C4300D2
:10035000002A440000284500002845500051005262
:10036000004F00165C1E001F002000210022002309
:10037000002400250026002700055707572A004CB7
:10038000002B64000014001A000800150017001C60
:100390000018000C0012001300025730000457E050
:1003A00000000004611600070009000A000B000DA0
:1003B000000E000F00005734002800000002550016
:1003C000001D001B0006001900050011001000367A
:1003D000003700380000000657E5006500E3000024
:1003E00000E2002C4300002A4400002845000028B9
:1003F000455000510052004F000000000000000076
:1004000000000000000000000000000000000000EC
:1004100000000000000000000000000000000000DC
:1004200000000000000000000000000000000000CC
:1004300000000000000000000000000000000000BC
:1004400000000000000000000000000000000000AC
:10045000000000000000000000000000000000009C
:10046000000000000000000000000000000000008C
:10047000000000000000000000000000000000007C
:10048000000000000000000000000000000000016B
:10049000003A003B003C003D003E003F0040004170
:1004A00000420043004400450001000100065700DF
:1004B000000E574A0052004D004900230224022535
:1004C00002015727024C00010001004C0000000D02
:1004D00057500051004F0028001E021F0220022129
:1004E0000222020100010000003900000011570A39
:1004F0005709570857105707570557025703570111
:10050000000000010001000100010000000B57AED7
:1005100000000001000000010000000100010001D6
:100520000001000100C25C010001000100010001A6
:1005300000010001000100010001000100010001B3
:10054000000100C35C00001E001F002000210022EB
:100550000001004200430044004500010001000189
:1005600000C55C00002300240025002600270001B0
:10057000003E003F0040004100010001000000C7B4
:100580005C00000100010001000100010046003A8A
:10059000003B003C003D00000001000100010001A3
:1005A0000000000100010000000100000001000047
:1005B0000001000100010001000100005C010001D8
:1005C0000001000100010001000100010001000123
:1005D000000100010001000100095D00000000F5BC
:1005E00000F000F400F9000100F700F8000100013C
:1005F00000010001000100085D00000000F200F1B0
:1006000000F300FA000100F400F500010001000110
:1006100000010000000100000000000B57F600FB85
:1006200000FC000100F600010001000100000001D3
:100630000001000100010000000100460C00000163
:1006400000000001000000010001000100010001A4
:100650000000000000000000002A2B28000000001D
:100660000000000000000000000000002900000061
:10067000002C1E3420212224342627252E362D3707
:1006800038271E1F202122232425263333362E37D8
:10069000381F0405060708090A0B0C0D0E0F101170
:1006A00012131415161718191A1B1C1D2F3130237D
:1006B0002D350405060708090A0B0C0D0E0F101145
:1006C00012131415161718191A1B1C1D2F3130354B
:1006D0004C000000000000000000000000000000CE
:1006E00000000000007E0F00D4FFFFFFC7000000E5
:1006F000787F3F1F643214643214783C1E1E140A43
:10070000052223252628292A2C2D2F303233353651
:10071000383A3B3D3E4042434547494A4C4E505192
:10072000535557595A5C5E6062646668696B6D6FB9
:1007300071737577797B7D7F81838587898A8C8EBC
:1007400090929496989A9C9E9FA1A3A5A7A8AAACC4
:10075000AEAFB1B3B4B6B8B9BBBCBEBFC1C2C3C5FE
:10076000C6C7C9CACBCCCDCED0D1D2D2D3D4D5D6A0
:10077000D7D7D8D9D9DADADBDBDBDCDCDCDCDCDDD3
:10078000DDDDDDDCDCDCDCDCDBDBDBDADAD9D9D8B7
:10079000D7D7D6D5D4D3D2D2D1D0CECDCCCBCAC94F
:1007A000C7C6C5C3C2C1BFBEBCBBB9B8B6B4B3B17E
:1007B000AFAEACAAA8A7A5A3A19F9E9C9A98969419
:1007C00092908E8C8A89878583817F7D7B797775EE
:1007D00073716F6D6B6968666462605E5C5A5957CD
:1007E000555351504E4C4A4947454342403E3D3B8C
:1007F0003A3836353332302F2D2C2A292826252316
:1008000022000101010101010101010202020202B3
:1008100002020202030303030303030304040404A8
:100820000404040505050505060606060607070770
:10083000070708080808090909090A0A0A0B0B0B27
:100840000C0C0C0D0D0D0E0E0E0F0F0F10101111C4
:100850001112121313141415151616171718181948
:10086000191A1A1B1B1C1D1D1E1E1F2020212222AF
:10087000232424252626272829292A2B2C2D2D2EF2
:100880002F30313232333435363738393A3B3C3D0C
:100890003E3F404142434445464748494A4C4D4EFD
:1008A0004F50515354555658595A5B5D5E5F6162C3
:1008B00064656668696B6C6D6F7072737577787A52
:1008C0007B7D7E8082838587888A8C8E8F919395AD
:1008D00096989A9C9EA0A2A3A5A7A9ABADAFB1B3D1
:1008E000B5B7BABCBEC0C2C4C6C9CBCDCFD1D4D6B1
:1008F000D8DBDDDFE2E4E7E9EBEEF0F3F5F8FAFD53
:10090000FF040330000000220344005A0036003088
:10091000002000730070006C006900740020006209
:1009200000790020004E005200000010034B0042EE
:10093000004400460061006E0073000000040309DB
:100940000409023B00020100A0FA090400000103AF
:100950000101000921110100012240000705810366
:1009600008000A0904010001030000000921110127
:1009700000012281000705820320000A12011001F4
:1009800000000008EDFE60220100010203010501E4
:100990000902A10185020901A10005091901290522
:1009A00015002501950575018102950175038101E9
:1009B0000501093009311581257F950275088106E9
:1009C00009381581257F950175088106050C0A38BF
:1009D000021581257F950175088106C0C0050109B2
:1009E00080A101850319012AB700150126B70095DA
:1009F0000175108100C0050C0901A10185041901D0
:100A00002AA002150126A002950175108100C005DB
:100A1000010906A101050719E029E715002501953F
:100A200008750181029501750881010507190029E2
:100A3000FF150026FF0095067508810005081901BD
:100A40002905950575019102950175039101C00075
:100A500011241FBECFEFDAE0DEBFCDBF04B603FE28
:100A600027C08091B9049091BA04A091BB04B091C1
:100A7000BC048730904BA740B04BD1F41092B9041E
:100A80001092BA041092BB041092BC0414BE84B736
:100A9000877F84BF0FB6F894A89580916000886125
:100AA00080936000109260000FBEE0E0F8E30995CB
:100AB00013E0A0E0B1E0EEE4F2E602C005900D9292
:100AC000A837B107D9F724E0A8E7B3E001C01D9229
:100AD000A93BB207E1F70E943F2B0C9425310C94FF
:100AE0000000CF93DF93EC018881813029F08230C0
:100AF00039F48BE491E002C08EE491E00E94CD07CE
:100B0000CE01DF91CF910C947B14CF93DF93EC0156
:100B10008881823039F0833041F0813051F48AE1AC
:100B200091E005C087E193E002C087E191E00E9477
:100B3000CD07CE01DF91CF910C947B14CF93DF933F
:100B4000EC018881823039F0833041F0813051F4FA
:100B500086E091E005C089E191E002C08BE191E07F
:100B60000E94CD07CE01DF91CF910C947B14CF93DF
:100B7000DF93EC018881823039F0833041F081309D
:100B800071F48DE492E005C08DE493E002C084E04E
:100B900091E00E94CD0786E091E00E94CD07CE0152
:100BA000DF91CF910C947B14CF93DF93EC0188817C
:100BB000823039F0833041F0813051F48EE490E09E
:100BC00005C08DE490E002C08DE491E00E94CD0765
:100BD000CE01DF91CF910C947B14CF93DF93EC0186
:100BE0008881823039F0833041F0813051F48BE4D8
:100BF00090E005C08AE490E002C08AE491E00E949F
:100C0000CD07CE01DF91CF910C947B14CF93DF936E
:100C1000EC018881823039F0833041F0813051F429
:100C20008AEA90E005C089EA90E002C088EA90E094
:100C30000E94CD07CE01DF91CF910C947B14CF930E
:100C4000DF93EC018881823069F028F4813089F4E7
:100C50008EEA90E00CC0833041F0843051F48FEA8A
:100C600090E005C08BEA90E002C08CEA90E00E9420
:100C7000CD07CE01DF91CF910C947B14CF93DF93FE
:100C8000EC018881823069F028F4813089F486E4AF
:100C900090E00CC0833041F0843051F486E493E05E
:100CA00005C086E492E002C086E491E00E94CD0790
:100CB000CE01DF91CF910C947B14CF93DF93EC01A5
:100CC0008881823081F485EF90E00E94CD0789EB26
:100CD00092E00E94CF0881EB92E00E94CF0888E268
:100CE00090E00E94CD07CE01DF91CF910C947B1450
:100CF000882319F0813031F00895662349F089E2A4
:100D000090E004C0662321F08BE290E00C94CD07C4
:100D10000895FC018081823069F08330A1F0813038
:100D2000D9F4818581111BC082858823C1F082E0BE
:100D300090E008958185811115C08285882391F006
:100D400084E090E00895818581110FC08285882319
:100D500061F086E090E0089580E090E0089581E001
:100D600090E0089583E090E0089585E090E0089594
:100D70000E9489068330910579F034F48130910521
:100D800049F0029739F008958430910529F00597CC
:100D900029F008958AEA03C089EA01C088EA0C9420
:100DA0006E190E9489068330910579F034F4813000
:100DB000910549F0029739F008958430910529F0A2
:100DC000059729F008958AEA03C089EA01C088EAF4
:100DD0000C94181ACF93DF93EC010E94E724BE0114
:100DE00080E090E0DF91CF910C94BC21CF938850AC
:100DF0009D458B30910508F060C0DB018A5A9F4FFA
:100E0000FC010C94CA301296CC91CC2309F456C044
:100E100082E090E007C01296CC91CC2309F44EC03A
:100E200081E090E00E94EA06C0E048C01296CC91B2
:100E3000CC2309F442C080EB92E03CC01296CC91E6
:100E4000CC23D9F189E992E00E94CF0880E792E0B3
:100E50000E94CF088CE592E00E94CF088AE092E0E1
:100E600029C01296CC91CC2399F083EF91E00E9497
:100E7000CF088AEC91E00E94CF0886EB91E00E94B7
:100E8000CF0884E691E00E94CF0884E491E012C08C
:100E900080E491E00E94CF0810C01296CC91CC2340
:100EA00061F08BE391E006C01296CC91CC2329F03F
:100EB0008AE391E00E94CF0801C0C1E08C2FCF915E
:100EC00008950C947207229A2A9A08950E94710735
:100ED0000C94630781FF02C02A9801C02A9A0C94DF
:100EE000E2080895089508959C013A9521153F411F
:100EF00038F5DC01AA27B270AC01442754709C017C
:100F00002227387094FF0FC090FF02C080E101C01B
:100F100080E0AB2B09F08062452B09F08064232B25
:100F200069F080680BC0892F8170AB2B09F082605B
:100F3000452B09F08460232B09F08860FB0109949C
:100F40000895CF93DF93EC01805E9109089710F02C
:100F5000209719F463E97AE102C06DE47DE1CE01E6
:100F60000E9474078C2FDF91CF910C946E19CF9350
:100F7000DF93EC010E94181ACE01805E9109089758
:100F800010F0209719F46AE97AE102C064E57DE186
:100F9000CE01DF91CF910C947407CF93DF93EC01D6
:100FA0000E94A107CE01DF91CF910C94B70781E099
:100FB00008950C94F6061F93CF93DF9300D000D0D2
:100FC0001F92CDB7DEB749835A836B832091B90353
:100FD00089819A81211112C0662349F00E94112350
:100FE000182F682F89819A810E94BA2203C00E941B
:100FF000E522182F69817A81812F04C00E94112374
:1010000069817A810F900F900F900F900F90DF9170
:10101000CF911F910C945609FC014081518162814E
:10102000738184810C94DB07FF920F931F93CF93FE
:10103000DF93E82FF0E0EF5AF94FF490C82FC695F0
:10104000C695C695D0E0FE01EF51F94F0491877027
:1010500010E0082E02C0159507950A94E2F701707A
:101060001127FE01EF52F94FC491D0E002C0D5958F
:10107000C7958A95E2F7C170DD270115110519F0B2
:1010800081EE0E946E19209719F086EE0E946E196B
:101090008F2D0E94801ACD2B19F086EE0E94181A0F
:1010A000012B41F081EEDF91CF911F910F91FF90C5
:1010B0000C94181ADF91CF911F910F91FF90089512
:1010C000EF92FF920F931F93CF93DF938C01F62E35
:1010D0008AE0E82EF8018491882309F459C0813010
:1010E00009F044C0E8012196FE018491813041F469
:1010F0002196FE011491812F0E946E19812F0FC03D
:10110000823039F4E8012296FE0184910E946E1922
:1011100030C0833039F4E8012296FE0184910E94A8
:10112000181A27C0843029F5E8012296FE0124917F
:1011300080E090E030E0205331092A30310560F43E
:10114000E89EA001E99E500D1124C901840F951F4E
:101150002196FE012491EECF009759F0EFE9FFE0D0
:101160003197F1F700C000000197F6CF0E941408F4
:10117000E8018E010F5F1F4F8F2D882309F4AACF3E
:10118000EFE9FFE03197F1F700C000008150F5CFA3
:10119000DF91CF911F910F91FF90EF90089560E044
:1011A0000C9460080E94E8260E94D424811102C099
:1011B0000E946E250C9466070E9465150E94B80C6B
:1011C0000C946107089581E008950C94E308CF938F
:1011D000C82F0E946A078C2F0E94E508CF910895BE
:1011E00008950E94751D0E94F0082FEF84E39CE093
:1011F000215080409040E1F700C000000C94C226CE
:101200000F931F93CF93DF93EC010E940C088C0186
:10121000BE010E94C214BE01C8010E94D9078823E2
:10122000D9F1BE01C8010E9409158823A9F1BE01A8
:10123000C8010E94E40C882379F1BE01C8010E9414
:101240006116882349F1BE01C8010E94A2168823B5
:1012500019F1BE01C8010E94CD178823E9F0BE0133
:10126000C8010E94C4138823B9F08A81882369F0D9
:1012700001158CE5180731F00E3D1C4531F40E9434
:101280006E250AC00E94F10807C0CE01DF91CF9100
:101290001F910F910C94D70780E0DF91CF911F91A0
:1012A0000F91089580E090E0089508952BE4829FC7
:1012B000C0011124FC012FE0729FE00DF11D1124EB
:1012C000E60FF11DEE0FFF1FE353FD4F8591949143
:1012D0000895880F991FFC01EF50F94F8591949163
:1012E0000895CF93DF930E9456090E94890AEC016A
:1012F0008115904508F041C0C11580E4D80708F079
:10130000D1C0C83ED10510F5C03ED10508F0FDC0E2
:10131000C83AD10578F4C53AD10508F0A2C0C13069
:10132000D10509F4F2C008F4EEC0C430D10508F0CC
:10133000ECC0E9C0CF3BD10508F49BC0C03CD1054F
:1013400008F4E1C0CE01805C91099EC0C11590E215
:10135000D90758F4C11521E0D20708F0D6C0C03F24
:10136000D10508F4D0C0D065D0C0C11580E3D8073E
:1013700008F08EC0CE019F7087C0C11595E5D907D2
:1013800008F043C0C11524E5D20708F0A2C0C1157A
:1013900082E5D80708F5C11591E5D90708F085C0A1
:1013A000CE0174E0969587957A95E1F783709C2F2E
:1013B000937021E030E002C0220F331F9A95E2F7CC
:1013C0003C68382BCF70C695C69580E2C89FE00177
:1013D0001124C22BD32B99C09E01237033278C2F4D
:1013E00086958695C115D34508F064C0C1E0D0E06C
:1013F00002C0CC0FDD1F2A95E2F720E2829FC001D8
:101400001124C82BD92BDC6880C0C11529E5D2076F
:10141000A0F4C11588E5D80708F060C0C11596E5AD
:10142000D90708F070C08C2F0E941D0B8F71C82F38
:10143000D0E0DC2FCC27D06268C0C1152AE5D207E6
:1014400008F451C0CE0190568115904208F05BC05F
:101450008D2F8F710E941D0BDD27D0628F71D82BCD
:1014600054C0C55AD0E0C95EDC4FC881D0E0D0641A
:101470004CC0C85AD0E0CC0FDD1FC751DD4F0990DA
:10148000D881C02DD46441C00E946909EC013DC0DF
:10149000CE019927D3FF03C0EC01D86C36C0EC0114
:1014A000D06C33C0DF70D06A30C0DC2FCC27C16F66
:1014B000D06A2BC0C1E0D0E002C0CC0FDD1F2A955E
:1014C000E2F720E2829FC0011124C82BD92BDA68F1
:1014D0001CC0DC2FCC27C46FD06A17C0DC2FCC27F0
:1014E000C06FD06A12C08C2F8F700E941D0B94E0C9
:1014F000D695C7959A95E1F7CF70D0E0DC2FCC2731
:10150000D069C82B02C0C0E0D0E0CE01DF91CF91FE
:1015100008958238910569F1B0F48133910509F499
:101520006DC048F48932910509F463C08A3291058F
:1015300009F469C008958533910509F455C08933CC
:101540009105B9F00895833E910569F138F4803E24
:101550009105B1F0823E910509F10895863E91050D
:10156000A9F1873E9105B9F1843E910509F064C067
:1015700023C02091AA0420FD4FC021FD4DC0089535
:101580008091AA0480FD44C08091AB0480FF44C0D8
:101590008091AA0484FD42C083EE4DC08091AA04CC
:1015A00082FF38C0F5CF8091AA0482FD33C08091BC
:1015B000AB0480FD31C0ECCF8091AB0481FF32C021
:1015C0008091AA0484FD2AC087EE35C08091AA04C8
:1015D00083FF26C0F5CF8091AA0483FD21C08091AE
:1015E000AB0481FD1FC0ECCF8091AA0485FD1CC017
:1015F0001DC08091AA0485FD19C016C08091AA045F
:1016000086FD16C017C08091AA0486FD13C010C0C5
:1016100089E311C082EE0FC080EE0DC080E00BC0E8
:1016200086EE09C084EE07C089E205C085E303C0E9
:101630008AE201C081E390E008959091AA0492FFAC
:101640000DC0282F2871283019F4877F846006C0C8
:10165000282F2471243011F48B7F886093FF0DC0F4
:10166000282F2871283119F4877E846106C0282F1D
:101670002471243111F48B7E88612091AB0420FF0A
:101680000DC0382F3871383019F4877F816006C05B
:10169000382F3171313011F48E7F886021FF0DC0F9
:1016A000282F2871283119F4877E816106C0282FE0
:1016B0002171213111F48E7E886194FD877E089519
:1016C000E82FF0E0EE0FFF1FEB59FB4F8081918177
:1016D0000895089580EA8A95F1F70895CF93DF93EE
:1016E000A9E2B3E04EE253E061E070E08D91E82FB3
:1016F000E295EF70F0E021A18F70EB0102C0CC0FFA
:10170000DD1F8A95E2F7CE019C2F9095922391A33D
:1017100092A1892B82A34A175B0741F7AAE1B3E0A4
:1017200049E253E061E070E08D91E82FE295EF70BF
:10173000F0E021A18F70EB0102C0CC0FDD1F8A9574
:10174000E2F7CE019C2F9095922391A392A1892B31
:1017500082A34A175B0741F7EBE5F4E0A5E6B4E0A6
:1017600085E694E0119211921D921D928E179F07AB
:10177000C9F785E00E945D0CDF91CF910C94D208EF
:101780002F923F924F925F926F927F928F929F9291
:10179000AF92BF92CF92DF92EF92FF920F931F937F
:1017A000CF93DF9389E2C82E83E0D82E0BE514E0B7
:1017B00095E6492E94E0592E312C88248394912C5F
:1017C0005801D8016D907C9011971D921C92F601E2
:1017D00081916F01C82FC295CF70D0E099A18F7011
:1017E000740101C0EE0C8A95EAF7892F8E2989A32E
:1017F0008AA12E2C209482218AA30E946A0BEAE1FE
:10180000F3E020E030E06191A62FA295AF70B0E048
:1018100090968C91D8014D915C9190E06F7002C0D0
:10182000959587956A95E2F780FD08C0C401022E60
:1018300002C0880F991F0A94E2F702C080E090E08E
:10184000482B592BD8014D935C932F5F3F4F2F307E
:101850003105C9F689A1282229A28AA1E82AEAA28B
:101860000E5F1F4F81E0F50120813181261537057C
:1018700009F480E0382A4016510609F0A1CF232D43
:1018800045E065E674E08BE594E00E945E0C0E9402
:10189000DC08832DDF91CF911F910F91FF90EF9086
:1018A000DF90CF90BF90AF909F908F907F906F9080
:1018B0005F904F903F902F9008950895FF920F935F
:1018C0001F93CF93DF93F82E092F162FD72FC42FF6
:1018D000222349F081E080937A030E946626909348
:1018E00079038093780380917A038823D9F08091DB
:1018F0007803909179030E947226069798F0EF2D55
:10190000F02FA12FBD2F80E090E04C2F50E08417E6
:10191000950734F4219131912D933D930196F7CFA2
:1019200010927A03DF91CF911F910F91FF9008954C
:10193000CF9390918B039923C9F0882311F0C0E0D5
:1019400003C010928B0312C080918B03C817C8F795
:10195000EC2FF0E0EE0FFF1FE558FC4F80819181E6
:101960000E94A1070E944324CF5FEECFCF9108953C
:101970008091CC02882399F080918C03882379F0A0
:1019800080918F0390919003009749F00E947226F6
:101990004A9728F010928C0381E00C94980C0895DB
:1019A00010928C031092CC021092900310928F032D
:1019B00081E00C94980C8091CC0281110C94D00C95
:1019C00081E08093CC0208955F926F927F928F9214
:1019D0009F92AF92BF92CF92DF92EF92FF920F93BE
:1019E0001F93CF93DF938C017B0110928D03873F70
:1019F0002CE5920741F4FB01C281CC23C9F081E0C0
:101A00008093CC020AC1883FFCE59F0739F4FB01B3
:101A1000C281CC2369F00E94D00CFFC0893F9C4555
:101A200039F4FB01C281CC2319F00E94DB0CF5C014
:101A30008091CC02882309F4EFC010928E03AA246F
:101A4000A394B12C95E0992EC1E0D0E08824839432
:101A500080918E03823008F0A1C0C82ED12C9C9CAE
:101A6000F0019D9CF00D1124EE53FD4F40815181FA
:101A700077247A9490E0FA01E90FF11DE90FF11D46
:101A8000259134910217130709F4792E232B11F0B5
:101A90009F5FF1CFFFEF7F1202C0612C66C05090B4
:101AA0008C03F7016280662069F19C9CF0019D9C8B
:101AB000F00D1124EE53FD4F9E0101C0220F7A94C8
:101AC000EAF73481232B2483552039F3AE0102C079
:101AD000440F551F9A95E2F74150510930E04217E3
:101AE000530709F042C0228133812115310521F0CD
:101AF000C9010E94A10703C061E00E94780680929C
:101B00008D0333C09E0102C0220F331F9A95E2F766
:101B1000215031099C9CF0019D9CF00D1124EE5345
:101B2000FD4F448150E02417350769F42281338149
:101B30002115310521F0C9010E94B70705C060E0F9
:101B40000E94780601C0512C9C9CF0019D9CF00DD8
:101B50001124EE53FD4FCE0101C0880F7A94EAF7AD
:101B60008095948189238483652CB628AA2069F006
:101B70009C9CF0019D9CF00D1124EE53FD4F91E0D3
:101B80008481811190E0892F01C080E08170A82EAE
:101B900080918E038F5F80938E035ACF80918D0347
:101BA000882351F00E9466269093900380938F03C0
:101BB00080E00E94980C2CC0B1100DC081E00E9402
:101BC000980CAA2029F11092900310928F0381E0C3
:101BD00080938C031DC0F70182818823C9F0809116
:101BE0008C038823A9F00E9466269093900380932B
:101BF0008F03E0918B03E83058F481E08E0F8093DF
:101C00008B03F0E0EE0FFF1FE558FC4F11830083BC
:101C100081E0CB2DC82701C0C1E08C2FDF91CF918F
:101C20001F910F91FF90EF90DF90CF90BF90AF90FA
:101C30009F908F907F906F905F900895EF92FF92AA
:101C40000F931F93CF93DF93F62E472FE82FF0E0EB
:101C5000711106C0EF5FF74F6491762F862F72C027
:101C6000272F30E0EF5FF74FE4910E2F10E056E0A2
:101C7000659FC0011124CFEFD0E0BE010E94A230C9
:101C80005BEA5603C001579F900D11248F0D911DE3
:101C90008F0D911D982F990F890F7E01E21AF30A7B
:101CA000E09ED001E19EB00DF09EB00D1124489F42
:101CB000A0011124452F55277E01E41AF50AE09E64
:101CC000A001E19E500DF09E500D11247E01E81AF6
:101CD000F108E29EC001E39E900DF29E900D11244A
:101CE000892F9927C81BD90BC09FC001C19F900D98
:101CF000D09F900D11246230710591F048F4611568
:101D00007105E1F061307105A9F48B2F752F19C0B1
:101D10006430710561F038F06630710579F00AC001
:101D2000892F7B2F0EC08E2F7B2FE52F0AC08E2F81
:101D3000792F02C0852F7E2FEB2F03C08B2F7E2F94
:101D4000E92F6E2FDF91CF911F910F91FF90EF90B0
:101D500008950895CF93DF93762FE901682F842F9C
:101D60000E941E0E798368838A83DF91CF91089544
:101D700080916F04282F269530E02115310519F444
:101D80008170826005C02931310524F08170806343
:101D900080936F04089588E090E00C94E530CF9232
:101DA000DF92EF92FF926B017C010E94B80EB701A7
:101DB000A60188E090E0FF90EF90DF90CF900C9428
:101DC0000331EFE6F4E083E0808311828FEF8283BA
:101DD00083831482AFE9B3E012968C9112978360EB
:101DE00012968C9360817181828193810C94CF0EC5
:101DF00080916F0480FF02C08695089580E0089569
:101E000080917304833018F48F5F80937304609122
:101E10006F047091700480917104909172040C941D
:101E2000CF0E80917304882319F08150809373043E
:101E300060916F04709170048091710490917204AC
:101E40000C94CF0E6091D10270E080916F0480FFFE
:101E50000AC08091970323E0829FC00111248C580F
:101E60009B4F0C94EA15809196039091D0028917AC
:101E700080F7E82FF0E09F01220F331FE20FF31FDE
:101E8000EC58FB4F1182108212828F5FF0CF90913D
:101E90006F0490FF16C0909196032091D002921784
:101EA00070F4E92FF0E0DF01AA0FBB1FEA0FFB1F60
:101EB000EC58FB4F8183608342839F5FF0CF0C948B
:101EC000220F0895CF93DF9300D01F92CDB7DEB7D6
:101ED00090916F0490FF0AC09E012F5F3F4F0E94B8
:101EE000AA0E4B8169818A810E94470F0F900F9043
:101EF0000F90DF91CF910895CF93DF93EC01EC81A8
:101F0000F0E0EF5FF84F4491EFE6F4E06281818109
:101F10000E94620F8C818F5F8C83DF91CF91089537
:101F2000CF93DF93EC01EFE6F4E0438162818C8193
:101F30000E94620F8C818F5F8C83DF91CF91089517
:101F4000EF92FF920F931F93CF93DF9300D01F92D6
:101F5000CDB7DEB7082FF62E142FE22E80916F0436
:101F600080FF46C0E82FE695F0E0E25DFC4F9081EF
:101F700090939F038E7F823061F49E012F5F3F4FCD
:101F8000802F0E94AA0E4B8169818A810E94470F8F
:101F90000CC0923019F41091720407C0963019F4F5
:101FA0000091700402C09930D9F380917004081335
:101FB00008C080917104F81204C08091720418174F
:101FC00029F08091A10382608093A10300937004A3
:101FD000F092710410937204EE2051F060916F043E
:101FE0007091700480917104909172040E94CF0EE0
:101FF0000F900F900F90DF91CF911F910F91FF9055
:10200000EF900895EFE6F4E09181282F43816281FB
:102010008FE0890F0C94A00F81E00C940210EFE682
:10202000F4E09181282F4381628181EF890F0C9424
:10203000A00F81E00C940F10EFE6F4E062812AE03B
:10204000620F08F46FEF282F438181810C94A00F59
:1020500081E00C941C10EFE6F4E062812AE0621B40
:1020600008F460E0282F438181810C94A00F81E067
:102070000C942B10EFE6F4E0438125E0420F08F4C6
:102080004FEF282F628181810C94A00F81E00C9486
:102090003A10EFE6F4E0438125E0421B08F440E00B
:1020A000282F628181810C94A00F81E00C9449104B
:1020B00020E00C94A00FFF920F931F93CF93DF9318
:1020C000EC01F12C0FEF10E06091CF02F616F0F466
:1020D000809196032F2D30E0280F311DC901880F04
:1020E000991F280F391F2C583B4F70E0C8010E94E0
:1020F000B630962F8C814091720460917104F99EE4
:10210000800D11240E94AA0EF394DECF0E94220FAC
:102110009A818C8190FF02C08F5F01C081508C83B7
:10212000DF91CF911F910F91FF9008959F92AF92F1
:10213000BF92CF92DF92EF92FF920F931F93CF93B4
:10214000DF93EC018A8180FF03C0BB24BA9402C0F4
:10215000BB24B3948C8181110DC081E0B81206C0FC
:102160008091CF0281508093920302C0109292031B
:1021700081E08C83A12C8091CF02A81608F041C089
:1021800080919603CA2CD12C8601080F111DC8011D
:10219000880F991F080F191F0C581B4FF801118247
:1021A0001082128234E0E32EF12C912C8091920364
:1021B000890D813114F08F7005C087FF03C09091A5
:1021C000CF02890F082E000C990BC816D90691F47E
:1021D000809172048E9DA0018F9D500D1124559504
:1021E00047955595479598016091710480917004C9
:1021F0000E94AA0E9B0CF1E0EF1AF108B9F6A39425
:10220000BACF0E94220F8091920391E0B9120EC0C2
:10221000811107C08091CF028150809392031C826C
:102220000FC0815080939203BC820AC090E0019657
:102230006091CF0270E00E94B630809392038C834D
:10224000DF91CF911F910F91FF90EF90DF90CF9092
:10225000BF90AF909F9008951F93CF93DF93EC01B1
:102260008C81811109C081E08C831092910392E0EE
:102270009093CE028093CD02809196039091D002EC
:10228000891770F4E82FF0E09F01220F331FE20F4F
:10229000F31FEC58FB4F1182108212828F5FF0CF38
:1022A00010E06091CF021617C0F5E12FF0E070E06A
:1022B000CF010E94B63020919603820F20919103A6
:1022C000022E000C330B90E0E217F307CCF02091C4
:1022D000CE02022E000C330B2E173F078CF09C0110
:1022E000220F331F820F931F9C012C583B4F4091AC
:1022F000720460917104809170040E94AA0E0BC058
:10230000FC01EE0FFF1F8E0F9F1FFC01EC58FB4FCF
:102310001182108212821F5FC4CF0E94220F80910F
:10232000CD0220919103280F209391039091CE022A
:10233000980F9093CE0219165CF4022E000C330B0A
:102340004091CF0250E0415051092417350734F035
:1023500081958093CD02813009F41C82DF91CF9169
:102360001F9108950F931F93CF93DF93EC0100E02B
:1023700010E08091CF02282F30E00217130724F5D8
:10238000909196039801290F311DA901440F551F03
:10239000240F351F2C583B4F869590E04C81081731
:1023A00019071CF4442331F002C0411103C04091CD
:1023B000720401C040E060917104809170040E9439
:1023C000AA0E0F5F1F4FD5CF0E94220F8C8190E085
:1023D0000196817099278C83DF91CF911F910F9186
:1023E000089560916F04669570E041E050E082EDE1
:1023F00092E00E94D030892B19F481E08093A003F1
:102400000E94662690939903809398038091A1037C
:1024100084608093A1030895EFE9F3E01182828143
:1024200084608283089590916F0490FF3AC0917008
:10243000811102C0926006C0893110F0906302C021
:10244000880F982B90936F048091A10381608093F3
:10245000A103662351F060916F0470917004809124
:102460007104909172040E94CF0E60916F04669582
:1024700070E041E050E082ED92E00E94D030892B84
:1024800019F00E940C1202C00E94F11181E08093A9
:102490009B034091720460917104809170040C94CC
:1024A00058100895682F90916F04969581E0890FD8
:1024B000893108F081E00C94131281E00C945212DF
:1024C000682F90916F0496958FEF890F09F488E13A
:1024D0000C94131281E00C94601261E00C941312BE
:1024E000EFE6F4E080818160808386950C946D1224
:1024F00060E00C941312EFE6F4E080818160808349
:1025000086950C947812EFE6F4E080818E7F8083CC
:1025100060817181828193810E94CF0E0E940C1292
:10252000EFE9F3E08281816082832FEF80E792E020
:10253000215080409040E1F700C000000C94220F31
:1025400080916F0480FD0C9483120C947012EFE65E
:10255000F4E080818E7F80830E940C12EFE9F3E02B
:102560008281816082832FEF80E792E0215080405A
:102570009040E1F700C000000C94220F80919E0370
:10258000811133C00E94D424811104C00E946E25A1
:102590000E94E10E0E94CB0E60936F047093700452
:1025A00080937104909372048091A103836080935F
:1025B000A1036E7F61F40E94E10E0E94CB0E609336
:1025C0006F047093700480937104909372040E945E
:1025D000B80E0E940C1280916F0480FF03C0869594
:1025E0000E94781281E080939E030895EF92FF92FB
:1025F0000F931F93CF93DF938091A003882309F457
:10260000A1C080919F03E0916F04E695E81BE093E1
:102610009A03823049F4F0E0E350F94FE491CE2F71
:10262000D0E00CE71FE039C0863049F4F0E0E65016
:10263000F94FE491CE2FD0E000E91FE02EC08930A1
:1026400051F4E695F0E0E950F94FE491CE2FD0E057
:102650000BE510E122C08F3051F4E695F0E0EC502C
:10266000F94FE491CE2FD0E006E910E116C0853194
:1026700049F4F0E0EF50F94FE491CE2FD0E00CE2B6
:1026800011E10BC0883129F4C4EFD1E002EB11E174
:1026900004C0C0EDD7E009EA1EE080919B038823C7
:1026A00089F010929B030E9466269E01209530952A
:1026B000820F931F909399038093980310929D0328
:1026C00010929C0380919803909199030E94722626
:1026D0008C179D07B8F1809195038823B1F0109273
:1026E000950380919303909194030E947226803306
:1026F000954758F00E946626909394038093930325
:102700008091A10388608093A103E0909C03F090E6
:102710009D03E0919803F0919903CE0FDF1FD093B2
:102720009903C093980388E993E0F8010995809193
:102730009C0390919D03892B29F4EF2819F081E0E7
:1027400080939503DF91CF911F910F91FF90EF90B0
:102750000895882311F0FA0101C0FB010994CF9379
:10276000DF93C82FD62F0E94F80E8C1740F00E94DE
:10277000F80E8D1720F4DF91CF910C945D128C2F01
:10278000DF91CF910C946D120F931F93CF93FB01A8
:10279000C281CC2309F45BC08C010E94E3238272C6
:1027A000F801E25CFC45E431F10508F053C0EF5953
:1027B000FF4F0C94CA300E94A0124BC04AE652E16F
:1027C0006DE572E104C04DE552E16AE672E10E94F6
:1027D000A9133FC049E150E16CE070E1F8CF4CE053
:1027E00050E169E170E1F3CF47E350E168E270E165
:1027F000EECF48E250E167E370E1E9CF45E550E113
:1028000066E470E1E4CF46E450E165E570E1DFCFD6
:1028100041E15FE060E07FE0DACF40E05FE061E16E
:102820007FE0D5CF81E00E946D1213C065E082E0A9
:102830000BC068E086E008C06EE089E005C064E196
:102840008FE002C067E185E10E94AF1302C0C1E0E2
:1028500001C0C0E08C2FCF911F910F910895CF93AD
:10286000DF93EC0181E0898B8F810E94E6238885CC
:102870000E94F9230E944324EA81FB81CE0106963F
:10288000309729F06C897D89DF91CF910994DF9190
:10289000CF910895CF93DF93FC012081223041F442
:1028A000FB01EC01828193810E94A10781E08B876B
:1028B000DF91CF910895FC018081813021F4FB01EB
:1028C0008081918105C0823029F4FB01828193814E
:1028D0000C94A1070895FC018081813021F4FB0153
:1028E0008081918105C0823029F4FB01828193812E
:1028F0000C94B7070895EF92FF920F931F93CF9315
:10290000DF93FC012285211136C0EC01E380F480C5
:10291000F7E5FF1A26E12E9DC0012F9D900D112491
:10292000DC01A050BF4F1496ED91FC9115978A5F82
:102930009E4F309729F054966D917C91559709954B
:1029400086E18E9D80018F9D100D112400501F4F38
:10295000F80187810E94EC23F80180850E94FF2303
:102960000E944324188219861B861E821D821092A3
:10297000A3031092A203DF91CF911F910F91FF90BB
:10298000EF900895DF92EF92FF920F931F93CF93F2
:10299000DF93FB0122812223A1F12091D3022F3F5B
:1029A00081F18C01C0E0D1E0E12CF12CDD24D39445
:1029B0008091D302082E000C990B8E159F050CF107
:1029C0008E818823C9F089859A858017910739F40B
:1029D0008091A2039091A3030817190769F0DF867D
:1029E0001C870B878989811103C0CE010E942F1497
:1029F000CE0106960E947B14FFEFEF1AFF0A66963F
:102A0000D7CFDF91CF911F910F91FF90EF90DF9083
:102A10000895EF92FF920F931F93CF93DF939C0142
:102A200037552F3F310511F008F047C04091D302D0
:102A3000042E000C550B4217530714F42093D302B5
:102A4000FB017C01828196E1929F8001939F100D92
:102A50001124E801C050DF4F888B92818E81992329
:102A600011F1FA86E9868F5F8E830E9466269E8723
:102A70008D870E9419248F830E94E32388870E94F8
:102A8000F6239885892B8887E881F981C8018A5FB8
:102A90009E4F309719F06C897D890995F092A303B8
:102AA000E092A2030AC0882341F08989882329F093
:102AB000C8018A5F9E4F0E947B1481E0DF91CF9115
:102AC0001F910F91FF90EF900895CF92DF92EF92B8
:102AD000FF920F931F93CF93DF938091D3028F3F89
:102AE000F1F1F12C96E1E92E0F2D10E08091D30247
:102AF000082E000C990B801791078CF1E09EF001D5
:102B0000E19EF00D1124E050FF4FC288D388C1141C
:102B1000D10419F488ECC82ED12CE09EE001E19E8E
:102B2000D00D1124C050DF4F8E818823B1F08D85E8
:102B30009E850E947226C816D90678F4898981116B
:102B400003C0CE010E942F14E09EC001E19E900DB3
:102B500011248A5F9E4F0E947B14F394C5CFDF91AE
:102B6000CF911F910F91FF90EF90DF90CF9008953C
:102B70002EB1342F309523233EB1432B3FB7F89429
:102B8000FC01680F791FE617F70789F0819198E03B
:102B90004EB9000000C087FF2EB9880F000000C0AA
:102BA00000C000C02EB900C09A9591F7ECCF3FBF8E
:102BB00008952DB1242B2DB99B01220F331F620FD5
:102BC000731F0E94B81587EC90E00197F1F700C0E1
:102BD0000000089544E00C94D9150F931F93CF93F0
:102BE000DF93C62FD42F122FFC0182818823C9F0D6
:102BF0006093A6030E9466269093A5038093A40386
:102C000080E28C0F883008F057C0C77081E001C0A7
:102C1000880FCA95EAF7DF91CF911F910F910C941D
:102C2000931A8091A603681330C08091A4039091F9
:102C3000A5030E947226883C910538F500E20D0F2D
:102C4000CD17B9F080E28C0F883040F4C77081E076
:102C500001C0880FCA95EAF70E949A1A083028F531
:102C600081E09D2F977001C0880F9A95EAF70E9426
:102C7000931A812F0E94801A0830F0F4D77081E0F7
:102C800001C0880FDA95EAF70AC080E28C0F88301D
:102C900098F4C77081E001C0880FCA95EAF7DF9108
:102CA000CF911F910F910C949A1A812FDF91CF91A0
:102CB0001F910F910C94801ADF91CF911F910F916A
:102CC00008959C01CB01233F4CE53407F9F078F4DB
:102CD000283DFCE53F07B9F0293D4CE5340711F1EB
:102CE000273D3C4531F526E241EE61EE1EC0253F11
:102CF000FCE53F0799F070F0263F3C45D1F427E210
:102D000045EE66EE12C027E245EE0EC026E241EE29
:102D100060EE0BC027E245EE64EE07C026E241EE0E
:102D200062EE03C028E241E065EE0E94ED1580E00E
:102D30000895FC018281882319F01092A60308955A
:102D400081E00895CF93DF93EC01FB01828188231A
:102D500009F41FC1C230FCE5DF0708F41BC1C6310E
:102D60009CE5D90738F09E012A5F3C4529303105A2
:102D700008F010C10E94EC249093AB048093AA0445
:102D8000C031ECE5DE0709F4C3C008F041C0C8302B
:102D90008CE5D80709F49AC0F0F4C430ECE5DE07FE
:102DA00009F487C068F4C2308CE5D80709F477C00D
:102DB000C330DC4509F0E3C08091AA04826076C08C
:102DC000C630ECE5DE0709F46EC008F07BC08091E8
:102DD000AA0488606BC0CC308CE5D80709F485C0A4
:102DE00068F4CA30ECE5DE0709F474C008F079C075
:102DF0000E94751D8091AA04806858C0CE308CE571
:102E0000D80709F476C008F07FC08091AA048BC06F
:102E1000CB3FECE5DE0709F44FC018F5C3318CE574
:102E2000D80709F47DC078F4C131ECE5DE0709F478
:102E300073C0C231DC4509F0A2C00E94751D8091AB
:102E4000AA048F7733C0C5318CE5D80709F472C066
:102E500008F486C0CA3FDC4509F091C08091AB04FC
:102E60003EC0CF3FFCE5DF0709F45FC058F4CD3F1B
:102E70009CE5D90709F444C008F43FC08091AB0435
:102E800082602DC0C130FDE5DF0709F475C008F48C
:102E90005DC0C230DD4509F072C080E06EC0809137
:102EA000AA04816003C08091AA0480618093AA046F
:102EB00066C08091AA0411C08091AB0482608093A7
:102EC000AB045DC08091AA048062F0CF8091AA0417
:102ED0008064ECCF8091AA0488608460E7CF816031
:102EE000EECF8091AA048E7FE1CF8091AA048D7FDE
:102EF000DDCF8091AA04877FD9CF8091AB0418C021
:102F00008091AB048D7FDBCF8091AA048F7ECECFE2
:102F10008091AA048F7DCACF8091AA048F7BC6CFEF
:102F20008091AA04877F8B7FC1CF8091AB048D7F76
:102F30008E7FC5CF8091AA0482FB222720F991E0E1
:102F4000922790FB82F990FB83F9B0CF8091AB047C
:102F5000982F909591708E7F892B90FB81F9AFCF40
:102F60000E94751D8091AA0487FB222720F991E019
:102F7000922790FB87F99ACF81E00E94702580917B
:102F8000AA049091AB040E94FD240E94751D80E06C
:102F900001C081E0DF91CF910895CF93DF93863117
:102FA0009C4571F5EB010E94E323982F917119F470
:102FB000982F9A7A01C090E08A812091D4023091B2
:102FC000D502882379F081E0911101C080E08093DF
:102FD000A703911102C069E201C065E3C9010E9423
:102FE000B7250AC08091A703811102C069E201C020
:102FF00065E3C9010E94B9250E94432480E001C015
:1030000081E0DF91CF9108959093AD038093AC035D
:103010000895E091AC03F091AD03309721F0019059
:10302000F081E02D099480E00895E091AC03F091E7
:10303000AD03309721F00280F381E02D09940895CB
:10304000E091AC03F091AD03309739F022E0DC0160
:103050002C930480F581E02D099408952091AA0312
:103060003091AB032817390771F09093AB0380932D
:10307000AA03E091AC03F091AD03309721F00680F4
:10308000F781E02D099408952091A8033091A903B8
:103090002817390771F09093A9038093A803E09152
:1030A000AC03F091AD03309721F00084F185E02D61
:1030B0000994089585B7806885BF85B7806885BF06
:1030C000089508950C9461180C9462180C9461187A
:1030D0000C9461180E945A180E9466180C94641887
:1030E00081E008950E945D260E946E0B0E94FC26DE
:1030F0000E94BE120C9468187F928F929F92AF929A
:10310000BF92CF92DF92EF92FF920F931F93CF93D4
:10311000DF93CDB7DEB72A970FB6F894DEBF0FBEA8
:10312000CDBF0E94C00B0E947018811111C08FEF9B
:1031300089838A831B820E9466268160782F9D8303
:103140008C8349815A816B818D810E942E194FC0D9
:103150004FEAA42E43E0B42E00E010E0702E802F42
:103160000E94600B6C01F501819091905F018826AF
:1031700099268114910431F40F5F1F4F053011051A
:1031800069F7D5CF80913E0481FD0E94690B80E0F4
:10319000EE24E394F12C94012E213F21232B09F1FD
:1031A0008E837F82CE20DF2081E0CD2809F480E06D
:1031B00088870E9466268160782F9A8789874E814A
:1031C0005F8168858A850E942E19000F111FF80102
:1031D000E155FC4F80819181E826F926F182E08259
:1031E00006C08F5FEE0CFF1C8F30A9F6C5CF0E9482
:1031F000F6120E948E280E9409189091AE0389173A
:10320000C9F00E9409188093AE032A960FB6F8946D
:10321000DEBF0FBECDBFDF91CF911F910F91FF9009
:10322000EF90DF90CF90BF90AF909F908F907F9066
:103230000C94E7082A960FB6F894DEBF0FBECDBFF8
:10324000DF91CF911F910F91FF90EF90DF90CF9082
:10325000BF90AF909F908F907F900895CF93DF9312
:10326000CDB7DEB72B970FB6F894DEBF0FBECDBF3C
:103270004F83588769877A878B87DE01119686E0AE
:10328000FD0111928A95E9F785E0FE0137960190DC
:103290000D928A95E1F70E94B123882319F082E00C
:1032A0000E94B5240E94842381110E943524498103
:1032B0005A816B817C818D819E810E947F202B961B
:1032C0000FB6F894DEBF0FBECDBFDF91CF9108954A
:1032D000FC01808191810E9453230895CF9388231C
:1032E00009F4A4C0C82F8238C1F40E94091881FDD6
:1032F0009DC069E38091D4029091D5020E94B725C8
:103300000E9443242FEF81EE94E0215080409040B2
:10331000E1F700C0000069E319C0833801F50E949D
:10332000091880FD83C063E58091D4029091D50295
:103330000E94B7250E9443242FEF81EE94E0215094
:1033400080409040E1F700C0000063E58091D40226
:103350009091D5020E94B925CF910C9443248438D2
:10336000C1F40E94091882FD61C067E48091D40213
:103370009091D5020E94B7250E9443242FEF81EE41
:1033800094E0215080409040E1F700C0000067E4E5
:10339000DDCF8CEF8C0F813AD0F46C2F8091D4026A
:1033A0009091D5020E948125882349F06C2F80914D
:1033B000D4029091D5020E94B9250E9443246C2F1B
:1033C0008091D4029091D5020E94B725C5CF80E2AA
:1033D0008C0F883048F4C77081E001C0880FCA950F
:1033E000EAF70E94E623B8CFEBE5EC0FE33040F4B8
:1033F000F0E0EB58FC4F808190E0CF910C942E18B8
:10340000E8E5EC0FE73150F4F0E0EE0FFF1FE95B69
:10341000FC4F80819181CF910C944418C03F30F0D3
:103420008C2F0E949627CF910C948328CF910895DA
:10343000882309F464C0823879F40E94091881FF56
:103440005EC069E38091D4029091D5020E94B725B5
:103450000E94432469E310C08338B1F40E94091824
:1034600080FF4DC063E58091D4029091D5020E9407
:10347000B7250E94432463E58091D4029091D50240
:103480000E94B9250C944324843879F40E940918C9
:1034900082FF35C067E48091D4029091D5020E94EA
:1034A000B7250E94432467E4E7CF9CEF980F913A39
:1034B00010F4682FE1CF90E2980F983050F48770A5
:1034C00091E001C0990F8A95EAF7892F0E94EC23B9
:1034D000D9CF9BE5980F933020F480E090E00C94D6
:1034E0002E1898E5980F973120F480E090E00C9426
:1034F0004418803F20F00E94FE270C9483280895F2
:10350000CF93C82F0E946E19C93349F42FEF87EE6D
:1035100093E0215080409040E1F700C000008C2FE4
:10352000CF910C94181A882321F00E94E6230C9462
:1035300043240895882321F00E94EC230C94432413
:103540000895CF92DF92EF92FF920F931F93CF9344
:10355000DF937C01062FC72FFC01D581D295DF7048
:10356000128111110E9406240E94DC23882379F025
:10357000112369F080E2800F883048F082E00E94D9
:10358000B5240E94DC2391E0D82ED92601C0D12C8D
:10359000CC2EC2948FE0C8228C2D90E0FC01EB5819
:1035A000FF4F0C94CA308C2F807FCF70882311F08E
:1035B000C295C07F112399F0CC2309F4ECC180E2BD
:1035C000800F883010F0011104C08C2F0E94E62378
:1035D00003C08C2F0E94F9230E944324DCC1802F5A
:1035E0000E94181ACC2309F4FCC180E2800F8830B5
:1035F00010F0011104C08C2F0E94EC2303C08C2F0B
:103600000E94FF230E944324ECC18C2F807FCF7047
:10361000803211F0C295C07F002319F0013059F1BA
:1036200034C01123B1F0DD2381F0D13031F40E9498
:1036300019248C2B0E942124D4C1D33031F40E9450
:1036400035248C2F0E94812424C00E9419248C2BA5
:1036500021C0DD2369F0D13041F40E94E3238C23A3
:1036600009F4BFC10E948A2403C0D33009F4B9C150
:103670000E9435241FC0112321F0D43008F0B1C1BD
:1036800008C0D33008F0ADC115C0112331F0D111FD
:1036900082C18C2F0E94931AA4C1DD2359F00933F3
:1036A00009F08BC1FFEF27EE83E0F150204080400E
:1036B000E1F781C18C2F0E949A1A93C18C2F8695B5
:1036C0008695837019F0813061F08BC1112321F050
:1036D000802F9C2F937002C080E090E00E942E18F3
:1036E00088C1112321F0802F9C2F937002C080E0AD
:1036F00090E00E9444187DC11123F9F0053F51F07C
:10370000063F71F0043FA9F48091A4049091A504B0
:1037100081600BC08091A4049091A504826005C0D3
:103720008091A4049091A50484609093A504809353
:10373000A404802F0E9496271EC0053F51F0063F2B
:1037400071F0043FA9F48091A4049091A5048E7FA8
:103750000BC08091A4049091A5048D7F05C0809139
:10376000A4049091A5048B7F9093A5048093A40456
:10377000802F0E94FE270E9483283BC18C2F8370DC
:1037800009F045C0111131C1402F4295469547704F
:10379000440F440F602F6F70862F90E0A0E0B0E0E0
:1037A000042E04C0880F991FAA1FBB1F0A94D2F7CA
:1037B00004FF10C00FE010E020E030E004C0000F74
:1037C000111F221F331F4A95D2F70095109520959F
:1037D000309503C000E010E09801C695C695C3700F
:1037E000BC01CD01602B712B822B932BC23049F091
:1037F00058F4C13019F00E94D021F7C00E94BE21B8
:10380000F4C00E94E221F1C00E94BC21EEC011234D
:1038100019F08C2F817001C08695882309F4E5C0CA
:10382000402F429546954770440F440F602F6F70AC
:10383000862F90E0A0E0B0E0042E04C0880F991F0E
:10384000AA1FBB1F0A94D2F704FF10C00FE010E0BC
:1038500020E030E004C0000F111F221F331F4A95E3
:10386000D2F7009510952095309503C000E010E048
:103870009801C695C695C370BC01CD01602B712B14
:10388000822B932BC23049F058F4C13019F00E94BA
:103890009522ABC00E948322A8C00E94A722A5C087
:1038A0000E94F621A2C0CF70112339F08C2F0E9404
:1038B0001C22802F0E94931A98C0802F0E949A1A6F
:1038C0008C2F0E943D2291C0023F01F128F4003F5D
:1038D00041F0013FA1F05AC0033FF9F0043F39F134
:1038E00055C0112341F0D33008F07BC08C2F8F716D
:1038F0000E94622276C0D43008F073C0F7CF112343
:1039000039F08C2F8F710E941C226BC01123C9F3D8
:103910008C2F8F710E943D2264C0112329F08C2FBF
:103920008F710E9407225DC00E9402225AC011239B
:10393000C9F00E9481230E94EC230E94AD238430B1
:1039400039F40E94AC248C2F8F710E943D226CC0F0
:10395000D33008F069C0CF718C2F0E941C2263E025
:103960008C2F0DC00E9481230E94E623D33050F09B
:103970000E94AC240E948A2464E08C2F8F710E94E4
:10398000962452C081E00E94B5244EC0112339F024
:10399000DD2309F4B6CF802F0E946E1922C0DD23EB
:1039A00009F4B6CF093349F49FEFE7EEF3E0915005
:1039B000E040F040E1F700C00000802F0E94181A9C
:1039C00010C04C2F4F70602FC7010E9452090E94F7
:1039D0002D210FC04C2F4F70602FC7010E94550939
:1039E00008C088EF8C0D843020F40E9409180E94D2
:1039F000E708DD20D9F00E94AD2380FD17C0F70154
:103A000012820E94A7230E941C22C7010E941F1D30
:103A10000E94A723DF91CF911F910F91FF90EF900C
:103A2000DF90CF900C943D22D12CDFCFDF91CF914E
:103A30001F910F91FF90EF90DF90CF9008950F931B
:103A40001F93CF93DF93EC01988189812B813C8177
:103A5000232B31F08F3F31F481E09F3F19F403C0F5
:103A600081E001C080E080FD13C0CE010E9400090A
:103A7000882371F0688179818A810E945E238C019C
:103A80000E94B9220E94AA21B801CE010E94A11A67
:103A9000DF91CF911F910F910895882321F00E940B
:103AA000F9230C9443240895882321F00E94FF23D6
:103AB0000C94432408950E9406240E9416240E9418
:103AC00043240E94AD290E94832880E090E00E9458
:103AD0002E1880E090E00C9444188091D4029091CC
:103AE000D5020E94BB250C945B1D0E94F3230C940D
:103AF0006D1DE92FE295EF704E2F50E0FA013297DD
:103B0000EE30F105B0F4EB57FF4F0C94CA30803F14
:103B100091F018F4883E68F40EC0843F51F40BC055
:103B2000883E48F0813F29F406C093FB882780F93E
:103B3000089580E0089581E008950E9453230E9433
:103B4000791D0895CF93DF9300D000D01F92CDB799
:103B5000DEB70F900F900F900F900F90DF91CF91E5
:103B60000895CF93DF9300D000D000D0CDB7DEB75B
:103B700026960FB6F894DEBF0FBECDBFDF91CF9172
:103B800008951F93CF93DF93C091BA0316E08091FD
:103B9000BB03C81799F0D0E01C9FF0011D9FF00DEA
:103BA0001124E454FC4F40815181628173818481EE
:103BB00095810E94B11D2196C770E9CFDF91CF9109
:103BC0001F9108954091EC035091ED036091EE0335
:103BD0007091EF038091F0039091F1030C94B11D6B
:103BE0002091BA039091BB0356E02917A9F030E069
:103BF000529FF001539FF00D1124E454FC4F71814A
:103C0000761306C07081781303C07281741306C0E6
:103C10002F5F3F4F2770E9CF80E0089581E008953E
:103C2000CF938091F10382958F7009F05FC08091EE
:103C3000EE03882309F45AC08091BA03B091BB0304
:103C40007091EC03A091ED034091EF035091F003CC
:103C500091E07F3F09F090E0692FC6E08B1709F4EF
:103C600045C04115510521F0AF3F21F020E003C0D0
:103C700021E001C0262F90E020FD35C0C89FF00153
:103C8000C99FF00D1124E454FC4F21812A132BC04D
:103C90002081271328C02281211125C0238134814E
:103CA0002417350710F421503109241B350B283C0B
:103CB0003105C8F42091F1032F7020612093F103A6
:103CC00026E0289FF001299FF00D1124EF53FC4FAF
:103CD00080818F70806180838CEE93E00E941F1D35
:103CE000CF910C94C11D01968770B8CFCF910895E4
:103CF0009F92AF92BF92CF92DF92EF92FF920F937B
:103D00001F93CF93DF93CDB7DEB761970FB6F894CB
:103D1000DEBF0FBECDBF7C0185E0F701DE011D9641
:103D200001900D928A95E1F7D701DC9011960C91E4
:103D300011971296CC903091EC034091ED03809155
:103D4000EF039091F003009731F04F3F31F421E001
:103D50003F3F19F403C021E001C020E020FD9FC1D6
:103D6000F701A380B4809090EE03992009F42BC151
:103D70002091F103A816B90628F0B501681B790B4C
:103D8000CB0104C0809590958A0D9B1D11E0883C65
:103D9000910590F010E0207F09F0DBC07A2DB98A00
:103DA000A88A4D2D502F6C2D89890E94A21D8CEE62
:103DB00093E00E941F1D6BC1822F807F09F091C08C
:103DC000041315C0D31213C01C2DC11010C02F70C6
:103DD00020612093F1030E94E21D8CEE93E00E948B
:103DE0001F1D8091F103D70115968C9375C1A11405
:103DF000B10439F00F3F39F481E0BFEFDB1203C0AB
:103E000003C081E001C080E080FD03C081E08C251B
:103E100002C080E090E080FF15C04C2D602F8D2DFA
:103E20000E94F01D882371F08CEE93E00E941F1D0C
:103E3000ECEEF3E086E0DF011D928A95E9F70E943F
:103E4000E21D4DC0AB2839F00F3F39F481E0BFEFE0
:103E5000DB1203C003C081E001C080E080FD03C02D
:103E600081E08C2502C080E090E0E82FE170BE2E5A
:103E700080FF2CC04C2D602F8D2D0E94F01D182F1F
:103E8000811124C0DD860E878D859E850E94532377
:103E9000292F22952F70223018F0243090F405C07D
:103EA0009F7059F0811109C017C19F7031F0D7017F
:103EB00015969C91907F09F40FC1805E883008F4BC
:103EC0000BC1C7010E941F1D1B2D06C11C2DCC203C
:103ED00009F402C18091F10381608093F10310E045
:103EE000FBC0041309C0D31207C0C11005C08091E4
:103EF000F103F7018583A5C0DD860E878D859E853C
:103F00000E949D1D882379F1CC2069F12091F10355
:103F1000822F82958F7090E0029774F08091EC036D
:103F20009091ED0398878F831986BB86AA862C878C
:103F3000CE0107960E941F1D86E0F701ACEEB3E0AC
:103F400001900D928A95E1F70E94101E0E94E21DD9
:103F50000DC0041769F0DD860E878D859E850E9451
:103F60009D1D811119C0C7010E941F1D11E0B4C021
:103F7000D312F1CFC110EFCF8091F103F701858308
:103F8000C7010E941F1D86E0ECEEF3E0DF011D92E9
:103F90008A95E9F7192DA0C0CC2029F32091F103CF
:103FA000822F82958F7090E0029734F28091EC031B
:103FB0009091ED039A8389831B82BD82AC822E830C
:103FC000CE010196B7CFA816B90628F0F501E81B77
:103FD000F90BCF0104C0809590958A0D9B1D883CFC
:103FE000910558F010E07A2DB98AA88A4D2D502FEE
:103FF0006C2D89890E94A21D4AC01C2DCC2009F479
:10400000B2CF041333C0D31231C02091F10320FD8D
:1040100024C0822F82958F70482F50E041155105A2
:10402000E1F0D70115962C9315974F30510549F0C3
:104030008F5F982F9295907F822F8F70892B159686
:104040008C93C7010E941F1D86E0F701ACEEB3E020
:1040500001900D928A95E1F73DC086E0F701ACEE44
:10406000B3E001900D928A95E1F736C0DD860E87A8
:104070008D859E850E949D1D81115ECF8091F103EB
:1040800081608093F103C7010E941F1D25C0ECEEE3
:10409000F3E086E0DF011D928A95E9F71BC0CC2092
:1040A00009F461CFDD860E878D859E850E949D1D5A
:1040B000182F882309F457CF86E0F701ACEEB3E060
:1040C00001900D928A95E1F78CEE93E00E946819B9
:1040D0000E94101E0E94E21D812F61960FB6F89477
:1040E000DEBF0FBECDBFDF91CF911F910F91FF902B
:1040F000EF90DF90CF90BF90AF909F9008951F9367
:10410000CF93DF93CDB7DEB72C970FB6F894DEBF11
:104110000FBECDBF4F83588769877A878B879C876F
:10412000CE0107960E94781E8823D1F09F81888552
:104130002A853B85232B31F08F3F31F481E09F3F6F
:1041400019F403C081E001C080E080FD47C04F81C9
:10415000588569857A858B859C850E94B11D3EC0F6
:1041600086E0FE013796DE01119601900D928A9548
:10417000E1F7FF81E8856A857B856115710531F07E
:10418000EF3F31F481E0FF3F19F403C081E001C04B
:1041900080E080FD23C02091BB0330E0C90101967F
:1041A000877099274091BA0350E084179507F1F181
:1041B000F983EA837D836C8396E0929FD001939F7D
:1041C000B00D1124A454BC4FFE01319601900D9204
:1041D0009A95E1F78093BB030E94C11D16E0809180
:1041E000BA039091BB03891771F1189FC001112484
:1041F00084549C4F0E94781E882329F1E091BA03D1
:104200001E9FF0011124E454FC4F408151816281D2
:104210007381848195810E94B11D8091BA0390E0E1
:104220000196877099278093BA03D9CF0E94751D94
:104230001092BB031092BA03ECEEF3E086E0DF01CC
:104240001D928A95E9F72C960FB6F894DEBF0FBE43
:10425000CDBFDF91CF911F910895EF92FF920F9301
:104260001F93CF93DF938C01892B09F46CC0F12C41
:10427000EE24E394E8012196F8018491843740F418
:10428000843008F051C0813081F0823019F15BC078
:10429000853709F444C0A8F19CE7980F903708F0DF
:1042A00052C08F770E94181A41C00E5F1F4FFE0147
:1042B000849190E2980F983050F48770FE2D01C0E1
:1042C000FF0F8A95EAF78F2F0E94092414C00E94DD
:1042D0006E192DC00E5F1F4FFE01849190E2980F62
:1042E000983060F48770FE2D01C0FF0F8A95EAF7C1
:1042F0008F2F0E940F240E94432419C00E94181A75
:1043000016C00E5F1F4FFE01C491CC2381F08FE9D0
:104310009FE00197F1F700C00000C150F6CF0E5F9B
:104320001F4FFE01F49003C00E946E198E018F2D65
:10433000882309F49FCFEFE9FFE03197F1F700C040
:1043400000008150F5CFDF91CF911F910F91FF9029
:10435000EF900895089508950C94AB210C94AC212E
:104360000E94AE21609328047093290480932A044C
:1043700090932B040C945B1D0C94B0210F931F930E
:10438000009128041091290420912A0430912B04D3
:10439000602B712B822B932B1F910F910C94B021CA
:1043A0000F931F93009128041091290420912A044F
:1043B00030912B0460237123822393231F910F914B
:1043C0000C94B0210F931F9300912804109129049D
:1043D00020912A0430912B0460277127822793278C
:1043E0001F910F910C94B0210C94AB210E94F421E9
:1043F00060932404709325048093260490932704EB
:104400000C945B1D60E070E0CB010C94F6210F93DF
:104410001F9341E050E060E070E08A019B0104C01E
:10442000000F111F221F331F8A95D2F7C901B8014F
:104430001F910F910C94F6210F931F9341E050E0D0
:1044400060E070E004C0440F551F661F771F8A9517
:10445000D2F78091240490912504A0912604B09174
:1044600027048A019B01082B192B2A2B3B2BC901FE
:10447000B8011F910F910C94F6210F931F9341E007
:1044800050E060E070E004C0440F551F661F771FC6
:104490008A95D2F740955095609570958091240447
:1044A00090912504A0912604B09127048A019B01D4
:1044B000082319232A233B23C901B8011F910F9117
:1044C0000C94F6210F931F9341E050E060E070E000
:1044D00004C0440F551F661F771F8A95D2F780913D
:1044E000240490912504A0912604B09127048A0108
:1044F0009B01082719272A273B27C901B8011F91CB
:104500000F910C94F6210F931F93009124041091A6
:1045100025042091260430912704602B712B822BD7
:10452000932B1F910F910C94F6210F931F930091E1
:10453000240410912504209126043091270460233F
:104540007123822393231F910F910C94F6210F93D3
:104550001F9300912404109125042091260430918A
:10456000270460277127822793271F910F910C94AE
:10457000F62108952FE0929F800D1124E82FE695F3
:10458000E695E695877051E001C0550F8A95EAF7E8
:1045900085E0E89FF0011124EE50FC4F20E030E070
:1045A00070E04081CB01022E02C0969587950A9457
:1045B000E2F78170819584278523842781932F5F7B
:1045C0003F4F2530310569F708952FE0929F800D08
:1045D0001124682F669566956695982F977085E0EB
:1045E000689FB001112440E050E080E0FB01E40F3F
:1045F000F51FEE50FC4F208130E0092E02C03695A9
:1046000027950A94E2F721703327042E01C0220F68
:104610000A94EAF7822B4F5F5F4F4530510531F71F
:104620000895BF92CF92DF92EF92FF920F931F9364
:10463000CF93DF938C01C0902404D0902504E090A8
:104640002604F09027048091280490912904A091D9
:104650002A04B0912B04C82AD92AEA2AFB2ACFE1DE
:10466000D0E0D701C6010C2E04C0B695A79597954A
:1046700087950A94D2F780FD04C0219790F7B12C5A
:1046800007C0BC2EB8018C2F0E9471090197A9F3B5
:104690008B2DDF91CF911F910F91FF90EF90DF90C5
:1046A000CF90BF900895CF93DF93EC010E94112328
:1046B000BE010E947109DF91CF9108951F93CF939E
:1046C000DF93EB019091B903992321F0CB010E9474
:1046D000532313C0882349F0CB010E941123182FC4
:1046E000682FCE010E94BA2204C0CB010E94E522AD
:1046F000182FBE01812F0E947109DF91CF911F9168
:1047000008958091310408950E94662620912F0417
:10471000309130048217930750F00E946626209152
:104720002F0430913004821B930B9C010AC00E941D
:10473000662620912F043091300420953095280F63
:10474000391F81E02E3E324008F480E008958091C8
:104750002E04859585958595089580912E04877002
:1047600008950E94662620912C0430912D04821712
:104770009307A8F00E94662620912C0430912D0406
:10478000821B930B8E3E924010F480E013C0809108
:104790002E0482FB882780F991E089270BC00E94B4
:1047A000662620912C0430912D0420953095820F9F
:1047B000931FE8CF8170089590912E04977081E047
:1047C00009F480E0089580913D04089590913D049E
:1047D000892B80933D040895809590913D04892311
:1047E00080933D04089510923D04089580913C0407
:1047F000089590913C04892B80933C040895809502
:1048000090913C04892380933C04089510923C04C9
:10481000089590913B04892B80933B0408958095E3
:1048200090913B04892380933B04089510923B04AC
:10483000089580913204089508950C941C240C94DA
:104840001D24CF9390913204981769F0C82F0E94CD
:1048500066269093300480932F04C09332048C2FEB
:10486000CF910C941F24CF91089580913204882316
:1048700049F0109232041092300410922F0480E01C
:104880000C941F240895E091D402F091D5028091F8
:104890003D048083E091D402F091D5029081809113
:1048A0003C04892B8083E091D402F091D502908161
:1048B00080913B04892B8083809132048823B9F056
:1048C0000E94842381110E943524E091D402F0914A
:1048D000D502908180913204892B80838091D4020B
:1048E0009091D5020E94752581110E9435248091F6
:1048F000D4029091D5020C9415180C941C240C949D
:104900007D2490913104981721F0809331040C9408
:104910007F24089580913104882329F01092310476
:1049200080E00C947F2408950C941C2498E0899FC7
:1049300090011124262B20932E040E941C220E94F9
:10494000662690932D0480932C0480912E048595E7
:10495000859585950C94942410922E0410922D0424
:1049600010922C0480E00C94942420912E048095C5
:10497000822380932E04982F977079F430E0482F8B
:10498000082E000C550B2417350739F085958595B1
:1049900085950E943D220C94AC2408956FEF7FEF23
:1049A00080E090E00C940F3180E090E00E94EB30CA
:1049B00021E08C3E9E4F09F020E0822F089582E096
:1049C00090E00C94DD3083E090E00C94DD30682FB3
:1049D00083E090E00C94F130CF9384E090E00E946B
:1049E000DD30C82F81E290E00E94DD302C2F30E0D6
:1049F000A901582BCA01CF910895CF93C92F682FD1
:104A000084E090E00E94F1306C2F81E290E0CF9141
:104A10000C94F130AB01BC018FE090E00C940331B9
:104A200060E070E0CB010E940A250C9473076CEEE5
:104A30007EEF80E090E00E940F3160E082E090E045
:104A40000E94F13060E083E090E00E94F13010922B
:104A500028041092290410922A0410922B0460E07A
:104A600084E090E00E94F13060E081E290E00E94FA
:104A7000F13060E085E090E00E94F13060E086E097
:104A800090E00E94F1306FEF87E090E00E94F130FB
:104A900040E050E0BA0188E090E00E94033160E01D
:104AA0008DE090E00E94F13040E050E0BA0188E1F2
:104AB00090E00E94033160E087E190E00E94F130D5
:104AC00040E050E0BA018CE190E00E94033160E0E8
:104AD00080E290E00E94F1300C9410250C94172590
:104AE000682F8EE090E00C94F130FC01329697E054
:104AF00080E0915029F021912223D9F38F5FF9CFE3
:104B00000895662349F0FC013296089621916217B8
:104B100029F0E817F907D1F780E0089581E00895BA
:104B20009C01FC0132969FEF80E04191461789F08D
:104B30009F3F19F4411101C0982F8F5F8630A9F76C
:104B40009F3F39F0F901E90FF11D97FDFA95628356
:104B5000089508959C012A5F3F4FFC01428146134E
:104B600001C01282019682179307B9F708950C9439
:104B700090250C94AA25029626E0FC0111922A9514
:104B8000E9F7089508950C94C2250C94C225CF939B
:104B90000E94C5250E94C00B0E94C325C0E08C2F37
:104BA0000E94600B892B29F4CF5FC530C1F780E0EC
:104BB00001C081E0CF9108950C94C2250C94DC25AE
:104BC0000E94DE258091B004843009F439C010922F
:104BD0003F0420E488E190E00FB6F894A895809314
:104BE00060000FBE2093600080E00E94E7080E94F2
:104BF0000C128091400481110AC081E0809340042E
:104C000080916F048170809341040E94A7120E94DA
:104C1000DE2583B7817F846083BF83B7816083BFD4
:104C20007894889583B78E7F83BF0FB6F894A89544
:104C300080916000886180936000109260000FBED8
:104C400008950C94C2250E94751D0E9409180E94A7
:104C5000E708109240048091410481110E947B1268
:104C60000E94F1110C9421261F920F920FB60F9201
:104C700011248F939F93AF93BF9380913F04811131
:104C800013C08091A6049091A704A091A804B091AC
:104C9000A9044196A11DB11D8093A6049093A70479
:104CA000A093A804B093A904BF91AF919F918F9155
:104CB0000F900FBE0F901F90189582E084BD93E077
:104CC00095BD9AEF97BD80936E0008952FB7F89425
:104CD0008091A6049091A704A091A804B091A90482
:104CE0002FBF0895CF92DF92EF92FF920F931F9301
:104CF0002FB7F8944091A6045091A7046091A8049E
:104D00007091A9042FBF6A017B01EE24FF248C015E
:104D100020E030E0C016D106E206F30610F4415060
:104D200051099A01281B390BC9011F910F91FF905E
:104D3000EF90DF90CF90089578941F920F920FB666
:104D40000F9211248F939F93AF93BF938091A604EA
:104D50009091A704A091A804B091A9040196A11D67
:104D6000B11D8093A6049093A704A093A804B093C8
:104D7000A904BF91AF919F918F910F900FBE0F909B
:104D80001F90189581E08093E00080E28093D80026
:104D90001092C9008FE19EE40197F1F700C0000076
:104DA00087E090EBDC018093B9049093BA04A09360
:104DB000BB04B093BC049CE088E10FB6F894A895BE
:104DC000809360000FBE90936000FFCF0C94CE24C0
:104DD0000E94C00B8FE39CE90197F1F700C000002F
:104DE0000E94C00B80E00E94600B80FF04C00E9404
:104DF000E6260C94C22608950E94D424811102C094
:104E00000E946E250E94DF2480933E040E94EC24C1
:104E10009093AB048093AA040E94E324682F70E06F
:104E200080E090E00C94BC218091490480FF0BC08D
:104E30006091DB0285E0689FB0011124759567954C
:104E4000759567952BC081FF09C06091DB0285E0F5
:104E5000689FB00111247595679520C082FF07C037
:104E60006091DB0285E0689FB001112417C090912A
:104E700048049923D1F06091DA02961788F72091BF
:104E8000DB0285E0289F90011124929FA001939F4F
:104E9000500D112470E0CA010E94B63060387105CF
:104EA00040F46115710519F406C065E070E0862FC5
:104EB00008958FE7089581E008958091490480FF67
:104EC00008C06091D70270E07595679575956795F4
:104ED00021C081FF06C06091D70270E0759567958B
:104EE00019C082FF04C06091D70270E010C0909199
:104EF0004804992399F06091D6029617A0F7809103
:104F0000D702899FC001112470E00E94B63060383A
:104F1000710540F46115710519F406C061E070E097
:104F2000862F08958FE7089581E00895803F21F44A
:104F30000E941427819504C0813F29F40E94142700
:104F400080934D040895823F21F40E941427819597
:104F500004C0833F29F40E94142780934C040895D1
:104F6000893F19F40E945D2705C08A3F31F40E94F1
:104F70005D27819580934E0408958B3F21F40E9414
:104F80005D27819504C08C3F29F40E945D278093A2
:104F90004F040895843F21F480914B04816017C031
:104FA000853F21F480914B04826011C0863F21F43B
:104FB00080914B0484600BC0873F21F480914B04A7
:104FC000886005C0883F31F480914B0480618093F4
:104FD0004B0408958D3F21F48091490481600BC0FA
:104FE0008E3F21F480914904826005C08F3F29F4EF
:104FF000809149048460809349040895803F39F486
:1050000080914D0487FF6CC010924D0469C0813FB0
:1050100029F480914D041816BCF362C090914C04A1
:10502000823F29F497FF5CC010924C0459C0833F23
:1050300019F41916CCF354C0893F41F480914E0401
:1050400018160CF04DC010924E044AC08A3F29F445
:1050500080914E0487FF44C0F6CF8B3F39F4809196
:105060004F0487FF3DC010924F043AC08C3F29F493
:1050700080914F041816BCF333C0843F21F4809113
:105080004B048E7F17C0853F21F480914B048D7FA8
:1050900011C0863F21F480914B048B7F0BC0873F6A
:1050A00021F480914B04877F05C0883F31F48091C3
:1050B0004B048F7E80934B0413C08D3F21F480916D
:1050C00049048E7F0BC08E3F21F4809149048D7F6F
:1050D00005C08F3F29F4809149048B7F8093490458
:1050E00080914C0481110EC080914D0481110AC041
:1050F00080914E04811106C080914F04811102C03D
:105100001092480408958AE494E00E9420180E94B6
:10511000662690934704809346040895CF93DF93C7
:1051200000D000D000D0CDB7DEB786E0EAE4F4E0EE
:10513000DE01119601900D928A95E1F780914C0461
:10514000811105C080914D04882309F47AC08091B3
:105150004404909145040E947226AC019091480449
:10516000992339F02091DC0230E02417350758F0FC
:1051700068C02091DD028AE0289F90011124241745
:10518000350718F05EC09F3F19F09F5F9093480469
:1051900010924E0410924F0480914C04181624F47F
:1051A0000E94142780934C0480914C0487FF05C013
:1051B0000E941427819580934C0480914D04181609
:1051C00024F40E94142780934D0480914D0487FF9E
:1051D00005C00E941427819580934D0430914C04A2
:1051E0003323E1F020914D042223C1F045EB340339
:1051F000C0011124992319F090934C0403C081E05D
:1052000080934C0435EB2303C0011124992319F03A
:1052100090934D0403C081E080934D040E94832845
:1052200080914604909147049093450480934404F0
:1052300086E0FE013196AAE4B4E001900D928A95D1
:10524000E1F780914E04811105C080914F048823BD
:1052500009F47AC080914204909143040E9472261E
:10526000AC0190914804992339F02091D80230E0A4
:105270002417350758F068C02091D9028AE0289F8A
:10528000900111242417350718F05EC09F3F19F0D4
:105290009F5F9093480410924C0410924D048091AB
:1052A0004E04181624F40E945D2780934E048091CA
:1052B0004E0487FF05C00E945D27819580934E04B0
:1052C00080914F04181624F40E945D2780934F04A8
:1052D00080914F0487FF05C00E945D2781958093D0
:1052E0004F0430914E043323E1F020914F042223E8
:1052F000C1F045EB3403C0011124992319F09093B8
:105300004E0403C081E080934E0435EB2303C001BB
:105310001124992319F090934F0403C081E08093E6
:105320004F040E94832880914604909147049093F3
:1053300043048093420486E0FE013196AAE4B4E07F
:1053400001900D928A95E1F726960FB6F894DEBF8C
:105350000FBECDBFDF91CF910895EAE4F4E086E07F
:10536000DF011D928A95E9F71092480410924904D2
:105370000895809158040895CF93DF9300D01F9231
:10538000CDB7DEB79091B004943019F589837B8353
:105390006A8382E08093E9008FEF9091E80081506A
:1053A00095FD06C095ED9A95F1F700008111F5CFB6
:1053B0008091E80085FF0DC040E050E063E070E0C0
:1053C000CE0101960E94042C8091E8008E77809394
:1053D000E8000F900F900F90DF91CF910895CF9339
:1053E000DF93EC010E94E72B823011F0843031F41E
:1053F000BE0184E0DF91CF910C94BC29DF91CF9165
:105400000895BC0183E00C94BC29CF93DF93EC0199
:105410000E94E72B823011F08430F9F482E080930F
:10542000E9008FEF9091E800815095FD06C095ED61
:105430009A95F1F700008111F5CF8091E80085FF82
:105440000CC040E050E066E070E0CE010E94042C09
:105450008091E8008E778093E800DF91CF910895E6
:10546000CF93DF93EC010E94E72B823011F0843060
:1054700039F581E08093E9008FEF9091E800815049
:1054800095FD06C095ED9A95F1F700008111F5CFD5
:105490008091E80085FF14C040E050E068E070E0D3
:1054A000CE010E94042C8091E8008E778093E80062
:1054B00088E0FE01A0E5B4E001900D928A95E1F745
:1054C000DF91CF9108958091AF04811109C00E94AE
:1054D000952D0E94F22D8091E20084608093E2007D
:1054E00008951092AF040895089508950C9423260A
:1054F00042E061EC81E00E940E2D42E261EC82E02C
:105500000C940E2D8091B204833009F460C030F405
:10551000813071F0823009F499C008958A3009F41D
:1055200085C08B3009F46BC0893009F0A7C020C05A
:105530008091B104813A09F0A1C08091E800877F91
:105540008093E8008091B5049091B604892B21F4F2
:1055500068E080E594E003C060E080E090E070E007
:105560000E944F2C8091E8008B778093E80008958B
:105570008091B104813209F081C08091B50490918D
:10558000B604029708F07AC08091E800877F809384
:10559000E8008091E80082FD05C08091B00481118F
:1055A000F8CF6CC02091F3008091F20090E0922B34
:1055B000029729F48091F1008B7F813021F4809152
:1055C000F100809358048091E8008B7753C080915C
:1055D000B104813A09F052C08091B5049091B604AB
:1055E000892B09F04BC08091E800877F8093E80009
:1055F0008091E80080FFFCCF8091E80236C0809166
:10560000B1048132D9F58091B5049091B604892B0B
:10561000A9F58091E800877F8093E8000E94432DE0
:105620008091B3048093E8020C94751D8091B104BD
:10563000813221F58091E800877F8093E8000E9405
:10564000432D8091B4048093590408958091B1044E
:10565000813AA1F48091E800877F8093E8008091EF
:10566000E80080FFFCCF809159048093F100809185
:10567000E8008E778093E8000C94432D089584B75A
:10568000877F84BF0FB6F894A895809160008861E9
:1056900080936000109260000FBE90E080E80FB62B
:1056A000F89480936100909361000FBE0E946A1885
:1056B0000E94952D0E94F22D8091E20084608093DB
:1056C000E20078940E9487300E9472188EED92E07A
:1056D0000E9404188091B004853069F40E94E0258E
:1056E0008091AE048823B1F30E94C725882391F3EB
:1056F0000E94EE2BEFCF0E947C18ECCF0C94802BF5
:10570000292F332723303105C9F060F421303105CA
:1057100081F02230310509F04AC08BE390E021E4AA
:1057200039E049C02132310511F12232310579F1D8
:105730003EC082E190E02CE739E03DC099278130FE
:10574000910561F040F08230910559F0039779F5A9
:10575000E1E0F9E008C0EDE3F9E005C0EBE2F9E0D3
:1057600002C0E7E0F9E0849190E09F0124C0611558
:10577000710541F061307105D1F489E090E02CE6CB
:1057800039E019C089E090E023E539E014C06115E3
:10579000710541F06130710551F481E890E02EE827
:1057A00039E009C080E490E02FE03AE004C080E0F6
:1057B00090E020E030E0FA01318320830895809169
:1057C000B004843011F081E0089582E00895809162
:1057D0005A04811102C00C94DF2B089580E189BD29
:1057E00082E189BD09B400FEFDCF8091D8008F7D94
:1057F0008093D8008091E00082608093E0008091E7
:10580000E00081FDFCCF0895CF92DF92EF92FF92EE
:105810000F931F93CF93DF93EC018B017A010E94CA
:10582000622D811133C0E114F10439F0F701808158
:105830009181081B190BC80FD91FC12CD12C011540
:10584000110519F18091E80085FD16C08091E800EE
:105850008E778093E800E114F10449F0F70180812C
:105860009181C80ED91ED182C08285E00FC00E94EE
:10587000622D882321F30AC089918093F1000150A1
:105880001109FFEFCF1ADF0ADACF80E0DF91CF9165
:105890001F910F91FF90EF90DF90CF90089520918E
:1058A000B7043091B8042617370748F06115710521
:1058B00039F42091E8002E772093E80001C0B90167
:1058C000FC0120E06115710579F18091B004882315
:1058D000F1F18530F1F18091E80083FD3CC08091C9
:1058E000E80082FD2EC08091E80080FFEBCF209180
:1058F000F3008091F20090E0922B6115710551F058
:105900008830910538F421912093F100615071099C
:105910000196F3CF21E0089709F020E08091E8009C
:105920008E778093E800CECF2111CFCF0AC080912F
:10593000B004882361F0853061F08091E80083FD38
:105940000AC08091E80082FFF2CF80E0089582E0F3
:10595000089583E0089581E008952091B70430917F
:10596000B8042617370748F06115710539F42091FE
:10597000E8002E772093E80001C0B901FC0120E087
:105980006115710591F18091B004882309F440C03C
:10599000853009F43FC08091E80083FD3DC08091CF
:1059A000E80082FD2FC08091E80080FFE9CF2091C0
:1059B000F3008091F20090E0922B6115710559F08F
:1059C0008830910540F424912093F1003196615084
:1059D00071090196F2CF21E0089709F020E080914B
:1059E000E8008E778093E800CBCF2111CCCF0AC09E
:1059F0008091B004882361F0853061F08091E800E7
:105A000083FD0AC08091E80082FFF2CF80E0089514
:105A100082E0089583E0089581E00895982F9730FB
:105A200068F59093E900981739F07091EC00209197
:105A3000ED005091F00003C0242F762F50E021FD9F
:105A400002C09F5FECCF3091EB003E7F3093EB00C4
:105A50003091ED003D7F3093ED003091EB003160EF
:105A60003093EB007093EC002093ED005093F00026
:105A70002091EE0027FDE5CF80E008958F708093A0
:105A8000E90081E008958091B10487FF11C0809101
:105A9000E80082FD05C08091B0048111F8CF11C0EB
:105AA0008091E8008B770BC08091B004882349F087
:105AB0008091E80080FFF8CF8091E8008E77809396
:105AC000E80008952091E4003091E50095E64091CA
:105AD000EC00842F817040FF23C08091E80080FD9E
