:100000000C9431060C9492150C9478060C94780696
:100010000C9478060C9478060C9478060C94780668
:100020000C9478060C9478060C94FB290C94CD2A39
:100030000C94DA240C9478060C9478060C947806C8
:100040000C9478060C9478060C9478060C94780638
:100050000C9478060C9442250C9478060C9478063F
:100060000C9478060C9478060C9478060C94780618
:100070000C9478060C9478060C9478060C94780608
:100080000C9478060C9478060C9478060C947806F8
:100090000C9478060C9478060C9478060C947806E8
:1000A0000C9478060C9478060C947806B806B20680
:1000B000C006C506C706C906DC06E406F0064C12F3
:1000C0004F1254125B12601265126A126F12741290
:1000D00079127E12831287128A1291129112911252
:1000E00091128D1291125319531985198519DE1920
:1000F0002F1B2F1B2F1BFC19911AA21AA21A1F1BB0
:100100002F1B2F1B281BB31BB31BC51BC51BBC1BE5
:10011000C51BC51BC51BB31BB31BC11BC51BC51B07
:10012000C11B3A2B612B592C612B592CAD2BD02B99
:10013000592C272C362C07634236B79BD8A71A397F
:10014000685618AEBAAB558C1D3CB7CC5763BD6D25
:10015000EDFD753EF6177231BF000000803F05A827
:100160004CCDB2D44EB93836A9020C50B99186881C
:10017000083CA6AAAA2ABE000000803F0101280070
:10018000010128002B0014001A00080015001700B8
:10019000E00004001600070009000A0002551D00D7
:1001A0001B00060019000500105D165CE300766474
:1001B00003542C00000000000000000000000000BC
:1001C0001C0018000C00120013002A000B000D0088
:1001D0000E000F003300340011001000360037000D
:1001E0003800310028452A445000510052004F0089
:1001F0000000000000000000000000002B001400C0
:100200001A00090013000A00E0000400150016009F
:100210001700070002551D001B000600190005000D
:10022000105D165CE300766403542C0000000000AF
:1002300000000000000000000D000F0018001C006E
:1002400033002A000B00110008000C0012003400DB
:100250000E001000360037003800310028452A44CF
:100260005000510052004F0000000000000000004C
:10027000000000002B0034003600370013001C0083
:10028000E00004001200080018000C0002553300C2
:1002900014000D000E001B00105D165CE300766478
:1002A00003542C00000000000000000000000000CB
:1002B00009000A00060015000F002A0007000B00C5
:1002C0001700110016003800050010001A00190070
:1002D0001D00310028452A445000510052004F00B3
:1002E00000000000000000000000000035024B008C
:1002F0004A0052004D0049004C004E005000510091
:100300004F0001003900A90001000100460028004B
:10031000A800AA00AC00AB000100AE000000000085
:100320000000000000000000230224022502260233
:1003300027024C001E021F02200221022202350069
:100340002E002E0201000100010001002D022D00EF
:100350002F0030002F0230020000000000000000DB
:100360000000000001000100010001000100010087
:100370000100010001000100010001000100010075
:100380000100010001000100010001000100010065
:10039000010001000000000000000000000000005B
:1003A00001004200430044004500010001003E00FE
:1003B0003F0040004100010001003A003B003C00CA
:1003C0003D000100010001000100010001000100E9
:1003D00000000000000000000000000035001E02C8
:1003E0001F022002210222023502230224022502DA
:1003F00026022702010001000100010001000100A6
:1004000000000100010001000100010000000000E7
:100410000000000000000000240025002600540019
:100420005500B200210022002300560057000100B1
:100430001E001F0020000100010001000100270034
:100440006300010001000100000000000000000046
:10045000000000000000000000000000000000009C
:10046000000000000000000000000000000000008C
:10047000000000000000000000000000000000007C
:10048000000000000000000000000000000000006C
:1009000000000000C25CC35CC85CC75CC55CC95C1D
:100910004C003B003C003D003E00CA5C0100420030
:1009200043004400450001000100010001004604AD
:10093000160A460C00000000000000000000000045
:10094000010001000100010001000E5D0100085DD1
:10095000095D010001000F5D0100010001000100BF
:100960000100010001000100010001000100005C24
:100970000000000000000000000000000000000077
:10098000000000002A2B28000000000000000000EA
:100990000000000000000029000000002C1E342090
:1009A000212224342627252E362D3738271E1F20B6
:1009B0002122232425263333362E37381F040506FB
:1009C0000708090A0B0C0D0E0F101112131415163F
:1009D0001718191A1B1C1D2F3130232D350405063D
:1009E0000708090A0B0C0D0E0F101112131415161F
:1009F0001718191A1B1C1D2F3130354C0000000030
:100A000000000000000000000000000000000000E6
:100A10007E0F00D4FFFFFFC700000078783C1E1E49
:100A2000140A05FFAA7F55400001010101010101DF
:100A30000101020202020202020202030303030393
:100A40000303030404040404040405050505050662
:100A50000606060607070707070808080809090920
:100A6000090A0A0A0B0B0B0C0C0C0D0D0D0E0E0EC9
:100A70000F0F0F101011111112121313141415155A
:100A800016161717181819191A1A1B1B1C1D1D1ECC
:100A90001E1F202021222223242425262627282920
:100AA000292A2B2C2D2D2E2F30313232333435364E
:100AB0003738393A3B3C3D3E3F404142434445464E
:100AC0004748494A4C4D4E4F50515354555658592A
:100AD0005A5B5D5E5F616264656668696B6C6D6FD1
:100AE0007072737577787A7B7D7E80828385878844
:100AF0008A8C8E8F91939596989A9C9EA0A2A3A57E
:100B0000A7A9ABADAFB1B3B5B7BABCBEC0C2C4C67E
:100B1000C9CBCDCFD1D4D6D8DBDDDFE2E4E7E9EB3A
:100B2000EEF0F3F5F8FAFDFF0403300000002403B3
:100B30004C006500760069006E0073006F006E0067
:100B400020007600330020006200790020004E0073
:100B5000520000000E034B00650065006200690052
:100B60006F0000000403090409023B00020100A019
:100B7000FA0904000001030101000921110100012B
:100B80002240000705810308000A0904010001034F
:100B9000000000092111010001226D0007058203F8
:100BA00020000A120110010000000810CB561100AD
:100BB000030102030105010980A101850319012A2E
:100BC000B700150126B700950175108100C0050C0E
:100BD0000901A101850419012AA002150126A0021C
:100BE000950175108100C005010906A10185050563
:100BF0000719E029E715002501950875018102050F
:100C000007190029EF1500250195F07501810205EE
:100C10000819012905950575019102950175039142
:100C200001C005010906A101050719E029E7150022
:100C30002501950875018102950175088101050757
:100C4000190029FF150026FF00950675088100058B
:100C50000819012905950575019102950175039102
:100C600001C011241FBECFEFDAE0DEBFCDBF04B656
:100C700003FE27C080910D0390910E03A0910F03F6
:100C8000B09110038730904BA740B04BD1F4109235
:100C90000D0310920E0310920F031092100314BE56
:100CA00084B7877F84BF0FB6F894A89580916000C1
:100CB000886180936000109260000FBEE0E0F8E36E
:100CC000099511E0A0E0B1E0EEE8F0E602C0059081
:100CD0000D92A63CB107D9F723E0A6ECB1E001C024
:100CE0001D92AD30B207E1F70E942A270C944530DF
:100CF0000C9400000C945B0BCF93DF93EC010E94EB
:100D00001223BE0180E090E0DF91CF910C94E81FA8
:100D10001F93CF93DF93CDB7DEB763970FB6F894E9
:100D2000DEBF0FBECDBF29E0ECE2F1E0DE011B9695
:100D300001900D922A95E1F72AE0E5E3F1E0DE016A
:100D4000119601900D922A95E1F788509D458930C2
:100D5000910508F04FC0FB018A5A9F4F1281FC0198
:100D60000C94EA2F112309F446C081E090E005C0FD
:100D7000112309F440C082E090E00E947C0635C057
:100D80001123C9F184E090E0F8CF83E003C084E050
:100D900001C085E0112341F00E94482045E064E055
:100DA00083E00E94C30821C00E94692045E064E0FE
:100DB00083E00E94C3081FC0112319F0CE010B96D7
:100DC00007C080E891E009C0112329F0CE01019607
:100DD0000E94FA070AC08CE791E00E946C080BC0E1
:100DE00080E1112321F00E94482010E004C00E94FD
:100DF000692001C011E0812F63960FB6F894DEBF21
:100E00000FBECDBFDF91CF911F91089581E008956E
:100E10000C9488061F93CF93DF9300D000D01F92CD
:100E2000CDB7DEB749835A836B8320910102898154
:100E30009A81211112C0662349F00E943F21182F88
:100E4000682F89819A810E94E62003C00E941221A6
:100E5000182F69817A81812F04C00E943F21698106
:100E60007A810F900F900F900F900F90DF91CF919C
:100E70001F910C944709FC0140815181628173816B
:100E800084810C940A07FF920F931F93CF93DF93F3
:100E9000E82FF0E0E458F64FF490C82FC695C695B9
:100EA000C695D0E0FE01E45FF54F0491877010E035
:100EB000082E02C0159507950A94E2F701701127D4
:100EC000FE01E450F64FC491D0E002C0D595C7951D
:100ED0008A95E2F7C170DD270115110519F081EE41
:100EE0000E94FF17209719F086EE0E94FF178F2DA2
:100EF0000E940019CD2B19F086EE0E94A118012B3B
:100F000041F081EEDF91CF911F910F91FF900C94F2
:100F1000A118DF91CF911F910F91FF900895EF924B
:100F2000FF920F931F93CF93DF93EC01162F0AE0EC
:100F30008881882309F457C0813009F045C0898130
:100F4000813051F47E0182E0E80EF11CCA818C2FC1
:100F50000E94FF178C2F12C0823049F47E01E2E01C
:100F6000EE0EF11C8A810E94FF17E7012FC083302B
:100F700041F47E01F2E0EF0EF11C8A810E94A1187B
:100F8000F4CF843011F0219621C02A81229680E08E
:100F900090E030E0205331092A30310558F4089FA1
:100FA000A001099F500D1124C901840F951F21969E
:100FB0002881EFCF009751F0EFE9FFE03197F1F78B
:100FC00000C000000197F6CF0E9443072196812FB1
:100FD000882309F4ADCFEFE9FFE03197F1F700C0C6
:100FE00000008150F5CFDF91CF911F910F91FF90BD
:100FF000EF90089560E00C948F07EF92FF920F93AB
:101000001F93CF93DF938C01F62E8AE0E82EF80130
:101010008491882309F459C0813009F044C0E80163
:101020002196FE018491813041F42196FE011491B4
:10103000812F0E94FF17812F0FC0823039F4E80101
:101040002296FE0184910E94FF1730C0833039F44C
:10105000E8012296FE0184910E94A11827C08430E5
:1010600029F5E8012296FE01249180E090E030E02D
:10107000205331092A30310560F4E89EA001E99E31
:10108000500D1124C901840F951F2196FE01249152
:10109000EECF009759F0EFE9FFE03197F1F700C08C
:1010A00000000197F6CF0E944307E8018E010F5F11
:1010B0001F4F8F2D882309F4AACFEFE9FFE0319766
:1010C000F1F700C000008150F5CFDF91CF911F9163
:1010D0000F91FF90EF90089560E00C94FD078F92C0
:1010E0009F92AF92BF92CF92DF92EF92FF920F93B7
:1010F0001F936B017C0181E090E0A0E0B0E04C0127
:101100005D0104C0880C991CAA1CBB1C4A95D2F72F
:10111000AC01BD0104C0440F551F661F771F2A95FF
:10112000D2F7482959296A297B2904C0880F991FB9
:10113000AA1FBB1F0A95D2F78A019B010C211D2112
:101140002E213F21401751076207730739F4BC0174
:10115000CD016C297D298E299F290AC08095909503
:10116000A095B095BC01CD016C217D218E219F21E0
:101170001F910F91FF90EF90DF90CF90BF90AF90B5
:101180009F908F9008950F93382F262F60916202C1
:10119000709163028091640290916502042F432F45
:1011A0000E946F080F910C9422200E948E250E94AD
:1011B000FF22811102C00E94A4230C947A060C9491
:1011C000590B08950C94E10881E008950C94E4080B
:1011D000CF93C82F0E94E2088C2F0E94E608CF917F
:1011E000089508950E94A11B0E94F1082FEF84E347
:1011F0009CE0215080409040E1F700C000000C943A
:1012000068250F931F93CF93DF93EC010E943B0758
:101210008C01BE010E940807882379F1BE01C80134
:101220000E943F13882349F1BE01C8010E94801328
:10123000882319F1BE01C8010E94AB148823E9F08C
:10124000BE01C8010E9435128823B9F08A81882323
:1012500069F001158CE5180731F00E3D1C4531F49D
:101260000E94A4230AC00E94F20807C0CE01DF91A9
:10127000CF911F910F910C94060780E0DF91CF91E1
:101280001F910F91089580E090E0089508952CE358
:10129000829FC0011124FC0126E0729FE00DF11D28
:1012A0001124E60FF11DEE0FFF1FEC57FE4F859145
:1012B00094910895880F991FFC01E45EF54F859184
:1012C00094910895CF93DF930E9447090E94740A76
:1012D000EC018115904508F043C0C11580E4D807A2
:1012E00008F0CBC0C03ED10528F5C03CD10508F0C0
:1012F000B3C0C83AD10578F4C53AD10508F0A4C006
:10130000C130D10509F4ECC008F4E8C0C430D105FF
:1013100008F0E6C0E3C0CF3BD10508F0DFC0C85AF3
:10132000D0E0CC0FDD1FC15CDE4F0990D881C02D0D
:10133000D464D6C0C11590E2D90750F4C11521E09C
:10134000D20708F0CDC0C83ED10508F4C9C0C6C058
:10135000C11580E3D80708F086C0CE019F707FC01A
:10136000C11595E5D90708F043C0C11524E5D2079A
:1013700008F09AC0C11582E5D80708F5C11591E5B6
:10138000D90708F07DC0CE0174E0969587957A95CF
:10139000E1F783709C2F937021E030E002C0220FB0
:1013A000331F9A95E2F73C68382BCF70C695C695E7
:1013B00080E2C89FE0011124C22BD32B91C09E0173
:1013C000237033278C2F86958695C115D34508F059
:1013D0005CC0C1E0D0E002C0CC0FDD1F2A95E2F76F
:1013E00020E2829FC0011124C82BD92BDC6878C071
:1013F000C11529E5D207A0F4C11588E5D80708F082
:1014000058C0C11596E5D90708F068C08C2F0E9416
:10141000080B8F71C82FD0E0DC2FCC27D06260C0C2
:10142000C1152AE5D20708F449C0CE0190568115AE
:10143000904208F053C08D2F8F710E94080BDD275A
:10144000D0628F71D82B4CC0C55AD0E0C359DE4F43
:10145000C881D0E0D06444C0CE01805C91090E9474
:101460005A09EC013DC0CE019927D3FF03C0EC011E
:10147000D86C36C0EC01D06C33C0DF70D06A30C09D
:10148000DC2FCC27C16FD06A2BC0C1E0D0E002C0F6
:10149000CC0FDD1F2A95E2F720E2829FC0011124C4
:1014A000C82BD92BDA681CC0DC2FCC27C46FD06ABC
:1014B00017C0DC2FCC27C06FD06A12C08C2F8F7062
:1014C0000E94080B94E0D695C7959A95E1F7CF70E6
:1014D000D0E0DC2FCC27D069C82B02C0C0E0D0E020
:1014E000CE01DF91CF9108958238910569F1B0F472
:1014F0008133910509F46DC048F48932910509F4EE
:1015000063C08A32910509F469C008958533910555
:1015100009F455C089339105B9F00895833E9105CA
:1015200069F138F4803E9105B1F0823E910509F1F0
:101530000895863E9105A9F1873E9105B9F1843E53
:10154000910509F064C023C02091FE0220FD4FC028
:1015500021FD4DC008958091FE0280FD44C0809120
:10156000FF0280FF44C08091FE0284FD42C083EEF2
:101570004DC08091FE0282FF38C0F5CF8091FE02FF
:1015800082FD33C08091FF0280FD31C0ECCF80919D
:10159000FF0281FF32C08091FE0284FD2AC087EEE7
:1015A00035C08091FE0283FF26C0F5CF8091FE02F8
:1015B00083FD21C08091FF0281FD1FC0ECCF80918F
:1015C000FE0285FD1CC01DC08091FE0285FD19C074
:1015D00016C08091FE0286FD16C017C08091FE02E3
:1015E00086FD13C010C089E311C082EE0FC080EEEB
:1015F0000DC080E00BC086EE09C084EE07C089E212
:1016000005C085E303C08AE201C081E390E008954C
:101610009091FE0292FF0DC0282F2871283019F4F6
:10162000877F846006C0282F2471243011F48B7FBB
:10163000886093FF0DC0282F2871283119F4877E08
:10164000846106C0282F2471243111F48B7E8861B7
:101650002091FF0220FF0DC0382F3871383019F467
:10166000877F816006C0382F3171313011F48E7F51
:10167000886021FF0DC0282F2871283119F4877E3A
:10168000816106C0282F2171213111F48E7E88617D
:1016900094FD877E0895E82FF0E0EB53FD4F8081A5
:1016A0000895089580EA8A95F1F7089508950C94B5
:1016B000560B0C94570B0C94560B0895CF93DF9355
:1016C0000E94DF0C8091000180910001811102C015
:1016D00095E001C090E09093D00285E0891B809353
:1016E000CF02A6E7B1E04BE751E061E070E08D91F9
:1016F000E82FE295EF70F0E021A18F70EB0102C0BE
:10170000CC0FDD1F8A95E2F7CE019C2F9095922396
:1017100091A392A1892B82A34A175B0741F7A0E707
:10172000B1E046E751E061E070E08D91E82FE2958D
:10173000EF70F0E021A18F70EB0102C0CC0FDD1F34
:101740008A95E2F7CE019C2F9095922391A392A1C6
:10175000892B82A34A175B0741F7EBEBF2E0A5EC7C
:10176000B2E085EC92E011921D928E179F07D9F797
:1017700085E00E94840C0E94D508DF91CF910C94E3
:10178000F30C0E94C20C882309F18091CF0290E0F3
:101790008B539D4F0E94230D811114C08091C6016F
:1017A0008F5F8093C601863078F0E091CF02F0E041
:1017B000EB53FD4F80E090E011920196853091054A
:1017C000D9F702C01092C6010C94DF088091D002B4
:1017D00090E08B539D4F0E94420D0C945D0B3F9205
:1017E0004F925F926F927F928F929F92AF92BF9231
:1017F000CF92DF92EF92FF920F931F93CF93DF93DD
:1018000086E7882E81E0982E0BEB12E090EC692E93
:1018100092E0792E512CCC24C394D12C5801D801BC
:101820003C901C92F40181914F01C82FC295CF705A
:10183000D0E099A18F70760101C0EE0C8A95EAF78D
:10184000892F8E2989A38AA14E2C409484218AA3B2
:101850000E94520BE0E7F1E020E030E09191A92FE7
:10186000A295AF70B0E090964C91D8016C9150E089
:101870009F7002C0559547959A95E2F740FD08C0C4
:101880009C2D022E01C0990F0A94EAF7892F01C0FE
:1018900080E0862BD8018C932F5F3F4F2630310597
:1018A000E9F689A1482249A28AA1E82AEAA20F5FA3
:1018B0001F4F81E0F5019081931101C080E0582A0B
:1018C0006016710609F0AACF6091D00270E06B53E8
:1018D0007D4F252D45E08BEB92E00E94850C0E9408
:1018E000C10B852DDF91CF911F910F91FF90EF904C
:1018F000DF90CF90BF90AF909F908F907F906F9030
:101900005F904F903F9008950895FF920F931F931B
:10191000CF93DF938C01F62ED72FC42F222349F0CB
:1019200081E08093C9010E940C259093C8018093A7
:10193000C7018091C9018823C1F08091C7019091AE
:10194000C8010E941825069780F0EF2DFD2FD801C1
:101950004C2F50E0CD01801B910B841795071CF490
:101960008D918193F7CF1092C901DF91CF911F9193
:101970000F91FF90089555985D9889B185FB882750
:1019800080F908958091CA01811112C08091D80018
:1019900080618093D8008AE18A95F1F700C0809138
:1019A000D90080FD02C082E001C081E08093CA01BD
:1019B00081E09091CA01913009F080E008950E9481
:1019C000BB0C809300018091000166E0882311F038
:1019D00080E001C086E00E94E40D0E94C20C8111EB
:1019E0000C94FA0C08950E94C20C811102C00C9450
:1019F000000D089562E070E081E091E00C944015E4
:101A000062E070E081E091E00C9449150E9437108B
:101A1000882361F082ED91E00E943D1081E090E02A
:101A20000E942216892B11F40C943A10089580918B
:101A3000D101883039F460E082ED91E00E941D11FF
:101A40001092D1010895CF93DF93D82FC92F0E9410
:101A5000060D80E090E00E942216892B79F4ED2F8C
:101A6000FC2F80E090E0DC01A453BE4F2C91219329
:101A7000019685309105B9F781E001C080E0DF91E2
:101A8000CF910895CF93DF93D82FC92F0E94170DC0
:101A9000ED2FFC2F80E090E02191DC01A453BE4F9C
:101AA0002C93019685309105B9F7DF91CF91089578
:101AB000EF92FF920F931F93CF93DF93F62E472F52
:101AC000E82FF0E0711106C0E85DF54F6491762FC4
:101AD000862F72C0272F30E0E85DF54FE4910E2F7E
:101AE00010E056E0659FC0011124CFEFD0E0BE01A9
:101AF0000E94D62F5BEA5603C001579F900D112418
:101B00008F0D911D8F0D911D982F990F890F7E01BB
:101B1000E21AF30AE09ED001E19EB00DF09EB00DF6
:101B20001124489FA0011124452F55277E01E41A56
:101B3000F50AE09EA001E19E500DF09E500D11248B
:101B40007E01E81AF108E29EC001E39E900DF29E2C
:101B5000900D1124892F9927C81BD90BC09FC00154
:101B6000C19F900DD09F900D11246230710591F0AE
:101B700048F461157105E1F061307105A9F48B2F0E
:101B8000752F19C06430710561F038F06630710549
:101B900079F00AC0892F7B2F0EC08E2F7B2FE52F67
:101BA0000AC08E2F792F02C0852F7E2FEB2F03C006
:101BB0008B2F7E2FE92F6E2FDF91CF911F910F91E9
:101BC000FF90EF90089508958093DE0160931301D4
:101BD0000895CF93DF93762FE901682F842F0E9419
:101BE000580D798368838A83DF91CF91089580911E
:101BF000D102282F269530E02115310519F4817086
:101C0000826005C02431310524F0817086628093A2
:101C1000D102089588E090E00C940530CF92DF92D5
:101C2000EF92FF926B017C010E94F70DB701A601B4
:101C300088E090E0FF90EF90DF90CF900C942330FD
:101C4000E1EDF2E083E0808311828FEF8283838372
:101C50001482A6EEB1E012968C91129783601296D0
:101C60008C9360817181828193810C940E0E80919E
:101C7000D10280FF02C08695089580E0089580918A
:101C8000D502833018F48F5F8093D5026091D10222
:101C90007091D2028091D3029091D4020C940E0ED6
:101CA0008091D502882319F081508093D5026091EC
:101CB000D1027091D2028091D3029091D4020C94FF
:101CC0000E0E6091130170E08091D10280FF0AC076
:101CD0008091DE0123E0829FC00111248A529D4F32
:101CE0000C94C8128091DD0190911201891780F740
:101CF000E82FF0E09F01220F331FE20FF31FEA529B
:101D0000FD4F1182108212828F5FF0CF9091D1022D
:101D100090FF16C09091DD0120911201921770F48E
:101D2000E92FF0E0DF01AA0FBB1FEA0FFB1FEA5209
:101D3000FD4F8183608342839F5FF0CF0C94610EDF
:101D40000895CF93DF9300D01F92CDB7DEB7909167
:101D5000D10290FF0AC09E012F5F3F4F0E94E90D04
:101D60004B8169818A810E94860E0F900F900F909F
:101D7000DF91CF910895CF93DF93EC016C8170E0F8
:101D800080E090E00E94D72D20E030E04FE753E460
:101D90000E94FA2C2BED3FE049E450E40E94002F12
:101DA0000E946D2F0E94742D2DE337E44EE75FE310
:101DB0000E948D2C20EF3BEF48ED52E40E94002F53
:101DC0000E94A62D462FE1EDF2E0628181810E9402
:101DD000A10E8C818F5F8C83DF91CF910895CF937B
:101DE000DF93EC01E1EDF2E0438162818C810E949E
:101DF000A10E8C818F5F8C83DF91CF910895AF927C
:101E0000BF92CF92DF92EF92FF920F931F93CF93E7
:101E1000DF9300D01F92CDB7DEB7182FF62E042F18
:101E2000E22E8091D10280FF7CC0E82FE695AE2F94
:101E3000B0E0A058BE4F9C919093E6018E7F823017
:101E400061F49E012F5F3F4F812F0E94E90D4B816E
:101E500069818A810E94860E41C0923019F40091F6
:101E6000D4023CC0963019F41091D20237C0993098
:101E7000A9F5E9508E2F8170D82EE695F0E0ED5D42
:101E8000F54FA590B490C12CBB2460911101C616EA
:101E900018F52C2D30E0A29EC001A39E900DB29E9D
:101EA000900D112470E00E94D62F812FD11002C016
:101EB000860F01C0861B9091DD01290F311DA901FC
:101EC000440F551F240F351F2A523D4F402F6F2DB1
:101ED0000E94E90DC394D9CF0E94610E8091D20275
:101EE000181308C08091D302F81204C08091D40264
:101EF000081729F08091E80182608093E80110932F
:101F0000D202F092D3020093D402EE2051F06091FD
:101F1000D1027091D2028091D3029091D4020E949A
:101F20000E0E0F900F900F90DF91CF911F910F9198
:101F3000FF90EF90DF90CF90BF90AF900895E1EDCC
:101F4000F2E09181282F438162818FE0890F0C9408
:101F5000FF0E81E00C949F0FE1EDF2E09181282FBC
:101F60004381628181EF890F0C94FF0E81E00C9414
:101F7000AC0FE1EDF2E0628128E0620F08F46FEF50
:101F8000282F438181810C94FF0E81E00C94B90FBE
:101F9000E1EDF2E0628128E0621B08F460E0282FA6
:101FA000438181810C94FF0E81E00C94C80FE1ED18
:101FB000F2E0438128E0420F08F44FEF282F6281BE
:101FC00081810C94FF0E81E00C94D70FE1EDF2E0DB
:101FD000438128E0421B08F440E0282F6281818180
:101FE0000C94FF0E81E00C94E60F20E00C94FF0EA1
:101FF0000F931F93CF93DF93EC0100E010E08091EB
:102000001101282F30E00217130724F59091DD010C
:102010009801290F311DA901440F551F240F351FA9
:102020002A523D4F869590E04C81081719071CF401
:10203000442331F002C0411103C04091D40201C0D9
:1020400040E06091D3028091D2020E94E90D0F5FBF
:102050001F4FD5CF0E94610E8C8190E00196817058
:1020600099278C83DF91CF911F910F9108958091D3
:10207000E80108951092E801089525E0E1EDF2E00D
:10208000DC0101900D922A95E1F72091E601309153
:10209000E7014091E801FC012583368347830895D9
:1020A0006091D102669570E04BE050E084E191E0F0
:1020B0000E94F02F892B19F481E08093E7010E94A0
:1020C0000C259093E0018093DF018091E80184600A
:1020D0008093E8010895E6EEF1E011828281846048
:1020E000828308959091D10290FF3AC0917081113E
:1020F00002C0926006C0843110F0966202C0880F60
:10210000982B9093D1028091E80181608093E8013F
:10211000662351F06091D1027091D2028091D30276
:102120009091D4020E940E0E6091D102669570E0EB
:102130004BE050E084E191E00E94F02F892B19F0F0
:102140000E946B1002C00E94501081E08093E20157
:102150004091D4026091D3028091D2020C94F50F89
:102160000895682F9091D102969581E0890F84316E
:1021700008F081E00C94721081E00C94B110682F8B
:102180009091D10296958FEF890F09F483E10C9419
:10219000721081E00C94BF1061E00C947210E1EDBC
:1021A000F2E080818160808386950C94CC1060E0A1
:1021B0000C947210E1EDF2E080818160808386955D
:1021C0000C94D710E1EDF2E080818E7F80836081F6
:1021D0007181828193810E940E0E0E946B10E6EE47
:1021E000F1E08281816082832FEF80E792E02150CD
:1021F00080409040E1F700C000000C94610E809197
:10220000D10280FD0C94E2100C94CF10E1EDF2E0CD
:1022100080818E7F80830E946B10E6EEF1E08281E8
:10222000816082832FEF80E792E0215080409040D0
:10223000E1F700C000000C94610E1F93CF93DF9371
:10224000EC01162F8F8180FF0FC0888180FF0AC0AC
:102250008091D10281608093D102888186950E940D
:10226000721002C00E9406118F8181FF06C0212FCB
:102270004B816A8189810E94FF0E8F8182FF08C095
:102280008E81882319F00E94501002C00E946B10AA
:102290008F8183FF03C081E08093E201DF91CF91C2
:1022A0001F9108958091E501811133C00E94FF22A2
:1022B000811104C00E94A4230E94200E0E940A0ED5
:1022C0006093D1027093D2028093D3029093D40290
:1022D0008091E80183608093E8016E7F61F40E9441
:1022E000200E0E940A0E6093D1027093D202809356
:1022F000D3029093D4020E94F70D0E946B1080913C
:10230000D10280FF03C086950E94D71081E08093A0
:10231000E5010895EF92FF920F931F93CF93DF9300
:102320008091E701882309F47EC08091E601E09165
:10233000D102E695E81BE093E101823049F4F0E038
:10234000E15EF54FE491CE2FD0E00BEB1EE016C01E
:10235000863049F4F0E0E45EF54FE491CE2FD0E012
:102360000FEE1EE00BC0833129F4C4EFD1E008EF7B
:102370001FE004C0C0EDD7E003EE1DE08091E20154
:10238000882389F01092E2010E940C259E0120957D
:102390003095820F931F9093E0018093DF0110929C
:1023A000E4011092E3018091DF019091E0010E942D
:1023B00018258C179D07B8F18091DC018823B1F0B6
:1023C0001092DC018091DA019091DB010E941825C6
:1023D0008033954758F00E940C259093DB01809341
:1023E000DA018091E80188608093E801E090E301E0
:1023F000F090E401E091DF01F091E001CE0FDF1FEA
:10240000D093E001C093DF018FED91E0F8010995D1
:102410008091E3019091E401892B29F4EF2819F0D0
:1024200081E08093DC01DF91CF911F910F91FF90AC
:10243000EF900895882311F0FA0101C0FB0109947F
:10244000CF93DF93C82FD62F0E94370E8C1740F002
:102450000E94370E8D1720F4DF91CF910C94BC10A1
:102460008C2FDF91CF910C94CC101F93CF93DF93DF
:10247000FB011281111155C0EC010E9411228272E0
:10248000FE01E25CFC45E431F10520F4E15AFF4F26
:102490000C94EA2F11E045C00E94FF1042C049ECA5
:1024A00050E16CEB70E104C04CEB50E169EC70E181
:1024B0000E941A1236C046EB5FE069EA7FE0F8CF6F
:1024C00049EA5FE066EB7FE0F3CF44ED5FE065EC67
:1024D0007FE0EECF45EC5FE064ED7FE0E9CF42EFD7
:1024E0005FE063EE7FE0E4CF43EE5FE062EF7FE02A
:1024F000DFCF40E55EE06FE37EE0DACF4FE35EE002
:1025000060E57EE0D5CF81E00E94CC100AC065E096
:1025100082E005C068E086E002C062E189E00E94D6
:102520002012812FDF91CF911F91089525B1342F73
:102530003095232335B1432B3FB7F894FC01680F46
:10254000791FE617F70789F0819198E045B90000F7
:1025500000C087FF25B9880F000000C000C000C080
:1025600025B900C09A9591F7ECCF3FBF089524B1EB
:10257000242B24B99B01220F331F620F731F0E946B
:10258000961287EC90E00197F1F700C000000895E3
:1025900040E10C94B7120F931F93CF93DF93C62F94
:1025A000D42F122FFC0182818823C9F06093EB01A4
:1025B0000E940C259093EA018093E90180E28C0F40
:1025C000883008F057C0C77081E001C0880FCA95F5
:1025D000EAF7DF91CF911F910F910C94131980911D
:1025E000EB01681330C08091E9019091EA010E94EB
:1025F0001825883C910538F500E20D0FCD17B9F08C
:1026000080E28C0F883040F4C77081E001C0880FF1
:10261000CA95EAF70E941A19083028F581E09D2F23
:10262000977001C0880F9A95EAF70E941319812FBD
:102630000E9400190830F0F4D77081E001C0880FC3
:10264000DA95EAF70AC080E28C0F883098F4C770F8
:1026500081E001C0880FCA95EAF7DF91CF911F9101
:102660000F910C941A19812FDF91CF911F910F9127
:102670000C940019DF91CF911F910F9108959C0147
:10268000CB01233F4CE53407F9F078F4283DFCE515
:102690003F07B9F0293D4CE5340711F1273D3C4592
:1026A00031F526E241EE61EE1EC0253FFCE53F0715
:1026B00099F070F0263F3C45D1F427E245EE66EEF6
:1026C00012C027E245EE0EC026E241EE60EE0BC0DE
:1026D00027E245EE64EE07C026E241EE62EE03C05B
:1026E00028E241E065EE0E94CB1280E00895FC01F3
:1026F0008281882319F01092EB01089581E00895FA
:10270000CF93DF93EC01FB018281882309F41FC181
:10271000C230FCE5DF0708F41BC1C6319CE5D907D0
:1027200038F09E012A5F3C452930310508F010C180
:102730000E9417239093FF028093FE02C031ECE5C4
:10274000DE0709F4C3C008F041C0C8308CE5D807E3
:1027500009F49AC0F0F4C430ECE5DE0709F487C050
:1027600068F4C2308CE5D80709F477C0C330DC4583
:1027700009F0E3C08091FE02826076C0C630ECE5CD
:10278000DE0709F46EC008F07BC08091FE0288600D
:102790006BC0CC308CE5D80709F485C068F4CA302A
:1027A000ECE5DE0709F474C008F079C00E94A11BB3
:1027B0008091FE02806858C0CE308CE5D80709F4BD
:1027C00076C008F07FC08091FE028BC0CB3FECE565
:1027D000DE0709F44FC018F5C3318CE5D80709F4BA
:1027E0007DC078F4C131ECE5DE0709F473C0C23175
:1027F000DC4509F0A2C00E94A11B8091FE028F77E8
:1028000033C0C5318CE5D80709F472C008F486C01E
:10281000CA3FDC4509F091C08091FF023EC0CF3F26
:10282000FCE5DF0709F45FC058F4CD3F9CE5D9070C
:1028300009F444C008F43FC08091FF0282602DC0BB
:10284000C130FDE5DF0709F475C008F45DC0C23092
:10285000DD4509F072C080E06EC08091FE028160AB
:1028600003C08091FE0280618093FE0266C0809169
:10287000FE0211C08091FF0282608093FF025DC062
:102880008091FE028062F0CF8091FE028064ECCFE6
:102890008091FE0288608460E7CF8160EECF8091F6
:1028A000FE028E7FE1CF8091FE028D7FDDCF809191
:1028B000FE02877FD9CF8091FF0218C08091FF026E
:1028C0008D7FDBCF8091FE028F7ECECF8091FE0286
:1028D0008F7DCACF8091FE028F7BC6CF8091FE0292
:1028E000877F8B7FC1CF8091FF028D7F8E7FC5CF89
:1028F0008091FE0282FB222720F991E0922790FB33
:1029000082F990FB83F9B0CF8091FF02982F9095C8
:1029100091708E7F892B90FB81F9AFCF0E94A11B14
:102920008091FE0287FB222720F991E0922790FBFD
:1029300087F99ACF81E00E94A6238091FE029091B0
:10294000FF020E9428230E94A11B80E001C081E0B9
:10295000DF91CF910895CF93DF9386319C4571F538
:10296000EB010E941122982F917119F4982F9A7AF5
:1029700001C090E08A8120911F01309120018823BD
:1029800079F081E0911101C080E08093EC01911118
:1029900002C069E201C065E3C9010E9441240AC086
:1029A0008091EC01811102C069E201C065E3C901B7
:1029B0000E944C240E946E2280E001C081E0DF91E1
:1029C000CF9108958EE1489B02C08150E1F7489B6A
:1029D000FECF0895589880E28A95F1F7589A0895A5
:1029E000FC012AE02A95F1F790E020E080E031E058
:1029F000261779F040E14A95F1F7880F489B02C00D
:102A00008160932700C0000040E14A95F1F72F5FF5
:102A1000EFCF20E12A95F1F729B100C0000030E1A5
:102A20003A95F1F7217092272081920F90830895B3
:102A3000EF92FF920F931F93CF93DF931F92CDB727
:102A4000DEB719828C017C01E60EF11C0E151F0504
:102A500059F00E94E21468E0CE0101960E94F01441
:102A6000F80181938F01F2CF81E09981911180E08B
:102A70000F90DF91CF911F910F91FF90EF900895EC
:102A80009093EF018093EE016093ED01509A589A74
:102A900008959093EF018093EE016093ED015098BB
:102AA000589AE89AE9E6F0E080818C7F8083089567
:102AB000615091E001C0990F6A95EAF720E031E09A
:102AC000992361F0492F482319F0589A232701C010
:102AD000589840E24A95F1F79695F2CF222311F0EB
:102AE000589A01C0589880E28A95F1F7589808954D
:102AF000FF920F931F93CF93DF93EC018C01060F8E
:102B0000111DC017D10741F0F9900E94EA1468E046
:102B10008F2D0E945815F5CFDF91CF911F910F9106
:102B2000FF9008951F920F920FB60F9211240F93EA
:102B30001F932F933F934F935F936F937F938F9345
:102B40009F93AF93BF93EF93FF93CF93DF931F9226
:102B5000CDB7DEB719820E94E21467E0CE0101967C
:102B60000E94F014382F369536953695932F96950A
:102B70009570232F2570920F292F23709695969587
:102B80008770920F891348C08981811145C0809157
:102B9000ED01831708F440C080E18A95F1F7589A57
:102BA000509AA2E0AA95F1F700C00091EE011091B1
:102BB000EF01B8E03B9F000D111D11245898F8015A
:102BC0006581662321F0868197810E9478150E9495
:102BD000EA14F0E1FA95F1F758985098589A80E184
:102BE0008A95F1F7D80112966C911297662369F0D5
:102BF00013968D919C9114970E941815D801ED9110
:102C0000FC91811105C082E004C0D801ED91FC91D6
:102C100088E080830E94E2140F90DF91CF91FF91B2
:102C2000EF91BF91AF919F918F917F916F915F9144
:102C30004F913F912F911F910F910F900FBE0F90C9
:102C40001F9018950F931F93CF93DF932091ED0161
:102C500030E0281739070CF471C09C0193E0220F73
:102C6000331F9A95E1F7C091EE01D091EF01C20FA9
:102C7000D31FF894509A589845E04A95F1F7000010
:102C8000982F969595708570890F982F93708695DB
:102C90008695890F8901082B0E94EA1484E08A95A1
:102CA000F1F700C067E0802F0E94581540E14A9577
:102CB000F1F75098589A489902C000C0FCCF87E0BD
:102CC00090E0489B0EC0019751F4509A589AE881C1
:102CD000F98181E08083789481E090E031C000C088
:102CE000F0CF6D81662381F08E819F810E9418153F
:102CF00081110AC0509A589AE881F98182E0808354
:102D0000789482E090E01CC00E94E21480E28A95F0
:102D1000F1F75898509A40E14A95F1F76A81662395
:102D200021F08B819C810E9478150E94EA14E88131
:102D3000F9811082789480E090E002C084E090E015
:102D4000DF91CF911F910F9108959093F50180939A
:102D5000F4010895E091F401F091F501309721F02C
:102D60000190F081E02D099480E00895E091F40154
:102D7000F091F501309799F020912B01222359F021
:102D80002091FE0227FF07C0DC012C9111962C93A5
:102D9000119725E02C930280F381E02D099408958A
:102DA0002091F2013091F3012817390771F09093C7
:102DB000F3018093F201E091F401F091F501309775
:102DC00021F00680F781E02D099408952091F0010B
:102DD0003091F1012817390771F09093F101809338
:102DE000F001E091F401F091F501309721F00084B9
:102DF000F185E02D0994089585B7806885BF85B772
:102E0000806885BF089508950C9403170C940417E7
:102E10000C9403170C9403170E94FC160E940817C9
:102E20000C9406170E9403250E945E0B0E94A225A7
:102E30000E945211EEEFF2E08081806880838091E1
:102E4000FE029091FF020E9428230C940A17AF9271
:102E5000BF92CF92DF92EF92FF920F931F93CF9387
:102E6000DF93CDB7DEB72A970FB6F894DEBF0FBE5B
:102E7000CDBF0E94EF0B0E94C20C811111C08FEFD9
:102E800089838A831B820E940C258160782F9D8311
:102E90008C8349815A816B818D810E94BF1740C00C
:102EA00087EFA82E81E0B82E00E010E0C02E802F22
:102EB0000E944B0BE82EF501D1905F01D82631F42A
:102EC0000F5F1F4F0A30110589F7D9CF8091940207
:102ED00081FD0E94510B80E0FF24F3949D2D9F21E2
:102EE000D1F08E83CF82EF2081E009F480E08887E3
:102EF0000E940C258160782F9A8789874E815F8197
:102F000068858A850E94BF17F801E950FE4F8081CD
:102F1000F826F08205C08F5FFF0C8630F9F6D0CF1F
:102F20000E948A110E94AA169091F6018917B1F0A9
:102F30000E94AA168093F6012A960FB6F894DEBF77
:102F40000FBECDBFDF91CF911F910F91FF90EF90FA
:102F5000DF90CF90BF90AF900C94E8082A960FB600
:102F6000F894DEBF0FBECDBFDF91CF911F910F91BF
:102F7000FF90EF90DF90CF90BF90AF900895CF93E8
:102F8000DF93CDB7DEB72B970FB6F894DEBF0FBE39
:102F9000CDBF4F83588769877A878B87DE0111966B
:102FA00086E0FD0111928A95E9F785E0FE013796EA
:102FB00001900D928A95E1F70E94DF21882319F094
:102FC00082E00E94E0220E94B22181110E946022D0
:102FD00049815A816B817C818D819E810E94AB1ECB
:102FE0002B960FB6F894DEBF0FBECDBFDF91CF9109
:102FF0000895FC01808191810E9481210895CF93E1
:10300000882309F49CC0C82F8238C1F40E94AA16F4
:1030100081FD95C069E380911F01909120010E947C
:1030200041240E946E222FEF81EE94E021508040D7
:103030009040E1F700C0000069E319C0833801F552
:103040000E94AA1680FD7BC063E580911F019091CC
:1030500020010E9441240E946E222FEF81EE94E015
:10306000215080409040E1F700C0000063E580916E
:103070001F01909120010E944C24CF910C946E224C
:103080008438C1F40E94AA1682FD59C067E4809179
:103090001F01909120010E9441240E946E222FEF77
:1030A00081EE94E0215080409040E1F700C00000A4
:1030B00067E4DDCF8CEF8C0F813AD0F46C2F8091D8
:1030C0001F01909120010E94C123882349F06C2F99
:1030D00080911F01909120010E944C240E946E2239
:1030E0006C2F80911F01909120010E944124C5CF37
:1030F00080E28C0F883048F4C77081E001C0880FEF
:10310000CA95EAF70E941422B8CFEBE5EC0FE33042
:1031100040F4F0E0EE53FE4F808190E0CF910C94AC
:10312000D016C85AC73158F4EC2FF0E0EE0FFF1F4D
:10313000EC56FE4F80819181CF910C94E616CF9191
:103140000895882309F45BC0682F823879F40E94BF
:10315000AA1681FF54C069E380911F01909120015C
:103160000E9441240E946E2269E310C08338B1F4AA
:103170000E94AA1680FF43C063E580911F019091D1
:1031800020010E9441240E946E2263E580911F016C
:10319000909120010E944C240C946E22843879F482
:1031A0000E94AA1682FF2BC067E480911F019091B4
:1031B00020010E9441240E946E2267E4E7CF8CEF39
:1031C000860F813A18F380E2860F883048F46770E2
:1031D00081E001C0880F6A95EAF70E941A22DCCFCD
:1031E0008BE5860F833020F480E090E00C94D016BD
:1031F000685A673120F480E090E00C94E616089558
:10320000CF93C82F0E94FF17C93349F42FEF87EEE1
:1032100093E0215080409040E1F700C000008C2FE7
:10322000CF910C94A118882321F00E9414220C94B1
:103230006E220895882321F00E941A220C946E2297
:103240000895CF92DF92EF92FF920F931F93CF9347
:10325000DF937C01062FC72FFC01D581D295DF704B
:10326000128111110E9431220E940A22882379F0D2
:10327000112369F080E2800F883048F082E00E94DC
:10328000E0220E940A2291E0D82ED92601C0D12C3A
:10329000CC2EC2948FE0C8228C2D90E0FC01ED581A
:1032A000FF4F0C94EA2F8C2F807FCF70882311F072
:1032B000C295C07F112399F0CC2309F4AAC180E202
:1032C000800F883010F0011104C08C2F0E9414224E
:1032D00003C08C2F0E9424220E946E229AC1802F4C
:1032E0000E94A118CC2309F4BAC180E2800F883073
:1032F00010F0011104C08C2F0E941A2203C08C2FE1
:103300000E942A220E946E22AAC18C2F807FCF7039
:10331000803211F0C295C07F002319F0013059F1BD
:1033200037C01123B1F0DD2381F0D13031F40E9498
:1033300044228C2B0E944C2292C1D33031F40E9443
:1033400060228C2F0E94AC221BC00E9444228C2B36
:1033500018C0DD2369F0D13041F40E9411228C2382
:1033600009F47DC10E94B52203C0D33009F477C1AE
:103370000E9460221FC0112339F0D43008F06FC1C1
:103380008C2F0E9413196BC1D33008F068C112C092
:10339000112319F0DD23A1F33CC1DD2359F00933DA
:1033A00009F049C1FFEF27EE83E0F1502040804053
:1033B000E1F73FC18C2F0E941A1951C18C2F8695BD
:1033C0008695837019F0813061F049C1112321F095
:1033D000802F9C2F937002C080E090E00E94D01656
:1033E00046C1112321F0802F9C2F937002C080E0F2
:1033F00090E00E94E6163BC18C2F837009F045C017
:10340000111131C1402F429546954770440F440F2A
:10341000602F6F70862F90E0A0E0B0E0042E04C013
:10342000880F991FAA1FBB1F0A94D2F704FF10C070
:103430000FE010E020E030E004C0000F111F221F59
:10344000331F4A95D2F7009510952095309503C00B
:1034500000E010E09801C695C695C370BC01CD018F
:10346000602B712B822B932BC23049F058F4C13062
:1034700019F00E94FC1FF7C00E94EA1FF4C00E94CE
:103480000E20F1C00E94E81FEEC0112319F08C2F0E
:10349000817001C08695882309F4E5C0402F4295CC
:1034A00046954770440F440F602F6F70862F90E051
:1034B000A0E0B0E0042E04C0880F991FAA1FBB1F14
:1034C0000A94D2F704FF10C00FE010E020E030E0D3
:1034D00004C0000F111F221F331F4A95D2F7009519
:1034E00010952095309503C000E010E09801C69536
:1034F000C695C370BC01CD01602B712B822B932B21
:10350000C23049F058F4C13019F00E94C120ABC05C
:103510000E94AF20A8C00E94D320A5C00E942220F4
:10352000A2C0CF70112339F08C2F0E944820802F29
:103530000E94131998C0802F0E941A198C2F0E9484
:10354000692091C0023F01F128F4003F41F0013FA2
:10355000A1F05AC0033FF9F0043F39F155C01123DF
:1035600041F0D33008F07BC08C2F8F710E948E20E9
:1035700076C0D43008F073C0F7CF112339F08C2F08
:103580008F710E9448206BC01123C9F38C2F8F715B
:103590000E94692064C0112329F08C2F8F710E9432
:1035A00033205DC00E942E205AC01123C9F00E9412
:1035B000AF210E941A220E94DB21843039F40E943C
:1035C000D7228C2F8F710E9469206CC0D33008F0F5
:1035D00069C0CF718C2F0E94482063E08C2F0DC0F2
:1035E0000E94AF210E941422D33050F00E94D722B3
:1035F0000E94B52264E08C2F8F710E94C12252C0BC
:1036000081E00E94E0224EC0112339F0DD2309F44D
:10361000B6CF802F0E94FF1722C0DD2309F4B6CF5A
:10362000093349F49FEFE7EEF3E09150E040F040BA
:10363000E1F700C00000802F0E94A11810C04C2F9D
:103640004F70602FC7010E9443090E94591F0FC08D
:103650004C2F4F70602FC7010E94460908C088EFA9
:103660008C0D843020F40E94AA160E94E808DD2008
:10367000D9F00E94DB2180FD17C0F70112820E9461
:10368000D5210E944820C7010E945D1B0E94D521C0
:10369000DF91CF911F910F91FF90EF90DF90CF902E
:1036A0000C946920D12CDFCFDF91CF911F910F9126
:1036B000FF90EF90DF90CF9008950F931F93CF93DB
:1036C000DF93EC01988189812B813C81232B31F0A0
:1036D0008F3F31F481E09F3F19F403C081E001C0C6
:1036E00080E080FD13C0CE010E940109882371F0A3
:1036F000688179818A810E948C218C010E94E52059
:103700000E94D61FB801CE010E942119DF91CF91EE
:103710001F910F9108950E9431220E9441220E9420
:103720006E2280E090E00E94D01680E090E00C9441
:10373000E61680911F01909120010E9457240C945D
:103740008B1B0E9421220C94991BE92FE295EF70AC
:103750004E2F50E0FA013297EE30F105B0F4ED57FC
:10376000FF4F0C94EA2F803F91F018F4883E68F4E4
:103770000EC0843F51F40BC0883E48F0813F29F4CD
:1037800006C093FB882780F9089580E0089581E0C2
:1037900008950E9481210E94A51B0895CF93DF9375
:1037A00000D000D01F92CDB7DEB70F900F900F90D2
:1037B0000F900F90DF91CF910895CF93DF9300D0BA
:1037C00000D000D0CDB7DEB726960FB6F894DEBF96
:1037D0000FBECDBFDF91CF9108951F93CF93DF939D
:1037E000C091020216E080910302C81799F0D0E060
:1037F0001C9FF0011D9FF00D1124EC5FFD4F4081D7
:10380000518162817381848195810E94DD1B2196A3
:10381000C770E9CFDF91CF911F9108954091340295
:1038200050913502609136027091370280913802D2
:10383000909139020C94DD1B2091020290910302B9
:1038400056E02917A9F030E0529FF001539FF00D88
:103850001124EC5FFD4F7181761306C070817813DF
:1038600003C07281741306C02F5F3F4F2770E9CFEA
:1038700080E0089581E00895CF9380913902829588
:103880008F7009F05FC080913602882309F45AC016
:1038900080910202B091030270913402A09135022E
:1038A000409137025091380291E07F3F09F090E05B
:1038B000692FC6E08B1709F445C04115510521F069
:1038C000AF3F21F020E003C021E001C0262F90E0AF
:1038D00020FD35C0C89FF001C99FF00D1124EC5F99
:1038E000FD4F21812A132BC02081271328C022815C
:1038F000211125C0238134812417350710F421506C
:103900003109241B350B283C3105C8F420913902BC
:103910002F7020612093390226E0289FF001299F13
:10392000F00D1124E75FFD4F80818F7080618083EF
:1039300084E392E00E945D1BCF910C94ED1B0196F5
:103940008770B8CFCF9108959F92AF92BF92CF92D8
:10395000DF92EF92FF920F931F93CF93DF93CDB738
:10396000DEB761970FB6F894DEBF0FBECDBF7C0106
:1039700085E0F701DE011D9601900D928A95E1F731
:10398000D701DC9011960C9111971296CC90309142
:1039900034024091350280913702909138020097AD
:1039A00031F04F3F31F421E03F3F19F403C021E0F3
:1039B00001C020E020FD9FC1F701A380B48090905A
:1039C0003602992009F42BC120913902A816B906B4
:1039D00028F0B501681B790BCB0104C08095909548
:1039E0008A0D9B1D11E0883C910590F010E0207F2E
:1039F00009F0DBC07A2DB98AA88A4D2D502F6C2D85
:103A000089890E94CE1B84E392E00E945D1B6BC1FA
:103A1000822F807F09F091C0041315C0D31213C008
:103A20001C2DC11010C02F702061209339020E94FC
:103A30000E1C84E392E00E945D1B80913902D70145
:103A400015968C9375C1A114B10439F00F3F39F468
:103A500081E0BFEFDB1203C003C081E001C080E062
:103A600080FD03C081E08C2502C080E090E080FFF3
:103A700015C04C2D602F8D2D0E941C1C882371F0C9
:103A800084E392E00E945D1BE4E3F2E086E0DF0164
:103A90001D928A95E9F70E940E1C4DC0AB2839F0A3
:103AA0000F3F39F481E0BFEFDB1203C003C081E0B8
:103AB00001C080E080FD03C081E08C2502C080E071
:103AC00090E0E82FE170BE2E80FF2CC04C2D602FBF
:103AD0008D2D0E941C1C182F811124C0DD860E879D
:103AE0008D859E850E948121292F22952F7022305D
:103AF00018F0243090F405C09F7059F0811109C06E
:103B000017C19F7031F0D70115969C91907F09F4F1
:103B10000FC1805E883008F40BC1C7010E945D1B95
:103B20001B2D06C11C2DCC2009F402C18091390245
:103B300081608093390210E0FBC0041309C0D312E6
:103B400007C0C11005C080913902F7018583A5C067
:103B5000DD860E878D859E850E94C91B882379F19D
:103B6000CC2069F120913902822F82958F7090E0EC
:103B7000029774F0809134029091350298878F8378
:103B80001986BB86AA862C87CE0107960E945D1BEC
:103B900086E0F701A4E3B2E001900D928A95E1F787
:103BA0000E943C1C0E940E1C0DC0041769F0DD86AB
:103BB0000E878D859E850E94C91B811119C0C70182
:103BC0000E945D1B11E0B4C0D312F1CFC110EFCF42
:103BD00080913902F7018583C7010E945D1B86E051
:103BE000E4E3F2E0DF011D928A95E9F7192DA0C008
:103BF000CC2029F320913902822F82958F7090E09A
:103C0000029734F280913402909135029A8389832D
:103C10001B82BD82AC822E83CE010196B7CFA8163F
:103C2000B90628F0F501E81BF90BCF0104C0809517
:103C300090958A0D9B1D883C910558F010E07A2DD7
:103C4000B98AA88A4D2D502F6C2D89890E94CE1BD0
:103C50004AC01C2DCC2009F4B2CF041333C0D312B8
:103C600031C02091390220FD24C0822F82958F70AF
:103C7000482F50E041155105E1F0D70115962C93DE
:103C800015974F30510549F08F5F982F9295907F8F
:103C9000822F8F70892B15968C93C7010E945D1B14
:103CA00086E0F701A4E3B2E001900D928A95E1F776
:103CB0003DC086E0F701A4E3B2E001900D928A9541
:103CC000E1F736C0DD860E878D859E850E94C91B73
:103CD00081115ECF80913902816080933902C701E2
:103CE0000E945D1B25C0E4E3F2E086E0DF011D9247
:103CF0008A95E9F71BC0CC2009F461CFDD860E87D9
:103D00008D859E850E94C91B182F882309F457CFE3
:103D100086E0F701A4E3B2E001900D928A95E1F705
:103D200084E392E00E94F9170E943C1C0E940E1C42
:103D3000812F61960FB6F894DEBF0FBECDBFDF9125
:103D4000CF911F910F91FF90EF90DF90CF90BF9098
:103D5000AF909F9008951F93CF93DF93CDB7DEB7B9
:103D60002C970FB6F894DEBF0FBECDBF4F83588798
:103D700069877A878B879C87CE0107960E94A41C4F
:103D80008823D1F09F8188852A853B85232B31F0BC
:103D90008F3F31F481E09F3F19F403C081E001C0FF
:103DA00080E080FD47C04F81588569857A858B8585
:103DB0009C850E94DD1B3EC086E0FE013796DE0139
:103DC000119601900D928A95E1F7FF81E8856A8549
:103DD0007B856115710531F0EF3F31F481E0FF3FE4
:103DE00019F403C081E001C080E080FD23C0209170
:103DF000030230E0C90101968770992740910202C1
:103E000050E084179507F1F1F983EA837D836C8391
:103E100096E0929FD001939FB00D1124AC5FBD4FEF
:103E2000FE01319601900D929A95E1F7809303027D
:103E30000E94ED1B16E08091020290910302891707
:103E400071F1189FC00111248C5F9D4F0E94A41C2A
:103E5000882329F1E09102021E9FF0011124EC5FFA
:103E6000FD4F4081518162817381848195810E94DF
:103E7000DD1B8091020290E0019687709927809364
:103E80000202D9CF0E94A11B1092030210920202DB
:103E9000E4E3F2E086E0DF011D928A95E9F72C96D3
:103EA0000FB6F894DEBF0FBECDBFDF91CF911F914B
:103EB0000895EF92FF920F931F93CF93DF938C019E
:103EC000892B09F46CC0F12CEE24E394E8012196CF
:103ED000F8018491843740F4843008F051C0813077
:103EE00081F0823019F15BC0853709F444C0A8F134
:103EF0009CE7980F903708F052C08F770E94A11866
:103F000041C00E5F1F4FFE01849190E2980F9830E0
:103F100050F48770FE2D01C0FF0F8A95EAF78F2FAE
:103F20000E94342214C00E94FF172DC00E5F1F4F45
:103F3000FE01849190E2980F983060F48770FE2D16
:103F400001C0FF0F8A95EAF78F2F0E943A220E9444
:103F50006E2219C00E94A11816C00E5F1F4FFE01ED
:103F6000C491CC2381F08FE99FE00197F1F700C065
:103F70000000C150F6CF0E5F1F4FFE01F49003C04A
:103F80000E94FF178E018F2D882309F49FCFEFE940
:103F9000FFE03197F1F700C000008150F5CFDF91CD
:103FA000CF911F910F91FF90EF900895089508957C
:103FB0000C94D71F0C94D81F0E94DA1F60936602DE
:103FC0007093670280936802909369020C948B1B34
:103FD0000C94DC1F0F931F930091660210916702EF
:103FE0002091680230916902602B712B822B932BF8
:103FF0001F910F910C94DC1F0F931F930091660289
:104000001091670220916802309169026023712348
:10401000822393231F910F910C94DC1F0F931F9306
:104020000091660210916702209168023091690246
:1040300060277127822793271F910F910C94DC1F13
:104040000C94D71F0E942020609362027093630239
:1040500080936402909365020C948B1B60E070E087
:10406000CB010C9422200F931F9341E050E060E0BD
:1040700070E08A019B0104C0000F111F221F331F33
:104080008A95D2F7C901B8011F910F910C94222093
:104090000F931F9341E050E060E070E004C0440FD4
:1040A000551F661F771F8A95D2F780916202909103
:1040B0006302A0916402B09165028A019B01082B02
:1040C000192B2A2B3B2BC901B8011F910F910C947E
:1040D00022200F931F9341E050E060E070E004C0A5
:1040E000440F551F661F771F8A95D2F7409550954C
:1040F000609570958091620290916302A091640234
:10410000B09165028A019B01082319232A233B23CE
:10411000C901B8011F910F910C9422200F931F9396
:1041200041E050E060E070E004C0440F551F661F9E
:10413000771F8A95D2F78091620290916302A091D5
:104140006402B09165028A019B01082719272A277A
:104150003B27C901B8011F910F910C9422200F93A6
:104160001F930091620210916302209164023091CA
:104170006502602B712B822B932B1F910F910C9456
:1041800022200F931F9300916202109163022091ED
:1041900064023091650260237123822393231F916F
:1041A0000F910C9422200F931F93009162021091A3
:1041B0006302209164023091650260277127822793
:1041C00093271F910F910C9422200895292F220FDD
:1041D000920F990F890FE82FE695E695E69587707F
:1041E00051E001C0550F8A95EAF785E0E89FF0019C
:1041F0001124E65CFD4F20E030E070E04081CB010F
:10420000022E02C0969587950A94E2F781708195F7
:1042100084278523842781932F5F3F4F25303105E5
:1042200069F70895292F220F920F990F890F682F90
:10423000669566956695982F977085E0689FB001A2
:10424000112440E050E080E0FB01E40FF51FE65C44
:10425000FD4F208130E0092E02C0369527950A9443
:10426000E2F721703327042E01C0220F0A94EAF7E7
:10427000822B4F5F5F4F4530510531F70895BF9254
:10428000CF92DF92EF92FF920F931F93CF93DF9322
:104290008C01C0906202D0906302E0906402F090C2
:1042A00065028091660290916702A0916802B091C8
:1042B0006902C82AD92AEA2AFB2ACFE1D0E0D7012D
:1042C000C6010C2E04C0B695A795979587950A94BC
:1042D000D2F780FD04C0219790F7B12C07C0BC2E07
:1042E000B8018C2F0E9462090197A9F38B2DDF91F1
:1042F000CF911F910F91FF90EF90DF90CF90BF90E3
:104300000895CF93DF93EC010E943F21BE010E94EC
:104310006209DF91CF9108951F93CF93DF93EB0153
:1043200090910102992321F0CB010E94812113C0B9
:10433000882349F0CB010E943F21182F682FCE011E
:104340000E94E62004C0CB010E941221182FBE015A
:10435000812F0E946209DF91CF911F910895809172
:104360006F0208950E940C2520916D0230916E021B
:104370008217930750F00E940C2520916D02309116
:104380006E02821B930B9C010AC00E940C25209197
:104390006D0230916E0220953095280F391F81E013
:1043A0002838334108F480E0089580916C028595A7
:1043B00085958595089580916C02877008950E9477
:1043C0000C2520916A0230916B0282179307A8F0A6
:1043D0000E940C2520916A0230916B02821B930B84
:1043E0008838934110F480E013C080916C0282FB06
:1043F000882780F991E089270BC00E940C25209125
:104400006A0230916B0220953095820F931FE8CF9E
:104410008170089590916C02977081E009F480E0BA
:10442000089580919302089590919302892B80932F
:10443000930208958095909193028923809393022B
:10444000089510929302089590919202892B80937F
:10445000920208958095909192028923809392020E
:10446000089510929202089590919102892B809361
:1044700091020895809590919102892380939102F1
:104480000895109291020895809170020895089500
:104490000C9447220C944822CF9390917002981765
:1044A00069F0C82F0E940C2590936E0280936D02D4
:1044B000C09370028C2FCF910C944A22CF91089513
:1044C00080917002882349F01092700210926E025F
:1044D00010926D0280E00C944A220895E0911F0131
:1044E000F0912001809193028083E0911F01F0916F
:1044F0002001908180919202892B8083E0911F019D
:10450000F0912001908180919102892B808380918C
:1045100070028823B9F00E94B22181110E946022AA
:10452000E0911F01F0912001908180917002892B10
:10453000808380911F01909120010E94AB23811103
:104540000E94602280911F01909120010C94B61668
:104550000C9447220C94A82290916F02981721F096
:1045600080936F020C94AA22089580916F02882391
:1045700029F010926F0280E00C94AA2208950C9406
:10458000472298E0899F90011124262B20936C02EA
:104590000E9448200E940C2590936B0280936A022F
:1045A00080916C028595859585950C94BF2210921B
:1045B0006C0210926B0210926A0280E00C94BF228F
:1045C00020916C028095822380936C02982F9770C3
:1045D00079F430E0482F082E000C550B24173507CE
:1045E00039F08595859585950E9469200C94D72290
:1045F00008956FEF7FEF80E090E00C942F3080E023
:1046000090E00E940B3021E08C3E9E4F09F020E0AC
:10461000822F089582E090E00C94FD2F83E090E0DB
:104620000C94FD2F682F83E090E00C941130CF9311
:1046300084E090E00E94FD2FC82F81E290E00E946C
:10464000FD2F2C2F30E0A901582BCA01CF910895DE
:10465000CF93C92F682F84E090E00E9411306C2F17
:1046600081E290E0CF910C941130AB01BC018FE05E
:1046700090E00C942330AB01BC0183E190E00C94FA
:10468000233060E070E0CB010C943B2360E070E0ED
:10469000CB010E9435230C9441236CEE7EEF80E029
:1046A00090E00E942F3060E082E090E00E941130A4
:1046B00060E083E090E00E94113010926602109258
:1046C0006702109268021092690260E084E090E054
:1046D0000E94113060E081E290E00E94113060E0C1
:1046E00085E090E00E94113060E086E090E00E945A
:1046F00011306FEF87E090E00E94113040E050E011
:10470000BA0188E090E00E94233060E08DE090E004
:104710000E94113040E050E0BA0188E190E00E9430
:10472000233060E087E190E00E94113040E050E0EB
:10473000BA018CE190E00E94233060E080E290E0DA
:104740000E9411300C9446230C944D23682F8EE068
:1047500090E00C941130FC01329680912B0188235B
:1047600031F08091FE0287FF02C09EE101C096E019
:1047700080E0915028F021912223D9F38F5FF9CF67
:104780000895662351F120912B012223E9F0209115
:10479000FE0227FF19C0462F4695469546954E3195
:1047A000E0F4677021E030E002C0220F331F6A9509
:1047B000E2F7FC01E40FF11D828190E02823392308
:1047C00081E0232B69F409C0FC01329608962191FF
:1047D000621729F0E817F907D1F780E0089581E022
:1047E00008959C01FC0132969FEF80E041914617AD
:1047F00089F09F3F19F4411101C0982F8F5F8630D7
:10480000A9F79F3F39F0F901E90FF11D97FDFA95DE
:104810006283089508959C012A5F3F4FFC01428105
:10482000461301C01282019682179307B9F70895C3
:10483000262F2695269526952E3168F4FC01E20F49
:10484000F11D677021E030E001C0220F6A95EAF7A0
:104850008281282B22830895262F2695269526953A
:104860002E3170F4FC01E20FF11D677021E030E0A1
:1048700001C0220F6A95EAF72095828128232283BE
:10488000089520912B01222329F02091FE0227FD7B
:104890000C9418240C94F12320912B01222329F04D
:1048A0002091FE0227FD0C942C240C940B242091C3
:1048B0002B01FC013296222331F08091FE0287FF0A
:1048C00002C08EE101C086E0DF011D928A95E9F702
:1048D000089508950C9469240C946924CF930E9440
:1048E0006C240E94EF0B0E946A24C0E08C2F0E946F
:1048F0004B0B811104C0CF5FCA30C1F701C081E00A
:10490000CF9108950C9469240C9482240E948424ED
:1049100080910403843009F439C01092950220E498
:1049200088E190E00FB6F894A895809360000FBEE0
:104930002093600080E00E94E8080E946B10809144
:10494000960281110AC081E0809396028091D10283
:104950008170809397020E9406110E94842483B77D
:10496000817F846083BF83B7816083BF789488959B
:1049700083B78E7F83BF0FB6F894A89580916000AF
:10498000886180936000109260000FBE08950C94BF
:1049900069240E94A11B0E94AA160E94E808109296
:1049A00096028091970281110E94DA100E945010A5
:1049B0000C94C7241F920F920FB60F9211248F935D
:1049C0009F93AF93BF9380919502811113C0809103
:1049D000FA029091FB02A091FC02B091FD02419677
:1049E000A11DB11D8093FA029093FB02A093FC02DB
:1049F000B093FD02BF91AF919F918F910F900FBE29
:104A00000F901F90189582E084BD93E095BD9AEFBA
:104A100097BD80936E0008952FB7F8948091FA02A5
:104A20009091FB02A091FC02B091FD022FBF08956E
:104A3000CF92DF92EF92FF920F931F932FB7F894CC
:104A40004091FA025091FB026091FC027091FD02CC
:104A50002FBF6A017B01EE24FF248C0120E030E0AF
:104A6000C016D106E206F30610F4415051099A012E
:104A7000281B390BC9011F910F91FF90EF90DF9018
:104A8000CF90089578941F920F920FB60F92112431
:104A90008F939F93AF93BF938091FA029091FB0203
:104AA000A091FC02B091FD020196A11DB11D809361
:104AB000FA029093FB02A093FC02B093FD02BF9117
:104AC000AF919F918F910F900FBE0F901F901895EF
:104AD00081E08093E00080E28093D8001092C900CA
:104AE0008FE19EE40197F1F700C0000087E090EBB2
:104AF000DC0180930D0390930E03A0930F03B093FA
:104B000010039CE088E10FB6F894A89580936000AC
:104B10000FBE90936000FFCF0C94F9220E94EF0B20
:104B20008FE39CE90197F1F700C000000E94EF0BB2
:104B300080E00E944B0B80FF04C00E948C250C94E7
:104B4000682508950E94FF22811102C00E94A423BB
:104B50000E940A23809394020E9417239093FF02DD
:104B60008093FE020E940E23682F70E080E090E0A8
:104B70000C94E81F8091B80208950895CF93DF93B5
:104B800000D01F92CDB7DEB790910403943019F591
:104B900089837B836A8382E08093E9008FEF909121
:104BA000E800815095FD06C095ED9A95F1F700005B
:104BB0008111F5CF8091E80085FF0DC040E050E005
:104BC00063E070E0CE0101960E94EF278091E8003B
:104BD0008E778093E8000F900F900F90DF91CF9128
:104BE0000895CF93DF93EC010E94D227823011F019
:104BF000843031F4BE0184E0DF91CF910C94BE2566
:104C0000DF91CF910895BC0183E00C94BE25CF9332
:104C1000DF93EC010E94D227823011F08430D9F565
:104C200080912B01882339F08091FE0287FF03C019
:104C300060E282E002C068E081E08093E9008FEFEB
:104C40009091E800815095FD06C095ED9A95F1F799
:104C500000008111F5CF8091E80085FF1CC0809194
:104C60002B01811105C040E050E068E070E003C016
:104C700070E040E050E0CE010E94EF278091E80014
:104C80008E778093E80080E2FE01A8E9B2E001900F
:104C90000D928A95E1F7DF91CF91089580910303FA
:104CA000811109C00E9480290E94DD298091E200C3
:104CB00084608093E200089510920303089508959C
:104CC00008950C94C92442E061EC81E00E94F92827
:104CD00042E261EC82E00C94F92880910603833073
:104CE00009F460C030F4813071F0823009F499C069
:104CF00008958A3009F485C08B3009F46BC089307F
:104D000009F0A7C020C080910503813A09F0A1C035
:104D10008091E800877F8093E8008091090390915B
:104D20000A03892B21F460E288E992E003C060E085
:104D300080E090E070E00E943A288091E8008B7754
:104D40008093E800089580910503813209F081C0C5
:104D50008091090390910A03029708F07AC080912C
:104D6000E800877F8093E8008091E80082FD05C01D
:104D7000809104038111F8CF6CC02091F3008091E1
:104D8000F20090E0922B029729F48091F1008B7F42
:104D9000813021F48091F1008093B8028091E80085
:104DA0008B7753C080910503813A09F052C08091FE
:104DB000090390910A03892B09F04BC08091E80008
:104DC000877F8093E8008091E80080FFFCCF80918E
:104DD0002B0136C0809105038132D9F580910903FA
:104DE00090910A03892BA9F58091E800877F809331
:104DF000E8000E942E298091070380932B010C94D8
:104E0000A11B80910503813221F58091E800877F05
:104E10008093E8000E942E29809108038093B902B4
:104E2000089580910503813AA1F48091E800877F7D
:104E30008093E8008091E80080FFFCCF8091B90268
:104E40008093F1008091E8008E778093E8000C94C5
:104E50002E29089584B7877F84BF0FB6F894A8954C
:104E600080916000886180936000109260000FBEA6
:104E700090E080E80FB6F894809361009093610011
:104E80000FBE0E940C170E9480290E94DD2980918C
:104E9000E20084608093E20078940E94722C0E9469
:104EA000121781E291E00E94A516809104038530DB
:104EB00069F40E948624809102038823B1F30E9442
:104EC0006E24882391F30E94D927EFCF0E942717E1
:104ED000ECCF0C946B27292F332723303105C9F0F1
:104EE00060F42130310581F02230310509F04AC0EB
:104EF0008BE390E028E63BE049C02132310511F117
:104F00002232310579F13EC082E190E023EA3BE0B4
:104F10003DC099278130910561F040F082309105C4
:104F200059F0039779F5E8E2FBE008C0E4E6FBE01E
:104F300005C0E4E5FBE002C0EEE2FBE0849190E016
:104F40009F0124C06115710541F061307105D1F4F4
:104F500089E090E023E93BE019C089E090E02AE78E
:104F60003BE014C06115710541F06130710551F4E9
:104F70008DE690E025EB3BE009C080E490E022E282
:104F80003CE004C080E090E020E030E0FA013183B2
:104F90002083089580910403843011F081E0089506
:104FA00082E008958091BA02811102C00C94CA2750
:104FB000089580E189BD82E189BD09B400FEFDCF7D
:104FC0008091D8008F7D8093D8008091E00082602E
:104FD0008093E0008091E00081FDFCCF0895CF92A6
:104FE000DF92EF92FF920F931F93CF93DF93EC0129
:104FF0008B017A010E944D29811133C0E114F10423
:1050000039F0F70180819181081B190BC80FD91F56
:10501000C12CD12C0115110519F18091E80085FDF5
:1050200016C08091E8008E778093E800E114F104C7
:1050300049F0F70180819181C80ED91ED182C082CA
:1050400085E00FC00E944D29882321F30AC0899171
:105050008093F10001501109FFEFCF1ADF0ADACF78
:1050600080E0DF91CF911F910F91FF90EF90DF9043
:10507000CF90089520910B0330910C03261737072A
:1050800048F06115710539F42091E8002E772093DE
:10509000E80001C0B901FC0120E06115710579F15A
:1050A000809104038823F1F18530F1F18091E800CB
:1050B00083FD3CC08091E80082FD2EC08091E80015
:1050C00080FFEBCF2091F3008091F20090E0922BD3
:1050D0006115710551F08830910538F421912093C4
:1050E000F100615071090196F3CF21E0089709F0B2
:1050F00020E08091E8008E778093E800CECF2111E8
:10510000CFCF0AC080910403882361F0853061F01D
:105110008091E80083FD0AC08091E80082FFF2CF11
:1051200080E0089582E0089583E0089581E0089585
:1051300020910B0330910C032617370748F06115B7
:10514000710539F42091E8002E772093E80001C022
:10515000B901FC0120E06115710591F18091040312
:10516000882309F440C0853009F43FC08091E800ED
:1051700083FD3DC08091E80082FD2FC08091E80052
:1051800080FFE9CF2091F3008091F20090E0922B14
:105190006115710559F08830910540F424912093F0
:1051A000F1003196615071090196F2CF21E0089724
:1051B00009F020E08091E8008E778093E800CBCF63
:1051C0002111CCCF0AC080910403882361F085307F
:1051D00061F08091E80083FD0AC08091E80082FFC1
:1051E000F2CF80E0089582E0089583E0089581E0A1
:1051F0000895982F973068F59093E900981739F043
:105200007091EC002091ED005091F00003C0242F2C
:10521000762F50E021FD02C09F5FECCF3091EB0074
:105220003E7F3093EB003091ED003D7F3093ED00F9
:105230003091EB0031603093EB007093EC002093E1
:10524000ED005093F0002091EE0027FDE5CF80E0C7
:1052500008958F708093E90081E00895809105039F
:1052600087FF11C08091E80082FD05C08091040392
:105270008111F8CF11C08091E8008B770BC080912D
:105280000403882349F08091E80080FFF8CF8091E3
:10529000E8008E778093E80008952091E400309133
:1052A000E50095E64091EC00842F817040FF23C01B
:1052B0008091E80080FD1DC080910403882399F04F
:1052C000853099F08091EB0085FD11C04091E4009C
:1052D0005091E5002417350729F3915011F09A01F8
:1052E000E1CF84E0089582E0089583E0089581E0AD
:1052F000089580E008954091E80042FFDDCF0895D1
:105300000E94EE290E94F629E0EEF0E080818160A3
:105310008083E8EDF0E080818F77808319BCA7ED72
:10532000B0E08C918E7F8C9380818F7E80831092F1
:10533000030308950F931F93CF93DF930E94EE29E9
:105340000E94F629C8EDD0E088818F778883888114
:105350008068888388818F7D888319BC10920403BC
:1053600010920003109202031092010300EE10E06D
:10537000F80180818B7F808388818160888342E00F
:1053800060E080E00E94F928E1EEF0E080818E7F0D
:105390008083E2EEF0E0808181608083808188609C
:1053A0008083F80180818E7F8083888180618883FB
:1053B000DF91CF911F910F910895E8EDF0E080818A
:1053C0008F7E8083E7EDF0E080818160808384E0E0
:1053D00082BF81E0809303030C949A29E8EDF0E00A
:1053E00080818E7F80831092E20008951092DA000F
:1053F0001092E10008951F920F920FB60F921124A0
:105400002F933F934F935F936F937F938F939F93CC
:10541000AF93BF93EF93FF938091E10082FF0BC0A6
:105420008091E20082FF07C08091E1008B7F809332
:10543000E1000E94712C8091DA0080FF1FC08091F2
:10544000D80080FF1BC08091DA008E7F8093DA0045
:105450008091D90080FF0DC080E189BD82E189BDC6
:1054600009B400FEFDCF81E0809304030E944E2624
:1054700005C019BC109204030E945C268091E100D3
:1054800080FF19C08091E20080FF15C08091E2008A
:105490008E7F8093E2008091E20080618093E20041
:1054A0008091D80080628093D80019BC85E08093F9
:1054B00004030E9460268091E10084FF30C0809147
:1054C000E20084FF2CC080E189BD82E189BD09B47E
:1054D00000FEFDCF8091D8008F7D8093D800809111
:1054E000E1008F7E8093E1008091E2008F7E8093C7
:1054F000E2008091E20081608093E20080910003ED
:10550000882311F084E007C08091E30087FD02C08A
:1055100081E001C083E0809304030E9461268091B2
:10552000E10083FF29C08091E20083FF25C08091C4
:10553000E100877F8093E10082E080930403109272
:1055400000038091E1008E7F8093E1008091E20072
:105550008E7F8093E2008091E20080618093E20080
:1055600042E060E080E00E94F9288091F0008860CD
:105570008093F0000E945F26FF91EF91BF91AF9161
:105580009F918F917F916F915F914F913F912F915B
:105590000F900FBE0F901F9018951F920F920FB68D
:1055A0000F9211242F933F934F935F936F937F93A9
:1055B0008F939F93AF93BF93CF93DF93EF93FF931B
:1055C000C091E900CF708091EC00D82FD17080FDA0
:1055D000D0E81092E9008091F000877F8093F0007E
:1055E00078940E94112B1092E9008091F00088605D
:1055F0008093F000CD2BCF70C093E900FF91EF9125
:10560000DF91CF91BF91AF919F918F917F916F91DA
:105610005F914F913F912F910F900FBE0F901F9070
:1056200018951F93CF93DF93CDB7DEB7AA970FB628
:10563000F894DEBF0FBECDBFE5E0F3E08091F1004E
:10564000819323E0ED30F207C9F70E946D26809127
:10565000E80083FF2EC18091050390910603492F36
:1056600050E04A30510508F024C1FA01EF56FF4FCF
:105670000C94EA2F803821F0823809F01AC108C052
:105680008091010390910203992389F082600FC0F9
:10569000809109038F70873008F00BC18093E90077
:1056A0008091EB0085FB882780F91092E9009091AA
:1056B000E800977F9093E8008093F1001092F1004A
:1056C000D1C0282F2D7F09F0F4C0882319F0823033
:1056D00061F0EFC080910703813009F0EAC0933098
:1056E00009F080E0809302032EC0809107038111AE
:1056F0002AC0809109038F702FEF280F263008F001
:10570000D8C08093E9002091EB0020FF1CC09330AB
:1057100021F48091EB00806214C09091EB009061C5
:105720009093EB0021E030E0A90102C0440F551F27
:105730008A95E2F74093EA001092EA008091EB002C
:1057400088608093EB001092E9008091E800877FE9
:105750008093E8000E942E29ACC08111AAC010914C
:1057600007031F778091E3008078812B8093E3000B
:105770008091E800877F8093E8000E942E29809125
:10578000E80080FFFCCF8091E30080688093E30015
:10579000111102C082E001C083E08093040389C03C
:1057A0008058823008F085C08091070390910803EB
:1057B0008C3D53E0950779F583E08A838AE28983FB
:1057C0004FB7F894DE01139620E03EE051E2E32F5C
:1057D000F0E050935700E49120FF03C0E295EF7092
:1057E0003F5FEF708E2F90E0EA3010F0C79601C057
:1057F000C0968D939D932F5F243149F74FBF8091C1
:10580000E800877F8093E8006AE270E0CE010196AD
:105810000E943A2816C06091090370910A03AE01F4
:105820004F5F5F4F0E946927BC01892B09F441C07B
:105830009091E800977F9093E80089819A810E9477
:1058400098288091E8008B778093E80032C08038F8
:1058500081F58091E800877F8093E80080910003C4
:105860008093F1008091E8008E7772CF811121C082
:10587000809107039091080399270297D4F48091AF
:10588000E800877F8093E8008091070380930003FE
:105890000E942E2980910003811106C08091E300AF
:1058A00087FD02C081E001C084E0809304030E9470
:1058B00063268091E80083FF0AC08091E800877F1B
:1058C0008093E8008091EB0080628093EB00AA96C1
:1058D0000FB6F894DEBF0FBECDBFDF91CF911F9101
:1058E00008950895CF93809104038823A1F0C09177
:1058F000E900CF709091EC00892F817090FD80E8D5
:10590000C82B1092E9008091E80083FD0E94112BC2
:10591000CF70C093E900CF9108955058BB27AA27B4
:105920000E94A52C0C94502E0E94422E38F00E940A
:10593000492E20F039F49F3F19F426F40C94182EC8
:105940000EF4E095E7FB0C94122EE92F0E94612ED5
:1059500058F3BA17620773078407950720F079F4A4
:10596000A6F50C94832E0EF4E0950B2EBA2FA02DE5
:105970000B01B90190010C01CA01A0011124FF27FC
:10598000591B99F0593F50F4503E68F11A16F040F7
:10599000A22F232F342F4427585FF3CF46953795F6
:1059A0002795A795F0405395C9F77EF41F16BA0BBB
:1059B000620B730B840BBAF09150A1F0FF0FBB1F69
:1059C000661F771F881FC2F70EC0BA0F621F731FB2
:1059D000841F48F4879577956795B795F7959E3F0F
:1059E00008F0B0CF9395880F08F09927EE0F9795A0
:1059F000879508950E940E2D0C94502E0E94492EDA
:105A000058F00E94422E40F029F45F3F29F00C9498
:105A1000122E51110C94842E0C94182E0E94612E7B
:105A200068F39923B1F3552391F3951B550BBB27CD
:105A3000AA2762177307840738F09F5F5F4F220F12
:105A4000331F441FAA1FA9F335D00E2E3AF0E0E809
:105A500032D091505040E695001CCAF72BD0FE2F53
:105A600029D0660F771F881FBB1F261737074807E7
:105A7000AB07B0E809F0BB0B802DBF01FF2793589F
:105A80005F4F3AF09E3F510578F00C94122E0C9423
:105A9000842E5F3FE4F3983ED4F38695779567951F
:105AA000B795F7959F5FC9F7880F911D96958795D4
:105AB00097F90895E1E0660F771F881FBB1F6217F3
:105AC00073078407BA0720F0621B730B840BBA0BB1
:105AD000EE1F88F7E095089529F416F00C94122E25
:105AE0000C94832E0C94182E0E94692EA8F39638DD
:105AF000A0F707F80F92E8942BE33AEA48EB5FE748
:105B00000E94162F0F920F920F924DB75EB70F9211
:105B10000E94CC2EE6E3F1E00E941B2E4F915F9194
:105B2000EF91FF91E595EE1FFF1F49F0FE57E068EA
:105B30004427EE0F441FFA95E1F74195550B0E945B
:105B4000962E0F9007FE0C948A2E08950E94692EBF
:105B500088F09F5798F0B92F9927B751B0F0E1F02E
:105B6000660F771F881F991F1AF0BA95C9F714C0DE
:105B7000B13091F00E94832EB1E008950C94832EF1
:105B8000672F782F8827B85F39F0B93FCCF3869517
:105B900077956795B395D9F73EF490958095709574
:105BA00061957F4F8F4F9F4F0895E89409C097FBF1
:105BB0003EF490958095709561957F4F8F4F9F4FE4
:105BC0009923A9F0F92F96E9BB279395F695879528
:105BD00077956795B795F111F8CFFAF4BB0F11F4EB
:105BE00060FF1BC06F5F7F4F8F4F9F4F16C0882392
:105BF00011F096E911C0772321F09EE8872F762FC8
:105C000005C0662371F096E8862F70E060E02AF008
:105C10009A95660F771F881FDAF7880F96958795F4
:105C200097F9089597F99F6780E870E060E008951C
:105C30009FEF80EC0895DF93CF931F930F93FF9214
:105C4000EF92DF927B018C01689406C0DA2EEF019F
:105C50000E94132FFE01E894A5912591359145915D
:105C60005591A6F3EF010E94A52CFE019701A80112
:105C7000DA9469F7DF90EF90FF900F911F91CF9129
:105C8000DF91089500240A941616170618060906CF
:105C9000089500240A9412161306140605060895A2
:105CA000092E0394000C11F4882352F0BB0F40F42A
:105CB000BF2B11F460FF04C06F5F7F4F8F4F9F4F6A
:105CC000089557FD9058440F551F59F05F3F71F0EC
:105CD0004795880F97FB991F61F09F3F79F0879553
:105CE0000895121613061406551FF2CF4695F1DFDC
:105CF00008C0161617061806991FF1CF869571056C
:105D0000610508940895E894BB2766277727CB019F
:105D100097F908959B01AC0160E070E080E89FE393
:105D20000C94FA2C0C94122E0C94752F0E94692E50
:105D3000D8F39923C9F3940F511DA3F39150504008
:105D400094F059F0882332F0660F771F881F915026
:105D50005040C1F79E3F51052CF7880F911D969535
:105D6000879597F908955F3FACF0983E9CF0BB276C
:105D7000869577956795B79508F4B1609395C1F7C7
:105D8000BB0F58F711F460FFE8CF6F5F7F4F8F4F65
:105D90009F4FE3CF0C94842EFA01DC01AA0FBB1FA6
:105DA0009B01AC01BF5728F42227332744275078A2
:105DB00020C0B75190F4AB2F002446953795279516
:105DC000011CA395D2F3002071F0220F331F441F52
:105DD000B395DAF30ED00C948D2C61307105A0E8E8
:105DE0008A07B94630F49B01AC01662777278827DC
:105DF0009078309621F02083318342835383089535
:105E00000E94132F0C94502E0E94422E38F00E94B4
:105E1000492E20F0952311F00C94122E0C94182E7C
:105E200011240C94842E0E94612E70F3959FC1F36F
:105E3000950F50E0551F629FF001729FBB27F00D38
:105E4000B11D639FAA27F00DB11DAA1F649F66278D
:105E5000B00DA11D661F829F2227B00DA11D621FDC
:105E6000739FB00DA11D621F839FA00D611D221F96
:105E7000749F3327A00D611D231F849F600D211D7A
:105E8000822F762F6A2F11249F5750409AF0F1F0FD
:105E900088234AF0EE0FFF1FBB1F661F771F881F66
:105EA00091505040A9F79E3F510580F00C94122E5E
:105EB0000C94842E5F3FE4F3983ED4F38695779557
:105EC0006795B795F795E7959F5FC1F7FE2B880F0C
:105ED000911D9695879597F908959F930E94852F18
:105EE0000F9007FCEE5F0C94AE2F9F3F31F0915066
:105EF00020F4879577956795B795880F911D9695AE
:105F0000879597F908950C94182E0E94692ED8F35E
:105F1000E894E0E0BB279F57F0F02AED3FE049EC22
:105F200006C0EE0FBB0F661F771F881F28F0B23A1E
:105F300062077307840728F0B25A620B730B840B55
:105F4000E3959A9572F7803830F49A95BB0F661FE7
