:100000000C9448020C94F40D0C948F020C948F0203
:100010000C948F020C948F020C948F020C948F021C
:100020000C948F020C948F020C9472240C9444252F
:100030000C94961C0C948F020C948F020C948F02DB
:100040000C948F020C948F020C948F020C948F02EC
:100050000C948F020C94FE1C0C948F020C948F0253
:100060000C948F020C948F020C948F020C948F02CC
:100070000C948F020C948F020C948F020C948F02BC
:100080000C948F020C948F020C948F020C948F02AC
:100090000C948F020C948F020C948F020C948F029C
:1000A0000C948F020C948F020C948F024311431115
:1000B00075117511CE11EC11611361132E12C3125B
:1000C000D412D4125113611361135A13F713F71397
:1000D000091409140014091409140914F713F71367
:1000E0000514091409140514B125D825D026D825DE
:1000F000D02624264726D0269E26AD261A000900A3
:10010000000014001A0000002B0014001A00080060
:1001100015001700E00004611600070009000A003E
:1001200002551D001B000600190005002845165C3D
:10013000E300656403542C002A00130012000C0035
:1001400018001C00340000570F000E000D000B00BB
:100150000457380037003600100011004F005200DD
:10016000510050002A4428452B0014001A000900B1
:1001700013000A00E00004611500160017000700D4
:1001800002551D001B000600190005002845165CDD
:10019000E300656403542C002A0000571C0018007B
:1001A0000F000D00340012000C00080011000B00BD
:1001B000045738003700360010000E004F00520080
:1001C000510050002A4428450000000000000000B3
:1001D000000000000000000000000000000000001F
:1001E000000000000000000000000000000000000F
:1001F00000000000000000000000000000000000FF
:1002000000000000000000000000000000000000EE
:1002100000000000000000000000000000000000DE
:10022000000000000000000006574B004A0052008A
:100230004D0049002A004E00500051004F000100BF
:10024000A800A900AA00AC00AB0028004600650089
:100250000100AF000100AE004C002702015725024B
:100260002402230206572202210220021F021E023C
:100270000100010001000100055707573002035734
:10028000300002570100010001003502065701004D
:10029000010001000100310230002F002D022D006D
:1002A0000100310030022F022E022E000100010059
:1002B000010001000100010001004500440043006D
:1002C000420001000100410040003F003E000100EB
:1002D00001003D003C003B003A00460001000100E7
:1002E0000100010001000100005C0100F700FB00BB
:1002F000FC00F900095D0100F600F500F400FA00C9
:10030000085D0100F8004604160A460C00000100D2
:100310000100010001000100B20056005700260054
:100320002500240001005400550023002200210074
:1003300001000100010020001F001E00010001005B
:1003400001006300270001000403300000001E03C9
:100350004C006500760069006E0073006F006E004F
:1003600020006200790020004E00520000000E03C1
:100370004B0065006500620069006F000000040327
:10038000090409023B00020100A0FA09040000016F
:10039000030101000921110100012240000705812C
:1003A0000308000A090401000103000000092111EB
:1003B0000100012281000705820320000A120110BA
:1003C000010000000810CB461100030102030105E3
:1003D000010902A10185020901A1000509190129EC
:1003E00005150025019505750181029501750381AB
:1003F000010501093009311581257F9502750881B4
:100400000609381581257F950175088106050C0AB6
:1004100038021581257F950175088106C0C0050148
:100420000980A101850319012AB700150126B7002B
:10043000950175108100C0050C0901A10185041901
:10044000012AA002150126A002950175108100C0A5
:1004500005010906A101050719E029E71500250195
:10046000950875018102950175088101050719003C
:1004700029FF150026FF009506750881000508195B
:10048000012905950575019102950175039101C03A
:1004900011241FBECFEFDAE0DEBFCDBF04B603FEEE
:1004A00027C080915A0390915B03A0915C03B091A7
:1004B0005D038730904BA740B04BD1F410925A03A4
:1004C00010925B0310925C0310925D0314BE84B71C
:1004D000877F84BF0FB6F894A895809160008861EB
:1004E00080936000109260000FBEE0E0F8E3099591
:1004F00012E0A0E0B1E0ECEEFEE402C005900D9247
:10050000A037B107D9F723E0A0E7B2E001C01D9200
:10051000AA35B207E1F70E94A1210C9474270C942C
:100520000000882319F0813031F00895662349F0E6
:1005300089E290E004C0662321F08BE290E00C9405
:1005400023030895CF93DF93EC010E94591BBE0152
:1005500080E090E0DF91CF910C942C1888302DE54D
:10056000920751F089309D4589F4FB0182818823EF
:1005700071F081E090E006C0FB018281882339F0B0
:1005800082E090E00E94A20280E0089581E0089558
:100590000C9404069C013A9521153F4138F5DC0185
:1005A000AA27B270AC01442754709C0122273870EE
:1005B00094FF0FC090FF02C080E101C080E0AB2B30
:1005C00009F08062452B09F08064232B69F0806874
:1005D0000BC0892F8170AB2B09F08260452B09F08D
:1005E0008460232B09F08860FB0109940895CF9360
:1005F000DF93EC01805E9109089710F0209719F4C1
:1006000063E071E102C06DEB73E1CE010E94CA02AA
:100610008C2FDF91CF910C94DE0FCF93DF93EC0101
:100620000E948810CE01805E9109089710F02097F3
:1006300019F46AE071E102C064EC73E1CE01DF916C
:10064000CF910C94CA02CF93DF93EC010E94F70282
:10065000CE01DF91CF910C940D0381E008950C94AD
:10066000AE021F93CF93DF9300D000D01F92CDB77F
:10067000DEB749835A836B832091A70289819A81CF
:10068000211112C0662349F00E948319182F682F88
:1006900089819A810E942A1903C00E945619182F35
:1006A00069817A81812F04C00E94831969817A81CE
:1006B0000F900F900F900F900F90DF91CF911F919F
:1006C0000C94EA03FC014081518162817381848131
:1006D0000C9431030E944A1D0E94461B811102C0E6
:1006E0000E94EB1B0C94C8020E94E10A0E9444087D
:1006F0000C94020608950C947A0381E008950C94FA
:100700007D03CF93C82F0E947B038C2F0E947F0311
:10071000CF91089508950E94E5130E948A032FEF58
:1007200084E39CE0215080409040E1F700C000004D
:100730000C94241D0F931F93CF93DF93EC010E9421
:1007400062038C01BE010E943E0ABE01C8010E94E4
:100750002F038823A9F1BE01C8010E94850A8823BE
:1007600079F1BE01C8010E947108882349F1BE01D8
:10077000C8010E94A80B882319F1BE01C8010E947C
:10078000E90B8823E9F0BE01C8010E94140D8823FB
:10079000B9F08A81882369F001158CE5180731F0DA
:1007A0000E3D1C4531F40E94EB1B0AC00E948B03D6
:1007B00007C0CE01DF91CF911F910F910C942D03B3
:1007C00080E0DF91CF911F910F91089580E090E03C
:1007D0000895089520E3829FC0011124FC0126E0C2
:1007E000729FE00DF11D1124E60FF11DEE0FFF1FAA
:1007F000E85FFE4F859194910895880F991FFC0141
:10080000E85BFC4F859194910895CF93DF930E940C
:10081000EA030E941D05EC018115904508F041C0D6
:10082000C11580E4D80708F0D1C0C83ED10510F545
:10083000C03ED10508F0FDC0C83AD10578F4C53AEC
:10084000D10508F0A2C0C130D10509F4F2C008F406
:10085000EEC0C430D10508F0ECC0E9C0CF3BD105F3
:1008600008F49BC0C03CD10508F4E1C0CE01805C17
:1008700091099EC0C11590E2D90758F4C11521E035
:10088000D20708F0D6C0C03FD10508F4D0C0D0656B
:10089000D0C0C11580E3D80708F08EC0CE019F708C
:1008A00087C0C11595E5D90708F043C0C11524E5F7
:1008B000D20708F0A2C0C11582E5D80708F5C11516
:1008C00091E5D90708F085C0CE0174E0969587952B
:1008D0007A95E1F783709C2F937021E030E002C09D
:1008E000220F331F9A95E2F73C68382BCF70C695DC
:1008F000C69580E2C89FE0011124C22BD32B99C07A
:100900009E01237033278C2F86958695C115D3457C
:1009100008F064C0C1E0D0E002C0CC0FDD1F2A9512
:10092000E2F720E2829FC0011124C82BD92BDC689A
:1009300080C0C11529E5D207A0F4C11588E5D80704
:1009400008F060C0C11596E5D90708F070C08C2F7B
:100950000E94B1058F71C82FD0E0DC2FCC27D06268
:1009600068C0C1152AE5D20708F451C0CE019056DF
:100970008115904208F05BC08D2F8F710E94B105E8
:10098000DD27D0628F71D82B54C0C55AD0E0C45C2B
:10099000DD4FC881D0E0D0644CC0C85AD0E0CC0F45
:1009A000DD1FC25FDD4F0990D881C02DD46441C0E6
:1009B0000E94FD03EC013DC0CE019927D3FF03C087
:1009C000EC01D86C36C0EC01D06C33C0DF70D06A5B
:1009D00030C0DC2FCC27C16FD06A2BC0C1E0D0E083
:1009E00002C0CC0FDD1F2A95E2F720E2829FC001F2
:1009F0001124C82BD92BDA681CC0DC2FCC27C46F7C
:100A0000D06A17C0DC2FCC27C06FD06A12C08C2FE1
:100A10008F700E94B10594E0D695C7959A95E1F73D
:100A2000CF70D0E0DC2FCC27D069C82B02C0C0E04B
:100A3000D0E0CE01DF91CF9108958238910569F120
:100A4000B0F48133910509F46DC048F48932910501
:100A500009F463C08A32910509F469C008958533A9
:100A6000910509F455C089339105B9F00895833E85
:100A7000910569F138F4803E9105B1F0823E91050F
:100A800009F10895863E9105A9F1873E9105B9F1D6
:100A9000843E910509F064C023C020914B0320FDE2
:100AA0004FC021FD4DC0089580914B0380FD44C08F
:100AB00080914C0380FF44C080914B0384FD42C071
:100AC00083EE4DC080914B0382FF38C0F5CF8091FB
:100AD0004B0382FD33C080914C0380FD31C0ECCFCD
:100AE00080914C0381FF32C080914B0384FD2AC06A
:100AF00087EE35C080914B0383FF26C0F5CF8091F0
:100B00004B0383FD21C080914C0381FD1FC0ECCFBE
:100B100080914B0385FD1CC01DC080914B0385FD5A
:100B200019C016C080914B0386FD16C017C0809176
:100B30004B0386FD13C010C089E311C082EE0FC0C5
:100B400080EE0DC080E00BC086EE09C084EE07C0C9
:100B500089E205C085E303C08AE201C081E390E039
:100B6000089590914B0392FF0DC0282F28712830D3
:100B700019F4877F846006C0282F2471243011F473
:100B80008B7F886093FF0DC0282F2871283119F4BE
:100B9000877E846106C0282F2471243111F48B7E56
:100BA000886120914C0320FF0DC0382F38713830F8
:100BB00019F4877F816006C0382F3171313011F40C
:100BC0008E7F886021FF0DC0282F2871283119F4ED
:100BD000877E816106C0282F2171213111F48E7E1C
:100BE000886194FD877E0895E82FF0E0E55CFC4F76
:100BF00080810895089580EA8A95F1F7089508950F
:100C00000C94FF050C9400060C94FF0508950F93B7
:100C10001F93CF93DF93CDB7DEB72E970FB6F8941F
:100C2000DEBF0FBECDBF0E94DD078091E8018111BC
:100C30002BC0FE01319688E0DF011D928A95E9F70D
:100C400084E9898382E38A8383E38B8381E38C83D2
:100C5000A0EEB1E0CE01099621912D938E179F074A
:100C6000D9F726E0E8E0F2E0DE01199601900D9256
:100C70002A95E1F7FC01AAEDB1E0CE010F96219192
:100C80002D938E179F07D9F78091E801811102C03B
:100C900094E001C090E09093440384E0891B80932A
:100CA0004303A0EEB1E044EE51E061E070E08D91CD
:100CB000E82FE295EF70F0E021A18F708B0102C068
:100CC000000F111F8A95E2F7C801902F909592238B
:100CD00091A392A1892B82A34A175B0741F7AAED42
:100CE000B1E040EE51E061E070E08D91E82FE295D7
:100CF000EF70F0E021A18F708B0102C0000F111F77
:100D00008A95E2F7C801902F9095922391A392A122
:100D1000892B82A34A175B0741F7E3E3F3E0ABE3D8
:100D2000B3E08BE393E011921D928E179F07D9F7E2
:100D300084E00E9482070E946A032E960FB6F89400
:100D4000DEBF0FBECDBFDF91CF911F910F910C94ED
:100D5000E7070E94C0078823F1F08091430390E0E9
:100D6000855C9C4F0E94FA07811111C0809170022E
:100D70008F5F80937002863060F0E0914303F0E073
:100D8000E55CFC4F108211821282138202C0109225
:100D900070020C9474038091440390E0855C9C4F36
:100DA0000E9415080C9406068F929F92AF92BF92F4
:100DB000CF92DF92EF92FF920F931F93CF93DF9327
:100DC00000EE11E0C3E3D3E087E3E82E83E0F82EE2
:100DD000912CAA24A394B12C6E0188801882F8016A
:100DE0008081E82FE295EF70F0E021A18F70A501DE
:100DF00002C0440F551F8A95E2F7CA01822B81A3D6
:100E0000F8018081E82FE295EF70F0E092A18F70F9
:100E1000950101C0220F8A95EAF7822F80958923D8
:100E200082A30E94FB05EAEDF1E020E030E0919121
:100E3000A92FA295AF70B0E090964C91688150E0D8
:100E40009F7002C0559547959A95E2F740FD08C0FE
:100E50009A2D022E01C0990F0A94EAF7892F01C03A
:100E600080E0862B88832F5F3F4F26303105F9F6CF
:100E7000F8018081E82FE295EF70F0E091A18F708A
:100E8000950101C0220F8A95EAF7822F8095892368
:100E900081A3F80181918F01E82FE295EF70F0E0D6
:100EA00022A18F70A50102C0440F551F8A95E2F759
:100EB000CA01822B82A3219681E0F60190819811CC
:100EC00001C080E0982AEC16FD0609F085CF6091FC
:100ED000440370E0655C7C4F292D44E083E393E09C
:100EE0000E9483070E94A906892DDF91CF911F914F
:100EF0000F91FF90EF90DF90CF90BF90AF909F90B9
:100F00008F9008950895FF920F931F93CF93DF93CF
:100F10008C01F62ED72FC42F222349F081E0809335
:100F200073020E94C81C9093720280937102809198
:100F300073028823C1F080917102909172020E9425
:100F4000D41C069780F0EF2DFD2FD8014C2F50E0D8
:100F5000CD01801B910B841795071CF48D91819313
:100F6000F7CF10927302DF91CF911F910F91FF90F5
:100F7000089552985A9889B182FB882780F908957C
:100F800080917402811112C08091D8008061809399
:100F9000D8008AE18A95F1F700C08091D90080FDE0
:100FA00002C082E001C081E08093740281E09091F0
:100FB0007402913009F080E008950E94B90780938F
:100FC000E8010E94C00781110C94EE0708950E9469
:100FD000C007811102C00C94F407089561E070E02D
:100FE00089EE91E00C94A60D61E070E089EE91E04D
:100FF0000C94AD0DCF93DF93D82FC92F0E94450ECF
:10100000892B79F4ED2FFC2F80E090E0DC01AA58C9
:10101000BD4F2C912193019684309105B9F781E061
:1010200001C080E0DF91CF91089520E030E0FC0125
:101030004191CF01F901EA58FD4F40832F5F3F4FA7
:1010400024303105A1F70895CF9390918A02992316
:10105000C9F0882311F0C0E003C010928A0212C0C8
:1010600080918A02C817C8F7EC2FF0E0EE0FFF1F3F
:10107000E658FD4F808191810E94F7020E94B51AC7
:10108000CF5FEECFCF9108958091F1018823A1F039
:1010900080918B02882381F080918E0290918F0243
:1010A000009751F00E94D41C893C910528F01092C1
:1010B0008B0281E00C942408089510928B02109208
:1010C000F10110928F0210928E0281E00C9424089C
:1010D0008091F10181110C945D0881E08093F10110
:1010E00008955F926F927F928F929F92AF92BF927C
:1010F000CF92DF92EF92FF920F931F93CF93DF93E4
:101100008C017B0110928C02873F2CE5920741F401
:10111000FB01C281CC23C9F081E08093F1010AC1B7
:10112000883FFCE59F0739F4FB01C281CC2369F0BD
:101130000E945D08FFC0893F9C4539F4FB01C281D4
:10114000CC2319F00E946808F5C08091F101882332
:1011500009F4EFC010928D02AA24A394B12C95E05B
:10116000992EC1E0D0E08824839480918D02823052
:1011700008F0A1C0C82ED12C9C9CF0019D9CF00DC4
:101180001124E053FE4F4081518177247A9490E0FE
:10119000FA01E90FF11DE90FF11D259134910217B4
:1011A000130709F4792E232B11F09F5FF1CFFFEF86
:1011B0007F1202C0612C66C050908B02F7016280E2
:1011C000662069F19C9CF0019D9CF00D1124E05378
:1011D000FE4F9E0101C0220F7A94EAF73481232B3F
:1011E0002483552039F3AE0102C0440F551F9A9550
:1011F000E2F74150510930E04217530709F042C06D
:10120000228133812115310521F0C9010E94F702A5
:1012100003C061E00E94910280928C0233C09E0163
:1012200002C0220F331F9A95E2F7215031099C9C8E
:10123000F0019D9CF00D1124E053FE4F448150E0DD
:101240002417350769F4228133812115310521F0F6
:10125000C9010E940D0305C060E00E94910201C017
:10126000512C9C9CF0019D9CF00D1124E053FE4FED
:10127000CE0101C0880F7A94EAF780959481892382
:101280008483652CB628AA2069F09C9CF0019D9C63
:10129000F00D1124E053FE4F91E08481811190E024
:1012A000892F01C080E08170A82E80918D028F5F10
:1012B00080938D025ACF80918C02882351F00E9436
:1012C000C81C90938F0280938E0280E00E942408B5
:1012D0002CC0B1100DC081E00E942408AA2029F181
:1012E00010928F0210928E0281E080938B021DC0BB
:1012F000F70182818823C9F080918B028823A9F0AD
:101300000E94C81C90938F0280938E02E0918A0203
:10131000E83058F481E08E0F80938A02F0E0EE0FFF
:10132000FF1FE658FD4F1183008381E0CB2DC827B6
:1013300001C0C1E08C2FDF91CF911F910F91FF90E1
:10134000EF90DF90CF90BF90AF909F908F907F9065
:101350006F905F900895CF93DF93EC0181E0898BCC
:101360008F810E94581A88850E946B1A0E94B51AB4
:10137000EA81FB81CE010696309729F06C897D8940
:10138000DF91CF910994DF91CF910895CF93DF93AF
:10139000FC012081223041F4FB01EC018281938128
:1013A0000E94F70281E08B87DF91CF910895FC01C5
:1013B0008081813021F4FB018081918105C08230E0
:1013C00029F4FB01828193810C94F7020895FC01BA
:1013D0008081813021F4FB018081918105C08230C0
:1013E00029F4FB01828193810C940D030895EF92FF
:1013F000FF920F931F93CF93DF93FC01228521115E
:1014000036C0EC01E380F480F7E5FF1A26E12E9D5B
:10141000C0012F9D900D1124DC01A050BF4F1496E8
:10142000ED91FC9115978A5F9E4F309729F0549665
:101430006D917C915597099586E18E9D80018F9DD8
:10144000100D112400501F4FF80187810E945E1A71
:10145000F80180850E94711A0E94B51A18821986B7
:101460001B861E821D821092910210929002DF91C3
:10147000CF911F910F91FF90EF900895DF92EF921F
:10148000FF920F931F93CF93DF93FB0122812223BF
:10149000A1F12091F2012F3F81F18C01C0E0D1E058
:1014A000E12CF12CDD24D3948091F201082E000C64
:1014B000990B8E159F050CF18E818823C9F08985C3
:1014C0009A858017910739F480919002909191024A
:1014D0000817190769F0DF861C870B878989811136
:1014E00003C0CE010E94AB09CE0106960E94F70907
:1014F000FFEFEF1AFF0A6696D7CFDF91CF911F91CA
:101500000F91FF90EF90DF900895EF92FF920F936D
:101510001F93CF93DF939C0137552F3F310511F077
:1015200008F047C04091F201042E000C550B421701
:10153000530714F42093F201FB017C01828196E1B0
:10154000929F8001939F100D1124E801C050DF4F3E
:10155000888B92818E81992311F1FA86E9868F5FBB
:101560008E830E94C81C9E878D870E948B1A8F8352
:101570000E94551A88870E94681A9885892B888747
:10158000E881F981C8018A5F9E4F309719F06C8914
:101590007D890995F0929102E09290020AC0882319
:1015A00041F08989882329F0C8018A5F9E4F0E94F3
:1015B000F70981E0DF91CF911F910F91FF90EF909C
:1015C0000895CF92DF92EF92FF920F931F93CF93E4
:1015D000DF938091F2018F3FF1F1F12C96E1E92E3A
:1015E0000F2D10E08091F201082E000C990B80174E
:1015F00091078CF1E09EF001E19EF00D1124E05086
:10160000FF4FC288D388C114D10419F488ECC82EC6
:10161000D12CE09EE001E19ED00D1124C050DF4F9F
:101620008E818823B1F08D859E850E94D41CC816BA
:10163000D90678F48989811103C0CE010E94AB09D3
:10164000E09EC001E19E900D11248A5F9E4F0E9492
:10165000F709F394C5CFDF91CF911F910F91FF90C0
:10166000EF90DF90CF9008950F931F93CF93DF9368
:10167000C62FD42F122FFC0182818823C9F06093DA
:1016800094020E94C81C909393028093920280E27D
:101690008C0F883008F057C0C77081E001C0880FF8
:1016A000CA95EAF7DF91CF911F910F910C94031126
:1016B00080919402681330C08091920290919302BD
:1016C0000E94D41C883C910538F500E20D0FCD171F
:1016D000B9F080E28C0F883040F4C77081E001C01F
:1016E000880FCA95EAF70E940A11083028F581E0B0
:1016F0009D2F977001C0880F9A95EAF70E940311F9
:10170000812F0E94F0100830F0F4D77081E001C002
:10171000880FDA95EAF70AC080E28C0F883098F4D7
:10172000C77081E001C0880FCA95EAF7DF91CF91B9
:101730001F910F910C940A11812FDF91CF911F916E
:101740000F910C94F010DF91CF911F910F9108959C
:101750009C01CB01233F4CE53407F9F078F4283D98
:10176000FCE53F07B9F0293D4CE5340711F1273D71
:101770003C4531F526E241EE61EE1EC0253FFCE519
:101780003F0799F070F0263F3C45D1F427E245EE43
:1017900066EE12C027E245EE0EC026E241EE60EE94
:1017A0000BC027E245EE64EE07C026E241EE62EE92
:1017B00003C028E241E065EE0E94340B80E008950A
:1017C000FC018281882319F010929402089581E02F
:1017D0000895CF93DF93EC01FB018281882309F404
:1017E0001FC1C230FCE5DF0708F41BC1C6319CE510
:1017F000D90738F09E012A5F3C452930310508F0B1
:1018000010C10E945E1B90934C0380934B03C03128
:10181000ECE5DE0709F4C3C008F041C0C8308CE530
:10182000D80709F49AC0F0F4C430ECE5DE0709F4F7
:1018300087C068F4C2308CE5D80709F477C0C3309C
:10184000DC4509F0E3C080914B03826076C0C6306E
:10185000ECE5DE0709F46EC008F07BC080914B0315
:1018600088606BC0CC308CE5D80709F485C068F47B
:10187000CA30ECE5DE0709F474C008F079C00E94B4
:10188000E51380914B03806858C0CE308CE5D807B3
:1018900009F476C008F07FC080914B038BC0CB3F2A
:1018A000ECE5DE0709F44FC018F5C3318CE5D80725
:1018B00009F47DC078F4C131ECE5DE0709F473C0AA
:1018C000C231DC4509F0A2C00E94E51380914B03B0
:1018D0008F7733C0C5318CE5D80709F472C008F49E
:1018E00086C0CA3FDC4509F091C080914C033EC0E0
:1018F000CF3FFCE5DF0709F45FC058F4CD3F9CE51E
:10190000D90709F444C008F43FC080914C038260B9
:101910002DC0C130FDE5DF0709F475C008F45DC0D6
:10192000C230DD4509F072C080E06EC080914B038B
:10193000816003C080914B03806180934B0366C03C
:1019400080914B0311C080914C03826080934C03C3
:101950005DC080914B038062F0CF80914B03806427
:10196000ECCF80914B0388608460E7CF8160EECF3D
:1019700080914B038E7FE1CF80914B038D7FDDCF34
:1019800080914B03877FD9CF80914C0318C0809101
:101990004C038D7FDBCF80914B038F7ECECF809128
:1019A0004B038F7DCACF80914B038F7BC6CF809135
:1019B0004B03877F8B7FC1CF80914C038D7F8E7FC0
:1019C000C5CF80914B0382FB222720F991E092271B
:1019D00090FB82F990FB83F9B0CF80914C03982F54
:1019E000909591708E7F892B90FB81F9AFCF0E94EB
:1019F000E51380914B0387FB222720F991E0922782
:101A000090FB87F99ACF81E00E94ED1B80914B03F8
:101A100090914C030E946F1B0E94E51380E001C06F
:101A200081E0DF91CF910895CF93DF9386319C457C
:101A300071F5EB010E94551A982F917119F4982FA6
:101A40009A7A01C090E08A812091F3013091F401EB
:101A5000882379F081E0911101C080E080939502A4
:101A6000911102C069E201C065E3C9010E94341C02
:101A70000AC080919502811102C069E201C065E34C
:101A8000C9010E94361C0E94B51A80E001C081E0A5
:101A9000DF91CF9108958EE1489B02C08150E1F71C
:101AA000489BFECF0895589880E28A95F1F7589A9E
:101AB0000895FC012AE02A95F1F728E090E080E003
:101AC00031E040E14A95F1F7880F489B02C0816000
:101AD000932700C0000040E14A95F1F7215089F7B3
:101AE00020E12A95F1F729B100C0000030E13A95D4
:101AF000F1F7217092272081920F90830895EF9241
:101B0000FF920F931F93CF93DF931F92CDB7DEB752
:101B100019828C017C01E60EF11C0E151F0551F097
:101B20000E944B0DCE0101960E94590DF801819340
:101B30008F01F3CF81E09981911180E00F90DF91C7
:101B4000CF911F910F91FF90EF900895909397027E
:101B500080939602509A589A089590939702809392
:101B600096025098589AE89AE9E6F0E080818C7FD6
:101B700080830895615091E001C0990F6A95EAF75A
:101B800020E031E0992361F0492F482319F0589A59
:101B9000232701C0589840E24A95F1F79695F2CF75
:101BA000222311F0589A01C0589880E28A95F1F7E3
:101BB00058980895FF920F931F93CF93DF93EC01F2
:101BC0008C01060F111DC017D10741F0F9900E943A
:101BD000530D68E08F2D0E94BA0DF5CFDF91CF91A4
:101BE0001F910F91FF9008951F920F920FB60F92C1
:101BF00011242F933F934F935F936F937F938F9312
:101C00009F93AF93BF93CF93DF93EF93FF93589836
:101C1000509AC0919602D09197026D81662321F06F
:101C20008E819F810E94DA0D0E94530D80E18A957A
:101C3000F1F758985098589A80E18A95F1F76A819F
:101C4000662351F08B819C810E947F0DE881F98190
:101C5000811104C082E003C0E881F98188E08083BB
:101C60000E944B0DFF91EF91DF91CF91BF91AF910A
:101C70009F918F917F916F915F914F913F912F91A4
:101C80000F900FBE0F901F901895CF93DF93C091C8
:101C90009602D0919702F894509A589885E08A95C8
:101CA000F1F700005098589A80E28A95F1F7489B26
:101CB0000AC0509A589AE881F98181E0808378942B
:101CC00081E090E02CC06D81662381F08E819F8140
:101CD0000E947F0D81110AC0509A589AE881F981BB
:101CE00082E08083789482E090E019C00E944B0DDE
:101CF00080E28A95F1F75898509A80E18A95F1F739
:101D00006A81662321F08B819C810E94DA0D0E94FA
:101D1000530DE881F9811082789480E090E0DF91A2
:101D2000CF91089590939D0280939C020895E09135
:101D30009C02F0919D02309721F00190F081E02DFE
:101D4000099480E00895E0919C02F0919D02309703
:101D500021F00280F381E02D09940895E0919C0226
:101D6000F0919D02309739F022E0DC012C93048041
:101D7000F581E02D0994089520919A0230919B02FB
:101D80002817390771F090939B0280939A02E09193
:101D90009C02F0919D02309721F00680F781E02DA2
:101DA00009940895209198023091990228173907D3
:101DB00071F09093990280939802E0919C02F091C7
:101DC0009D02309721F00084F185E02D099408955B
:101DD00085B7806885BF85B7806885BF08950895F9
:101DE0000C94EF0E0C94F00E0C94EF0E0C94EF0E7E
:101DF0000E94E80E0E94F40E0C94F20E0E94BF1C8A
:101E00000E9407060E945E1D0C94F60EAF92BF92D0
:101E1000CF92DF92EF92FF920F931F93CF93DF93B6
:101E2000CDB7DEB72A970FB6F894DEBF0FBECDBF91
:101E30000E94D4060E94C007811111C08FEF8983D0
:101E40008A831B820E94C81C8160782F9D838C83AB
:101E500049815A816B818D810E949E0F40C08FE91C
:101E6000A82E82E0B82E00E010E0C02E802F0E9445
:101E7000F405E82EF501D1905F01D82631F40F5F0B
:101E80001F4F0830110589F7D9CF8091180381FDC4
:101E90000E94FA0580E0FF24F3949D2D9F21D1F04C
:101EA0008E83CF82EF2081E009F480E088870E9452
:101EB000C81C8160782F9A8789874E815F816885E9
:101EC0008A850E949E0FF801E156FD4F8081F82619
:101ED000F08205C08F5FFF0C8630F9F6D0CF0E94EC
:101EE000F01E0E94970E90919E028917B1F00E94F9
:101EF000970E80939E022A960FB6F894DEBF0FBE0F
:101F0000CDBFDF91CF911F910F91FF90EF90DF90A8
:101F1000CF90BF90AF900C9481032A960FB6F8949F
:101F2000DEBF0FBECDBFDF91CF911F910F91FF900C
:101F3000EF90DF90CF90BF90AF900895CF93DF9355
:101F4000CDB7DEB72B970FB6F894DEBF0FBECDBF6F
:101F50004F83588769877A878B87DE01119686E0E1
:101F6000FD0111928A95E9F785E0FE01379601900F
:101F70000D928A95E1F70E94231A882319F082E0D6
:101F80000E94271B0E94F61981110E94A71A4981FD
:101F90005A816B817C818D819E810E94EF162B96E8
:101FA0000FB6F894DEBF0FBECDBFDF91CF9108957D
:101FB000FC01808191810E94C5190895CF938823E7
:101FC00009F4A4C0C82F8238C1F40E94970E81FD85
:101FD0009DC069E38091F3019091F4010E94341C4B
:101FE0000E94B51A2FEF81EE94E02150804090407E
:101FF000E1F700C0000069E319C0833801F50E94D1
:10200000970E80FD83C063E58091F3019091F40108
:102010000E94341C0E94B51A2FEF81EE94E02150EB
:1020200080409040E1F700C0000063E58091F3013B
:102030009091F4010E94361CCF910C94B51A84380B
:10204000C1F40E94970E82FD61C067E48091F301A4
:102050009091F4010E94341C0E94B51A2FEF81EE7A
:1020600094E0215080409040E1F700C0000067E418
:10207000DDCF8CEF8C0F813AD0F46C2F8091F3017F
:102080009091F4010E94FE1B882349F06C2F8091EF
:10209000F3019091F4010E94361C0E94B51A6C2F36
:1020A0008091F3019091F4010E94341CC5CF80E22D
:1020B0008C0F883048F4C77081E001C0880FCA9542
:1020C000EAF70E94581AB8CFEBE5EC0FE33040F482
:1020D000F0E0E359FD4F808190E0CF910C94BC0E6D
:1020E000E8E5EC0FE73150F4F0E0EE0FFF1FE15CA4
:1020F000FD4F80819181CF910C94D20EC03F30F082
:102100008C2F0E94F81DCF910C94E51ECF9108955D
:10211000882309F464C0823879F40E94970E81FF05
:102120005EC069E38091F3019091F4010E94341C38
:102130000E94B51A69E310C08338B1F40E94970E6B
:1021400080FF4DC063E58091F3019091F4010E94FE
:10215000341C0E94B51A63E58091F3019091F4015B
:102160000E94361C0C94B51A843879F40E94970E9C
:1021700082FF35C067E48091F3019091F4010E94E1
:10218000341C0E94B51A67E4E7CF9CEF980F913A90
:1021900010F4682FE1CF90E2980F983050F48770D8
:1021A00091E001C0990F8A95EAF7892F0E945E1A83
:1021B000D9CF9BE5980F933020F480E090E00C9409
:1021C000BC0E98E5980F973120F480E090E00C94D5
:1021D000D20E803F20F00E94601E0C94E51E0895F0
:1021E000CF93C82F0E94DE0FC93349F42FEF87EE3B
:1021F00093E0215080409040E1F700C000008C2F18
:10220000CF910C948810882321F00E94581A0C94C6
:10221000B51A0895882321F00E945E1A0C94B51A0D
:102220000895CF92DF92EF92FF920F931F93CF9377
:10223000DF937C01062FC72FFC01D581D295DF707B
:10224000128111110E94781A0E944E1A882379F087
:10225000112369F080E2800F883048F082E00E940C
:10226000271B0E944E1A91E0D82ED92601C0D12CEE
:10227000CC2EC2948FE0C8228C2D90E0FC01EA5A4B
:10228000FF4F0C9418278C2F807FCF70882311F07C
:10229000C295C07F112399F0CC2309F4ECC180E2F0
:1022A000800F883010F0011104C08C2F0E94581A42
:1022B00003C08C2F0E946B1A0E94B51ADCC1802FBC
:1022C0000E948810CC2309F4FCC180E2800F883082
:1022D00010F0011104C08C2F0E945E1A03C08C2FD5
:1022E0000E94711A0E94B51AECC18C2F807FCF70AA
:1022F000803211F0C295C07F002319F0013059F1EE
:1023000034C01123B1F0DD2381F0D13031F40E94CB
:102310008B1A8C2B0E94931AD4C1D33031F40E94B3
:10232000A71A8C2F0E94F31A24C00E948B1A8C2BA0
:1023300021C0DD2369F0D13041F40E94551A8C236D
:1023400009F4BFC10E94FC1A03C0D33009F4B9C11B
:102350000E94A71A1FC0112321F0D43008F0B1C188
:1023600008C0D33008F0ADC115C0112331F0D11130
:1023700082C18C2F0E940311A4C1DD2359F00933BF
:1023800009F08BC1FFEF27EE83E0F1502040804041
:10239000E1F781C18C2F0E940A1193C18C2F869581
:1023A0008695837019F0813061F08BC1112321F083
:1023B000802F9C2F937002C080E090E00E94BC0EA2
:1023C00088C1112321F0802F9C2F937002C080E0E0
:1023D00090E00E94D20E7DC11123F9F0053F51F02B
:1023E000063F71F0043FA9F48091450390914603A4
:1023F00081600BC08091450390914603826005C0C7
:1024000080914503909146038460909346038093A6
:102410004503802F0E94F81D1EC0053F51F0063F66
:1024200071F0043FA9F480914503909146038E7F9B
:102430000BC080914503909146038D7F05C080912C
:102440004503909146038B7F909346038093450309
:10245000802F0E94601E0E94E51E3BC18C2F83705E
:1024600009F045C0111131C1402F42954695477082
:10247000440F440F602F6F70862F90E0A0E0B0E013
:10248000042E04C0880F991FAA1FBB1F0A94D2F7FD
:1024900004FF10C00FE010E020E030E004C0000FA7
:1024A000111F221F331F4A95D2F7009510952095D2
:1024B000309503C000E010E09801C695C695C37042
:1024C000BC01CD01602B712B822B932BC23049F0C4
:1024D00058F4C13019F00E944018F7C00E942E181D
:1024E000F4C00E945218F1C00E942C18EEC01123B3
:1024F00019F08C2F817001C08695882309F4E5C0FE
:10250000402F429546954770440F440F602F6F70DF
:10251000862F90E0A0E0B0E0042E04C0880F991F41
:10252000AA1FBB1F0A94D2F704FF10C00FE010E0EF
:1025300020E030E004C0000F111F221F331F4A9516
:10254000D2F7009510952095309503C000E010E07B
:102550009801C695C695C370BC01CD01602B712B47
:10256000822B932BC23049F058F4C13019F00E94ED
:102570000519ABC00E94F318A8C00E941719A5C086
:102580000E946618A2C0CF70112339F08C2F0E94D0
:102590008C18802F0E94031198C0802F0E940A116E
:1025A0008C2F0E94AD1891C0023F01F128F4003F2A
:1025B00041F0013FA1F05AC0033FF9F0043F39F167
:1025C00055C0112341F0D33008F07BC08C2F8F71A0
:1025D0000E94D21876C0D43008F073C0F7CF112310
:1025E00039F08C2F8F710E948C186BC01123C9F3A6
:1025F0008C2F8F710E94AD1864C0112329F08C2F8D
:102600008F710E9477185DC00E9472185AC0112302
:10261000C9F00E94F3190E945E1A0E941F1A8430AA
:1026200039F40E941E1B8C2F8F710E94AD186CC054
:10263000D33008F069C0CF718C2F0E948C1863E0F2
:102640008C2F0DC00E94F3190E94581AD33050F0FD
:102650000E941E1B0E94FC1A64E08C2F8F710E9446
:10266000081B52C081E00E94271B4EC0112339F085
:10267000DD2309F4B6CF802F0E94DE0F22C0DD23B8
:1026800009F4B6CF093349F49FEFE7EEF3E0915038
:10269000E040F040E1F700C00000802F0E94881069
:1026A00010C04C2F4F70602FC7010E94E6030E949C
:1026B0009D170FC04C2F4F70602FC7010E94E90378
:1026C00008C088EF8C0D843020F40E94970E0E9481
:1026D0008103DD20D9F00E941F1A80FD17C0F70189
:1026E00012820E94191A0E948C18C7010E948F132F
:1026F0000E94191ADF91CF911F910F91FF90EF90D7
:10270000DF90CF900C94AD18D12CDFCFDF91CF911B
:102710001F910F91FF90EF90DF90CF9008950F934E
:102720001F93CF93DF93EC01988189812B813C81AA
:10273000232B31F08F3F31F481E09F3F19F403C028
:1027400081E001C080E080FD13C0CE010E949A03A9
:10275000882371F0688179818A810E94D0198C0167
:102760000E9429190E941A18B801CE010E94111165
:10277000DF91CF911F910F910895882321F00E943E
:102780006B1A0C94B51A0895882321F00E94711ACF
:102790000C94B51A08950E94781A0E94881A0E9413
:1027A000B51A0E940F200E94E51E80E090E00E9472
:1027B000BC0E80E090E00C94D20E8091F3019091D9
:1027C000F4010E94381C0C94CB130E94651A0C94DF
:1027D000DD13E92FE295EF704E2F50E0FA013297AA
:1027E000EE30F105B0F4EA59FF4F0C941827803F02
:1027F00091F018F4883E68F40EC0843F51F40BC089
:10280000883E48F0813F29F406C093FB882780F971
:10281000089580E0089581E008950E94C5190E94FE
:10282000E9130895CF93DF9300D000D01F92CDB766
:10283000DEB70F900F900F900F900F90DF91CF9118
:102840000895CF93DF9300D000D000D0CDB7DEB78E
:1028500026960FB6F894DEBF0FBECDBFDF91CF91A5
:1028600008951F93CF93DF93C091A80216E0809143
:10287000A902C81799F0D0E01C9FF0011D9FF00D30
:102880001124E655FD4F408151816281738184811D
:1028900095810E9421142196C770E9CFDF91CF91D5
:1028A0001F9108954091DA025091DB026091DC02A1
:1028B0007091DD028091DE029091DF020C94211470
:1028C0002091A8029091A90256E02917A9F030E0C2
:1028D000529FF001539FF00D1124E655FD4F718179
:1028E000761306C07081781303C07281741306C01A
:1028F0002F5F3F4F2770E9CF80E0089581E0089572
:10290000CF938091DF0282958F7009F05FC0809134
:10291000DC02882309F45AC08091A802B091A90270
:102920007091DA02A091DB024091DD025091DE024B
:1029300091E07F3F09F090E0692FC6E08B1709F422
:1029400045C04115510521F0AF3F21F020E003C003
:1029500021E001C0262F90E020FD35C0C89FF00186
:10296000C99FF00D1124E655FD4F21812A132BC07C
:102970002081271328C02281211125C02381348181
:102980002417350710F421503109241B350B283C3E
:102990003105C8F42091DF022F7020612093DF02FF
:1029A00026E0289FF001299FF00D1124E155FD4FED
:1029B00080818F70806180838AED92E00E948F1306
:1029C000CF910C94311401968770B8CFCF910895B0
:1029D0009F92AF92BF92CF92DF92EF92FF920F93AE
:1029E0001F93CF93DF93CDB7DEB761970FB6F894FF
:1029F000DEBF0FBECDBF7C0185E0F701DE011D9675
:102A000001900D928A95E1F7D701DC9011960C9117
:102A100011971296CC903091DA024091DB028091AE
:102A2000DD029091DE02009731F04F3F31F421E05A
:102A30003F3F19F403C021E001C020E020FD9FC109
:102A4000F701A380B4809090DC02992009F42BC197
:102A50002091DF02A816B90628F0B501681B790B92
:102A6000CB0104C0809590958A0D9B1D11E0883C98
:102A7000910590F010E0207F09F0DBC07A2DB98A33
:102A8000A88A4D2D502F6C2D89890E9412148AED31
:102A900092E00E948F136BC1822F807F09F091C05A
:102AA000041315C0D31213C01C2DC11010C02F70F9
:102AB00020612093DF020E9452148AED92E00E946E
:102AC0008F138091DF02D70115968C9375C1A114E5
:102AD000B10439F00F3F39F481E0BFEFDB1203C0DE
:102AE00003C081E001C080E080FD03C081E08C254F
:102AF00002C080E090E080FF15C04C2D602F8D2D2E
:102B00000E946014882371F08AED92E00E948F1376
:102B1000EAEDF2E086E0DF011D928A95E9F70E9476
:102B200052144DC0AB2839F00F3F39F481E0BFEFAC
:102B3000DB1203C003C081E001C080E080FD03C060
:102B400081E08C2502C080E090E0E82FE170BE2E8D
:102B500080FF2CC04C2D602F8D2D0E946014182FEB
:102B6000811124C0DD860E878D859E850E94C51942
:102B7000292F22952F70223018F0243090F405C0B0
:102B80009F7059F0811109C017C19F7031F0D701B2
:102B900015969C91907F09F40FC1805E883008F4EF
:102BA0000BC1C7010E948F131B2D06C11C2DCC2009
:102BB00009F402C18091DF0281608093DF0210E09E
:102BC000FBC0041309C0D31207C0C11005C0809117
:102BD000DF02F7018583A5C0DD860E878D859E8582
:102BE0000E940D14882379F1CC2069F12091DF0235
:102BF000822F82958F7090E0029774F08091DA02B4
:102C00009091DB0298878F831986BB86AA862C87D2
:102C1000CE0107960E948F1386E0F701AAEDB2E07D
:102C200001900D928A95E1F70E9480140E9452143F
:102C30000DC0041769F0DD860E878D859E850E9484
:102C40000D14811119C0C7010E948F1311E0B4C087
:102C5000D312F1CFC110EFCF8091DF02F70185834E
:102C6000C7010E948F1386E0EAEDF2E0DF011D92BA
:102C70008A95E9F7192DA0C0CC2029F32091DF0215
:102C8000822F82958F7090E0029734F28091DA0261
:102C90009091DB029A8389831B82BD82AC822E8352
:102CA000CE010196B7CFA816B90628F0F501E81BAA
:102CB000F90BCF0104C0809590958A0D9B1D883C2F
:102CC000910558F010E07A2DB98AA88A4D2D502F21
:102CD0006C2D89890E9412144AC01C2DCC2009F445
:102CE000B2CF041333C0D31231C02091DF0220FDD4
:102CF00024C0822F82958F70482F50E041155105D6
:102D0000E1F0D70115962C9315974F30510549F0F6
:102D10008F5F982F9295907F822F8F70892B1596B9
:102D20008C93C7010E948F1386E0F701AAEDB2E0F1
:102D300001900D928A95E1F73DC086E0F701AAED7A
:102D4000B2E001900D928A95E1F736C0DD860E87DC
:102D50008D859E850E940D1481115ECF8091DF02CA
:102D600081608093DF02C7010E948F1325C0EAEDC6
:102D7000F2E086E0DF011D928A95E9F71BC0CC20C6
:102D800009F461CFDD860E878D859E850E940D1426
:102D9000182F882309F457CF86E0F701AAEDB2E097
:102DA00001900D928A95E1F78AED92E00E94D80F8A
:102DB0000E9480140E945214812F61960FB6F894DD
:102DC000DEBF0FBECDBFDF91CF911F910F91FF905E
:102DD000EF90DF90CF90BF90AF909F9008951F939A
:102DE000CF93DF93CDB7DEB72C970FB6F894DEBF45
:102DF0000FBECDBF4F83588769877A878B879C87A3
:102E0000CE0107960E94E8148823D1F09F8188851F
:102E10002A853B85232B31F08F3F31F481E09F3FA2
:102E200019F403C081E001C080E080FD47C04F81FC
:102E3000588569857A858B859C850E9421143EC0C2
:102E400086E0FE013796DE01119601900D928A957B
:102E5000E1F7FF81E8856A857B856115710531F0B1
:102E6000EF3F31F481E0FF3F19F403C081E001C07E
:102E700080E080FD23C02091A90230E0C9010196C5
:102E8000877099274091A80250E084179507F1F1C7
:102E9000F983EA837D836C8396E0929FD001939FB0
:102EA000B00D1124A655BD4FFE01319601900D9233
:102EB0009A95E1F78093A9020E94311416E080915F
:102EC000A8029091A902891771F1189FC0011124DD
:102ED00086559D4F0E94E814882329F1E091A802AD
:102EE0001E9FF0011124E655FD4F40815181628102
:102EF0007381848195810E9421148091A80290E0C1
:102F00000196877099278093A802D9CF0E94E51374
:102F10001092A9021092A802EAEDF2E086E0DF0129
:102F20001D928A95E9F72C960FB6F894DEBF0FBE76
:102F3000CDBFDF91CF911F910895EF92FF920F9334
:102F40001F93CF93DF938C01892B09F46CC0F12C74
:102F5000EE24E394E8012196F8018491843740F44B
:102F6000843008F051C0813081F0823019F15BC0AB
:102F7000853709F444C0A8F19CE7980F903708F012
:102F800052C08F770E94881041C00E5F1F4FFE0114
:102F9000849190E2980F983050F48770FE2D01C014
:102FA000FF0F8A95EAF78F2F0E947B1A14C00E94A8
:102FB000DE0F2DC00E5F1F4FFE01849190E2980F2F
:102FC000983060F48770FE2D01C0FF0F8A95EAF7F4
:102FD0008F2F0E94811A0E94B51A19C00E94881072
:102FE00016C00E5F1F4FFE01C491CC2381F08FE904
:102FF0009FE00197F1F700C00000C150F6CF0E5FCF
:103000001F4FFE01F49003C00E94DE0F8E018F2D32
:10301000882309F49FCFEFE9FFE03197F1F700C073
:1030200000008150F5CFDF91CF911F910F91FF905C
:10303000EF900895089508950C941B180C941C1893
:103040000E941E186093020370930303809304038D
:10305000909305030C94CB130C9420180F931F939B
:1030600000910203109103032091040330910503A2
:10307000602B712B822B932B1F910F910C94201896
:103080000F931F93009102031091030320910403F7
:103090003091050360237123822393231F910F91A5
:1030A0000C9420180F931F930091020310910303B7
:1030B000209104033091050360277127822793270D
:1030C0001F910F910C9420180C941B180E946418E7
:1030D0006093FE027093FF028093000390930103BC
:1030E0000C94CB1360E070E0CB010C9466180F9346
:1030F0001F9341E050E060E070E08A019B0104C052
:10310000000F111F221F331F8A95D2F7C901B80182
:103110001F910F910C9466180F931F9341E050E09C
:1031200060E070E004C0440F551F661F771F8A954A
:10313000D2F78091FE029091FF02A0910003B0911E
:1031400001038A019B01082B192B2A2B3B2BC90158
:10315000B8011F910F910C9466180F931F9341E0D3
:1031600050E060E070E004C0440F551F661F771FF9
:103170008A95D2F740955095609570958091FE02A2
:103180009091FF02A0910003B09101038A019B017D
:10319000082319232A233B23C901B8011F910F914A
:1031A0000C9466180F931F9341E050E060E070E0CC
:1031B00004C0440F551F661F771F8A95D2F7809170
:1031C000FE029091FF02A0910003B09101038A01D9
:1031D0009B01082719272A273B27C901B8011F91FE
:1031E0000F910C9466180F931F930091FE0210919B
:1031F000FF022091000330910103602B712B822B81
:10320000932B1F910F910C9466180F931F930091AD
:10321000FE021091FF022091000330910103602310
:103220007123822393231F910F910C9466180F939F
:103230001F930091FE021091FF0220910003309134
:10324000010360277127822793271F910F910C9408
:1032500066180895292F220F920F990F890FE82FD2
:10326000E695E695E695877051E001C0550F8A9581
:10327000EAF785E0E89FF0011124E052FD4F20E0DD
:1032800030E070E04081CB01022E02C09695879518
:103290000A94E2F78170819584278523842781939E
:1032A0002F5F3F4F2530310569F70895292F220FF1
:1032B000920F990F890F682F669566956695982FDE
:1032C000977085E0689FB001112440E050E080E0F5
:1032D000FB01E40FF51FE052FD4F208130E0092E85
:1032E00002C0369527950A94E2F721703327042E01
:1032F00001C0220F0A94EAF7822B4F5F5F4F4530DF
:10330000510531F70895BF92CF92DF92EF92FF926D
:103310000F931F93CF93DF938C01C090FE02D09048
:10332000FF02E0900003F09001038091020390916E
:103330000303A0910403B0910503C82AD92AEA2AFD
:10334000FB2ACFE1D0E0D701C6010C2E04C0B69510
:10335000A795979587950A94D2F780FD04C0219789
:1033600090F7B12C07C0BC2EB8018C2F0E94050429
:103370000197A9F38B2DDF91CF911F910F91FF90B2
:10338000EF90DF90CF90BF900895CF93DF93EC0143
:103390000E948319BE010E940504DF91CF91089518
:1033A0001F93CF93DF93EB019091A702992321F014
:1033B000CB010E94C51913C0882349F0CB010E949C
:1033C0008319182F682FCE010E942A1904C0CB013F
:1033D0000E945619182FBE01812F0E940504DF910B
:1033E000CF911F91089580910B0308950E94C81CEE
:1033F0002091090330910A038217930750F00E942D
:10340000C81C2091090330910A03821B930B9C0175
:103410000AC00E94C81C2091090330910A0320951C
:103420003095280F391F81E0283C310508F480E0F1
:1034300008958091080385958595859508958091D7
:103440000803877008950E94C81C209106033091DC
:10345000070382179307A8F00E94C81C2091060357
:1034600030910703821B930B883C910510F480E098
:1034700013C08091080382FB882780F991E0892797
:103480000BC00E94C81C20910603309107032095B1
:103490003095820F931FE8CF8170089590910803B3
:1034A000977081E009F480E00895809117030895F2
:1034B00090911703892B809317030895809590911D
:1034C0001703892380931703089510921703089513
:1034D00080911603089590911603892B809316030B
:1034E000089580959091160389238093160308957B
:1034F00010921603089590911503892B809315035C
:10350000089580959091150389238093150308955C
:1035100010921503089580910C03089508950C945A
:103520008E1A0C948F1ACF9390910C03981769F010
:10353000C82F0E94C81C90930A0380930903C0936C
:103540000C038C2FCF910C94911ACF9108958091F8
:103550000C03882349F010920C0310920A03109276
:10356000090380E00C94911A0895E091F301F09121
:10357000F401809117038083E091F301F091F4014D
:10358000908180911603892B8083E091F301F09163
:10359000F401908180911503892B808380910C0325
:1035A0008823B9F00E94F61981110E94A71AE091B0
:1035B000F301F091F401908180910C03892B8083B9
:1035C0008091F3019091F4010E94F21B81110E94FD
:1035D000A71A8091F3019091F4010C94A30E0C941E
:1035E0008E1A0C94EF1A90910B03981721F0809388
:1035F0000B030C94F11A089580910B03882329F092
:1036000010920B0380E00C94F11A08950C948E1A1A
:1036100098E0899F90011124262B209308030E9493
:103620008C180E94C81C9093070380930603809116
:1036300008038595859585950C94061B10920803C3
:10364000109207031092060380E00C94061B209151
:1036500008038095822380930803982F977079F44C
:1036600030E0482F082E000C550B2417350739F091
:103670008595859585950E94AD180C941E1B08951F
:103680006FEF7FEF80E090E00C945E2780E090E0A9
:103690000E943A2721E08C3E9E4F09F020E0822FC5
:1036A000089582E090E00C94322783E090E00C943F
:1036B0003227682F83E090E00C944027CF9384E07A
:1036C00090E00E943227C82F81E290E00E943227CA
:1036D0002C2F30E0A901582BCA01CF910895CF9328
:1036E000C92F682F84E090E00E9440276C2F81E270
:1036F00090E0CF910C944027AB01BC018FE090E0AB
:103700000C945227AB01BC0183E190E00C9452274A
:1037100060E070E0CB010C94821B60E070E0CB01B4
:103720000E947C1B0C94881B6CEE7EEF80E090E086
:103730000E945E2760E082E090E00E94402760E007
:1037400083E090E00E94402710920203109203034E
:10375000109204031092050360E084E090E00E9460
:10376000402760E081E290E00E94402760E085E031
:1037700090E00E94402760E086E090E00E944027B1
:103780006FEF87E090E00E94402740E050E0BA01F0
:1037900088E090E00E94522760E08DE090E00E9477
:1037A000402740E050E0BA0188E190E00E945227B3
:1037B00060E087E190E00E94402740E050E0BA01DD
:1037C0008CE190E00E94522760E080E290E00E944D
:1037D00040270C948D1B0C94941B682F8EE090E076
:1037E0000C944027FC01329697E080E0915029F03C
:1037F00021912223D9F38F5FF9CF0895662349F0F1
:10380000FC01329608962191621729F0E817F90712
:10381000D1F780E0089581E008959C01FC01329683
:103820009FEF80E04191461789F09F3F19F44111C5
:1038300001C0982F8F5F8630A9F79F3F39F0F901BB
:10384000E90FF11D97FDFA956283089508959C0193
:103850002A5F3F4FFC014281461301C0128201964C
:1038600082179307B9F708950C940D1C0C94271C2C
:10387000029626E0FC0111922A95E9F70895089531
:103880000C943F1C0C943F1CCF930E94421C0E943E
:10389000D4060E94401CC0E08C2F0E94F4058111C8
:1038A00004C0CF5FC830C1F701C081E0CF91089557
:1038B0000C943F1C0C94581C0E945A1C809151037C
:1038C000843049F11092190320E488E190E00FB6AA
:1038D000F894A895809360000FBE2093600080E06C
:1038E0000E9481030E945A1C83B7817F846083BF3A
:1038F00083B7816083BF7894889583B78E7F83BFB9
:103900000FB6F894A895809160008861809360005C
:10391000109260000FBE08950C943F1C0E94E513A6
:103920000E94970E0E9481030C948C1C1F920F9290
:103930000FB60F9211248F939F93AF93BF938091F3
:103940001903811113C08091470390914803A091FE
:103950004903B0914A034196A11DB11D80934703CD
:1039600090934803A0934903B0934A03BF91AF914A
:103970009F918F910F900FBE0F901F90189582E02E
:1039800084BD93E095BD9AEF97BD80936E00089536
:103990002FB7F8948091470390914803A091490371
:1039A000B0914A032FBF0895CF92DF92EF92FF921A
:1039B0000F931F932FB7F8944091470350914803FA
:1039C0006091490370914A032FBF6A017B01EE2485
:1039D000FF248C0120E030E0C016D106E206F30699
:1039E00010F4415051099A01281B390BC9011F914C
:1039F0000F91FF90EF90DF90CF90089578941F92F1
:103A00000F920FB60F9211248F939F93AF93BF9392
:103A10008091470390914803A0914903B0914A03D4
:103A20000196A11DB11D8093470390934803A09375
:103A30004903B0934A03BF91AF919F918F910F902B
:103A40000FBE0F901F90189581E08093E00080E2F8
:103A50008093D8001092C9008FE19EE40197F1F79E
:103A600000C0000087E090EBDC0180935A03909344
:103A70005B03A0935C03B0935D039CE088E10FB609
:103A8000F894A895809360000FBE90936000FFCFDC
:103A90000C94401B0E94D4068FE39CE90197F1F738
:103AA00000C000000E94D40680E00E94F40580FF60
:103AB00004C00E94481D0C94241D08950E94461BBA
:103AC000811102C00E94EB1B0E94511B80931803BE
:103AD0000E945E1B90934C0380934B030E94551BE6
:103AE000682F70E080E090E00C942C188091210306
:103AF00080FF0BC06091FA0185E0689FB00111243E
:103B000075956795759567952BC081FF09C0609184
:103B1000FA0185E0689FB00111247595679520C072
:103B200082FF07C06091FA0185E0689FB00111240F
:103B300017C0909120039923D1F06091F901961755
:103B400088F72091FA0185E0289F90011124929F27
:103B5000A001939F500D112470E0CA010E94042718
:103B60006038710540F46115710519F406C065E00F
:103B700070E0862F08958FE7089581E00895809181
:103B8000210380FF08C06091F60170E0759567958C
:103B90007595679521C081FF06C06091F60170E0C0
:103BA0007595679519C082FF04C06091F60170E0B9
:103BB00010C090912003992399F06091F501961718
:103BC000A0F78091F601899FC001112470E00E9446
:103BD00004276038710540F46115710519F406C0B9
:103BE00061E070E0862F08958FE7089581E00895E1
:103BF000803F21F40E94761D819504C0813F29F405
:103C00000E94761D809325030895823F21F40E942F
:103C1000761D819504C0833F29F40E94761D809310
:103C200024030895893F19F40E94BF1D05C08A3FEF
:103C300031F40E94BF1D81958093260308958B3F28
:103C400021F40E94BF1D819504C08C3F29F40E947D
:103C5000BF1D809327030895843F21F4809123039F
:103C6000816017C0853F21F480912303826011C0D9
:103C7000863F21F48091230384600BC0873F21F4A9
:103C800080912303886005C0883F31F4809123032D
:103C900080618093230308958D3F21F48091210357
:103CA00081600BC08E3F21F480912103826005C0AA
:103CB0008F3F29F48091210384608093210308952C
:103CC000803F39F48091250387FF6CC01092250353
:103CD00069C0813F29F4809125031816BCF362C0A6
:103CE00090912403823F29F497FF5CC01092240333
:103CF00059C0833F19F41916CCF354C0893F41F4DD
:103D00008091260318160CF04DC0109226034AC06D
:103D10008A3F29F48091260387FF44C0F6CF8B3F6A
:103D200039F48091270387FF3DC0109227033AC0E2
:103D30008C3F29F4809127031816BCF333C0843FCD
:103D400021F4809123038E7F17C0853F21F4809159
:103D500023038D7F11C0863F21F4809123038B7F45
:103D60000BC0873F21F480912303877F05C0883FE4
:103D700031F4809123038F7E8093230313C08D3F02
:103D800021F4809121038E7F0BC08E3F21F480911E
:103D900021038D7F05C08F3F29F4809121038B7F04
:103DA000809321038091240381110EC0809125030B
:103DB00081110AC080912603811106C080912703DA
:103DC000811102C010922003089582E293E00E94C4
:103DD000AE0E0E94C81C90931F0380931E0308958B
:103DE000CF93DF9300D000D000D0CDB7DEB786E010
:103DF000E2E2F3E0DE01119601900D928A95E1F77F
:103E000080912403811105C080912503882309F442
:103E10007AC080911C0390911D030E94D41CAC01B8
:103E200090912003992339F02091FB0130E0241771
:103E3000350758F068C02091FC018AE0289F900166
:103E400011242417350718F05EC09F3F19F09F5FBB
:103E5000909320031092260310922703809124034D
:103E6000181624F40E94761D809324038091240365
:103E700087FF05C00E94761D819580932403809161
:103E80002503181624F40E94761D80932503809143
:103E9000250387FF05C00E94761D81958093250329
:103EA000309124033323E1F0209125032223C1F034
:103EB00045EB3403C0011124992319F09093240396
:103EC00003C081E08093240335EB2303C001112458
:103ED000992319F09093250303C081E08093250373
:103EE0000E94E51E80911E0390911F0390931D0375
:103EF00080931C0386E0FE013196A2E2B3E00190BC
:103F00000D928A95E1F780912603811105C0809179
:103F10002703882309F47AC080911A0390911B0328
:103F20000E94D41CAC0190912003992339F0209178
:103F3000F70130E02417350758F068C02091F801E8
:103F40008AE0289F900111242417350718F05EC0DD
:103F50009F3F19F09F5F90932003109224031092CB
:103F6000250380912603181624F40E94BF1D809318
:103F700026038091260387FF05C00E94BF1D8195FF
:103F80008093260380912703181624F40E94BF1DF6
:103F9000809327038091270387FF05C00E94BF1DE0
:103FA000819580932703309126033323E1F02091FC
:103FB00027032223C1F045EB3403C00111249923C8
:103FC00019F09093260303C081E08093260335EB1C
:103FD0002303C0011124992319F09093270303C0F0
:103FE00081E0809327030E94E51E80911E0390913B
:103FF0001F0390931B0380931A0386E0FE01319602
:10400000A2E2B3E001900D928A95E1F726960FB6F1
:10401000F894DEBF0FBECDBFDF91CF910895E2E2ED
:10402000F3E086E0DF011D928A95E9F71092200304
:10403000109221030895809130030895CF93DF9368
:1040400000D01F92CDB7DEB790915103943019F58F
:1040500089837B836A8382E08093E9008FEF90916C
:10406000E800815095FD06C095ED9A95F1F70000A6
:104070008111F5CF8091E80085FF0DC040E050E050
:1040800063E070E0CE0101960E9466228091E80014
:104090008E778093E8000F900F900F90DF91CF9173
:1040A0000895CF93DF93EC010E944922823011F0F2
:1040B000843031F4BE0184E0DF91CF910C941E2056
:1040C000DF91CF910895BC0183E00C941E20CF9323
:1040D000DF93EC010E944922823011F08430F9F420
:1040E00082E08093E9008FEF9091E800815095FD88
:1040F00006C095ED9A95F1F700008111F5CF8091FA
:10410000E80085FF0CC040E050E066E070E0CE01C2
:104110000E9466228091E8008E778093E800DF910C
:10412000CF910895CF93DF93EC010E944922823012
:1041300011F0843039F581E08093E9008FEF9091A0
:10414000E800815095FD06C095ED9A95F1F70000C5
:104150008111F5CF8091E80085FF14C040E050E068
:1041600068E070E0CE010E9466228091E8008E77C0
:104170008093E80088E0FE01A8E2B3E001900D9290
:104180008A95E1F7DF91CF910895809150038111D5
:1041900009C00E94F7230E9454248091E2008460A9
:1041A0008093E200089510925003089508950895B1
:1041B0000C948E1C42E061EC81E00E94702342E28C
:1041C00061EC82E00C94702380915303833009F4F6
:1041D00060C030F4813071F0823009F499C00895E4
:1041E0008A3009F485C08B3009F46BC0893009F03E
:1041F000A7C020C080915203813A09F0A1C08091EC
:10420000E800877F8093E8008091560390915703E0
:10421000892B21F468E088E293E003C060E080E04D
:1042200090E070E00E94B1228091E8008B7780934B
:10423000E800089580915203813209F081C0809195
:10424000560390915703029708F07AC08091E800D6
:10425000877F8093E8008091E80082FD05C080910F
:1042600051038111F8CF6CC02091F3008091F200CE
:1042700090E0922B029729F48091F1008B7F81309E
:1042800021F48091F100809330038091E8008B77D6
:1042900053C080915203813A09F052C08091560375
:1042A00090915703892B09F04BC08091E800877FDC
:1042B0008093E8008091E80080FFFCCF80910702A6
:1042C00036C0809152038132D9F580915603909186
:1042D0005703892BA9F58091E800877F8093E80038
:1042E0000E94A52380915403809307020C94E51348
:1042F00080915203813221F58091E800877F80937D
:10430000E8000E94A523809155038093310308950E
:1043100080915203813AA1F48091E800877F8093D5
:10432000E8008091E80080FFFCCF8091310380930A
:10433000F1008091E8008E778093E8000C94A5232B
:10434000089584B7877F84BF0FB6F894A8958091AD
:104350006000886180936000109260000FBE90E062
:1043600080E80FB6F89480936100909361000FBECF
:104370000E94F80E0E94F7230E9454248091E200CC
:1043800084608093E20078940E94E9260E94FE0EE9
:104390008DEF91E00E94920E80915103853069F477
:1043A0000E945C1C80914F038823B1F30E94441C3F
:1043B000882391F30E945022EFCF0E94060FECCF8A
:1043C0000C94E221292F332723303105C9F060F402
:1043D0002130310581F02230310509F04AC08BE3EC
:1043E00090E022E833E049C02132310511F1223258
:1043F000310579F13EC082E190E02DEB33E03DC024
:1044000099278130910561F040F08230910559F093
:10441000039779F5E8E4F3E008C0EEE7F3E005C0C0
:10442000EEE6F3E002C0EEE4F3E0849190E09F0159
:1044300024C06115710541F061307105D1F489E046
:1044400090E02DEA33E019C089E090E024E933E000
:1044500014C06115710541F06130710551F481E8B6
:1044600090E02FEC33E009C080E490E020E534E0F8
:1044700004C080E090E020E030E0FA013183208346
:10448000089580915103843011F081E0089582E015
:10449000089580913203811102C00C944122089545
:1044A00080E189BD82E189BD09B400FEFDCF809124
:1044B000D8008F7D8093D8008091E0008260809347
:1044C000E0008091E00081FDFCCF0895CF92DF9263
:1044D000EF92FF920F931F93CF93DF93EC018B0129
:1044E0007A010E94C423811133C0E114F10439F030
:1044F000F70180819181081B190BC80FD91FC12CAE
:10450000D12C0115110519F18091E80085FD16C027
:104510008091E8008E778093E800E114F10449F07F
:10452000F70180819181C80ED91ED182C08285E0B9
:104530000FC00E94C423882321F30AC0899180936D
:10454000F10001501109FFEFCF1ADF0ADACF80E046
:10455000DF91CF911F910F91FF90EF90DF90CF905F
:10456000089520915803309159032617370748F0D2
:104570006115710539F42091E8002E772093E80049
:1045800001C0B901FC0120E06115710579F180914C
:1045900051038823F1F18530F1F18091E80083FD2A
:1045A0003CC08091E80082FD2EC08091E80080FF31
:1045B000EBCF2091F3008091F20090E0922B6115F7
:1045C000710551F08830910538F421912093F10064
:1045D000615071090196F3CF21E0089709F020E0BE
:1045E0008091E8008E778093E800CECF2111CFCF65
:1045F0000AC080915103882361F0853061F0809179
:10460000E80083FD0AC08091E80082FFF2CF80E0DD
:10461000089582E0089583E0089581E0089520914F
:104620005803309159032617370748F06115710573
:1046300039F42091E8002E772093E80001C0B901F9
:10464000FC0120E06115710591F1809151038823EF
:1046500009F440C0853009F43FC08091E80083FD33
:104660003DC08091E80082FD2FC08091E80080FF6E
:10467000E9CF2091F3008091F20090E0922B611538
:10468000710559F08830910540F424912093F10090
:104690003196615071090196F2CF21E0089709F037
:1046A00020E08091E8008E778093E800CBCF211145
:1046B000CCCF0AC080915103882361F0853061F02E
:1046C0008091E80083FD0AC08091E80082FFF2CF6C
:1046D00080E0089582E0089583E0089581E00895E0
:1046E000982F973068F59093E900981739F07091FA
:1046F000EC002091ED005091F00003C0242F762FA4
:1047000050E021FD02C09F5FECCF3091EB003E7F77
:104710003093EB003091ED003D7F3093ED00309110
:10472000EB0031603093EB007093EC002093ED00D0
:104730005093F0002091EE0027FDE5CF80E0089532
:104740008F708093E90081E008958091520387FF84
:1047500011C08091E80082FD05C080915103811154
:10476000F8CF11C08091E8008B770BC08091510386
:10477000882349F08091E80080FFF8CF8091E8001D
:104780008E778093E80008952091E4003091E50051
:1047900095E64091EC00842F817040FF23C080910A
:1047A000E80080FD1DC080915103882399F0853079
:1047B00099F08091EB0085FD11C04091E40050918B
:1047C000E5002417350729F3915011F09A01E1CF44
:1047D00084E0089582E0089583E0089581E00895DB
:1047E00080E008954091E80042FFDDCF08950E94E7
:1047F00065240E946D24E0EEF0E08081816080837A
:10480000E8EDF0E080818F77808319BCA7EDB0E000
:104810008C918E7F8C9380818F7E80831092500349
:1048200008950F931F93CF93DF930E9465240E94F6
:104830006D24C8EDD0E088818F7788838881806877
:10484000888388818F7D888319BC109251031092D0
:104850004D0310924F0310924E0300EE10E0F8014A
:1048600080818B7F808388818160888342E060E0E3
:1048700080E00E947023E1EEF0E080818E7F8083F3
:10488000E2EEF0E0808181608083808188608083B7
:10489000F80180818E7F8083888180618883DF91A9
:1048A000CF911F910F910895E8EDF0E080818F7E08
:1048B0008083E7EDF0E080818160808384E082BFC7
:1048C00081E0809350030C941124E8EDF0E08081A6
:1048D0008E7F80831092E20008951092DA00109289
:1048E000E10008951F920F920FB60F9211242F939B
:1048F0003F934F935F936F937F938F939F93AF9368
:10490000BF93EF93FF938091E10082FF0BC08091F2
:10491000E20082FF07C08091E1008B7F8093E1007D
:104920000E94E8268091DA0080FF1FC08091D800A5
:1049300080FF1BC08091DA008E7F8093DA00809127
:10494000D90080FF0DC080E189BD82E189BD09B435
:1049500000FEFDCF81E0809351030E94C52005C079
:1049600019BC109251030E94D3208091E10080FF76
:1049700019C08091E20080FF15C08091E2008E7F17
:104980008093E2008091E20080618093E200809158
:10499000D80080628093D80019BC85E080935103D1
:1049A0000E94D7208091E10084FF30C08091E20016
:1049B00084FF2CC080E189BD82E189BD09B400FE7D
:1049C000FDCF8091D8008F7D8093D8008091E10049
:1049D0008F7E8093E1008091E2008F7E8093E200E1
:1049E0008091E20081608093E20080914D038823F2
:1049F00011F084E007C08091E30087FD02C081E0F0
:104A000001C083E0809351030E94D8208091E1008F
:104A100083FF29C08091E20083FF25C08091E100DF
:104A2000877F8093E10082E08093510310924D03D1
:104A30008091E1008E7F8093E1008091E2008E7F83
:104A40008093E2008091E20080618093E20042E086
:104A500060E080E00E9470238091F0008860809385
:104A6000F0000E94D620FF91EF91BF91AF919F91EE
:104A70008F917F916F915F914F913F912F910F9007
:104A80000FBE0F901F9018951F920F920FB60F92A6
:104A900011242F933F934F935F936F937F938F9343
:104AA0009F93AF93BF93CF93DF93EF93FF93C09107
:104AB000E900CF708091EC00D82FD17080FDD0E854
:104AC0001092E9008091F000877F8093F000789445
:104AD0000E9488251092E9008091F0008860809300
:104AE000F000CD2BCF70C093E900FF91EF91DF91E3
:104AF000CF91BF91AF919F918F917F916F915F9176
:104B00004F913F912F910F900FBE0F901F901895CE
:104B10001F93CF93DF93CDB7DEB7AA970FB6F89464
:104B2000DEBF0FBECDBFE2E5F3E08091F1008193DF
:104B300023E0EA35F207C9F70E94E4208091E800FB
:104B400083FF2EC18091520390915303492F50E06F
:104B50004A30510508F024C1FA01EC58FF4F0C947B
:104B60001827803821F0823809F01AC108C08091D6
:104B70004E0390914F03992389F082600FC080917A
:104B800056038F70873008F00BC18093E900809145
:104B9000EB0085FB882780F91092E9009091E800EE
:104BA000977F9093E8008093F1001092F100D1C0BC
:104BB000282F2D7F09F0F4C0882319F0823061F08E
:104BC000EFC080915403813009F0EAC0933009F0BE
:104BD00080E080934F032EC08091540381112AC03E
:104BE000809156038F702FEF280F263008F0D8C021
:104BF0008093E9002091EB0020FF1CC0933021F44A
:104C00008091EB00806214C09091EB0090619093D2
:104C1000EB0021E030E0A90102C0440F551F8A9546
:104C2000E2F74093EA001092EA008091EB0088607E
:104C30008093EB001092E9008091E800877F8093D9
:104C4000E8000E94A523ACC08111AAC010915403B2
:104C50001F778091E3008078812B8093E30080911F
:104C6000E800877F8093E8000E94A5238091E800F8
:104C700080FFFCCF8091E30080688093E3001111F6
:104C800002C082E001C083E08093510389C0805854
:104C9000823008F085C080915403909155038C3D7B
:104CA00053E0950779F583E08A838AE289834FB7D9
:104CB000F894DE01139620E03EE051E2E32FF0E0AD
:104CC00050935700E49120FF03C0E295EF703F5FDF
:104CD000EF708E2F90E0EA3010F0C79601C0C096BA
:104CE0008D939D932F5F243149F74FBF8091E8004A
:104CF000877F8093E8006AE270E0CE0101960E940F
:104D0000B12216C06091560370915703AE014F5FF8
:104D10005F4F0E94E021BC01892B09F441C09091B2
:104D2000E800977F9093E80089819A810E940F2381
:104D30008091E8008B778093E80032C0803881F55D
:104D40008091E800877F8093E80080914D038093F5
:104D5000F1008091E8008E7772CF811121C080919F
:104D600054039091550399270297D4F48091E80059
:104D7000877F8093E8008091540380934D030E94C5
:104D8000A52380914D03811106C08091E30087FD2A
:104D900002C081E001C084E0809351030E94DA20C8
:104DA0008091E80083FF0AC08091E800877F8093AC
:104DB000E8008091EB0080628093EB00AA960FB62A
:104DC000F894DEBF0FBECDBFDF91CF911F91089544
:104DD0000895CF93809151038823A1F0C091E900F9
:104DE000CF709091EC00892F817090FD80E8C82BE6
:104DF0001092E9008091E80083FD0E948825CF7021
:104E0000C093E900CF91089597FB072E16F4009404
:104E100007D077FD09D00E941E2707FC05D03EF47D
:104E2000909581959F4F0895709561957F4F089556
:104E3000EE0FFF1F0590F491E02D0994AA1BBB1BF8
:104E400051E107C0AA1FBB1FA617B70710F0A61B8A
:104E5000B70B881F991F5A95A9F780959095BC01AB
:104E6000CD010895F999FECF92BD81BDF89A992799
:104E700080B50895A8E1B0E042E050E00C946627C8
:104E8000262FF999FECF92BD81BDF89A019700B403
:104E9000021639F01FBA20BD0FB6F894FA9AF99AA3
:104EA0000FBE08950396272F0E9441270E94402796
:104EB000252F0E944127242F0C9441270196272F4C
:104EC0000E9441270C944027DC01CB01FC01F99999
:104ED000FECF06C0F2BDE1BDF89A319600B40D9246
:0C4EE00041505040B8F70895F894FFCFFF
:104EEC00C609D709E7090000000000000000000017
:104EFC0000000000CC01C609D709E709000000003A
:104F0C0000000000000000000000C801C609D7091D
:104F1C00E709000000000000000000000000000095
:104F2C00C401C609D709E709000000000000000011
:104F3C00000000000000C001C609D709E709000005
:104F4C00000000000000000000000000BC01C609C9
:104F5C00D709E70900000000000000000000000075
:104F6C000000B801C609D709E709000000000000DD
:104F7C000000000000000000B401C609D709E709D1
:104F8C000000000000000000000000000000B00164
:104F9C002E002E02350035022D002D02310031027B
:104FAC002F0230022F00300026022702330034007B
:104FBC000201000000FC0000000093F4F7313332D2
:104FCC0094C63435000000000175020076020476A8
:104FDC000201FF0D036408641E1407101E1B2092AF
:104FEC002067206320512001F4F7933534C6E2008A
:104FFC00E900EA00B500B600B700CD008301CC0093
:10500C008A01920194012102230224022502260224
:10501C0027022A02B300B4006F007000818283E281
:10502C0000E900EA00B500B600B700CD008301CC62
:10503C00008A0192019401210223022402250226F6
:10504C000227022A02B300B4006F00700081828331
:00000001FF
