:100000000C94D1030C9452140C9418040C941804FE
:100010000C9418040C9418040C9418040C941804F0
:100020000C9418040C9418040C94E82B0C94BA2C1F
:100030000C94F8230C9418040C9418040C941804D1
:100040000C9418040C9418040C9418040C941804C0
:100050000C9418040C9460240C9418040C94180448
:100060000C9418040C9418040C9418040C941804A0
:100070000C9418040C9418040C9418040C94180490
:100080000C9418040C9418040C9418040C94180480
:100090000C9418040C9418040C9418040C94180470
:1000A0000C9418040C9418040C941804830F860FF5
:1000B0008B0F920F970F9C0FA10FA60FAB0FB00FD6
:1000C000B50FBA0FBE0FC10FC80FC80FC80FC80FAA
:1000D000C40FC80F3418341866186618BF18DD1816
:1000E000521A521A1F19B419C519C519421A521AAF
:1000F000521A4B1AE81AE81AFA1AFA1AF11AFA1AE4
:10010000FA1AFA1AE81AE81AF61AFA1AFA1AF61A7B
:10011000272D4E2D462E4E2D462E9A2DBD2D462E88
:10012000142E232E2B0014001A00080015001700AF
:10013000E00004611600070009000A0002551D00D6
:100140001B000600190005002845165CE3007664D4
:1001500003542C000000000000000000000000001C
:100160001C0018000C00120013002A000B000D00E8
:100170000E000F0000573400110010003600370049
:100180003800045728452A445000510052004F00BF
:100190000000000000000000000000002B00140020
:1001A0001A00090013000A00E0000461150016009F
:1001B0001700070002551D001B000600190005006E
:1001C0002845165CE300766403542C000000000010
:1001D00000000000000000000D000F0018001C00CF
:1001E00000572A000B00110008000C001200340018
:1001F0000E001000360037003800045728452A4406
:100200005000510052004F000000000000000000AC
:1002100000000000000000000000000000000000DE
:1002200000000000000000000000000000000000CE
:1002300000000000000000000000000000000000BE
:1002400000000000000000000000000000000000AE
:10025000000000000000000000000000000000009E
:10026000000000000000000000000000000000008E
:10027000000000000000000000000000000000007E
:1002800000000000000000000000000006574B00C6
:100290004A0052004D0049002A004E005000510013
:1002A0004F000100A800A900AA00AC00AB00280084
:1002B000460065000100AF000100AE000000000034
:1002C0000000000000000000230224022502015764
:1002D00027024C001E021F022002210222020657A2
:1002E000075705570100010001000100010001004E
:1002F00002573000035730020000000000000000E9
:100300000000000001003502065701000100010055
:100310000100310230002F002D022D0001003100BC
:1003200030022F022E022E00010001000100010008
:1003300001000100000000000000000000000000BB
:1003400001004200430044004500010001003E005E
:100350003F0040004100010046003A003B003C00E5
:100360003D00010001000100010001000100010049
:10037000000000000000000000000000005C010020
:10038000F700FB00FC00F900095D0100F600F50034
:10039000F400FA00085D0100F8004604160A460C55
:1003A0000000010001000100010001000000000048
:1003B0000000000000000000240025002600570077
:1003C0005600B20021002200230055005400010015
:1003D0001E001F0020000100010001000100270095
:1003E00063000100010001000000000000000000A7
:1003F000000000001A000900000014001A000000AC
:10040000783C1E1E140A052223252628292A2C2D75
:100410002F3032333536383A3B3D3E404243454734
:10042000494A4C4E5051535557595A5C5E6062646C
:100430006668696B6D6F71737577797B7D7F81837A
:100440008587898A8C8E90929496989A9C9E9FA17B
:10045000A3A5A7A8AAACAEAFB1B3B4B6B8B9BBBC9C
:10046000BEBFC1C2C3C5C6C7C9CACBCCCDCED0D111
:10047000D2D2D3D4D5D6D7D7D8D9D9DADADBDBDB09
:10048000DCDCDCDCDCDDDDDDDDDCDCDCDCDCDBDBAA
:10049000DBDADAD9D9D8D7D7D6D5D4D3D2D2D1D0FE
:1004A000CECDCCCBCAC9C7C6C5C3C2C1BFBEBCBBFB
:1004B000B9B8B6B4B3B1AFAEACAAA8A7A5A3A19F73
:1004C0009E9C9A98969492908E8C8A898785838137
:1004D0007F7D7B79777573716F6D6B696866646218
:1004E000605E5C5A5957555351504E4C4A494745E6
:1004F0004342403E3D3B3A3836353332302F2D2C87
:100500002A292826252322FFAA7F55400001010120
:1005100001010101010102020202020202020203C0
:100520000303030303030304040404040404050590
:100530000505050606060606070707070708080853
:1005400008090909090A0A0A0B0B0B0C0C0C0D0D02
:100550000D0E0E0E0F0F0F1010111111121213139A
:100560001414151516161717181819191A1A1B1B13
:100570001C1D1D1E1E1F202021222223242425266F
:1005800026272829292A2B2C2D2D2E2F30313232A7
:10059000333435363738393A3B3C3D3E3F404142B3
:1005A000434445464748494A4C4D4E4F5051535499
:1005B000555658595A5B5D5E5F616264656668694D
:1005C0006B6C6D6F7072737577787A7B7D7E8082CD
:1005D000838587888A8C8E8F91939596989A9C9E16
:1005E000A0A2A3A5A7A9ABADAFB1B3B5B7BABCBE26
:1005F000C0C2C4C6C9CBCDCFD1D4D6D8DBDDDFE2F3
:10060000E4E7E9EBEEF0F3F5F8FAFDFF0403300060
:10061000000024034C006500760069006E00730042
:100620006F006E0020007600330020006200790029
:1006300020004E00520000001A034D0041004E0001
:10064000550046004100430054005500520045004B
:10065000520000000403090409023B00020100A04B
:10066000FA09040000010301010009211101000140
:100670002240000705810308000A09040100010364
:1006800000000009211101000122BC0007058203BE
:1006900020000A120110010000000810CB561100C2
:1006A000030102030105010902A10185020901A15B
:1006B0000005091901290515002501950575018118
:1006C0000295017503810105010930093115812564
:1006D0007F95027508810609381581257F9501757A
:1006E000088106050C0A38021581257F95017508D9
:1006F0008106C0C005010980A101850319012AB73F
:1007000000150126B700950175108100C0050C0980
:1007100001A101850419012AA002150126A0029554
:100720000175108100C005010906A10185050507B5
:1007300019E029E7150025019508750181020507D3
:10074000190029EF1500250195F0750181020508B2
:10075000190129059505750191029501750391010E
:10076000C005010906A101050719E029E7150025C3
:100770000195087501810295017508810105071928
:100780000029FF150026FF00950675088100050861
:1007900019012905950575019102950175039101CE
:1007A000C00011241FBECFEFDAE0DEBFCDBF04B61C
:1007B00003FE27C08091030490910404A0910504D6
:1007C000B09106048730904BA740B04BD1F4109203
:1007D000030410920404109205041092060414BE3F
:1007E00084B7877F84BF0FB6F894A8958091600086
:1007F000886180936000109260000FBEE0E0F8E333
:10080000099512E0A0E0B1E0EEEFFDE502C0059031
:100810000D92A639B107D9F724E0A6E9B2E001C0EC
:100820001D92A330B207E1F70E9417290C94FD2E08
:100830000C9400000C947807CF93DF93EC010E9496
:100840004A22BE0180E090E0DF91CF910C941D1F01
:1008500088302DE5920751F089309D4589F4FB01E0
:100860008281882371F081E090E006C0FB018281E3
:10087000882339F082E090E00E941C0480E0089513
:1008800081E008959C013A9521153F4138F5DC013E
:10089000AA27B270AC01442754709C0122273870FB
:1008A00094FF0FC090FF02C080E101C080E0AB2B3D
:1008B00009F08062452B09F08064232B69F0806881
:1008C0000BC0892F8170AB2B09F08260452B09F09A
:1008D0008460232B09F08860FB0109940895CF936D
:1008E000DF93EC01805E9109089710F0209719F4CE
:1008F00064EF77E102C06EEA7AE1CE010E94420421
:100900008C2FDF91CF910C94CF16CF93DF93EC0116
:100910000E947917CE01805E9109089710F0209708
:1009200019F46BEF77E102C065EB7AE1CE01DF915C
:10093000CF910C94420481E008950C9428041F93F5
:10094000CF93DF9300D000D01F92CDB7DEB749839D
:100950005A836B832091E90289819A81211112C007
:10096000662349F00E947420182F682F89819A818C
:100970000E941B2003C00E944720182F69817A81A2
:10098000812F04C00E94742069817A810F900F909A
:100990000F900F900F90DF91CF911F910C945E05F7
:1009A000FC01408151816281738184810C949F0498
:1009B0000E94AC240E943722811102C00E94DC22D6
:1009C0000C941A040E9403110E9496090C94760755
:1009D00008950C94E80481E008950C94EB04CF93FF
:1009E000C82F0E94E9048C2F0E94ED04CF91089536
:1009F00008950E94D61A0E94F8042FEF84E39CE029
:100A0000215080409040E1F700C000000C94862403
:100A10000F931F93CF93DF93EC010E94D0048C01BE
:100A2000BE010E946010BE01C8010E949D0488237F
:100A3000D9F1BE01C8010E94A7108823A9F1BE0107
:100A4000C8010E94C309882379F1BE01C8010E9430
:100A5000FF11882349F1BE01C8010E94401288237A
:100A600019F1BE01C8010E946B138823E9F0BE0191
:100A7000C8010E946C0F8823B9F08A81882369F02D
:100A800001158CE5180731F00E3D1C4531F40E942C
:100A9000DC220AC00E94F90407C0CE01DF91CF9189
:100AA0001F910F910C949B0480E0DF91CF911F91D7
:100AB0000F91089580E090E0089508952CE3829FBF
:100AC000C0011124FC0126E0729FE00DF11D1124EC
:100AD000E60FF11DEE0FFF1FEC5DFE4F8591949127
:100AE0000895880F991FFC01E050FC4F8591949167
:100AF0000895CF93DF930E945E050E949106EC015A
:100B00008115904508F041C0C11580E4D80708F070
:100B1000D1C0C83ED10510F5C03ED10508F0FDC0DA
:100B2000C83AD10578F4C53AD10508F0A2C0C13061
:100B3000D10509F4F2C008F4EEC0C430D10508F0C4
:100B4000ECC0E9C0CF3BD10508F49BC0C03CD10547
:100B500008F4E1C0CE01805C91099EC0C11590E20D
:100B6000D90758F4C11521E0D20708F0D6C0C03F1C
:100B7000D10508F4D0C0D065D0C0C11580E3D80736
:100B800008F08EC0CE019F7087C0C11595E5D907CA
:100B900008F043C0C11524E5D20708F0A2C0C11572
:100BA00082E5D80708F5C11591E5D90708F085C099
:100BB000CE0174E0969587957A95E1F783709C2F26
:100BC000937021E030E002C0220F331F9A95E2F7C4
:100BD0003C68382BCF70C695C69580E2C89FE0016F
:100BE0001124C22BD32B99C09E01237033278C2F45
:100BF00086958695C115D34508F064C0C1E0D0E064
:100C000002C0CC0FDD1F2A95E2F720E2829FC001CF
:100C10001124C82BD92BDC6880C0C11529E5D20767
:100C2000A0F4C11588E5D80708F060C0C11596E5A5
:100C3000D90708F070C08C2F0E9425078F71C82F2C
:100C4000D0E0DC2FCC27D06268C0C1152AE5D207DE
:100C500008F451C0CE0190568115904208F05BC057
:100C60008D2F8F710E942507DD27D0628F71D82BC1
:100C700054C0C55AD0E0C25CDD4FC881D0E0D0641A
:100C80004CC0C85AD0E0CC0FDD1FC05FDD4F0990CB
:100C9000D881C02DD46441C00E947105EC013DC0D3
:100CA000CE019927D3FF03C0EC01D86C36C0EC010C
:100CB000D06C33C0DF70D06A30C0DC2FCC27C16F5E
:100CC000D06A2BC0C1E0D0E002C0CC0FDD1F2A9556
:100CD000E2F720E2829FC0011124C82BD92BDA68E9
:100CE0001CC0DC2FCC27C46FD06A17C0DC2FCC27E8
:100CF000C06FD06A12C08C2F8F700E94250794E0BD
:100D0000D695C7959A95E1F7CF70D0E0DC2FCC2728
:100D1000D069C82B02C0C0E0D0E0CE01DF91CF91F6
:100D200008958238910569F1B0F48133910509F491
:100D30006DC048F48932910509F463C08A32910587
:100D400009F469C008958533910509F455C08933C4
:100D50009105B9F00895833E910569F138F4803E1C
:100D60009105B1F0823E910509F10895863E910505
:100D7000A9F1873E9105B9F1843E910509F064C05F
:100D800023C02091F40320FD4FC021FD4DC00895E4
:100D90008091F40380FD44C08091F50380FF44C03E
:100DA0008091F40384FD42C083EE4DC08091F40332
:100DB00082FF38C0F5CF8091F40382FD33C080916B
:100DC000F50380FD31C0ECCF8091F50381FF32C087
:100DD0008091F40384FD2AC087EE35C08091F4032E
:100DE00083FF26C0F5CF8091F40383FD21C080915D
:100DF000F50381FD1FC0ECCF8091F40385FD1CC07D
:100E00001DC08091F40385FD19C016C08091F403C4
:100E100086FD16C017C08091F40386FD13C010C074
:100E200089E311C082EE0FC080EE0DC080E00BC0E0
:100E300086EE09C084EE07C089E205C085E303C0E1
:100E40008AE201C081E390E008959091F40392FF5B
:100E50000DC0282F2871283019F4877F846006C0C0
:100E6000282F2471243011F48B7F886093FF0DC0EC
:100E7000282F2871283119F4877E846106C0282F15
:100E80002471243111F48B7E88612091F50320FFB9
:100E90000DC0382F3871383019F4877F816006C053
:100EA000382F3171313011F48E7F886021FF0DC0F1
:100EB000282F2871283119F4877E816106C0282FD8
:100EC0002171213111F48E7E886194FD877E089511
:100ED000E82FF0E0E754FC4F80810895089580EA00
:100EE0008A95F1F7089508950C9473070C9474078C
:100EF0000C9473070895CF93DF930E94FC088091B0
:100F0000DA018091DA01811102C095E001C090E020
:100F10009093C40385E0891B8093C303A7E4B2E0E8
:100F20004CE452E061E070E08D91E82FE295EF70C3
:100F3000F0E021A18F70EB0102C0CC0FDD1F8A957C
:100F4000E2F7CE019C2F9095922391A392A1892B39
:100F500082A34A175B0741F7A1E4B2E047E452E0FD
:100F600061E070E08D91E82FE295EF70F0E021A153
:100F70008F70EB0102C0CC0FDD1F8A95E2F7CE0126
:100F80009C2F9095922391A392A1892B82A34A171B
:100F90005B0741F7EFEAF3E0A9EBB3E089EB93E0FD
:100FA00011921D928E179F07D9F785E00E94A10824
:100FB0000E94D804DF91CF910C9410090E94DF08A1
:100FC000882309F18091C30390E087549C4F0E94CD
:100FD0004009811114C0809196028F5F8093960220
:100FE000863078F0E091C303F0E0E754FC4F80E0F6
:100FF00090E01192019685309105D9F702C01092C8
:1010000096020C94E2048091C40390E087549C4FB4
:101010000E945F090C947A073F924F925F926F9201
:101020007F928F929F92AF92BF92CF92DF92EF9278
:10103000FF920F931F93CF93DF9387E4882E82E074
:10104000982E0FEA13E094EB692E93E0792E512C41
:10105000CC24C394D12C5801D8013C901C92F401AB
:1010600081914F01C82FC295CF70D0E099A18F70A8
:10107000760101C0EE0C8A95EAF7892F8E2989A3A3
:101080008AA14E2C409484218AA30E946F07E1E438
:10109000F2E020E030E09191A92FA295AF70B0E08E
:1010A00090964C91D8016C9150E09F7002C055957C
:1010B00047959A95E2F740FD08C09C2D022E01C08D
:1010C000990F0A94EAF7892F01C080E0862BD80196
:1010D0008C932F5F3F4F26303105E9F689A14822D6
:1010E00049A28AA1E82AEAA20F5F1F4F81E0F50119
:1010F0009081931101C080E0582A6016710609F0B2
:10110000AACF6091C40370E067547C4F252D45E061
:101110008FEA93E00E94A2080E94DE07852DDF91EE
:10112000CF911F910F91FF90EF90DF90CF90BF90E4
:10113000AF909F908F907F906F905F904F903F9077
:1011400008950895FF920F931F93CF93DF938C011F
:10115000F62ED72FC42F222349F081E080939902E5
:101160000E942A249093980280939702809199027A
:101170008823C1F080919702909198020E943624B2
:10118000069780F0EF2DFD2FD8014C2F50E0CD01B8
:10119000801B910B841795071CF48D918193F7CFD9
:1011A00010929902DF91CF911F910F91FF900895B6
:1011B00055985D9889B185FB882780F908958091BD
:1011C0009A02811112C08091D80080618093D8006A
:1011D0008AE18A95F1F700C08091D90080FD02C0B4
:1011E00082E001C081E080939A0281E090919A02AE
:1011F000913009F080E008950E94D8088093DA01C8
:101200008091DA0166E0882311F080E001C086E079
:101210000E94890B0E94DF0881110C941709089520
:101220000E94DF08811102C00C941D09089562E03C
:1012300070E08BED91E00C94001462E070E08BEDB7
:1012400091E00C9409140E947D0D882361F082EADC
:1012500092E00E94830D81E090E00E94E214892BCD
:1012600011F40C94800D08958091A102883039F416
:1012700060E082EA92E00E945B0E1092A102089563
:10128000CF93DF93D82FC92F0E94230980E090E0ED
:101290000E94E214892B79F4ED2FFC2F80E090E07E
:1012A000DC01A456BD4F2C91219301968530910508
:1012B000B9F781E001C080E0DF91CF910895CF932D
:1012C000DF93D82FC92F0E943409ED2FFC2F80E027
:1012D00090E02191DC01A456BD4F2C9301968530FE
:1012E0009105B9F7DF91CF910895CF939091BA020C
:1012F0009923C9F0882311F0C0E003C01092BA020C
:1013000012C08091BA02C817C8F7EC2FF0E0EE0FB8
:10131000FF1FE655FD4F808191810E946F040E945E
:10132000A621CF5FEECFCF91089508958091EB0174
:101330008823A1F08091BB02882381F08091BE02B6
:101340009091BF02009751F00E9436248536910596
:1013500028F01092BB0281E00C9475090895109258
:10136000BB021092EB011092BF021092BE0281E00C
:101370000C9475098091EB0181110C94AF0981E007
:101380008093EB0108955F926F927F928F929F926C
:10139000AF92BF92CF92DF92EF92FF920F931F9383
:1013A000CF93DF938C017B011092BC02873F2CE529
:1013B000920741F4FB01C281CC23C9F081E0809304
:1013C000EB010AC1883FFCE59F0739F4FB01C281AC
:1013D000CC2369F00E94AF09FFC0893F9C4539F4D6
:1013E000FB01C281CC2319F00E94BA09F5C080919B
:1013F000EB01882309F4EFC01092BD02AA24A39444
:10140000B12C95E0992EC1E0D0E08824839480919E
:10141000BD02823008F0A1C0C82ED12C9C9CF001E6
:101420009D9CF00D1124E053FE4F408151817724A3
:101430007A9490E0FA01E90FF11DE90FF11D259171
:1014400034910217130709F4792E232B11F09F5FB3
:10145000F1CFFFEF7F1202C0612C66C05090BB023B
:10146000F7016280662069F19C9CF0019D9CF00D63
:101470001124E053FE4F9E0101C0220F7A94EAF737
:101480003481232B2483552039F3AE0102C0440F4D
:10149000551F9A95E2F74150510930E04217530722
:1014A00009F042C0228133812115310521F0C901A3
:1014B0000E946F0403C061E00E9495098092BC0203
:1014C00033C09E0102C0220F331F9A95E2F72150CC
:1014D00031099C9CF0019D9CF00D1124E053FE4FBE
:1014E000448150E02417350769F4228133812115A6
:1014F000310521F0C9010E94850405C060E00E9409
:10150000950901C0512C9C9CF0019D9CF00D11246B
:10151000E053FE4FCE0101C0880F7A94EAF7809520
:10152000948189238483652CB628AA2069F09C9C29
:10153000F0019D9CF00D1124E053FE4F91E0848159
:10154000811190E0892F01C080E08170A82E8091E8
:10155000BD028F5F8093BD025ACF8091BC02882369
:1015600051F00E942A249093BF028093BE0280E033
:101570000E9475092CC0B1100DC081E00E94750950
:10158000AA2029F11092BF021092BE0281E080933E
:10159000BB021DC0F70182818823C9F08091BB0284
:1015A0008823A9F00E942A249093BF028093BE0250
:1015B000E091BA02E83058F481E08E0F8093BA02CD
:1015C000F0E0EE0FFF1FE655FD4F1183008381E031
:1015D000CB2DC82701C0C1E08C2FDF91CF911F9187
:1015E0000F91FF90EF90DF90CF90BF90AF909F90C2
:1015F0008F907F906F905F900895EF92FF920F937E
:101600001F93CF93DF93F62E472FE82FF0E0711151
:1016100006C0E45FFA4F6491762F862F72C0272FA1
:1016200030E0E45FFA4FE4910E2F10E056E0659F42
:10163000C0011124CFEFD0E0BE010E947A2E5BEAF8
:101640005603C001579F900D11248F0D911D8F0DD2
:10165000911D982F990F890F7E01E21AF30AE09EDF
:10166000D001E19EB00DF09EB00D1124489FA00165
:101670001124452F55277E01E41AF50AE09EA001AA
:10168000E19E500DF09E500D11247E01E81AF108E4
:10169000E29EC001E39E900DF29E900D1124892FD1
:1016A0009927C81BD90BC09FC001C19F900DD09F27
:1016B000900D11246230710591F048F461157105A7
:1016C000E1F061307105A9F48B2F752F19C06430DA
:1016D000710561F038F06630710579F00AC0892F24
:1016E0007B2F0EC08E2F7B2FE52F0AC08E2F792FD8
:1016F00002C0852F7E2FEB2F03C08B2F7E2FE92F6B
:101700006E2FDF91CF911F910F91FF90EF90089571
:1017100008958093C4026093EE010895CF93DF9300
:10172000762FE901682F842F0E94FD0A7983688350
:101730008A83DF91CF9108958091C503282F269544
:1017400030E02115310519F48170826005C0233124
:10175000310524F0817084628093C503089588E088
:1017600090E00C94BD2ECF92DF92EF92FF926B012E
:101770007C010E949C0BB701A60188E090E0FF90DD
:10178000EF90DF90CF900C94DB2EE5ECF3E083E05C
:10179000808311828FEF828383831482ACECB2E06A
:1017A00012968C911297836012968C93608171814E
:1017B000828193810C94B30B8091C50380FF02C09A
:1017C0008695089580E008958091C903833018F4C8
:1017D0008F5F8093C9036091C5037091C6038091A8
:1017E000C7039091C8030C94B30B8091C90388235D
:1017F00019F081508093C9036091C5037091C603AD
:101800008091C7039091C8030C94B30B6091EE01D3
:1018100070E08091C50380FF0AC08091C40223E07C
:10182000829FC001112486539C4F0C948811809193
:10183000C3029091ED01891780F7E82FF0E09F0136
:10184000220F331FE20FF31FE653FC4F1182108269
:1018500012828F5FF0CF9091C50390FF16C09091D8
:10186000C3022091ED01921770F4E92FF0E0DF013F
:10187000AA0FBB1FEA0FFB1FE653FC4F8183608357
:1018800042839F5FF0CF0C94060C0895CF93DF93B3
:1018900000D01F92CDB7DEB79091C50390FF0AC06C
:1018A0009E012F5F3F4F0E948E0B4B8169818A8181
:1018B0000E942B0C0F900F900F90DF91CF91089505
:1018C000CF93DF93EC01EC81F0E0E95FFB4F4491B3
:1018D000E5ECF3E0628181810E94460C8C818F5F90
:1018E0008C83DF91CF910895CF93DF93EC01E5ECEA
:1018F000F3E0438162818C810E94460C8C818F5F72
:101900008C83DF91CF910895AF92BF92CF92DF92F7
:10191000EF92FF920F931F93CF93DF9300D01F920C
:10192000CDB7DEB7182FF62E042FE22E8091C50317
:1019300080FF7CC0E82FE695AE2FB0E0AF5ABD4FD8
:101940009C919093CC028E7F823061F49E012F5F38
:101950003F4F812F0E948E0B4B8169818A810E94AB
:101960002B0C41C0923019F40091C8033CC0963052
:1019700019F41091C60337C09930A9F5E9508E2F9C
:101980008170D82EE695F0E0E95FFA4FA590B4900B
:10199000C12CBB246091EC01C61618F52C2D30E04B
:1019A000A29EC001A39E900DB29E900D112470E0E6
:1019B0000E947A2E812FD11002C0860F01C0861B93
:1019C0009091C302290F311DA901440F551F240F07
:1019D000351F26533C4F402F6F2D0E948E0BC39412
:1019E000D9CF0E94060C8091C603181308C08091BD
:1019F000C703F81204C08091C803081729F080912A
:101A0000CE0282608093CE021093C603F092C70389
:101A10000093C803EE2051F06091C5037091C60396
:101A20008091C7039091C8030E94B30B0F900F9051
:101A30000F90DF91CF911F910F91FF90EF90DF906A
:101A4000CF90BF90AF900895E5ECF3E09181282FFF
:101A5000438162818FE0890F0C94840C81E00C94A7
:101A6000240DE5ECF3E09181282F4381628181EF21
:101A7000890F0C94840C81E00C94310DE5ECF3E0BB
:101A8000628121E1620F08F46FEF282F4381818189
:101A90000C94840C81E00C943E0DE5ECF3E0628143
:101AA00021E1621B08F460E0282F438181810C94BE
:101AB000840C81E00C944D0DE5ECF3E0438121E1D1
:101AC000420F08F44FEF282F628181810C94840C1F
:101AD00081E00C945C0DE5ECF3E0438121E1421BD5
:101AE00008F440E0282F628181810C94840C81E00D
:101AF0000C946B0D20E00C94840C8091CE02089520
:101B00001092CE02089525E0E5ECF3E0DC010190AF
:101B10000D922A95E1F72091CC023091CD024091AF
:101B2000CE02FC0125833683478308956091C50367
:101B3000669570E04BE050E08FEE91E00E94A82E99
:101B4000892B19F481E08093CD020E942A2490937E
:101B5000C6028093C5028091CE0284608093CE023B
:101B60000895ECECF2E01182828184608283089512
:101B70009091C50390FF3AC09170811102C09260AC
:101B800006C0833110F0946202C0880F982B9093A6
:101B9000C5038091CE0281608093CE02662351F00E
:101BA0006091C5037091C6038091C7039091C803EB
:101BB0000E94B30B6091C503669570E04BE050E066
:101BC0008FEE91E00E94A82E892B19F00E94B10D92
:101BD00002C00E94960D81E08093C8024091C80324
:101BE0006091C7038091C6030C947A0D0895682F05
:101BF0009091C503969581E0890F833108F081E0CB
:101C00000C94B80D81E00C94F70D682F9091C503EA
:101C100096958FEF890F09F482E10C94B80D81E05D
:101C20000C94050E61E00C94B80DE5ECF3E08081B6
:101C30008160808386950C94120E60E00C94B80D40
:101C4000E5ECF3E080818E7F808360817181828109
:101C500093810E94B30B0E94B10DECECF2E0828103
:101C6000816082832FEF80E792E021508040904096
:101C7000E1F700C000000C94060C8091C50380FDC4
:101C80000C94200E0C94150EE5ECF3E080818E7F11
:101C900080830E94B10DECECF2E08281816082834E
:101CA0002FEF80E792E0215080409040E1F700C0A4
:101CB00000000C94060C1F93CF93DF93EC01162FBA
:101CC0008F8180FF0FC0888180FF0AC08091C5038B
:101CD00081608093C503888186950E94B80D02C0FB
:101CE0000E94440E8F8181FF06C0212F4B816A81A3
:101CF00089810E94840C8F8182FF08C08E81882395
:101D000019F00E94960D02C00E94B10D8F8183FFD1
:101D100003C081E08093C802DF91CF911F910895A5
:101D20008091CB02811133C00E943722811104C0FF
:101D30000E94DC220E94C50B0E94AF0B6093C5037A
:101D40007093C6038093C7039093C8038091CE021B
:101D500083608093CE026E7F61F40E94C50B0E9467
:101D6000AF0B6093C5037093C6038093C703909332
:101D7000C8030E949C0B0E94B10D8091C50380FF97
:101D800003C086950E941D0E81E08093CB020895CA
:101D9000EF92FF920F931F93CF93DF938091CD0229
:101DA000882309F477C08091CC02E091C503E695C1
:101DB000E81BE093C702823049F4F0E0ED5FFB4F8F
:101DC000E491CE2FD0E000E61CE00FC0863049F44D
:101DD000F0E0E050FC4FE491CE2FD0E004E71CE0AF
:101DE00004C0C0EDD7E008E81BE08091C80288235A
:101DF00089F01092C8020E942A249E0120953095F5
:101E0000820F931F9093C6028093C5021092CA025C
:101E10001092C9028091C5029091C6020E94362498
:101E20008C179D07B8F18091C2028823B1F01092FF
:101E3000C2028091C0029091C1020E943624803378
:101E4000954758F00E942A249093C1028093C002C3
:101E50008091CE0288608093CE02E090C902F0901B
:101E6000CA02E091C502F091C602CE0FDF1FD093E7
:101E7000C602C093C50285EC92E0F80109958091F5
:101E8000C9029091CA02892B29F4EF2819F081E048
:101E90008093C202DF91CF911F910F91FF90EF903D
:101EA0000895882311F0FA0101C0FB010994CF9332
:101EB000DF93C82FD62F0E94DC0B8C1740F00E94B6
:101EC000DC0B8D1720F4DF91CF910C94020E8C2F38
:101ED000DF91CF910C94120E1F93CF93DF93FB01F0
:101EE0001281111155C0EC010E9446218272FE013F
:101EF000E25CFC45E431F10520F4EA5AFF4F0C9412
:101F0000A22E11E045C00E943D0E42C04FE05EE0AF
:101F100062E07EE004C042E05EE06FE07EE00E94AE
:101F2000510F36C04BE35DE06EE27DE0F8CF4EE24C
:101F30005DE06BE37DE0F3CF49E55DE06AE47DE0E1
:101F4000EECF4AE45DE069E57DE0E9CF47E75DE09B
:101F500068E67DE0E4CF48E65DE067E77DE0DFCF5F
:101F600045EF5BE064EE7BE0DACF44EE5BE065EFEB
:101F70007BE0D5CF81E00E94120E0AC065E082E0CE
:101F800005C068E086E002C062E189E00E94570F68
:101F9000812FDF91CF911F910895CF93DF93EC01B3
:101FA00081E0898B8F810E94492188850E945C2174
:101FB0000E94A621EA81FB81CE010696309729F086
:101FC0006C897D89DF91CF910994DF91CF9108953C
:101FD000CF93DF93FC012081223041F4FB01EC011F
:101FE000828193810E946F0481E08B87DF91CF9182
:101FF0000895FC018081813021F4FB018081918171
:1020000005C0823029F4FB01828193810C946F0416
:102010000895FC018081813021F4FB018081918150
:1020200005C0823029F4FB01828193810C948504E0
:102030000895EF92FF920F931F93CF93DF93FC01CC
:102040002285211136C0EC01E380F480F7E5FF1A08
:1020500026E12E9DC0012F9D900D1124DC01A05082
:10206000BF4F1496ED91FC9115978A5F9E4F309764
:1020700029F054966D917C915597099586E18E9D36
:1020800080018F9D100D112400501F4FF801878192
:102090000E944F21F80180850E9462210E94A621A2
:1020A000188219861B861E821D821092D002109201
:1020B000CF02DF91CF911F910F91FF90EF90089584
:1020C000DF92EF92FF920F931F93CF93DF93FB0169
:1020D00022812223A1F12091FA012F3F81F18C016D
:1020E000C0E0D1E0E12CF12CDD24D3948091FA0101
:1020F000082E000C990B8E159F050CF18E818823FC
:10210000C9F089859A858017910739F48091CF02AB
:102110009091D0020817190769F0DF861C870B879A
:102120008989811103C0CE010E94CD0FCE01069690
:102130000E941910FFEFEF1AFF0A6696D7CFDF91C2
:10214000CF911F910F91FF90EF90DF900895EF9244
:10215000FF920F931F93CF93DF939C0137552F3F2F
:10216000310511F008F047C04091FA01042E000C2F
:10217000550B4217530714F42093FA01FB017C011D
:10218000828196E1929F8001939F100D1124E801B6
:10219000C050DF4F888B92818E81992311F1FA868E
:1021A000E9868F5F8E830E942A249E878D870E94F6
:1021B0007C218F830E94462188870E94592198851F
:1021C000892B8887E881F981C8018A5F9E4F309703
:1021D00019F06C897D890995F092D002E092CF02C6
:1021E0000AC0882341F08989882329F0C8018A5FC1
:1021F0009E4F0E94191081E0DF91CF911F910F91A6
:10220000FF90EF900895CF92DF92EF92FF920F939D
:102210001F93CF93DF938091FA018F3FF1F1F12C5F
:1022200096E1E92E0F2D10E08091FA01082E000CA6
:10223000990B801791078CF1E09EF001E19EF00D63
:102240001124E050FF4FC288D388C114D10419F47F
:1022500084E6C82ED12CE09EE001E19ED00D112431
:10226000C050DF4F8E818823B1F08D859E850E94FE
:102270003624C816D90678F48989811103C0CE01A5
:102280000E94CD0FE09EC001E19E900D11248A5F57
:102290009E4F0E941910F394C5CFDF91CF911F91EB
:1022A0000F91FF90EF90DF90CF90089525B1342FDC
:1022B0003095232335B1432B3FB7F894FC01680FC9
:1022C000791FE617F70789F0819198E045B900007A
:1022D00000C087FF25B9880F000000C000C000C003
:1022E00025B900C09A9591F7ECCF3FBF089524B16E
:1022F000242B24B99B01220F331F620F731F0E94EE
:10230000561187EC90E00197F1F700C000000895A6
:1023100040E10C9477110F931F93CF93DF93C62F57
:10232000D42F122FFC0182818823C9F06093D3023D
:102330000E942A249093D2028093D10280E28C0FD3
:10234000883008F057C0C77081E001C0880FCA9577
:10235000EAF7DF91CF911F910F910C94F4178091C0
:10236000D302681330C08091D1029091D2020E94B2
:1023700036248436910538F500E20D0FCD17B9F0FB
:1023800080E28C0F883040F4C77081E001C0880F74
:10239000CA95EAF70E94FB17083028F581E09D2FC7
:1023A000977001C0880F9A95EAF70E94F417812F61
:1023B0000E94E1170830F0F4D77081E001C0880F67
:1023C000DA95EAF70AC080E28C0F883098F4C7707B
:1023D00081E001C0880FCA95EAF7DF91CF911F9184
:1023E0000F910C94FB17812FDF91CF911F910F91CB
:1023F0000C94E117DF91CF911F910F9108959C01EB
:10240000CB01233F4CE53407F9F078F4283DFCE597
:102410003F07B9F0293D4CE5340711F1273D3C4514
:1024200031F526E241EE61EE1EC0253FFCE53F0797
:1024300099F070F0263F3C45D1F427E245EE66EE78
:1024400012C027E245EE0EC026E241EE60EE0BC060
:1024500027E245EE64EE07C026E241EE62EE03C0DD
:1024600028E241E065EE0E948B1180E00895FC01B6
:102470008281882319F01092D302089581E0089593
:10248000CF93DF93EC01FB018281882309F41FC104
:10249000C230FCE5DF0708F41BC1C6319CE5D90753
:1024A00038F09E012A5F3C452930310508F010C103
:1024B0000E944F229093F5038093F403C031ECE522
:1024C000DE0709F4C3C008F041C0C8308CE5D80766
:1024D00009F49AC0F0F4C430ECE5DE0709F487C0D3
:1024E00068F4C2308CE5D80709F477C0C330DC4506
:1024F00009F0E3C08091F403826076C0C630ECE559
:10250000DE0709F46EC008F07BC08091F403886098
:102510006BC0CC308CE5D80709F485C068F4CA30AC
:10252000ECE5DE0709F474C008F079C00E94D61A01
:102530008091F403806858C0CE308CE5D80709F448
:1025400076C008F07FC08091F4038BC0CB3FECE5F0
:10255000DE0709F44FC018F5C3318CE5D80709F43C
:102560007DC078F4C131ECE5DE0709F473C0C231F7
:10257000DC4509F0A2C00E94D61A8091F4038F773F
:1025800033C0C5318CE5D80709F472C008F486C0A1
:10259000CA3FDC4509F091C08091F5033EC0CF3FB2
:1025A000FCE5DF0709F45FC058F4CD3F9CE5D9078F
:1025B00009F444C008F43FC08091F50382602DC047
:1025C000C130FDE5DF0709F475C008F45DC0C23015
:1025D000DD4509F072C080E06EC08091F403816037
:1025E00003C08091F40380618093F40366C08091FE
:1025F000F40311C08091F50382608093F5035DC000
:102600008091F4038062F0CF8091F4038064ECCF7A
:102610008091F40388608460E7CF8160EECF809181
:10262000F4038E7FE1CF8091F4038D7FDDCF809125
:10263000F403877FD9CF8091F50318C08091F5030B
:102640008D7FDBCF8091F4038F7ECECF8091F4031A
:102650008F7DCACF8091F4038F7BC6CF8091F40326
:10266000877F8B7FC1CF8091F5038D7F8E7FC5CF14
:102670008091F40382FB222720F991E0922790FBBE
:1026800082F990FB83F9B0CF8091F503982F909554
:1026900091708E7F892B90FB81F9AFCF0E94D61A63
:1026A0008091F40387FB222720F991E0922790FB89
:1026B00087F99ACF81E00E94DE228091F403909105
:1026C000F5030E9460220E94D61A80E001C081E0DA
:1026D000DF91CF910895CF93DF9386319C4571F5BB
:1026E000EB010E944621982F917119F4982F9A7A44
:1026F00001C090E08A812091FB013091FC01882388
:1027000079F081E0911101C080E08093D4029111B1
:1027100002C069E201C065E3C9010E9479230AC0D1
:102720008091D402811102C069E201C065E3C90150
:102730000E9484230E94A62180E001C081E0DF91F5
:10274000CF9108958EE1489B02C08150E1F7489BEC
:10275000FECF0895589880E28A95F1F7589A089527
:10276000FC012AE02A95F1F790E020E080E031E0DA
:10277000261779F040E14A95F1F7880F489B02C08F
:102780008160932700C0000040E14A95F1F72F5F78
:10279000EFCF20E12A95F1F729B100C0000030E128
:1027A0003A95F1F7217092272081920F9083089536
:1027B000EF92FF920F931F93CF93DF931F92CDB7AA
:1027C000DEB719828C017C01E60EF11C0E151F0587
:1027D00059F00E94A21368E0CE0101960E94B01346
:1027E000F80181938F01F2CF81E09981911180E00E
:1027F0000F90DF91CF911F910F91FF90EF9008956F
:102800009093D7028093D6026093D502509A589A3B
:1028100008959093D7028093D6026093D502509882
:10282000589AE89AE9E6F0E080818C7F80830895E9
:10283000615091E001C0990F6A95EAF720E031E01C
:10284000992361F0492F482319F0589A232701C092
:10285000589840E24A95F1F79695F2CF222311F06D
:10286000589A01C0589880E28A95F1F758980895CF
:10287000FF920F931F93CF93DF93EC018C01060F10
:10288000111DC017D10741F0F9900E94AA1368E00A
:102890008F2D0E941814F5CFDF91CF911F910F91CA
:1028A000FF9008951F920F920FB60F9211240F936D
:1028B0001F932F933F934F935F936F937F938F93C8
:1028C0009F93AF93BF93EF93FF93CF93DF931F92A9
:1028D000CDB7DEB719820E94A21367E0CE01019640
:1028E0000E94B013382F369536953695932F9695CE
:1028F0009570232F2570920F292F2370969596950A
:102900008770920F891348C08981811145C08091D9
:10291000D502831708F440C080E18A95F1F7589AF0
:10292000509AA2E0AA95F1F700C00091D60210914A
:10293000D702B8E03B9F000D111D11245898F801F3
:102940006581662321F0868197810E9438140E9458
:10295000AA13F0E1FA95F1F758985098589A80E147
:102960008A95F1F7D80112966C911297662369F057
:1029700013968D919C9114970E94D813D801ED91D4
:10298000FC91811105C082E004C0D801ED91FC9159
:1029900088E080830E94A2130F90DF91CF91FF9176
:1029A000EF91BF91AF919F918F917F916F915F91C7
:1029B0004F913F912F911F910F910F900FBE0F904C
:1029C0001F9018950F931F93CF93DF932091D502FB
:1029D00030E0281739070CF471C09C0193E0220FF6
:1029E000331F9A95E1F7C091D602D091D702C20F5A
:1029F000D31FF894509A589845E04A95F1F7000093
:102A0000982F969595708570890F982F937086955D
:102A10008695890F8901082B0E94AA1384E08A9564
:102A2000F1F700C067E0802F0E94181440E14A953A
:102A3000F1F75098589A489902C000C0FCCF87E03F
:102A400090E0489B0EC0019751F4509A589AE88143
:102A5000F98181E08083789481E090E031C000C00A
:102A6000F0CF6D81662381F08E819F810E94D81303
:102A700081110AC0509A589AE881F98182E08083D6
:102A8000789482E090E01CC00E94A21380E28A95B4
:102A9000F1F75898509A40E14A95F1F76A81662318
:102AA00021F08B819C810E9438140E94AA13E88136
:102AB000F9811082789480E090E002C084E090E098
:102AC000DF91CF911F910F9108959093DD02809334
:102AD000DC020895E091DC02F091DD02309721F0F4
:102AE0000190F081E02D099480E00895E091DC02EE
:102AF000F091DD02309799F020910F02222359F0D6
:102B00002091F40327FF07C0DC012C9111962C9330
:102B1000119725E02C930280F381E02D099408950C
:102B2000E091DC02F091DD02309739F022E0DC0127
:102B30002C930480F581E02D099408952091DA0208
:102B40003091DB022817390771F09093DB028093F4
:102B5000DA02E091DC02F091DD02309721F006808C
:102B6000F781E02D099408952091D8023091D9027F
:102B70002817390771F09093D9028093D802E09119
:102B8000DC02F091DD02309721F00084F185E02D28
:102B90000994089585B7806885BF85B7806885BF2B
:102BA000089508950C94D1150C94D2150C94D11558
:102BB0000C94D1150E94CA150E94D6150C94D415F8
:102BC0000E9421240E947B070E94C0240E94900E34
:102BD000E4EFF3E08081806880838091F40390913A
:102BE000F5030E9460220C94D815AF92BF92CF9249
:102BF000DF92EF92FF920F931F93CF93DF93CDB7A6
:102C0000DEB72A970FB6F894DEBF0FBECDBF0E9485
:102C10000C080E94DF08811111C08FEF89838A831D
:102C20001B820E942A248160782F9D838C83498196
:102C30005A816B818D810E948F1640C08FEDA82E26
:102C400082E0B82E00E010E0C02E802F0E946807BE
:102C5000E82EF501D1905F01D82631F40F5F1F4FA8
:102C60000A30110589F7D9CF80917C0381FD0E943C
:102C70006E0780E0FF24F3949D2D9F21D1F08E8379
:102C8000CF82EF2081E009F480E088870E942A2427
:102C90008160782F9A8789874E815F8168858A85D0
:102CA0000E948F16F801E152FD4F8081F826F082D4
:102CB00005C08F5FFF0C8630F9F6D0CF0E94C80E9A
:102CC0000E9452260E946A159091DE028917B1F087
:102CD0000E946A158093DE022A960FB6F894DEBF32
:102CE0000FBECDBFDF91CF911F910F91FF90EF905D
:102CF000DF90CF90BF90AF900C94EF042A960FB660
:102D0000F894DEBF0FBECDBFDF91CF911F910F9121
:102D1000FF90EF90DF90CF90BF90AF900895CF934A
:102D2000DF93CDB7DEB72B970FB6F894DEBF0FBE9B
:102D3000CDBF4F83588769877A878B87DE011196CD
:102D400086E0FD0111928A95E9F785E0FE0137964C
:102D500001900D928A95E1F70E941421882319F0C1
:102D600082E00E9418220E94E72081110E9498218F
:102D700049815A816B817C818D819E810E94E01DF9
:102D80002B960FB6F894DEBF0FBECDBFDF91CF916B
:102D90000895FC01808191810E94B6200895CF930F
:102DA000882309F4A4C0C82F8238C1F40E946A1590
:102DB00081FD9DC069E38091FB019091FC010E941F
:102DC00079230E94A6212FEF81EE94E021508040CC
:102DD0009040E1F700C0000069E319C0833801F5B5
:102DE0000E946A1580FD83C063E58091FB0190918C
:102DF000FC010E9479230E94A6212FEF81EE94E02E
:102E0000215080409040E1F700C0000063E58091D0
:102E1000FB019091FC010E948423CF910C94A62188
:102E20008438C1F40E946A1582FD61C067E4809114
:102E3000FB019091FC010E9479230E94A6212FEFB3
:102E400081EE94E0215080409040E1F700C0000006
:102E500067E4DDCF8CEF8C0F813AD0F46C2F80913A
:102E6000FB019091FC010E94F922882349F06C2F0C
:102E70008091FB019091FC010E9484230E94A62175
:102E80006C2F8091FB019091FC010E947923C5CFAA
:102E900080E28C0F883048F4C77081E001C0880F51
:102EA000CA95EAF70E944921B8CFEBE5EC0FE33071
:102EB00040F4F0E0EE56FD4F808190E0CF910C940D
:102EC0009E15E8E5EC0FE73150F4F0E0EE0FFF1F40
:102ED000EC59FD4F80819181CF910C94B415C03F86
:102EE00030F08C2F0E945A25CF910C944726CF9119
:102EF0000895882309F464C0823879F40E946A1521
:102F000081FF5EC069E38091FB019091FC010E940A
:102F100079230E94A62169E310C08338B1F40E948E
:102F20006A1580FF4DC063E58091FB019091FC0123
:102F30000E9479230E94A62163E58091FB01909174
:102F4000FC010E9484230C94A621843879F40E9409
:102F50006A1582FF35C067E48091FB019091FC0106
:102F60000E9479230E94A62167E4E7CF9CEF980F87
:102F7000913A10F4682FE1CF90E2980F983050F416
:102F8000877091E001C0990F8A95EAF7892F0E9416
:102F90004F21D9CF9BE5980F933020F480E090E04B
:102FA0000C949E1598E5980F973120F480E090E0FE
:102FB0000C94B415803F20F00E94C2250C94472643
:102FC0000895CF93C82F0E94CF16C93349F42FEF2D
:102FD00087EE93E0215080409040E1F700C0000070
:102FE0008C2FCF910C947917882321F00E944921CE
:102FF0000C94A6210895882321F00E944F210C945F
:10300000A6210895CF92DF92EF92FF920F931F9324
:10301000CF93DF937C01062FC72FFC01D581D2957A
:10302000DF70128111110E9469210E943F218823C3
:1030300079F0112369F080E2800F883048F082E057
:103040000E9418220E943F2191E0D82ED92601C06B
:10305000D12CCC2EC2948FE0C8228C2D90E0FC01A4
:10306000E659FF4F0C94A22E8C2F807FCF708823BF
:1030700011F0C295C07F112399F0CC2309F4ECC163
:1030800080E2800F883010F0011104C08C2F0E9464
:10309000492103C08C2F0E945C210E94A621DCC123
:1030A000802F0E947917CC2309F4FCC180E2800FA5
:1030B000883010F0011104C08C2F0E944F2103C0F2
:1030C0008C2F0E9462210E94A621ECC18C2F807F50
:1030D000CF70803211F0C295C07F002319F001300B
:1030E00059F134C01123B1F0DD2381F0D13031F436
:1030F0000E947C218C2B0E948421D4C1D33031F4D6
:103100000E9498218C2F0E94E42124C00E947C21DF
:103110008C2B21C0DD2369F0D13041F40E9446217F
:103120008C2309F4BFC10E94ED2103C0D33009F400
:10313000B9C10E9498211FC0112321F0D43008F09A
:10314000B1C108C0D33008F0ADC115C0112331F0B2
:10315000D11182C18C2F0E94F417A4C1DD2359F034
:10316000093309F08BC1FFEF27EE83E0F1502040D7
:103170008040E1F781C18C2F0E94FB1793C18C2FF7
:1031800086958695837019F0813061F08BC111238B
:1031900021F0802F9C2F937002C080E090E00E946D
:1031A0009E1588C1112321F0802F9C2F937002C09F
:1031B00080E090E00E94B4157DC11123F9F0053F35
:1031C00051F0063F71F0043FA9F48091EE03909115
:1031D000EF0381600BC08091EE039091EF0382605A
:1031E00005C08091EE039091EF0384609093EF030C
:1031F0008093EE03802F0E945A251EC0053F51F098
:10320000063F71F0043FA9F48091EE039091EF0323
:103210008E7F0BC08091EE039091EF038D7F05C0F0
:103220008091EE039091EF038B7F9093EF03809357
:10323000EE03802F0E94C2250E9447263BC18C2F9F
:10324000837009F045C0111131C1402F4295469558
:103250004770440F440F602F6F70862F90E0A0E0FE
:10326000B0E0042E04C0880F991FAA1FBB1F0A9448
:10327000D2F704FF10C00FE010E020E030E004C0FF
:10328000000F111F221F331F4A95D2F7009510958A
:103290002095309503C000E010E09801C695C695D2
:1032A000C370BC01CD01602B712B822B932BC230DC
:1032B00049F058F4C13019F00E94311FF7C00E9444
:1032C0001F1FF4C00E94431FF1C00E941D1FEEC0CB
:1032D000112319F08C2F817001C08695882309F481
:1032E000E5C0402F429546954770440F440F602F2C
:1032F0006F70862F90E0A0E0B0E0042E04C0880F2D
:10330000991FAA1FBB1F0A94D2F704FF10C00FE039
:1033100010E020E030E004C0000F111F221F331F17
:103320004A95D2F7009510952095309503C000E09E
:1033300010E09801C695C695C370BC01CD01602B05
:10334000712B822B932BC23049F058F4C13019F005
:103350000E94F61FABC00E94E41FA8C00E94082074
:10336000A5C00E94571FA2C0CF70112339F08C2F27
:103370000E947D1F802F0E94F41798C0802F0E940A
:10338000FB178C2F0E949E1F91C0023F01F128F471
:10339000003F41F0013FA1F05AC0033FF9F0043F64
:1033A00039F155C0112341F0D33008F07BC08C2F88
:1033B0008F710E94C31F76C0D43008F073C0F7CF5E
:1033C000112339F08C2F8F710E947D1F6BC0112348
:1033D000C9F38C2F8F710E949E1F64C0112329F0A6
:1033E0008C2F8F710E94681F5DC00E94631F5AC09E
:1033F0001123C9F00E94E4200E944F210E94102155
:10340000843039F40E940F228C2F8F710E949E1FEE
:103410006CC0D33008F069C0CF718C2F0E947D1F23
:1034200063E08C2F0DC00E94E4200E944921D3301C
:1034300050F00E940F220E94ED2164E08C2F8F71CA
:103440000E94F92152C081E00E9418224EC011232F
:1034500039F0DD2309F4B6CF802F0E94CF1622C0A9
:10346000DD2309F4B6CF093349F49FEFE7EEF3E02B
:103470009150E040F040E1F700C00000802F0E9432
:10348000791710C04C2F4F70602FC7010E945A054A
:103490000E948E1E0FC04C2F4F70602FC7010E94DC
:1034A0005D0508C088EF8C0D843020F40E946A15F9
:1034B0000E94EF04DD20D9F00E94102180FD17C08A
:1034C000F70112820E940A210E947D1FC7010E94FB
:1034D000801A0E940A21DF91CF911F910F91FF90D6
:1034E000EF90DF90CF900C949E1FD12CDFCFDF9117
:1034F000CF911F910F91FF90EF90DF90CF900895A3
:103500000F931F93CF93DF93EC01988189812B81D7
:103510003C81232B31F08F3F31F481E09F3F19F440
:1035200003C081E001C080E080FD13C0CE010E9495
:103530000805882371F0688179818A810E94C12001
:103540008C010E941A200E940B1FB801CE010E941C
:103550000218DF91CF911F910F910895882321F0D8
:103560000E945C210C94A6210895882321F00E94DA
:1035700062210C94A62108950E9469210E9479215C
:103580000E94A6210E9471270E94472680E090E0B9
:103590000E949E1580E090E00C94B4158091FB0190
:1035A0009091FC010E948F230C94BC1A0E9456211A
:1035B0000C94CE1AE92FE295EF704E2F50E0FA01ED
:1035C0003297EE30F105B0F4E658FF4F0C94A22E7E
:1035D000803F91F018F4883E68F40EC0843F51F4A7
:1035E0000BC0883E48F0813F29F406C093FB882732
:1035F00080F9089580E0089581E008950E94B62042
:103600000E94DA1A0895CF93DF9300D000D01F9262
:10361000CDB7DEB70F900F900F900F900F90DF9106
:10362000CF910895CF93DF9300D000D000D0CDB7D5
:10363000DEB726960FB6F894DEBF0FBECDBFDF9182
:10364000CF9108951F93CF93DF93C091EA0216E0C4
:103650008091EB02C81799F0D0E01C9FF0011D9FEC
:10366000F00D1124E451FD4F40815181628173813D
:10367000848195810E94121B2196C770E9CFDF914A
:10368000CF911F91089540911C0350911D036091AB
:103690001E0370911F0380912003909121030C94CD
:1036A000121B2091EA029091EB0256E02917A9F033
:1036B00030E0529FF001539FF00D1124E451FD4F73
:1036C0007181761306C07081781303C07281741300
:1036D00006C02F5F3F4F2770E9CF80E0089581E05B
:1036E0000895CF938091210382958F7009F05FC078
:1036F00080911E03882309F45AC08091EA02B09198
:10370000EB0270911C03A0911D0340911F03509187
:10371000200391E07F3F09F090E0692FC6E08B170E
:1037200009F445C04115510521F0AF3F21F020E0DB
:1037300003C021E001C0262F90E020FD35C0C89FC6
:10374000F001C99FF00D1124E451FD4F21812A138E
:103750002BC02081271328C02281211125C023815D
:1037600034812417350710F421503109241B350BFF
:1037700024363105C8F4209121032F702061209355
:10378000210326E0289FF001299FF00D1124EF501E
:10379000FD4F80818F70806180838CE193E00E9477
:1037A000801ACF910C94221B01968770B8CFCF91CD
:1037B00008959F92AF92BF92CF92DF92EF92FF92C5
:1037C0000F931F93CF93DF93CDB7DEB761970FB6FB
:1037D000F894DEBF0FBECDBF7C0185E0F701DE01AE
:1037E0001D9601900D928A95E1F7D701DC90119614
:1037F0000C9111971296CC9030911C0340911D03AF
:1038000080911F0390912003009731F04F3F31F4D6
:1038100021E03F3F19F403C021E001C020E020FD7A
:103820009FC1F701A380B48090901E03992009F4F2
:103830002BC120912103A816B90628F0B501681BF9
:10384000790BCB0104C0809590958A0D9B1D11E0EA
:103850008436910590F010E0207F09F0DBC07A2DCE
:10386000B98AA88A4D2D502F6C2D89890E94031B7F
:103870008CE193E00E94801A6BC1822F807F09F057
:1038800091C0041315C0D31213C01C2DC11010C059
:103890002F702061209321030E94431B8CE193E051
:1038A0000E94801A80912103D70115968C9375C1CF
:1038B000A114B10439F00F3F39F481E0BFEFDB12FE
:1038C00003C003C081E001C080E080FD03C081E04F
:1038D0008C2502C080E090E080FF15C04C2D602F49
:1038E0008D2D0E94511B882371F08CE193E00E9482
:1038F000801AECE1F3E086E0DF011D928A95E9F79A
:103900000E94431B4DC0AB2839F00F3F39F481E0D2
:10391000BFEFDB1203C003C081E001C080E080FD87
:1039200003C081E08C2502C080E090E0E82FE170C8
:10393000BE2E80FF2CC04C2D602F8D2D0E94511B60
:10394000182F811124C0DD860E878D859E850E94EB
:10395000B620292F22952F70223018F0243090F4B1
:1039600005C09F7059F0811109C017C19F7031F0D7
:10397000D70115969C91907F09F40FC1805E883025
:1039800008F40BC1C7010E94801A1B2D06C11C2D13
:10399000CC2009F402C1809121038160809321032E
:1039A00010E0FBC0041309C0D31207C0C11005C04A
:1039B00080912103F7018583A5C0DD860E878D8563
:1039C0009E850E94FE1A882379F1CC2069F120910E
:1039D0002103822F82958F7090E0029774F080917E
:1039E0001C0390911D0398878F831986BB86AA8636
:1039F0002C87CE0107960E94801A86E0F701ACE181
:103A0000B3E001900D928A95E1F70E94711B0E942C
:103A1000431B0DC0041769F0DD860E878D859E85DA
:103A20000E94FE1A811119C0C7010E94801A11E07C
:103A3000B4C0D312F1CFC110EFCF80912103F701B1
:103A40008583C7010E94801A86E0ECE1F3E0DF0184
:103A50001D928A95E9F7192DA0C0CC2029F3209159
:103A60002103822F82958F7090E0029734F280912B
:103A70001C0390911D039A8389831B82BD82AC82B3
:103A80002E83CE010196B7CFA816B90628F0F5010E
:103A9000E81BF90BCF0104C0809590958A0D9B1D02
:103AA0008436910558F010E07A2DB98AA88A4D2DF8
:103AB000502F6C2D89890E94031B4AC01C2DCC20DD
:103AC00009F4B2CF041333C0D31231C020912103C3
:103AD00020FD24C0822F82958F70482F50E0411521
:103AE0005105E1F0D70115962C9315974F305105EC
:103AF00049F08F5F982F9295907F822F8F70892B3E
:103B000015968C93C7010E94801A86E0F701ACE1FC
:103B1000B3E001900D928A95E1F73DC086E0F70190
:103B2000ACE1B3E001900D928A95E1F736C0DD86F5
:103B30000E878D859E850E94FE1A81115ECF809131
:103B40002103816080932103C7010E94801A25C050
:103B5000ECE1F3E086E0DF011D928A95E9F71BC0F6
:103B6000CC2009F461CFDD860E878D859E850E946D
:103B7000FE1A182F882309F457CF86E0F701ACE12D
:103B8000B3E001900D928A95E1F78CE193E00E94F9
:103B9000C9160E94711B0E94431B812F61960FB6AC
:103BA000F894DEBF0FBECDBFDF91CF911F910F9173
:103BB000FF90EF90DF90CF90BF90AF909F900895CF
:103BC0001F93CF93DF93CDB7DEB72C970FB6F89442
:103BD000DEBF0FBECDBF4F83588769877A878B873B
:103BE0009C87CE0107960E94D91B8823D1F09F8124
:103BF00088852A853B85232B31F08F3F31F481E086
:103C00009F3F19F403C081E001C080E080FD47C000
:103C10004F81588569857A858B859C850E94121B0A
:103C20003EC086E0FE013796DE01119601900D92AE
:103C30008A95E1F7FF81E8856A857B8561157105C5
:103C400031F0EF3F31F481E0FF3F19F403C081E030
:103C500001C080E080FD23C02091EB0230E0C9016B
:103C60000196877099274091EA0250E084179507E2
:103C7000F1F1F983EA837D836C8396E0929FD00112
:103C8000939FB00D1124A451BD4FFE0131960190B8
:103C90000D929A95E1F78093EB020E94221B16E0A9
:103CA0008091EA029091EB02891771F1189FC0018F
:103CB000112484519D4F0E94D91B882329F1E09142
:103CC000EA021E9FF0011124E451FD4F4081518111
:103CD00062817381848195810E94121B8091EA0226
:103CE00090E00196877099278093EA02D9CF0E94CD
:103CF000D61A1092EB021092EA02ECE1F3E086E0B1
:103D0000DF011D928A95E9F72C960FB6F894DEBF75
:103D10000FBECDBFDF91CF911F910895EF92FF921B
:103D20000F931F93CF93DF938C01892B09F46CC001
:103D3000F12CEE24E394E8012196F8018491843774
:103D400040F4843008F051C0813081F0823019F1A4
:103D50005BC0853709F444C0A8F19CE7980F903701
:103D600008F052C08F770E94791741C00E5F1F4F35
:103D7000FE01849190E2980F983050F48770FE2DE8
:103D800001C0FF0F8A95EAF78F2F0E946C2114C0A3
:103D90000E94CF162DC00E5F1F4FFE01849190E24E
:103DA000980F983060F48770FE2D01C0FF0F8A9540
:103DB000EAF78F2F0E9472210E94A62119C00E944B
:103DC000791716C00E5F1F4FFE01C491CC2381F0FE
:103DD0008FE99FE00197F1F700C00000C150F6CFD6
:103DE0000E5F1F4FFE01F49003C00E94CF168E019C
:103DF0008F2D882309F49FCFEFE9FFE03197F1F78A
:103E000000C000008150F5CFDF91CF911F910F913D
:103E1000FF90EF900895089508950C940C1F0C9452
:103E20000D1F0E940F1F60934E0370934F038093EA
:103E30005003909351030C94BC1A0C94111F0F93D0
:103E40001F9300914E0310914F0320915003309126
:103E50005103602B712B822B932B1F910F910C948C
:103E6000111F0F931F9300914E0310914F03209148
:103E700050033091510360237123822393231F91B8
:103E80000F910C94111F0F931F9300914E031091EB
:103E90004F032091500330915103602771278227EF
:103EA00093271F910F910C94111F0C940C1F0E94CB
:103EB000551F60934A0370934B0380934C03909378
:103EC0004D030C94BC1A60E070E0CB010C94571FBA
:103ED0000F931F9341E050E060E070E08A019B0186
:103EE00004C0000F111F221F331F8A95D2F7C9018A
:103EF000B8011F910F910C94571F0F931F9341E02E
:103F000050E060E070E004C0440F551F661F771F4B
:103F10008A95D2F780914A0390914B03A0914C036C
:103F2000B0914D038A019B01082B192B2A2B3B2BA7
:103F3000C901B8011F910F910C94571F0F931F9344
:103F400041E050E060E070E004C0440F551F661F80
:103F5000771F8A95D2F7409550956095709580911E
:103F60004A0390914B03A0914C03B0914D038A01F9
:103F70009B01082319232A233B23C901B8011F9160
:103F80000F910C94571F0F931F9341E050E060E096
:103F900070E004C0440F551F661F771F8A95D2F743
:103FA00080914A0390914B03A0914C03B0914D0333
:103FB0008A019B01082719272A273B27C901B80135
:103FC0001F910F910C94571F0F931F9300914A0359
:103FD00010914B0320914C0330914D03602B712BBA
:103FE000822B932B1F910F910C94571F0F931F93AC
:103FF00000914A0310914B0320914C0330914D03E3
:1040000060237123822393231F910F910C94571FD8
:104010000F931F9300914A0310914B0320914C037F
:1040200030914D0360277127822793271F910F91AD
:104030000C94571F0895292F220F920F990F890F63
:10404000E82FE695E695E695877051E001C0550F9B
:104050008A95EAF785E0E89FF0011124EE5DFC4FB8
:1040600020E030E070E04081CB01022E02C0969546
:1040700087950A94E2F781708195842785238427A8
:1040800081932F5F3F4F2530310569F70895292F20
:10409000220F920F990F890F682F66956695669586
:1040A000982F977085E0689FB001112440E050E0A0
:1040B00080E0FB01E40FF51FEE5DFC4F208130E056
:1040C000092E02C0369527950A94E2F7217033270E
:1040D000042E01C0220F0A94EAF7822B4F5F5F4F34
:1040E0004530510531F70895BF92CF92DF92EF929C
:1040F000FF920F931F93CF93DF938C01C0904A03DD
:10410000D0904B03E0904C03F0904D0380914E0310
:1041100090914F03A0915003B0915103C82AD92A1E
:10412000EA2AFB2ACFE1D0E0D701C6010C2E04C059
:10413000B695A795979587950A94D2F780FD04C008
:10414000219790F7B12C07C0BC2EB8018C2F0E948C
:1041500079050197A9F38B2DDF91CF911F910F91D5
:10416000FF90EF90DF90CF90BF900895CF93DF93B3
:10417000EC010E947420BE010E947905DF91CF916D
:1041800008951F93CF93DF93EB019091E902992358
:1041900021F0CB010E94B62013C0882349F0CB0147
:1041A0000E947420182F682FCE010E941B2004C08B
:1041B000CB010E944720182FBE01812F0E94790554
:1041C000DF91CF911F9108958091570308950E9428
:1041D0002A2420915503309156038217930750F0FB
:1041E0000E942A242091550330915603821B930B81
:1041F0009C010AC00E942A24209155033091560345
:1042000020953095280F391F81E0283C310508F4AE
:1042100080E008958091540385958595859508954E
:1042200080915403877008950E942A24209152039C
:104230003091530382179307A8F00E942A242091FB
:10424000520330915303821B930B883C910510F469
:1042500080E013C08091540382FB882780F991E0AD
:1042600089270BC00E942A242091520330915303C6
:1042700020953095820F931FE8CF8170089590911B
:104280005403977081E009F480E0089580917B03E6
:10429000089590917B03892B80937B0308958095EB
:1042A00090917B03892380937B03089510927B0375
:1042B000089580917A03089590917A03892B8093D1
:1042C0007A030895809590917A03892380937A03E5
:1042D000089510927A03089590917903892B809321
:1042E00079030895809590917903892380937903C8
:1042F00008951092790308958091580308950895C0
:104300000C947F210C948021CF939091580398179F
:1043100069F0C82F0E942A24909356038093550376
:10432000C09358038C2FCF910C948221CF91089584
:1043300080915803882349F0109258031092560335
:104340001092550380E00C9482210895E091FB01C6
:10435000F091FC0180917B038083E091FB01F0915F
:10436000FC01908180917A03892B8083E091FB018D
:10437000F091FC01908180917903892B8083809159
:1043800058038823B9F00E94E72081110E949821E8
:10439000E091FB01F091FC01908180915803892B01
:1043A00080838091FB019091FC010E94E3228111A6
:1043B0000E9498218091FB019091FC010C9476154C
:1043C0000C947F210C94E02190915703981721F0D1
:1043D000809357030C94E22108958091570388231A
:1043E00029F01092570380E00C94E22108950C9478
:1043F0007F2198E0899F90011124262B209354035C
:104400000E947D1F0E942A2490935303809352039D
:10441000809154038595859585950C94F72110928C
:104420005403109253031092520380E00C94F7212E
:10443000209154038095822380935403982F977082
:1044400079F430E0482F082E000C550B241735075F
:1044500039F08595859585950E949E1F0C940F22B5
:1044600008956FEF7FEF80E090E00C94E72E80E0FE
:1044700090E00E94C32E21E08C3E9E4F09F020E088
:10448000822F089582E090E00C94B52E83E090E0B6
:104490000C94B52E682F83E090E00C94C92ECF9336
:1044A00084E090E00E94B52EC82F81E290E00E9447
:1044B000B52E2C2F30E0A901582BCA01CF910895B9
:1044C000CF93C92F682F84E090E00E94C92E6C2FF3
:1044D00081E290E0CF910C94C92EAB01BC018FE03A
:1044E00090E00C94DB2EAB01BC0183E190E00C94D6
:1044F000DB2E60E070E0CB010C94732260E070E092
:10450000CB010E946D220C9479226CEE7EEF80E04C
:1045100090E00E94E72E60E082E090E00E94C92EC9
:1045200060E083E090E00E94C92E10924E0310924A
:104530004F03109250031092510360E084E090E02A
:104540000E94C92E60E081E290E00E94C92E60E0E6
:1045500085E090E00E94C92E60E086E090E00E9435
:10456000C92E6FEF87E090E00E94C92E40E050E036
:10457000BA0188E090E00E94DB2E60E08DE090E0E0
:104580000E94C92E40E050E0BA0188E190E00E940C
:10459000DB2E60E087E190E00E94C92E40E050E011
:1045A000BA018CE190E00E94DB2E60E080E290E0B6
:1045B0000E94C92E0C947E220C948522682F8EE0D6
:1045C00090E00C94C92EFC01329680910F02882352
:1045D00031F08091F40387FF02C09EE101C096E0B4
:1045E00080E0915028F021912223D9F38F5FF9CFF9
:1045F0000895662351F120910F022223E9F02091C2
:10460000F40327FF19C0462F4695469546954E312F
:10461000E0F4677021E030E002C0220F331F6A959A
:10462000E2F7FC01E40FF11D828190E02823392399
:1046300081E0232B69F409C0FC0132960896219190
:10464000621729F0E817F907D1F780E0089581E0B3
:1046500008959C01FC0132969FEF80E0419146173E
:1046600089F09F3F19F4411101C0982F8F5F863068
:10467000A9F79F3F39F0F901E90FF11D97FDFA9570
:104680006283089508959C012A5F3F4FFC01428197
:10469000461301C01282019682179307B9F7089555
:1046A000262F2695269526952E3168F4FC01E20FDB
:1046B000F11D677021E030E001C0220F6A95EAF732
:1046C0008281282B22830895262F269526952695CC
:1046D0002E3170F4FC01E20FF11D677021E030E033
:1046E00001C0220F6A95EAF7209582812823228350
:1046F000089520910F02222329F02091F40327FD31
:104700000C9450230C94292320910F02222329F08A
:104710002091F40327FD0C9464230C9443232091EF
:104720000F02FC013296222331F08091F40387FFBF
:1047300002C08EE101C086E0DF011D928A95E9F793
:10474000089508950C94A1230C94A123CF930E9463
:10475000A4230E940C080E94A223C0E08C2F0E9478
:104760006807811104C0CF5FCA30C1F701C081E082
:10477000CF9108950C94A1230C94BA230E94BC23DA
:104780008091FA03843049F110927D0320E488E19E
:1047900090E00FB6F894A895809360000FBE209328
:1047A000600080E00E94EF040E94BC2383B7817FF9
:1047B000846083BF83B7816083BF7894889583B713
:1047C0008E7F83BF0FB6F894A895809160008861B2
:1047D00080936000109260000FBE08950C94A12396
:1047E0000E94D61A0E946A150E94EF040C94EE23D0
:1047F0001F920F920FB60F9211248F939F93AF9336
:10480000BF9380917D03811113C08091F00390913B
:10481000F103A091F203B091F3034196A11DB11DE4
:104820008093F0039093F103A093F203B093F3030A
:10483000BF91AF919F918F910F900FBE0F901F90DE
:10484000189582E084BD93E095BD9AEF97BD809363
:104850006E0008952FB7F8948091F0039091F103C2
:10486000A091F203B091F3032FBF0895CF92DF928E
:10487000EF92FF920F931F932FB7F8944091F0039C
:104880005091F1036091F2037091F3032FBF6A011D
:104890007B01EE24FF248C0120E030E0C016D1061D
:1048A000E206F30610F4415051099A01281B390B16
:1048B000C9011F910F91FF90EF90DF90CF90089565
:1048C00078941F920F920FB60F9211248F939F939B
:1048D000AF93BF938091F0039091F103A091F20305
:1048E000B091F3030196A11DB11D8093F003909345
:1048F000F103A093F203B093F303BF91AF919F91A3
:104900008F910F900FBE0F901F90189581E08093AC
:10491000E00080E28093D8001092C9008FE19EE40D
:104920000197F1F700C0000087E090EBDC01809375
:10493000030490930404A0930504B09306049CE040
:1049400088E10FB6F894A895809360000FBE90930D
:104950006000FFCF0C9431220E940C088FE39CE989
:104960000197F1F700C000000E940C0880E00E944F
:10497000680780FF04C00E94AA240C94862408952E
:104980000E943722811102C00E94DC220E94422232
:1049900080937C030E944F229093F5038093F4034D
:1049A0000E944622682F70E080E090E00C941D1F6A
:1049B0008091850380FF0BC06091020285E0689FB3
:1049C000B001112475956795759567952BC081FF8A
:1049D00009C06091020285E0689FB00111247595BD
:1049E000679520C082FF07C06091020285E0689F42
:1049F000B001112417C0909184039923D1F06091E4
:104A00000102961788F72091020285E0289F900105
:104A10001124929FA001939F500D112470E0CA01B0
:104A20000E948E2E6038710540F46115710519F4ED
:104A300006C065E070E0862F08958FE7089581E055
:104A400008958091850380FF08C06091FE0170E0A9
:104A5000759567957595679521C081FF06C0609132
:104A6000FE0170E07595679519C082FF04C06091E2
:104A7000FE0170E010C090918403992399F0609139
:104A8000FD019617A0F78091FE01899FC0011124B6
:104A900070E00E948E2E6038710540F4611571053A
:104AA00019F406C061E070E0862F08958FE708953D
:104AB00081E00895803F21F40E94D824819504C0AC
:104AC000813F29F40E94D824809389030895823F6E
:104AD00021F40E94D824819504C0833F29F40E94C8
:104AE000D824809388030895893F19F40E942125D2
:104AF00005C08A3F31F40E942125819580938A0365
:104B000008958B3F21F40E942125819504C08C3F9C
:104B100029F40E94212580938B030895843F21F47A
:104B200080918703816017C0853F21F480918703BE
:104B3000826011C0863F21F48091870384600BC09E
:104B4000873F21F480918703886005C0883F31F456
:104B50008091870380618093870308958D3F21F4BE
:104B60008091850381600BC08E3F21F48091850385
:104B7000826005C08F3F29F4809185038460809313
:104B800085030895803F39F48091890387FF6CC0C5
:104B90001092890369C0813F29F480918903181616
:104BA000BCF362C090918803823F29F497FF5CC0F8
:104BB0001092880359C0833F19F41916CCF354C0DE
:104BC000893F41F480918A0318160CF04DC0109271
:104BD0008A034AC08A3F29F480918A0387FF44C030
:104BE000F6CF8B3F39F480918B0387FF3DC0109245
:104BF0008B033AC08C3F29F480918B031816BCF3C9
:104C000033C0843F21F4809187038E7F17C0853F96
:104C100021F4809187038D7F11C0863F21F480911C
:104C200087038B7F0BC0873F21F480918703877FA9
:104C300005C0883F31F4809187038F7E809387037E
:104C400013C08D3F21F4809185038E7F0BC08E3F72
:104C500021F4809185038D7F05C08F3F29F48091D9
:104C600085038B7F809385038091880381110EC01B
:104C70008091890381110AC080918A03811106C045
:104C800080918B03811102C010928403089586E8FD
:104C900093E00E9490150E942A24909383038093AE
:104CA00082030895CF93DF9300D000D000D0CDB71A
:104CB000DEB786E0E6E8F3E0DE01119601900D92A2
:104CC0008A95E1F780918803811105C0809189035D
:104CD000882309F47AC080918003909181030E9417
:104CE0003624AC0190918403992339F0209103027A
:104CF00030E02417350758F068C0209104028AE09C
:104D0000289F900111242417350718F05EC09F3F9B
:104D100019F09F5F9093840310928A0310928B0383
:104D200080918803181624F40E94D8248093880365
:104D30008091880387FF05C00E94D82481958093C5
:104D4000880380918903181624F40E94D824809344
:104D500089038091890387FF05C00E94D82481952B
:104D600080938903309188033323E1F020918903F4
:104D70002223C1F045EB3403C0011124992319F01B
:104D80009093880303C081E08093880335EB23036D
:104D9000C0011124992319F09093890303C081E085
:104DA000809389030E944726809182039091830318
:104DB000909381038093800386E0FE013196A6E8FC
:104DC000B3E001900D928A95E1F780918A038111F9
:104DD00005C080918B03882309F47AC080917E03FB
:104DE00090917F030E943624AC0190918403992313
:104DF00039F02091FF0130E02417350758F068C0E2
:104E0000209100028AE0289F900111242417350781
:104E100018F05EC09F3F19F09F5F9093840310923B
:104E200088031092890380918A03181624F40E9443
:104E3000212580938A0380918A0387FF05C00E9401
:104E40002125819580938A0380918B03181624F481
:104E50000E94212580938B0380918B0387FF05C0DF
:104E60000E942125819580938B0330918A033323FF
:104E7000E1F020918B032223C1F045EB3403C00104
:104E80001124992319F090938A0303C081E0809341
:104E90008A0335EB2303C0011124992319F0909361
:104EA0008B0303C081E080938B030E94472680918F
:104EB00082039091830390937F0380937E0386E027
:104EC000FE013196A6E8B3E001900D928A95E1F7D4
:104ED00026960FB6F894DEBF0FBECDBFDF91CF91FF
:104EE0000895E6E8F3E086E0DF011D928A95E9F790
:104EF000109284031092850308958091AC03089565
:104F0000CF93DF9300D01F92CDB7DEB79091FA0315
:104F1000943019F589837B836A8382E08093E9006A
:104F20008FEF9091E800815095FD06C095ED9A9520
:104F3000F1F700008111F5CF8091E80085FF0DC0E9
:104F400040E050E063E070E0CE0101960E94DC2971
:104F50008091E8008E778093E8000F900F900F907B
:104F6000DF91CF910895CF93DF93EC010E94BF2989
:104F7000823011F0843031F4BE0184E0DF91CF91B2
:104F80000C948027DF91CF910895BC0183E00C94AD
:104F90008027CF93DF93EC010E94BF29823011F06C
:104FA0008430F9F482E08093E9008FEF9091E8007B
:104FB000815095FD06C095ED9A95F1F7000081119D
:104FC000F5CF8091E80085FF0CC040E050E066E03E
:104FD00070E0CE010E94DC298091E8008E778093FA
:104FE000E800DF91CF910895CF93DF93EC010E9409
:104FF000BF29823011F08430D9F580910F028823C7
:1050000039F08091F40387FF03C060E282E002C0C0
:1050100068E081E08093E9008FEF9091E800815093
:1050200095FD06C095ED9A95F1F700008111F5CF39
:105030008091E80085FF1CC080910F02811105C09E
:1050400040E050E068E070E003C070E040E050E015
:10505000CE010E94DC298091E8008E778093E800E1
:1050600080E2FE01ACE8B3E001900D928A95E1F791
:10507000DF91CF9108958091F903811109C00E94B9
:105080006D2B0E94CA2B8091E20084608093E20025
:1050900008951092F9030895089508950C94F0234B
:1050A00042E061EC81E00E94E62A42E261EC82E0AB
:1050B0000C94E62A8091FC03833009F460C030F43C
:1050C000813071F0823009F499C008958A3009F472
:1050D00085C08B3009F46BC0893009F0A7C020C0AF
:1050E0008091FB03813A09F0A1C08091E800877F9D
:1050F0008093E8008091FF0390910004892B21F4B4
:1051000060E28CE893E003C060E080E090E070E053
:105110000E94272A8091E8008B778093E800089509
:105120008091FB03813209F081C08091FF0390914F
:105130000004029708F07AC08091E800877F80938E
:10514000E8008091E80082FD05C08091FA0381119A
:10515000F8CF6CC02091F3008091F20090E0922B88
:10516000029729F48091F1008B7F813021F48091A6
:10517000F1008093AC038091E8008B7753C080915D
:10518000FB03813A09F052C08091FF039091000423
:10519000892B09F04BC08091E800877F8093E8005D
:1051A0008091E80080FFFCCF80910F0236C0809193
:1051B000FB038132D9F58091FF0390910004892B84
:1051C000A9F58091E800877F8093E8000E941B2B5F
:1051D0008091FD0380930F020C94D61A8091FB03FB
:1051E000813221F58091E800877F8093E8000E945A
:1051F0001B2B8091FE038093AD0308958091FB03E8
:10520000813AA1F48091E800877F8093E800809143
:10521000E80080FFFCCF8091AD038093F100809186
:10522000E8008E778093E8000C941B2B089584B7D8
:10523000877F84BF0FB6F894A8958091600088613D
:1052400080936000109260000FBE90E080E80FB67F
:10525000F89480936100909361000FBE0E94DA156C
:105260000E946D2B0E94CA2B8091E2008460809383
:10527000E20078940E945F2E0E94E01585E092E0A3
:105280000E9465158091FA03853069F40E94BE235F
:105290008091F8038823B1F30E94A623882391F319
:1052A0000E94C629EFCF0E94F515ECCF0C94582927
:1052B000292F332723303105C9F060F4213031051F
:1052C00081F02230310509F04AC08BE390E028E5F7
:1052D00036E049C02132310511F12232310579F130
:1052E0003EC082E190E023E936E03DC0992781305D
:1052F000910561F040F08230910559F0039779F5FE
:10530000ECE0F6E008C0E4E5F6E005C0E8E3F6E02E
:1053100002C0E2E1F6E0849190E09F0124C06115B3
:10532000710541F061307105D1F489E090E023E826
:1053300036E019C089E090E02AE636E014C0611535
:10534000710541F06130710551F48CEB90E025EA74
:1053500036E009C080E490E021E637E004C080E058
:1053600090E020E030E0FA013183208308958091BD
:10537000FA03843011F081E0089582E0089580916D
:10538000AE03811102C00C94B729089580E189BD54
:1053900082E189BD09B400FEFDCF8091D8008F7DE8
:1053A0008093D8008091E00082608093E00080913B
:1053B000E00081FDFCCF0895CF92DF92EF92FF9243
:1053C0000F931F93CF93DF93EC018B017A010E941F
:1053D0003A2B811133C0E114F10439F0F7018081D7
:1053E0009181081B190BC80FD91FC12CD12C011595
:1053F000110519F18091E80085FD16C08091E80043
:105400008E778093E800E114F10449F0F701808180
:105410009181C80ED91ED182C08285E00FC00E9442
:105420003A2B882321F30AC089918093F10001501F
:105430001109FFEFCF1ADF0ADACF80E0DF91CF91B9
:105440001F910F91FF90EF90DF90CF9008952091E2
:105450000104309102042617370748F061157105E1
:1054600039F42091E8002E772093E80001C0B901BB
:10547000FC0120E06115710579F18091FA03882320
:10548000F1F18530F1F18091E80083FD3CC080911D
:10549000E80082FD2EC08091E80080FFEBCF2091D4
:1054A000F3008091F20090E0922B6115710551F0AC
:1054B0008830910538F421912093F10061507109F1
:1054C0000196F3CF21E0089709F020E08091E800F1
:1054D0008E778093E800CECF2111CFCF0AC0809184
:1054E000FA03882361F0853061F08091E80083FD44
:1054F0000AC08091E80082FFF2CF80E0089582E048
:10550000089583E0089581E0089520910104309189
:1055100002042617370748F06115710539F4209108
:10552000E8002E772093E80001C0B901FC0120E0DB
:105530006115710591F18091FA03882309F440C047
:10554000853009F43FC08091E80083FD3DC0809123
:10555000E80082FD2FC08091E80080FFE9CF209114
:10556000F3008091F20090E0922B6115710559F0E3
:105570008830910540F424912093F10031966150D8
:1055800071090196F2CF21E0089709F020E080919F
:10559000E8008E778093E800CBCF2111CCCF0AC0F2
:1055A0008091FA03882361F0853061F08091E800F2
:1055B00083FD0AC08091E80082FFF2CF80E0089569
:1055C00082E0089583E0089581E00895982F973050
:1055D00068F59093E900981739F07091EC002091EC
:1055E000ED005091F00003C0242F762F50E021FDF4
:1055F00002C09F5FECCF3091EB003E7F3093EB0019
:105600003091ED003D7F3093ED003091EB00316043
:105610003093EB007093EC002093ED005093F0007A
:105620002091EE0027FDE5CF80E008958F708093F4
:10563000E90081E008958091FB0387FF11C080910C
:10564000E80082FD05C08091FA038111F8CF11C0F6
:105650008091E8008B770BC08091FA03882349F092
:105660008091E80080FFF8CF8091E8008E778093EA
:10567000E80008952091E4003091E50095E640911E
:10568000EC00842F817040FF23C08091E80080FDF2
:105690001DC08091FA03882399F0853099F080919C
:1056A000EB0085FD11C04091E4005091E500241706
:1056B000350729F3915011F09A01E1CF84E0089564
:1056C00082E0089583E0089581E0089580E00895E0
:1056D0004091E80042FFDDCF08950E94DB2B0E943D
:1056E000E32BE0EEF0E0808181608083E8EDF0E084
:1056F00080818F77808319BCA7EDB0E08C918E7F7D
:105700008C9380818F7E80831092F90308950F938C
:105710001F93CF93DF930E94DB2B0E94E32BC8EDF6
:10572000D0E088818F7788838881806888838881AA
:105730008F7D888319BC1092FA031092F6031092A1
:10574000F8031092F70300EE10E0F80180818B7FE0
:10575000808388818160888342E060E080E00E94ED
:10576000E62AE1EEF0E080818E7F8083E2EEF0E0D9
:10577000808181608083808188608083F80180815E
:105780008E7F8083888180618883DF91CF911F9194
:105790000F910895E8EDF0E080818F7E8083E7ED42
:1057A000F0E080818160808384E082BF81E080932B
:1057B000F9030C94872BE8EDF0E080818E7F8083E5
:1057C0001092E20008951092DA001092E10008951C
:1057D0001F920F920FB60F9211242F933F934F9366
:1057E0005F936F937F938F939F93AF93BF93EF9349
:1057F000FF938091E10082FF0BC08091E20082FF65
:1058000007C08091E1008B7F8093E1000E945E2EB3
:105810008091DA0080FF1FC08091D80080FF1BC0FC
:105820008091DA008E7F8093DA008091D90080FF2A
:105830000DC080E189BD82E189BD09B400FEFDCFC4
:1058400081E08093FA030E943B2805C019BC1092A6
:10585000FA030E9449288091E10080FF19C08091DD
:10586000E20080FF15C08091E2008E7F8093E2000D
:105870008091E20080618093E2008091D800806294
:105880008093D80019BC85E08093FA030E944D28CC
:105890008091E10084FF30C08091E20084FF2CC041
:1058A00080E189BD82E189BD09B400FEFDCF809110
:1058B000D8008F7D8093D8008091E1008F7E809307
:1058C000E1008091E2008F7E8093E2008091E2000F
:1058D00081608093E2008091F603882311F084E0D8
:1058E00007C08091E30087FD02C081E001C083E032
:1058F0008093FA030E944E288091E10083FF29C023
:105900008091E20083FF25C08091E100877F809332
:10591000E10082E08093FA031092F6038091E100A7
:105920008E7F8093E1008091E2008E7F8093E20081
:105930008091E20080618093E20042E060E080E0DC
:105940000E94E62A8091F00088608093F0000E9417
:105950004C28FF91EF91BF91AF919F918F917F91D3
:105960006F915F914F913F912F910F900FBE0F90CC
:105970001F9018951F920F920FB60F9211242F931C
:105980003F934F935F936F937F938F939F93AF93C7
:10599000BF93CF93DF93EF93FF93C091E900CF7054
:1059A0008091EC00D82FD17080FDD0E81092E900F2
:1059B0008091F000877F8093F00078940E94FE2C05
:1059C0001092E9008091F00088608093F000CD2B68
:1059D000CF70C093E900FF91EF91DF91CF91BF911C
:1059E000AF919F918F917F916F915F914F913F9177
:1059F0002F910F900FBE0F901F9018951F93CF936C
:105A0000DF93CDB7DEB7AA970FB6F894DEBF0FBE0F
:105A1000CDBFEBEFF3E08091F100819324E0E33020
:105A2000F207C9F70E945A288091E80083FF2EC12F
:105A30008091FB039091FC03492F50E04A305105BF
:105A400008F024C1FA01E857FF4F0C94A22E8038C9
:105A500021F0823809F01AC108C08091F7039091B3
:105A6000F803992389F082600FC08091FF038F7043
:105A7000873008F00BC18093E9008091EB0085FB33
:105A8000882780F91092E9009091E800977F909321
:105A9000E8008093F1001092F100D1C0282F2D7FF3
:105AA00009F0F4C0882319F0823061F0EFC08091D2
:105AB000FD03813009F0EAC0933009F080E0809363
:105AC000F8032EC08091FD0381112AC08091FF034D
:105AD0008F702FEF280F263008F0D8C08093E90090
