:100000000C94B7020C940D0E0C94FE020C94FE029C
:100010000C94FE020C94FE020C94FE020C94FE0260
:100020000C94FE020C94FE020C942A250C94FC25E0
:100030000C943A1D0C94FE020C94FE020C94FE02E9
:100040000C94FE020C94FE020C94FE020C94FE0230
:100050000C94FE020C94A21D0C94FE020C94FE0261
:100060000C94FE020C94FE020C94FE020C94FE0210
:100070000C94FE020C94FE020C94FE020C94FE0200
:100080000C94FE020C94FE020C94FE020C94FE02F0
:100090000C94FE020C94FE020C94FE020C94FE02E0
:1000A0000C94FE020C94FE020C94FE027611761162
:1000B000A811A81101121F12941394136112F612C1
:1000C000071307138413941394138D132A142A14FB
:1000D0003C143C1433143C143C143C142A142A14CD
:1000E00038143C143C14381469269026882790262E
:1000F0008827DC26FF268827562765271A0009004F
:10010000000014001A0000002B0014001A0009005F
:1001100013000A00E0000461150016001700070034
:1001200002551D001B000600190005002845165C3D
:10013000E300656403542C00000000000000000090
:10014000000000000D000F0018001C0000572A00DE
:100150000B00110008000C00120034000E0010000B
:10016000360037003800045728452A445000510013
:1001700052004F00000000000000000000000000DE
:100180002B0014001A00080015001700E00004619D
:100190001600070009000A0002551D001B0006009A
:1001A000190005002845165CE300656403542C0023
:1001B0000000000000000000000000001C0018000B
:1001C0000C00120013002A000B000D000E000F009F
:1001D0000057340011001000360037003800045773
:1001E00028452A445000510052004F0000000000F2
:1001F00000000000000000000000000000000000FF
:1002000000000000000000000000000000000000EE
:1002100000000000000000000000000000000000DE
:1002200000000000000000000000000000000000CE
:1002300000000000000000000000000000000000BE
:1002400000000000000000000000000000000000AE
:10025000000000000000000000000000000000009E
:10026000000000000000000000000000000000008E
:1002700006574B004A0052004D0049002A004E002C
:10028000500051004F000100A800A900AA00AC00D6
:10029000AB002800460065000100AF000100AE0081
:1002A0000000000000000000000000002302240203
:1002B0002502015727024C001E021F0220022102C4
:1002C00022020657075705570100010001000100EF
:1002D0000100010002573000035730020000000007
:1002E0000000000000000000C25C3502065701005B
:1002F00001000100C35C310230002F002D022D00EF
:10030000C55C310030022F022E022E00C75C0100B6
:1003100001000100010001000000000000000000D9
:1003200000000000010042004300440045000100BD
:1003300001003E003F0040004100010046003A003D
:100340003B003C003D0001000100010001000100F4
:10035000010001000000000000000000000000009B
:10036000005C0100F700FB00FC00F900095D0100E2
:10037000F600F500F400FA00085D0100F8004604FC
:10038000160A460C000001000100010001000100F6
:100390000000000000000000000000002400250014
:1003A000260057005600B20021002200230055000D
:1003B000540001001E001F00200001000100010088
:1003C000010027006300010001000100000000009F
:1003D00000000000000000000403300000002403BF
:1003E0004C006500760069006E0073006F006E00BF
:1003F00020007600330020006200790020004E00CB
:10040000520000001A034D0041004E005500460006
:1004100041004300540055005200450052000000C6
:100420000403090409023B00020100A0FA090400C8
:100430000001030101000921110100012240000710
:1004400005810308000A09040100010300000009F6
:10045000211101000122BC000705820320000A12BD
:100460000110010000000810CB5611000301020327
:100470000105010902A10185020901A1000509196F
:100480000129051500250195057501810295017564
:100490000381010501093009311581257F95027518
:1004A00008810609381581257F95017508810605A3
:1004B0000C0A38021581257F950175088106C0C098
:1004C00005010980A101850319012AB7001501263C
:1004D000B700950175108100C0050C0901A10185C7
:1004E0000419012AA002150126A0029501751081A8
:1004F00000C005010906A1018505050719E029E7E6
:10050000150025019508750181020507190029EFDD
:100510001500250195F075018102050819012905CD
:10052000950575019102950175039101C0050109B9
:1005300006A101050719E029E715002501950875B1
:100540000181029501750881010507190029FF1530
:100550000026FF0095067508810005081901290588
:10056000950575019102950175039101C000112453
:100570001FBECFEFDAE0DEBFCDBF04B603FE27C05B
:100580008091970390919803A0919903B0919A0359
:100590008730904BA740B04BD1F410929703109244
:1005A00098031092990310929A0314BE84B7877F20
:1005B00084BF0FB6F894A8958091600088618093FD
:1005C0006000109260000FBEE0E0F8E3099512E0D1
:1005D000A0E0B1E0ECE5F0E502C005900D92AC368C
:1005E000B107D9F723E0ACE6B2E001C01D92A7390C
:1005F000B207E1F70E9459220C942C280C940000B9
:10060000882319F0813031F00895662349F089E29A
:1006100090E004C0662321F08BE290E00C949203FA
:100620000895CF93DF93EC010E948C1BBE0180E004
:1006300090E0DF91CF910C945F1888302DE5920700
:1006400051F089309D4589F4FB018281882371F046
:1006500082E090E006C0FB018281882339F081E0CE
:1006600090E00E94110380E0089581E008950C94C9
:1006700073069C013A9521153F4138F5DC01AA2704
:10068000B270AC01442754709C012227387094FF4B
:100690000FC090FF02C080E101C080E0AB2B09F0E9
:1006A0008062452B09F08064232B69F080680BC0C1
:1006B000892F8170AB2B09F08260452B09F0846093
:1006C000232B09F08860FB0109940895CF93DF93F1
:1006D000EC01805E9109089710F0209719F466E309
:1006E00071E102C060EF73E1CE010E9439038C2FEB
:1006F000DF91CF910C941110CF93DF93EC010E9406
:10070000BB10CE01805E9109089710F0209719F474
:100710006DE371E102C067EF73E1CE01DF91CF912C
:100720000C943903CF93DF93EC010E946603CE0152
:10073000DF91CF910C947C0381E008950C941D030C
:100740001F93CF93DF9300D000D01F92CDB7DEB7B9
:1007500049835A836B832091A60289819A81211152
:1007600012C0662349F00E94B619182F682F89819C
:100770009A810E945D1903C00E948919182F69810E
:100780007A81812F04C00E94B61969817A810F9005
:100790000F900F900F900F90DF91CF911F910C94BD
:1007A0005904FC01408151816281738184810C94E0
:1007B000A0030E94EE1D0E94791B811102C00E94BD
:1007C0001E1C0C9437030E94FA0A0E945E080C94C7
:1007D000710608950C94E90381E008950C94EC03EC
:1007E000CF93C82F0E94EA038C2F0E94EE03CF9173
:1007F000089508950E9418140E94F9032FEF84E3CE
:100800009CE0215080409040E1F700C000000C9433
:10081000C81D0F931F93CF93DF93EC010E94D10368
:100820008C01BE010E94570ABE01C8010E949E03AE
:100830008823A9F1BE01C8010E949E0A882379F18C
:10084000BE01C8010E948A08882349F1BE01C8017F
:100850000E94C10B882319F1BE01C8010E94020C3D
:100860008823E9F0BE01C8010E942D0D8823B9F04C
:100870008A81882369F001158CE5180731F00E3D57
:100880001C4531F40E941E1C0AC00E94FA0307C0D6
:10089000CE01DF91CF911F910F910C949C0380E0CA
:1008A000DF91CF911F910F91089580E090E008951E
:1008B00008952CE3829FC0011124FC0126E0729F61
:1008C000E00DF11D1124E60FF11DEE0FFF1FE85F93
:1008D000FE4F859194910895880F991FFC01E8526D
:1008E000FC4F859194910895CF93DF930E94590412
:1008F0000E948C05EC018115904508F041C0C1159E
:1009000080E4D80708F0D1C0C83ED10510F5C03E3C
:10091000D10508F0FDC0C83AD10578F4C53AD10533
:1009200008F0A2C0C130D10509F4F2C008F4EEC04D
:10093000C430D10508F0ECC0E9C0CF3BD10508F4C4
:100940009BC0C03CD10508F4E1C0CE01805C910998
:100950009EC0C11590E2D90758F4C11521E0D20715
:1009600008F0D6C0C03FD10508F4D0C0D065D0C0D3
:10097000C11580E3D80708F08EC0CE019F7087C0F4
:10098000C11595E5D90708F043C0C11524E5D20784
:1009900008F0A2C0C11582E5D80708F5C11591E598
:1009A000D90708F085C0CE0174E0969587957A95B1
:1009B000E1F783709C2F937021E030E002C0220F9A
:1009C000331F9A95E2F73C68382BCF70C695C695D1
:1009D00080E2C89FE0011124C22BD32B99C09E0155
:1009E000237033278C2F86958695C115D34508F043
:1009F00064C0C1E0D0E002C0CC0FDD1F2A95E2F751
:100A000020E2829FC0011124C82BD92BDC6880C052
:100A1000C11529E5D207A0F4C11588E5D80708F06B
:100A200060C0C11596E5D90708F070C08C2F0E94F0
:100A300020068F71C82FD0E0DC2FCC27D06268C091
:100A4000C1152AE5D20708F451C0CE019056811590
:100A5000904208F05BC08D2F8F710E942006DD2729
:100A6000D0628F71D82B54C0C55AD0E0C85DDD4F1D
:100A7000C881D0E0D0644CC0C85AD0E0CC0FDD1F94
:100A8000C650DE4F0990D881C02DD46441C00E9469
:100A90006C04EC013DC0CE019927D3FF03C0EC01EB
:100AA000D86C36C0EC01D06C33C0DF70D06A30C077
:100AB000DC2FCC27C16FD06A2BC0C1E0D0E002C0D0
:100AC000CC0FDD1F2A95E2F720E2829FC00111249E
:100AD000C82BD92BDA681CC0DC2FCC27C46FD06A96
:100AE00017C0DC2FCC27C06FD06A12C08C2F8F703C
:100AF0000E94200694E0D695C7959A95E1F7CF70AD
:100B0000D0E0DC2FCC27D069C82B02C0C0E0D0E0F9
:100B1000CE01DF91CF9108958238910569F1B0F44B
:100B20008133910509F46DC048F48932910509F4C7
:100B300063C08A32910509F469C00895853391052F
:100B400009F455C089339105B9F00895833E9105A4
:100B500069F138F4803E9105B1F0823E910509F1CA
:100B60000895863E9105A9F1873E9105B9F1843E2D
:100B7000910509F064C023C02091880320FD4FC077
:100B800021FD4DC008958091880380FD44C080916F
:100B9000890380FF44C08091880384FD42C083EEB6
:100BA0004DC08091880382FF38C0F5CF80918803C3
:100BB00082FD33C08091890380FD31C0ECCF8091EC
:100BC000890381FF32C08091880384FD2AC087EEAB
:100BD00035C08091880383FF26C0F5CF80918803BC
:100BE00083FD21C08091890381FD1FC0ECCF8091DE
:100BF000880385FD1CC01DC08091880385FD19C038
:100C000016C08091880386FD16C017C080918803A6
:100C100086FD13C010C089E311C082EE0FC080EEC4
:100C20000DC080E00BC086EE09C084EE07C089E2EB
:100C300005C085E303C08AE201C081E390E0089526
:100C40009091880392FF0DC0282F2871283019F445
:100C5000877F846006C0282F2471243011F48B7F95
:100C6000886093FF0DC0282F2871283119F4877EE2
:100C7000846106C0282F2471243111F48B7E886191
:100C80002091890320FF0DC0382F3871383019F4B6
:100C9000877F816006C0382F3171313011F48E7F2B
:100CA000886021FF0DC0282F2871283119F4877E14
:100CB000816106C0282F2171213111F48E7E886157
:100CC00094FD877E0895E82FF0E0EA58FC4F80817C
:100CD0000895089580EA8A95F1F7089508950C948F
:100CE0006E060C946F060C946E060895CF93DF93F6
:100CF0000E94F7078091DA018091DA01811102C028
:100D000095E001C090E09093810385E0891B80937A
:100D10008003A1E3B2E046E352E061E070E08D9130
:100D2000E82FE295EF70F0E021A18F70EB0102C097
:100D3000CC0FDD1F8A95E2F7CE019C2F9095922370
:100D400091A392A1892B82A34A175B0741F7ABE2DB
:100D5000B2E041E352E061E070E08D91E82FE2956E
:100D6000EF70F0E021A18F70EB0102C0CC0FDD1F0E
:100D70008A95E2F7CE019C2F9095922391A392A1A0
:100D8000892B82A34A175B0741F7ECE6F3E0A6E75D
:100D9000B3E086E793E011921D928E179F07D9F773
:100DA00085E00E949C070E94D903DF91CF910C94AB
:100DB00001080E94DA07882309F18091800390E0FE
:100DC0008A589C4F0E941408811114C080916C02B3
:100DD0008F5F80936C02863078F0E0918003F0E0C2
:100DE000EA58FC4F80E090E0119201968530910521
:100DF000D9F702C010926C020C94E3038091810336
:100E000090E08A589C4F0E942F080C9475063F92E0
:100E10004F925F926F927F928F929F92AF92BF920A
:100E2000CF92DF92EF92FF920F931F93CF93DF93B6
:100E300081E3882E82E0982E0CE613E091E7692E7C
:100E400093E0792E512CCC24C394D12C5801D80195
:100E50003C901C92F40181914F01C82FC295CF7034
:100E6000D0E099A18F70760101C0EE0C8A95EAF767
:100E7000892F8E2989A38AA14E2C409484218AA38C
:100E80000E946A06EBE2F2E020E030E09191A92FA7
:100E9000A295AF70B0E090964C91D8016C9150E063
:100EA0009F7002C0559547959A95E2F740FD08C09E
:100EB0009C2D022E01C0990F0A94EAF7892F01C0D8
:100EC00080E0862BD8018C932F5F3F4F2630310571
:100ED000E9F689A1482249A28AA1E82AEAA20F5F7D
:100EE0001F4F81E0F5019081931101C080E0582AE5
:100EF0006016710609F0AACF6091810370E06A580C
:100F00007C4F252D45E08CE693E00E949D070E94D2
:100F1000D906852DDF91CF911F910F91FF90EF9012
:100F2000DF90CF90BF90AF909F908F907F906F9009
:100F30005F904F903F9008950895FF920F931F93F5
:100F4000CF93DF938C01F62ED72FC42F222349F0A5
:100F500081E080936F020E946C1D90936E028093DB
:100F60006D0280916F028823C1F080916D02909193
:100F70006E020E94781D069780F0EF2DFD2FD8019C
:100F80004C2F50E0CD01801B910B841795071CF46A
:100F90008D918193F7CF10926F02DF91CF911F91C6
:100FA0000F91FF90089555985D9889B185FB88272A
:100FB00080F9089580917002811112C08091D8004B
:100FC00080618093D8008AE18A95F1F700C0809112
:100FD000D90080FD02C082E001C081E080937002F0
:100FE00081E090917002913009F080E008950E94B4
:100FF000D3078093DA010E94DA0781110C94080864
:1010000008950E94DA07811102C00C940E08089519
:1010100061E070E08BED91E00C94BF0D61E070E059
:101020008BED91E00C94C60DCF93DF93D82FC92F91
:101030000E945E0E892B79F4ED2FFC2F80E090E06A
:10104000DC01AE58BD4F2C9121930196853091055E
:10105000B9F781E001C080E0DF91CF91089520E0F1
:1010600030E0FC014191CF01F901EE58FD4F408382
:101070002F5F3F4F25303105A1F70895CF93909111
:1010800087029923C9F0882311F0C0E003C01092B1
:10109000870212C080918702C817C8F7EC2FF0E0D2
:1010A000EE0FFF1FE958FD4F808191810E9466037A
:1010B0000E94E81ACF5FEECFCF9108958091E301AF
:1010C000882399F080918802882379F080918B029F
:1010D00090918C02009749F00E94781D4A9728F061
:1010E0001092880281E00C943E08089510928802C4
:1010F0001092E30110928C0210928B0281E00C940A
:101100003E088091E30181110C94760881E0809380
:10111000E30108955F926F927F928F929F92AF92B8
:10112000BF92CF92DF92EF92FF920F931F93CF93D4
:10113000DF938C017B0110928902873F2CE5920797
:1011400041F4FB01C281CC23C9F081E08093E3012B
:101150000AC1883FFCE59F0739F4FB01C281CC231B
:1011600069F00E947608FFC0893F9C4539F4FB0175
:10117000C281CC2319F00E948108F5C08091E3015F
:10118000882309F4EFC010928A02AA24A394B12CF8
:1011900095E0992EC1E0D0E08824839480918A0262
:1011A000823008F0A1C0C82ED12C9C9CF0019D9CDF
:1011B000F00D1124E053FE4F4081518177247A9441
:1011C00090E0FA01E90FF11DE90FF11D259134912D
:1011D0000217130709F4792E232B11F09F5FF1CF2B
:1011E000FFEF7F1202C0612C66C050908802F701A9
:1011F0006280662069F19C9CF0019D9CF00D112499
:10120000E053FE4F9E0101C0220F7A94EAF7348129
:10121000232B2483552039F3AE0102C0440F551F00
:101220009A95E2F74150510930E04217530709F00F
:1012300042C0228133812115310521F0C9010E946C
:10124000660303C061E00E9400038092890233C0FC
:101250009E0102C0220F331F9A95E2F721503109F7
:101260009C9CF0019D9CF00D1124E053FE4F4481A5
:1012700050E02417350769F42281338121153105A7
:1012800021F0C9010E947C0305C060E00E940003B8
:1012900001C0512C9C9CF0019D9CF00D1124E05349
:1012A000FE4FCE0101C0880F7A94EAF780959481B1
:1012B00089238483652CB628AA2069F09C9CF001C0
:1012C0009D9CF00D1124E053FE4F91E0848181112B
:1012D00090E0892F01C080E08170A82E80918A0261
:1012E0008F5F80938A025ACF80918902882351F0C0
:1012F0000E946C1D90938C0280938B0280E00E9470
:101300003E082CC0B1100DC081E00E943E08AA200A
:1013100029F110928C0210928B0281E08093880256
:101320001DC0F70182818823C9F08091880288233B
:10133000A9F00E946C1D90938C0280938B02E09127
:101340008702E83058F481E08E0F80938702F0E046
:10135000EE0FFF1FE958FD4F1183008381E0CB2D75
:10136000C82701C0C1E08C2FDF91CF911F910F9151
:10137000FF90EF90DF90CF90BF90AF909F908F90B5
:101380007F906F905F900895CF93DF93EC0181E0A1
:10139000898B8F810E948B1A88850E949E1A0E94D9
:1013A000E81AEA81FB81CE010696309729F06C8914
:1013B0007D89DF91CF910994DF91CF910895CF93EB
:1013C000DF93FC012081223041F4FB01EC0182819A
:1013D00093810E94660381E08B87DF91CF9108950E
:1013E000FC018081813021F4FB018081918105C065
:1013F000823029F4FB01828193810C946603089565
:10140000FC018081813021F4FB018081918105C044
:10141000823029F4FB01828193810C947C0308952E
:10142000EF92FF920F931F93CF93DF93FC012285DE
:10143000211136C0EC01E380F480F7E5FF1A26E1C4
:101440002E9DC0012F9D900D1124DC01A050BF4F97
:101450001496ED91FC9115978A5F9E4F309729F075
:1014600054966D917C915597099586E18E9D8001EA
:101470008F9D100D112400501F4FF80187810E948D
:10148000911AF80180850E94A41A0E94E81A188215
:1014900019861B861E821D8210928E0210928D026A
:1014A000DF91CF911F910F91FF90EF900895DF9200
:1014B000EF92FF920F931F93CF93DF93FB01228153
:1014C0002223A1F12091E4012F3F81F18C01C0E0A2
:1014D000D1E0E12CF12CDD24D3948091E401082E9D
:1014E000000C990B8E159F050CF18E818823C9F095
:1014F00089859A858017910739F480918D029091A2
:101500008E020817190769F0DF861C870B87898907
:10151000811103C0CE010E94C409CE0106960E942B
:10152000100AFFEFEF1AFF0A6696D7CFDF91CF912F
:101530001F910F91FF90EF90DF900895EF92FF922F
:101540000F931F93CF93DF939C0137552F3F3105A6
:1015500011F008F047C04091E401042E000C550B37
:101560004217530714F42093E401FB017C018281AC
:1015700096E1929F8001939F100D1124E801C050C5
:10158000DF4F888B92818E81992311F1FA86E9864B
:101590008F5F8E830E946C1D9E878D870E94BE1A6E
:1015A0008F830E94881A88870E949B1A9885892BAE
:1015B0008887E881F981C8018A5F9E4F309719F0CA
:1015C0006C897D890995F0928E02E0928D020AC0A5
:1015D000882341F08989882329F0C8018A5F9E4FBA
:1015E0000E94100A81E0DF91CF911F910F91FF902F
:1015F000EF900895CF92DF92EF92FF920F931F9397
:10160000CF93DF938091E4018F3FF1F1F12C96E1CC
:10161000E92E0F2D10E08091E401082E000C990BAB
:10162000801791078CF1E09EF001E19EF00D1124EE
:10163000E050FF4FC288D388C114D10419F488EC5C
:10164000C82ED12CE09EE001E19ED00D1124C050A7
:10165000DF4F8E818823B1F08D859E850E94781D95
:10166000C816D90678F48989811103C0CE010E9479
:10167000C409E09EC001E19E900D11248A5F9E4F37
:101680000E94100AF394C5CFDF91CF911F910F9163
:10169000FF90EF90DF90CF9008950F931F93CF931B
:1016A000DF93C62FD42F122FFC0182818823C9F02B
:1016B000609391020E946C1D9093900280938F0220
:1016C00080E28C0F883008F057C0C77081E001C0FD
:1016D000880FCA95EAF7DF91CF911F910F910C9473
:1016E000361180919102681330C080918F029091E1
:1016F00090020E94781D883C910538F500E20D0F9C
:10170000CD17B9F080E28C0F883040F4C77081E0CB
:1017100001C0880FCA95EAF70E943D11083028F5EC
:1017200081E09D2F977001C0880F9A95EAF70E947B
:101730003611812F0E9423110830F0F4D77081E018
:1017400001C0880FDA95EAF70AC080E28C0F883072
:1017500098F4C77081E001C0880FCA95EAF7DF915D
:10176000CF911F910F910C943D11812FDF91CF915B
:101770001F910F910C942311DF91CF911F910F9125
:1017800008959C01CB01233F4CE53407F9F078F430
:10179000283DFCE53F07B9F0293D4CE5340711F140
:1017A000273D3C4531F526E241EE61EE1EC0253F66
:1017B000FCE53F0799F070F0263F3C45D1F427E265
:1017C00045EE66EE12C027E245EE0EC026E241EE7F
:1017D00060EE0BC027E245EE64EE07C026E241EE64
:1017E00062EE03C028E241E065EE0E944D0B80E00E
:1017F0000895FC018281882319F0109291020895C6
:1018000081E00895CF93DF93EC01FB01828188236F
:1018100009F41FC1C230FCE5DF0708F41BC1C63163
:101820009CE5D90738F09E012A5F3C4529303105F7
:1018300008F010C10E94911B909389038093880344
:10184000C031ECE5DE0709F4C3C008F041C0C83080
:101850008CE5D80709F49AC0F0F4C430ECE5DE0753
:1018600009F487C068F4C2308CE5D80709F477C062
:10187000C330DC4509F0E3C080918803826076C004
:10188000C630ECE5DE0709F46EC008F07BC080913D
:10189000880388606BC0CC308CE5D80709F485C01C
:1018A00068F4CA30ECE5DE0709F474C008F079C0CA
:1018B0000E94181480918803806858C0CE308CE54F
:1018C000D80709F476C008F07FC0809188038BC0E8
:1018D000CB3FECE5DE0709F44FC018F5C3318CE5CA
:1018E000D80709F47DC078F4C131ECE5DE0709F4CE
:1018F00073C0C231DC4509F0A2C00E941814809167
:1019000088038F7733C0C5318CE5D80709F472C0DE
:1019100008F486C0CA3FDC4509F091C08091890374
:101920003EC0CF3FFCE5DF0709F45FC058F4CD3F70
:101930009CE5D90709F444C008F43FC080918903AD
:1019400082602DC0C130FDE5DF0709F475C008F4E1
:101950005DC0C230DD4509F072C080E06EC080918C
:101960008803816003C0809188038061809388032D
:1019700066C08091880311C0809189038260809342
:1019800089035DC0809188038062F0CF80918803D5
:101990008064ECCF8091880388608460E7CF8160A9
:1019A000EECF809188038E7FE1CF809188038D7F79
:1019B000DDCF80918803877FD9CF8091890318C0BC
:1019C000809189038D7FDBCF809188038F7ECECF7E
:1019D000809188038F7DCACF809188038F7BC6CF8B
:1019E00080918803877F8B7FC1CF809189038D7F12
:1019F0008E7FC5CF8091880382FB222720F991E05A
:101A0000922790FB82F990FB83F9B0CF80918903F4
:101A1000982F909591708E7F892B90FB81F9AFCF95
:101A20000E9418148091880387FB222720F991E0F7
:101A3000922790FB87F99ACF81E00E94201C809129
:101A40008803909189030E94A21B0E94181480E0D1
:101A500001C081E0DF91CF910895CF93DF9386316C
:101A60009C4571F5EB010E94881A982F917119F429
:101A7000982F9A7A01C090E08A812091E5013091F7
:101A8000E601882379F081E0911101C080E0809324
:101A90009202911102C069E201C065E3C9010E948E
:101AA000BB1C0AC080919202811102C069E201C090
:101AB00065E3C9010E94C61C0E94E81A80E001C0CB
:101AC00081E0DF91CF9108958EE1489B02C0815063
:101AD000E1F7489BFECF0895589880E28A95F1F788
:101AE000589A0895FC012AE02A95F1F728E090E041
:101AF00080E031E040E14A95F1F7880F489B02C051
:101B00008160932700C0000040E14A95F1F7215021
:101B100089F720E12A95F1F729B100C0000030E1F2
:101B20003A95F1F7217092272081920F90830895C2
:101B3000EF92FF920F931F93CF93DF931F92CDB736
:101B4000DEB719828C017C01E60EF11C0E151F0513
:101B500051F00E94640DCE0101960E94720DF801B1
:101B600081938F01F3CF81E09981911180E00F90F3
:101B7000DF91CF911F910F91FF90EF900895909377
:101B8000940280939302509A589A089590939402E5
:101B9000809393025098589AE89AE9E6F0E08081A1
:101BA0008C7F80830895615091E001C0990F6A9500
:101BB000EAF720E031E0992361F0492F482319F03A
:101BC000589A232701C0589840E24A95F1F7969514
:101BD000F2CF222311F0589A01C0589880E28A95DA
:101BE000F1F758980895FF920F931F93CF93DF93C7
:101BF000EC018C01060F111DC017D10741F0F990BF
:101C00000E946C0D68E08F2D0E94D30DF5CFDF91FF
:101C1000CF911F910F91FF9008951F920F920FB6D1
:101C20000F9211242F933F934F935F936F937F9362
:101C30008F939F93AF93BF93CF93DF93EF93FF93D4
:101C40005898509AC0919302D09194026D81662366
:101C500021F08E819F810E94F30D0E946C0D80E126
:101C60008A95F1F758985098589A80E18A95F1F73B
:101C70006A81662351F08B819C810E94980DE881D6
:101C8000F981811104C082E003C0E881F98188E014
:101C900080830E94640DFF91EF91DF91CF91BF91FE
:101CA000AF919F918F917F916F915F914F913F91F4
:101CB0002F910F900FBE0F901F901895CF93DF9329
:101CC000C0919302D0919402F894509A589885E06C
:101CD0008A95F1F700005098589A80E28A95F1F7BA
:101CE000489B0AC0509A589AE881F98181E0808324
:101CF000789481E090E02CC06D81662381F08E8124
:101D00009F810E94980D81110AC0509A589AE881CB
:101D1000F98182E08083789482E090E019C00E948B
:101D2000640D80E28A95F1F75898509A80E18A957F
:101D3000F1F76A81662321F08B819C810E94F30D6B
:101D40000E946C0DE881F9811082789480E090E027
:101D5000DF91CF91089590939A028093990208950C
:101D6000E0919902F0919A02309721F00190F08170
:101D7000E02D099480E00895E0919902F0919A0293
:101D8000309799F02091F901222359F0209188038E
:101D900027FF07C0DC012C9111962C93119725E0A9
:101DA0002C930280F381E02D09940895E09199022B
:101DB000F0919A02309739F022E0DC012C930480F4
:101DC000F581E02D099408952091970230919802B1
:101DD0002817390771F09093980280939702E09149
:101DE0009902F0919A02309721F00680F781E02D58
:101DF0000994089520919502309196022817390789
:101E000071F09093960280939502E0919902F0917F
:101E10009A02309721F00084F185E02D099408950D
:101E200085B7806885BF85B7806885BF08950895A8
:101E30000C94170F0C94180F0C94170F0C94170F89
:101E40000E94100F0E941C0F0C941A0F0E94631D19
:101E50000E9476060E94021EE8E8F3E08081806816
:101E6000808380918803909189030E94A21B0C9427
:101E70001E0FAF92BF92CF92DF92EF92FF920F931D
:101E80001F93CF93DF93CDB7DEB72A970FB6F894A1
:101E9000DEBF0FBECDBF0E9407070E94DA07811187
:101EA00011C08FEF89838A831B820E946C1D816021
:101EB000782F9D838C8349815A816B818D810E940B
:101EC000D10F40C08CE9A82E82E0B82E00E010E0CF
:101ED000C02E802F0E946306E82EF501D1905F018D
:101EE000D82631F40F5F1F4F0A30110589F7D9CF7B
:101EF0008091390381FD0E94690680E0FF24F394FC
:101F00009D2D9F21D1F08E83CF82EF2081E009F4B7
:101F100080E088870E946C1D8160782F9A8789876E
:101F20004E815F8168858A850E94D10FF801E45651
:101F3000FD4F8081F826F08205C08F5FFF0C863050
:101F4000F9F6D0CF0E94941F0E94B00E90919B0290
:101F50008917B1F00E94B00E80939B022A960FB6AB
:101F6000F894DEBF0FBECDBFDF91CF911F910F91CF
:101F7000FF90EF90DF90CF90BF90AF900C94F00364
:101F80002A960FB6F894DEBF0FBECDBFDF91CF917A
:101F90001F910F91FF90EF90DF90CF90BF90AF9087
:101FA0000895CF93DF93CDB7DEB72B970FB6F89494
:101FB000DEBF0FBECDBF4F83588769877A878B8777
:101FC000DE01119686E0FD0111928A95E9F785E020
:101FD000FE01379601900D928A95E1F70E94561AFC
:101FE000882319F082E00E945A1B0E94291A81114D
:101FF0000E94DA1A49815A816B817C818D819E8190
:102000000E9422172B960FB6F894DEBF0FBECDBFED
:10201000DF91CF910895FC01808191810E94F81990
:102020000895CF93882309F4A4C0C82F8238C1F43F
:102030000E94B00E81FD9DC069E38091E501909101
:10204000E6010E94BB1C0E94E81A2FEF81EE94E08B
:10205000215080409040E1F700C0000069E319C0C2
:10206000833801F50E94B00E80FD83C063E5809146
:10207000E5019091E6010E94BB1C0E94E81A2FEF37
:1020800081EE94E0215080409040E1F700C00000D4
:1020900063E58091E5019091E6010E94C61CCF9115
:1020A0000C94E81A8438C1F40E94B00E82FD61C01D
:1020B00067E48091E5019091E6010E94BB1C0E94BB
:1020C000E81A2FEF81EE94E0215080409040E1F734
:1020D00000C0000067E4DDCF8CEF8C0F813AD0F4B4
:1020E0006C2F8091E5019091E6010E943B1C8823B2
:1020F00049F06C2F8091E5019091E6010E94C61C89
:102100000E94E81A6C2F8091E5019091E6010E94EF
:10211000BB1CC5CF80E28C0F883048F4C77081E0CB
:1021200001C0880FCA95EAF70E948B1AB8CFEBE579
:10213000EC0FE33040F4F0E0E759FD4F808190E090
:10214000CF910C94E40EE8E5EC0FE73150F4F0E0A9
:10215000EE0FFF1FE55CFD4F80819181CF910C94C4
:10216000FA0EC03F30F08C2F0E949C1ECF910C9431
:10217000891FCF910895882309F464C0823879F4C7
:102180000E94B00E81FF5EC069E38091E5019091ED
:10219000E6010E94BB1C0E94E81A69E310C0833864
:1021A000B1F40E94B00E80FF4DC063E58091E5015F
:1021B0009091E6010E94BB1C0E94E81A63E58091A1
:1021C000E5019091E6010E94C61C0C94E81A84383F
:1021D00079F40E94B00E82FF35C067E48091E5017A
:1021E0009091E6010E94BB1C0E94E81A67E4E7CFC9
:1021F0009CEF980F913A10F4682FE1CF90E2980F7E
:10220000983050F4877091E001C0990F8A95EAF7F1
:10221000892F0E94911AD9CF9BE5980F933020F413
:1022200080E090E00C94E40E98E5980F973120F44C
:1022300080E090E00C94FA0E803F20F00E94041F92
:102240000C94891F0895CF93C82F0E941110C93391
:1022500049F42FEF87EE93E0215080409040E1F762
:1022600000C000008C2FCF910C94BB10882321F06C
:102270000E948B1A0C94E81A0895882321F00E947A
:10228000911A0C94E81A0895CF92DF92EF92FF9280
:102290000F931F93CF93DF937C01062FC72FFC0171
:1022A000D581D295DF70128111110E94AB1A0E9464
:1022B000811A882379F0112369F080E2800F883039
:1022C00048F082E00E945A1B0E94811A91E0D82EA9
:1022D000D92601C0D12CCC2EC2948FE0C8228C2DDF
:1022E00090E0FC01EA5AFF4F0C94D0278C2F807F9E
:1022F000CF70882311F0C295C07F112399F0CC23B1
:1023000009F4ECC180E2800F883010F0011104C0A4
:102310008C2F0E948B1A03C08C2F0E949E1A0E9441
:10232000E81ADCC1802F0E94BB10CC2309F4FCC149
:1023300080E2800F883010F0011104C08C2F0E94C1
:10234000911A03C08C2F0E94A41A0E94E81AECC1B3
:102350008C2F807FCF70803211F0C295C07F002318
:1023600019F0013059F134C01123B1F0DD2381F0AF
:10237000D13031F40E94BE1A8C2B0E94C61AD4C1EF
:10238000D33031F40E94DA1A8C2F0E94261B24C00D
:102390000E94BE1A8C2B21C0DD2369F0D13041F49C
:1023A0000E94881A8C2309F4BFC10E942F1B03C00E
:1023B000D33009F4B9C10E94DA1A1FC0112321F0E9
:1023C000D43008F0B1C108C0D33008F0ADC115C099
:1023D000112331F0D11182C18C2F0E943611A4C17A
:1023E000DD2359F0093309F08BC1FFEF27EE83E0BD
:1023F000F15020408040E1F781C18C2F0E943D11B7
:1024000093C18C2F86958695837019F0813061F089
:102410008BC1112321F0802F9C2F937002C080E08C
:1024200090E00E94E40E88C1112321F0802F9C2FA0
:10243000937002C080E090E00E94FA0E7DC11123EB
:10244000F9F0053F51F0063F71F0043FA9F4809187
:1024500082039091830381600BC0809182039091ED
:102460008303826005C0809182039091830384601E
:102470009093830380938203802F0E949C1E1EC032
:10248000053F51F0063F71F0043FA9F480918203AB
:10249000909183038E7F0BC0809182039091830380
:1024A0008D7F05C080918203909183038B7F9093F1
:1024B000830380938203802F0E94041F0E94891F40
:1024C0003BC18C2F837009F045C0111131C1402FE1
:1024D000429546954770440F440F602F6F70862FCA
:1024E00090E0A0E0B0E0042E04C0880F991FAA1F5E
:1024F000BB1F0A94D2F704FF10C00FE010E020E0E9
:1025000030E004C0000F111F221F331F4A95D2F77D
:10251000009510952095309503C000E010E09801DB
:10252000C695C695C370BC01CD01602B712B822B63
:10253000932BC23049F058F4C13019F00E9473183F
:10254000F7C00E946118F4C00E948518F1C00E9473
:102550005F18EEC0112319F08C2F817001C0869591
:10256000882309F4E5C0402F429546954770440FF3
:10257000440F602F6F70862F90E0A0E0B0E0042E33
:1025800004C0880F991FAA1FBB1F0A94D2F704FF2B
:1025900010C00FE010E020E030E004C0000F111F79
:1025A000221F331F4A95D2F700951095209530953C
:1025B00003C000E010E09801C695C695C370BC0149
:1025C000CD01602B712B822B932BC23049F058F434
:1025D000C13019F00E943819ABC00E942619A8C05A
:1025E0000E944A19A5C00E949918A2C0CF70112359
:1025F00039F08C2F0E94BF18802F0E94361198C08E
:10260000802F0E943D118C2F0E94E01891C0023F44
:1026100001F128F4003F41F0013FA1F05AC0033F0F
:10262000F9F0043F39F155C0112341F0D33008F0DF
:102630007BC08C2F8F710E94051976C0D43008F0B2
:1026400073C0F7CF112339F08C2F8F710E94BF1800
:102650006BC01123C9F38C2F8F710E94E01864C0E6
:10266000112329F08C2F8F710E94AA185DC00E943F
:10267000A5185AC01123C9F00E94261A0E94911A67
:102680000E94521A843039F40E94511B8C2F8F7192
:102690000E94E0186CC0D33008F069C0CF718C2F55
:1026A0000E94BF1863E08C2F0DC00E94261A0E9462
:1026B0008B1AD33050F00E94511B0E942F1B64E0F4
:1026C0008C2F8F710E943B1B52C081E00E945A1BCD
:1026D0004EC0112339F0DD2309F4B6CF802F0E94BC
:1026E000111022C0DD2309F4B6CF093349F49FEF5E
:1026F000E7EEF3E09150E040F040E1F700C0000069
:10270000802F0E94BB1010C04C2F4F70602FC7014C
:102710000E9455040E94D0170FC04C2F4F70602F9D
:10272000C7010E94580408C088EF8C0D843020F443
:102730000E94B00E0E94F003DD20D9F00E94521AD0
:1027400080FD17C0F70112820E944C1A0E94BF1828
:10275000C7010E94C2130E944C1ADF91CF911F91B2
:102760000F91FF90EF90DF90CF900C94E018D12C58
:10277000DFCFDF91CF911F910F91FF90EF90DF900E
:10278000CF9008950F931F93CF93DF93EC0198811F
:1027900089812B813C81232B31F08F3F31F481E003
:1027A0009F3F19F403C081E001C080E080FD13C0A9
:1027B000CE010E940904882371F0688179818A81A1
:1027C0000E94031A8C010E945C190E944D18B801E6
:1027D000CE010E944411DF91CF911F910F91089576
:1027E000882321F00E949E1A0C94E81A08958823E9
:1027F00021F00E94A41A0C94E81A08950E94AB1AC2
:102800000E94BB1A0E94E81A0E94B3200E94891FEE
:1028100080E090E00E94E40E80E090E00C94FA0EDC
:102820008091E5019091E6010E94D11C0C94FE1369
:102830000E94981A0C941014E92FE295EF704E2F15
:1028400050E0FA013297EE30F105B0F4EA59FF4F4B
:102850000C94D027803F91F018F4883E68F40EC0A5
:10286000843F51F40BC0883E48F0813F29F406C0F4
:1028700093FB882780F9089580E0089581E008950A
:102880000E94F8190E941C140895CF93DF9300D082
:1028900000D01F92CDB7DEB70F900F900F900F9022
:1028A0000F90DF91CF910895CF93DF9300D000D0A8
:1028B00000D0CDB7DEB726960FB6F894DEBF0FBEB8
:1028C000CDBFDF91CF9108951F93CF93DF93C09138
:1028D000A70216E08091A802C81799F0D0E01C9FCB
:1028E000F0011D9FF00D1124E755FD4F40815181EE
:1028F00062817381848195810E9454142196C770EE
:10290000E9CFDF91CF911F9108954091D902509165
:10291000DA026091DB027091DC028091DD0290911D
:10292000DE020C9454142091A7029091A80256E064
:102930002917A9F030E0529FF001539FF00D1124A8
:10294000E755FD4F7181761306C07081781303C07F
:102950007281741306C02F5F3F4F2770E9CF80E06C
:10296000089581E00895CF938091DE0282958F7063
:1029700009F05FC08091DB02882309F45AC080917E
:10298000A702B091A8027091D902A091DA024091F9
:10299000DC025091DD0291E07F3F09F090E0692F69
:1029A000C6E08B1709F445C04115510521F0AF3F32
:1029B00021F020E003C021E001C0262F90E020FD9F
:1029C00035C0C89FF001C99FF00D1124E755FD4F98
:1029D00021812A132BC02081271328C02281211195
:1029E00025C0238134812417350710F42150310983
:1029F000241B350B283C3105C8F42091DE022F70D2
:102A000020612093DE0226E0289FF001299FF00D2F
:102A10001124E255FD4F80818F708061808389EDA4
:102A200092E00E94C213CF910C94641401968770B7
:102A3000B8CFCF9108959F92AF92BF92CF92DF927D
:102A4000EF92FF920F931F93CF93DF93CDB7DEB733
:102A500061970FB6F894DEBF0FBECDBF7C0185E055
:102A6000F701DE011D9601900D928A95E1F7D701DD
:102A7000DC9011960C9111971296CC903091D9025E
:102A80004091DA028091DC029091DD02009731F0F2
:102A90004F3F31F421E03F3F19F403C021E001C072
:102AA00020E020FD9FC1F701A380B4809090DB025D
:102AB000992009F42BC12091DE02A816B90628F04E
:102AC000B501681B790BCB0104C0809590958A0DE8
:102AD0009B1D11E0883C910590F010E0207F09F0EB
:102AE000DBC07A2DB98AA88A4D2D502F6C2D89898B
:102AF0000E94451489ED92E00E94C2136BC1822F9F
:102B0000807F09F091C0041315C0D31213C01C2D8F
:102B1000C11010C02F7020612093DE020E94851426
:102B200089ED92E00E94C2138091DE02D7011596D2
:102B30008C9375C1A114B10439F00F3F39F481E0D1
:102B4000BFEFDB1203C003C081E001C080E080FD65
:102B500003C081E08C2502C080E090E080FF15C0BA
:102B60004C2D602F8D2D0E949314882371F089EDD8
:102B700092E00E94C213E9EDF2E086E0DF011D92CF
:102B80008A95E9F70E9485144DC0AB2839F00F3FB4
:102B900039F481E0BFEFDB1203C003C081E001C064
:102BA00080E080FD03C081E08C2502C080E090E0E1
:102BB000E82FE170BE2E80FF2CC04C2D602F8D2D94
:102BC0000E949314182F811124C0DD860E878D85F5
:102BD0009E850E94F819292F22952F70223018F017
:102BE000243090F405C09F7059F0811109C017C1BD
:102BF0009F7031F0D70115969C91907F09F40FC119
:102C0000805E883008F40BC1C7010E94C2131B2DDF
:102C100006C11C2DCC2009F402C18091DE02816026
:102C20008093DE0210E0FBC0041309C0D31207C07A
:102C3000C11005C08091DE02F7018583A5C0DD8645
:102C40000E878D859E850E944014882379F1CC20C3
:102C500069F12091DE02822F82958F7090E00297B9
:102C600074F08091D9029091DA0298878F83198647
:102C7000BB86AA862C87CE0107960E94C21386E0E7
:102C8000F701A9EDB2E001900D928A95E1F70E945B
:102C9000B3140E9485140DC0041769F0DD860E87F9
:102CA0008D859E850E944014811119C0C7010E9424
:102CB000C21311E0B4C0D312F1CFC110EFCF809195
:102CC000DE02F7018583C7010E94C21386E0E9EDA9
:102CD000F2E0DF011D928A95E9F7192DA0C0CC2002
:102CE00029F32091DE02822F82958F7090E0029767
:102CF00034F28091D9029091DA029A8389831B82FF
:102D0000BD82AC822E83CE010196B7CFA816B9063C
:102D100028F0F501E81BF90BCF0104C080959095D0
:102D20008A0D9B1D883C910558F010E07A2DB98AD8
:102D3000A88A4D2D502F6C2D89890E9445144AC0B8
:102D40001C2DCC2009F4B2CF041333C0D31231C0F0
:102D50002091DE0220FD24C0822F82958F70482FA3
:102D600050E041155105E1F0D70115962C931597C8
:102D70004F30510549F08F5F982F9295907F822FA9
:102D80008F70892B15968C93C7010E94C21386E021
:102D9000F701A9EDB2E001900D928A95E1F73DC0EF
:102DA00086E0F701A9EDB2E001900D928A95E1F776
:102DB00036C0DD860E878D859E850E944014811168
:102DC0005ECF8091DE0281608093DE02C7010E94A7
:102DD000C21325C0E9EDF2E086E0DF011D928A957D
:102DE000E9F71BC0CC2009F461CFDD860E878D8505
:102DF0009E850E944014182F882309F457CF86E03F
:102E0000F701A9EDB2E001900D928A95E1F789ED05
:102E100092E00E940B100E94B3140E948514812F2F
:102E200061960FB6F894DEBF0FBECDBFDF91CF9194
:102E30001F910F91FF90EF90DF90CF90BF90AF90D8
:102E40009F9008951F93CF93DF93CDB7DEB72C9754
:102E50000FB6F894DEBF0FBECDBF4F83588769878A
:102E60007A878B879C87CE0107960E941B15882343
:102E7000D1F09F8188852A853B85232B31F08F3FB8
:102E800031F481E09F3F19F403C081E001C080E08C
:102E900080FD47C04F81588569857A858B859C85E3
:102EA0000E9454143EC086E0FE013796DE01119662
:102EB00001900D928A95E1F7FF81E8856A857B850F
:102EC0006115710531F0EF3F31F481E0FF3F19F4F6
:102ED00003C081E001C080E080FD23C02091A802F2
:102EE00030E0C9010196877099274091A70250E010
:102EF00084179507F1F1F983EA837D836C8396E06B
:102F0000929FD001939FB00D1124A755BD4FFE0194
:102F1000319601900D929A95E1F78093A8020E9454
:102F2000641416E08091A7029091A802891771F1AC
:102F3000189FC001112487559D4F0E941B1588239F
:102F400029F1E091A7021E9FF0011124E755FD4FE2
:102F50004081518162817381848195810E945414E2
:102F60008091A70290E00196877099278093A7022D
:102F7000D9CF0E9418141092A8021092A702E9ED6E
:102F8000F2E086E0DF011D928A95E9F72C960FB6F4
:102F9000F894DEBF0FBECDBFDF91CF911F91089592
:102FA000EF92FF920F931F93CF93DF938C01892BA6
:102FB00009F46CC0F12CEE24E394E8012196F801A9
:102FC0008491843740F4843008F051C0813081F01E
:102FD000823019F15BC0853709F444C0A8F19CE741
:102FE000980F903708F052C08F770E94BB1041C0F5
:102FF0000E5F1F4FFE01849190E2980F983050F4BD
:103000008770FE2D01C0FF0F8A95EAF78F2F0E946F
:10301000AE1A14C00E9411102DC00E5F1F4FFE018A
:10302000849190E2980F983060F48770FE2D01C073
:10303000FF0F8A95EAF78F2F0E94B41A0E94E81AB0
:1030400019C00E94BB1016C00E5F1F4FFE01C49135
:10305000CC2381F08FE99FE00197F1F700C00000D9
:10306000C150F6CF0E5F1F4FFE01F49003C00E94C7
:1030700011108E018F2D882309F49FCFEFE9FFE017
:103080003197F1F700C000008150F5CFDF91CF916B
:103090001F910F91FF90EF900895089508950C945B
:1030A0004E180C944F180E94511860930B037093A4
:1030B0000C0380930D0390930E030C94FE130C9459
:1030C00053180F931F9300910B0310910C03209141
:1030D0000D0330910E03602B712B822B932B1F91CC
:1030E0000F910C9453180F931F9300910B031091A1
:1030F0000C0320910D0330910E0360237123822372
:1031000093231F910F910C9453180F931F930091C9
:103110000B0310910C0320910D0330910E036027D7
:103120007127822793271F910F910C9453180C94A9
:103130004E180E94971860930703709308038093BA
:10314000090390930A030C94FE1360E070E0CB0136
:103150000C9499180F931F9341E050E060E070E0E9
:103160008A019B0104C0000F111F221F331F8A9583
:10317000D2F7C901B8011F910F910C9499180F93C0
:103180001F9341E050E060E070E004C0440F551F21
:10319000661F771F8A95D2F78091070390910803E5
:1031A000A0910903B0910A038A019B01082B192BF6
:1031B0002A2B3B2BC901B8011F910F910C94991830
:1031C0000F931F9341E050E060E070E004C0440FB3
:1031D000551F661F771F8A95D2F7409550956095C9
:1031E00070958091070390910803A0910903B09115
:1031F0000A038A019B01082319232A233B23C901BF
:10320000B8011F910F910C9499180F931F9341E0EF
:1032100050E060E070E004C0440F551F661F771F48
:103220008A95D2F78091070390910803A091090332
:10323000B0910A038A019B01082719272A273B27F7
:10324000C901B8011F910F910C9499180F931F9306
:1032500000910703109108032091090330910A039C
:10326000602B712B822B932B1F910F910C9499182B
:103270000F931F93009107031091080320910903F6
:1032800030910A0360237123822393231F910F91AE
:103290000C9499180F931F93009107031091080342
:1032A0002091090330910A03602771278227932711
:1032B0001F910F910C9499180895292F220F920FA6
:1032C000990F890FE82FE695E695E695877051E00E
:1032D00001C0550F8A95EAF785E0E89FF0011124B7
:1032E000E152FD4F20E030E070E04081CB01022E42
:1032F00002C0969587950A94E2F78170819584279C
:103300008523842781932F5F3F4F2530310569F74F
:103310000895292F220F920F990F890F682F669514
:1033200066956695982F977085E0689FB001112487
:1033300040E050E080E0FB01E40FF51FE152FD4F5B
:10334000208130E0092E02C0369527950A94E2F7D5
:1033500021703327042E01C0220F0A94EAF7822B32
:103360004F5F5F4F4530510531F70895BF92CF92BF
:10337000DF92EF92FF920F931F93CF93DF938C0115
:10338000C0900703D0900803E0900903F0900A036F
:1033900080910B0390910C03A0910D03B0910E034B
:1033A000C82AD92AEA2AFB2ACFE1D0E0D701C601F0
:1033B0000C2E04C0B695A795979587950A94D2F7D9
:1033C00080FD04C0219790F7B12C07C0BC2EB80136
:1033D0008C2F0E9474040197A9F38B2DDF91CF915C
:1033E0001F910F91FF90EF90DF90CF90BF900895C5
:1033F000CF93DF93EC010E94B619BE010E947404C2
:10340000DF91CF9108951F93CF93DF93EB019091BC
:10341000A602992321F0CB010E94F81913C088233A
:1034200049F0CB010E94B619182F682FCE010E94D7
:103430005D1904C0CB010E948919182FBE01812F8C
:103440000E947404DF91CF911F910895809114031D
:1034500008950E946C1D209112033091130382176E
:10346000930750F00E946C1D2091120330911303BA
:10347000821B930B9C010AC00E946C1D20911203B9
:103480003091130320953095280F391F81E0283C97
:10349000310508F480E008958091110385958595A4
:1034A0008595089580911103877008950E946C1D81
:1034B00020910F033091100382179307A8F00E9408
:1034C0006C1D20910F0330911003821B930B883CDD
:1034D000910510F480E013C08091110382FB8827CE
:1034E00080F991E089270BC00E946C1D20910F0389
:1034F0003091100320953095820F931FE8CF817093
:10350000089590911103977081E009F480E0089587
:1035100080913803089590913803892B8093380364
:1035200008958095909138038923809338030895F6
:1035300010923803089580913703089590913703CE
:10354000892B8093370308958095909137038923C1
:1035500080933703089510923703089590913603AE
:10356000892B8093360308958095909136038923A3
:1035700080933603089510923603089580911503C1
:10358000089508950C94C11A0C94C21ACF93909187
:103590001503981769F0C82F0E946C1D90931303B0
:1035A00080931203C09315038C2FCF910C94C41AEF
:1035B000CF91089580911503882349F01092150347
:1035C000109213031092120380E00C94C41A089511
:1035D000E091E501F091E601809138038083E0916C
:1035E000E501F091E601908180913703892B80837A
:1035F000E091E501F091E601908180913603892BFD
:103600008083809115038823B9F00E94291A8111C3
:103610000E94DA1AE091E501F091E6019081809133
:103620001503892B80838091E5019091E6010E942A
:10363000251C81110E94DA1A8091E5019091E60122
:103640000C94BC0E0C94C11A0C94221B9091140380
:10365000981721F0809314030C94241B08958091F3
:103660001403882329F01092140380E00C94241B87
:1036700008950C94C11A98E0899F90011124262B7B
:10368000209311030E94BF180E946C1D9093100399
:1036900080930F03809111038595859585950C94F2
:1036A000391B109211031092100310920F0380E047
:1036B0000C94391B20911103809582238093110370
:1036C000982F977079F430E0482F082E000C550B96
:1036D0002417350739F08595859585950E94E01862
:1036E0000C94511B08956FEF7FEF80E090E00C94F5
:1036F000162880E090E00E94F22721E08C3E9E4F49
:1037000009F020E0822F089582E090E00C94EA27EF
:1037100083E090E00C94EA27682F83E090E00C941B
:10372000F827CF9384E090E00E94EA27C82F81E237
:1037300090E00E94EA272C2F30E0A901582BCA0103
:10374000CF910895CF93C92F682F84E090E00E9415
:10375000F8276C2F81E290E0CF910C94F827AB0111
:10376000BC018FE090E00C940A28AB01BC0183E11E
:1037700090E00C940A2860E070E0CB010C94B51B3B
:1037800060E070E0CB010E94AF1B0C94BB1B6CEEA1
:103790007EEF80E090E00E94162860E082E090E0FA
:1037A0000E94F82760E083E090E00E94F8271092E2
:1037B0000B0310920C0310920D0310920E0360E0A5
:1037C00084E090E00E94F82760E081E290E00E94AF
:1037D000F82760E085E090E00E94F82760E086E04E
:1037E00090E00E94F8276FEF87E090E00E94F827B2
:1037F00040E050E0BA0188E090E00E940A2860E0D2
:103800008DE090E00E94F82740E050E0BA0188E1A6
:1038100090E00E940A2860E087E190E00E94F8278B
:1038200040E050E0BA018CE190E00E940A2860E09C
:1038300080E290E00E94F8270C94C01B0C94C71BF8
:10384000682F8EE090E00C94F827FC01329680916E
:10385000F901882331F08091880387FF02C09EE13F
:1038600001C096E080E0915028F021912223D9F305
:103870008F5FF9CF0895662351F12091F90122233A
:10388000E9F02091880327FF19C0462F46954695F9
:1038900046954E31E0F4677021E030E002C0220F1F
:1038A000331F6A95E2F7FC01E40FF11D828190E07D
:1038B0002823392381E0232B69F409C0FC013296C7
:1038C00008962191621729F0E817F907D1F780E0EF
:1038D000089581E008959C01FC0132969FEF80E0FD
:1038E0004191461789F09F3F19F4411101C0982F6B
:1038F0008F5F8630A9F79F3F39F0F901E90FF11D7D
:1039000097FDFA956283089508959C012A5F3F4FC1
:10391000FC014281461301C012820196821793076F
:10392000B9F70895262F2695269526952E3168F409
:10393000FC01E20FF11D677021E030E001C0220FB1
:103940006A95EAF78281282B22830895262F2695EF
:10395000269526952E3170F4FC01E20FF11D67705B
:1039600021E030E001C0220F6A95EAF720958281BC
:103970002823228308952091F901222329F0209100
:10398000880327FD0C94921C0C946B1C2091F90168
:10399000222329F02091880327FD0C94A61C0C9467
:1039A000851C2091F901FC013296222331F080918F
:1039B000880387FF02C08EE101C086E0DF011D920F
:1039C0008A95E9F7089508950C94E31C0C94E31C80
:1039D000CF930E94E61C0E9407070E94E41CC0E0EF
:1039E0008C2F0E946306811104C0CF5FCA30C1F7DB
:1039F00001C081E0CF9108950C94E31C0C94FC1C51
:103A00000E94FE1C80918E03843049F110923A038B
:103A100020E488E190E00FB6F894A89580936000C8
:103A20000FBE2093600080E00E94F0030E94FE1C05
:103A300083B7817F846083BF83B7816083BF7894BD
:103A4000889583B78E7F83BF0FB6F894A895809131
:103A50006000886180936000109260000FBE08953E
:103A60000C94E31C0E9418140E94B00E0E94F003F4
:103A70000C94301D1F920F920FB60F9211248F934A
:103A80009F93AF93BF9380913A03811113C08091AC
:103A9000840390918503A0918603B091870341969A
:103AA000A11DB11D8093840390938503A093860389
:103AB000B0938703BF91AF919F918F910F900FBEED
:103AC0000F901F90189582E084BD93E095BD9AEF0A
:103AD00097BD80936E0008952FB7F894809184036A
:103AE00090918503A0918603B09187032FBF08951D
:103AF000CF92DF92EF92FF920F931F932FB7F8941C
:103B000040918403509185036091860370918703EF
:103B10002FBF6A017B01EE24FF248C0120E030E0FE
:103B2000C016D106E206F30610F4415051099A017D
:103B3000281B390BC9011F910F91FF90EF90DF9067
:103B4000CF90089578941F920F920FB60F92112480
:103B50008F939F93AF93BF9380918403909185033C
:103B6000A0918603B09187030196A11DB11D80939A
:103B7000840390938503A0938603B0938703BF913A
:103B8000AF919F918F910F900FBE0F901F9018953E
:103B900081E08093E00080E28093D8001092C90019
:103BA0008FE19EE40197F1F700C0000087E090EB01
:103BB000DC018093970390939803A0939903B093AB
:103BC0009A039CE088E10FB6F894A8958093600072
:103BD0000FBE90936000FFCF0C94731B0E940707E9
:103BE0008FE39CE90197F1F700C000000E940707EE
:103BF00080E00E94630680FF04C00E94EC1D0C94CC
:103C0000C81D08950E94791B811102C00E941E1CCC
:103C10000E94841B809339030E94911B9093890317
:103C2000809388030E94881B682F70E080E090E0FA
:103C30000C945F188091420380FF0BC06091EC01EF
:103C400085E0689FB0011124759567957595679516
:103C50002BC081FF09C06091EC0185E0689FB00135
:103C600011247595679520C082FF07C06091EC0113
:103C700085E0689FB001112417C0909141039923FA
:103C8000D1F06091EB01961788F72091EC0185E067
:103C9000289F90011124929FA001939F500D112401
:103CA00070E0CA010E94BC276038710540F46115BC
:103CB000710519F406C065E070E0862F08958FE75E
:103CC000089581E008958091420380FF08C06091CB
:103CD000E80170E0759567957595679521C081FF3E
:103CE00006C06091E80170E07595679519C082FF84
:103CF00004C06091E80170E010C0909141039923E5
:103D000099F06091E7019617A0F78091E801899FEB
:103D1000C001112470E00E94BC276038710540F496
:103D20006115710519F406C061E070E0862F0895F1
:103D30008FE7089581E00895803F21F40E941A1EC4
:103D4000819504C0813F29F40E941A1E8093460386
:103D50000895823F21F40E941A1E819504C0833F7A
:103D600029F40E941A1E809345030895893F19F48F
:103D70000E94631E05C08A3F31F40E94631E819534
:103D80008093470308958B3F21F40E94631E819521
:103D900004C08C3F29F40E94631E80934803089559
:103DA000843F21F480914403816017C0853F21F452
:103DB00080914403826011C0863F21F480914403C6
:103DC00084600BC0873F21F480914403886005C064
:103DD000883F31F4809144038061809344030895C7
:103DE0008D3F21F48091420381600BC08E3F21F40E
:103DF00080914203826005C08F3F29F48091420385
:103E00008460809342030895803F39F48091460393
:103E100087FF6CC01092460369C0813F29F48091EE
:103E200046031816BCF362C090914503823F29F403
:103E300097FF5CC01092450359C0833F19F41916CF
:103E4000CCF354C0893F41F48091470318160CF01D
:103E50004DC0109247034AC08A3F29F4809147031E
:103E600087FF44C0F6CF8B3F39F48091480387FF2A
:103E70003DC0109248033AC08C3F29F4809148031A
:103E80001816BCF333C0843F21F4809144038E7F25
:103E900017C0853F21F4809144038D7F11C0863F78
:103EA00021F4809144038B7F0BC0873F21F48091E4
:103EB0004403877F05C0883F31F4809144038F7E9F
:103EC0008093440313C08D3F21F4809142038E7F81
:103ED0000BC08E3F21F4809142038D7F05C08F3F40
:103EE00029F4809142038B7F8093420380914503A4
:103EF00081110EC08091460381110AC08091470351
:103F0000811106C080914803811102C010924103C3
:103F1000089583E493E00E94D60E0E946C1D909356
:103F2000400380933F030895CF93DF9300D000D0E8
:103F300000D0CDB7DEB786E0E3E4F3E0DE01119612
:103F400001900D928A95E1F780914503811105C09A
:103F500080914603882309F47AC080913D039091B3
:103F60003E030E94781DAC0190914103992339F0E2
:103F70002091ED0130E02417350758F068C02091FA
:103F8000EE018AE0289F900111242417350718F0CC
:103F90005EC09F3F19F09F5F9093410310924703CB
:103FA0001092480380914503181624F40E941A1EAB
:103FB000809345038091450387FF05C00E941A1E28
:103FC00081958093450380914603181624F40E943E
:103FD0001A1E809346038091460387FF05C00E9406
:103FE0001A1E819580934603309145033323E1F0F7
:103FF000209146032223C1F045EB3403C001112474
:10400000992319F09093450303C081E08093450301
:1040100035EB2303C0011124992319F09093460333
:1040200003C081E0809346030E94891F80913F0373
:104030009091400390933E0380933D0386E0FE0100
:104040003196A3E4B3E001900D928A95E1F7809157
:104050004703811105C080914803882309F47AC081
:1040600080913B0390913C030E94781DAC0190919C
:104070004103992339F02091E90130E024173507F5
:1040800058F068C02091EA018AE0289F900111242D
:104090002417350718F05EC09F3F19F09F5F90937B
:1040A000410310924503109246038091470318166E
:1040B00024F40E94631E809347038091470387FF87
:1040C00005C00E94631E8195809347038091480339
:1040D000181624F40E94631E8093480380914803BD
:1040E00087FF05C00E94631E81958093480330912D
:1040F00047033323E1F0209148032223C1F045EB2D
:104100003403C0011124992319F09093470303C08D
:1041100081E08093470335EB2303C00111249923E9
:1041200019F09093480303C081E0809348030E94F4
:10413000891F80913F039091400390933C038093AB
:104140003B0386E0FE013196A3E4B3E001900D92BB
:104150008A95E1F726960FB6F894DEBF0FBECDBF65
:10416000DF91CF910895E3E4F3E086E0DF011D9253
:104170008A95E9F7109241031092420308958091C5
:1041800069030895CF93DF9300D01F92CDB7DEB7B8
:1041900090918E03943019F589837B836A8382E042
:1041A0008093E9008FEF9091E800815095FD06C063
:1041B00095ED9A95F1F700008111F5CF8091E80017
:1041C00085FF0DC040E050E063E070E0CE01019655
:1041D0000E941E238091E8008E778093E8000F9064
:1041E0000F900F90DF91CF910895CF93DF93EC0163
:1041F0000E940123823011F0843031F4BE0184E04A
:10420000DF91CF910C94C220DF91CF910895BC0132
:1042100083E00C94C220CF93DF93EC010E94012332
:10422000823011F08430F9F482E08093E9008FEF5E
:104230009091E800815095FD06C095ED9A95F1F7B3
:1042400000008111F5CF8091E80085FF0CC040E0AF
:1042500050E066E070E0CE010E941E238091E800ED
:104260008E778093E800DF91CF910895CF93DF930D
:10427000EC010E940123823011F08430D9F5809145
:10428000F901882339F08091880387FF03C060E239
:1042900082E002C068E081E08093E9008FEF9091B6
:1042A000E800815095FD06C095ED9A95F1F7000064
:1042B0008111F5CF8091E80085FF1CC08091F90144
:1042C000811105C040E050E068E070E003C070E09C
:1042D00040E050E0CE010E941E238091E8008E77DE
:1042E0008093E80080E2FE01A9E4B3E001900D9222
:1042F0008A95E1F7DF91CF91089580918D03811127
:1043000009C00E94AF240E940C258091E2008460C5
:104310008093E200089510928D0308950895089502
:104320000C94321D42E061EC81E00E94282442E2BC
:1043300061EC82E00C94282480919003833009F48E
:1043400060C030F4813071F0823009F499C0089572
:104350008A3009F485C08B3009F46BC0893009F0CC
:10436000A7C020C080918F03813A09F0A1C080913D
:10437000E800877F8093E8008091930390919403F5
:10438000892B21F460E289E493E003C060E080E0DF
:1043900090E070E00E9469238091E8008B77809321
:1043A000E800089580918F03813209F081C08091E7
:1043B000930390919403029708F07AC08091E800EB
:1043C000877F8093E8008091E80082FD05C080919E
:1043D0008E038111F8CF6CC02091F3008091F20020
:1043E00090E0922B029729F48091F1008B7F81302D
:1043F00021F48091F100809369038091E8008B772C
:1044000053C080918F03813A09F052C08091930389
:1044100090919403892B09F04BC08091E800877F2D
:104420008093E8008091E80080FFFCCF8091F90143
:1044300036C080918F038132D9F58091930390919A
:104440009403892BA9F58091E800877F8093E80089
:104450000E945D24809191038093F9010C941814BB
:1044600080918F03813221F58091E800877F8093CE
:10447000E8000E945D248091920380936A0308956E
:1044800080918F03813AA1F48091E800877F809327
:10449000E8008091E80080FFFCCF80916A03809360
:1044A000F1008091E8008E778093E8000C945D2401
:1044B000089584B7877F84BF0FB6F894A89580913C
:1044C0006000886180936000109260000FBE90E0F1
:1044D00080E80FB6F89480936100909361000FBE5E
:1044E0000E94200F0E94AF240E940C258091E200C0
:1044F00084608093E20078940E94A1270E94260F96
:104500008FEE91E00E94AB0E80918E03853069F4AE
:104510000E94001D80918C038823B1F30E94E81C47
:10452000882391F30E940823EFCF0E94390FECCF2C
:104530000C949A22292F332723303105C9F060F4D7
:104540002130310581F02230310509F04AC08BE37A
:1045500090E024E234E049C02132310511F12232E9
:10456000310579F13EC082E190E02FE534E03DC0B5
:1045700099278130910561F040F08230910559F022
:10458000039779F5E8EDF3E008C0E0E2F4E005C058
:10459000E4E0F4E002C0EEEDF3E0849190E09F01EE
:1045A00024C06115710541F061307105D1F489E0D5
:1045B00090E02FE434E019C089E090E026E334E095
:1045C00014C06115710541F06130710551F48CEB37
:1045D00090E021E734E009C080E490E02DE235E08E
:1045E00004C080E090E020E030E0FA0131832083D5
:1045F000089580918E03843011F081E0089582E067
:10460000089580916B03811102C00C94F9220895E2
:1046100080E189BD82E189BD09B400FEFDCF8091B2
:10462000D8008F7D8093D8008091E00082608093D5
:10463000E0008091E00081FDFCCF0895CF92DF92F1
:10464000EF92FF920F931F93CF93DF93EC018B01B7
:104650007A010E947C24811133C0E114F10439F005
:10466000F70180819181081B190BC80FD91FC12C3C
:10467000D12C0115110519F18091E80085FD16C0B6
:104680008091E8008E778093E800E114F10449F00E
:10469000F70180819181C80ED91ED182C08285E048
:1046A0000FC00E947C24882321F30AC08991809343
:1046B000F10001501109FFEFCF1ADF0ADACF80E0D5
:1046C000DF91CF911F910F91FF90EF90DF90CF90EE
:1046D000089520919503309196032617370748F0E7
:1046E0006115710539F42091E8002E772093E800D8
:1046F00001C0B901FC0120E06115710579F18091DB
:104700008E038823F1F18530F1F18091E80083FD7B
:104710003CC08091E80082FD2EC08091E80080FFBF
:10472000EBCF2091F3008091F20090E0922B611585
:10473000710551F08830910538F421912093F100F2
:10474000615071090196F3CF21E0089709F020E04C
:104750008091E8008E778093E800CECF2111CFCFF3
:104760000AC080918E03882361F0853061F08091CA
:10477000E80083FD0AC08091E80082FFF2CF80E06C
:10478000089582E0089583E0089581E008952091DE
:104790009503309196032617370748F06115710588
:1047A00039F42091E8002E772093E80001C0B90188
:1047B000FC0120E06115710591F180918E03882341
:1047C00009F440C0853009F43FC08091E80083FDC2
:1047D0003DC08091E80082FD2FC08091E80080FFFD
:1047E000E9CF2091F3008091F20090E0922B6115C7
:1047F000710559F08830910540F424912093F1001F
:104800003196615071090196F2CF21E0089709F0C5
:1048100020E08091E8008E778093E800CBCF2111D3
:10482000CCCF0AC080918E03882361F0853061F07F
:104830008091E80083FD0AC08091E80082FFF2CFFA
:1048400080E0089582E0089583E0089581E008956E
:10485000982F973068F59093E900981739F0709188
:10486000EC002091ED005091F00003C0242F762F32
:1048700050E021FD02C09F5FECCF3091EB003E7F06
:104880003093EB003091ED003D7F3093ED0030919F
:10489000EB0031603093EB007093EC002093ED005F
:1048A0005093F0002091EE0027FDE5CF80E00895C1
:1048B0008F708093E90081E0089580918F0387FFD6
:1048C00011C08091E80082FD05C080918E038111A6
:1048D000F8CF11C08091E8008B770BC080918E03D8
:1048E000882349F08091E80080FFF8CF8091E800AC
:1048F0008E778093E80008952091E4003091E500E0
:1049000095E64091EC00842F817040FF23C0809198
:10491000E80080FD1DC080918E03882399F08530CA
:1049200099F08091EB0085FD11C04091E400509119
:10493000E5002417350729F3915011F09A01E1CFD2
:1049400084E0089582E0089583E0089581E0089569
:1049500080E008954091E80042FFDDCF08950E9475
:104960001D250E942525E0EEF0E080818160808396
:10497000E8EDF0E080818F77808319BCA7EDB0E08F
:104980008C918E7F8C9380818F7E808310928D039B
:1049900008950F931F93CF93DF930E941D250E94CC
:1049A0002525C8EDD0E088818F778883888180684D
:1049B000888388818F7D888319BC10928E03109222
:1049C0008A0310928C0310928B0300EE10E0F80122
:1049D00080818B7F808388818160888342E060E072
:1049E00080E00E942824E1EEF0E080818E7F8083C9
:1049F000E2EEF0E080818160808380818860808346
:104A0000F80180818E7F8083888180618883DF9137
:104A1000CF911F910F910895E8EDF0E080818F7E96
:104A20008083E7EDF0E080818160808384E082BF55
:104A300081E080938D030C94C924E8EDF0E080813F
:104A40008E7F80831092E20008951092DA00109217
:104A5000E10008951F920F920FB60F9211242F9329
:104A60003F934F935F936F937F938F939F93AF93F6
:104A7000BF93EF93FF938091E10082FF0BC0809181
:104A8000E20082FF07C08091E1008B7F8093E1000C
:104A90000E94A0278091DA0080FF1FC08091D8007B
:104AA00080FF1BC08091DA008E7F8093DA008091B6
:104AB000D90080FF0DC080E189BD82E189BD09B4C4
:104AC00000FEFDCF81E080938E030E947D2105C012
:104AD00019BC10928E030E948B218091E10080FF0F
:104AE00019C08091E20080FF15C08091E2008E7FA6
:104AF0008093E2008091E20080618093E2008091E7
:104B0000D80080628093D80019BC85E080938E0322
:104B10000E948F218091E10084FF30C08091E200EB
:104B200084FF2CC080E189BD82E189BD09B400FE0B
:104B3000FDCF8091D8008F7D8093D8008091E100D7
:104B40008F7E8093E1008091E2008F7E8093E2006F
:104B50008091E20081608093E20080918A03882343
:104B600011F084E007C08091E30087FD02C081E07E
:104B700001C083E080938E030E9490218091E10028
:104B800083FF29C08091E20083FF25C08091E1006E
:104B9000877F8093E10082E080938E0310928A03E6
:104BA0008091E1008E7F8093E1008091E2008E7F12
:104BB0008093E2008091E20080618093E20042E015
:104BC00060E080E00E9428248091F000886080935B
:104BD000F0000E948E21FF91EF91BF91AF919F91C4
:104BE0008F917F916F915F914F913F912F910F9096
:104BF0000FBE0F901F9018951F920F920FB60F9235
:104C000011242F933F934F935F936F937F938F93D1
:104C10009F93AF93BF93CF93DF93EF93FF93C09195
:104C2000E900CF708091EC00D82FD17080FDD0E8E2
:104C30001092E9008091F000877F8093F0007894D3
:104C40000E9440261092E9008091F00088608093D5
:104C5000F000CD2BCF70C093E900FF91EF91DF9171
:104C6000CF91BF91AF919F918F917F916F915F9104
:104C70004F913F912F910F900FBE0F901F9018955D
:104C80001F93CF93DF93CDB7DEB7AA970FB6F894F3
:104C9000DEBF0FBECDBFEFE8F3E08091F10081935E
:104CA00023E0E739F207C9F70E949C218091E800D0
:104CB00083FF2EC180918F0390919003492F50E084
:104CC0004A30510508F024C1FA01EC58FF4F0C940A
:104CD000D027803821F0823809F01AC108C08091AD
:104CE0008B0390918C03992389F082600FC080918F
:104CF00093038F70873008F00BC18093E900809197
:104D0000EB0085FB882780F91092E9009091E8007C
:104D1000977F9093E8008093F1001092F100D1C04A
:104D2000282F2D7F09F0F4C0882319F0823061F01C
:104D3000EFC080919103813009F0EAC0933009F00F
:104D400080E080938C032EC08091910381112AC052
:104D5000809193038F702FEF280F263008F0D8C072
:104D60008093E9002091EB0020FF1CC0933021F4D8
:104D70008091EB00806214C09091EB009061909361
:104D8000EB0021E030E0A90102C0440F551F8A95D5
:104D9000E2F74093EA001092EA008091EB0088600D
:104DA0008093EB001092E9008091E800877F809368
:104DB000E8000E945D24ACC08111AAC0109191034B
:104DC0001F778091E3008078812B8093E3008091AE
:104DD000E800877F8093E8000E945D248091E800CE
:104DE00080FFFCCF8091E30080688093E300111185
:104DF00002C082E001C083E080938E0389C08058A6
:104E0000823008F085C080919103909192038C3D8F
:104E100053E0950779F583E08A838AE289834FB767
:104E2000F894DE01139620E03EE051E2E32FF0E03B
:104E300050935700E49120FF03C0E295EF703F5F6D
:104E4000EF708E2F90E0EA3010F0C79601C0C09648
:104E50008D939D932F5F243149F74FBF8091E800D8
:104E6000877F8093E8006AE270E0CE0101960E949D
:104E7000692316C06091930370919403AE014F5F54
:104E80005F4F0E949822BC01892B09F441C0909188
:104E9000E800977F9093E80089819A810E94C72358
:104EA0008091E8008B778093E80032C0803881F5EC
:104EB0008091E800877F8093E80080918A03809347
:104EC000F1008091E8008E7772CF811121C080912E
:104ED00091039091920399270297D4F48091E8006E
:104EE000877F8093E8008091910380938A030E94DA
:104EF0005D2480918A03811106C08091E30087FDC3
:104F000002C081E001C084E080938E030E94922160
:104F10008091E80083FF0AC08091E800877F80933A
:104F2000E8008091EB0080628093EB00AA960FB6B8
:104F3000F894DEBF0FBECDBFDF91CF911F910895D2
:104F40000895CF9380918E038823A1F0C091E9004A
:104F5000CF709091EC00892F817090FD80E8C82B74
:104F60001092E9008091E80083FD0E944026CF70F6
:104F7000C093E900CF91089597FB072E16F4009493
:104F800007D077FD09D00E94D62707FC05D03EF454
:104F9000909581959F4F0895709561957F4F0895E5
:104FA000EE0FFF1F0590F491E02D0994AA1BBB1B87
:104FB00051E107C0AA1FBB1FA617B70710F0A61B19
:104FC000B70B881F991F5A95A9F780959095BC013A
:104FD000CD010895F999FECF92BD81BDF89A992728
:104FE00080B50895A8E1B0E042E050E00C941E289E
:104FF000262FF999FECF92BD81BDF89A019700B492
:10500000021639F01FBA20BD0FB6F894FA9AF99A31
:105010000FBE08950396272F0E94F9270E94F827B4
:10502000252F0E94F927242F0C94F9270196272F6A
:105030000E94F9270C94F827DC01CB01FC01F999B7
:10504000FECF06C0F2BDE1BDF89A319600B40D92D4
:0C50500041505040B8F70895F894FFCF8D
:10505C00DF09F009000A0000000000000000000059
:10506C0000000000CC01DF09F009000A000000007C
:10507C0000000000000000000000C801DF09F0097A
:10508C00000A00000000000000000000000000000A
:10509C00C401DF09F009000A000000000000000054
:1050AC00000000000000C001DF09F009000A000048
:1050BC00000000000000000000000000BC01DF093F
:1050CC00F009000A000000000000000000000000D1
:1050DC000000B801DF09F009000A00000000000020
:1050EC000000000000000000B401DF09F009000A14
:1050FC000000000000000000000000000000B001F3
:10510C002E002E02350035022D002D023100310209
:10511C002F0230022F003000260227023300340009
:10512C000201000000FC000000000171020072028C
:10513C0005720201FF16036408641E1407101EBFDB
:10514C002036210B210721F52001E200E900EA00BD
:10515C00B500B600B700CD008301CC008A019201E6
:10516C0094012102230224022502260227022A028C
:10517C00B300B4006F007000818283F1F437929316
:10518C0094F0F597F6F70000000000E200E900EA61
:10519C0000B500B600B700CD008301CC008A0192A7
:1051AC000194012102230224022502260227022A4D
:0C51BC0002B300B4006F00700081828319
:00000001FF
