:100000000C9400020C9447020C9447020C94470293
:100010000C9447020C9447020C9447020C9447023C
:100020000C9447020C9447020C9410220C94E22288
:100030000C94471A0C9447020C9447020C94470204
:100040000C9447020C9447020C9447020C9447020C
:100050000C9447020C94AF1A0C9447020C9447027C
:100060000C9447020C9447020C9447020C944702EC
:100070000C9447020C9447020C9447020C944702DC
:100080000C9447020C9447020C9447020C944702CC
:100090000C9447020C9447020C9447020C944702BC
:1000A0000C9447020C9447020C944702F50EF50E8F
:1000B000270F270F800F9E0F13111311E00F7510DC
:1000C000861086100311131113110C11A911A91117
:1000D000BB11BB11B211BB11BB11BB11A911A911ED
:1000E000B711BB11BB11B7114F2376236E247623B2
:1000F0006E24C223E5236E243C244B2414001A00F2
:100100000800150017001C0018000C001200046104
:100110001600070009000A000B000D000E000F007A
:100120001D641B0006001900050011001000366454
:1001300037610000000002552A432C4400000000F3
:100140000000284514001A00090013000A000D00E1
:100150000F0018001C0004611500160017000700AE
:100160000B00110008000C001D641B0006001900A4
:1001700005000E00100036643761000000000255D3
:100180002A432C4400000000000028450000000025
:10019000000000000000000000000000000000005F
:1001A000000000000000000000000000000000004F
:1001B000000000000000000000000000000000003F
:1001C000000000000000000000000000000000002F
:1001D000000000004B004A0052004D00490023027D
:1001E0002402250226024E00500051004F00280034
:1001F0001E021F0220022102A800AA00A900AC00D2
:10020000AB002D002E002F003000000000002B005E
:100210000100AE000000000000002900350235009A
:1002200001000100010001004200430044003102CE
:1002300030002F002D022D0001003E003F00400045
:10024000310030022F022E022E0001003A003B0046
:100250003C000000000029004C00010000000000EC
:1002600000000100005C095D085D01000100240040
:1002700025002600570001000100010001000100D7
:1002800021002200230055000100010001000100AF
:1002900001001E001F00200027000000000046048F
:1002A000160A460C00000000000001001A000800B9
:1002B000000014001A0000000403300000002003B6
:1002C000720065007600690075006E0067003300FB
:1002D000340020006200790020004E00520000002F
:1002E0000C036700740069007000730000000403D1
:1002F000090409023B00020100A0FA090400000100
:1003000003010100092111010001224000070581BC
:100310000308000A0904010001030000000921117B
:100320000100012281000705820320000A1201104A
:100330000100000008EDFE000001000102030105BC
:10034000010902A10185020901A10005091901297C
:10035000051500250195057501810295017503813B
:10036000010501093009311581257F950275088144
:100370000609381581257F950175088106050C0A47
:1003800038021581257F950175088106C0C00501D9
:100390000980A101850319012AB700150126B700BC
:1003A000950175108100C0050C0901A10185041992
:1003B000012AA002150126A002950175108100C036
:1003C00005010906A101050719E029E71500250126
:1003D00095087501810295017508810105071900CD
:1003E00029FF150026FF00950675088100050819EC
:1003F000012905950575019102950175039101C0CB
:1004000011241FBECFEFDAE0DEBFCDBF04B603FE7E
:1004100027C08091840290918502A0918602B091BC
:1004200087028730904BA740B04BD1F410928402E2
:1004300010928502109286021092870214BE84B731
:10044000877F84BF0FB6F894A8958091600088617B
:1004500080936000109260000FBEE0E0F8E3099521
:1004600011E0A0E0B1E0E8E2FAE402C005900D92EC
:10047000AA3AB107D9F722E0AAEAB1E001C01D9279
:10048000A438B207E1F70E943F1F0C9412250C9488
:100490000000882319F0813031F00895662349F077
:1004A00089E290E004C0662321F08BE290E00C9496
:1004B000D9020895CF93DF93EC010E940919BE0180
:1004C00080E090E0DF91CF910C94DE1588302DE52F
:1004D000920751F089309D4589F4FB018281882380
:1004E00071F081E090E006C0FB018281882339F041
:1004F00082E090E00E945A0280E0089581E0089531
:100500009C013A9521153F4138F5DC01AA27B270CC
:10051000AC01442754709C012227387094FF0FC00F
:1005200090FF02C080E101C080E0AB2B09F0806247
:10053000452B09F08064232B69F080680BC0892F5C
:100540008170AB2B09F08260452B09F08460232B6E
:1005500009F08860FB0109940895CF93DF93EC01C3
:10056000805E9109089710F0209719F465EB7EE002
:1005700002C06FE671E1CE010E9480028C2FDF91F4
:10058000CF910C94900DCF93DF93EC010E943A0E23
:10059000CE01805E9109089710F0209719F46CEB5A
:1005A0007EE002C066E771E1CE01DF91CF910C944D
:1005B0008002CF93DF93EC010E94AD02CE01DF9168
:1005C000CF910C94C30281E008950C9466021F93AE
:1005D000CF93DF9300D000D01F92CDB7DEB7498311
:1005E0005A836B832091D80189819A81211112C08D
:1005F000662349F00E943317182F682F89819A814A
:100600000E94DC1603C00E940717182F69817A81A7
:10061000812F04C00E94331769817A810F900F9057
:100620000F900F900F90DF91CF911F910C94A60324
:10063000FC01408151816281738184810C94E702C5
:100640000E94E81A0E94F618811102C00E949B19AC
:100650000C94C5050E94C0090E9423070C94C10593
:1006600008950C94300381E008950C943303CF93E4
:10067000C82F0E9431038C2F0E943503CF9108951B
:1006800008950E9497110E9440032FEF84E39CE09D
:10069000215080409040E1F700C0000087E797E7D5
:1006A00090930108809300080C94D51A0F931F9320
:1006B000CF93DF93EC010E9418038C01BE010E94CE
:1006C0001D09BE01C8010E94E5028823A9F1BE01EF
:1006D000C8010E946409882379F1BE01C8010E9403
:1006E0005007882349F1BE01C8010E94870A882368
:1006F00019F1BE01C8010E94C80A8823E9F0BE01B1
:10070000C8010E94F30B8823B9F08A81882369F01D
:1007100001158CE5180731F00E3D1C4531F40E949F
:100720009B190AC00E94410307C0CE01DF91CF91FF
:100730001F910F910C94E30280E0DF91CF911F9104
:100740000F91089580E090E00895089524E2829F3B
:10075000C0011124FC0129E0729FE00DF11D11245C
:10076000E60FF11DEE0FFF1FE450FF4F85919491AE
:100770000895880F991FFC01E854FD4F85919491CD
:100780000895CF93DF930E94A6030E94D904EC0141
:100790008115904508F041C0C11580E4D80708F0E4
:1007A000D1C0C83ED10510F5C03ED10508F0FDC04E
:1007B000C83AD10578F4C53AD10508F0A2C0C130D5
:1007C000D10509F4F2C008F4EEC0C430D10508F038
:1007D000ECC0E9C0CF3BD10508F49BC0C03CD105BB
:1007E00008F4E1C0CE01805C91099EC0C11590E281
:1007F000D90758F4C11521E0D20708F0D6C0C03F90
:10080000D10508F4D0C0D065D0C0C11580E3D807A9
:1008100008F08EC0CE019F7087C0C11595E5D9073D
:1008200008F043C0C11524E5D20708F0A2C0C115E5
:1008300082E5D80708F5C11591E5D90708F085C00C
:10084000CE0174E0969587957A95E1F783709C2F99
:10085000937021E030E002C0220F331F9A95E2F737
:100860003C68382BCF70C695C69580E2C89FE001E2
:100870001124C22BD32B99C09E01237033278C2FB8
:1008800086958695C115D34508F064C0C1E0D0E0D7
:1008900002C0CC0FDD1F2A95E2F720E2829FC00143
:1008A0001124C82BD92BDC6880C0C11529E5D207DB
:1008B000A0F4C11588E5D80708F060C0C11596E519
:1008C000D90708F070C08C2F0E946D058F71C82F5A
:1008D000D0E0DC2FCC27D06268C0C1152AE5D20752
:1008E00008F451C0CE0190568115904208F05BC0CB
:1008F0008D2F8F710E946D05DD27D0628F71D82BEF
:1009000054C0C55AD0E0C759DE4FC881D0E0D0648A
:100910004CC0C85AD0E0CC0FDD1FC55CDE4F09903B
:10092000D881C02DD46441C00E94B903EC013DC000
:10093000CE019927D3FF03C0EC01D86C36C0EC017F
:10094000D06C33C0DF70D06A30C0DC2FCC27C16FD1
:10095000D06A2BC0C1E0D0E002C0CC0FDD1F2A95C9
:10096000E2F720E2829FC0011124C82BD92BDA685C
:100970001CC0DC2FCC27C46FD06A17C0DC2FCC275B
:10098000C06FD06A12C08C2F8F700E946D0594E0EA
:10099000D695C7959A95E1F7CF70D0E0DC2FCC279C
:1009A000D069C82B02C0C0E0D0E0CE01DF91CF916A
:1009B00008958238910569F1B0F48133910509F405
:1009C0006DC048F48932910509F463C08A329105FB
:1009D00009F469C008958533910509F455C0893338
:1009E0009105B9F00895833E910569F138F4803E90
:1009F0009105B1F0823E910509F10895863E910579
:100A0000A9F1873E9105B9F1843E910509F064C0D2
:100A100023C02091750220FD4FC021FD4DC00895D7
:100A20008091750280FD44C08091760280FF44C0B1
:100A30008091750284FD42C083EE4DC080917502A5
:100A400082FF38C0F5CF8091750282FD33C080915E
:100A5000760280FD31C0ECCF8091760281FF32C0FA
:100A60008091750284FD2AC087EE35C080917502A1
:100A700083FF26C0F5CF8091750283FD21C0809150
:100A8000760281FD1FC0ECCF8091750285FD1CC0F0
:100A90001DC08091750285FD19C016C08091750238
:100AA00086FD16C017C08091750286FD13C010C068
:100AB00089E311C082EE0FC080EE0DC080E00BC054
:100AC00086EE09C084EE07C089E205C085E303C055
:100AD0008AE201C081E390E008959091750292FF4F
:100AE0000DC0282F2871283019F4877F846006C034
:100AF000282F2471243011F48B7F886093FF0DC060
:100B0000282F2871283119F4877E846106C0282F88
:100B10002471243111F48B7E88612091760220FFAC
:100B20000DC0382F3871383019F4877F816006C0C6
:100B3000382F3171313011F48E7F886021FF0DC064
:100B4000282F2871283119F4877E816106C0282F4B
:100B50002171213111F48E7E886194FD877E089584
:100B6000E82FF0E0EE0FFF1FE959FD4F80819181E2
:100B70000895089580EA8A95F1F7089508950C94F0
:100B8000BE050C94BF050C94BE050C94C305CF9311
:100B9000DF93A5E7B1E049E751E061E070E08D91B6
:100BA000E82FE295EF70F0E021A18F70EB0102C019
:100BB000CC0FDD1F8A95E2F7CE019C2F90959223F2
:100BC00091A392A1892B82A34A175B0741F7ACE658
:100BD000B1E041E050E08D91E82FE295EF70F0E058
:100BE00021A18F70BA0102C0660F771F8A95E2F7C4
:100BF000CB01962F9095922391A392A1892B82A34A
:100C000071E0A537B70739F71092600210925F02C2
:100C100010926802109267021092620210926102B2
:100C200010926A021092690210926402109263029A
:100C300010926C0210926B02109266021092650282
:100C400010926E0210926D0284E00E94C806DF913D
:100C5000CF910C9420032F923F924F925F926F920C
:100C60007F928F929F92AF92BF92CF92DF92EF923C
:100C7000FF920F931F93CF93DF9385E7C82E81E0F8
:100C8000D82E0FE512E097E6492E92E0592E312C2E
:100C900088248394912C5801D8016D907C901197F1
:100CA0001D921C92F60181916F01C82FC295CF70E1
:100CB000D0E099A18F70740101C0EE0C8A95EAF71B
:100CC000892F8E2989A38AA12E2C209482218AA380
:100CD0000E94BA05ECE6F1E020E030E06191A62F39
:100CE000A295AF70B0E090968C91D8014D915C9137
:100CF00090E06F7002C0959587956A95E2F780FD48
:100D000008C0C401022E02C0880F991F0A94E2F79E
:100D100002C080E090E0482B592BD8014D935C93A2
:100D20002F5F3F4F29303105C9F689A1282229A21A
:100D30008AA1E82AEAA20E5F1F4F81E0F501208117
:100D400031812615370509F480E0382A401651060E
:100D500009F0A1CF232D44E067E672E08FE592E031
:100D60000E94C9060E942A03832DDF91CF911F9113
:100D70000F91FF90EF90DF90CF90BF90AF909F903A
:100D80008F907F906F905F904F903F902F9008953D
:100D90000895FF920F931F93CF93DF93F82E092F9F
:100DA000162FD72FC42F222349F081E08093AC0166
:100DB0000E94791A9093AB018093AA018091AC01B3
:100DC0008823D9F08091AA019091AB010E94851AE5
:100DD000069798F0EF2DF02FA12FBD2F80E090E027
:100DE0004C2F50E08417950734F4219131912D93C5
:100DF0003D930196F7CF1092AC01DF91CF911F91F7
:100E00000F91FF900895CF939091BD019923C9F060
:100E1000882311F0C0E003C01092BD0112C0809180
:100E2000BD01C817C8F7EC2FF0E0EE0FFF1FE35528
:100E3000FE4F808191810E94AD020E946518CF5FB4
:100E4000EECFCF910895809124018823A1F0809165
:100E5000BE01882381F08091C1019091C201009769
:100E600051F00E94851A893C910528F01092BE012C
:100E700081E00C94030708951092BE0110922401A2
:100E80001092C2011092C10181E00C94030780917D
:100E9000240181110C943C0781E080932401089582
:100EA0005F926F927F928F929F92AF92BF92CF92FA
:100EB000DF92EF92FF920F931F93CF93DF938C01FA
:100EC0007B011092BF01873F2CE5920741F4FB01A3
:100ED000C281CC23C9F081E0809324010AC1883FFC
:100EE000FCE59F0739F4FB01C281CC2369F00E9425
:100EF0003C07FFC0893F9C4539F4FB01C281CC23EC
:100F000019F00E944707F5C080912401882309F455
:100F1000EFC01092C001AA24A394B12C95E0992EA1
:100F2000C1E0D0E0882483948091C001823008F031
:100F3000A1C0C82ED12C9C9CF0019D9CF00D1124C9
:100F4000E65EFE4F4081518177247A9490E0FA0169
:100F5000E90FF11DE90FF11D2591349102171307D7
:100F600009F4792E232B11F09F5FF1CFFFEF7F1251
:100F700002C0612C66C05090BE01F70162806620FD
:100F800069F19C9CF0019D9CF00D1124E65EFE4FE2
:100F90009E0101C0220F7A94EAF73481232B248327
:100FA000552039F3AE0102C0440F551F9A95E2F760
:100FB0004150510930E04217530709F042C02281E5
:100FC00033812115310521F0C9010E94AD0203C012
:100FD00061E00E9449028092BF0133C09E0102C0BD
:100FE000220F331F9A95E2F7215031099C9CF001A2
:100FF0009D9CF00D1124E65EFE4F448150E02417C5
:10100000350769F4228133812115310521F0C901A9
:101010000E94C30205C060E00E94490201C0512C39
:101020009C9CF0019D9CF00D1124E65EFE4FCE01CC
:1010300001C0880F7A94EAF780959481892384838C
:10104000652CB628AA2069F09C9CF0019D9CF00DAF
:101050001124E65EFE4F91E08481811190E0892F9A
:1010600001C080E08170A82E8091C0018F5F8093C5
:10107000C0015ACF8091BF01882351F00E94791A94
:101080009093C2018093C10180E00E9403072CC0AD
:10109000B1100DC081E00E940307AA2029F110922F
:1010A000C2011092C10181E08093BE011DC0F70111
:1010B00082818823C9F08091BE018823A9F00E9413
:1010C000791A9093C2018093C101E091BD01E8308B
:1010D00058F481E08E0F8093BD01F0E0EE0FFF1F0A
:1010E000E355FE4F1183008381E0CB2DC82701C05B
:1010F000C1E08C2FDF91CF911F910F91FF90EF9066
:10110000DF90CF90BF90AF909F908F907F906F9027
:101110005F900895CF93DF93EC0181E0898B8F81FD
:101120000E94081888850E941B180E946518EA8191
:10113000FB81CE010696309729F06C897D89DF917D
:10114000CF910994DF91CF910895CF93DF93FC0164
:101150002081223041F4FB01EC01828193810E94C5
:10116000AD0281E08B87DF91CF910895FC018081F2
:10117000813021F4FB018081918105C0823029F406
:10118000FB01828193810C94AD020895FC01808162
:10119000813021F4FB018081918105C0823029F4E6
:1011A000FB01828193810C94C3020895EF92FF9218
:1011B0000F931F93CF93DF93FC012285211136C03B
:1011C000EC01E380F480F7E5FF1A26E12E9DC001D3
:1011D0002F9D900D1124DC01A050BF4F1496ED916E
:1011E000FC9115978A5F9E4F309729F054966D9128
:1011F0007C915597099586E18E9D80018F9D100DFC
:10120000112400501F4FF80187810E940E18F80129
:1012100080850E9421180E946518188219861B86F5
:101220001E821D821092C4011092C301DF91CF91E2
:101230001F910F91FF90EF900895DF92EF92FF9230
:101240000F931F93CF93DF93FB0122812223A1F100
:10125000209125012F3F81F18C01C0E0D1E0E12CEC
:10126000F12CDD24D39480912501082E000C990BDC
:101270008E159F050CF18E818823C9F089859A858A
:101280008017910739F48091C3019091C401081728
:10129000190769F0DF861C870B878989811103C0D4
:1012A000CE010E948A08CE0106960E94D608FFEF62
:1012B000EF1AFF0A6696D7CFDF91CF911F910F915A
:1012C000FF90EF90DF900895EF92FF920F931F939E
:1012D000CF93DF939C0137552F3F310511F008F074
:1012E00047C040912501042E000C550B42175307AF
:1012F00014F420932501FB017C01828196E1929FE9
:101300008001939F100D1124E801C050DF4F888B9E
:1013100092818E81992311F1FA86E9868F5F8E83FF
:101320000E94791A9E878D870E943B188F830E94A6
:10133000051888870E9418189885892B8887E88166
:10134000F981C8018A5F9E4F309719F06C897D89B9
:101350000995F092C401E092C3010AC0882341F0CC
:101360008989882329F0C8018A5F9E4F0E94D60888
:1013700081E0DF91CF911F910F91FF90EF90089541
:10138000CF92DF92EF92FF920F931F93CF93DF9351
:10139000809125018F3FF1F1F12C96E1E92E0F2D7F
:1013A00010E080912501082E000C990B8017910701
:1013B0008CF1E09EF001E19EF00D1124E050FF4F12
:1013C000C288D388C114D10419F488ECC82ED12C5A
:1013D000E09EE001E19ED00D1124C050DF4F8E81D0
:1013E0008823B1F08D859E850E94851AC816D9067E
:1013F00078F48989811103C0CE010E948A08E09E99
:10140000C001E19E900D11248A5F9E4F0E94D60874
:10141000F394C5CFDF91CF911F910F91FF90EF9083
:10142000DF90CF9008950F931F93CF93DF93C62F34
:10143000D42F122FFC0182818823C9F06093C70149
:101440000E94791A9093C6018093C50180E28C0FA7
:10145000883008F057C0C77081E001C0880FCA9576
:10146000EAF7DF91CF911F910F910C94B50E809107
:10147000C701681330C08091C5019091C6010E94D8
:10148000851A883C910538F500E20D0FCD17B9F0AB
:1014900080E28C0F883040F4C77081E001C0880F73
:1014A000CA95EAF70E94BC0E083028F581E09D2F0E
:1014B000977001C0880F9A95EAF70E94B50E812FA8
:1014C0000E94A20E0830F0F4D77081E001C0880FAE
:1014D000DA95EAF70AC080E28C0F883098F4C7707A
:1014E00081E001C0880FCA95EAF7DF91CF911F9183
:1014F0000F910C94BC0E812FDF91CF911F910F9112
:101500000C94A20EDF91CF911F910F9108959C0131
:10151000CB01233F4CE53407F9F078F4283DFCE596
:101520003F07B9F0293D4CE5340711F1273D3C4513
:1015300031F526E241EE61EE1EC0253FFCE53F0796
:1015400099F070F0263F3C45D1F427E245EE66EE77
:1015500012C027E245EE0EC026E241EE60EE0BC05F
:1015600027E245EE64EE07C026E241EE62EE03C0DC
:1015700028E241E065EE0E94130A80E00895FC0134
:101580008281882319F01092C701089581E008959F
:10159000CF93DF93EC01FB018281882309F41FC103
:1015A000C230FCE5DF0708F41BC1C6319CE5D90752
:1015B00038F09E012A5F3C452930310508F010C102
:1015C0000E940E199093760280937502C031ECE56B
:1015D000DE0709F4C3C008F041C0C8308CE5D80765
:1015E00009F49AC0F0F4C430ECE5DE0709F487C0D2
:1015F00068F4C2308CE5D80709F477C0C330DC4505
:1016000009F0E3C080917502826076C0C630ECE5D7
:10161000DE0709F46EC008F07BC080917502886017
:101620006BC0CC308CE5D80709F485C068F4CA30AB
:10163000ECE5DE0709F474C008F079C00E94971148
:1016400080917502806858C0CE308CE5D80709F4C7
:1016500076C008F07FC0809175028BC0CB3FECE56F
:10166000DE0709F44FC018F5C3318CE5D80709F43B
:101670007DC078F4C131ECE5DE0709F473C0C231F6
:10168000DC4509F0A2C00E949711809175028F7706
:1016900033C0C5318CE5D80709F472C008F486C0A0
:1016A000CA3FDC4509F091C0809176023EC0CF3F31
:1016B000FCE5DF0709F45FC058F4CD3F9CE5D9078E
:1016C00009F444C008F43FC08091760282602DC0C6
:1016D000C130FDE5DF0709F475C008F45DC0C23014
:1016E000DD4509F072C080E06EC0809175028160B6
:1016F00003C08091750280618093750266C08091FD
:10170000750211C0809176028260809376025DC07E
:10171000809175028062F0CF809175028064ECCF79
:101720008091750288608460E7CF8160EECF809100
:1017300075028E7FE1CF809175028D7FDDCF809124
:101740007502877FD9CF8091760218C0809176028A
:101750008D7FDBCF809175028F7ECECF8091750219
:101760008F7DCACF809175028F7BC6CF8091750225
:10177000877F8B7FC1CF809176028D7F8E7FC5CF93
:101780008091750282FB222720F991E0922790FB3D
:1017900082F990FB83F9B0CF80917602982F9095D3
:1017A00091708E7F892B90FB81F9AFCF0E949711AA
:1017B0008091750287FB222720F991E0922790FB08
:1017C00087F99ACF81E00E949D19809175029091CE
:1017D00076020E941F190E94971180E001C081E0EB
:1017E000DF91CF910895CF93DF9386319C4571F5BA
:1017F000EB010E940518982F917119F4982F9A7A8D
:1018000001C090E08A812091260130912701882330
:1018100079F081E0911101C080E08093C8019111BD
:1018200002C069E201C065E3C9010E94E4190AC06F
:101830008091C801811102C069E201C065E3C9015C
:101840000E94E6190E94651880E001C081E0DF91E6
:10185000CF9108959093CE018093CD010895E091AA
:10186000CD01F091CE01309721F00190F081E02D73
:10187000099480E00895E091CD01F091CE01309778
:1018800021F00280F381E02D09940895E091CD01CB
:10189000F091CE01309739F022E0DC012C930480E6
:1018A000F581E02D099408952091CB013091CC0170
:1018B0002817390771F09093CC018093CB01E09108
:1018C000CD01F091CE01309721F00680F781E02D17
:1018D000099408952091C9013091CA012817390748
:1018E00071F09093CA018093C901E091CD01F0910C
:1018F000CE01309721F00084F185E02D0994089500
:1019000085B7806885BF85B7806885BF08950895CD
:101910000C94870C0C94880C0C94870C0C94870CFA
:101920000E94800C0E948C0C0C948A0C81E008951B
:101930000E94701A0E94C7050E94FC1A0C948E0C1B
:101940007F928F929F92AF92BF92CF92DF92EF924F
:10195000FF920F931F93CF93DF93CDB7DEB72A97F4
:101960000FB6F894DEBF0FBECDBF0E942B060E94BB
:10197000960C811111C08FEF89838A831B820E948C
:10198000791A8160782F9D838C8349815A816B817C
:101990008D810E94500D4FC040EDA42E41E0B42E29
:1019A00000E010E0702E802F0E94B0056C01F50160
:1019B000819091905F01882699268114910431F4D9
:1019C0000F5F1F4F0430110569F7D5CF8091440296
:1019D00081FD0E94B90580E0EE24E394F12C94018E
:1019E0002E213F21232B09F18E837F82CE20DF2001
:1019F00081E0CD2809F480E088870E94791A81600F
:101A0000782F9A8789874E815F8168858A850E94B1
:101A1000500D000F111FF801E053FE4F808191819E
:101A2000E826F926F182E08206C08F5FEE0CFF1CEB
:101A30008930A9F6C5CF0E948E1C0E942F0C909170
:101A4000CF018917C9F00E942F0C8093CF012A96ED
:101A50000FB6F894DEBF0FBECDBFDF91CF911F91BF
:101A60000F91FF90EF90DF90CF90BF90AF909F903D
:101A70008F907F900C9437032A960FB6F894DEBFB0
:101A80000FBECDBFDF91CF911F910F91FF90EF90CF
:101A9000DF90CF90BF90AF909F908F907F900895F0
:101AA000CF93DF93CDB7DEB72B970FB6F894DEBF99
:101AB0000FBECDBF4F83588769877A878B87DE013A
:101AC000119686E0FD0111928A95E9F785E0FE0105
:101AD000379601900D928A95E1F70E94D3178823DB
:101AE00019F082E00E94D7180E94A61781110E9467
:101AF000571849815A816B817C818D819E810E941A
:101B0000A1142B960FB6F894DEBF0FBECDBFDF91A8
:101B1000CF910895FC01808191810E9475170895ED
:101B2000CF93882309F4A4C0C82F8238C1F40E943F
:101B30002F0C81FD9DC069E38091260190912701C2
:101B40000E94E4190E9465182FEF81EE94E0215065
:101B500080409040E1F700C0000069E319C083387D
:101B600001F50E942F0C80FD83C063E58091260162
:101B7000909127010E94E4190E9465182FEF81EED1
:101B800094E0215080409040E1F700C0000063E500
:101B900080912601909127010E94E619CF910C9423
:101BA00065188438C1F40E942F0C82FD61C067E47F
:101BB00080912601909127010E94E4190E946518E6
:101BC0002FEF81EE94E0215080409040E1F700C07B
:101BD000000067E4DDCF8CEF8C0F813AD0F46C2FDE
:101BE00080912601909127010E94AE19882349F027
:101BF0006C2F80912601909127010E94E6190E9486
:101C000065186C2F80912601909127010E94E4199C
:101C1000C5CF80E28C0F883048F4C77081E001C0E6
:101C2000880FCA95EAF70E940818B8CFEBE5EC0FC9
:101C3000E33040F4F0E0E955FE4F808190E0CF9131
:101C40000C94540CE8E5EC0FE73150F4F0E0EE0FA3
:101C5000FF1FE758FE4F80819181CF910C946A0C51
:101C6000C03F30F08C2F0E94961BCF910C94831CA8
:101C7000CF910895882309F464C0823879F40E94D2
:101C80002F0C81FF5EC069E38091260190912701AE
:101C90000E94E4190E94651869E310C08338B1F40A
:101CA0000E942F0C80FF4DC063E58091260190912A
:101CB00027010E94E4190E94651863E580912601BE
:101CC000909127010E94E6190C946518843879F4E4
:101CD0000E942F0C82FF35C067E48091260190910D
:101CE00027010E94E4190E94651867E4E7CF9CEF82
:101CF000980F913A10F4682FE1CF90E2980F983046
:101D000050F4877091E001C0990F8A95EAF7892F06
:101D10000E940E18D9CF9BE5980F933020F480E0F5
:101D200090E00C94540C98E5980F973120F480E0E3
:101D300090E00C946A0C803F20F00E94FE1B0C94F3
:101D4000831C0895CF93C82F0E94900DC93349F486
:101D50002FEF87EE93E0215080409040E1F700C0E4
:101D600000008C2FCF910C943A0E882321F00E9412
:101D700008180C9465180895882321F00E940E1805
:101D80000C9465180895CF92DF92EF92FF920F9313
:101D90001F93CF93DF937C01062FC72FFC01D581C2
:101DA000D295DF70128111110E9428180E94FE172F
:101DB000882379F0112369F080E2800F883048F0A1
:101DC00082E00E94D7180E94FE1791E0D82ED926F3
:101DD00001C0D12CCC2EC2948FE0C8228C2D90E073
:101DE000FC01EA5AFF4F0C94B6248C2F807FCF70F1
:101DF000882311F0C295C07F112399F0CC2309F4F8
:101E0000ECC180E2800F883010F0011104C08C2FEB
:101E10000E94081803C08C2F0E941B180E9465188E
:101E2000DCC1802F0E943A0ECC2309F4FCC180E271
:101E3000800F883010F0011104C08C2F0E940E1802
:101E400003C08C2F0E9421180E946518ECC18C2FB2
:101E5000807FCF70803211F0C295C07F002319F0CF
:101E6000013059F134C01123B1F0DD2381F0D130BC
:101E700031F40E943B188C2B0E944318D4C1D330FC
:101E800031F40E9457188C2F0E94A31824C00E947E
:101E90003B188C2B21C0DD2369F0D13041F40E9426
:101EA00005188C2309F4BFC10E94AC1803C0D330BD
:101EB00009F4B9C10E9457181FC0112321F0D43072
:101EC00008F0B1C108C0D33008F0ADC115C011236E
:101ED00031F0D11182C18C2F0E94B50EA4C1DD2337
:101EE00059F0093309F08BC1FFEF27EE83E0F15081
:101EF00020408040E1F781C18C2F0E94BC0E93C12D
:101F00008C2F86958695837019F0813061F08BC196
:101F1000112321F0802F9C2F937002C080E090E06D
:101F20000E94540C88C1112321F0802F9C2F9370A4
:101F300002C080E090E00E946A0C7DC11123F9F09C
:101F4000053F51F0063F71F0043FA9F480916F0204
:101F50009091700281600BC080916F02909170022D
:101F6000826005C080916F029091700284609093AE
:101F7000700280936F02802F0E94961B1EC0053F47
:101F800051F0063F71F0043FA9F480916F029091E7
:101F900070028E7F0BC080916F02909170028D7FD6
:101FA00005C080916F02909170028B7F90937002B8
:101FB00080936F02802F0E94FE1B0E94831C3BC1F6
:101FC0008C2F837009F045C0111131C1402F42950B
:101FD00046954770440F440F602F6F70862F90E036
:101FE000A0E0B0E0042E04C0880F991FAA1FBB1FF9
:101FF0000A94D2F704FF10C00FE010E020E030E0B8
:1020000004C0000F111F221F331F4A95D2F70095FD
:1020100010952095309503C000E010E09801C6951A
:10202000C695C370BC01CD01602B712B822B932B05
:10203000C23049F058F4C13019F00E94F215F7C0CF
:102040000E94E015F4C00E940416F1C00E94DE1543
:10205000EEC0112319F08C2F817001C08695882362
:1020600009F4E5C0402F429546954770440F440F50
:10207000602F6F70862F90E0A0E0B0E0042E04C0C7
:10208000880F991FAA1FBB1F0A94D2F704FF10C024
:102090000FE010E020E030E004C0000F111F221F0D
:1020A000331F4A95D2F7009510952095309503C0BF
:1020B00000E010E09801C695C695C370BC01CD0143
:1020C000602B712B822B932BC23049F058F4C13016
:1020D00019F00E94B716ABC00E94A516A8C00E94B6
:1020E000C916A5C00E941816A2C0CF70112339F0DE
:1020F0008C2F0E943E16802F0E94B50E98C0802F14
:102100000E94BC0E8C2F0E945F1691C0023F01F10D
:1021100028F4003F41F0013FA1F05AC0033FF9F01D
:10212000043F39F155C0112341F0D33008F07BC092
:102130008C2F8F710E94841676C0D43008F073C043
:10214000F7CF112339F08C2F8F710E943E166BC090
:102150001123C9F38C2F8F710E945F1664C0112365
:1021600029F08C2F8F710E9429165DC00E942416C1
:102170005AC01123C9F00E94A3170E940E180E9492
:10218000CF17843039F40E94CE188C2F8F710E94A3
:102190005F166CC0D33008F069C0CF718C2F0E94DD
:1021A0003E1663E08C2F0DC00E94A3170E940818F2
:1021B000D33050F00E94CE180E94AC1864E08C2FEF
:1021C0008F710E94B81852C081E00E94D7184EC08B
:1021D000112339F0DD2309F4B6CF802F0E94900D32
:1021E00022C0DD2309F4B6CF093349F49FEFE7EEAF
:1021F000F3E09150E040F040E1F700C00000802F94
:102200000E943A0E10C04C2F4F70602FC7010E94E1
:10221000A2030E944F150FC04C2F4F70602FC701B3
:102220000E94A50308C088EF8C0D843020F40E9422
:102230002F0C0E943703DD20D9F00E94CF1780FDBC
:1022400017C0F70112820E94C9170E943E16C701EB
:102250000E9441110E94C917DF91CF911F910F91E8
:10226000FF90EF90DF90CF900C945F16D12CDFCFD2
:10227000DF91CF911F910F91FF90EF90DF90CF9062
:1022800008950F931F93CF93DF93EC019881898179
:102290002B813C81232B31F08F3F31F481E09F3F34
:1022A00019F403C081E001C080E080FD13C0CE01BD
:1022B0000E945603882371F0688179818A810E9487
:1022C00080178C010E94DB160E94CC15B801CE014C
:1022D0000E94C30EDF91CF911F910F910895882323
:1022E00021F00E941B180C9465180895882321F092
:1022F0000E9421180C94651808950E9428180E94C5
:1023000038180E9465180E94AD1D0E94831C80E051
:1023100090E00E94540C80E090E00C946A0C809154
:102320002601909127010E94E8190C947D110E94CA
:1023300015180C948F11E92FE295EF704E2F50E095
:10234000FA013297EE30F105B0F4EA59FF4F0C94E0
:10235000B624803F91F018F4883E68F40EC0843FA4
:1023600051F40BC0883E48F0813F29F406C093FB2E
:10237000882780F9089580E0089581E008950E94FB
:1023800075170E949B110895CF93DF9300D000D062
:102390001F92CDB7DEB70F900F900F900F900F9058
:1023A000DF91CF910895CF93DF9300D000D000D07C
:1023B000CDB7DEB726960FB6F894DEBF0FBECDBF01
:1023C000DF91CF9108951F93CF93DF93C091D901EF
:1023D00016E08091DA01C81799F0D0E01C9FF00157
:1023E0001D9FF00D1124E552FE4F40815181628105
:1023F0007381848195810E94D3112196C770E9CFA2
:10240000DF91CF911F91089540910B0250910C02E2
:1024100060910D0270910E0280910F029091100256
:102420000C94D3112091D9019091DA0156E029172B
:10243000A9F030E0529FF001539FF00D1124E552B6
:10244000FE4F7181761306C07081781303C07281CC
:10245000741306C02F5F3F4F2770E9CF80E00895C7
:1024600081E00895CF938091100282958F7009F0DA
:102470005FC080910D02882309F45AC08091D90170
:10248000B091DA0170910B02A0910C0240910E0202
:1024900050910F0291E07F3F09F090E0692FC6E074
:1024A0008B1709F445C04115510521F0AF3F21F0CC
:1024B00020E003C021E001C0262F90E020FD35C0C0
:1024C000C89FF001C99FF00D1124E552FE4F2181F4
:1024D0002A132BC02081271328C02281211125C057
:1024E000238134812417350710F421503109241B2E
:1024F000350B283C3105C8F4209110022F70206163
:102500002093100226E0289FF001299FF00D11244E
:10251000E052FE4F80818F70806180838BE092E07B
:102520000E944111CF910C94E31101968770B8CFAE
:10253000CF9108959F92AF92BF92CF92DF92EF9288
:10254000FF920F931F93CF93DF93CDB7DEB76197C1
:102550000FB6F894DEBF0FBECDBF7C0185E0F7015A
:10256000DE011D9601900D928A95E1F7D701DC906E
:1025700011960C9111971296CC9030910B024091CC
:102580000C0280910E0290910F02009731F04F3FA4
:1025900031F421E03F3F19F403C021E001C020E005
:1025A00020FD9FC1F701A380B48090900D02992077
:1025B00009F42BC120911002A816B90628F0B50124
:1025C000681B790BCB0104C0809590958A0D9B1DEB
:1025D00011E0883C910590F010E0207F09F0DBC00D
:1025E0007A2DB98AA88A4D2D502F6C2D89890E9489
:1025F000C4118BE092E00E9441116BC1822F807F59
:1026000009F091C0041315C0D31213C01C2DC110C2
:1026100010C02F702061209310020E9404128BE0E2
:1026200092E00E94411180911002D70115968C937F
:1026300075C1A114B10439F00F3F39F481E0BFEF47
:10264000DB1203C003C081E001C080E080FD03C055
:1026500081E08C2502C080E090E080FF15C04C2D09
:10266000602F8D2D0E941212882371F08BE092E072
:102670000E944111EBE0F2E086E0DF011D928A95B5
:10268000E9F70E9404124DC0AB2839F00F3F39F42E
:1026900081E0BFEFDB1203C003C081E001C080E036
:1026A00080FD03C081E08C2502C080E090E0E82F2F
:1026B000E170BE2E80FF2CC04C2D602F8D2D0E940E
:1026C0001212182F811124C0DD860E878D859E85FC
:1026D0000E947517292F22952F70223018F0243070
:1026E00090F405C09F7059F0811109C017C19F7007
:1026F00031F0D70115969C91907F09F40FC1805E4F
:10270000883008F40BC1C7010E9441111B2D06C17E
:102710001C2DCC2009F402C18091100281608093AD
:10272000100210E0FBC0041309C0D31207C0C1108F
:1027300005C080911002F7018583A5C0DD860E8754
:102740008D859E850E94BF11882379F1CC2069F187
:1027500020911002822F82958F7090E0029774F082
:1027600080910B0290910C0298878F831986BB860B
:10277000AA862C87CE0107960E94411186E0F701B8
:10278000ABE0B2E001900D928A95E1F70E9432121F
:102790000E9404120DC0041769F0DD860E878D8536
:1027A0009E850E94BF11811119C0C7010E9441116D
:1027B00011E0B4C0D312F1CFC110EFCF809110025D
:1027C000F7018583C7010E94411186E0EBE0F2E04A
:1027D000DF011D928A95E9F7192DA0C0CC2029F3BD
:1027E00020911002822F82958F7090E0029734F230
:1027F00080910B0290910C029A8389831B82BD8287
:10280000AC822E83CE010196B7CFA816B90628F068
:10281000F501E81BF90BCF0104C0809590958A0D56
:102820009B1D883C910558F010E07A2DB98AA88A42
:102830004D2D502F6C2D89890E94C4114AC01C2D2A
:10284000CC2009F4B2CF041333C0D31231C020918D
:10285000100220FD24C0822F82958F70482F50E0F7
:1028600041155105E1F0D70115962C9315974F307E
:10287000510549F08F5F982F9295907F822F8F702E
:10288000892B15968C93C7010E94411186E0F701B0
:10289000ABE0B2E001900D928A95E1F73DC086E091
:1028A000F701ABE0B2E001900D928A95E1F736C0F6
:1028B000DD860E878D859E850E94BF1181115ECFBA
:1028C00080911002816080931002C7010E94411123
:1028D00025C0EBE0F2E086E0DF011D928A95E9F782
:1028E0001BC0CC2009F461CFDD860E878D859E85C7
:1028F0000E94BF11182F882309F457CF86E0F701F3
:10290000ABE0B2E001900D928A95E1F78BE092E0A6
:102910000E948A0D0E9432120E940412812F619639
:102920000FB6F894DEBF0FBECDBFDF91CF911F91E0
:102930000F91FF90EF90DF90CF90BF90AF909F905E
:1029400008951F93CF93DF93CDB7DEB72C970FB6C3
:10295000F894DEBF0FBECDBF4F83588769877A8753
:102960008B879C87CE0107960E949A128823D1F00C
:102970009F8188852A853B85232B31F08F3F31F459
:1029800081E09F3F19F403C081E001C080E080FD39
:1029900047C04F81588569857A858B859C850E94C3
:1029A000D3113EC086E0FE013796DE0111960190FC
:1029B0000D928A95E1F7FF81E8856A857B8561152F
:1029C000710531F0EF3F31F481E0FF3F19F403C0AE
:1029D00081E001C080E080FD23C02091DA0130E079
:1029E000C9010196877099274091D90150E0841759
:1029F0009507F1F1F983EA837D836C8396E0929FDA
:102A0000D001939FB00D1124A552BE4FFE01319607
:102A100001900D929A95E1F78093DA010E94E311FB
:102A200016E08091D9019091DA01891771F1189F10
:102A3000C001112485529E4F0E949A12882329F1C9
:102A4000E091D9011E9FF0011124E552FE4F408113
:102A5000518162817381848195810E94D31180911B
:102A6000D90190E00196877099278093D901D9CF39
:102A70000E9497111092DA011092D901EBE0F2E076
:102A800086E0DF011D928A95E9F72C960FB6F8943F
:102A9000DEBF0FBECDBFDF91CF911F910895EF92A2
:102AA000FF920F931F93CF93DF938C01892B09F42F
:102AB0006CC0F12CEE24E394E8012196F801849196
:102AC000843740F4843008F051C0813081F0823086
:102AD00019F15BC0853709F444C0A8F19CE7980F51
:102AE000903708F052C08F770E943A0E41C00E5FB7
:102AF0001F4FFE01849190E2980F983050F4877038
:102B0000FE2D01C0FF0F8A95EAF78F2F0E942B1828
:102B100014C00E94900D2DC00E5F1F4FFE018491C6
:102B200090E2980F983060F48770FE2D01C0FF0F7F
:102B30008A95EAF78F2F0E9431180E94651819C0F4
:102B40000E943A0E16C00E5F1F4FFE01C491CC23A7
:102B500081F08FE99FE00197F1F700C00000C150BC
:102B6000F6CF0E5F1F4FFE01F49003C00E94900D40
:102B70008E018F2D882309F49FCFEFE9FFE0319775
:102B8000F1F700C000008150F5CFDF91CF911F9188
:102B90000F91FF90EF900895089508950C94CD152E
:102BA0000C94CE150E94D01560932E0270932F02C4
:102BB00080933002909331020C947D110C94D215C5
:102BC0000F931F9300912E0210912F02209130023B
:102BD00030913102602B712B822B932B1F910F911F
:102BE0000C94D2150F931F9300912E0210912F0277
:102BF000209130023091310260237123822393238C
:102C00001F910F910C94D2150F931F9300912E02D8
:102C100010912F02209130023091310260277127EC
:102C2000822793271F910F910C94D2150C94CD15E8
:102C30000E94161660932A0270932B0280932C0236
:102C400090932D020C947D1160E070E0CB010C9408
:102C500018160F931F9341E050E060E070E08A0186
:102C60009B0104C0000F111F221F331F8A95D2F74A
:102C7000C901B8011F910F910C9418160F931F935F
:102C800041E050E060E070E004C0440F551F661F53
:102C9000771F8A95D2F780912A0290912B02A091FA
:102CA0002C02B0912D028A019B01082B192B2A2B93
:102CB0003B2BC901B8011F910F910C9418160F936B
:102CC0001F9341E050E060E070E004C0440F551FE6
:102CD000661F771F8A95D2F740955095609570953D
:102CE00080912A0290912B02A0912C02B0912D028A
:102CF0008A019B01082319232A233B23C901B80118
:102D00001F910F910C9418160F931F9341E050E000
:102D100060E070E004C0440F551F661F771F8A955E
:102D2000D2F780912A0290912B02A0912C02B091AF
:102D30002D028A019B01082719272A273B27C90151
:102D4000B8011F910F910C9418160F931F930091C7
:102D50002A0210912B0220912C0230912D02602B1F
:102D6000712B822B932B1F910F910C9418160F939C
:102D70001F9300912A0210912B0220912C02309176
:102D80002D0260237123822393231F910F910C94B2
:102D900018160F931F9300912A0210912B02209175
:102DA0002C0230912D0260277127822793271F91D3
:102DB0000F910C941816089529E0929F800D11240C
:102DC000E82FE695E695E695877051E001C0550F2E
:102DD0008A95EAF785E0E89FF0011124EF5EFD4F48
:102DE00020E030E070E04081CB01022E02C09695D9
:102DF00087950A94E2F7817081958427852384273B
:102E000081932F5F3F4F2530310569F7089529E001
:102E1000929F800D1124682F669566956695982F70
:102E2000977085E0689FB001112440E050E080E099
:102E3000FB01E40FF51FEF5EFD4F208130E0092E0E
:102E400002C0369527950A94E2F721703327042EA5
:102E500001C0220F0A94EAF7822B4F5F5F4F453083
:102E6000510531F70895BF92CF92DF92EF92FF9212
:102E70000F931F93CF93DF938C01C0902A02D090C1
:102E80002B02E0902C02F0902D0280912E02909166
:102E90002F02A0913002B0913102C82AD92AEA2A21
:102EA000FB2ACFE1D0E0D701C6010C2E04C0B695B5
:102EB000A795979587950A94D2F780FD04C021972E
:102EC00090F7B12C07C0BC2EB8018C2F0E94C10313
:102ED0000197A9F38B2DDF91CF911F910F91FF9057
:102EE000EF90DF90CF90BF900895CF93DF93EC01E8
:102EF0000E943317BE010E94C103DF91CF91089554
:102F00001F93CF93DF93EB019091D801992321F088
:102F1000CB010E94751713C0882349F0CB010E9492
:102F20003317182F682FCE010E94DC1604C0CB0186
:102F30000E940717182FBE01812F0E94C103DF9145
:102F4000CF911F9108958091370208950E94791AB8
:102F500020913502309136028217930750F00E947B
:102F6000791A2091350230913602821B930B9C0115
:102F70000AC00E94791A20913502309136022095BC
:102F80003095280F391F81E02838334108F480E05C
:102F90000895809134028595859585950895809151
:102FA0003402877008950E94791A2091320230917C
:102FB000330282179307A8F00E94791A20913202F7
:102FC00030913302821B930B8838934110F480E0D8
:102FD00013C08091340282FB882780F991E0892711
:102FE0000BC00E94791A2091320230913302209551
:102FF0003095820F931FE8CF81700895909134022D
:10300000977081E009F480E008958091430208956B
:1030100090914302892B809343020895809590916B
:103020004302892380934302089510924302089536
:1030300080914202089590914202892B809342022E
:1030400008958095909142028923809342020895C9
:1030500010924202089590914102892B809341027F
:1030600008958095909141028923809341020895AB
:1030700010924102089580913802089508950C94A9
:103080003E180C943F18CF9390913802981769F02E
:10309000C82F0E94791A9093360280933502C0930C
:1030A00038028C2FCF910C944118CF9108958091C4
:1030B0003802882349F0109238021092360210929A
:1030C000350280E00C9441180895E0912601F091BA
:1030D0002701809143028083E0912601F09127012E
:1030E000908180914202892B8083E0912601F091AA
:1030F0002701908180914102892B80838091380241
:103100008823B9F00E94A61781110E945718E091F8
:103110002601F0912701908180913802892B8083CC
:1031200080912601909127010E94A21981110E948D
:10313000571880912601909127010C943B0C0C9418
:103140003E180C949F1890913702981721F08093A5
:1031500037020C94A118089580913702882329F032
:103160001092370280E00C94A11808950C943E1838
:1031700098E0899F90011124262B209334020E940D
:103180003E160E94791A9093330280933202809106
:1031900034028595859585950C94B6181092340265
:1031A000109233021092320280E00C94B6182091F3
:1031B00034028095822380933402982F977079F49B
:1031C00030E0482F082E000C550B2417350739F036
:1031D0008595859585950E945F160C94CE18089567
:1031E0006FEF7FEF80E090E00C94FC2480E090E0B3
:1031F0000E94D82421E08C3E9E4F09F020E0822FCF
:10320000089582E090E00C94D02483E090E00C9448
:10321000D024682F83E090E00C94DE24CF9384E0E8
:1032200090E00E94D024C82F81E290E00E94D02438
:103230002C2F30E0A901582BCA01CF910895CF93CC
:10324000C92F682F84E090E00E94DE246C2F81E279
:1032500090E0CF910C94DE24AB01BC018FE090E0B4
:103260000C94F024AB01BC0183E190E00C94F024B9
:1032700060E070E0CB010C94321960E070E0CB01AB
:103280000E942C190C9438196CEE7EEF80E090E0CF
:103290000E94FC2460E082E090E00E94DE2460E076
:1032A00083E090E00E94DE2410922E0210922F0202
:1032B000109230021092310260E084E090E00E94AF
:1032C000DE2460E081E290E00E94DE2460E085E0A0
:1032D00090E00E94DE2460E086E090E00E94DE2420
:1032E0006FEF87E090E00E94DE2440E050E0BA01FA
:1032F00088E090E00E94F02460E08DE090E00E9481
:10330000DE2440E050E0BA0188E190E00E94F02421
:1033100060E087E190E00E94DE2440E050E0BA01E6
:103320008CE190E00E94F02460E080E290E00E9456
:10333000DE240C943D190C944419682F8EE090E023
:103340000C94DE24FC01329697E080E0915029F045
:1033500021912223D9F38F5FF9CF0895662349F095
:10336000FC01329608962191621729F0E817F907B7
:10337000D1F780E0089581E008959C01FC01329628
:103380009FEF80E04191461789F09F3F19F441116A
:1033900001C0982F8F5F8630A9F79F3F39F0F90160
:1033A000E90FF11D97FDFA956283089508959C0138
:1033B0002A5F3F4FFC014281461301C012820196F1
:1033C00082179307B9F708950C94BD190C94D71977
:1033D000029626E0FC0111922A95E9F708950895D6
:1033E0000C94EF190C94EF19CF930E94F2190E94DC
:1033F0002B060E94F019C0E08C2F0E94B005892B8B
:1034000029F4CF5FC430C1F780E001C081E0CF91E3
:1034100008950C94EF190C94091A0E940B1A8091CC
:103420007B02843049F11092450220E488E190E06B
:103430000FB6F894A895809360000FBE20936000AB
:1034400080E00E9437030E940B1A83B7817F84605B
:1034500083BF83B7816083BF7894889583B78E7F5D
:1034600083BF0FB6F894A89580916000886180931F
:103470006000109260000FBE08950C94EF190E9436
:1034800097110E942F0C0E9437030C943D1A1F9233
:103490000F920FB60F9211248F939F93AF93BF9308
:1034A00080914502811113C0809171029091720246
:1034B000A0917302B09174024196A11DB11D809339
:1034C000710290937202A0937302B0937402BF9141
:1034D000AF919F918F910F900FBE0F901F901895F5
:1034E00082E084BD93E095BD9AEF97BD80936E0016
:1034F00008952FB7F8948091710290917202A09173
:103500007302B09174022FBF0895CF92DF92EF92B1
:10351000FF920F931F932FB7F8944091710250912F
:10352000720260917302709174022FBF6A017B0175
:10353000EE24FF248C0120E030E0C016D106E20624
:10354000F30610F4415051099A01281B390BC901A7
:103550001F910F91FF90EF90DF90CF900895789496
:103560001F920F920FB60F9211248F939F93AF93D8
:10357000BF938091710290917202A0917302B091F9
:1035800074020196A11DB11D809371029093720285
:10359000A0937302B0937402BF91AF919F918F91EA
:1035A0000F900FBE0F901F90189587E797E79093A5
:1035B0000108809300089AE088E10FB6F894A89576
:1035C000809360000FBE90936000FFCF0C94F018C2
:1035D0000E942B068FE39CE90197F1F700C00000E1
:1035E0000E942B0680E00E94B00580FF04C00E946C
:1035F000E61A0C94D51A08950E94F618811102C09B
:103600000E949B190E940119809344020E940E1986
:1036100090937602809375020E940519682F70E0DE
:1036200080E090E00C94DE1580914D0280FF0BC08D
:1036300060912D0185E0689FB00111247595679513
:10364000759567952BC081FF09C060912D0185E0BC
:10365000689FB00111247595679520C082FF07C04F
:1036600060912D0185E0689FB001112417C09091F1
:103670004C029923D1F060912C01961788F7209184
:103680002D0185E0289F90011124929FA001939F16
:10369000500D112470E0CA010E94A2246038710507
:1036A00040F46115710519F406C065E070E0862FDD
:1036B00008958FE7089581E0089580914D0280FF7D
:1036C00008C06091290170E07595679575956795BB
:1036D00021C081FF06C06091290170E07595679552
:1036E00019C082FF04C06091290170E010C0909160
:1036F0004C02992399F0609128019617A0F78091C8
:103700002901899FC001112470E00E94A224603821
:10371000710540F46115710519F406C061E070E0AF
:10372000862F08958FE7089581E00895803F21F462
:103730000E94141B819504C0813F29F40E94141B30
:10374000809351020895823F21F40E94141B8195B9
:1037500004C0833F29F40E94141B809350020895F3
:10376000893F19F40E945D1B05C08A3F31F40E9415
:103770005D1B81958093520208958B3F21F40E9436
:103780005D1B819504C08C3F29F40E945D1B8093D2
:1037900053020895843F21F480914F02816017C045
:1037A000853F21F480914F02826011C0863F21F451
:1037B00080914F0284600BC0873F21F480914F02BB
:1037C000886005C0883F31F480914F02806180930A
:1037D0004F0208958D3F21F480914D0281600BC00E
:1037E0008E3F21F480914D02826005C08F3F29F405
:1037F00080914D02846080934D020895803F39F49A
:103800008091510287FF6CC01092510269C0813FC4
:1038100029F4809151021816BCF362C090915002B5
:10382000823F29F497FF5CC01092500259C0833F39
:1038300019F41916CCF354C0893F41F48091520217
:1038400018160CF04DC0109252024AC08A3F29F45B
:103850008091520287FF44C0F6CF8B3F39F48091AC
:10386000530287FF3DC0109253023AC08C3F29F4A7
:10387000809153021816BCF333C0843F21F4809129
:103880004F028E7F17C0853F21F480914F028D7FBC
:1038900011C0863F21F480914F028B7F0BC0873F80
:1038A00021F480914F02877F05C0883F31F48091D9
:1038B0004F028F7E80934F0213C08D3F21F4809181
:1038C0004D028E7F0BC08E3F21F480914D028D7F83
:1038D00005C08F3F29F480914D028B7F80934D026C
:1038E0008091500281110EC08091510281110AC055
:1038F00080915202811106C080915302811102C051
:1039000010924C0208958EE492E00E94460C0E94B0
:10391000791A90934B0280934A020895CF93DF93D4
:1039200000D000D000D0CDB7DEB786E0EEE4F2E004
:10393000DE01119601900D928A95E1F78091500277
:10394000811105C080915102882309F47AC08091C9
:103950004802909149020E94851AAC0190914C0254
:10396000992339F020912E0130E02417350758F0C3
:1039700068C020912F018AE0289F9001112424170C
:10398000350718F05EC09F3F19F09F5F90934C027F
:10399000109252021092530280915002181624F491
:1039A0000E94141B809350028091500287FF05C033
:1039B0000E94141B81958093500280915102181629
:1039C00024F40E94141B809351028091510287FFBE
:1039D00005C00E94141B81958093510230915002C2
:1039E0003323E1F0209151022223C1F045EB34034F
:1039F000C0011124992319F09093500203C081E073
:103A00008093500235EB2303C0011124992319F050
:103A10009093510203C081E0809351020E94831C65
:103A200080914A0290914B02909349028093480200
:103A300086E0FE013196AEE4B2E001900D928A95E7
:103A4000E1F780915202811105C0809153028823D1
:103A500009F47AC080914602909147020E94851A2B
:103A6000AC0190914C02992339F020912A0130E069
:103A70002417350758F068C020912B018AE0289F51
:103A8000900111242417350718F05EC09F3F19F0EC
:103A90009F5F90934C0210925002109251028091BD
:103AA0005202181624F40E945D1B809352028091EA
:103AB000520287FF05C00E945D1B819580935202D0
:103AC00080915302181624F40E945D1B80935302C8
:103AD0008091530287FF05C00E945D1B81958093F2
:103AE0005302309152023323E1F0209153022223FA
:103AF000C1F045EB3403C0011124992319F09093D0
:103B0000520203C081E08093520235EB2303C001CF
:103B10001124992319F09093530203C081E08093FC
:103B200053020E94831C80914A0290914B02909311
:103B300047028093460286E0FE013196AEE4B2E091
:103B400001900D928A95E1F726960FB6F894DEBFA4
:103B50000FBECDBFDF91CF910895EEE4F2E086E095
:103B6000DF011D928A95E9F710924C0210924D02E6
:103B7000089580915C020895CF93DF9300D01F9247
:103B8000CDB7DEB790917B02943019F589837B83A2
:103B90006A8382E08093E9008FEF9091E800815082
:103BA00095FD06C095ED9A95F1F700008111F5CFCE
:103BB0008091E80085FF0DC040E050E063E070E0D8
:103BC000CE0101960E9404208091E8008E778093B8
:103BD000E8000F900F900F90DF91CF910895CF9351
:103BE000DF93EC010E94E71F823011F0843031F442
:103BF000BE0184E0DF91CF910C94BC1DDF91CF9189
:103C00000895BC0183E00C94BC1DCF93DF93EC01BD
:103C10000E94E71F823011F08430F9F482E0809333
:103C2000E9008FEF9091E800815095FD06C095ED79
:103C30009A95F1F700008111F5CF8091E80085FF9A
:103C40000CC040E050E066E070E0CE010E9404202D
:103C50008091E8008E778093E800DF91CF910895FE
:103C6000CF93DF93EC010E94E71F823011F0843084
:103C700039F581E08093E9008FEF9091E800815061
:103C800095FD06C095ED9A95F1F700008111F5CFED
:103C90008091E80085FF14C040E050E068E070E0EB
:103CA000CE010E9404208091E8008E778093E80086
:103CB00088E0FE01A4E5B2E001900D928A95E1F75B
:103CC000DF91CF91089580917A02811109C00E94FD
:103CD00095210E94F2218091E20084608093E200AD
:103CE000089510927A020895089508950C943F1A49
:103CF00042E061EC81E00E940E2142E261EC82E050
:103D00000C940E2180917D02833009F460C030F460
:103D1000813071F0823009F499C008958A3009F435
:103D200085C08B3009F46BC0893009F0A7C020C072
:103D300080917C02813A09F0A1C08091E800877FE0
:103D40008093E8008091800290918102892B21F478
:103D500068E084E592E003C060E080E090E070E01D
:103D60000E944F208091E8008B778093E8000895AF
:103D700080917C02813209F081C080918002909113
:103D80008102029708F07AC08091E800877F8093D3
:103D9000E8008091E80082FD05C080917B028111DE
:103DA000F8CF6CC02091F3008091F20090E0922B4C
:103DB000029729F48091F1008B7F813021F480916A
:103DC000F10080935C028091E8008B7753C0809172
:103DD0007C02813A09F052C0809180029091810268
:103DE000892B09F04BC08091E800877F8093E80021
:103DF0008091E80080FFFCCF80913A0136C080912D
:103E00007C028132D9F58091800290918102892BC8
:103E1000A9F58091E800877F8093E8000E94432104
:103E200080917E0280933A010C94971180917C02DC
:103E3000813221F58091E800877F8093E8000E941D
:103E4000432180917F0280935D02089580917C02DE
:103E5000813AA1F48091E800877F8093E800809107
:103E6000E80080FFFCCF80915D028093F10080919B
:103E7000E8008E778093E8000C944321089584B77E
:103E8000877F84BF0FB6F894A89580916000886101
:103E900080936000109260000FBE90E080E80FB643
:103EA000F89480936100909361000FBE0E94900C83
:103EB0000E9495210E94F2218091E200846080930B
:103EC000E20078940E9487240E94980C80E391E09D
:103ED0000E942A0C80917B02853069F40E940D1AA1
:103EE000809179028823B1F30E94F419882391F319
:103EF0000E94EE1FEFCF0E94A00CECCF0C94801F0D
:103F0000292F332723303105C9F060F421303105E2
:103F100081F02230310509F04AC08BE390E022EFB6
:103F200032E049C02132310511F12232310579F1F7
:103F30003EC082E190E02DE233E03DC09927813020
:103F4000910561F040F08230910559F0039779F5C1
:103F5000E8EBF2E008C0EEEEF2E005C0E0EEF2E0E1
:103F600002C0EEEBF2E0849190E09F0124C0611565
:103F7000710541F061307105D1F489E090E02DE1E7
:103F800033E019C089E090E024E033E014C061150B
:103F9000710541F06130710551F481E890E02FE343
:103FA00033E009C080E490E020EC33E004C080E01E
:103FB00090E020E030E0FA01318320830895809181
:103FC0007B02843011F081E0089582E008958091B1
:103FD0005E02811102C00C94DF1F089580E189BD4B
:103FE00082E189BD09B400FEFDCF8091D8008F7DAC
:103FF0008093D8008091E00082608093E0008091FF
:10400000E00081FDFCCF0895CF92DF92EF92FF9206
:104010000F931F93CF93DF93EC018B017A010E94E2
:104020006221811133C0E114F10439F0F70180817C
:104030009181081B190BC80FD91FC12CD12C011558
:10404000110519F18091E80085FD16C08091E80006
:104050008E778093E800E114F10449F0F701808144
:104060009181C80ED91ED182C08285E00FC00E9406
:104070006221882321F30AC089918093F1000150C5
:104080001109FFEFCF1ADF0ADACF80E0DF91CF917D
:104090001F910F91FF90EF90DF90CF9008952091A6
:1040A0008202309183022617370748F061157105A7
:1040B00039F42091E8002E772093E80001C0B9017F
:1040C000FC0120E06115710579F180917B02882364
:1040D000F1F18530F1F18091E80083FD3CC08091E1
:1040E000E80082FD2EC08091E80080FFEBCF209198
:1040F000F3008091F20090E0922B6115710551F070
:104100008830910538F421912093F10061507109B4
:104110000196F3CF21E0089709F020E08091E800B4
:104120008E778093E800CECF2111CFCF0AC0809147
:104130007B02882361F0853061F08091E80083FD87
:104140000AC08091E80082FFF2CF80E0089582E00B
:10415000089583E0089581E00895209182023091CE
:1041600083022617370748F06115710539F420914D
:10417000E8002E772093E80001C0B901FC0120E09F
:104180006115710591F180917B02882309F440C08B
:10419000853009F43FC08091E80083FD3DC08091E7
:1041A000E80082FD2FC08091E80080FFE9CF2091D8
:1041B000F3008091F20090E0922B6115710559F0A7
:1041C0008830910540F424912093F100319661509C
:1041D00071090196F2CF21E0089709F020E0809163
:1041E000E8008E778093E800CBCF2111CCCF0AC0B6
:1041F00080917B02882361F0853061F08091E80036
:1042000083FD0AC08091E80082FFF2CF80E008952C
:1042100082E0089583E0089581E00895982F973013
:1042200068F59093E900981739F07091EC002091AF
:10423000ED005091F00003C0242F762F50E021FDB7
:1042400002C09F5FECCF3091EB003E7F3093EB00DC
:104250003091ED003D7F3093ED003091EB00316007
:104260003093EB007093EC002093ED005093F0003E
:104270002091EE0027FDE5CF80E008958F708093B8
:10428000E90081E0089580917C0287FF11C0809150
:10429000E80082FD05C080917B028111F8CF11C03A
:1042A0008091E8008B770BC080917B02882349F0D6
:1042B0008091E80080FFF8CF8091E8008E778093AE
:1042C000E80008952091E4003091E50095E64091E2
:1042D000EC00842F817040FF23C08091E80080FDB6
:1042E0001DC080917B02882399F0853099F08091E0
:1042F000EB0085FD11C04091E4005091E5002417CA
:10430000350729F3915011F09A01E1CF84E0089527
:1043100082E0089583E0089581E0089580E00895A3
:104320004091E80042FFDDCF08950E9403220E94E1
:104330000B22E0EEF0E0808181608083E8EDF0E028
:1043400080818F77808319BCA7EDB0E08C918E7F40
:104350008C9380818F7E808310927A0208950F93D0
:104360001F93CF93DF930E9403220E940B22C8ED7C
:10437000D0E088818F77888388818068888388816E
:104380008F7D888319BC10927B0210927702109265
:1043900079021092780200EE10E0F80180818B7FA4
:1043A000808388818160888342E060E080E00E94B1
:1043B0000E21E1EEF0E080818E7F8083E2EEF0E07E
:1043C000808181608083808188608083F801808122
:1043D0008E7F8083888180618883DF91CF911F9158
:1043E0000F910895E8EDF0E080818F7E8083E7ED06
:1043F000F0E080818160808384E082BF81E08093EF
:104400007A020C94AF21E8EDF0E080818E7F80830A
:104410001092E20008951092DA001092E1000895DF
:104420001F920F920FB60F9211242F933F934F9329
:104430005F936F937F938F939F93AF93BF93EF930C
:10444000FF938091E10082FF0BC08091E20082FF28
:1044500007C08091E1008B7F8093E1000E94862459
:104460008091DA0080FF1FC08091D80080FF1BC0C0
:104470008091DA008E7F8093DA008091D90080FFEE
:104480000DC080E189BD82E189BD09B400FEFDCF88
:1044900081E080937B020E94631E05C019BC1092CC
:1044A0007B020E94711E8091E10080FF19C0809103
:1044B000E20080FF15C08091E2008E7F8093E200D1
:1044C0008091E20080618093E2008091D800806258
:1044D0008093D80019BC85E080937B020E94751EF2
:1044E0008091E10084FF30C08091E20084FF2CC005
:1044F00080E189BD82E189BD09B400FEFDCF8091D4
:10450000D8008F7D8093D8008091E1008F7E8093CA
:10451000E1008091E2008F7E8093E2008091E200D2
:1045200081608093E20080917702882311F084E01B
:1045300007C08091E30087FD02C081E001C083E0F5
:1045400080937B020E94761E8091E10083FF29C048
:104550008091E20083FF25C08091E100877F8093F6
:10456000E10082E080937B02109277028091E1006B
:104570008E7F8093E1008091E2008E7F8093E20045
:104580008091E20080618093E20042E060E080E0A0
:104590000E940E218091F00088608093F0000E94BC
:1045A000741EFF91EF91BF91AF919F918F917F9179
:1045B0006F915F914F913F912F910F900FBE0F9090
:1045C0001F9018951F920F920FB60F9211242F93E0
:1045D0003F934F935F936F937F938F939F93AF938B
:1045E000BF93CF93DF93EF93FF93C091E900CF7018
:1045F0008091EC00D82FD17080FDD0E81092E900B6
:104600008091F000877F8093F00078940E942623A9
:104610001092E9008091F00088608093F000CD2B2B
:10462000CF70C093E900FF91EF91DF91CF91BF91DF
:10463000AF919F918F917F916F915F914F913F913A
:104640002F910F900FBE0F901F9018951F93CF932F
:10465000DF93CDB7DEB7AA970FB6F894DEBF0FBED3
:10466000CDBFECE7F2E08091F100819322E0E438E5
:10467000F207C9F70E94821E8091E80083FF2EC1D5
:1046800080917C0290917D02492F50E04A30510583
:1046900008F024C1FA01EC58FF4F0C94B62480387E
:1046A00021F0823809F01AC108C0809178029091F7
:1046B0007902992389F082600FC0809180028F7007
:1046C000873008F00BC18093E9008091EB0085FBF7
:1046D000882780F91092E9009091E800977F9093E5
:1046E000E8008093F1001092F100D1C0282F2D7FB7
:1046F00009F0F4C0882319F0823061F0EFC0809196
:104700007E02813009F0EAC0933009F080E08093A6
:1047100079022EC080917E0281112AC08091800290
:104720008F702FEF280F263008F0D8C08093E90053
:104730002091EB0020FF1CC0933021F48091EB000E
:10474000806214C09091EB0090619093EB0021E0A7
:1047500030E0A90102C0440F551F8A95E2F740934B
:10476000EA001092EA008091EB0088608093EB00F1
:104770001092E9008091E800877F8093E8000E9412
:104780004321ACC08111AAC010917E021F77809195
:10479000E3008078812B8093E3008091E800877F9D
:1047A0008093E8000E9443218091E80080FFFCCFC5
:1047B0008091E30080688093E300111102C082E0E1
:1047C00001C083E080937B0289C08058823008F06A
:1047D00085C080917E0290917F028C3D53E09507C9
:1047E00079F583E08A838AE289834FB7F894DE0102
:1047F000139620E03EE051E2E32FF0E050935700A3
:10480000E49120FF03C0E295EF703F5FEF708E2FC1
:1048100090E0EA3010F0C79601C0C0968D939D934A
:104820002F5F243149F74FBF8091E800877F809345
:10483000E8006AE270E0CE0101960E944F2016C0A7
:104840006091800270918102AE014F5F5F4F0E94C4
:104850007E1FBC01892B09F441C09091E800977F2D
:104860009093E80089819A810E94AD208091E800B0
:104870008B778093E80032C0803881F58091E80022
:10488000877F8093E800809177028093F100809188
:10489000E8008E7772CF811121C080917E029091C5
:1048A0007F0299270297D4F48091E800877F809354
:1048B000E80080917E02809377020E9443218091DC
:1048C0007702811106C08091E30087FD02C081E07C
:1048D00001C084E080937B020E94781E8091E800F2
:1048E00083FF0AC08091E800877F8093E800809171
:1048F000EB0080628093EB00AA960FB6F894DEBFBF
:104900000FBECDBFDF91CF911F9108950895CF9332
:1049100080917B028823A1F0C091E900CF70909133
:10492000EC00892F817090FD80E8C82B1092E9007F
:104930008091E80083FD0E942623CF70C093E90098
:10494000CF91089597FB072E16F4009407D077FDBA
:1049500009D00E94BC2407FC05D03EF490958195B7
:104960009F4F0895709561957F4F0895EE0FFF1F3B
:104970000590F491E02D0994AA1BBB1B51E107C0DF
:10498000AA1FBB1FA617B70710F0A61BB70B881FDF
:10499000991F5A95A9F780959095BC01CD0108956E
:1049A000F999FECF92BD81BDF89A992780B50895F7
:1049B000A8E1B0E042E050E00C940425262FF999DC
:1049C000FECF92BD81BDF89A019700B4021639F06E
:1049D0001FBA20BD0FB6F894FA9AF99A0FBE08953F
:1049E0000396272F0E94DF240E94DE24252F0E9499
:1049F000DF24242F0C94DF240196272F0E94DF242C
:104A00000C94DE24DC01CB01FC01F999FECF06C039
:104A1000F2BDE1BDF89A319600B40D92415050407C
:084A2000B8F70895F894FFCFE8
:104A2800A508B608C6080000000000000000000045
:104A380000000000160133003400B202000000AC90
:104A48000200000001FF39022808641E140A321E01
:104A5800B91D301E051E011EEF1D01E200E900EA26
:104A680000B500B600B700CD008301CC008A0192E2
:104A78000194012102230224022502260227022A88
:104A880002B300B4006F007000818283946697C6F9
:104A98003431333236F4F5F6F7E200E900EA00B5CE
:104AA80000B600B700CD008301CC008A01920194C2
:104AB800012102230224022502260227022A02B328
:0A4AC80000B4006F007000818283CB
:00000001FF
