:100000000C94E1050C9428060C9428060C94280600
:100010000C9428060C9428060C9428060C942806A8
:100020000C9428060C9428060C9433280C9405296B
:100030000C946A200C9428060C9428060C9428062C
:100040000C9428060C9428060C9428060C94280678
:100050000C9428060C94D2200C9428060C942806A4
:100060000C9428060C9428060C9428060C94280658
:100070000C9428060C9428060C9428060C94280648
:100080000C9428060C9428060C9428060C94280638
:100090000C9428060C9428060C9428060C94280628
:1000A0000C9428060C9428060C942806181518158C
:1000B0004A154A15A315C115361736170316981693
:1000C000A916A9162617361736172F17CC17CC17CF
:1000D000DE17DE17D517DE17DE17DE17CC17CC17A5
:1000E000DA17DE17DE17DA1772299929912A99296A
:1000F000912AE529082A912A5F2A6E2A5465737489
:10010000204D6163726F204D35000101280062743B
:100110002074776974746572203C01043135307C39
:100120000102E0760103E001043135307C01014D2C
:1001300001043135307C0102E001012A0103E001B4
:10014000043135307C0102E001012A0103E00101A4
:100150002A3E0001014A01043135307C0102E001F0
:10016000014F0103E001043130307C0102E0010164
:100170004F0103E001043130307C0102E001014F06
:100180000103E001043130307C01014C01043130C5
:10019000307C0102E101014A0103E1010431303008
:1001A0007C01012A000102E00101500103E001018C
:1001B0002A2E01043135307C000102E0010150019A
:1001C00003E001043135307C0102E00101500103FC
:1001D000E001043135307C01012A2E010431353033
:1001E0007C000102E101014D0103E101012A2E6AB7
:1001F000706701043135307C00576F742074686576
:1002000020666F636B2064696420796F75206A755E
:10021000737420666F6B696E272073617920616249
:100220006F7574206D652C20796F75206C697474FE
:100230006C652062657463683F2049E280996C6C4C
:10024000206861766520796F75206B6E6F77204925
:100250002067726164756174656420746F70206FCB
:1002600066206D7920636C61737320696E207468F9
:1002700065204D49362C20616E642049E2809976D4
:1002800065206265656E20696E766F6C76656420A8
:10029000696E206E756D65726F757320736563721C
:1002A0006574207261696473206F6E2041666768AF
:1002B000616E697374616E2C20616E6420492068E0
:1002C000617665206F7665722033303020636F6E03
:1002D0006669726D6564206B696C6C732E204920B1
:1002E000616D20747261696E656420696E20746549
:1002F00061206472696E6B696E272C20627275765C
:1003000020616E642049E280996D207468652074D4
:100310006F7020746561206472696E6B276120695B
:100320006E2074686520656E7469726520554B2077
:1003300061726D656420666F726365732E20596FFC
:100340007520617265206E6F7468696E6720746FC6
:10035000206D6520627574206A75737420616E6FFC
:1003600074686572207461726765742E2049207705
:10037000696C6C207769706520796F752074686589
:1003800020666F636B206F757420776974682070C6
:100390007265636973696F6E20746865206C696B40
:1003A0006573206F662077686963682068617320D1
:1003B0006E65766572206265656E207365656E2078
:1003C0006265666F7265206F6E2074686973206263
:1003D0006C6F6F64792045617274682C206D617256
:1003E0006B206D7920666F636B696E2720776F7263
:1003F00064732E20596F75207468696E6B20796F55
:10040000752063616E20676574206177617920775C
:1004100069746820736179696E67207468617420FB
:10042000736869746520746F206D65206F766572DE
:100430002074686520496E7465726E65743F20543F
:1004400068696E6B20616761696E2C20666F636BF3
:100450006527722E20417320776520737065616B6C
:10046000204920616D20636F6E74616374696E67EB
:10047000206D7920736563726574206E6574776F83
:10048000726B206F66207370696573206163726F91
:1004900073732074686520554B20616E6420796FFA
:1004A0007572204950206973206265696E672074F7
:1004B0007261636564207269676874206E6F77206B
:1004C000736F20796F752062657474657220707225
:1004D000657061726520666F722074686520737440
:1004E0006F726D2C20627275762E205468652073B1
:1004F000746F726D20746861742077697065732001
:100500006F75742074686520706174686527632056
:100510006C6974746C65207468696E6720796F7596
:100520002063616C6C20796F7572206C6966652E32
:1005300020596F75E28099726520666F636B696EF2
:100540002720646561642C20627275762E20492014
:1005500063616E20626520616E7977686572652CD3
:1005600020616E7974696D652C20616E642049206C
:1005700063616E206B696C6C20796F7520696E20E9
:100580006F76657220736576656E2068756E64722D
:10059000656420776179732C20616E6420746861D2
:1005A00074E2809973206A75737420776974682087
:1005B0006D7920626172652068616E64732C2062BF
:1005C0007275762E204E6F74206F6E6C7920616D7F
:1005D000204920657874656E736976656C7920743E
:1005E0007261696E656420696E20756E61726D65F9
:1005F0006420636F6D6261742C20627574204920E1
:10060000686176652061636365737320746F20741D
:10061000686520656E7469726520617273656E61CC
:100620006C206F662074686520556E69746564205F
:100630004B696E67646F6D20616E64204920776935
:100640006C6C2075736520697420746F20697473F5
:100650002066756C6C20657874656E7420746F20EC
:100660007769706520796F7572206D697365726145
:10067000626C652061727365206F666620746865C0
:100680002066616365206F662074686520636F6E05
:1006900074696E656E742C20796F75206C69747442
:1006A0006C6520736869746562616C6C2E204966A4
:1006B000206F6E6C7920796F7520636F756C642084
:1006C00068617665206B6E6F776E20776861742045
:1006D000756E686F6C792072657472696275746981
:1006E0006F6E20796F7572206C6974746C6520E28E
:1006F000809C636C6576652761E2809D20636F6DE9
:100700006D656E74207761732061626F75742074FB
:100710006F206272696E6720646F776E2075706FEC
:100720006E20796F752C206D6179626520796F7507
:1007300020776F756C6420686176652068656C64ED
:1007400020796F757220666F636B696E2720746FF6
:100750006E6775652E2042757420796F7520636F02
:10076000756C646EE28099742C20796F75206469D1
:10077000646EE28099742C20616E64206E6F772025
:10078000796F75E28099726520706179696E672072
:1007900074686520626C6F6F64792070726963653C
:1007A0002C20796F7520676F6464616D6E206172B3
:1007B0007365686F6C652E20492077696C6C2073B7
:1007C00068697465206675727920616C6C206F763B
:1007D000657220796F7520616E6420796F7520775E
:1007E000696C6C2064726F776E20696E2069742E5C
:1007F00020596F75E28099726520626C6F6F647921
:1008000020646561642C20627275762E00010431CB
:100810003235307C0001043530307C76001A000916
:1008200000000014001A00000014001A0009001350
:10083000000A000D000F0018001C000461150016CE
:1008400000170007000B00110008000C001D641BBE
:10085000000600190005000E001000366437610024
:1008600000000002552A432C440057120038682823
:100870004514001A000800150017001C0018000C91
:1008800000120004611600070009000A000B000DA9
:10089000000E000F001D641B00060019000500116A
:1008A000001000366437610000000002552A432C16
:1008B000441300005738682845000000000000007D
:1008C0000000000000000000000000000000000028
:1008D0000000000000000000000000000000000018
:1008E0000000000000000000000000000000000008
:1008F00000000000000000000000000000000000F8
:10090000000E574A0052004D0049002302240225E0
:100910000201570D57500051004F004C001E021F9E
:10092000022002210211570A57095708571057078A
:10093000570557025703570000000029000100AE79
:10094000000657220204570100F700F500F000F4FA
:1009500000F9000100420043004400F800F200F1F9
:1009600000F300FA00F4003E003F00400001000BDD
:1009700057F600FB00FC0046003A003B003C00003C
:100980000000000C572B000100450041003D000114
:1009900000005C0100010001000100240025002688
:1009A000005700095D0D5D115D0F5D0E5D21002298
:1009B0000023005500085D01004604160A460C1E7F
:1009C000001F00200027000000000039000C570124
:1009D0000056005400630001000000000000000009
:1009E000002A2B280000000000000000000000008A
:1009F0000000000029000000002C1E3420212224C9
:100A0000342627252E362D3738271E1F2021222356
:100A10002425263333362E37381F040506070809E8
:100A20000A0B0C0D0E0F10111213141516171819AE
:100A30001A1B1C1D2F3130232D350405060708090C
:100A40000A0B0C0D0E0F101112131415161718198E
:100A50001A1B1C1D2F3130354C0000000000000017
:100A6000000000000000000000000000007E0F00F9
:100A7000D4FFFFFFC700000078040330000000200F
:100A800003520065007600690075006E0067003350
:100A900000340020006200790020004E0052000067
:100AA000000C03670074006900700073000000040C
:100AB00003090409023B00020100A0FA0904000036
:100AC0000103010100092111010001224000070575
:100AD000810308000A090401000103000000092144
:100AE000110100012281000705820320000A120182
:100AF000100100000008EDFE0000010001020301EA
:100B000005010902A10185020901A10005091901D8
:100B100029051500250195057501810295017503CB
:100B200081010501093009311581257F950275087C
:100B3000810609381581257F950175088106050C08
:100B40000A38021581257F950175088106C0C00508
:100B5000010980A101850319012AB700150126B7F3
:100B600000950175108100C0050C0901A1018504E3
:100B700019012AA002150126A00295017510810015
:100B8000C005010906A101050719E029E71500259F
:100B90000195087501810295017508810105071904
:100BA0000029FF150026FF0095067508810005083D
:100BB00019012905950575019102950175039101AA
:100BC000C00011241FBECFEFDAE0DEBFCDBF04B6F8
:100BD00003FE27C08091160490911704A091180479
:100BE000B09119048730904BA740B04BD1F41092CC
:100BF000160410921704109218041092190414BECF
:100C000084B7877F84BF0FB6F894A8958091600061
:100C1000886180936000109260000FBEE0E0F8E30E
:100C2000099513E0A0E0B1E0EEE6F6E502C005901C
:100C30000D92AC33B107D9F724E0ACE3B3E001C0C7
:100C40001D92A631B207E1F70E9462250C94352B64
:100C50000C940000CF93DF93EC018881813029F060
:100C6000823039F48BE491E002C08EE491E00E947E
:100C70003F08CE01DF91CF910C94F90ECF93DF9313
:100C8000EC018881823039F0833041F0813051F4B9
:100C90008AE191E005C087E193E002C087E191E03D
:100CA0000E943F08CE01DF91CF910C94F90ECF93B3
:100CB000DF93EC018881823039F0833041F081305C
:100CC00051F486E091E005C089E191E002C08BE13A
:100CD00091E00E943F08CE01DF91CF910C94F90E74
:100CE000CF93DF93EC018881823039F0833041F07B
:100CF000813071F48DE492E005C08DE493E002C090
:100D000084E091E00E943F0886E091E00E943F0865
:100D1000CE01DF91CF910C94F90ECF93DF93EC01CC
:100D20008881823039F0833041F0813051F48EE493
:100D300090E005C08DE490E002C08DE491E00E9457
:100D40003F08CE01DF91CF910C94F90ECF93DF9342
:100D5000EC018881823039F0833041F0813051F4E8
:100D60008BE490E005C08AE490E002C08AE491E060
:100D70000E943F08CE01DF91CF910C94F90ECF93E2
:100D8000DF93EC018881823039F0833041F081308B
:100D900051F48AEA90E005C089EA90E002C088EA4E
:100DA00090E00E943F08CE01DF91CF910C94F90EA4
:100DB000CF93DF93EC018881823069F028F4813091
:100DC00089F48EEA90E00CC0833041F0843051F415
:100DD0008FEA90E005C08BEA90E002C08CEA90E0D8
:100DE0000E943F08CE01DF91CF910C94F90ECF9372
:100DF000DF93EC018881823081F485EF90E00E94DE
:100E00003F0885E198E00E9441098DE098E00E944A
:100E1000410988E290E00E943F08CE01DF91CF9126
:100E20000C94F90E882319F0813031F0089566236F
:100E300049F089E290E004C0662321F08BE290E063
:100E40000C943F080895FC018081823069F0833062
:100E5000A1F08130D9F4818581111BC0828588235E
:100E6000C1F082E090E008958185811115C08285EE
:100E7000882391F084E090E00895818581110FC06E
:100E80008285882361F086E090E0089580E090E01C
:100E9000089581E090E0089583E090E0089585E072
:100EA00090E008950E9423078330910579F034F48F
:100EB0008130910549F0029739F008958430910509
:100EC00029F0059729F008958AEA03C089EA01C04C
:100ED00088EA0C94B3130E9423078330910579F0BC
:100EE00034F48130910549F0029739F00895843047
:100EF000910529F0059729F008958AEA03C089EA47
:100F000001C088EA0C945D14CF93DF93EC010E943A
:100F10002C1FBE0180E090E0DF91CF910C94011C6A
:100F2000CF93FB018D302DE5920709F140F4883015
:100F30002DE5920799F089309D4551F043C08F30DF
:100F40002DE5920761F1C8F081319D4599F13AC0D4
:100F5000C281CC23C1F182E090E005C0C281CC23E4
:100F600091F181E090E00E948407C0E02CC0C28132
:100F7000CC2341F189EF91E022C0C281CC2311F151
:100F800082EE91E00E94410989EB91E00E944109C3
:100F900085EA91E00E94410983E591E010C0C28199
:100FA000CC2319F08EE091E00AC08AE091E00E9423
:100FB000410908C0C281CC2329F08CEF90E00E9447
:100FC000410901C0C1E08C2FCF9108959C013A9551
:100FD00021153F4138F5DC01AA27B270AC01442746
:100FE00054709C012227387094FF0FC090FF02C0FC
:100FF00080E101C080E0AB2B09F08062452B09F055
:101000008064232B69F080680BC0892F8170AB2B23
:1010100009F08260452B09F08460232B09F0886079
:10102000FB0109940895CF93DF93EC01805E910951
:10103000089710F0209719F468ED74E102C062E996
:1010400077E1CE010E94E6078C2FDF91CF910C94BF
:10105000B313CF93DF93EC010E945D14CE01805E49
:101060009109089710F0209719F46FED74E102C010
:1010700069E977E1CE01DF91CF910C94E607CF9338
:10108000DF93EC010E941308CE01DF91CF910C9405
:10109000290881E008950C9490071F93CF93DF9364
:1010A00000D000D01F92CDB7DEB749835A836B833F
:1010B00020916A0389819A81211112C0662349F027
:1010C0000E94561D182F682F89819A810E94FF1C4B
:1010D00003C00E942A1D182F69817A81812F04C0C4
:1010E0000E94561D69817A810F900F900F900F908A
:1010F0000F90DF91CF911F910C94CA09FC014081A0
:1011000051816281738184810C944D08FF920F9309
:101110001F93CF93DF93E82FF0E0E752F64FF49060
:10112000C82FC695C695C695D0E0FE01E759F54F84
:101130000491877010E0082E02C0159507950A9457
:10114000E2F701701127FE01E75AF54FC491D0E094
:1011500002C0D595C7958A95E2F7C170DD270115C4
:10116000110519F081EE0E94B313209719F086EE55
:101170000E94B3138F2D0E94C514CD2B19F086EE5B
:101180000E945D14012B41F081EEDF91CF911F9100
:101190000F91FF900C945D14DF91CF911F910F91EF
:1011A000FF900895EF92FF920F931F93CF93DF93D9
:1011B0008C01F62E8AE0E82EF8018491882309F448
:1011C00059C0813009F044C0E8012196FE018491A4
:1011D000813041F42196FE011491812F0E94B313B6
:1011E000812F0FC0823039F4E8012296FE018491EC
:1011F0000E94B31330C0833039F4E8012296FE0117
:1012000084910E945D1427C0843029F5E80122965C
:10121000FE01249180E090E030E0205331092A3033
:10122000310560F4E89EA001E99E500D1124C9012A
:10123000840F951F2196FE012491EECF009759F05F
:10124000EFE9FFE03197F1F700C000000197F6CF1A
:101250000E948608E8018E010F5F1F4F8F2D8823A3
:1012600009F4AACFEFE9FFE03197F1F700C00000E1
:101270008150F5CFDF91CF911F910F91FF90EF90AB
:10128000089560E00C94D2080E940B210E94191F5F
:10129000811102C00E94BE1F0C94E90B0E94E30F53
:1012A0000E94470D0C94E50B08950C94540981E0BD
:1012B00008950C945709CF93C82F0E9455098C2F7D
:1012C0000E945909CF91089508950E94BA170E946B
:1012D00064092FEF84E39CE0215080409040E1F7C7
:1012E00000C0000087E797E790930108809300080B
:1012F0000C94F8200F931F93CF93DF93EC010E947F
:101300007E088C01BE010E94400FBE01C8010E94F0
:101310004B088823A9F1BE01C8010E94870F8823CA
:1013200079F1BE01C8010E94730D882349F1BE0105
:10133000C8010E94AA10882319F1BE01C8010E94A9
:10134000EB108823E9F0BE01C8010E941612882321
:10135000B9F08A81882369F001158CE5180731F00E
:101360000E3D1C4531F40E94BE1F0AC00E94650953
:1013700007C0CE01DF91CF911F910F910C944908C6
:1013800080E0DF91CF911F910F91089580E090E070
:101390000895089524E2829FC0011124FC0129E0F0
:1013A000729FE00DF11D1124E60FF11DEE0FFF1FDE
:1013B000E75DF74F859194910895880F991FFC017F
:1013C000E758F54F859194910895CF93DF930E944C
:1013D000CA090E94FD0AEC018115904508F041C040
:1013E000C11580E4D80708F0D1C0C83ED10510F57A
:1013F000C03ED10508F0FDC0C83AD10578F4C53A21
:10140000D10508F0A2C0C130D10509F4F2C008F43A
:10141000EEC0C430D10508F0ECC0E9C0CF3BD10527
:1014200008F49BC0C03CD10508F4E1C0CE01805C4B
:1014300091099EC0C11590E2D90758F4C11521E069
:10144000D20708F0D6C0C03FD10508F4D0C0D0659F
:10145000D0C0C11580E3D80708F08EC0CE019F70C0
:1014600087C0C11595E5D90708F043C0C11524E52B
:10147000D20708F0A2C0C11582E5D80708F5C1154A
:1014800091E5D90708F085C0CE0174E0969587955F
:101490007A95E1F783709C2F937021E030E002C0D1
:1014A000220F331F9A95E2F73C68382BCF70C69510
:1014B000C69580E2C89FE0011124C22BD32B99C0AE
:1014C0009E01237033278C2F86958695C115D345B1
:1014D00008F064C0C1E0D0E002C0CC0FDD1F2A9547
:1014E000E2F720E2829FC0011124C82BD92BDC68CF
:1014F00080C0C11529E5D207A0F4C11588E5D80739
:1015000008F060C0C11596E5D90708F070C08C2FAF
:101510000E94910B8F71C82FD0E0DC2FCC27D062B6
:1015200068C0C1152AE5D20708F451C0CE01905613
:101530008115904208F05BC08D2F8F710E94910B36
:10154000DD27D0628F71D82B54C0C55AD0E0C5506A
:10155000DD4FC881D0E0D0644CC0C85AD0E0CC0F79
:10156000DD1FC353DD4F0990D881C02DD46441C025
:101570000E94DD09EC013DC0CE019927D3FF03C0D5
:10158000EC01D86C36C0EC01D06C33C0DF70D06A8F
:1015900030C0DC2FCC27C16FD06A2BC0C1E0D0E0B7
:1015A00002C0CC0FDD1F2A95E2F720E2829FC00126
:1015B0001124C82BD92BDA681CC0DC2FCC27C46FB0
:1015C000D06A17C0DC2FCC27C06FD06A12C08C2F16
:1015D0008F700E94910B94E0D695C7959A95E1F78C
:1015E000CF70D0E0DC2FCC27D069C82B02C0C0E080
:1015F000D0E0CE01DF91CF9108958238910569F155
:10160000B0F48133910509F46DC048F48932910535
:1016100009F463C08A32910509F469C008958533DD
:10162000910509F455C089339105B9F00895833EB9
:10163000910569F138F4803E9105B1F0823E910543
:1016400009F10895863E9105A9F1873E9105B9F10A
:10165000843E910509F064C023C02091070420FD59
:101660004FC021FD4DC008958091070480FD44C006
:101670008091080480FF44C08091070484FD42C02B
:1016800083EE4DC08091070482FF38C0F5CF809172
:10169000070482FD33C08091080480FD31C0ECCF87
:1016A0008091080481FF32C08091070484FD2AC024
:1016B00087EE35C08091070483FF26C0F5CF809167
:1016C000070483FD21C08091080481FD1FC0ECCF79
:1016D0008091070485FD1CC01DC08091070485FD15
:1016E00019C016C08091070486FD16C017C08091EE
:1016F000070486FD13C010C089E311C082EE0FC03D
:1017000080EE0DC080E00BC086EE09C084EE07C0FD
:1017100089E205C085E303C08AE201C081E390E06D
:1017200008959091070492FF0DC0282F287128304A
:1017300019F4877F846006C0282F2471243011F4A7
:101740008B7F886093FF0DC0282F2871283119F4F2
:10175000877E846106C0282F2471243111F48B7E8A
:1017600088612091080420FF0DC0382F387138306F
:1017700019F4877F816006C0382F3171313011F440
:101780008E7F886021FF0DC0282F2871283119F421
:10179000877E816106C0282F2171213111F48E7E50
:1017A000886194FD877E0895E82FF0E0EE0FFF1F1B
:1017B000E750FC4F808191810895089580EA8A95D1
:1017C000F1F7089508950C94E20B0C94E30B0C943C
:1017D000E20B0C94E70BCF93DF93A7E0B3E04BE071
:1017E00053E061E070E08D91E82FE295EF70F0E05A
:1017F00021A18F70EB0102C0CC0FDD1F8A95E2F7AB
:10180000CE019C2F9095922391A392A1892B82A324
:101810004A175B0741F7AEEFB2E041E050E08D912F
:10182000E82FE295EF70F0E021A18F70BA0102C0BD
:10183000660F771F8A95E2F7CB01962F909592233A
:1018400091A392A1892B82A373E0A730B70739F740
:101850001092F2031092F1031092FA031092F9031E
:101860001092F4031092F3031092FC031092FB0306
:101870001092F6031092F5031092FE031092FD03EE
:101880001092F8031092F703109200041092FF03D5
:1018900084E00E94EC0CDF91CF910C9444092F92CC
:1018A0003F924F925F926F927F928F929F92AF92F0
:1018B000BF92CF92DF92EF92FF920F931F93CF933D
:1018C000DF9387E0C82E83E0D82E01EF13E099EF75
:1018D000492E93E0592E312C88248394912C580161
:1018E000D8016D907C9011971D921C92F601819108
:1018F0006F01C82FC295CF70D0E099A18F7074018D
:1019000001C0EE0C8A95EAF7892F8E2989A38AA156
:101910002E2C209482218AA30E94DE0BEEEFF2E0AF
:1019200020E030E06191A62FA295AF70B0E09096D4
:101930008C91D8014D915C9190E06F7002C09595AB
:1019400087956A95E2F780FD08C0C401022E02C0A7
:10195000880F991F0A94E2F702C080E090E0482BBC
:10196000592BD8014D935C932F5F3F4F29303105A0
:10197000C9F689A1282229A28AA1E82AEAA20E5F33
:101980001F4F81E0F501208131812615370509F4CB
:1019900080E0382A4016510609F0A1CF232D44E0FB
:1019A00069EF73E081EF93E00E94ED0C0E944E0915
:1019B000832DDF91CF911F910F91FF90EF90DF90DA
:1019C000CF90BF90AF909F908F907F906F905F90DF
:1019D0004F903F902F9008950895FF920F931F937B
:1019E000CF93DF93F82E092F162FD72FC42F222342
:1019F00049F081E080933E030E949C2090933D0338
:101A000080933C0380913E038823D9F080913C036E
:101A100090913D030E94A820069798F0EF2DF02F9B
:101A2000A12FBD2F80E090E04C2F50E08417950748
:101A300034F4219131912D933D930196F7CF10927B
:101A40003E03DF91CF911F910F91FF900895CF93A7
:101A500090914F039923C9F0882311F0C0E003C08F
:101A600010924F0312C080914F03C817C8F7EC2F94
:101A7000F0E0EE0FFF1FE15CFC4F808191810E943E
:101A800013080E94881ECF5FEECFCF9108958091FA
:101A9000B602882399F080915003882379F08091D1
:101AA000530390915403009749F00E94A8204A974D
:101AB00028F01092500381E00C94270D08951092A5
:101AC00050031092B602109254031092530381E017
:101AD0000C94270D8091B60281110C945F0D81E06A
:101AE0008093B60208955F926F927F928F929F9239
:101AF000AF92BF92CF92DF92EF92FF920F931F931C
:101B0000CF93DF938C017B0110925103873F2CE52B
:101B1000920741F4FB01C281CC23C9F081E080939C
:101B2000B6020AC1883FFCE59F0739F4FB01C28178
:101B3000CC2369F00E945F0DFFC0893F9C4539F4BA
:101B4000FB01C281CC2319F00E946A0DF5C080917F
:101B5000B602882309F4EFC010925203AA24A3947A
:101B6000B12C95E0992EC1E0D0E088248394809137
:101B70005203823008F0A1C0C82ED12C9C9CF001E9
:101B80009D9CF00D1124E455FD4F40815181772437
:101B90007A9490E0FA01E90FF11DE90FF11D25910A
:101BA00034910217130709F4792E232B11F09F5F4C
:101BB000F1CFFFEF7F1202C0612C66C0509050033E
:101BC000F7016280662069F19C9CF0019D9CF00DFC
:101BD0001124E455FD4F9E0101C0220F7A94EAF7CB
:101BE0003481232B2483552039F3AE0102C0440FE6
:101BF000551F9A95E2F74150510930E042175307BB
:101C000009F042C0228133812115310521F0C9013B
:101C10000E94130803C061E00E94120780925103E2
:101C200033C09E0102C0220F331F9A95E2F7215064
:101C300031099C9CF0019D9CF00D1124E455FD4F51
:101C4000448150E02417350769F42281338121153E
:101C5000310521F0C9010E94290805C060E00E94F9
:101C6000120701C0512C9C9CF0019D9CF00D112489
:101C7000E455FD4FCE0101C0880F7A94EAF78095B4
:101C8000948189238483652CB628AA2069F09C9CC2
:101C9000F0019D9CF00D1124E455FD4F91E08481ED
:101CA000811190E0892F01C080E08170A82E809181
:101CB00052038F5F809352035ACF80915103882340
:101CC00051F00E949C20909354038093530380E032
:101CD0000E94270D2CC0B1100DC081E00E94270D7D
:101CE000AA2029F1109254031092530381E08093AB
:101CF00050031DC0F70182818823C9F080915003F1
:101D00008823A9F00E949C2090935403809353034E
:101D1000E0914F03E83058F481E08E0F80934F0339
:101D2000F0E0EE0FFF1FE15CFC4F1183008381E0C8
:101D3000CB2DC82701C0C1E08C2FDF91CF911F911F
:101D40000F91FF90EF90DF90CF90BF90AF909F905A
:101D50008F907F906F905F900895CF93DF93EC0109
:101D600081E0898B8F810E942B1E88850E943E1EF8
:101D70000E94881EEA81FB81CE010696309729F0E9
:101D80006C897D89DF91CF910994DF91CF9108957E
:101D9000CF93DF93FC012081223041F4FB01EC0161
:101DA000828193810E94130881E08B87DF91CF911C
:101DB0000895FC018081813021F4FB0180819181B3
:101DC00005C0823029F4FB01828193810C941308B1
:101DD0000895FC018081813021F4FB018081918193
:101DE00005C0823029F4FB01828193810C9429087B
:101DF0000895EF92FF920F931F93CF93DF93FC010F
:101E00002285211136C0EC01E380F480F7E5FF1A4A
:101E100026E12E9DC0012F9D900D1124DC01A050C4
:101E2000BF4F1496ED91FC9115978A5F9E4F3097A6
:101E300029F054966D917C915597099586E18E9D78
:101E400080018F9D100D112400501F4FF8018781D4
:101E50000E94311EF80180850E94441E0E94881E47
:101E6000188219861B861E821D82109256031092BC
:101E70005503DF91CF911F910F91FF90EF9008953F
:101E8000DF92EF92FF920F931F93CF93DF93FB01AB
:101E900022812223A1F12091B7022F3F81F18C01F1
:101EA000C0E0D1E0E12CF12CDD24D3948091B70285
:101EB000082E000C990B8E159F050CF18E8188233E
:101EC000C9F089859A858017910739F48091550367
:101ED000909156030817190769F0DF861C870B8756
:101EE0008989811103C0CE010E94AD0ECE010696F4
:101EF0000E94F90EFFEFEF1AFF0A6696D7CFDF9127
:101F0000CF911F910F91FF90EF90DF900895EF9286
:101F1000FF920F931F93CF93DF939C0137552F3F71
:101F2000310511F008F047C04091B702042E000CB3
:101F3000550B4217530714F42093B702FB017C01A1
:101F4000828196E1929F8001939F100D1124E801F8
:101F5000C050DF4F888B92818E81992311F1FA86D0
:101F6000E9868F5F8E830E949C209E878D870E94CA
:101F70005E1E8F830E94281E88870E943B1E9885C4
:101F8000892B8887E881F981C8018A5F9E4F309745
:101F900019F06C897D890995F0925603E0925503FA
:101FA0000AC0882341F08989882329F0C8018A5F03
:101FB0009E4F0E94F90E81E0DF91CF911F910F910A
:101FC000FF90EF900895CF92DF92EF92FF920F93E0
:101FD0001F93CF93DF938091B7028F3FF1F1F12CE4
:101FE00096E1E92E0F2D10E08091B702082E000C2B
:101FF000990B801791078CF1E09EF001E19EF00DA6
:102000001124E050FF4FC288D388C114D10419F4C1
:1020100088ECC82ED12CE09EE001E19ED00D112469
:10202000C050DF4F8E818823B1F08D859E850E9440
:10203000A820C816D90678F48989811103C0CE0179
:102040000E94AD0EE09EC001E19E900D11248A5FBA
:102050009E4F0E94F90EF394C5CFDF91CF911F914F
:102060000F91FF90EF90DF90CF9008950F931F9303
:10207000CF93DF93C62FD42F122FFC0182818823A8
:10208000C9F0609359030E949C2090935803809359
:10209000570380E28C0F883008F057C0C77081E08A
:1020A00001C0880FCA95EAF7DF91CF911F910F9178
:1020B0000C94D81480915903681330C08091570351
:1020C000909158030E94A820883C910538F500E2C1
:1020D0000D0FCD17B9F080E28C0F883040F4C77037
:1020E00081E001C0880FCA95EAF70E94DF1408302A
:1020F00028F581E09D2F977001C0880F9A95EAF727
:102100000E94D814812F0E94C5140830F0F4D770B3
:1021100081E001C0880FDA95EAF70AC080E28C0FEF
:10212000883098F4C77081E001C0880FCA95EAF73B
:10213000DF91CF911F910F910C94DF14812FDF91CC
:10214000CF911F910F910C94C514DF91CF911F91E6
:102150000F9108959C01CB01233F4CE53407F9F022
:1021600078F4283DFCE53F07B9F0293D4CE53407FC
:1021700011F1273D3C4531F526E241EE61EE1EC0EE
:10218000253FFCE53F0799F070F0263F3C45D1F430
:1021900027E245EE66EE12C027E245EE0EC026E2CB
:1021A00041EE60EE0BC027E245EE64EE07C026E28A
:1021B00041EE62EE03C028E241E065EE0E94361077
:1021C00080E00895FC018281882319F01092590360
:1021D000089581E00895CF93DF93EC01FB018281A4
:1021E000882309F41FC1C230FCE5DF0708F41BC1D6
:1021F000C6319CE5D90738F09E012A5F3C4529305D
:10220000310508F010C10E94311F9093080480939B
:102210000704C031ECE5DE0709F4C3C008F041C093
:10222000C8308CE5D80709F49AC0F0F4C430ECE566
:10223000DE0709F487C068F4C2308CE5D80709F4DA
:1022400077C0C330DC4509F0E3C0809107048260A9
:1022500076C0C630ECE5DE0709F46EC008F07BC03E
:102260008091070488606BC0CC308CE5D80709F4F6
:1022700085C068F4CA30ECE5DE0709F474C008F0E4
:1022800079C00E94BA1780910704806858C0CE3088
:102290008CE5D80709F476C008F07FC08091070468
:1022A0008BC0CB3FECE5DE0709F44FC018F5C33116
:1022B0008CE5D80709F47DC078F4C131ECE5DE0780
:1022C00009F473C0C231DC4509F0A2C00E94BA17FC
:1022D000809107048F7733C0C5318CE5D80709F4A6
:1022E00072C008F486C0CA3FDC4509F091C08091F5
:1022F00008043EC0CF3FFCE5DF0709F45FC058F497
:10230000CD3F9CE5D90709F444C008F43FC0809153
:10231000080482602DC0C130FDE5DF0709F475C0F7
:1023200008F45DC0C230DD4509F072C080E06EC0C7
:1023300080910704816003C08091070480618093CD
:10234000070466C08091070411C080910804826070
:10235000809308045DC0809107048062F0CF809173
:1023600007048064ECCF8091070488608460E7CF25
:102370008160EECF809107048E7FE1CF80910704CA
:102380008D7FDDCF80910704877FD9CF80910804AE
:1023900018C0809108048D7FDBCF809107048F7E69
:1023A000CECF809107048F7DCACF809107048F7BA9
:1023B000C6CF80910704877F8B7FC1CF80910804AF
:1023C0008D7F8E7FC5CF8091070482FB222720F965
:1023D00091E0922790FB82F990FB83F9B0CF809136
:1023E0000804982F909591708E7F892B90FB81F92E
:1023F000AFCF0E94BA178091070487FB222720F9EC
:1024000091E0922790FB87F99ACF81E00E94C01F4C
:1024100080910704909108040E94421F0E94BA17FD
:1024200080E001C081E0DF91CF910895CF93DF93E9
:1024300086319C4571F5EB010E94281E982F917101
:1024400019F4982F9A7A01C090E08A812091B802FD
:102450003091B902882379F081E0911101C080E0C8
:1024600080935A03911102C069E201C065E3C9017A
:102470000E9407200AC080915A03811102C069E2BC
:1024800001C065E3C9010E9409200E94881E80E006
:1024900001C081E0DF91CF91089590936003809314
:1024A0005F030895E0915F03F0916003309721F09E
:1024B0000190F081E02D099480E00895E0915F03A0
:1024C000F0916003309721F00280F381E02D0994B0
:1024D0000895E0915F03F0916003309739F022E0B6
:1024E000DC012C930480F581E02D0994089520915E
:1024F0005D0330915E032817390771F090935E03F6
:1025000080935D03E0915F03F0916003309721F0C9
:102510000680F781E02D0994089520915B033091A6
:102520005C032817390771F090935C0380935B0379
:10253000E0915F03F0916003309721F00084F18512
:10254000E02D0994089585B7806885BF85B78068B8
:1025500085BF089508950C94AA120C94AB120C94A4
:10256000AA120C94AA120E94A3120E94AF120C94F9
:10257000AD1281E008950E9493200E94EB0B0E940F
:102580001F210C94B1127F928F929F92AF92BF92B3
:10259000CF92DF92EF92FF920F931F93CF93DF932F
:1025A000CDB7DEB72A970FB6F894DEBF0FBECDBF0A
:1025B0000E944F0C0E94B912811111C08FEF8983C4
:1025C0008A831B820E949C208160782F9D838C834C
:1025D00049815A816B818D810E9473134FC042E6FD
:1025E000A42E43E0B42E00E010E0702E802F0E9455
:1025F000D40B6C01F501819091905F01882699269A
:102600008114910431F40F5F1F4F0430110569F7F5
:10261000D5CF8091D60381FD0E94DD0B80E0EE24B2
:10262000E394F12C94012E213F21232B09F18E8379
:102630007F82CE20DF2081E0CD2809F480E08887EA
:102640000E949C208160782F9A8789874E815F81C4
:1026500068858A850E947313000F111FF801EE59D7
:10266000FC4F80819181E826F926F182E08206C044
:102670008F5FEE0CFF1C8930A9F6C5CF0E94B122F6
:102680000E945212909161038917C9F00E94521260
:10269000809361032A960FB6F894DEBF0FBECDBFBC
:1026A000DF91CF911F910F91FF90EF90DF90CF902E
:1026B000BF90AF909F908F907F900C945B092A966B
:1026C0000FB6F894DEBF0FBECDBFDF91CF911F9143
:1026D0000F91FF90EF90DF90CF90BF90AF909F90C1
:1026E0008F907F900895CF93DF93CDB7DEB72B9770
:1026F0000FB6F894DEBF0FBECDBF4F8358876987F2
:102700007A878B87DE01119686E0FD0111928A950A
:10271000E9F785E0FE01379601900D928A95E1F781
:102720000E94F61D882319F082E00E94FA1E0E9482
:10273000C91D81110E947A1E49815A816B817C8159
:102740008D819E810E94C41A2B960FB6F894DEBF2D
:102750000FBECDBFDF91CF910895FC0180819181A3
:102760000E94981D0895CF93882309F4A4C0C82F10
:102770008238C1F40E94521281FD9DC069E38091AC
:10278000B8029091B9020E9407200E94881E2FEF84
:1027900081EE94E0215080409040E1F700C00000BD
:1027A00069E319C0833801F50E94521280FD83C08D
:1027B00063E58091B8029091B9020E9407200E94BF
:1027C000881E2FEF81EE94E0215080409040E1F789
:1027D00000C0000063E58091B8029091B9020E94A8
:1027E0000920CF910C94881E8438C1F40E945212A3
:1027F00082FD61C067E48091B8029091B9020E94A5
:1028000007200E94881E2FEF81EE94E02150804027
:102810009040E1F700C0000067E4DDCF8CEF8C0F43
:10282000813AD0F46C2F8091B8029091B9020E9445
:10283000D11F882349F06C2F8091B8029091B90282
:102840000E9409200E94881E6C2F8091B8029091EE
:10285000B9020E940720C5CF80E28C0F883048F46F
:10286000C77081E001C0880FCA95EAF70E942B1E4D
:10287000B8CFEBE5EC0FE33040F4F0E0E75CFC4F61
:10288000808190E0CF910C947712E8E5EC0FE7316E
:1028900050F4F0E0EE0FFF1FE55FFC4F8081918167
:1028A000CF910C948D12C03F30F08C2F0E94B92133
:1028B000CF910C94A622CF910895882309F464C087
:1028C000823879F40E94521281FF5EC069E38091E0
:1028D000B8029091B9020E9407200E94881E69E305
:1028E00010C08338B1F40E94521280FF4DC063E5DE
:1028F0008091B8029091B9020E9407200E94881E20
:1029000063E58091B8029091B9020E9409200C946D
:10291000881E843879F40E94521282FF35C067E421
:102920008091B8029091B9020E9407200E94881EEF
:1029300067E4E7CF9CEF980F913A10F4682FE1CF4E
:1029400090E2980F983050F4877091E001C0990F91
:102950008A95EAF7892F0E94311ED9CF9BE5980FFF
:10296000933020F480E090E00C94771298E5980F73
:10297000973120F480E090E00C948D12803F20F09D
:102980000E9421220C94A6220895CF93C82F0E9462
:10299000B313C93349F42FEF87EE93E02150804001
:1029A0009040E1F700C000008C2FCF910C945D1493
:1029B000882321F00E942B1E0C94881E08958823E2
:1029C00021F00E94311E0C94881E0895CF92DF9250
:1029D000EF92FF920F931F93CF93DF937C01062F0B
:1029E000C72FFC01D581D295DF70128111110E9491
:1029F0004B1E0E94211E882379F0112369F080E28A
:102A0000800F883048F082E00E94FA1E0E94211E4A
:102A100091E0D82ED92601C0D12CCC2EC2948FE0C3
:102A2000C8228C2D90E0FC01EA5AFF4F0C94D92A61
:102A30008C2F807FCF70882311F0C295C07F112327
:102A400099F0CC2309F4ECC180E2800F883010F0BB
:102A5000011104C08C2F0E942B1E03C08C2F0E94DA
:102A60003E1E0E94881EDCC1802F0E945D14CC2374
:102A700009F4FCC180E2800F883010F0011104C01D
:102A80008C2F0E94311E03C08C2F0E94441E0E9476
:102A9000881EECC18C2F807FCF70803211F0C295E0
:102AA000C07F002319F0013059F134C01123B1F077
:102AB000DD2381F0D13031F40E945E1E8C2B0E9408
:102AC000661ED4C1D33031F40E947A1E8C2F0E942E
:102AD000C61E24C00E945E1E8C2B21C0DD2369F01F
:102AE000D13041F40E94281E8C2309F4BFC10E94FA
:102AF000CF1E03C0D33009F4B9C10E947A1E1FC093
:102B0000112321F0D43008F0B1C108C0D33008F04F
:102B1000ADC115C0112331F0D11182C18C2F0E949B
:102B2000D814A4C1DD2359F0093309F08BC1FFEF9C
:102B300027EE83E0F15020408040E1F781C18C2FE7
:102B40000E94DF1493C18C2F86958695837019F0AF
:102B5000813061F08BC1112321F0802F9C2F937065
:102B600002C080E090E00E94771288C1112321F01A
:102B7000802F9C2F937002C080E090E00E948D1205
:102B80007DC11123F9F0053F51F0063F71F0043F7C
:102B9000A9F4809101049091020481600BC080919E
:102BA000010490910204826005C08091010490911B
:102BB000020484609093020480930104802F0E9499
:102BC000B9211EC0053F51F0063F71F0043FA9F442
:102BD00080910104909102048E7F0BC080910104CA
:102BE000909102048D7F05C08091010490910204B0
:102BF0008B7F9093020480930104802F0E942122F6
:102C00000E94A6223BC18C2F837009F045C0111190
:102C100031C1402F429546954770440F440F602FB5
:102C20006F70862F90E0A0E0B0E0042E04C0880F03
:102C3000991FAA1FBB1F0A94D2F704FF10C00FE010
:102C400010E020E030E004C0000F111F221F331FEE
:102C50004A95D2F7009510952095309503C000E075
:102C600010E09801C695C695C370BC01CD01602BDC
:102C7000712B822B932BC23049F058F4C13019F0DC
:102C80000E94151CF7C00E94031CF4C00E94271C60
:102C9000F1C00E94011CEEC0112319F08C2F81702D
:102CA00001C08695882309F4E5C0402F42954695DA
:102CB0004770440F440F602F6F70862F90E0A0E0A4
:102CC000B0E0042E04C0880F991FAA1FBB1F0A94EE
:102CD000D2F704FF10C00FE010E020E030E004C0A5
:102CE000000F111F221F331F4A95D2F70095109530
:102CF0002095309503C000E010E09801C695C69578
:102D0000C370BC01CD01602B712B822B932BC23081
:102D100049F058F4C13019F00E94DA1CABC00E948F
:102D2000C81CA8C00E94EC1CA5C00E943B1CA2C0ED
:102D3000CF70112339F08C2F0E94611C802F0E94CC
:102D4000D81498C0802F0E94DF148C2F0E94821C00
:102D500091C0023F01F128F4003F41F0013FA1F092
:102D60005AC0033FF9F0043F39F155C0112341F037
:102D7000D33008F07BC08C2F8F710E94A71C76C0C7
:102D8000D43008F073C0F7CF112339F08C2F8F7136
:102D90000E94611C6BC01123C9F38C2F8F710E949C
:102DA000821C64C0112329F08C2F8F710E944C1C4F
:102DB0005DC00E94471C5AC01123C9F00E94C61D65
:102DC0000E94311E0E94F21D843039F40E94F11ECF
:102DD0008C2F8F710E94821C6CC0D33008F069C0A8
:102DE000CF718C2F0E94611C63E08C2F0DC00E945C
:102DF000C61D0E942B1ED33050F00E94F11E0E946F
:102E0000CF1E64E08C2F8F710E94DB1E52C081E0C8
:102E10000E94FA1E4EC0112339F0DD2309F4B6CF0B
:102E2000802F0E94B31322C0DD2309F4B6CF0933EB
:102E300049F49FEFE7EEF3E09150E040F040E1F716
:102E400000C00000802F0E945D1410C04C2F4F70F6
:102E5000602FC7010E94C6090E94721B0FC04C2F31
:102E60004F70602FC7010E94C90908C088EF8C0D00
:102E7000843020F40E9452120E945B09DD20D9F0B8
:102E80000E94F21D80FD17C0F70112820E94EC1D06
:102E90000E94611CC7010E9464170E94EC1DDF9113
:102EA000CF911F910F91FF90EF90DF90CF900C94F6
:102EB000821CD12CDFCFDF91CF911F910F91FF901A
:102EC000EF90DF90CF9008950F931F93CF93DF93F0
:102ED000EC01988189812B813C81232B31F08F3F3C
:102EE00031F481E09F3F19F403C081E001C080E02C
:102EF00080FD13C0CE010E947A09882371F0688199
:102F000079818A810E94A31D8C010E94FE1C0E946F
:102F1000EF1BB801CE010E94E614DF91CF911F9103
:102F20000F910895882321F00E943E1E0C94881E64
:102F30000895882321F00E94441E0C94881E089551
:102F40000E944B1E0E945B1E0E94881E0E94D0237E
:102F50000E94A62280E090E00E94771280E090E03C
:102F60000C948D128091B8029091B9020E940B20AE
:102F70000C94A0170E94381E0C94B217E92FE2950A
:102F8000EF704E2F50E0FA013297EE30F105B0F4B9
:102F9000EA59FF4F0C94D92A803F91F018F4883EEB
:102FA00068F40EC0843F51F40BC0883E48F0813F66
:102FB00029F406C093FB882780F9089580E00895DE
:102FC00081E008950E94981D0E94BE170895CF9336
:102FD000DF9300D000D01F92CDB7DEB70F900F90D7
:102FE0000F900F900F90DF91CF910895CF93DF93C3
:102FF00000D000D000D0CDB7DEB726960FB6F8943B
:10300000DEBF0FBECDBFDF91CF9108951F93CF9349
:10301000DF93C0916B0316E080916C03C81799F0A1
:10302000D0E01C9FF0011D9FF00D1124E359FC4FCF
:103030004081518162817381848195810E94F6175C
:103040002196C770E9CFDF91CF911F9108954091EC
:103050009D0350919E0360919F037091A003809106
:10306000A1039091A2030C94F61720916B03909109
:103070006C0356E02917A9F030E0529FF001539FEE
:10308000F00D1124E359FC4F7181761306C0708155
:10309000781303C07281741306C02F5F3F4F2770EF
:1030A000E9CF80E0089581E00895CF938091A20355
:1030B00082958F7009F05FC080919F03882309F487
:1030C0005AC080916B03B0916C0370919D03A091E5
:1030D0009E034091A0035091A10391E07F3F09F02E
:1030E00090E0692FC6E08B1709F445C041155105E2
:1030F00021F0AF3F21F020E003C021E001C0262FE6
:1031000090E020FD35C0C89FF001C99FF00D11244B
:10311000E359FC4F21812A132BC02081271328C09B
:103120002281211125C0238134812417350710F411
:1031300021503109241B350B283C3105C8F420915E
:10314000A2032F7020612093A20326E0289FF001A4
:10315000299FF00D1124EE58FC4F80818F70806103
:1031600080838DE993E00E946417CF910C94061838
:1031700001968770B8CFCF9108959F92AF92BF927A
:10318000CF92DF92EF92FF920F931F93CF93DF9333
:10319000CDB7DEB761970FB6F894DEBF0FBECDBFD7
:1031A0007C0185E0F701DE011D9601900D928A9564
:1031B000E1F7D701DC9011960C9111971296CC9003
:1031C00030919D0340919E038091A0039091A103B3
:1031D000009731F04F3F31F421E03F3F19F403C035
:1031E00021E001C020E020FD9FC1F701A380B48051
:1031F00090909F03992009F42BC12091A203A81657
:10320000B90628F0B501681B790BCB0104C0809585
:1032100090958A0D9B1D11E0883C910590F010E07F
:10322000207F09F0DBC07A2DB98AA88A4D2D502F56
:103230006C2D89890E94E7178DE993E00E9464173D
:103240006BC1822F807F09F091C0041315C0D31287
:1032500013C01C2DC11010C02F7020612093A20339
:103260000E9427188DE993E00E9464178091A203C1
:10327000D70115968C9375C1A114B10439F00F3F95
:1032800039F481E0BFEFDB1203C003C081E001C06D
:1032900080E080FD03C081E08C2502C080E090E0EA
:1032A00080FF15C04C2D602F8D2D0E94351888236E
:1032B00071F08DE993E00E946417EDE9F3E086E098
:1032C000DF011D928A95E9F70E9427184DC0AB28AF
:1032D00039F00F3F39F481E0BFEFDB1203C003C0C8
:1032E00081E001C080E080FD03C081E08C2502C048
:1032F00080E090E0E82FE170BE2E80FF2CC04C2DC6
:10330000602F8D2D0E943518182F811124C0DD8665
:103310000E878D859E850E94981D292F22952F70DE
:10332000223018F0243090F405C09F7059F08111BC
:1033300009C017C19F7031F0D70115969C91907FFD
:1033400009F40FC1805E883008F40BC1C7010E94E8
:1033500064171B2D06C11C2DCC2009F402C18091DD
:10336000A20381608093A20310E0FBC0041309C094
:10337000D31207C0C11005C08091A203F701858355
:10338000A5C0DD860E878D859E850E94E217882365
:1033900079F1CC2069F12091A203822F82958F7060
:1033A00090E0029774F080919D0390919E0398871E
:1033B0008F831986BB86AA862C87CE0107960E942A
:1033C000641786E0F701ADE9B3E001900D928A95AC
:1033D000E1F70E9455180E9427180DC0041769F0E4
:1033E000DD860E878D859E850E94E217811119C0AA
:1033F000C7010E94641711E0B4C0D312F1CFC1100D
:10340000EFCF8091A203F7018583C7010E94641763
:1034100086E0EDE9F3E0DF011D928A95E9F7192DC9
:10342000A0C0CC2029F32091A203822F82958F7017
:1034300090E0029734F280919D0390919E039A83CD
:1034400089831B82BD82AC822E83CE010196B7CFC9
:10345000A816B90628F0F501E81BF90BCF0104C046
:10346000809590958A0D9B1D883C910558F010E041
:103470007A2DB98AA88A4D2D502F6C2D89890E94EA
:10348000E7174AC01C2DCC2009F4B2CF041333C077
:10349000D31231C02091A20320FD24C0822F829537
:1034A0008F70482F50E041155105E1F0D701159676
:1034B0002C9315974F30510549F08F5F982F9295B7
:1034C000907F822F8F70892B15968C93C7010E9455
:1034D000641786E0F701ADE9B3E001900D928A959B
:1034E000E1F73DC086E0F701ADE9B3E001900D9250
:1034F0008A95E1F736C0DD860E878D859E850E9410
:10350000E21781115ECF8091A20381608093A203B4
:10351000C7010E94641725C0EDE9F3E086E0DF01F2
:103520001D928A95E9F71BC0CC2009F461CFDD8696
:103530000E878D859E850E94E217182F882309F437
:1035400057CF86E0F701ADE9B3E001900D928A957F
:10355000E1F78DE993E00E94AD130E9455180E9497
:103560002718812F61960FB6F894DEBF0FBECDBF2E
:10357000DF91CF911F910F91FF90EF90DF90CF904F
:10358000BF90AF909F9008951F93CF93DF93CDB7D7
:10359000DEB72C970FB6F894DEBF0FBECDBF4F83BA
:1035A000588769877A878B879C87CE0107960E9408
:1035B000BD188823D1F09F8188852A853B85232BE0
:1035C00031F08F3F31F481E09F3F19F403C081E077
:1035D00001C080E080FD47C04F81588569857A85AC
:1035E0008B859C850E94F6173EC086E0FE013796CB
:1035F000DE01119601900D928A95E1F7FF81E88531
:103600006A857B856115710531F0EF3F31F481E00A
:10361000FF3F19F403C081E001C080E080FD23C0BA
:1036200020916C0330E0C901019687709927409181
:103630006B0350E084179507F1F1F983EA837D83EA
:103640006C8396E0929FD001939FB00D1124A359F3
:10365000BC4FFE01319601900D929A95E1F780934F
:103660006C030E94061816E080916B0390916C0326
:10367000891771F1189FC001112483599C4F0E9432
:10368000BD18882329F1E0916B031E9FF0011124DE
:10369000E359FC4F4081518162817381848195811E
:1036A0000E94F61780916B0390E00196877099272E
:1036B00080936B03D9CF0E94BA1710926C031092BB
:1036C0006B03EDE9F3E086E0DF011D928A95E9F7EF
:1036D0002C960FB6F894DEBF0FBECDBFDF91CF9111
:1036E0001F910895EF92FF920F931F93CF93DF9353
:1036F0008C01892B09F46CC0F12CEE24E394E801D1
:103700002196F8018491843740F4843008F051C048
:10371000813081F0823019F15BC0853709F444C0F3
:10372000A8F19CE7980F903708F052C08F770E945D
:103730005D1441C00E5F1F4FFE01849190E2980F0F
:10374000983050F48770FE2D01C0FF0F8A95EAF77C
:103750008F2F0E944E1E14C00E94B3132DC00E5F07
:103760001F4FFE01849190E2980F983060F48770AB
:10377000FE2D01C0FF0F8A95EAF78F2F0E94541E7D
:103780000E94881E19C00E945D1416C00E5F1F4F54
:10379000FE01C491CC2381F08FE99FE00197F1F7FE
:1037A00000C00000C150F6CF0E5F1F4FFE01F49025
:1037B00003C00E94B3138E018F2D882309F49FCF7D
:1037C000EFE9FFE03197F1F700C000008150F5CF3D
:1037D000DF91CF911F910F91FF90EF900895089581
:1037E00008950C94F01B0C94F11B0E94F31B609342
:1037F000C0037093C1038093C2039093C3030C94DE
:10380000A0170C94F51B0F931F930091C003109108
:10381000C1032091C2033091C303602B712B822B13
:10382000932B1F910F910C94F51B0F931F930091F5
:10383000C0031091C1032091C2033091C3036023E0
:103840007123822393231F910F910C94F51B0F93E7
:103850001F930091C0031091C1032091C2033091C6
:10386000C30360277127822793271F910F910C9420
:10387000F51B0C94F01B0E94391C6093BC037093E1
:10388000BD038093BE039093BF030C94A01760E028
:1038900070E0CB010C943B1C0F931F9341E050E070
:1038A00060E070E08A019B0104C0000F111F221F1D
:1038B000331F8A95D2F7C901B8011F910F910C945B
:1038C0003B1C0F931F9341E050E060E070E004C0A8
:1038D000440F551F661F771F8A95D2F78091BC034E
:1038E0009091BD03A091BE03B091BF038A019B01DB
:1038F000082B192B2A2B3B2BC901B8011F910F91C3
:103900000C943B1C0F931F9341E050E060E070E08B
:1039100004C0440F551F661F771F8A95D2F7409544
:103920005095609570958091BC039091BD03A091D6
:10393000BE03B091BF038A019B01082319232A23E8
:103940003B23C901B8011F910F910C943B1C0F93AD
:103950001F9341E050E060E070E004C0440F551F49
:10396000661F771F8A95D2F78091BC039091BD03A3
:10397000A091BE03B091BF038A019B0108271927BC
:103980002A273B27C901B8011F910F910C943B1CBA
:103990000F931F930091BC031091BD032091BE03B0
:1039A0003091BF03602B712B822B932B1F910F91B2
:1039B0000C943B1C0F931F930091BC031091BD030B
:1039C0002091BE033091BF03602371238223932390
:1039D0001F910F910C943B1C0F931F930091BC03FC
:1039E0001091BD032091BE033091BF036027712762
:1039F000822793271F910F910C943B1C089529E077
:103A0000929F800D1124E82FE695E695E695877044
:103A100051E001C0550F8A95EAF785E0E89FF00173
:103A20001124ED55FC4F20E030E070E04081CB01E7
:103A3000022E02C0969587950A94E2F781708195CF
:103A400084278523842781932F5F3F4F25303105BD
:103A500069F7089529E0929F800D1124682F6695DB
:103A600066956695982F977085E0689FB001112440
:103A700040E050E080E0FB01E40FF51FED55FC4F06
:103A8000208130E0092E02C0369527950A94E2F78E
:103A900021703327042E01C0220F0A94EAF7822BEB
:103AA0004F5F5F4F4530510531F70895BF92CF9278
:103AB000DF92EF92FF920F931F93CF93DF938C01CE
:103AC000C090BC03D090BD03E090BE03F090BF0354
:103AD0008091C0039091C103A091C203B091C30330
:103AE000C82AD92AEA2AFB2ACFE1D0E0D701C601A9
:103AF0000C2E04C0B695A795979587950A94D2F792
:103B000080FD04C0219790F7B12C07C0BC2EB801EE
:103B10008C2F0E94E5090197A9F38B2DDF91CF919E
:103B20001F910F91FF90EF90DF90CF90BF9008957D
:103B3000CF93DF93EC010E94561DBE010E94E50960
:103B4000DF91CF9108951F93CF93DF93EB01909175
:103B50006A03992321F0CB010E94981D13C088238A
:103B600049F0CB010E94561D182F682FCE010E94EC
:103B7000FF1C04C0CB010E942A1D182FBE01812FFB
:103B80000E94E509DF91CF911F9108958091C903AB
:103B900008950E949C202091C7033091C80382178A
:103BA000930750F00E949C202091C7033091C803D6
:103BB000821B930B9C010AC00E949C202091C7038A
:103BC0003091C80320953095280F391F81E02E3E93
:103BD000324008F480E008958091C603859585956C
:103BE000859508958091C603877008950E949C2052
:103BF0002091C4033091C50382179307A8F00E9457
:103C00009C202091C4033091C503821B930B8E3EF0
:103C1000924010F480E013C08091C60382FB882795
:103C200080F991E089270BC00E949C202091C40359
:103C30003091C50320953095820F931FE8CF817096
:103C400008959091C603977081E009F480E008958B
:103C50008091D50308959091D503892B8093D50346
:103C6000089580959091D50389238093D503089575
:103C70001092D50308958091D40308959091D403B0
:103C8000892B8093D403089580959091D403892340
:103C90008093D40308951092D40308959091D30390
:103CA000892B8093D303089580959091D303892322
:103CB0008093D30308951092D30308958091CA038B
:103CC000089508950C94611E0C94621ECF939091F8
:103CD000CA03981769F0C82F0E949C209093C803CC
:103CE0008093C703C093CA038C2FCF910C94641E9A
:103CF000CF9108958091CA03882349F01092CA0396
:103D00001092C8031092C70380E00C94641E0895BB
:103D1000E091B802F091B9028091D5038083E091DF
:103D2000B802F091B90290818091D403892B8083ED
:103D3000E091B802F091B90290818091D303892B70
:103D400080838091CA038823B9F00E94C91D811124
:103D50000E947A1EE091B802F091B90290818091A0
:103D6000CA03892B80838091B8029091B9020E9486
:103D7000C51F81110E947A1E8091B8029091B902EC
:103D80000C945E120C94611E0C94C21E9091C90397
:103D9000981721F08093C9030C94C41E0895809154
:103DA000C903882329F01092C90380E00C94C41E33
:103DB00008950C94611E98E0899F90011124262B90
:103DC0002093C6030E94611C0E949C209093C5030F
:103DD0008093C4038091C6038595859585950C9441
:103DE000D91E1092C6031092C5031092C40380E03E
:103DF0000C94D91E2091C603809582238093C6031C
:103E0000982F977079F430E0482F082E000C550B4E
:103E10002417350739F08595859585950E94821C74
:103E20000C94F11E08956FEF7FEF80E090E00C940A
:103E30001F2B80E090E00E94FB2A21E08C3E9E4FE9
:103E400009F020E0822F089582E090E00C94F32A9C
:103E500083E090E00C94F32A682F83E090E00C94C8
:103E6000012BCF9384E090E00E94F32AC82F81E2D7
:103E700090E00E94F32A2C2F30E0A901582BCA01B0
:103E8000CF910895CF93C92F682F84E090E00E94CE
:103E9000012B6C2F81E290E0CF910C94012BAB01B0
:103EA000BC018FE090E00C94132BAB01BC0183E1CB
:103EB00090E00C94132B60E070E0CB010C94551F44
:103EC00060E070E0CB010E944F1F0C945B1F6CEE12
:103ED0007EEF80E090E00E941F2B60E082E090E0A7
:103EE0000E94012B60E083E090E00E94012B109281
:103EF000C0031092C1031092C2031092C30360E08A
:103F000084E090E00E94012B60E081E290E00E945A
:103F1000012B60E085E090E00E94012B60E086E0EC
:103F200090E00E94012B6FEF87E090E00E94012B50
:103F300040E050E0BA0188E090E00E94132B60E07E
:103F40008DE090E00E94012B40E050E0BA0188E152
:103F500090E00E94132B60E087E190E00E94012B2B
:103F600040E050E0BA018CE190E00E94132B60E049
:103F700080E290E00E94012B0C94601F0C94671F5C
:103F8000682F8EE090E00C94012BFC01329697E0B4
:103F900080E0915029F021912223D9F38F5FF9CF4E
:103FA0000895662349F0FC01329608962191621724
:103FB00029F0E817F907D1F780E0089581E0089526
:103FC0009C01FC0132969FEF80E04191461789F0F9
:103FD0009F3F19F4411101C0982F8F5F8630A9F7D8
:103FE0009F3F39F0F901E90FF11D97FDFA956283C2
:103FF000089508959C012A5F3F4FFC0142814613BA
:1040000001C01282019682179307B9F708950C94A4
:10401000E01F0C94FA1F029626E0FC0111922A95EB
:10402000E9F7089508950C9412200C941220CF9370
:104030000E9415200E944F0C0E941320C0E08C2F7C
:104040000E94D40B892B29F4CF5FC430C1F780E0E4
:1040500001C081E0CF9108950C9412200C942C2083
:104060000E942E2080910D04843049F11092D703D4
:1040700020E488E190E00FB6F894A8958093600062
:104080000FBE2093600080E00E945B090E942E20FA
:1040900083B7817F846083BF83B7816083BF789457
:1040A000889583B78E7F83BF0FB6F894A8958091CB
:1040B0006000886180936000109260000FBE0895D8
:1040C0000C9412200E94BA170E9452120E945B099F
:1040D0000C9460201F920F920FB60F9211248F93B1
:1040E0009F93AF93BF938091D703811113C08091A9
:1040F000030490910404A0910504B0910604419634
:10410000A11DB11D8093030490930404A0930504A2
:10411000B0930604BF91AF919F918F910F900FBE06
:104120000F901F90189582E084BD93E095BD9AEFA3
:1041300097BD80936E0008952FB7F8948091030483
:1041400090910404A0910504B09106042FBF089536
:10415000CF92DF92EF92FF920F931F932FB7F894B5
:104160004091030450910404609105047091060489
:104170002FBF6A017B01EE24FF248C0120E030E098
:10418000C016D106E206F30610F4415051099A0117
:10419000281B390BC9011F910F91FF90EF90DF9001
:1041A000CF90089578941F920F920FB60F9211241A
:1041B0008F939F93AF93BF938091030490910404D6
:1041C000A0910504B09106040196A11DB11D809334
:1041D000030490930404A0930504B0930604BF91D4
:1041E000AF919F918F910F900FBE0F901F901895D8
:1041F00087E797E790930108809300089AE088E1A9
:104200000FB6F894A895809360000FBE909360005D
:10421000FFCF0C94131F0E944F0C8FE39CE9019772
:10422000F1F700C000000E944F0C80E00E94D40B08
:1042300080FF04C00E9409210C94F82008950E9478
:10424000191F811102C00E94BE1F0E94241F80936B
:10425000D6030E94311F90930804809307040E94A4
:10426000281F682F70E080E090E00C94011C809182
:10427000DF0380FF0BC06091BF0285E0689FB00143
:10428000112475956795759567952BC081FF09C0B9
:104290006091BF0285E0689FB00111247595679514
:1042A00020C082FF07C06091BF0285E0689FB00117
:1042B000112417C09091DE039923D1F06091BE02C2
:1042C000961788F72091BF0285E0289F900111245E
:1042D000929FA001939F500D112470E0CA010E948B
:1042E000C52A6038710540F46115710519F406C0DE
:1042F00065E070E0862F08958FE7089581E00895C6
:104300008091DF0380FF08C06091BB0270E075956B
:1043100067957595679521C081FF06C06091BB02C6
:1043200070E07595679519C082FF04C06091BB026B
:1043300070E010C09091DE03992399F06091BA0269
:104340009617A0F78091BB02899FC001112470E0ED
:104350000E94C52A6038710540F46115710519F491
:1043600006C061E070E0862F08958FE7089581E030
:104370000895803F21F40E943721819504C0813F38
:1043800029F40E9437218093E3030895823F21F4AA
:104390000E943721819504C0833F29F40E94372170
:1043A0008093E2030895893F19F40E94802105C09B
:1043B0008A3F31F40E94802181958093E40308951F
:1043C0008B3F21F40E948021819504C08C3F29F409
:1043D0000E9480218093E5030895843F21F4809119
:1043E000E103816017C0853F21F48091E103826081
:1043F00011C0863F21F48091E10384600BC0873FA8
:1044000021F48091E103886005C0883F31F48091F8
:10441000E10380618093E10308958D3F21F4809151
:10442000DF0381600BC08E3F21F48091DF03826047
:1044300005C08F3F29F48091DF0384608093DF0300
:104440000895803F39F48091E30387FF6CC0109298
:10445000E30369C0813F29F48091E3031816BCF39C
:1044600062C09091E203823F29F497FF5CC01092F2
:10447000E20359C0833F19F41916CCF354C0893FA5
:1044800041F48091E40318160CF04DC01092E4033F
:104490004AC08A3F29F48091E40387FF44C0F6CFE5
:1044A0008B3F39F48091E50387FF3DC01092E5030F
:1044B0003AC08C3F29F48091E5031816BCF333C051
:1044C000843F21F48091E1038E7F17C0853F21F462
:1044D0008091E1038D7F11C0863F21F48091E1033B
:1044E0008B7F0BC0873F21F48091E103877F05C05C
:1044F000883F31F48091E1038F7E8093E10313C004
:104500008D3F21F48091DF038E7F0BC08E3F21F41D
:104510008091DF038D7F05C08F3F29F48091DF03F9
:104520008B7F8093DF038091E20381110EC0809125
:10453000E30381110AC08091E403811106C08091D8
:10454000E503811102C01092DE03089580EE93E02E
:104550000E9469120E949C209093DD038093DC03EB
:104560000895CF93DF9300D000D000D0CDB7DEB751
:1045700086E0E0EEF3E0DE01119601900D928A955F
:10458000E1F78091E203811105C08091E303882364
:1045900009F47AC08091DA039091DB030E94A8208D
:1045A000AC019091DE03992339F02091C00230E0F4
:1045B0002417350758F068C02091C1028AE0289F6F
:1045C000900111242417350718F05EC09F3F19F0A1
:1045D0009F5F9093DE031092E4031092E5038091B5
:1045E000E203181624F40E9437218093E20380919D
:1045F000E20387FF05C00E94372181958093E20383
:104600008091E303181624F40E9437218093E3037A
:104610008091E30387FF05C00E9437218195809335
:10462000E3033091E2033323E1F02091E3032223FB
:10463000C1F045EB3403C0011124992319F0909384
:10464000E20303C081E08093E20335EB2303C00162
:104650001124992319F09093E30303C081E0809320
:10466000E3030E94A6228091DC039091DD039093E6
:10467000DB038093DA0386E0FE013196A0EEB3E01F
:1046800001900D928A95E1F78091E403811105C0B4
:104690008091E503882309F47AC08091D803909132
:1046A000D9030E94A820AC019091DE03992339F030
:1046B0002091BC0230E02417350758F068C02091E3
:1046C000BD028AE0289F900111242417350718F0B5
:1046D0005EC09F3F19F09F5F9093DE031092E2034C
:1046E0001092E3038091E403181624F40E948021C1
:1046F0008093E4038091E40387FF05C00E9480213A
:1047000081958093E4038091E503181624F40E94B8
:1047100080218093E5038091E50387FF05C00E9417
:10472000802181958093E5033091E4033323E1F008
:104730002091E5032223C1F045EB3403C00111248D
:10474000992319F09093E40303C081E08093E4037C
:1047500035EB2303C0011124992319F09093E5034D
:1047600003C081E08093E5030E94A6228091DC03D0
:104770009091DD039093D9038093D80386E0FE01E6
:104780003196A0EEB3E001900D928A95E1F726965E
:104790000FB6F894DEBF0FBECDBFDF91CF91089565
:1047A000E0EEF3E086E0DF011D928A95E9F71092D2
:1047B000DE031092DF0308958091EE030895CF93F6
:1047C000DF9300D01F92CDB7DEB790910D049430E7
:1047D00019F589837B836A8382E08093E9008FEFF8
:1047E0009091E800815095FD06C095ED9A95F1F7FE
:1047F00000008111F5CF8091E80085FF0DC040E0F9
:1048000050E063E070E0CE0101960E94272680917F
:10481000E8008E778093E8000F900F900F90DF9163
:10482000CF910895CF93DF93EC010E940A26823046
:1048300011F0843031F4BE0184E0DF91CF910C940B
:10484000DF23DF91CF910895BC0183E00C94DF2337
:10485000CF93DF93EC010E940A26823011F084305E
:10486000F9F482E08093E9008FEF9091E8008150A5
:1048700095FD06C095ED9A95F1F700008111F5CFF1
:104880008091E80085FF0CC040E050E066E070E0F9
:10489000CE010E9427268091E8008E778093E80061
:1048A000DF91CF910895CF93DF93EC010E940A2608
:1048B000823011F0843039F581E08093E9008FEF88
:1048C0009091E800815095FD06C095ED9A95F1F71D
:1048D00000008111F5CF8091E80085FF14C040E011
:1048E00050E068E070E0CE010E9427268091E80049
:1048F0008E778093E80088E0FE01A6EEB3E0019099
:104900000D928A95E1F7DF91CF91089580910C0483
:10491000811109C00E94B8270E9415288091E200E9
:1049200084608093E200089510920C040895089525
:1049300008950C94622042E061EC81E00E943127EE
:1049400042E261EC82E00C94312780910F048330C5
:1049500009F460C030F4813071F0823009F499C0FC
:1049600008958A3009F485C08B3009F46BC0893012
:1049700009F0A7C020C080910E04813A09F0A1C0BF
:104980008091E800877F8093E800809112049091E5
:104990001304892B21F468E086EE93E003C060E005
:1049A00080E090E070E00E9472268091E8008B77B2
:1049B0008093E800089580910E04813209F081C04F
:1049C0008091120490911304029708F07AC08091AC
:1049D000E800877F8093E8008091E80082FD05C0B1
:1049E00080910D048111F8CF6CC02091F30080916B
:1049F000F20090E0922B029729F48091F1008B7FD6
:104A0000813021F48091F1008093EE038091E800E1
:104A10008B7753C080910E04813A09F052C0809187
:104A2000120490911304892B09F04BC08091E80087
:104A3000877F8093E8008091E80080FFFCCF809121
:104A4000CC0236C080910E048132D9F580911204D7
:104A500090911304892BA9F58091E800877F8093BA
:104A6000E8000E946627809110048093CC020C9489
:104A7000BA1780910E04813221F58091E800877F7A
:104A80008093E8000E946627809111048093EF03D1
:104A9000089580910E04813AA1F48091E800877F07
:104AA0008093E8008091E80080FFFCCF8091EF03C5
:104AB0008093F1008091E8008E778093E8000C9459
:104AC0006627089584B7877F84BF0FB6F894A895AA
:104AD00080916000886180936000109260000FBE3A
:104AE00090E080E80FB6F8948093610090936100A5
:104AF0000FBE0E94B3120E94B8270E941528809111
:104B0000E20084608093E20078940E94AA2A0E94C6
:104B1000BB1282EC92E00E944D1280910D04853010
:104B200069F40E94302080910B048823B1F30E9425
:104B30001720882391F30E941126EFCF0E94C31201
:104B4000ECCF0C94A325292F332723303105C9F04E
:104B500060F42130310581F02230310509F04AC07E
:104B60008BE390E023EB3AE049C02132310511F1AB
:104B70002232310579F13EC082E190E02EEE3AE03A
:104B80003DC099278130910561F040F08230910558
:104B900059F0039779F5E9E7FAE008C0EFEAFAE09F
:104BA00005C0E1EAFAE002C0EFE7FAE0849190E0A4
:104BB0009F0124C06115710541F061307105D1F488
:104BC00089E090E02EED3AE019C089E090E025EC14
:104BD0003AE014C06115710541F06130710551F47E
:104BE00081E890E020E03BE009C080E490E021E82B
:104BF0003BE004C080E090E020E030E0FA01318347
:104C00002083089580910D04843011F081E008958F
:104C100082E008958091F003811102C00C94022675
:104C2000089580E189BD82E189BD09B400FEFDCF10
:104C30008091D8008F7D8093D8008091E0008260C1
:104C40008093E0008091E00081FDFCCF0895CF9239
:104C5000DF92EF92FF920F931F93CF93DF93EC01BC
:104C60008B017A010E948527811133C0E114F10480
:104C700039F0F70180819181081B190BC80FD91FEA
:104C8000C12CD12C0115110519F18091E80085FD89
:104C900016C08091E8008E778093E800E114F1045B
:104CA00049F0F70180819181C80ED91ED182C0825E
:104CB00085E00FC00E948527882321F30AC08991CF
:104CC0008093F10001501109FFEFCF1ADF0ADACF0C
:104CD00080E0DF91CF911F910F91FF90EF90DF90D7
:104CE000CF900895209114043091150426173707AA
:104CF00048F06115710539F42091E8002E77209372
:104D0000E80001C0B901FC0120E06115710579F1ED
:104D100080910D048823F1F18530F1F18091E80054
:104D200083FD3CC08091E80082FD2EC08091E800A8
:104D300080FFEBCF2091F3008091F20090E0922B66
:104D40006115710551F08830910538F42191209357
:104D5000F100615071090196F3CF21E0089709F045
:104D600020E08091E8008E778093E800CECF21117B
:104D7000CFCF0AC080910D04882361F0853061F0A7
:104D80008091E80083FD0AC08091E80082FFF2CFA5
:104D900080E0089582E0089583E0089581E0089519
:104DA00020911404309115042617370748F0611537
:104DB000710539F42091E8002E772093E80001C0B6
:104DC000B901FC0120E06115710591F180910D049C
:104DD000882309F440C0853009F43FC08091E80081
:104DE00083FD3DC08091E80082FD2FC08091E800E6
:104DF00080FFE9CF2091F3008091F20090E0922BA8
:104E00006115710559F08830910540F42491209383
:104E1000F1003196615071090196F2CF21E00897B7
:104E200009F020E08091E8008E778093E800CBCFF6
:104E30002111CCCF0AC080910D04882361F0853008
:104E400061F08091E80083FD0AC08091E80082FF54
:104E5000F2CF80E0089582E0089583E0089581E034
:104E60000895982F973068F59093E900981739F0D6
:104E70007091EC002091ED005091F00003C0242FC0
:104E8000762F50E021FD02C09F5FECCF3091EB0008
:104E90003E7F3093EB003091ED003D7F3093ED008D
:104EA0003091EB0031603093EB007093EC00209375
:104EB000ED005093F0002091EE0027FDE5CF80E05B
:104EC00008958F708093E90081E0089580910E0429
:104ED00087FF11C08091E80082FD05C080910D041C
:104EE0008111F8CF11C08091E8008B770BC08091C1
:104EF0000D04882349F08091E80080FFF8CF80916D
:104F0000E8008E778093E80008952091E4003091C6
:104F1000E50095E64091EC00842F817040FF23C0AE
:104F20008091E80080FD1DC080910D04882399F0D8
:104F3000853099F08091EB0085FD11C04091E4002F
:104F40005091E5002417350729F3915011F09A018B
:104F5000E1CF84E0089582E0089583E0089581E040
:104F6000089580E008954091E80042FFDDCF089564
:104F70000E9426280E942E28E0EEF0E080818160C9
:104F80008083E8EDF0E080818F77808319BCA7ED06
:104F9000B0E08C918E7F8C9380818F7E8083109285
:104FA0000C0408950F931F93CF93DF930E9426283C
:104FB0000E942E28C8EDD0E088818F778883888171
:104FC0008068888388818F7D888319BC10920D0446
:104FD0001092090410920B0410920A0400EE10E0E3
:104FE000F80180818B7F808388818160888342E0A3
:104FF00060E080E00E943127E1EEF0E080818E7F6A
:105000008083E2EEF0E0808181608083808188602F
:105010008083F80180818E7F80838881806188838E
:10502000DF91CF911F910F910895E8EDF0E080811D
:105030008F7E8083E7EDF0E080818160808384E073
:1050400082BF81E080930C040C94D227E8EDF0E05D
:1050500080818E7F80831092E20008951092DA00A2
:105060001092E10008951F920F920FB60F92112433
:105070002F933F934F935F936F937F938F939F9360
:10508000AF93BF93EF93FF938091E10082FF0BC03A
:105090008091E20082FF07C08091E1008B7F8093C6
:1050A000E1000E94A92A8091DA0080FF1FC0809150
:1050B000D80080FF1BC08091DA008E7F8093DA00D9
:1050C0008091D90080FF0DC080E189BD82E189BD5A
:1050D00009B400FEFDCF81E080930D040E94862478
:1050E00005C019BC10920D040E9494248091E10027
:1050F00080FF19C08091E20080FF15C08091E2001E
:105100008E7F8093E2008091E20080618093E200D4
:105110008091D80080628093D80019BC85E080938C
:105120000D040E9498248091E10084FF30C080919A
:10513000E20084FF2CC080E189BD82E189BD09B411
:1051400000FEFDCF8091D8008F7D8093D8008091A4
:10515000E1008F7E8093E1008091E2008F7E80935A
:10516000E2008091E20081608093E2008091090476
:10517000882311F084E007C08091E30087FD02C01E
:1051800081E001C083E080930D040E949924809106
:10519000E10083FF29C08091E20083FF25C0809158
:1051A000E100877F8093E10082E080930D041092FC
:1051B00009048091E1008E7F8093E1008091E200FC
:1051C0008E7F8093E2008091E20080618093E20014
:1051D00042E060E080E00E9431278091F00088602A
:1051E0008093F0000E949724FF91EF91BF91AF91BF
:1051F0009F918F917F916F915F914F913F912F91EF
:105200000F900FBE0F901F9018951F920F920FB620
:105210000F9211242F933F934F935F936F937F933C
:105220008F939F93AF93BF93CF93DF93EF93FF93AE
:10523000C091E900CF708091EC00D82FD17080FD33
:10524000D0E81092E9008091F000877F8093F00011
:1052500078940E9449291092E9008091F0008860BA
:105260008093F000CD2BCF70C093E900FF91EF91B8
:10527000DF91CF91BF91AF919F918F917F916F916E
:105280005F914F913F912F910F900FBE0F901F9004
:1052900018951F93CF93DF93CDB7DEB7AA970FB6BC
:1052A000F894DEBF0FBECDBFEEE0F4E08091F100D8
:1052B000819324E0E631F207C9F70E94A52480918A
:1052C000E80083FF2EC180910E0490910F04492FB6
:1052D00050E04A30510508F024C1FA01EC58FF4F64
:1052E0000C94D92A803821F0823809F01AC108C0FC
:1052F00080910A0490910B04992389F082600FC079
:10530000809112048F70873008F00BC18093E90000
:105310008091EB0085FB882780F91092E90090913D
:10532000E800977F9093E8008093F1001092F100DD
:10533000D1C0282F2D7F09F0F4C0882319F08230C6
:1053400061F0EFC080911004813009F0EAC0933021
:1053500009F080E080930B042EC08091100481112D
:105360002AC0809112048F702FEF280F263008F08A
:10537000D8C08093E9002091EB0020FF1CC093303F
:1053800021F48091EB00806214C09091EB00906159
:105390009093EB0021E030E0A90102C0440F551FBB
:1053A0008A95E2F74093EA001092EA008091EB00C0
:1053B00088608093EB001092E9008091E800877F7D
:1053C0008093E8000E946627ACC08111AAC01091AA
:1053D00010041F778091E3008078812B8093E30095
:1053E0008091E800877F8093E8000E946627809183
:1053F000E80080FFFCCF8091E30080688093E300A9
:10540000111102C082E001C083E080930D0489C0C5
:105410008058823008F085C080911004909111046A
:105420008C3D53E0950779F583E08A838AE289838E
:105430004FB7F894DE01139620E03EE051E2E32FEF
:10544000F0E050935700E49120FF03C0E295EF7025
:105450003F5FEF708E2F90E0EA3010F0C79601C0EA
:10546000C0968D939D932F5F243149F74FBF809154
:10547000E800877F8093E8006AE270E0CE01019641
:105480000E94722616C06091120470911304AE013E
:105490004F5F5F4F0E94A125BC01892B09F441C0D9
:1054A0009091E800977F9093E80089819A810E940B
:1054B000D0268091E8008B778093E80032C0803856
:1054C00081F58091E800877F8093E800809109044E
:1054D0008093F1008091E8008E7772CF811121C016
:1054E000809110049091110499270297D4F480912F
:1054F000E800877F8093E80080911004809309047E
:105500000E94662780910904811106C08091E30002
:1055100087FD02C081E001C084E080930D040E94F9
:105520009B248091E80083FF0AC08091E800877F78
:105530008093E8008091EB0080628093EB00AA9654
:105540000FB6F894DEBF0FBECDBFDF91CF911F9194
:1055500008950895CF9380910D048823A1F0C09100
:10556000E900CF709091EC00892F817090FD80E868
:10557000C82B1092E9008091E80083FD0E94492920
:10558000CF70C093E900CF91089597FB072E16F4D2
:10559000009407D077FD09D00E94DF2A07FC05D0D0
:1055A0003EF4909581959F4F0895709561957F4F3A
:1055B0000895EE0FFF1F0590F491E02D0994AA1BAA
:1055C000BB1B51E107C0AA1FBB1FA617B70710F0EE
:1055D000A61BB70B881F991F5A95A9F78095909520
:1055E000BC01CD010895F999FECF92BD81BDF89A15
:1055F000992780B50895A8E1B0E042E050E00C940E
:10560000272B262FF999FECF92BD81BDF89A0197DD
:1056100000B4021639F01FBA20BD0FB6F894FA9AFA
:10562000F99A0FBE08950396272F0E94022B0E941D
:10563000012B252F0E94022B242F0C94022B019664
:10564000272F0E94022B0C94012BDC01CB01FC01C3
:10565000F999FECF06C0F2BDE1BDF89A319600B4CB
:0E5660000D9241505040B8F70895F894FFCFD6
:10566E00C80ED90EE90E0000000000000000000078
:10567E0000000000A802C80ED90EE90E00000000BE
:10568E0000000000000000000000A402C80ED90EA9
:10569E00E90E000000000000000000000000000005
:1056AE00A002C80ED90EE90E000000000000000096
:1056BE000000000000009C02C80ED90EE90E00008A
:1056CE000000000000000000000000009802C80E5C
:1056DE00D90EE90E000000000000000000000000DE
:1056EE0000009402C80ED90EE90E00000000000062
:1056FE0000000000000000009002C80ED90EE90E56
:10570E0000000000000000000000000000008C02FD
:10571E0000002A060000000000000000000000004B
:10572E0000000000000000003E0600000000000027
:10573E0000000000000000000000000000005706FE
:10574E00000000000000000000000000000000004B
:10575E0000000000700600000000000000000000C5
:10576E0000000000000000000000F706000000002E
:10577E00000000000000000000000000000000001B
:10578E008D06000000000000000000000000000078
:10579E00000000000000A60600000000000000004F
:1057AE00000000000000000000000000BF06000026
:1057BE0000000000000000000000000000000000DB
:1057CE000000D806000000000000000000000000ED
:1057DE00000000000000000052076B0700000000F0
:1057EE000000000000000000000000002E002E024D
:1057FE00350035022D002D02310031022F0230020C
:10580E002F00300026022702330034002308000048
:10581E00001D0800000001FFCB036408641E14077E
:10582E00101EDC23532428242424122401E200E930
:10583E0000EA00B500B600B700CD008301CC008AA7
:10584E00019201940121022302240225022602273D
:10585E00022A02B300B4006F007000818283946646
:10586E0097C63431333236F4F5F6F7E200E900EA42
:10587E0000B500B600B700CD008301CC008A0192BE
:10588E000194012102230224022502260227022A64
:0C589E0002B300B4006F00700081828330
:00000001FF
