:100000000C94AF040C94F6040C94F6040C94F604CF
:100010000C94F6040C94F6040C94F6040C94F60478
:100020000C94F6040C94F6040C94D2280C94A42995
:100030000C9406210C94F6040C94F6040C94F6042B
:100040000C94F6040C94F6040C94F6040C94F60448
:100050000C94F6040C946E210C94F6040C94F604A3
:100060000C94F6040C94F6040C94F6040C94F60428
:100070000C94F6040C94F6040C94F6040C94F60418
:100080000C94F6040C94F6040C94F6040C94F60408
:100090000C94F6040C94F6040C94F6040C94F604F8
:1000A0000C94F6040C94F6040C94F604610F640F9F
:1000B000690F6E0F730F780F7D0F820F870F8C0FF4
:1000C000910F980F9C0F9F0FA90FA90FA90FA90FB0
:1000D000A20FA90FB315B315E515E5153E165C166D
:1000E000D117D1179E16331744174417C117D117CC
:1000F000D117CA17671867187918791870187918FE
:100100007918791867186718751879187918751893
:10011000112A382A302B382A302B842AA72A302B50
:10012000FE2A0D2B07634236B79BD8A71A396856AB
:1001300018AEBAAB558C1D3CB7CC5763BD6DEDFD09
:10014000753EF6177231BF000000803F05A84CCD08
:10015000B2D44EB93836A9020C50B9918688083C01
:10016000A6AAAA2ABE000000803F1A0009000000CB
:1001700014001A0000002B6414001A000900130078
:100180000A00E00004611500160017000700025580
:100190001D001B000600190005000D000F001800CF
:1001A0001C0000572A000B00110008000C00120070
:1001B0004C000E00100036003700386804572A4300
:1001C0002C4428450000000000002B6414001A0095
:1001D000080015001700E000046116000700090080
:1001E0000A0002551D001B000600190005001C0036
:1001F00018000C00120013002A000B000D000E0066
:100200000F00005734001100100036003700386826
:1002100004572A432C442845000000000000000039
:1002200000000000000000000000000000000000CE
:1002300000000000000000000000000000000000BE
:1002400000000000000000000000000000000000AE
:10025000000000000000000000000000000000009E
:10026000000000000000000000000000000000008E
:1002700000002B044B004A0052004D0049004C0086
:100280004E00500051004F0028003900A800AA007D
:10029000A900AC00AB00230224022502015727026B
:1002A0004C001E021F02200221022202065707579D
:1002B000055702570357010031020100AE0001004B
:1002C00000000000000029000100F700FB00FC0016
:1002D000F90001000100F600F500F400FA00010049
:1002E0000100F8004604160A460C240025002600EA
:1002F00057005600B2002100220023005500540090
:1003000001001E001F0020006300010001002B00FF
:1003100001002700000000000000005CC25CC35C1C
:10032000C55CC75CC95C095D010030002F002D026F
:100330002D00085D010030022F022E022E00010068
:100340004200430044004500010001003E003F0020
:1003500040004100010046003A003B003C003D00E7
:100360000100010001000100000000000000000089
:10037000000000000000000000000000000000007D
:10038000000000000000000000000000000000006D
:10039000000000000000000000000000000000005D
:1003A000000000000000000000000000000000004D
:1006B0000000000000000100010001000100010035
:1006C0000100010001000100010001000100010022
:1006D0000100010001000100010001000100010012
:1006E0000100010001000100010001000100010002
:1006F00001000100010001000100010001000100F2
:1007000001000100000000000000783C1E1E140AD9
:1007100005FFAA7F5540000101010101010101010E
:1007200002020202020202020203030303030303A2
:10073000030404040404040405050505050606066F
:100740000606070707070708080808090909090A2C
:100750000A0A0B0B0B0C0C0C0D0D0D0E0E0E0F0FD1
:100760000F1010111111121213131414151516165F
:100770001717181819191A1A1B1B1C1D1D1E1E1FCE
:100780002020212222232424252626272829292A1D
:100790002B2C2D2D2E2F3031323233343536373845
:1007A000393A3B3C3D3E3F40414243444546474841
:1007B000494A4C4D4E4F50515354555658595A5B17
:1007C0005D5E5F616264656668696B6C6D6F7072B7
:1007D000737577787A7B7D7E8082838587888A8C23
:1007E0008E8F91939596989A9C9EA0A2A3A5A7A957
:1007F000ABADAFB1B3B5B7BABCBEC0C2C4C6C9CB4E
:10080000CDCFD1D4D6D8DBDDDFE2E4E7E9EBEEF003
:10081000F3F5F8FAFDFF0403300000002003520056
:1008200065007600690075006E00670033003900CE
:1008300020006200790020004E00520000000C03EE
:10084000670074006900700073000000040309046D
:1008500009023B00020100A0FA09040000010301A3
:100860000100092111010001224000070581030850
:10087000000A090401000103000000092111010020
:10088000012281000705820320000A1201100100E5
:10089000000008EDFE00000100010203010501094E
:1008A00002A10185020901A1000509190129051507
:1008B00000250195057501810295017503810105EA
:1008C00001093009311581257F95027508810609D6
:1008D000381581257F950175088106050C0A3802B7
:1008E0001581257F950175088106C0C00501098025
:1008F000A101850319012AB700150126B70095014A
:1009000075108100C0050C0901A101850419012A97
:10091000A002150126A002950175108100C00501F5
:100920000906A101050719E029E715002501950829
:10093000750181029501750881010507190029FFDC
:10094000150026FF00950675088100050819012984
:1009500005950575019102950175039101C011245A
:100960001FBECFEFDAE0DEBFCDBF04B603FE27C067
:100970008091E7039091E803A091E903B091EA0325
:100980008730904BA740B04BD1F41092E703109200
:10099000E8031092E9031092EA0314BE84B7877F3C
:1009A00084BF0FB6F894A895809160008861809309
:1009B0006000109260000FBEE0E0F8E3099512E0DD
:1009C000A0E0B1E0E4E6FEE502C005900D92AA3D8C
:1009D000B107D9F723E0AAEDB2E001C01D92A73E0E
:1009E000B207E1F70E9401260C94302F0C9400000E
:1009F000CF93DF93EC018881823039F0833041F06E
:100A0000813051F48EE490E005C08DE490E002C0A6
:100A10008DE491E00E94F205CE01DF91CF910C941C
:100A2000FB0FCF93DF93EC018881823039F0833064
:100A300041F0813051F48BE490E005C08AE490E00D
:100A400002C08AE491E00E94F205CE01DF91CF91CD
:100A50000C94FB0FCF93DF93EC018881823039F047
:100A6000833041F0813051F48AEA90E005C089EA90
:100A700090E002C088EA90E00E94F205CE01DF918A
:100A8000CF910C94FB0FCF93DF93EC0188818230E0
:100A900069F028F4813089F48EEA90E00CC083304C
:100AA00041F0843051F48FEA90E005C08BEA90E089
:100AB00002C08CEA90E00E94F205CE01DF91CF9156
:100AC0000C94FB0F882319F0813031F008956623D0
:100AD00049F089E290E004C0662321F08BE290E0C7
:100AE0000C94F2050895CF93DF93EC010E94C91F87
:100AF000BE0180E090E0DF91CF910C949C1C883087
:100B00002DE5920751F089309D4589F4FB018281E2
:100B1000882371F082E090E006C0FB018281882387
:100B200039F081E090E00E94730580E0089581E053
:100B300008959C013A9521153F4138F5DC01AA271B
:100B4000B270AC01442754709C012227387094FF86
:100B50000FC090FF02C080E101C080E0AB2B09F024
:100B60008062452B09F08064232B69F080680BC0FC
:100B7000892F8170AB2B09F08260452B09F08460CE
:100B8000232B09F08860FB0109940895CF93DF932C
:100B9000EC01805E9109089710F0209719F463E743
:100BA00075E102C06DE278E1CE010E9499058C2FBB
:100BB000DF91CF910C94D614CF93DF93EC010E9478
:100BC0002C15CE01805E9109089710F0209719F43A
:100BD0006AE775E102C064E378E1CE01DF91CF916D
:100BE0000C949905CF93DF93EC010E94C605CE01CA
:100BF000DF91CF910C94DC0581E008950C947F0582
:100C00001F93CF93DF9300D000D01F92CDB7DEB7F4
:100C100049835A836B832091120389819A81211120
:100C200012C0662349F00E94F31D182F682F898196
:100C30009A810E949A1D03C00E94C61D182F6981C7
:100C40007A81812F04C00E94F31D69817A810F90FF
:100C50000F900F900F900F90DF91CF911F910C94F8
:100C6000C506FC01408151816281738184810C94AD
:100C700000060E94A7210E94B61F811102C00E9497
:100C80005B200C94E1080E94E5100E941C0A0C9461
:100C9000DD0808950C94490681E008950C944C06F3
:100CA000CF93C82F0E944A068C2F0E944E06CF91E8
:100CB000089508950E9455180E9459062FEF84E365
:100CC0009CE0215080409040E1F700C0000087E7A1
:100CD00097E790930108809300080C9494210F9358
:100CE0001F93CF93DF93EC010E9431068C01BE016C
:100CF0000E944210BE01C8010E94FE058823D9F15E
:100D0000BE01C8010E9489108823A9F1BE01C80153
:100D10000E94480A882379F1BE01C8010E94E111AE
:100D2000882349F1BE01C8010E942212882319F1CB
:100D3000BE01C8010E944D138823E9F0BE01C8011D
:100D40000E944A0F8823B9F08A81882369F001152F
:100D50008CE5180731F00E3D1C4531F40E945B20F4
:100D60000AC00E945A0607C0CE01DF91CF911F91A1
:100D70000F910C94FC0580E0DF91CF911F910F91B2
:100D8000089580E090E0089508952AE2829FC001CE
:100D90001124FC0126E0729FE00DF11D1124E60FE5
:100DA000F11DEE0FFF1FEA58FE4F859194910895B3
:100DB000880F991FFC01E65FF84F85919491089583
:100DC000CF93DF930E94C5060E94F807EC018115BE
:100DD000904508F041C0C11580E4D80708F0D1C0A3
:100DE000C83ED10510F5C03ED10508F0FDC0C83A97
:100DF000D10578F4C53AD10508F0A2C0C130D105BB
:100E000009F4F2C008F4EEC0C430D10508F0ECC01B
:100E1000E9C0CF3BD10508F49BC0C03CD10508F424
:100E2000E1C0CE01805C91099EC0C11590E2D90756
:100E300058F4C11521E0D20708F0D6C0C03FD10553
:100E400008F4D0C0D065D0C0C11580E3D80708F041
:100E50008EC0CE019F7087C0C11595E5D90708F0F7
:100E600043C0C11524E5D20708F0A2C0C11582E530
:100E7000D80708F5C11591E5D90708F085C0CE015E
:100E800074E0969587957A95E1F783709C2F93701F
:100E900021E030E002C0220F331F9A95E2F73C6850
:100EA000382BCF70C695C69580E2C89FE00111240B
:100EB000C22BD32B99C09E01237033278C2F86958C
:100EC0008695C115D34508F064C0C1E0D0E002C0EA
:100ED000CC0FDD1F2A95E2F720E2829FC00111248A
:100EE000C82BD92BDC6880C0C11529E5D207A0F436
:100EF000C11588E5D80708F060C0C11596E5D90787
:100F000008F070C08C2F0E948C088F71C82FD0E021
:100F1000DC2FCC27D06268C0C1152AE5D20708F4BF
:100F200051C0CE0190568115904208F05BC08D2FC4
:100F30008F710E948C08DD27D0628F71D82B54C02E
:100F4000C55AD0E0CB57DD4FC881D0E0D0644CC04B
:100F5000C85AD0E0CC0FDD1FC95ADD4F0990D881A7
:100F6000C02DD46441C00E94D806EC013DC0CE0122
:100F70009927D3FF03C0EC01D86C36C0EC01D06CCC
:100F800033C0DF70D06A30C0DC2FCC27C16FD06A8D
:100F90002BC0C1E0D0E002C0CC0FDD1F2A95E2F7E4
:100FA00020E2829FC0011124C82BD92BDA681CC013
:100FB000DC2FCC27C46FD06A17C0DC2FCC27C06FC2
:100FC000D06A12C08C2F8F700E948C0894E0D69546
:100FD000C7959A95E1F7CF70D0E0DC2FCC27D06988
:100FE000C82B02C0C0E0D0E0CE01DF91CF910895C0
:100FF0008238910569F1B0F48133910509F46DC02F
:1010000048F48932910509F463C08A32910509F4E4
:1010100069C008958533910509F455C08933910558
:10102000B9F00895833E910569F138F4803E910549
:10103000B1F0823E910509F10895863E9105A9F12E
:10104000873E9105B9F1843E910509F064C023C043
:101050002091D80320FD4FC021FD4DC008958091FF
:10106000D80380FD44C08091D90380FF44C08091A3
:10107000D80384FD42C083EE4DC08091D80382FF27
:1010800038C0F5CF8091D80382FD33C08091D90359
:1010900080FD31C0ECCF8091D90381FF32C08091B7
:1010A000D80384FD2AC087EE35C08091D80383FF22
:1010B00026C0F5CF8091D80383FD21C08091D9034C
:1010C00081FD1FC0ECCF8091D80385FD1CC01DC0E1
:1010D0008091D80385FD19C016C08091D80386FD84
:1010E00016C017C08091D80386FD13C010C089E3D5
:1010F00011C082EE0FC080EE0DC080E00BC086EE06
:1011000009C084EE07C089E205C085E303C08AE216
:1011100001C081E390E008959091D80392FF0DC043
:10112000282F2871283019F4877F846006C0282F63
:101130002471243011F48B7F886093FF0DC0282F19
:101140002871283119F4877E846106C0282F247104
:10115000243111F48B7E88612091D90320FF0DC0CA
:10116000382F3871383019F4877F816006C0382FE6
:101170003171313011F48E7F886021FF0DC0282F2E
:101180002871283119F4877E816106C0282F2171CA
:10119000213111F48E7E886194FD877E0895E82FB9
:1011A000F0E0EB55FC4F80810895089580EA8A9520
:1011B000F1F7089508950C94DA080C94DB080C9468
:1011C000DA080C94DF08CF93DF93AEE8B2E045E98C
:1011D00052E061E070E08D91E82FE295EF70F0E071
:1011E00021A18F70EB0102C0CC0FDD1F8A95E2F7C1
:1011F000CE019C2F9095922391A392A1892B82A33B
:101200004A175B0741F7A8E8B2E04EE852E061E018
:1012100070E08D91E82FE295EF70F0E021A18F70E2
:10122000EB0102C0CC0FDD1F8A95E2F7CE019C2FA7
:101230009095922391A392A1892B82A34A175B07D1
:1012400041F7EEE9F3E0A5EAB3E085EA93E0119215
:101250001D928E179F07D9F787E00E94C509DF917D
:10126000CF910C9439063F924F925F926F927F928A
:101270008F929F92AF92BF92CF92DF92EF92FF92A6
:101280000F931F93CF93DF938EE8882E82E0982EE2
:101290000EE913E095EA692E93E0792E512CCC24C7
:1012A000C394D12C5801D8013C901C92F401819137
:1012B0004F01C82FC295CF70D0E099A18F707601F1
:1012C00001C0EE0C8A95EAF7892F8E2989A38AA19D
:1012D0004E2C409484218AA30E94D608E8E8F2E0CC
:1012E00020E030E09191A92FA295AF70B0E09096E8
:1012F0004C91D8016C9150E09F7002C05595479574
:101300009A95E2F740FD08C09C2D022E01C0990F6E
:101310000A94EAF7892F01C080E0862BD8018C93CC
:101320002F5F3F4F26303105E9F689A1482249A2B7
:101330008AA1E82AEAA20F5F1F4F81E0F5019081A0
:10134000931101C080E0582A6016710609F0AACFF7
:10135000252D47E065EA73E08EE993E00E94C60917
:101360000E944306852DDF91CF911F910F91FF9031
:10137000EF90DF90CF90BF90AF909F908F907F9035
:101380006F905F904F903F9008950895FF920F9354
:101390001F93CF93DF938C01F62ED72FC42F2223D8
:1013A00049F081E08093DC020E9438219093DB02B7
:1013B0008093DA028091DC028823C1F08091DA0206
:1013C0009091DB020E944421069780F0EF2DFD2FC3
:1013D000D8014C2F50E0CD01801B910B841795074D
:1013E0001CF48D918193F7CF1092DC02DF91CF91A5
:1013F0001F910F91FF900895CF939091ED02992343
:10140000C9F0882311F0C0E003C01092ED0212C0B1
:101410008091ED02C817C8F7EC2FF0E0EE0FFF1F28
:10142000E352FD4F808191810E94C6050E94251FD5
:10143000CF5FEECFCF91089580913202882399F04B
:101440008091EE02882379F08091F1029091F2026E
:10145000009749F00E9444214A9728F01092EE022A
:1014600081E00C94FC0908951092EE021092320271
:101470001092F2021092F10281E00C94FC0980912A
:10148000320281110C94340A81E080933202089573
:101490005F926F927F928F929F92AF92BF92CF9204
:1014A000DF92EF92FF920F931F93CF93DF938C0104
:1014B0007B011092EF02873F2CE5920741F4FB017C
:1014C000C281CC23C9F081E0809332020AC1883FF7
:1014D000FCE59F0739F4FB01C281CC2369F00E942F
:1014E000340AFFC0893F9C4539F4FB01C281CC23FB
:1014F00019F00E943F0AF5C080913202882309F456
:10150000EFC01092F002AA24A394B12C95E0992E7A
:10151000C1E0D0E0882483948091F002823008F00A
:10152000A1C0C82ED12C9C9CF0019D9CF00D1124D3
:10153000E85DFD4F4081518177247A9490E0FA0173
:10154000E90FF11DE90FF11D2591349102171307E1
:1015500009F4792E232B11F09F5FF1CFFFEF7F125B
:1015600002C0612C66C05090EE02F70162806620D6
:1015700069F19C9CF0019D9CF00D1124E85DFD4FEC
:101580009E0101C0220F7A94EAF73481232B248331
:10159000552039F3AE0102C0440F551F9A95E2F76A
:1015A0004150510930E04217530709F042C02281EF
:1015B00033812115310521F0C9010E94C60503C000
:1015C00061E00E9462058092EF0233C09E0102C07A
:1015D000220F331F9A95E2F7215031099C9CF001AC
:1015E0009D9CF00D1124E85DFD4F448150E02417CF
:1015F000350769F4228133812115310521F0C901B4
:101600000E94DC0505C060E00E94620501C0512C0B
:101610009C9CF0019D9CF00D1124E85DFD4FCE01D6
:1016200001C0880F7A94EAF7809594818923848396
:10163000652CB628AA2069F09C9CF0019D9CF00DB9
:101640001124E85DFD4F91E08481811190E0892FA4
:1016500001C080E08170A82E8091F0028F5F80939E
:10166000F0025ACF8091EF02882351F00E94382176
:101670009093F2028093F10280E00E94FC092CC05A
:10168000B1100DC081E00E94FC09AA2029F110923E
:10169000F2021092F10281E08093EE021DC0F70188
:1016A00082818823C9F08091EE028823A9F00E94EC
:1016B00038219093F2028093F102E091ED02E8303C
:1016C00058F481E08E0F8093ED02F0E0EE0FFF1FE3
:1016D000E352FD4F1183008381E0CB2DC82701C069
:1016E000C1E08C2FDF91CF911F910F91FF90EF9070
:1016F000DF90CF90BF90AF909F908F907F906F9032
:101700005F900895EF92FF920F931F93CF93DF9313
:10171000F62E472FE82FF0E0711106C0EA5EF84F71
:101720006491762F862F72C0272F30E0EA5EF84F43
:10173000E4910E2F10E056E0659FC0011124CFEF19
:10174000D0E0BE010E94AD2E5BEA5603C001579F58
:10175000900D11248F0D911D8F0D911D982F990FB4
:10176000890F7E01E21AF30AE09ED001E19EB00DDE
:10177000F09EB00D1124489FA0011124452F55273C
:101780007E01E41AF50AE09EA001E19E500DF09E54
:10179000500D11247E01E81AF108E29EC001E39E7B
:1017A000900DF29E900D1124892F9927C81BD90BFB
:1017B000C09FC001C19F900DD09F900D1124623039
:1017C000710591F048F461157105E1F06130710522
:1017D000A9F48B2F752F19C06430710561F038F0B2
:1017E0006630710579F00AC0892F7B2F0EC08E2FCD
:1017F0007B2FE52F0AC08E2F792F02C0852F7E2FD9
:10180000EB2F03C08B2F7E2FE92F6E2FDF91CF910F
:101810001F910F91FF90EF9008950895CF93DF935C
:10182000762FE901682F842F0E94820B79836883C9
:101830008A83DF91CF9108958091AC03282F26955C
:1018400030E02115310519F48170826005C0233123
:10185000310524F0817084628093AC03089588E0A0
:1018600090E00C94F02ECF92DF92EF92FF926B01FA
:101870007C010E941C0CB701A60188E090E0FF905B
:10188000EF90DF90CF900C940E2FECEAF3E083E022
:10189000808311828FEF82838383148260817181C0
:1018A000828193810C94330C8091AC0380FF02C041
:1018B0008695089580E008958091B003833018F4F0
:1018C0008F5F8093B0036091AC037091AD03809102
:1018D000AE039091AF030C94330C8091B003882336
:1018E00019F081508093B0036091AC037091AD0307
:1018F0008091AE039091AF030C94330C609135024C
:1019000070E08091AC0380FF0AC08091F40223E074
:10191000829FC00111248F549C4F0C946A118091B6
:10192000F30290913402891780F7E82FF0E09F01CD
:10193000220F331FE20FF31FEF54FC4F118210826E
:1019400012828F5FF0CF9091AC0390FF16C0909100
:10195000F30220913402921770F4E92FF0E0DF01D6
:10196000AA0FBB1FEA0FFB1FEF54FC4F818360835C
:1019700042839F5FF0CF0C947E0C0895CF93DF934A
:1019800000D01F92CDB7DEB79091AC0390FF0AC094
:101990009E012F5F3F4F0E940E0C4B8169818A810F
:1019A0000E94A30C0F900F900F90DF91CF9108959C
:1019B000CF93DF93EC016C8170E080E090E00E94B7
:1019C000AE2C20E030E04FE753E40E94D12B2BED0A
:1019D0003FE049E450E40E94D72D0E94442E0E942B
:1019E0004B2C2BE43AE34EE25FE30E94642B20EFA2
:1019F0003BEF48ED52E40E94D72D0E947D2C462FEC
:101A0000ECEAF3E0628181810E94BE0C8C818F5FE1
:101A10008C83DF91CF910895CF93DF93EC01ECEAB3
:101A2000F3E0438162818C810E94BE0C8C818F5FC8
:101A30008C83DF91CF910895AF92BF92CF92DF92C6
:101A4000EF92FF920F931F93CF93DF9300D01F92DB
:101A5000CDB7DEB7182FF62E042FE22E8091AC03FF
:101A600080FF6BC0E82FE695AE2FB0E0AB56BD4FC0
:101A70009C919093FC028E7F823061F49E012F5FD7
:101A80003F4F812F0E940E0C4B8169818A810E94F9
:101A9000A30C41C0923019F40091AF033CC09630C2
:101AA00019F41091AD0337C09930A9F5E9508E2F84
:101AB0008170D82EE695F0E0EF5EF84FA590B490D7
:101AC000C12CBB2460913302C61618F52C2D30E0D2
:101AD000A29EC001A39E900DB29E900D112470E0B5
:101AE0000E94AD2E812FD11002C0860F01C0861B2F
:101AF0009091F302290F311DA901440F551F240FA6
:101B0000351F2F543C4F402F6F2D0E940E0CC39455
:101B1000D9CF0E947E0C1093AD03F092AE030093D8
:101B2000AF03EE2051F06091AC037091AD03809152
:101B3000AE039091AF030E94330C0F900F900F9063
:101B4000DF91CF911F910F91FF90EF90DF90CF9099
:101B5000BF90AF900895ECEAF3E09181282F438184
:101B600062818FE0890F0C941C0D81E00C94AB0D09
:101B7000ECEAF3E09181282F4381628181EF890FA4
:101B80000C941C0D81E00C94B80DECEAF3E062813A
:101B900021E1620F08F46FEF282F438181810C94BB
:101BA0001C0D81E00C94C50DECEAF3E0628121E1AB
:101BB000621B08F460E0282F438181810C941C0D86
:101BC00081E00C94D40DECEAF3E0438121E1420F73
:101BD00008F44FEF282F628181810C941C0D81E065
:101BE0000C94E30DECEAF3E0438121E1421B08F49D
:101BF00040E0282F628181810C941C0D81E00C94BF
:101C0000F20D20E00C941C0DECEAF3E080818E7F55
:101C1000808360817181828193810E94330C109254
:101C2000FD022FEF80E792E0215080409040E1F7E5
:101C300000C000000C947E0C6091AC03669570E0CF
:101C40004BE050E086E392E00E94DB2E892B19F4F2
:101C500081E08093FD020E9438219093F6028093E8
:101C6000F50208959091AC0390FF35C091708111F9
:101C700002C0926006C0833110F0946202C0880FE7
:101C8000982B9093AC03662351F06091AC03709154
:101C9000AD038091AE039091AF030E94330C60912D
:101CA000AC03669570E04BE050E086E392E00E9462
:101CB000DB2E892B19F01092FD0202C00E941C0E2F
:101CC00081E08093F8024091AF036091AE03809170
:101CD000AD030C94010E0895682F9091AC03969576
:101CE00081E0890F833108F081E00C94320E81E0AD
:101CF0000C946C0E682F9091AC0396958FEF890F22
:101D000009F482E10C94320E81E00C947A0E61E0C9
:101D10000C94320EECEAF3E080818160808386953A
:101D20000C94870E8091AC0380FD0C94040E0C94EF
:101D30008A0E60E00C94320E8091FB0281112EC05D
:101D40000E94B61F811104C00E945B200E94450CB6
:101D50000E942F0C6093AC037093AD038093AE038D
:101D60009093AF036E7F61F40E94450C0E942F0C8C
:101D70006093AC037093AD038093AE039093AF0375
:101D80000E941C0C1092FD028091AC0380FF03C0E6
:101D900086950E94990E81E08093FB0208950F932F
:101DA0001F93CF93DF938091FD02882309F452C0E3
:101DB0008091FC02E091AC03E695E81BE093F7020A
:101DC000823049F4F0E0E35FF84FE491CE2FD0E0A9
:101DD00008ED1CE00FC0863049F4F0E0E65FF84FF4
:101DE000E491CE2FD0E00CE01DE004C0C0EDD7E0C0
:101DF0000DE01CE08091F802882389F01092F8022F
:101E00000E9438219E0120953095820F931F909358
:101E1000F6028093F5021092FA021092F902809174
:101E2000F5029091F6020E9444218C179D0790F0D4
:101E3000E091F502F091F602CE0FDF1FD093F6028B
:101E4000C093F50285EF92E0F801DF91CF911F91E9
:101E50000F910994DF91CF911F910F9108958823DD
:101E600011F0FA0101C0FB010994CF93DF93C82F51
:101E7000D62F0E94540C8C1740F00E94540C8D17E2
:101E800020F4DF91CF910C94770E8C2FDF91CF91BE
:101E90000C94870E0F931F93CF93FB01C281CC2329
:101EA00009F455C08C010E94C51E8272F801E25CE3
:101EB000FC45E431F10508F04DC0EA5AFF4F0C949F
:101EC000D52E0E94920E45C044E85EE067E77EE0B2
:101ED0002CC047E75EE064E87EE027C042EC5DE0AE
:101EE00065EB7DE022C045EB5DE062EC7DE01DC06E
:101EF00040EE5DE061ED7DE018C041ED5DE060EE3B
:101F00007DE013C04EEF5DE06FEE7DE00EC04FEE62
:101F10005DE06EEF7DE009C04DE65CE06CE57CE0E5
:101F200004C04CE55CE06DE67CE00E942F0F11C020
:101F300081E00E94870E0DC065E082E005C068E088
:101F400086E002C062E189E00E94350F02C0C1E074
:101F500001C0C0E08C2FCF911F910F910895CF93B6
:101F6000DF93EC0181E0898B8F810E94C81E8885F8
:101F70000E94DB1E0E94251FEA81FB81CE0106968E
:101F8000309729F06C897D89DF91CF910994DF9199
:101F9000CF910895CF93DF93FC012081223041F44B
:101FA000FB01EC01828193810E94C60581E08B8751
:101FB000DF91CF910895FC018081813021F4FB01F4
:101FC0008081918105C0823029F4FB018281938157
:101FD0000C94C6050895FC018081813021F4FB0139
:101FE0008081918105C0823029F4FB018281938137
:101FF0000C94DC050895EF92FF920F931F93CF93FB
:10200000DF93FC012285211136C0EC01E380F480CE
:10201000F7E5FF1A26E12E9DC0012F9D900D11249A
:10202000DC01A050BF4F1496ED91FC9115978A5F8B
:102030009E4F309729F054966D917C915597099554
:1020400086E18E9D80018F9D100D112400501F4F41
:10205000F80187810E94CE1EF80180850E94E11E52
:102060000E94251F188219861B861E821D821092CF
:10207000FF021092FE02DF91CF911F910F91FF900E
:10208000EF900895DF92EF92FF920F931F93CF93FB
:10209000DF93FB0122812223A1F1209141022F3FF6
:1020A00081F18C01C0E0D1E0E12CF12CDD24D3944E
:1020B00080914102082E000C990B8E159F050CF1A2
:1020C0008E818823C9F089859A858017910739F414
:1020D0008091FE029091FF020817190769F0DF86D0
:1020E0001C870B878989811103C0CE010E94AF0F25
:1020F000CE0106960E94FB0FFFEFEF1AFF0A6696CD
:10210000D7CFDF91CF911F910F91FF90EF90DF908C
:102110000895EF92FF920F931F93CF93DF939C014B
:1021200037552F3F310511F008F047C0409141026B
:10213000042E000C550B4217530714F42093410250
:10214000FB017C01828196E1929F8001939F100D9B
:102150001124E801C050DF4F888B92818E81992332
:1021600011F1FA86E9868F5F8E830E9438219E875F
:102170008D870E94FB1E8F830E94C51E88870E9448
:10218000D81E9885892B8887E881F981C8018A5FE4
:102190009E4F309719F06C897D890995F092FF0266
:1021A000E092FE020AC0882341F08989882329F041
:1021B000C8018A5F9E4F0E94FB0F81E0DF91CF91A3
:1021C0001F910F91FF90EF900895CF92DF92EF92C1
:1021D000FF920F931F93CF93DF93809141028F3F24
:1021E000F1F1F12C96E1E92E0F2D10E080914102E2
:1021F000082E000C990B801791078CF1E09EF001DE
:10220000E19EF00D1124E050FF4FC288D388C11425
:10221000D10419F488ECC82ED12CE09EE001E19E97
:10222000D00D1124C050DF4F8E818823B1F08D85F1
:102230009E850E944421C816D90678F489898111A7
:1022400003C0CE010E94AF0FE09EC001E19E900D41
:1022500011248A5F9E4F0E94FB0FF394C5CFDF913C
:10226000CF911F910F91FF90EF90DF90CF90089545
:102270002BB1342F309523233BB1432B3FB7F89438
:10228000FC01680F791FE617F70789F0819198E044
:102290004BB9000000C087FF2BB9880F000000C0B9
:1022A00000C000C02BB900C09A9591F7ECCF3FBF9A
:1022B00008952AB1242B2AB99B01220F331F620FE4
:1022C000731F0E94381187EC90E00197F1F700C06E
:1022D0000000089548E00C9459110F931F93CF9379
:1022E000DF93C62FD42F122FFC0182818823C9F0DF
:1022F000609302030E9438219093010380930003AE
:1023000080E28C0F883008F057C0C77081E001C0B0
:10231000880FCA95EAF7DF91CF911F910F910C9426
:10232000731580910203681330C08091000390916F
:1023300001030E944421883C910538F500E20D0F0D
:10234000CD17B9F080E28C0F883040F4C77081E07F
:1023500001C0880FCA95EAF70E947A15083028F55F
:1023600081E09D2F977001C0880F9A95EAF70E942F
:102370007315812F0E9460150830F0F4D77081E04A
:1023800001C0880FDA95EAF70AC080E28C0F883026
:1023900098F4C77081E001C0880FCA95EAF7DF9111
:1023A000CF911F910F910C947A15812FDF91CF91CE
:1023B0001F910F910C946015DF91CF911F910F9198
:1023C00008959C01CB01233F4CE53407F9F078F4E4
:1023D000283DFCE53F07B9F0293D4CE5340711F1F4
:1023E000273D3C4531F526E241EE61EE1EC0253F1A
:1023F000FCE53F0799F070F0263F3C45D1F427E219
:1024000045EE66EE12C027E245EE0EC026E241EE32
:1024100060EE0BC027E245EE64EE07C026E241EE17
:1024200062EE03C028E241E065EE0E946D1180E09B
:102430000895FC018281882319F010920203089507
:1024400081E00895CF93DF93EC01FB018281882323
:1024500009F41FC1C230FCE5DF0708F41BC1C63117
:102460009CE5D90738F09E012A5F3C4529303105AB
:1024700008F010C10E94CE1F9093D9038093D80317
:10248000C031ECE5DE0709F4C3C008F041C0C83034
:102490008CE5D80709F49AC0F0F4C430ECE5DE0707
:1024A00009F487C068F4C2308CE5D80709F477C016
:1024B000C330DC4509F0E3C08091D803826076C068
:1024C000C630ECE5DE0709F46EC008F07BC08091F1
:1024D000D80388606BC0CC308CE5D80709F485C080
:1024E00068F4CA30ECE5DE0709F474C008F079C07E
:1024F0000E9455188091D803806858C0CE308CE572
:10250000D80709F476C008F07FC08091D8038BC04B
:10251000CB3FECE5DE0709F44FC018F5C3318CE57D
:10252000D80709F47DC078F4C131ECE5DE0709F481
:1025300073C0C231DC4509F0A2C00E9455188091D9
:10254000D8038F7733C0C5318CE5D80709F472C042
:1025500008F486C0CA3FDC4509F091C08091D903D8
:102560003EC0CF3FFCE5DF0709F45FC058F4CD3F24
:102570009CE5D90709F444C008F43FC08091D90311
:1025800082602DC0C130FDE5DF0709F475C008F495
:102590005DC0C230DD4509F072C080E06EC0809140
:1025A000D803816003C08091D80380618093D803F1
:1025B00066C08091D80311C08091D9038260809356
:1025C000D9035DC08091D8038062F0CF8091D80399
:1025D0008064ECCF8091D80388608460E7CF81600D
:1025E000EECF8091D8038E7FE1CF8091D8038D7F8D
:1025F000DDCF8091D803877FD9CF8091D90318C0D0
:102600008091D9038D7FDBCF8091D8038F7ECECF91
:102610008091D8038F7DCACF8091D8038F7BC6CF9E
:102620008091D803877F8B7FC1CF8091D9038D7F25
:102630008E7FC5CF8091D80382FB222720F991E0BD
:10264000922790FB82F990FB83F9B0CF8091D90358
:10265000982F909591708E7F892B90FB81F9AFCF49
:102660000E9455188091D80387FB222720F991E01A
:10267000922790FB87F99ACF81E00E945D2080919C
:10268000D8039091D9030E94DF1F0E94551880E063
:1026900001C081E0DF91CF910895CF93DF93863120
:1026A0009C4571F5EB010E94C51E982F917119F49C
:1026B000982F9A7A01C090E08A812091420230914D
:1026C0004302882379F081E0911101C080E080937A
:1026D0000303911102C069E201C065E3C9010E94D0
:1026E000A4200AC080910303811102C069E201C0E5
:1026F00065E3C9010E94A6200E94251F80E001C059
:1027000081E0DF91CF9108959093090380930803AE
:102710000895E0910803F0910903309721F00190AA
:10272000F081E02D099480E00895E0910803F09194
:102730000903309721F00280F381E02D0994089578
:10274000E0910803F0910903309739F022E0DC01B1
:102750002C930480F581E02D0994089520910603BF
:10276000309107032817390771F09093070380937E
:102770000603E0910803F0910903309721F00680E9
:10278000F781E02D09940895209104033091050309
:102790002817390771F09093050380930403E091A3
:1027A0000803F0910903309721F00084F185E02DB2
:1027B0000994089585B7806885BF85B7806885BF0F
:1027C000089508950C94E1130C94E2130C94E11312
:1027D0000C94E1130E94DA130E94E6130C94E413A4
:1027E00081E008950E942F210E94E3080E94BE21EB
:1027F0000E949C0E0C94E813AF92BF92CF92DF928E
:10280000EF92FF920F931F93CF93DF93CDB7DEB775
:102810002A970FB6F894DEBF0FBECDBF0E943309D2
:102820000E94F013811111C08FEF89838A831B826C
:102830000E9438218160782F9D838C8349815A8141
:102840006B818D810E94961440C08BE0A82E83E09E
:10285000B82E00E010E0C02E802F0E94CF08E82E96
:10286000F501D1905F01D82631F40F5F1F4F07307B
:10287000110589F7D9CF8091830381FD0E94D50886
:1028800080E0FF24F3949D2D9F21D1F08E83CF8291
:10289000EF2081E009F480E088870E943821816080
:1028A000782F9A8789874E815F8168858A850E9403
:1028B0009614F801E55FFC4F8081F826F08205C090
:1028C0008F5FFF0C8630F9F6D0CF0E94CF0E0E94AA
:1028D00050230E94891390910A038917B1F00E9436
:1028E000891380930A032A960FB6F894DEBF0FBEB1
:1028F000CDBFDF91CF911F910F91FF90EF90DF90AF
:10290000CF90BF90AF900C9450062A960FB6F894D3
:10291000DEBF0FBECDBFDF91CF911F910F91FF9012
:10292000EF90DF90CF90BF90AF900895CF93DF935B
:10293000CDB7DEB72B970FB6F894DEBF0FBECDBF75
:102940004F83588769877A878B87DE01119686E0E7
:10295000FD0111928A95E9F785E0FE013796019015
:102960000D928A95E1F70E94931E882319F082E068
:102970000E94971F0E94661E81110E94171F4981A5
:102980005A816B817C818D819E810E945F1B2B9679
:102990000FB6F894DEBF0FBECDBFDF91CF91089583
:1029A000FC01808191810E94351E0895CF93882378
:1029B00009F450C0C82F8CEF8C0F813AD0F46C2FE3
:1029C00080914202909143020E946E20882349F038
:1029D0006C2F80914202909143020E94A6200E9497
:1029E000251F6C2F80914202909143020E94A420E7
:1029F0000CC080E28C0F883058F4C77081E001C0B1
:102A0000880FCA95EAF70E94C81ECF910C94251F23
:102A1000EBE5EC0FE33040F4F0E0EA52FD4F80814B
:102A200090E0CF910C94AE13E8E5EC0FE73150F451
:102A3000F0E0EE0FFF1FE855FD4F80819181CF91AF
:102A40000C94C413C03F30F08C2F0E945822CF91B9
:102A50000C944523CF910895882389F19CEF980F1A
:102A6000913A40F4682F80914202909143020E9473
:102A7000A6200DC090E2980F983058F4877091E02E
:102A800001C0990F8A95EAF7892F0E94CE1E0C94F7
:102A9000251F9BE5980F933020F480E090E00C9484
:102AA000AE1398E5980F973120F480E090E00C94F5
:102AB000C413803F20F00E94C0220C944523089547
:102AC000CF93C82F0E94D614C93349F42FEF87EE55
:102AD00093E0215080409040E1F700C000008C2F2F
:102AE000CF910C942C15882321F00E94C81E0C94C1
:102AF000251F0895882321F00E94CE1E0C94251FC7
:102B00000895CF92DF92EF92FF920F931F93CF938E
:102B1000DF937C01062FC72FFC01D581D295DF7092
:102B2000128111110E94E81E0E94BE1E882379F0B6
:102B3000112369F080E2800F883048F082E00E9423
:102B4000971F0E94BE1E91E0D82ED92601C0D12C1D
:102B5000CC2EC2948FE0C8228C2D90E0FC01E65967
:102B6000FF4F0C94D52E8C2F807FCF70882311F0CF
:102B7000C295C07F112399F0CC2309F4ECC180E207
:102B8000800F883010F0011104C08C2F0E94C81EE5
:102B900003C08C2F0E94DB1E0E94251FDCC1802FEA
:102BA0000E942C15CC2309F4FCC180E2800F8830F0
:102BB00010F0011104C08C2F0E94CE1E03C08C2F78
:102BC0000E94E11E0E94251FECC18C2F807FCF70D8
:102BD000803211F0C295C07F002319F0013059F105
:102BE00034C01123B1F0DD2381F0D13031F40E94E3
:102BF000FB1E8C2B0E94031FD4C1D33031F40E94E2
:102C0000171F8C2F0E94631F24C00E94FB1E8C2B59
:102C100021C0DD2369F0D13041F40E94C51E8C2310
:102C200009F4BFC10E946C1F03C0D33009F4B9C1BD
:102C30000E94171F1FC0112321F0D43008F0B1C12A
:102C400008C0D33008F0ADC115C0112331F0D11147
:102C500082C18C2F0E947315A4C1DD2359F0093362
:102C600009F08BC1FFEF27EE83E0F1502040804058
:102C7000E1F781C18C2F0E947A1593C18C2F869524
:102C80008695837019F0813061F08BC1112321F09A
:102C9000802F9C2F937002C080E090E00E94AE13C2
:102CA00088C1112321F0802F9C2F937002C080E0F7
:102CB00090E00E94C4137DC11123F9F0053F51F04B
:102CC000063F71F0043FA9F48091D2039091D303A1
:102CD00081600BC08091D2039091D303826005C0C4
:102CE0008091D2039091D30384609093D303809317
:102CF000D203802F0E9458221EC0053F51F0063F8C
:102D000071F0043FA9F48091D2039091D3038E7F98
:102D10000BC08091D2039091D3038D7F05C0809129
:102D2000D2039091D3038B7F9093D3038093D203EC
:102D3000802F0E94C0220E9445233BC18C2F8370AC
:102D400009F045C0111131C1402F42954695477099
:102D5000440F440F602F6F70862F90E0A0E0B0E02A
:102D6000042E04C0880F991FAA1FBB1F0A94D2F714
:102D700004FF10C00FE010E020E030E004C0000FBE
:102D8000111F221F331F4A95D2F7009510952095E9
:102D9000309503C000E010E09801C695C695C37059
:102DA000BC01CD01602B712B822B932BC23049F0DB
:102DB00058F4C13019F00E94B01CF7C00E949E1C4C
:102DC000F4C00E94C21CF1C00E949C1CEEC01123E2
:102DD00019F08C2F817001C08695882309F4E5C015
:102DE000402F429546954770440F440F602F6F70F7
:102DF000862F90E0A0E0B0E0042E04C0880F991F59
:102E0000AA1FBB1F0A94D2F704FF10C00FE010E006
:102E100020E030E004C0000F111F221F331F4A952D
:102E2000D2F7009510952095309503C000E010E092
:102E30009801C695C695C370BC01CD01602B712B5E
:102E4000822B932BC23049F058F4C13019F00E9404
:102E5000751DABC00E94631DA8C00E94871DA5C040
:102E60000E94D61CA2C0CF70112339F08C2F0E9473
:102E7000FC1C802F0E94731598C0802F0E947A1529
:102E80008C2F0E941D1D91C0023F01F128F4003FCC
:102E900041F0013FA1F05AC0033FF9F0043F39F17E
:102EA00055C0112341F0D33008F07BC08C2F8F71B7
:102EB0000E94421D76C0D43008F073C0F7CF1123B2
:102EC00039F08C2F8F710E94FC1C6BC01123C9F349
:102ED0008C2F8F710E941D1D64C0112329F08C2F2F
:102EE0008F710E94E71C5DC00E94E21C5AC0112332
:102EF000C9F00E94631E0E94CE1E0E948F1E843065
:102F000039F40E948E1F8C2F8F710E941D1D6CC082
:102F1000D33008F069C0CF718C2F0E94FC1C63E095
:102F20008C2F0DC00E94631E0E94C81ED33050F02B
:102F30000E948E1F0E946C1F64E08C2F8F710E9474
:102F4000781F52C081E00E94971F4EC0112339F0B4
:102F5000DD2309F4B6CF802F0E94D61422C0DD23D2
:102F600009F4B6CF093349F49FEFE7EEF3E091504F
:102F7000E040F040E1F700C00000802F0E942C15D7
:102F800010C04C2F4F70602FC7010E94C1060E94D5
:102F90000D1C0FC04C2F4F70602FC7010E94C4063C
:102FA00008C088EF8C0D843020F40E9489130E94A1
:102FB0005006DD20D9F00E948F1E80FD17C0F7015A
:102FC00012820E94891E0E94FC1CC7010E94FF17EA
:102FD0000E94891EDF91CF911F910F91FF90EF907A
:102FE000DF90CF900C941D1DD12CDFCFDF91CF91BE
:102FF0001F910F91FF90EF90DF90CF9008950F9366
:103000001F93CF93DF93EC01988189812B813C81C1
:10301000232B31F08F3F31F481E09F3F19F403C03F
:1030200081E001C080E080FD13C0CE010E946F06E8
:10303000882371F0688179818A810E94401E8C0109
:103040000E94991D0E948A1CB801CE010E94811520
:10305000DF91CF911F910F910895882321F00E9455
:10306000DB1E0C94251F0895882321F00E94E11E89
:103070000C94251F08950E94E81E0E94F81E0E94CD
:10308000251F0E946F240E94452380E090E00E944B
:10309000AE1380E090E00C94C413809142029091B2
:1030A00043020E94A8200C943B180E94D51E0C9449
:1030B0004D18E92FE295EF704E2F50E0FA0132974C
:1030C000EE30F105B0F4E658FF4F0C94D52E803F5A
:1030D00091F018F4883E68F40EC0843F51F40BC0A0
:1030E000883E48F0813F29F406C093FB882780F989
:1030F000089580E0089581E008950E94351E0E94A1
:1031000059180895CF93DF9300D000D01F92CDB708
:10311000DEB70F900F900F900F900F90DF91CF912F
:103120000895CF93DF9300D000D000D0CDB7DEB7A5
:1031300026960FB6F894DEBF0FBECDBFDF91CF91BC
:1031400008951F93CF93DF93C091130316E08091EE
:103150001403C81799F0D0E01C9FF0011D9FF00DDB
:103160001124EB5EFC4F4081518162817381848127
:1031700095810E9491182196C770E9CFDF91CF9178
:103180001F91089540914503509146036091470374
:10319000709148038091490390914A030C949118CF
:1031A000209113039091140356E02917A9F030E001
:1031B000529FF001539FF00D1124EB5EFC4F718183
:1031C000761306C07081781303C07281741306C031
:1031D0002F5F3F4F2770E9CF80E0089581E0089589
:1031E000CF9380914A0382958F7009F05FC08091E0
:1031F0004703882309F45AC080911303B091140344
:1032000070914503A09146034091480350914903B2
:1032100091E07F3F09F090E0692FC6E08B1709F439
:1032200045C04115510521F0AF3F21F020E003C01A
:1032300021E001C0262F90E020FD35C0C89FF0019D
:10324000C99FF00D1124EB5EFC4F21812A132BC086
:103250002081271328C02281211125C02381348198
:103260002417350710F421503109241B350B283C55
:103270003105C8F420914A032F70206120934A033E
:1032800026E0289FF001299FF00D1124E65EFC4FF7
:1032900080818F708061808385E493E00E94FF17B6
:1032A000CF910C94A11801968770B8CFCF91089553
:1032B0009F92AF92BF92CF92DF92EF92FF920F93C5
:1032C0001F93CF93DF93CDB7DEB761970FB6F89416
:1032D000DEBF0FBECDBF7C0185E0F701DE011D968C
:1032E00001900D928A95E1F7D701DC9011960C912F
:1032F00011971296CC9030914503409146038091EE
:10330000480390914903009731F04F3F31F421E099
:103310003F3F19F403C021E001C020E020FD9FC120
:10332000F701A380B48090904703992009F42BC142
:1033300020914A03A816B90628F0B501681B790B3D
:10334000CB0104C0809590958A0D9B1D11E0883CAF
:10335000910590F010E0207F09F0DBC07A2DB98A4A
:10336000A88A4D2D502F6C2D89890E94821885E4E2
:1033700093E00E94FF176BC1822F807F09F091C0FC
:10338000041315C0D31213C01C2DC11010C02F7010
:10339000206120934A030E94C21885E493E00E94B2
:1033A000FF1780914A03D70115968C9375C1A1141C
:1033B000B10439F00F3F39F481E0BFEFDB1203C0F5
:1033C00003C081E001C080E080FD03C081E08C2566
:1033D00002C080E090E080FF15C04C2D602F8D2D45
:1033E0000E94D018882371F085E493E00E94FF17B3
:1033F000E5E4F3E086E0DF011D928A95E9F70E949B
:10340000C2184DC0AB2839F00F3F39F481E0BFEF4F
:10341000DB1203C003C081E001C080E080FD03C077
:1034200081E08C2502C080E090E0E82FE170BE2EA4
:1034300080FF2CC04C2D602F8D2D0E94D018182F8E
:10344000811124C0DD860E878D859E850E94351EE4
:10345000292F22952F70223018F0243090F405C0C7
:103460009F7059F0811109C017C19F7031F0D701C9
:1034700015969C91907F09F40FC1805E883008F406
:103480000BC1C7010E94FF171B2D06C11C2DCC20AC
:1034900009F402C180914A03816080934A0310E0DD
:1034A000FBC0041309C0D31207C0C11005C080912E
:1034B0004A03F7018583A5C0DD860E878D859E852D
:1034C0000E947D18882379F1CC2069F120914A036C
:1034D000822F82958F7090E0029774F0809145035F
:1034E0009091460398878F831986BB86AA862C877E
:1034F000CE0107960E94FF1786E0F701A5E4B3E02E
:1035000001900D928A95E1F70E94F0180E94C2186E
:103510000DC0041769F0DD860E878D859E850E949B
:103520007D18811119C0C7010E94FF1711E0B4C0B6
:10353000D312F1CFC110EFCF80914A03F7018583F9
:10354000C7010E94FF1786E0E5E4F3E0DF011D926A
:103550008A95E9F7192DA0C0CC2029F320914A03C0
:10356000822F82958F7090E0029734F2809145030C
:10357000909146039A8389831B82BD82AC822E83FD
:10358000CE010196B7CFA816B90628F0F501E81BC1
:10359000F90BCF0104C0809590958A0D9B1D883C46
:1035A000910558F010E07A2DB98AA88A4D2D502F38
:1035B0006C2D89890E9482184AC01C2DCC2009F4E8
:1035C000B2CF041333C0D31231C020914A0320FD7F
:1035D00024C0822F82958F70482F50E041155105ED
:1035E000E1F0D70115962C9315974F30510549F00E
:1035F0008F5F982F9295907F822F8F70892B1596D1
:103600008C93C7010E94FF1786E0F701A5E4B3E0A1
:1036100001900D928A95E1F73DC086E0F701A5E49F
:10362000B3E001900D928A95E1F736C0DD860E87F2
:103630008D859E850E947D1881115ECF80914A0301
:10364000816080934A03C7010E94FF1725C0E5E40B
:10365000F3E086E0DF011D928A95E9F71BC0CC20DC
:1036600009F461CFDD860E878D859E850E947D18C9
:10367000182F882309F457CF86E0F701A5E4B3E0BB
:1036800001900D928A95E1F785E493E00E94D014B1
:103690000E94F0180E94C218812F61960FB6F8940C
:1036A000DEBF0FBECDBFDF91CF911F910F91FF9075
:1036B000EF90DF90CF90BF90AF909F9008951F93B1
:1036C000CF93DF93CDB7DEB72C970FB6F894DEBF5C
:1036D0000FBECDBF4F83588769877A878B879C87BA
:1036E000CE0107960E9458198823D1F09F818885C2
:1036F0002A853B85232B31F08F3F31F481E09F3FBA
:1037000019F403C081E001C080E080FD47C04F8113
:10371000588569857A858B859C850E9491183EC065
:1037200086E0FE013796DE01119601900D928A9592
:10373000E1F7FF81E8856A857B856115710531F0C8
:10374000EF3F31F481E0FF3F19F403C081E001C095
:1037500080E080FD23C02091140330E0C901019670
:10376000877099274091130350E084179507F1F172
:10377000F983EA837D836C8396E0929FD001939FC7
:10378000B00D1124AB5EBC4FFE01319601900D923D
:103790009A95E1F7809314030E94A11816E0809196
:1037A000130390911403891771F1189FC00111241C
:1037B0008B5E9C4F0E945819882329F1E0911303D6
:1037C0001E9FF0011124EB5EFC4F4081518162810C
:1037D0007381848195810E9491188091130390E0F8
:1037E00001968770992780931303D9CF0E945518AB
:1037F0001092140310921303E5E4F3E086E0DF0176
:103800001D928A95E9F72C960FB6F894DEBF0FBE8D
:10381000CDBFDF91CF911F910895EF92FF920F934B
:103820001F93CF93DF938C01892B09F46CC0F12C8B
:10383000EE24E394E8012196F8018491843740F462
:10384000843008F051C0813081F0823019F15BC0C2
:10385000853709F444C0A8F19CE7980F903708F029
:1038600052C08F770E942C1541C00E5F1F4FFE0182
:10387000849190E2980F983050F48770FE2D01C02B
:10388000FF0F8A95EAF78F2F0E94EB1E14C00E944B
:10389000D6142DC00E5F1F4FFE01849190E2980F49
:1038A000983060F48770FE2D01C0FF0F8A95EAF70B
:1038B0008F2F0E94F11E0E94251F19C00E942C15F7
:1038C00016C00E5F1F4FFE01C491CC2381F08FE91B
:1038D0009FE00197F1F700C00000C150F6CF0E5FE6
:1038E0001F4FFE01F49003C00E94D6148E018F2D4D
:1038F000882309F49FCFEFE9FFE03197F1F700C08B
:1039000000008150F5CFDF91CF911F910F91FF9073
:10391000EF900895089508950C948B1C0C948C1CC2
:103920000E948E1C60936D0370936E0380936F03EF
:10393000909370030C943B180C94901C0F931F935E
:1039400000916D0310916E0320916F03309170030D
:10395000602B712B822B932B1F910F910C94901C39
:103960000F931F9300916D0310916E0320916F03CD
:103970003091700360237123822393231F910F9151
:103980000C94901C0F931F9300916D0310916E0384
:1039900020916F033091700360277127822793274E
:1039A0001F910F910C94901C0C948B1C0E94D41CA2
:1039B0006093690370936A0380936B0390936C0325
:1039C0000C943B1860E070E0CB010C94D61C0F9374
:1039D0001F9341E050E060E070E08A019B0104C069
:1039E000000F111F221F331F8A95D2F7C901B8019A
:1039F0001F910F910C94D61C0F931F9341E050E040
:103A000060E070E004C0440F551F661F771F8A9561
:103A1000D2F78091690390916A03A0916B03B091F2
:103A20006C038A019B01082B192B2A2B3B2BC90104
:103A3000B8011F910F910C94D61C0F931F9341E076
:103A400050E060E070E004C0440F551F661F771F10
:103A50008A95D2F74095509560957095809169034D
:103A600090916A03A0916B03B0916C038A019B0152
:103A7000082319232A233B23C901B8011F910F9161
:103A80000C94D61C0F931F9341E050E060E070E06F
:103A900004C0440F551F661F771F8A95D2F7809187
:103AA000690390916A03A0916B03B0916C038A0142
:103AB0009B01082719272A273B27C901B8011F9115
:103AC0000F910C94D61C0F931F93009169031091D2
:103AD0006A0320916B0330916C03602B712B822B56
:103AE000932B1F910F910C94D61C0F931F93009151
:103AF000690310916A0320916B0330916C0360237A
:103B00007123822393231F910F910C94D61C0F9342
:103B10001F930091690310916A0320916B03309108
:103B20006C0360277127822793271F910F910C94B4
:103B3000D61C0895292F220F920F990F890FE82F75
:103B4000E695E695E695877051E001C0550F8A9598
:103B5000EAF785E0E89FF0011124E55BFC4F20E0E7
:103B600030E070E04081CB01022E02C0969587952F
:103B70000A94E2F7817081958427852384278193B5
:103B80002F5F3F4F2530310569F70895292F220F08
:103B9000920F990F890F682F669566956695982FF5
:103BA000977085E0689FB001112440E050E080E00C
:103BB000FB01E40FF51FE55BFC4F208130E0092E8F
:103BC00002C0369527950A94E2F721703327042E18
:103BD00001C0220F0A94EAF7822B4F5F5F4F4530F6
:103BE000510531F70895BF92CF92DF92EF92FF9285
:103BF0000F931F93CF93DF938C01C0906903D090F4
:103C00006A03E0906B03F0906C0380916D039091D8
:103C10006E03A0916F03B0917003C82AD92AEA2AD3
:103C2000FB2ACFE1D0E0D701C6010C2E04C0B69527
:103C3000A795979587950A94D2F780FD04C02197A0
:103C400090F7B12C07C0BC2EB8018C2F0E94E00663
:103C50000197A9F38B2DDF91CF911F910F91FF90C9
:103C6000EF90DF90CF90BF900895CF93DF93EC015A
:103C70000E94F31DBE010E94E006DF91CF910895DE
:103C80001F93CF93DF93EB0190911203992321F0BF
:103C9000CB010E94351E13C0882349F0CB010E943E
:103CA000F31D182F682FCE010E949A1D04C0CB016E
:103CB0000E94C61D182FBE01812F0E94E006DF91D1
:103CC000CF911F9108958091760308950E94382125
:103CD00020917403309175038217930750F00E946E
:103CE00038212091740330917503821B930B9C0142
:103CF0000AC00E94382120917403309175032095E9
:103D00003095280F391F81E0283C310508F480E008
:103D10000895809173038595859585950895809183
:103D20007303877008950E943821209171033091A8
:103D3000720382179307A8F00E9438212091710323
:103D400030917203821B930B883C910510F480E044
:103D500013C08091730382FB882780F991E0892743
:103D60000BC00E943821209171033091720320957D
:103D70003095820F931FE8CF81700895909173035F
:103D8000977081E009F480E008958091820308959E
:103D900090918203892B809382030895809590915E
:103DA00082038923809382030895109282030895E9
:103DB00080918103089590918103892B80938103E1
:103DC00008958095909181038923809381030895BC
:103DD00010928103089590918003892B8093800332
:103DE000089580959091800389238093800308959E
:103DF00010928003089580917703089508950C949C
:103E0000FE1E0C94FF1ECF9390917703981769F0D4
:103E1000C82F0E9438219093750380937403C09338
:103E200077038C2FCF910C94011FCF91089580912F
:103E30007703882349F0109277031092750310924C
:103E4000740380E00C94011F0895E0914202F09108
:103E50004302809182038083E0914202F091430209
:103E6000908180918103892B8083E0914202F091BF
:103E70004302908180918003892B80838091770316
:103E80008823B9F00E94661E81110E94171FE091DD
:103E90004202F0914302908180917703892B8083C5
:103EA00080914202909143020E94622081110E94FF
:103EB000171F80914202909143020C9495130C9429
:103EC000FE1E0C945F1F90917603981721F080934B
:103ED00076030C94611F089580917603882329F05E
:103EE0001092760380E00C94611F08950C94FE1EDE
:103EF00098E0899F90011124262B209373030E9440
:103F0000FC1C0E943821909372038093710380916E
:103F100073038595859585950C94761F1092730390
:103F2000109272031092710380E00C94761F20911E
:103F300073038095822380937303982F977079F48D
:103F400030E0482F082E000C550B2417350739F0A8
:103F50008595859585950E941D1D0C948E1F08954D
:103F60006FEF7FEF80E090E00C941A2F80E090E0FC
:103F70000E94F62E21E08C3E9E4F09F020E0822F19
:103F8000089582E090E00C94E82E83E090E00C9499
:103F9000E82E682F83E090E00C94FC2ECF9384E011
:103FA00090E00E94E82EC82F81E290E00E94E82E67
:103FB0002C2F30E0A901582BCA01CF910895CF933F
:103FC000C92F682F84E090E00E94FC2E6C2F81E2C4
:103FD00090E0CF910C94FC2EAB01BC018FE090E0FF
:103FE0000C940E2FAB01BC0183E190E00C940E2FDA
:103FF00060E070E0CB010C94F21F60E070E0CB0158
:104000000E94EC1F0C94F81F6CEE7EEF80E090E0B5
:104010000E941A2F60E082E090E00E94FC2E60E097
:1040200083E090E00E94FC2E10926D0310926E03CC
:1040300010926F031092700360E084E090E00E94A1
:10404000FC2E60E081E290E00E94FC2E60E085E0C2
:1040500090E00E94FC2E60E086E090E00E94FC2E42
:104060006FEF87E090E00E94FC2E40E050E0BA0144
:1040700088E090E00E940E2F60E08DE090E00E94CA
:10408000FC2E40E050E0BA0188E190E00E940E2F43
:1040900060E087E190E00E94FC2E40E050E0BA0131
:1040A0008CE190E00E940E2F60E080E290E00E94A0
:1040B000FC2E0C94FD1F0C940420682F8EE090E0E1
:1040C0000C94FC2EFC01329697E080E0915029F090
:1040D00021912223D9F38F5FF9CF0895662349F008
:1040E000FC01329608962191621729F0E817F9072A
:1040F000D1F780E0089581E008959C01FC0132969B
:104100009FEF80E04191461789F09F3F19F44111DC
:1041100001C0982F8F5F8630A9F79F3F39F0F901D2
:10412000E90FF11D97FDFA956283089508959C01AA
:104130002A5F3F4FFC014281461301C01282019663
:1041400082179307B9F708950C947D200C9497205B
:10415000029626E0FC0111922A95E9F70895089548
:104160000C94AF200C94AF20CF930E94B2200E94F9
:1041700033090E94B020C0E08C2F0E94CF0881112B
:1041800004C0CF5FC730C1F701C081E0CF9108956F
:104190000C94AF200C94C8200E94CA208091DE03AA
:1041A000843049F11092840320E488E190E00FB656
:1041B000F894A895809360000FBE2093600080E083
:1041C0000E9450060E94CA2083B7817F846083BF0B
:1041D00083B7816083BF7894889583B78E7F83BFD0
:1041E0000FB6F894A8958091600088618093600074
:1041F000109260000FBE08950C94AF200E945518D5
:104200000E9489130E9450060C94FC201F920F926A
:104210000FB60F9211248F939F93AF93BF9380910A
:104220008403811113C08091D4039091D503A09190
:10423000D603B091D7034196A11DB11D8093D4033D
:104240009093D503A093D603B093D703BF91AF91BA
:104250009F918F910F900FBE0F901F90189582E045
:1042600084BD93E095BD9AEF97BD80936E0008954D
:104270002FB7F8948091D4039091D503A091D603E1
:10428000B091D7032FBF0895CF92DF92EF92FF92A4
:104290000F931F932FB7F8944091D4035091D503F7
:1042A0006091D6037091D7032FBF6A017B01EE2482
:1042B000FF248C0120E030E0C016D106E206F306B0
:1042C00010F4415051099A01281B390BC9011F9163
:1042D0000F91FF90EF90DF90CF90089578941F9208
:1042E0000F920FB60F9211248F939F93AF93BF93AA
:1042F0008091D4039091D503A091D603B091D703B8
:104300000196A11DB11D8093D4039093D503A09372
:10431000D603B093D703BF91AF919F918F910F9028
:104320000FBE0F901F90189587E797E790930108AD
:10433000809300089AE088E10FB6F894A8958093DE
:1043400060000FBE90936000FFCF0C94B01F0E94DE
:1043500033092FEF86E791E0215080409040E1F74C
:1043600000C000000E94330980E00E94CF0880FF57
:1043700004C00E94A5210C94942108950E94B61FA8
:10438000811102C00E945B200E94C11F80938303A1
:104390000E94CE1F9093D9038093D8030E94C51F1B
:1043A000682F70E080E090E00C949C1C80918C035E
:1043B00080FF0BC06091490285E0689FB001112425
:1043C00075956795759567952BC081FF09C06091BC
:1043D000490285E0689FB00111247595679520C05A
:1043E00082FF07C06091490285E0689FB0011124F7
:1043F00017C090918B039923D1F0609148029617D2
:1044000088F72091490285E0289F90011124929F0E
:10441000A001939F500D112470E0CA010E94C12E8B
:104420006038710540F46115710519F406C065E046
:1044300070E0862F08958FE7089581E008958091B8
:104440008C0380FF08C06091450270E07595679508
:104450007595679521C081FF06C06091450270E0A7
:104460007595679519C082FF04C06091450270E0A0
:1044700010C090918B03992399F060914402961794
:10448000A0F780914502899FC001112470E00E942D
:10449000C12E6038710540F46115710519F406C02C
:1044A00061E070E0862F08958FE7089581E0089518
:1044B000803F21F40E94D621819504C0813F29F4D8
:1044C0000E94D621809390030895823F21F40E9498
:1044D000D621819504C0833F29F40E94D621809380
:1044E0008F030895893F19F40E941F2205C08A3F57
:1044F00031F40E941F2281958093910308958B3F90
:1045000021F40E941F22819504C08C3F29F40E944F
:104510001F22809392030895843F21F480918E039B
:10452000816017C0853F21F480918E03826011C0A5
:10453000863F21F480918E0384600BC0873F21F475
:1045400080918E03886005C0883F31F480918E038E
:10455000806180938E0308958D3F21F480918C03B8
:1045600081600BC08E3F21F480918C03826005C076
:104570008F3F29F480918C03846080938C0308958D
:10458000803F39F48091900387FF6CC010929003B4
:1045900069C0813F29F4809190031816BCF362C072
:1045A00090918F03823F29F497FF5CC010928F0394
:1045B00059C0833F19F41916CCF354C0893F41F414
:1045C0008091910318160CF04DC0109291034AC0CF
:1045D0008A3F29F48091910387FF44C0F6CF8B3F37
:1045E00039F48091920387FF3DC0109292033AC044
:1045F0008C3F29F4809192031816BCF333C0843F9A
:1046000021F480918E038E7F17C0853F21F4809125
:104610008E038D7F11C0863F21F480918E038B7FA6
:104620000BC0873F21F480918E03877F05C0883FB0
:1046300031F480918E038F7E80938E0313C08D3F63
:1046400021F480918C038E7F0BC08E3F21F48091EA
:104650008C038D7F05C08F3F29F480918C038B7F65
:1046600080938C0380918F0381110EC08091900301
:1046700081110AC080919103811106C0809192033B
:10468000811102C010928B0308958DE893E00E947F
:10469000A0130E94382190938A0380938903089580
:1046A000CF93DF9300D000D000D0CDB7DEB786E047
:1046B000EDE8F3E0DE01119601900D928A95E1F7A5
:1046C00080918F03811105C080919003882309F4A4
:1046D0007AC080918703909188030E944421AC01A5
:1046E00090918B03992339F020914A0230E02417EE
:1046F000350758F068C020914B028AE0289F90014E
:1047000011242417350718F05EC09F3F19F09F5FF2
:1047100090938B03109291031092920380918F03D8
:10472000181624F40E94D62180938F0380918F0362
:1047300087FF05C00E94D621819580938F038091C9
:104740009003181624F40E94D62180939003809140
:10475000900387FF05C00E94D62181958093900326
:1047600030918F033323E1F0209190032223C1F095
:1047700045EB3403C0011124992319F090938F0362
:1047800003C081E080938F0335EB2303C001112424
:10479000992319F09093900303C081E080939003D4
:1047A0000E9445238091890390918A039093880306
:1047B0008093870386E0FE013196ADE8B3E0019077
:1047C0000D928A95E1F780919103811105C0809146
:1047D0009203882309F47AC080918503909186031F
:1047E0000E944421AC0190918B03992339F02091D0
:1047F000460230E02417350758F068C02091470280
:104800008AE0289F900111242417350718F05EC014
:104810009F3F19F09F5F90938B0310928F0310922C
:10482000900380919103181624F40E941F22809314
:1048300091038091910387FF05C00E941F228195FB
:104840008093910380919203181624F40E941F22F2
:10485000809392038091920387FF05C00E941F22DC
:10486000819580939203309191033323E1F020915D
:1048700092032223C1F045EB3403C0011124992394
:1048800019F09093910303C081E08093910335EB7D
:104890002303C0011124992319F09093920303C0BC
:1048A00081E0809392030E94452380918903909137
:1048B0008A03909386038093850386E0FE013196F8
:1048C000ADE8B3E001900D928A95E1F726960FB618
:1048D000F894DEBF0FBECDBFDF91CF910895EDE814
:1048E000F3E086E0DF011D928A95E9F710928B03D1
:1048F00010928C03089580919B030895CF93DF93CA
:1049000000D01F92CDB7DEB79091DE03943019F539
:1049100089837B836A8382E08093E9008FEF9091A3
:10492000E800815095FD06C095ED9A95F1F70000DD
:104930008111F5CF8091E80085FF0DC040E050E087
:1049400063E070E0CE0101960E94C6268091E800E7
:104950008E778093E8000F900F900F90DF91CF91AA
:104960000895CF93DF93EC010E94A926823011F0C5
:10497000843031F4BE0184E0DF91CF910C947E2429
:10498000DF91CF910895BC0183E00C947E24CF93F6
:10499000DF93EC010E94A926823011F08430F9F4F3
:1049A00082E08093E9008FEF9091E800815095FDBF
:1049B00006C095ED9A95F1F700008111F5CF809131
:1049C000E80085FF0CC040E050E066E070E0CE01FA
:1049D0000E94C6268091E8008E778093E800DF91E0
:1049E000CF910895CF93DF93EC010E94A9268230E6
:1049F00011F0843039F581E08093E9008FEF9091D8
:104A0000E800815095FD06C095ED9A95F1F70000FC
:104A10008111F5CF8091E80085FF14C040E050E09F
:104A200068E070E0CE010E94C6268091E8008E7793
:104A30008093E80088E0FE01A3E9B3E001900D92C5
:104A40008A95E1F7DF91CF9108958091DD0381117F
:104A500009C00E9457280E94B4288091E200846017
:104A60008093E20008951092DD030895089508955B
:104A70000C94FE2042E061EC81E00E94D02742E2EB
:104A800061EC82E00C94D0278091E003833009F43C
:104A900060C030F4813071F0823009F499C008951B
:104AA0008A3009F485C08B3009F46BC0893009F075
:104AB000A7C020C08091DF03813A09F0A1C0809196
:104AC000E800877F8093E8008091E3039091E403FE
:104AD000892B21F468E083E993E003C060E080E083
:104AE00090E070E00E9411278091E8008B7780931E
:104AF000E80008958091DF03813209F081C0809140
:104B0000E3039091E403029708F07AC08091E800F3
:104B1000877F8093E8008091E80082FD05C0809146
:104B2000DE038111F8CF6CC02091F3008091F20078
:104B300090E0922B029729F48091F1008B7F8130D5
:104B400021F48091F10080939B038091E8008B77A2
:104B500053C08091DF03813A09F052C08091E30392
:104B60009091E403892B09F04BC08091E800877F86
:104B70008093E8008091E80080FFFCCF809156028E
:104B800036C08091DF038132D9F58091E3039091A3
:104B9000E403892BA9F58091E800877F8093E800E2
:104BA0000E9405288091E103809356020C945518C9
:104BB0008091DF03813221F58091E800877F809327
:104BC000E8000E9405288091E20380939C030895E9
:104BD0008091DF03813AA1F48091E800877F809380
:104BE000E8008091E80080FFFCCF80919C038093D7
:104BF000F1008091E8008E778093E8000C940528FE
:104C0000089584B7877F84BF0FB6F894A8958091E4
:104C10006000886180936000109260000FBE90E099
:104C200080E80FB6F89480936100909361000FBE06
:104C30000E94EA130E9457280E94B4288091E20043
:104C400084608093E20078940E94492B0E94F213C2
:104C50008CE492E00E9484138091DE03853069F435
:104C60000E94CC208091DC038823B1F30E94B42001
:104C7000882391F30E94B026EFCF0E94FC13ECCF63
:104C80000C944226292F332723303105C9F060F4D4
:104C90002130310581F02230310509F04AC08BE323
:104CA00090E020E538E049C02132310511F122328F
:104CB000310579F13EC082E190E02BE838E03DC05B
:104CC00099278130910561F040F08230910559F0CB
:104CD000039779F5E6E1F8E008C0ECE4F8E005C0F8
:104CE000EEE3F8E002C0ECE1F8E0849190E09F018F
:104CF00024C06115710541F061307105D1F489E07E
:104D000090E02BE738E019C089E090E022E638E037
:104D100014C06115710541F06130710551F481E8ED
:104D200090E02DE938E009C080E490E02EE139E020
:104D300004C080E090E020E030E0FA01318320837D
:104D400008958091DE03843011F081E0089582E0BF
:104D5000089580919D03811102C00C94A1260895AD
:104D600080E189BD82E189BD09B400FEFDCF80915B
:104D7000D8008F7D8093D8008091E000826080937E
:104D8000E0008091E00081FDFCCF0895CF92DF929A
:104D9000EF92FF920F931F93CF93DF93EC018B0160
:104DA0007A010E942428811133C0E114F10439F002
:104DB000F70180819181081B190BC80FD91FC12CE5
:104DC000D12C0115110519F18091E80085FD16C05F
:104DD0008091E8008E778093E800E114F10449F0B7
:104DE000F70180819181C80ED91ED182C08285E0F1
:104DF0000FC00E942428882321F30AC08991809340
:104E0000F10001501109FFEFCF1ADF0ADACF80E07D
:104E1000DF91CF911F910F91FF90EF90DF90CF9096
:104E200008952091E5033091E6032617370748F0EF
:104E30006115710539F42091E8002E772093E80080
:104E400001C0B901FC0120E06115710579F1809183
:104E5000DE038823F1F18530F1F18091E80083FDD4
:104E60003CC08091E80082FD2EC08091E80080FF68
:104E7000EBCF2091F3008091F20090E0922B61152E
:104E8000710551F08830910538F421912093F1009B
:104E9000615071090196F3CF21E0089709F020E0F5
:104EA0008091E8008E778093E800CECF2111CFCF9C
:104EB0000AC08091DE03882361F0853061F0809123
:104EC000E80083FD0AC08091E80082FFF2CF80E015
:104ED000089582E0089583E0089581E00895209187
:104EE000E5033091E6032617370748F06115710591
:104EF00039F42091E8002E772093E80001C0B90131
:104F0000FC0120E06115710591F18091DE03882399
:104F100009F440C0853009F43FC08091E80083FD6A
:104F20003DC08091E80082FD2FC08091E80080FFA5
:104F3000E9CF2091F3008091F20090E0922B61156F
:104F4000710559F08830910540F424912093F100C7
:104F50003196615071090196F2CF21E0089709F06E
:104F600020E08091E8008E778093E800CBCF21117C
:104F7000CCCF0AC08091DE03882361F0853061F0D8
:104F80008091E80083FD0AC08091E80082FFF2CFA3
:104F900080E0089582E0089583E0089581E0089517
:104FA000982F973068F59093E900981739F0709131
:104FB000EC002091ED005091F00003C0242F762FDB
:104FC00050E021FD02C09F5FECCF3091EB003E7FAF
:104FD0003093EB003091ED003D7F3093ED00309148
:104FE000EB0031603093EB007093EC002093ED0008
:104FF0005093F0002091EE0027FDE5CF80E008956A
:105000008F708093E90081E008958091DF0387FF2E
:1050100011C08091E80082FD05C08091DE038111FE
:10502000F8CF11C08091E8008B770BC08091DE0330
:10503000882349F08091E80080FFF8CF8091E80054
:105040008E778093E80008952091E4003091E50088
:1050500095E64091EC00842F817040FF23C0809141
:10506000E80080FD1DC08091DE03882399F0853023
:1050700099F08091EB0085FD11C04091E4005091C2
:10508000E5002417350729F3915011F09A01E1CF7B
:1050900084E0089582E0089583E0089581E0089512
:1050A00080E008954091E80042FFDDCF08950E941E
:1050B000C5280E94CD28E0EEF0E0808181608083E9
:1050C000E8EDF0E080818F77808319BCA7EDB0E038
:1050D0008C918E7F8C9380818F7E80831092DD03F4
:1050E00008950F931F93CF93DF930E94C5280E94CA
:1050F000CD28C8EDD0E088818F778883888180684B
:10510000888388818F7D888319BC1092DE0310927A
:10511000DA031092DC031092DB0300EE10E0F801DA
:1051200080818B7F808388818160888342E060E01A
:1051300080E00E94D027E1EEF0E080818E7F8083C6
:10514000E2EEF0E0808181608083808188608083EE
:10515000F80180818E7F8083888180618883DF91E0
:10516000CF911F910F910895E8EDF0E080818F7E3F
:105170008083E7EDF0E080818160808384E082BFFE
:1051800081E08093DD030C947128E8EDF0E08081EC
:105190008E7F80831092E20008951092DA001092C0
:1051A000E10008951F920F920FB60F9211242F93D2
:1051B0003F934F935F936F937F938F939F93AF939F
:1051C000BF93EF93FF938091E10082FF0BC080912A
:1051D000E20082FF07C08091E1008B7F8093E100B5
:1051E0000E94482B8091DA0080FF1FC08091D80078
:1051F00080FF1BC08091DA008E7F8093DA0080915F
:10520000D90080FF0DC080E189BD82E189BD09B46C
:1052100000FEFDCF81E08093DE030E94252505C0BE
:1052200019BC1092DE030E9433258091E10080FFBB
:1052300019C08091E20080FF15C08091E2008E7F4E
:105240008093E2008091E20080618093E20080918F
:10525000D80080628093D80019BC85E08093DE037B
:105260000E9437258091E10084FF30C08091E200E8
:1052700084FF2CC080E189BD82E189BD09B400FEB4
:10528000FDCF8091D8008F7D8093D8008091E10080
:105290008F7E8093E1008091E2008F7E8093E20018
:1052A0008091E20081608093E2008091DA0388239C
:1052B00011F084E007C08091E30087FD02C081E027
:1052C00001C083E08093DE030E9438258091E100D5
:1052D00083FF29C08091E20083FF25C08091E10017
:1052E000877F8093E10082E08093DE031092DA03EF
:1052F0008091E1008E7F8093E1008091E2008E7FBB
:105300008093E2008091E20080618093E20042E0BD
:1053100060E080E00E94D0278091F0008860809358
:10532000F0000E943625FF91EF91BF91AF919F91C0
:105330008F917F916F915F914F913F912F910F903E
:105340000FBE0F901F9018951F920F920FB60F92DD
:1053500011242F933F934F935F936F937F938F937A
:105360009F93AF93BF93CF93DF93EF93FF93C0913E
:10537000E900CF708091EC00D82FD17080FDD0E88B
:105380001092E9008091F000877F8093F00078947C
:105390000E94E8291092E9008091F00088608093D3
:1053A000F000CD2BCF70C093E900FF91EF91DF911A
:1053B000CF91BF91AF919F918F917F916F915F91AD
:1053C0004F913F912F910F900FBE0F901F90189506
:1053D0001F93CF93DF93CDB7DEB7AA970FB6F8949C
:1053E000DEBF0FBECDBFEFEDF3E08091F100819302
:1053F00023E0E73EF207C9F70E9444258091E800C8
:1054000083FF2EC18091DF039091E003492F50E08C
:105410004A30510508F024C1FA01E857FF4F0C94B7
:10542000D52E803821F0823809F01AC108C0809149
:10543000DB039091DC03992389F082600FC0809197
:10544000E3038F70873008F00BC18093E9008091EF
:10545000EB0085FB882780F91092E9009091E80025
:10546000977F9093E8008093F1001092F100D1C0F3
:10547000282F2D7F09F0F4C0882319F0823061F0C5
:10548000EFC08091E103813009F0EAC0933009F068
:1054900080E08093DC032EC08091E10381112AC05B
:1054A0008091E3038F702FEF280F263008F0D8C0CB
:1054B0008093E9002091EB0020FF1CC0933021F481
:1054C0008091EB00806214C09091EB00906190930A
:1054D000EB0021E030E0A90102C0440F551F8A957E
:1054E000E2F74093EA001092EA008091EB008860B6
:1054F0008093EB001092E9008091E800877F809311
:10550000E8000E940528ACC08111AAC01091E103F7
:105510001F778091E3008078812B8093E300809156
:10552000E800877F8093E8000E9405288091E800CA
:1055300080FFFCCF8091E30080688093E30011112D
:1055400002C082E001C083E08093DE0389C08058FE
:10555000823008F085C08091E1039091E2038C3D98
:1055600053E0950779F583E08A838AE289834FB710
:10557000F894DE01139620E03EE051E2E32FF0E0E4
:1055800050935700E49120FF03C0E295EF703F5F16
:10559000EF708E2F90E0EA3010F0C79601C0C096F1
:1055A0008D939D932F5F243149F74FBF8091E80081
:1055B000877F8093E8006AE270E0CE0101960E9446
:1055C000112716C06091E3037091E403AE014F5FB1
:1055D0005F4F0E944026BC01892B09F441C0909185
:1055E000E800977F9093E80089819A810E946F2755
:1055F0008091E8008B778093E80032C0803881F595
:105600008091E800877F8093E8008091DA0380939F
:10561000F1008091E8008E7772CF811121C08091D6
:10562000E1039091E20399270297D4F48091E80076
:10563000877F8093E8008091E1038093DA030E94E2
:1056400005288091DA03811106C08091E30087FD6F
:1056500002C081E001C084E08093DE030E943A250D
:105660008091E80083FF0AC08091E800877F8093E3
:10567000E8008091EB0080628093EB00AA960FB661
:10568000F894DEBF0FBECDBFDF91CF911F9108957B
:105690000895CF938091DE038823A1F0C091E900A3
:1056A000CF709091EC00892F817090FD80E8C82B1D
:1056B0001092E9008091E80083FD0E94E829CF70F4
:1056C000C093E900CF9108955058BB27AA270E94A4
:1056D0007C2B0C94272D0E94192D38F00E94202D30
:1056E00020F039F49F3F19F426F40C94EF2C0EF4BB
:1056F000E095E7FB0C94E92CE92F0E94382D58F334
:10570000BA17620773078407950720F079F4A6F5A6
:105710000C945A2D0EF4E0950B2EBA2FA02D0B01F0
:10572000B90190010C01CA01A0011124FF27591BE6
:1057300099F0593F50F4503E68F11A16F040A22FEC
:10574000232F342F4427585FF3CF4695379527955D
:10575000A795F0405395C9F77EF41F16BA0B620B5C
:10576000730B840BBAF09150A1F0FF0FBB1F661FA3
:10577000771F881FC2F70EC0BA0F621F731F841FE6
:1057800048F4879577956795B795F7959E3F08F00C
:10579000B0CF9395880F08F09927EE0F97958795CE
:1057A00008950E94E52B0C94272D0E94202D58F07F
:1057B0000E94192D40F029F45F3F29F00C94E92C48
:1057C00051110C945B2D0C94EF2C0E94382D68F332
:1057D0009923B1F3552391F3951B550BBB27AA27AA
:1057E00062177307840738F09F5F5F4F220F331FE4
:1057F000441FAA1FA9F335D00E2E3AF0E0E832D0AC
:1058000091505040E695001CCAF72BD0FE2F29D0AE
:10581000660F771F881FBB1F261737074807AB0780
:10582000B0E809F0BB0B802DBF01FF2793585F4FF5
:105830003AF09E3F510578F00C94E92C0C945B2DC6
:105840005F3FE4F3983ED4F3869577956795B795D7
:10585000F7959F5FC9F7880F911D9695879597F9E2
:105860000895E1E0660F771F881FBB1F621773075B
:105870008407BA0720F0621B730B840BBA0BEE1F70
:1058800088F7E095089529F416F00C94E92C0C940F
:105890005A2D0C94EF2C0E94402DA8F39638A0F7B7
:1058A00007F80F92E8942BE33AEA48EB5FE70E948F
:1058B000ED2D0F920F920F924DB75EB70F920E948F
:1058C000A32DE4E2F1E00E94F22C4F915F91EF9161
:1058D000FF91E595EE1FFF1F49F0FE57E068442752
:1058E000EE0F441FFA95E1F74195550B0E946D2D7F
:1058F0000F9007FE0C94612D08950E94402D88F0B2
:105900009F5798F0B92F9927B751B0F0E1F0660F83
:10591000771F881F991F1AF0BA95C9F714C0B130C4
:1059200091F00E945A2DB1E008950C945A2D672FE2
:10593000782F8827B85F39F0B93FCCF386957795F3
:105940006795B395D9F73EF49095809570956195DC
:105950007F4F8F4F9F4F0895E89409C097FB3EF407
:1059600090958095709561957F4F8F4F9F4F9923AC
:10597000A9F0F92F96E9BB279395F695879577952A
:105980006795B795F111F8CFFAF4BB0F11F460FFEA
:105990001BC06F5F7F4F8F4F9F4F16C0882311F042
:1059A00096E911C0772321F09EE8872F762F05C056
:1059B000662371F096E8862F70E060E02AF09A95F1
:1059C000660F771F881FDAF7880F9695879597F9E6
:1059D000089597F99F6780E870E060E008959FEF71
:1059E00080EC0895DF93CF931F930F93FF92EF9274
:1059F000DF927B018C01689406C0DA2EEF010E94D1
:105A0000EA2DFE01E894A591259135914591559196
:105A1000A6F3EF010E947C2BFE019701A801DA9406
:105A200069F7DF90EF90FF900F911F91CF91DF9179
:105A3000089500240A9416161706180609060895F4
:105A400000240A9412161306140605060895092E5A
:105A50000394000C11F4882352F0BB0F40F4BF2BC9
:105A600011F460FF04C06F5F7F4F8F4F9F4F089509
:105A700057FD9058440F551F59F05F3F71F04795FF
:105A8000880F97FB991F61F09F3F79F087950895E4
:105A9000121613061406551FF2CF4695F1DF08C003
:105AA000161617061806991FF1CF86957105610520
:105AB00008940895E894BB2766277727CB0197F9C8
:105AC00008959B01AC0160E070E080E89FE30C94D6
:105AD000D12B0C94E92C0C944C2E0E94402DD8F321
:105AE0009923C9F3940F511DA3F39150504094F0A2
:105AF00059F0882332F0660F771F881F915050406D
:105B0000C1F79E3F51052CF7880F911D96958795FB
:105B100097F908955F3FACF0983E9CF0BB278695BF
:105B200077956795B79508F4B1609395C1F7BB0F6A
:105B300058F711F460FFE8CF6F5F7F4F8F4F9F4F93
:105B4000E3CF0C945B2DFA01DC01AA0FBB1F9B0174
:105B5000AC01BF5728F4222733274427507820C0B0
:105B6000B75190F4AB2F0024469537952795011C2B
:105B7000A395D2F3002071F0220F331F441FB39579
:105B8000DAF30ED00C94642B61307105A0E88A071B
:105B9000B94630F49B01AC016627772788279078B7
:105BA000309621F0208331834283538308950E94ED
:105BB000EA2D0C94272D0E94192D38F00E94202DDB
:105BC00020F0952311F00C94E92C0C94EF2C112467
:105BD0000C945B2D0E94382D70F3959FC1F3950FA7
:105BE00050E0551F629FF001729FBB27F00DB11D61
:105BF000639FAA27F00DB11DAA1F649F6627B00DF1
:105C0000A11D661F829F2227B00DA11D621F739FD9
:105C1000B00DA11D621F839FA00D611D221F749FE7
:105C20003327A00D611D231F849F600D211D822F2E
:105C3000762F6A2F11249F5750409AF0F1F0882355
:105C40004AF0EE0FFF1FBB1F661F771F881F915082
:105C50005040A9F79E3F510580F00C94E92C0C941C
:105C60005B2D5F3FE4F3983ED4F386957795679577
:105C7000B795F795E7959F5FC1F7FE2B880F911DAC
:105C80009695879597F908959F930E945C2E0F90A3
:105C900007FCEE5F0C94852E9F3F31F0915020F46D
:105CA000879577956795B795880F911D96958795F8
:105CB00097F908950C94EF2C0E94402DD8F3E894A6
:105CC000E0E0BB279F57F0F02AED3FE049EC06C02B
:105CD000EE0FBB0F661F771F881F28F0B23A6207CE
:105CE0007307840728F0B25A620B730B840BE39599
:105CF0009A9572F7803830F49A95BB0F661F771F1C
:105D0000881FD2F790480C944E2EEF93E0FF07C007
:105D1000A2EA2AED3FE049EC5FEB0E947C2B0E9457
:105D2000272D0F90039401FC9058ECE4F1E00C94C3
:105D3000992E9F938F937F936F93FF93EF939B0184
:105D4000AC010E94D72DEF91FF910E94F22C2F9170
:105D50003F914F915F910C94D72DAA1BBB1B51E132
:105D600007C0AA1FBB1FA617B70710F0A61BB70BCB
:105D7000881F991F5A95A9F780959095BC01CD0170
:105D8000089597FB072E16F4009407D077FD09D0ED
:105D90000E94AD2E07FC05D03EF4909581959F4F53
:105DA0000895709561957F4F0895EE0FFF1F059040
:105DB000F491E02D0994FC014150504030F00190E5
:105DC0000616D1F73197CF010895882799270895AE
:105DD000F999FECF92BD81BDF89A992780B50895B3
