:100000000C949F040C94E6040C94E6040C94E6040F
:100010000C94E6040C94E6040C94E6040C94E604B8
:100020000C94E6040C94E6040C94C9220C949B23D3
:100030000C94BB1D0C94E6040C94E6040C94E604AA
:100040000C94E6040C94E6040C94E6040C94E60488
:100050000C94E6040C94231E0C94E6040C94E60421
:100060000C94E6040C94E6040C94E6040C94E60468
:100070000C94E6040C94E6040C94E6040C94E60458
:100080000C94E6040C94E6040C94E6040C94E60448
:100090000C94E6040C94E6040C94E6040C94E60438
:1000A0000C94E6040C94E6040C94E604710D740DB3
:1000B000790D7E0D830D880D8D0D920D970D9C0D84
:1000C000A10DA80DAC0DAF0DB90DB90DB90DB90D40
:1000D000B20DB90D3412341266126612BF1210142A
:1000E00010141014DD1272138313831300141014F0
:1000F0001014091494149414A614A6149D14A61490
:10010000A614A61494149414A214A614A614A2144B
:1001100008242F2427252F2427257B249E242725C8
:10012000F524042507634236B79BD8A71A396856C9
:1001300018AEBAAB558C1D3CB7CC5763BD6DEDFD09
:10014000753EF6177231BF000000803F05A84CCD08
:10015000B2D44EB93836A9020C50B9918688083C01
:10016000A6AAAA2ABE000000803F2B6414001A0031
:10017000080015001700E000040016000700090041
:100180000A0002551D001B000600190005001C0096
:1001900018000C00120013002A000B000D000E00C6
:1001A0000F003300340011001000360037003868AB
:1001B000310003542C4428450000000000002B644B
:1001C00014001A00090013000A00E00004001500E2
:1001D00016001700070002551D001B00060019003D
:1001E00005000D000F0018001C0033002A000B0052
:1001F000110008000C00120034000E001000360040
:1002000037003868310003542C44284500000000B2
:1002100000000000000000000000000000000000DE
:1002200000000000000000000000000000000000CE
:1002300000000000000000000000000000000000BE
:1002400000000000000000000000000000000000AE
:10025000000000000000000000000000000000009E
:100260000000000000002B044B004A0052004D002B
:1002700049002A004E00500051004F00280039006C
:10028000A800AA00A900AC00AB00230224022502AA
:10029000260227024C001E021F0220022102220217
:1002A00035002D002E002F0030000100310201002A
:1002B000AE0028000000000000002900010001003D
:1002C00001000100B2000100010001000100010075
:1002D00001000100010001004604160A460C24003A
:1002E00025002600570056000100210022002300AF
:1002F0005500540001001E001F0020006300E300B1
:1003000001002B0001002700000000000000C25C7B
:10031000C35CC55CC75CC95C0100085D01003000BE
:100320002F002D022D00095D010030022F022E0248
:100330002E0001004200430044004500005C010023
:100340003E003F0040004100010001003A003B0038
:100350003C003D0001000100010001000000000020
:10036000000000000000000000000000000000008D
:10037000000000000000000000000000000000007D
:10038000000000000000000000000000000000006D
:10039000000000000000000000000000000000005D
:1006A0000000000000000000000001000100010047
:1006B0000100010001000100010001000100010032
:1006C0000100010001000100010001000100010022
:1006D0000100010001000100010001000100010012
:1006E0000100010001000100010001000100010002
:1006F0000100010001000100000000000000783C42
:100700001E1E140A05FFAA7F5540000101010101C8
:1007100001010101020202020202020202030303BA
:10072000030303030304040404040404050505058A
:10073000050606060606070707070708080808094A
:100740000909090A0A0A0B0B0B0C0C0C0D0D0D0EF6
:100750000E0E0F0F0F10101111111212131314148B
:10076000151516161717181819191A1A1B1B1C1D00
:100770001D1E1E1F20202122222324242526262759
:100780002829292A2B2C2D2D2E2F3031323233348B
:1007900035363738393A3B3C3D3E3F404142434491
:1007A00045464748494A4C4D4E4F50515354555673
:1007B00058595A5B5D5E5F616264656668696B6C1F
:1007C0006D6F7072737577787A7B7D7E808283859A
:1007D00087888A8C8E8F91939596989A9C9EA0A2DA
:1007E000A3A5A7A9ABADAFB1B3B5B7BABCBEC0C2E4
:1007F000C4C6C9CBCDCFD1D4D6D8DBDDDFE2E4E7A8
:10080000E9EBEEF0F3F5F8FAFDFF04033000000029
:100810002003520065007600690075006E006700D5
:100820003300390020006200790020004E005200A1
:1008300000000C0367007400690070007300000082
:100840000403090409023B00020100A0FA090400A4
:1008500000010301010009211101000122400007EC
:1008600005810308000A09040100010300000009D2
:100870002111010001226D000705820320000A12E8
:1008800001100100000008EDFE000001000102035C
:100890000105010980A101850319012AB70015018D
:1008A00026B700950175108100C0050C0901A10152
:1008B000850419012AA002150126A00295017510D0
:1008C0008100C005010906A1018505050719E02978
:1008D000E715002501950875018102050719002912
:1008E000EF1500250195F075018102050819012910
:1008F00005950575019102950175039101C00501EA
:100900000906A101050719E029E715002501950849
:10091000750181029501750881010507190029FFFC
:10092000150026FF009506750881000508190129A4
:1009300005950575019102950175039101C011247A
:100940001FBECFEFDAE0DEBFCDBF04B603FE27C087
:100950008091B5029091B602A091B702B091B80211
:100960008730904BA740B04BD1F41092B502109253
:10097000B6021092B7021092B80214BE84B7877FF5
:1009800084BF0FB6F894A895809160008861809329
:100990006000109260000FBEE0E0F8E3099511E0FE
:1009A000A0E0B1E0EAE2F2E502C005900D92AE39B6
:1009B000B107D9F722E0AEE9B1E001C01D92A53B35
:1009C000B207E1F70E94F81F0C9413290C94000061
:1009D000CF93DF93EC010E94F31BBE0180E090E017
:1009E000DF91CF910C94C918CF93FB0189302DE58D
:1009F000920741F08B302DE5920791F088309D45AC
:100A000021F506C0C281CC2309F181E090E005C048
:100A1000C281CC23D9F082E090E00E94E8040BC0B0
:100A2000C28183E0CC2349F00E94291945E064E0AB
:100A300083E00E94BA05C0E009C00E944A1945E05F
:100A400064E083E00E94BA0501C0C1E08C2FCF9121
:100A5000089581E008950C94F4041F93CF93DF93DD
:100A600000D000D01F92CDB7DEB749835A836B8385
:100A70002091BE0189819A81211112C0662349F01B
:100A80000E94201A182F682F89819A810E94C71905
:100A900003C00E94F319182F69817A81812F04C045
:100AA0000E94201A69817A810F900F900F900F9009
:100AB0000F90DF91CF911F910C944406FC0140816F
:100AC00051816281738184810C942D058F929F9254
:100AD000AF92BF92CF92DF92EF92FF920F931F934C
:100AE0006B017C0181E090E0A0E0B0E04C015D0191
:100AF00004C0880C991CAA1CBB1C4A95D2F7AC01F7
:100B0000BD0104C0440F551F661F771F2A95D2F7F9
:100B1000482959296A297B2904C0880F991FAA1FCF
:100B2000BB1F0A95D2F78A019B010C211D212E21A2
:100B30003F21401751076207730739F4BC01CD010B
:100B40006C297D298E299F290AC080959095A095B2
:100B5000B095BC01CD016C217D218E219F211F917B
:100B60000F91FF90EF90DF90CF90BF90AF909F904C
:100B70008F9008950F93382F262F60911502709152
:100B800016028091170290911802042F432F0E94A1
:100B900066050F910C9403190E945C1E0E94E01BD5
:100BA000811102C00E94851C0C945A080C945608AE
:100BB00008950C94D80581E008950C94DB05CF933B
:100BC000C82F0E94D9058C2F0E94DD05CF91089572
:100BD00008950E9482140E94E8052FEF84E39CE0B0
:100BE000215080409040E1F700C0000087E797E780
:100BF00090930108809300080C94491E0F931F9353
:100C0000CF93DF93EC010E945E058C01BE010E9430
:100C10002B05882379F1BE01C8010E94680E882344
:100C200049F1BE01C8010E94A90E882319F1BE0135
:100C3000C8010E94D40F8823E9F0BE01C8010E94B8
:100C40005A0D8823B9F08A81882369F001158CE553
:100C5000180731F00E3D1C4531F40E94851C0AC076
:100C60000E94E90507C0CE01DF91CF911F910F913E
:100C70000C94290580E0DF91CF911F910F91089589
:100C800080E090E0089508952AE2829FC001112437
:100C9000FC0126E0729FE00DF11D1124E60FF11D0D
:100CA000EE0FFF1FE659FE4F859194910895880F2E
:100CB000991FFC01E250F94F859194910895CF93CB
:100CC000DF930E9444060E947107EC018115904554
:100CD00008F043C0C11580E4D80708F0CBC0C03E7F
:100CE000D10528F5C03CD10508F0B3C0C83AD105FC
:100CF00078F4C53AD10508F0A4C0C130D10509F493
:100D0000ECC008F4E8C0C430D10508F0E6C0E3C088
:100D1000CF3BD10508F0DFC0C85AD0E0CC0FDD1FB3
:100D2000C55EDE4F0990D881C02DD464D6C0C115F0
:100D300090E2D90750F4C11521E0D20708F0CDC0E8
:100D4000C83ED10508F4C9C0C6C0C11580E3D807A4
:100D500008F086C0CE019F707FC0C11595E5D90708
:100D600008F043C0C11524E5D20708F09AC0C115A8
:100D700082E5D80708F5C11591E5D90708F07DC0CF
:100D8000CE0174E0969587957A95E1F783709C2F54
:100D9000937021E030E002C0220F331F9A95E2F7F2
:100DA0003C68382BCF70C695C69580E2C89FE0019D
:100DB0001124C22BD32B91C09E01237033278C2F7B
:100DC00086958695C115D34508F05CC0C1E0D0E09A
:100DD00002C0CC0FDD1F2A95E2F720E2829FC001FE
:100DE0001124C82BD92BDC6878C0C11529E5D2079E
:100DF000A0F4C11588E5D80708F058C0C11596E5DC
:100E0000D90708F068C08C2F0E9405088F71C82F81
:100E1000D0E0DC2FCC27D06260C0C1152AE5D20714
:100E200008F449C0CE0190568115904208F053C095
:100E30008D2F8F710E940508DD27D0628F71D82B0E
:100E40004CC0C55AD0E0C75BDE4FC881D0E0D0644B
:100E500044C0CE01805C91090E945706EC013DC060
:100E6000CE019927D3FF03C0EC01D86C36C0EC014A
:100E7000D06C33C0DF70D06A30C0DC2FCC27C16F9C
:100E8000D06A2BC0C1E0D0E002C0CC0FDD1F2A9594
:100E9000E2F720E2829FC0011124C82BD92BDA6827
:100EA0001CC0DC2FCC27C46FD06A17C0DC2FCC2726
:100EB000C06FD06A12C08C2F8F700E94050894E01A
:100EC000D695C7959A95E1F7CF70D0E0DC2FCC2767
:100ED000D069C82B02C0C0E0D0E0CE01DF91CF9135
:100EE00008958238910569F1B0F48133910509F4D0
:100EF0006DC048F48932910509F463C08A329105C6
:100F000009F469C008958533910509F455C0893302
:100F10009105B9F00895833E910569F138F4803E5A
:100F20009105B1F0823E910509F10895863E910543
:100F3000A9F1873E9105B9F1843E910509F064C09D
:100F400023C02091A60220FD4FC021FD4DC0089571
:100F50008091A60280FD44C08091A70280FF44C01A
:100F60008091A60284FD42C083EE4DC08091A6020E
:100F700082FF38C0F5CF8091A60282FD33C08091F8
:100F8000A70280FD31C0ECCF8091A70281FF32C063
:100F90008091A60284FD2AC087EE35C08091A6020A
:100FA00083FF26C0F5CF8091A60283FD21C08091EA
:100FB000A70281FD1FC0ECCF8091A60285FD1CC059
:100FC0001DC08091A60285FD19C016C08091A602A1
:100FD00086FD16C017C08091A60286FD13C010C002
:100FE00089E311C082EE0FC080EE0DC080E00BC01F
:100FF00086EE09C084EE07C089E205C085E303C020
:101000008AE201C081E390E008959091A60292FFE8
:101010000DC0282F2871283019F4877F846006C0FE
:10102000282F2471243011F48B7F886093FF0DC02A
:10103000282F2871283119F4877E846106C0282F53
:101040002471243111F48B7E88612091A70220FF46
:101050000DC0382F3871383019F4877F816006C091
:10106000382F3171313011F48E7F886021FF0DC02F
:10107000282F2871283119F4877E816106C0282F16
:101080002171213111F48E7E886194FD877E08954F
:10109000E82FF0E0EB58FD4F80810895089580EA35
:1010A0008A95F1F7089508950C9453080C94540808
:1010B0000C9453080C945808CF93DF93A2E5B1E049
:1010C00049E551E061E070E08D91E82FE295EF7025
:1010D000F0E021A18F70EB0102C0CC0FDD1F8A95DB
:1010E000E2F7CE019C2F9095922391A392A1892B98
:1010F00082A34A175B0741F7ACE4B1E042E551E057
:1011000061E070E08D91E82FE295EF70F0E021A1B1
:101110008F70EB0102C0CC0FDD1F8A95E2F7CE0184
:101120009C2F9095922391A392A1892B82A34A1779
:101130005B0741F7EEE6F2E0A5E7B2E085E792E073
:1011400011921D928E179F07D9F787E00E943E09E2
:10115000DF91CF910C94CC053F924F925F926F92AA
:101160007F928F929F92AF92BF92CF92DF92EF9237
:10117000FF920F931F93CF93DF9382E5882E81E038
:10118000982E0EE612E095E7692E92E0792E512C0A
:10119000CC24C394D12C5801D8013C901C92F4016A
:1011A00081914F01C82FC295CF70D0E099A18F7067
:1011B000760101C0EE0C8A95EAF7892F8E2989A362
:1011C0008AA14E2C409484218AA30E944F08ECE40B
:1011D000F1E020E030E09191A92FA295AF70B0E04E
:1011E00090964C91D8016C9150E09F7002C055953B
:1011F00047959A95E2F740FD08C09C2D022E01C04C
:10120000990F0A94EAF7892F01C080E0862BD80154
:101210008C932F5F3F4F26303105E9F689A1482294
:1012200049A28AA1E82AEAA20F5F1F4F81E0F501D7
:101230009081931101C080E0582A6016710609F070
:10124000AACF252D47E065E772E08EE692E00E9486
:101250003F090E94D605852DDF91CF911F910F91F7
:10126000FF90EF90DF90CF90BF90AF909F908F90C6
:101270007F906F905F904F903F9008950895FF92F8
:101280000F931F93CF93DF938C01F62ED72FC42F8C
:10129000222349F081E08093A0010E94ED1D9093EC
:1012A0009F0180939E018091A0018823C1F08091CD
:1012B0009E0190919F010E94F91D069780F0EF2DED
:1012C000FD2FD8014C2F50E0CD01801B910B8417CE
:1012D00095071CF48D918193F7CF1092A001DF91B7
:1012E000CF911F910F91FF900895EF92FF920F936E
:1012F0001F93CF93DF93F62E472FE82FF0E0711165
:1013000006C0E65FF84F6491762F862F72C0272FB4
:1013100030E0E65FF84FE4910E2F10E056E0659F55
:10132000C0011124CFEFD0E0BE010E94A4285BEAE7
:101330005603C001579F900D11248F0D911D8F0DE5
:10134000911D982F990F890F7E01E21AF30AE09EF2
:10135000D001E19EB00DF09EB00D1124489FA00178
:101360001124452F55277E01E41AF50AE09EA001BD
:10137000E19E500DF09E500D11247E01E81AF108F7
:10138000E29EC001E39E900DF29E900D1124892FE4
:101390009927C81BD90BC09FC001C19F900DD09F3A
:1013A000900D11246230710591F048F461157105BA
:1013B000E1F061307105A9F48B2F752F19C06430ED
:1013C000710561F038F06630710579F00AC0892F37
:1013D0007B2F0EC08E2F7B2FE52F0AC08E2F792FEB
:1013E00002C0852F7E2FEB2F03C08B2F7E2FE92F7E
:1013F0006E2FDF91CF911F910F91FF90EF90089585
:101400000895CF93DF93762FE901682F842F0E94F0
:101410007509798368838A83DF91CF9108958091DC
:101420007C02282F269530E02115310519F48170B2
:10143000826005C02331310524F08170846280937D
:101440007C02089588E090E00C94D328CF92DF923C
:10145000EF92FF926B017C010E940F0AB701A60177
:1014600088E090E0FF90EF90DF90CF900C94F1280F
:10147000ECE7F2E083E0808311828FEF8283838345
:10148000148260817181828193810C94260A8091FB
:101490007C0280FF02C08695089580E008958091C7
:1014A0008002833018F48F5F8093800260917C0209
:1014B00070917D0280917E0290917F020C94260AA9
:1014C00080918002882319F081508093800260917E
:1014D0007C0270917D0280917E0290917F020C943B
:1014E000260A6091020170E080917C0280FF0AC0B0
:1014F0008091A20123E0829FC00111248F579D4F4C
:101500000C94F10D8091A10190910101891780F750
:10151000E82FF0E09F01220F331FE20FF31FEF5778
:10152000FD4F1182108212828F5FF0CF90917C026A
:1015300090FF16C09091A10120910101921770F4C3
:10154000E92FF0E0DF01AA0FBB1FEA0FFB1FEF57E7
:10155000FD4F8183608342839F5FF0CF0C94710ABB
:101560000895CF93DF9300D01F92CDB7DEB790914F
:101570007C0290FF0AC09E012F5F3F4F0E94010A2C
:101580004B8169818A810E94960A0F900F900F907B
:10159000DF91CF910895CF93DF93EC016C8170E0E0
:1015A00080E090E00E94A52620E030E04FE753E481
:1015B0000E94C8252BED3FE049E450E40E94CE276D
:1015C0000E943B280E9442262BE43AE34EE25FE36E
:1015D0000E945B2520EF3BEF48ED52E40E94CE27AE
:1015E0000E947426462FECE7F2E0628181810E941E
:1015F000B10A8C818F5F8C83DF91CF910895CF9357
:10160000DF93EC01ECE7F2E0438162818C810E9480
:10161000B10A8C818F5F8C83DF91CF910895AF9257
:10162000BF92CF92DF92EF92FF920F931F93CF93CF
:10163000DF9300D01F92CDB7DEB7182FF62E042F00
:10164000E22E80917C0280FF6BC0E82FE695AE2FE2
:10165000B0E0A75ABE4F9C919093AA018E7F823032
:1016600061F49E012F5F3F4F812F0E94010A4B8141
:1016700069818A810E94960A41C0923019F40091D2
:101680007F023CC0963019F410917D0237C099302A
:10169000A9F5E9508E2F8170D82EE695F0E0EB5F2A
:1016A000F84FA590B490C12CBB2460910001C616E0
:1016B00018F52C2D30E0A29EC001A39E900DB29E85
:1016C000900D112470E00E94A428812FD11002C037
:1016D000860F01C0861B9091A101290F311DA90120
:1016E000440F551F240F351F2F573D4F402F6F2D8F
:1016F0000E94010AC394D9CF0E94710A10937D02FF
:10170000F0927E0200937F02EE2051F060917C0205
:1017100070917D0280917E0290917F020E94260A44
:101720000F900F900F90DF91CF911F910F91FF902D
:10173000EF90DF90CF90BF90AF900895ECE7F2E08C
:101740009181282F4381628180E1890F0C940F0BD6
:1017500081E00C949E0BECE7F2E09181282F43810D
:10176000628180EF890F0C940F0B81E00C94AB0B1E
:10177000ECE7F2E0628120E1620F08F46FEF282FBE
:10178000438181810C940F0B81E00C94B80BECE742
:10179000F2E0628120E1621B08F460E0282F4381BF
:1017A00081810C940F0B81E00C94C70BECE7F2E005
:1017B000438120E1420F08F44FEF282F628181819D
:1017C0000C940F0B81E00C94D60BECE7F2E0438114
:1017D00020E1421B08F440E0282F628181810C94B3
:1017E0000F0B81E00C94E50B20E00C940F0BECE761
:1017F000F2E080818E7F808360817181828193811C
:101800000E94260A1092AB012FEF80E792E0215050
:1018100080409040E1F700C000000C94710AECE7B2
:10182000F2E080818E7F80831092AB012FEF80E702
:1018300092E0215080409040E1F700C000000C94FD
:10184000710A60917C02669570E04BE050E083E0A5
:1018500091E00E94BE28892B19F481E08093AB01AE
:101860000E94ED1D9093A4018093A301089590918F
:101870007C0290FF35C09170811102C0926006C059
:10188000833110F0946202C0880F982B90937C02F1
:10189000662351F060917C0270917D0280917E02FE
:1018A00090917F020E94260A60917C02669570E00A
:1018B0004BE050E083E091E00E94BE28892B19F0B4
:1018C0001092AB0102C00E94210C81E08093A6011E
:1018D00040917F0260917E0280917D020C94F40B16
:1018E0000895682F90917C02969581E0890F83314D
:1018F00008F081E00C94370C81E00C94710C682F97
:1019000090917C0296958FEF890F09F482E10C94F7
:10191000370C81E00C947F0C61E00C94370CECE701
:10192000F2E080818160808386950C948C0C80919C
:101930007C0280FD0C94F70B0C948F0C60E00C94EF
:10194000370C8091A90181112EC00E94E01B8111EA
:1019500004C00E94851C0E94380A0E94220A6093DB
:101960007C0270937D0280937E0290937F026E7F53
:1019700061F40E94380A0E94220A60937C027093EC
:101980007D0280937E0290937F020E940F0A109244
:10199000AB0180917C0280FF03C086950E949E0C63
:1019A00081E08093A9010895ECE7F2E080818160F5
:1019B000808386950C949E0C1092AB0108950F9332
:1019C0001F93CF93DF938091AB01882309F452C01A
:1019D0008091AA01E0917C02E695E81BE093A501C5
:1019E000823049F4F0E0EF5FF84FE491CE2FD0E081
:1019F0000BEC1AE00FC0863049F4F0E0E250F94FEA
:101A0000E491CE2FD0E00FEF1AE004C0C0EDD7E094
:101A100000E01AE08091A601882389F01092A601C7
:101A20000E94ED1D9E0120953095820F931F90938B
:101A3000A4018093A3011092A8011092A7018091A4
:101A4000A3019091A4010E94F91D8C179D0790F0AD
:101A5000E091A301F091A401CE0FDF1FD093A40168
:101A6000C093A30183EA91E0F801DF91CF911F9128
:101A70000F910994DF91CF911F910F9108958823C1
:101A800011F0FA0101C0FB010994CF93DF93C82F35
:101A9000D62F0E94470A8C1740F00E94470A8D17E4
:101AA00020F4DF91CF910C947C0C8C2FDF91CF919F
:101AB0000C948C0C0F931F93CF93FB01C281CC230A
:101AC00009F455C08C010E94F21A8272F801E25C9E
:101AD000FC45E431F10508F04DC0EA5AFF4F0C9483
:101AE000B8280E94970C45C049E85CE06CE77CE0B0
:101AF0002CC04CE75CE069E87CE027C045EB5BE08C
:101B000068EA7BE022C048EA5BE065EB7BE01DC051
:101B100043ED5BE064EC7BE018C044EC5BE063ED1C
:101B20007BE013C041EF5BE062EE7BE00EC042EE73
:101B30005BE061EF7BE009C040E65AE06FE47AE0E9
:101B400004C04FE45AE060E67AE00E943F0D11C005
:101B500081E00E948C0C0DC065E082E005C068E069
:101B600086E002C062E189E00E94450D02C0C1E04A
:101B700001C0C0E08C2FCF911F910F9108952BB120
:101B8000342F309523233BB1432B3FB7F894FC010E
:101B9000680F791FE617F70789F0819198E04BB934
:101BA000000000C087FF2BB9880F000000C000C0F4
:101BB00000C02BB900C09A9591F7ECCF3FBF0895B4
:101BC0002AB1242B2AB99B01220F331F620F731FE6
:101BD0000E94BF0D87EC90E00197F1F700C0000074
:101BE000089548E00C94E00D0F931F93CF93DF937B
:101BF000C62FD42F122FFC0182818823C9F0609355
:101C0000AE010E94ED1D9093AD018093AC0180E286
:101C10008C0F883008F057C0C77081E001C0880F72
:101C2000CA95EAF7DF91CF911F910F910C94F411AF
:101C30008091AE01681330C08091AC019091AD01EC
:101C40000E94F91D883C910538F500E20D0FCD1773
:101C5000B9F080E28C0F883040F4C77081E001C099
:101C6000880FCA95EAF70E94FB11083028F581E039
:101C70009D2F977001C0880F9A95EAF70E94F41182
:101C8000812F0E94E1110830F0F4D77081E001C08B
:101C9000880FDA95EAF70AC080E28C0F883098F452
:101CA000C77081E001C0880FCA95EAF7DF91CF9134
:101CB0001F910F910C94FB11812FDF91CF911F91F8
:101CC0000F910C94E111DF91CF911F910F91089525
:101CD0009C01CB01233F4CE53407F9F078F4283D13
:101CE000FCE53F07B9F0293D4CE5340711F1273DEC
:101CF0003C4531F526E241EE61EE1EC0253FFCE594
:101D00003F0799F070F0263F3C45D1F427E245EEBD
:101D100066EE12C027E245EE0EC026E241EE60EE0E
:101D20000BC027E245EE64EE07C026E241EE62EE0C
:101D300003C028E241E065EE0E94F40D80E00895C2
:101D4000FC018281882319F01092AE01089581E090
:101D50000895CF93DF93EC01FB018281882309F47E
:101D60001FC1C230FCE5DF0708F41BC1C6319CE58A
:101D7000D90738F09E012A5F3C452930310508F02B
:101D800010C10E94F81B9093A7028093A602C03155
:101D9000ECE5DE0709F4C3C008F041C0C8308CE5AB
:101DA000D80709F49AC0F0F4C430ECE5DE0709F472
:101DB00087C068F4C2308CE5D80709F477C0C33017
:101DC000DC4509F0E3C08091A602826076C0C6308F
:101DD000ECE5DE0709F46EC008F07BC08091A60236
:101DE00088606BC0CC308CE5D80709F485C068F4F6
:101DF000CA30ECE5DE0709F474C008F079C00E942F
:101E000082148091A602806858C0CE308CE5D80735
:101E100009F476C008F07FC08091A6028BC0CB3F4A
:101E2000ECE5DE0709F44FC018F5C3318CE5D8079F
:101E300009F47DC078F4C131ECE5DE0709F473C024
:101E4000C231DC4509F0A2C00E9482148091A60232
:101E50008F7733C0C5318CE5D80709F472C008F418
:101E600086C0CA3FDC4509F091C08091A7023EC000
:101E7000CF3FFCE5DF0709F45FC058F4CD3F9CE598
:101E8000D90709F444C008F43FC08091A7028260DA
:101E90002DC0C130FDE5DF0709F475C008F45DC051
:101EA000C230DD4509F072C080E06EC08091A602AC
:101EB000816003C08091A60280618093A60266C003
:101EC0008091A60211C08091A70282608093A70230
:101ED0005DC08091A6028062F0CF8091A6028064EE
:101EE000ECCF8091A60288608460E7CF8160EECF5E
:101EF0008091A6028E7FE1CF8091A6028D7FDDCFFB
:101F00008091A602877FD9CF8091A70218C08091C7
:101F1000A7028D7FDBCF8091A6028F7ECECF8091EE
:101F2000A6028F7DCACF8091A6028F7BC6CF8091FB
:101F3000A602877F8B7FC1CF8091A7028D7F8E7F86
:101F4000C5CF8091A60282FB222720F991E092273B
:101F500090FB82F990FB83F9B0CF8091A702982F74
:101F6000909591708E7F892B90FB81F9AFCF0E9465
:101F700082148091A60287FB222720F991E0922704
:101F800090FB87F99ACF81E00E94871C8091A6027E
:101F90009091A7020E94091C0E94821480E001C057
:101FA00081E0DF91CF910895CF93DF9386319C45F7
:101FB00071F5EB010E94F21A982F917119F4982F84
:101FC0009A7A01C090E08A8120910E0130910F0130
:101FD000882379F081E0911101C080E08093AF0106
:101FE000911102C069E201C065E3C9010E94221D8E
:101FF0000AC08091AF01811102C069E201C065E3AE
:10200000C9010E942D1D0E944F1B80E001C081E08C
:10201000DF91CF9108959093B5018093B401089515
:10202000E091B401F091B501309721F00190F08179
:10203000E02D099480E00895E091B401F091B5019C
:10204000309799F020911A01222359F02091A6028D
:1020500027FF07C0DC012C9111962C93119725E0E6
:102060002C930280F381E02D099408952091B20110
:102070003091B3012817390771F09093B301809321
:10208000B201E091B401F091B501309721F00680E2
:10209000F781E02D099408952091B0013091B101AC
:1020A0002817390771F09093B1018093B001E09146
:1020B000B401F091B501309721F00084F185E02D55
:1020C0000994089585B7806885BF85B7806885BF06
:1020D000089508950C9469100C946A100C9469107A
:1020E0000C9469100E9462100E946E100C946C1087
:1020F00081E008950E94E41D0E945C080E94701E09
:102100000E94A10CE6EAF2E08081806880838091E1
:10211000A6029091A7020E94091C0C947010AF9225
:10212000BF92CF92DF92EF92FF920F931F93CF93C4
:10213000DF93CDB7DEB72A970FB6F894DEBF0FBE98
:10214000CDBF0E94AC080E947810811111C08FEFA2
:1021500089838A831B820E94ED1D8160782F9D8375
:102160008C8349815A816B818D810E94271140C0E7
:1021700087EBA82E81E0B82E00E010E0C02E802F63
:102180000E944808E82EF501D1905F01D82631F46D
:102190000F5F1F4F0730110589F7D9CF8091470294
:1021A00081FD0E944E0880E0FF24F3949D2D9F2125
:1021B000D1F08E83CF82EF2081E009F480E0888720
:1021C0000E94ED1D8160782F9A8789874E815F81FB
:1021D00068858A850E942711F801E954FE4F8081A5
:1021E000F826F08205C08F5FFF0C8630F9F6D0CF5D
:1021F0000E94DF0C0E9410109091B6018917B1F077
:102200000E9410108093B6012A960FB6F894DEBF94
:102210000FBECDBFDF91CF911F910F91FF90EF9037
:10222000DF90CF90BF90AF900C94DF052A960FB649
:10223000F894DEBF0FBECDBFDF91CF911F910F91FC
:10224000FF90EF90DF90CF90BF90AF900895CF9325
:10225000DF93CDB7DEB72B970FB6F894DEBF0FBE76
:10226000CDBF4F83588769877A878B87DE011196A8
:1022700086E0FD0111928A95E9F785E0FE01379627
:1022800001900D928A95E1F70E94C01A882319F0F7
:1022900082E00E94C11B0E94931A81110E94411B7F
:1022A00049815A816B817C818D819E810E948C172E
:1022B0002B960FB6F894DEBF0FBECDBFDF91CF9146
:1022C0000895FC01808191810E94621A0895CF9344
:1022D000882309F448C0C82F8CEF8C0F813AD0F4C2
:1022E0006C2F80910E0190910F010E94A21C8823F7
:1022F00049F06C2F80910E0190910F010E942D1DCD
:102300000E944F1B6C2F80910E0190910F010E9433
:10231000221D0CC080E28C0F883058F4C77081E019
:1023200001C0880FCA95EAF70E94F51ACF910C9464
:102330004F1BEBE5EC0FE33040F4F0E0E656FE4FC8
:10234000808190E0CF910C943610C85AC73158F470
:10235000EC2FF0E0EE0FFF1FE459FE4F80819181DA
:10236000CF910C944C10CF910895882349F1682F98
:102370008CEF860F813A38F480910E0190910F0115
:102380000E942D1D0CC080E2860F883050F46770CB
:1023900081E001C0880F6A95EAF70E94FB1A0C944D
:1023A0004F1B8BE5860F833020F480E090E00C9487
:1023B0003610685A673120F480E090E00C944C109D
:1023C0000895CF93C82F0E946711C93349F42FEFA6
:1023D00087EE93E0215080409040E1F700C000007C
:1023E0008C2FCF910C94B511882321F00E94F51AFF
:1023F0000C944F1B0895882321F00E94FB1A0C9423
:102400004F1B0895CF92DF92EF92FF920F931F938D
:10241000CF93DF937C01062FC72FFC01D581D29586
:10242000DF70128111110E94121B0E94EB1A882387
:1024300079F0112369F080E2800F883048F082E063
:102440000E94C11B0E94EB1A91E0D82ED92601C030
:10245000D12CCC2EC2948FE0C8228C2D90E0FC01B0
:10246000E659FF4F0C94B8288C2F807FCF708823BB
:1024700011F0C295C07F112399F0CC2309F4AAC1B1
:1024800080E2800F883010F0011104C08C2F0E9470
:10249000F51A03C08C2F0E94051B0E944F1B9AC186
:1024A000802F0E94B511CC2309F4BAC180E2800FBD
:1024B000883010F0011104C08C2F0E94FB1A03C059
:1024C0008C2F0E940B1B0E944F1BAAC18C2F807F58
:1024D000CF70803211F0C295C07F002319F0013017
:1024E00059F137C01123B1F0DD2381F0D13031F43F
:1024F0000E94251B8C2B0E942D1B92C1D33031F4DE
:102500000E94411B8C2F0E948D1B1BC00E94251B0B
:102510008C2B18C0DD2369F0D13041F40E94F21AEF
:102520008C2309F47DC10E94961B03C0D33009F4AB
:1025300077C10E94411B1FC0112339F0D43008F02D
:102540006FC18C2F0E94F4116BC1D33008F068C1A9
:1025500012C0112319F0DD23A1F33CC1DD2359F092
:10256000093309F049C1FFEF27EE83E0F150204025
:102570008040E1F73FC18C2F0E94FB1151C18C2F8D
:1025800086958695837019F0813061F049C11123D9
:1025900021F0802F9C2F937002C080E090E00E9479
:1025A000361046C1112321F0802F9C2F937002C05A
:1025B00080E090E00E944C103BC18C2F837009F0AA
:1025C00045C0111131C1402F429546954770440FC7
:1025D000440F602F6F70862F90E0A0E0B0E0042ED3
:1025E00004C0880F991FAA1FBB1F0A94D2F704FFCB
:1025F00010C00FE010E020E030E004C0000F111F19
:10260000221F331F4A95D2F70095109520953095DB
:1026100003C000E010E09801C695C695C370BC01E8
:10262000CD01602B712B822B932BC23049F058F4D3
:10263000C13019F00E94DD18F7C00E94CB18F4C019
:102640000E94EF18F1C00E94C918EEC0112319F0C2
:102650008C2F817001C08695882309F4E5C0402F36
:10266000429546954770440F440F602F6F70862F38
:1026700090E0A0E0B0E0042E04C0880F991FAA1FCC
:10268000BB1F0A94D2F704FF10C00FE010E020E057
:1026900030E004C0000F111F221F331F4A95D2F7EC
:1026A000009510952095309503C000E010E098014A
:1026B000C695C695C370BC01CD01602B712B822BD2
:1026C000932BC23049F058F4C13019F00E94A2197E
:1026D000ABC00E949019A8C00E94B419A5C00E9466
:1026E0000319A2C0CF70112339F08C2F0E94291931
:1026F000802F0E94F41198C0802F0E94FB118C2F14
:102700000E944A1991C0023F01F128F4003F41F0B4
:10271000013FA1F05AC0033FF9F0043F39F155C021
:10272000112341F0D33008F07BC08C2F8F710E94B1
:102730006F1976C0D43008F073C0F7CF112339F089
:102740008C2F8F710E9429196BC01123C9F38C2F14
:102750008F710E944A1964C0112329F08C2F8F7148
:102760000E9414195DC00E940F195AC01123C9F0AC
:102770000E94901A0E94FB1A0E94BC1A843039F4FD
:102780000E94B81B8C2F8F710E944A196CC0D330E5
:1027900008F069C0CF718C2F0E94291963E08C2F3B
:1027A0000DC00E94901A0E94F51AD33050F00E947A
:1027B000B81B0E94961B64E08C2F8F710E94A21B95
:1027C00052C081E00E94C11B4EC0112339F0DD23AD
:1027D00009F4B6CF802F0E94671122C0DD2309F4CF
:1027E000B6CF093349F49FEFE7EEF3E09150E040B4
:1027F000F040E1F700C00000802F0E94B51110C02A
:102800004C2F4F70602FC7010E9440060E943A185B
:102810000FC04C2F4F70602FC7010E94430608C0A5
:1028200088EF8C0D843020F40E9410100E94DF0588
:10283000DD20D9F00E94BC1A80FD17C0F70112827A
:102840000E94B61A0E942919C7010E943E140E94D4
:10285000B61ADF91CF911F910F91FF90EF90DF900B
:10286000CF900C944A19D12CDFCFDF91CF911F91DB
:102870000F91FF90EF90DF90CF9008950F931F93EB
:10288000CF93DF93EC01988189812B813C81232BAD
:1028900031F08F3F31F481E09F3F19F403C081E0B4
:1028A00001C080E080FD13C0CE010E94FE05882398
:1028B00071F0688179818A810E946D1A8C010E9471
:1028C000C6190E94B718B801CE010E940212DF910A
:1028D000CF911F910F9108950E94121B0E94221BFD
:1028E0000E944F1B80E090E00E94361080E090E054
:1028F0000C944C1080910E0190910F010E94381D94
:102900000C946C140E94021B0C947A14E92FE2952B
:10291000EF704E2F50E0FA013297EE30F105B0F42F
:10292000E658FF4F0C94B828803F91F018F4883E89
:1029300068F40EC0843F51F40BC0883E48F0813FDC
:1029400029F406C093FB882780F9089580E0089554
:1029500081E008950E94621A0E9486140895CF9320
:10296000DF9300D000D01F92CDB7DEB70F900F904D
:102970000F900F900F90DF91CF910895CF93DF9339
:1029800000D000D000D0CDB7DEB726960FB6F894B1
:10299000DEBF0FBECDBFDF91CF9108951F93CF93C0
:1029A000DF93C091BF0116E08091C001C81799F074
:1029B000D0E01C9FF0011D9FF00D1124EF53FE4F3E
:1029C0004081518162817381848195810E94BE140E
:1029D0002196C770E9CFDF91CF911F910895409163
:1029E000F1015091F2016091F3017091F401809135
:1029F000F5019091F6010C94BE142091BF019091C5
:102A0000C00156E02917A9F030E0529FF001539F12
:102A1000F00D1124EF53FE4F7181761306C07081C3
:102A2000781303C07281741306C02F5F3F4F277065
:102A3000E9CF80E0089581E00895CF938091F60179
:102A400082958F7009F05FC08091F301882309F4AB
:102A50005AC08091BF01B091C0017091F101A09165
:102A6000F2014091F4015091F50191E07F3F09F0AE
:102A700090E0692FC6E08B1709F445C04115510558
:102A800021F0AF3F21F020E003C021E001C0262F5C
:102A900090E020FD35C0C89FF001C99FF00D1124C2
:102AA000EF53FE4F21812A132BC02081271328C00A
:102AB0002281211125C0238134812417350710F488
:102AC00021503109241B350B283C3105C8F42091D5
:102AD000F6012F7020612093F60126E0289FF00177
:102AE000299FF00D1124EA53FE4F80818F70806181
:102AF000808381EF91E00E943E14CF910C94CE141C
:102B000001968770B8CFCF9108959F92AF92BF92F0
:102B1000CF92DF92EF92FF920F931F93CF93DF93A9
:102B2000CDB7DEB761970FB6F894DEBF0FBECDBF4D
:102B30007C0185E0F701DE011D9601900D928A95DA
:102B4000E1F7D701DC9011960C9111971296CC9079
:102B50003091F1014091F2018091F4019091F501E1
:102B6000009731F04F3F31F421E03F3F19F403C0AB
:102B700021E001C020E020FD9FC1F701A380B480C7
:102B80009090F301992009F42BC12091F601A81629
:102B9000B90628F0B501681B790BCB0104C08095FC
:102BA00090958A0D9B1D11E0883C910590F010E0F6
:102BB000207F09F0DBC07A2DB98AA88A4D2D502FCD
:102BC0006C2D89890E94AF1481EF91E00E943E1420
:102BD0006BC1822F807F09F091C0041315C0D312FE
:102BE00013C01C2DC11010C02F7020612093F6015E
:102BF0000E94EF1481EF91E00E943E148091F60153
:102C0000D70115968C9375C1A114B10439F00F3F0B
:102C100039F481E0BFEFDB1203C003C081E001C0E3
:102C200080E080FD03C081E08C2502C080E090E060
:102C300080FF15C04C2D602F8D2D0E94FD14882320
:102C400071F081EF91E00E943E14E1EFF1E086E047
:102C5000DF011D928A95E9F70E94EF144DC0AB2861
:102C600039F00F3F39F481E0BFEFDB1203C003C03E
:102C700081E001C080E080FD03C081E08C2502C0BE
:102C800080E090E0E82FE170BE2E80FF2CC04C2D3C
:102C9000602F8D2D0E94FD14182F811124C0DD8618
:102CA0000E878D859E850E94621A292F22952F708E
:102CB000223018F0243090F405C09F7059F0811133
:102CC00009C017C19F7031F0D70115969C91907F74
:102CD00009F40FC1805E883008F40BC1C7010E945F
:102CE0003E141B2D06C11C2DCC2009F402C180917D
:102CF000F60181608093F60110E0FBC0041309C067
:102D0000D31207C0C11005C08091F601F701858379
:102D1000A5C0DD860E878D859E850E94AA14882316
:102D200079F1CC2069F12091F601822F82958F7084
:102D300090E0029774F08091F1019091F2019887F0
:102D40008F831986BB86AA862C87CE0107960E94A0
:102D50003E1486E0F701A1EFB1E001900D928A9553
:102D6000E1F70E941D150E94EF140DC0041769F0D1
:102D7000DD860E878D859E850E94AA14811119C05B
:102D8000C7010E943E1411E0B4C0D312F1CFC110AC
:102D9000EFCF8091F601F7018583C7010E943E14B1
:102DA00086E0E1EFF1E0DF011D928A95E9F7192D48
:102DB000A0C0CC2029F32091F601822F82958F703C
:102DC00090E0029734F28091F1019091F2019A83A0
:102DD00089831B82BD82AC822E83CE010196B7CF40
:102DE000A816B90628F0F501E81BF90BCF0104C0BD
:102DF000809590958A0D9B1D883C910558F010E0B8
:102E00007A2DB98AA88A4D2D502F6C2D89890E9460
:102E1000AF144AC01C2DCC2009F4B2CF041333C028
:102E2000D31231C02091F60120FD24C0822F82955B
:102E30008F70482F50E041155105E1F0D7011596EC
:102E40002C9315974F30510549F08F5F982F92952D
:102E5000907F822F8F70892B15968C93C7010E94CB
:102E60003E1486E0F701A1EFB1E001900D928A9542
:102E7000E1F73DC086E0F701A1EFB1E001900D92CE
:102E80008A95E1F736C0DD860E878D859E850E9486
:102E9000AA1481115ECF8091F60181608093F601C2
:102EA000C7010E943E1425C0E1EFF1E086E0DF019A
:102EB0001D928A95E9F71BC0CC2009F461CFDD860D
:102EC0000E878D859E850E94AA14182F882309F4E9
:102ED00057CF86E0F701A1EFB1E001900D928A95FE
:102EE000E1F781EF91E00E9461110E941D150E949F
:102EF000EF14812F61960FB6F894DEBF0FBECDBFE1
:102F0000DF91CF911F910F91FF90EF90DF90CF90C5
:102F1000BF90AF909F9008951F93CF93DF93CDB74D
:102F2000DEB72C970FB6F894DEBF0FBECDBF4F8330
:102F3000588769877A878B879C87CE0107960E947E
:102F400085158823D1F09F8188852A853B85232B91
:102F500031F08F3F31F481E09F3F19F403C081E0ED
:102F600001C080E080FD47C04F81588569857A8522
:102F70008B859C850E94BE143EC086E0FE0137967C
:102F8000DE01119601900D928A95E1F7FF81E885A7
:102F90006A857B856115710531F0EF3F31F481E081
:102FA000FF3F19F403C081E001C080E080FD23C031
:102FB0002091C00130E0C9010196877099274091A6
:102FC000BF0150E084179507F1F1F983EA837D830F
:102FD0006C8396E0929FD001939FB00D1124AF5364
:102FE000BE4FFE01319601900D929A95E1F78093C4
:102FF000C0010E94CE1416E08091BF019091C001E3
:10300000891771F1189FC00111248F539E4F0E94A0
:103010008515882329F1E091BF011E9FF00111243D
:10302000EF53FE4F4081518162817381848195818C
:103030000E94BE148091BF0190E00196877099278D
:103040008093BF01D9CF0E9482141092C0011092C8
:10305000BF01E1EFF1E086E0DF011D928A95E9F71B
:103060002C960FB6F894DEBF0FBECDBFDF91CF9187
:103070001F910895EF92FF920F931F93CF93DF93C9
:103080008C01892B09F46CC0F12CEE24E394E80147
:103090002196F8018491843740F4843008F051C0BF
:1030A000813081F0823019F15BC0853709F444C06A
:1030B000A8F19CE7980F903708F052C08F770E94D4
:1030C000B51141C00E5F1F4FFE01849190E2980F31
:1030D000983050F48770FE2D01C0FF0F8A95EAF7F3
:1030E0008F2F0E94151B14C00E9467112DC00E5F08
:1030F0001F4FFE01849190E2980F983060F4877022
:10310000FE2D01C0FF0F8A95EAF78F2F0E941B1B2F
:103110000E944F1B19C00E94B51116C00E5F1F4FB1
:10312000FE01C491CC2381F08FE99FE00197F1F774
:1031300000C00000C150F6CF0E5F1F4FFE01F4909B
:1031400003C00E9467118E018F2D882309F49FCF41
:10315000EFE9FFE03197F1F700C000008150F5CFB3
:10316000DF91CF911F910F91FF90EF9008950895F7
:1031700008950C94B8180C94B9180E94BB18609369
:10318000190270931A0280931B0290931C020C94F4
:103190006C140C94BD180F931F9300911902109199
:1031A0001A0220911B0230911C02602B712B822B82
:1031B000932B1F910F910C94BD180F931F930091A7
:1031C000190210911A0220911B0230911C026023F7
:1031D0007123822393231F910F910C94BD180F9399
:1031E0001F930091190210911A0220911B02309135
:1031F0001C0260277127822793271F910F910C943F
:10320000BD180C94B8180E940119609315027093B0
:10321000160280931702909318020C946C1460E0CD
:1032200070E0CB010C9403190F931F9341E050E021
:1032300060E070E08A019B0104C0000F111F221F93
:10324000331F8A95D2F7C901B8011F910F910C94D1
:1032500003190F931F9341E050E060E070E004C059
:10326000440F551F661F771F8A95D2F7809115026C
:1032700090911602A0911702B09118028A019B0149
:10328000082B192B2A2B3B2BC901B8011F910F9139
:103290000C9403190F931F9341E050E060E070E03D
:1032A00004C0440F551F661F771F8A95D2F74095BB
:1032B0005095609570958091150290911602A0919D
:1032C0001702B09118028A019B01082319232A23AF
:1032D0003B23C901B8011F910F910C9403190F935F
:1032E0001F9341E050E060E070E004C0440F551FC0
:1032F000661F771F8A95D2F780911502909116026A
:10330000A0911702B09118028A019B010827192782
:103310002A273B27C901B8011F910F910C9403196B
:103320000F931F930091150210911602209117021E
:1033300030911802602B712B822B932B1F910F91D0
:103340000C9403190F931F9300911502109116020C
:103350002091170230911802602371238223932356
:103360001F910F910C9403190F931F930091150255
:1033700010911602209117023091180260277127D0
:10338000822793271F910F910C9403190895292FD9
:10339000220F920F990F890FE82FE695E695E69593
:1033A000877051E001C0550F8A95EAF785E0E89FE4
:1033B000F0011124E950FE4F20E030E070E0408140
:1033C000CB01022E02C0969587950A94E2F7817090
:1033D000819584278523842781932F5F3F4F253054
:1033E000310569F70895292F220F920F990F890F40
:1033F000682F669566956695982F977085E0689F0B
:10340000B001112440E050E080E0FB01E40FF51F23
:10341000E950FE4F208130E0092E02C036952795F5
:103420000A94E2F721703327042E01C0220F0A9478
:10343000EAF7822B4F5F5F4F4530510531F7089512
:10344000BF92CF92DF92EF92FF920F931F93CF9391
:10345000DF938C01C0901502D0901602E090170205
:10346000F09018028091190290911A02A0911B020B
:10347000B0911C02C82AD92AEA2AFB2ACFE1D0E05F
:10348000D701C6010C2E04C0B695A79597958795D0
:103490000A94D2F780FD04C0219790F7B12C07C0A1
:1034A000BC2EB8018C2F0E945F060197A9F38B2DCB
:1034B000DF91CF911F910F91FF90EF90DF90CF9010
:1034C000BF900895CF93DF93EC010E94201ABE01B4
:1034D0000E945F06DF91CF9108951F93CF93DF93F2
:1034E000EB019091BE01992321F0CB010E94621A59
:1034F00013C0882349F0CB010E94201A182F682F8F
:10350000CE010E94C71904C0CB010E94F319182FE5
:10351000BE01812F0E945F06DF91CF911F91089518
:103520008091220208950E94ED1D20912002309189
:1035300021028217930750F00E94ED1D2091200276
:1035400030912102821B930B9C010AC00E94ED1D49
:10355000209120023091210220953095280F391FAB
:1035600081E02838334108F480E0089580911F02FB
:10357000859585958595089580911F02877008959A
:103580000E94ED1D20911D0230911E0282179307AB
:10359000A8F00E94ED1D20911D0230911E02821B99
:1035A000930B8838934110F480E013C080911F0280
:1035B00082FB882780F991E089270BC00E94ED1DCE
:1035C00020911D0230911E0220953095820F931F8D
:1035D000E8CF8170089590911F02977081E009F4FF
:1035E00080E0089580914602089590914602892BCB
:1035F0008093460208958095909146028923809396
:103600004602089510924602089590914502892B32
:103610008093450208958095909145028923809377
:103620004502089510924502089590914402892B15
:103630008093440208958095909144028923809359
:10364000440208951092440208958091230208953F
:1036500008950C94281B0C94291BCF93909123025E
:10366000981769F0C82F0E94ED1D90932102809356
:103670002002C09323028C2FCF910C942B1BCF914F
:10368000089580912302882349F01092230210921A
:1036900021021092200280E00C942B1B0895E091EF
:1036A0000E01F0910F01809146028083E0910E019E
:1036B000F0910F01908180914502892B8083E091E8
:1036C0000E01F0910F01908180914402892B80833B
:1036D000809123028823B9F00E94931A81110E94DD
:1036E000411BE0910E01F0910F0190818091230226
:1036F000892B808380910E0190910F010E948C1C78
:1037000081110E94411B80910E0190910F010C9438
:103710001C100C94281B0C94891B90912202981762
:1037200021F0809322020C948B1B08958091220239
:10373000882329F01092220280E00C948B1B0895BC
:103740000C94281B98E0899F90011124262B20932C
:103750001F020E9429190E94ED1D90931E02809362
:103760001D0280911F028595859585950C94A01B5F
:1037700010921F0210921E0210921D0280E00C9403
:10378000A01B20911F028095822380931F02982FF7
:10379000977079F430E0482F082E000C550B241751
:1037A000350739F08595859585950E944A190C94C1
:1037B000B81B08956FEF7FEF80E090E00C94FD2838
:1037C00080E090E00E94D92821E08C3E9E4F09F0D5
:1037D00020E0822F089582E090E00C94CB2883E0D3
:1037E00090E00C94CB28682F83E090E00C94DF28C5
:1037F000CF9384E090E00E94CB28C82F81E290E034
:103800000E94CB282C2F30E0A901582BCA01CF9160
:103810000895CF93C92F682F84E090E00E94DF289D
:103820006C2F81E290E0CF910C94DF28AB01BC01BA
:103830008FE090E00C94F128AB01BC0183E190E0B3
:103840000C94F12860E070E0CB010C941C1C60E04B
:1038500070E0CB010E94161C0C94221C6CEE7EEFD3
:1038600080E090E00E94FD2860E082E090E00E940D
:10387000DF2860E083E090E00E94DF2810921902C8
:1038800010921A0210921B0210921C0260E084E057
:1038900090E00E94DF2860E081E290E00E94DF2853
:1038A00060E085E090E00E94DF2860E086E090E044
:1038B0000E94DF286FEF87E090E00E94DF2840E061
:1038C00050E0BA0188E090E00E94F12860E08DE0CD
:1038D00090E00E94DF2840E050E0BA0188E190E0EB
:1038E0000E94F12860E087E190E00E94DF2840E03C
:1038F00050E0BA018CE190E00E94F12860E080E2A3
:1039000090E00E94DF280C94271C0C942E1C682F3A
:103910008EE090E00C94DF28FC01329680911A0131
:10392000882331F08091A60287FF02C09EE101C08A
:1039300096E080E0915028F021912223D9F38F5F07
:10394000F9CF0895662351F120911A012223E9F05D
:103950002091A60227FF19C0462F46954695469509
:103960004E31E0F4677021E030E002C0220F331FD7
:103970006A95E2F7FC01E40FF11D828190E02823B3
:10398000392381E0232B69F409C0FC0132960896A3
:103990002191621729F0E817F907D1F780E008951F
:1039A00081E008959C01FC0132969FEF80E04191F7
:1039B000461789F09F3F19F4411101C0982F8F5F7E
:1039C0008630A9F79F3F39F0F901E90FF11D97FD06
:1039D000FA956283089508959C012A5F3F4FFC0188
:1039E0004281461301C01282019682179307B9F7EC
:1039F0000895262F2695269526952E3168F4FC01EC
:103A0000E20FF11D677021E030E001C0220F6A95DE
:103A1000EAF78281282B22830895262F2695269562
:103A200026952E3170F4FC01E20FF11D677021E044
:103A300030E001C0220F6A95EAF7209582812823A1
:103A40002283089520911A01222329F02091A602B1
:103A500027FD0C94F91C0C94D21C20911A012223EE
:103A600029F02091A60227FD0C940D1D0C94EC1C4E
:103A700020911A01FC013296222331F08091A60296
:103A800087FF02C08EE101C086E0DF011D928A95AA
:103A9000E9F7089508950C944A1D0C944A1DCF939C
:103AA0000E944D1D0E94AC080E944B1DC0E08C2F4F
:103AB0000E944808811104C0CF5FC730C1F701C020
:103AC00081E0CF9108950C944A1D0C94631D0E94CF
:103AD000651D8091AC02843009F439C0109248020F
:103AE00020E488E190E00FB6F894A89580936000F8
:103AF0000FBE2093600080E00E94DF050E94DC0C76
:103B00008091490281110AC081E08093490280912D
:103B10007C02817080934A020E940F0C0E94651DF6
:103B200083B7817F846083BF83B7816083BF7894CC
:103B3000889583B78E7F83BF0FB6F894A895809140
:103B40006000886180936000109260000FBE08954D
:103B50000C944A1D0E9482140E9410100E94DF05DE
:103B60001092490280914A0281110E94D40C0E9455
:103B7000210C0C94A81D1F920F920FB60F921124C6
:103B80008F939F93AF93BF9380914802811113C08D
:103B90008091A2029091A302A091A402B091A502EB
:103BA0004196A11DB11D8093A2029093A302A09300
:103BB000A402B093A502BF91AF919F918F910F90F6
:103BC0000FBE0F901F90189582E084BD93E095BDC5
:103BD0009AEF97BD80936E0008952FB7F894809167
:103BE000A2029091A302A091A402B091A5022FBFBE
:103BF0000895CF92DF92EF92FF920F931F932FB70A
:103C0000F8944091A2025091A3026091A402709195
:103C1000A5022FBF6A017B01EE24FF248C0120E066
:103C200030E0C016D106E206F30610F44150510907
:103C30009A01281B390BC9011F910F91FF90EF903A
:103C4000DF90CF90089578941F920F920FB60F9245
:103C500011248F939F93AF93BF938091A202909171
:103C6000A302A091A402B091A5020196A11DB11DCD
:103C70008093A2029093A302A093A402B093A50202
:103C8000BF91AF919F918F910F900FBE0F901F909A
:103C9000189587E797E790930108809300089AE0CA
:103CA00088E10FB6F894A895809360000FBE9093BA
:103CB0006000FFCF0C94DA1B0E94AC088FE39CE9F4
:103CC0000197F1F700C000000E94AC0880E00E945C
:103CD000480880FF04C00E945A1E0C94491E089593
:103CE0000E94E01B811102C00E94851C0E94EB1BF8
:103CF000809347020E94F81B9093A7028093A6022C
:103D00000E94EF1B682F70E080E090E00C94C918CF
:103D100080916B0208950895CF93DF9300D01F9296
:103D2000CDB7DEB79091AC02943019F589837B83CF
:103D30006A8382E08093E9008FEF9091E8008150E0
:103D400095FD06C095ED9A95F1F700008111F5CF2C
:103D50008091E80085FF0DC040E050E063E070E036
:103D6000CE0101960E94BD208091E8008E7780935D
:103D7000E8000F900F900F90DF91CF910895CF93AF
:103D8000DF93EC010E94A020823011F0843031F4E6
:103D9000BE0184E0DF91CF910C948C1EDF91CF9116
:103DA0000895BC0183E00C948C1ECF93DF93EC014B
:103DB0000E94A020823011F08430D9F580911A0140
:103DC000882339F08091A60287FF03C060E282E079
:103DD00002C068E081E08093E9008FEF9091E800F5
:103DE000815095FD06C095ED9A95F1F7000081117F
:103DF000F5CF8091E80085FF1CC080911A018111E8
:103E000005C040E050E068E070E003C070E040E0D2
:103E100050E0CE010E94BD208091E8008E77809313
:103E2000E80080E2FE01ABE4B2E001900D928A95D9
:103E3000E1F7DF91CF9108958091AB02811109C024
:103E40000E944E220E94AB228091E2008460809307
:103E5000E20008951092AB020895089508950C941D
:103E6000AA1D42E061EC81E00E94C72142E261ECC0
:103E700082E00C94C7218091AE02833009F460C0C7
:103E800030F4813071F0823009F499C008958A309D
:103E900009F485C08B3009F46BC0893009F0A7C0E4
:103EA00020C08091AD02813A09F0A1C08091E80064
:103EB000877F8093E8008091B1029091B202892BB4
:103EC00021F460E28BE492E003C060E080E090E0E7
:103ED00070E00E9408218091E8008B778093E800D1
:103EE00008958091AD02813209F081C08091B102C4
:103EF0009091B202029708F07AC08091E800877F23
:103F00008093E8008091E80082FD05C08091AC02BA
:103F10008111F8CF6CC02091F3008091F20090E005
:103F2000922B029729F48091F1008B7F813021F44C
:103F30008091F10080936B028091E8008B7753C0F1
:103F40008091AD02813A09F052C08091B102909106
:103F5000B202892B09F04BC08091E800877F8093E3
:103F6000E8008091E80080FFFCCF80911A0136C004
:103F70008091AD028132D9F58091B1029091B20267
:103F8000892BA9F58091E800877F8093E8000E9443
:103F9000FC218091AF0280931A010C9482148091CD
:103FA000AD02813221F58091E800877F8093E8009F
:103FB0000E94FC218091B00280936C020895809150
:103FC000AD02813AA1F48091E800877F8093E800F8
:103FD0008091E80080FFFCCF80916C028093F1001B
:103FE0008091E8008E778093E8000C94FC2108957E
:103FF00084B7877F84BF0FB6F894A895809160003E
:10400000886180936000109260000FBE90E080E8AD
:104010000FB6F89480936100909361000FBE0E94E8
:1040200072100E944E220E94AB228091E2008460B6
:104030008093E20078940E9440250E947A1080E1EB
:1040400091E00E940B108091AC02853069F40E94CF
:10405000671D8091AA028823B1F30E944F1D882317
:1040600091F30E94A720EFCF0E948F10ECCF0C9409
:104070003920292F332723303105C9F060F421304E
:10408000310581F02230310509F04AC08BE390E020
:1040900024E438E049C02132310511F122323105E2
:1040A00079F13EC082E190E02FE738E03DC09927EA
:1040B0008130910561F040F08230910559F003970D
:1040C00079F5EAE0F8E008C0E0E4F8E005C0E2E3F2
:1040D000F8E002C0E0E1F8E0849190E09F0124C0A4
:1040E0006115710541F061307105D1F489E090E00E
:1040F0002FE638E019C089E090E026E538E014C0EA
:104100006115710541F06130710551F48DE690E063
:1041100021E938E009C080E490E02EEF38E004C0E7
:1041200080E090E020E030E0FA01318320830895C0
:104130008091AC02843011F081E0089582E008950E
:1041400080916D02811102C00C949820089580E145
:1041500089BD82E189BD09B400FEFDCF8091D80000
:104160008F7D8093D8008091E00082608093E00092
:104170008091E00081FDFCCF0895CF92DF92EF9215
:10418000FF920F931F93CF93DF93EC018B017A0182
:104190000E941B22811133C0E114F10439F0F701B0
:1041A00080819181081B190BC80FD91FC12CD12CFC
:1041B0000115110519F18091E80085FD16C0809167
:1041C000E8008E778093E800E114F10449F0F701EC
:1041D00080819181C80ED91ED182C08285E00FC036
:1041E0000E941B22882321F30AC089918093F10049
:1041F00001501109FFEFCF1ADF0ADACF80E0DF911B
:10420000CF911F910F91FF90EF90DF90CF90089585
:104210002091B3023091B4022617370748F0611598
:10422000710539F42091E8002E772093E80001C051
:10423000B901FC0120E06115710579F18091AC02B2
:104240008823F1F18530F1F18091E80083FD3CC0D5
:104250008091E80082FD2EC08091E80080FFEBCFC6
:104260002091F3008091F20090E0922B611571058E
:1042700051F08830910538F421912093F10061507C
:1042800071090196F3CF21E0089709F020E08091B1
:10429000E8008E778093E800CECF2111CFCF0AC0FF
:1042A0008091AC02882361F0853061F08091E80054
:1042B00083FD0AC08091E80082FFF2CF80E008957C
:1042C00082E0089583E0089581E008952091B3028B
:1042D0003091B4022617370748F06115710539F49B
:1042E0002091E8002E772093E80001C0B901FC017D
:1042F00020E06115710591F18091AC02882309F4E9
:1043000040C0853009F43FC08091E80083FD3DC086
:104310008091E80082FD2FC08091E80080FFE9CF06
:104320002091F3008091F20090E0922B61157105CD
:1043300059F08830910540F424912093F100319692
:10434000615071090196F2CF21E0089709F020E051
:104350008091E8008E778093E800CBCF2111CCCFFD
:104360000AC08091AC02882361F0853061F08091B1
:10437000E80083FD0AC08091E80082FFF2CF80E070
:10438000089582E0089583E0089581E00895982FCC
:10439000973068F59093E900981739F07091EC0028
:1043A0002091ED005091F00003C0242F762F50E0B3
:1043B00021FD02C09F5FECCF3091EB003E7F309338
:1043C000EB003091ED003D7F3093ED003091EB003C
:1043D00031603093EB007093EC002093ED0050932C
:1043E000F0002091EE0027FDE5CF80E008958F706A
:1043F0008093E90081E008958091AD0287FF11C0AC
:104400008091E80082FD05C08091AC028111F8CF57
:1044100011C08091E8008B770BC08091AC0288239B
:1044200049F08091E80080FFF8CF8091E8008E7716
:104430008093E80008952091E4003091E50095E62E
:104440004091EC00842F817040FF23C08091E800F0
:1044500080FD1DC08091AC02882399F0853099F0D1
:104460008091EB0085FD11C04091E4005091E50082
:104470002417350729F3915011F09A01E1CF84E018
:10448000089582E0089583E0089581E0089580E032
:1044900008954091E80042FFDDCF08950E94BC22BC
:1044A0000E94C422E0EEF0E0808181608083E8ED2C
:1044B000F0E080818F77808319BCA7EDB0E08C910C
:1044C0008E7F8C9380818F7E80831092AB020895C3
:1044D0000F931F93CF93DF930E94BC220E94C422AC
:1044E000C8EDD0E088818F77888388818068888351
:1044F00088818F7D888319BC1092AC021092A8022B
:104500001092AA021092A90200EE10E0F801808138
:104510008B7F808388818160888342E060E080E0D7
:104520000E94C721E1EEF0E080818E7F8083E2EE81
:10453000F0E0808181608083808188608083F801E1
:1045400080818E7F8083888180618883DF91CF9195
:104550001F910F910895E8EDF0E080818F7E8083B8
:10456000E7EDF0E080818160808384E082BF81E0BC
:104570008093AB020C946822E8EDF0E080818E7F9E
:1045800080831092E20008951092DA001092E10008
:1045900008951F920F920FB60F9211242F933F93FD
:1045A0004F935F936F937F938F939F93AF93BF933B
:1045B000EF93FF938091E10082FF0BC08091E200B6
:1045C00082FF07C08091E1008B7F8093E1000E9411
:1045D0003F258091DA0080FF1FC08091D80080FFC6
:1045E0001BC08091DA008E7F8093DA008091D90021
:1045F00080FF0DC080E189BD82E189BD09B400FE64
:10460000FDCF81E08093AC020E941C1F05C019BC45
:104610001092AC020E942A1F8091E10080FF19C015
:104620008091E20080FF15C08091E2008E7F809330
:10463000E2008091E20080618093E2008091D800E6
:1046400080628093D80019BC85E08093AC020E9400
:104650002E1F8091E10084FF30C08091E20084FF32
:104660002CC080E189BD82E189BD09B400FEFDCF87
:104670008091D8008F7D8093D8008091E1008F7E5B
:104680008093E1008091E2008F7E8093E200809130
:10469000E20081608093E2008091A802882311F0FB
:1046A00084E007C08091E30087FD02C081E001C083
:1046B00083E08093AC020E942F1F8091E10083FF72
:1046C00029C08091E20083FF25C08091E100877FAF
:1046D0008093E10082E08093AC021092A802809166
:1046E000E1008E7F8093E1008091E2008E7F8093D5
:1046F000E2008091E20080618093E20042E060E0AD
:1047000080E00E94C7218091F00088608093F000D3
:104710000E942D1FFF91EF91BF91AF919F918F91BB
:104720007F916F915F914F913F912F910F900FBEAD
:104730000F901F9018951F920F920FB60F92112491
:104740002F933F934F935F936F937F938F939F9399
:10475000AF93BF93CF93DF93EF93FF93C091E900A3
:10476000CF708091EC00D82FD17080FDD0E81092EE
:10477000E9008091F000877F8093F00078940E9498
:10478000DF231092E9008091F00088608093F000B0
:10479000CD2BCF70C093E900FF91EF91DF91CF91C6
:1047A000BF91AF919F918F917F916F915F914F9149
:1047B0003F912F910F900FBE0F901F9018951F9350
:1047C000CF93DF93CDB7DEB7AA970FB6F894DEBFCD
:1047D0000FBECDBFEDEAF2E08091F100819322E0BF
:1047E000E53BF207C9F70E943B1F8091E80083FF79
:1047F0002EC18091AD029091AE02492F50E04A3017
:10480000510508F024C1FA01E857FF4F0C94B8286D
:10481000803821F0823809F01AC108C08091A902BD
:104820009091AA02992389F082600FC08091B10211
:104830008F70873008F00BC18093E9008091EB0006
:1048400085FB882780F91092E9009091E800977F16
:104850009093E8008093F1001092F100D1C0282FCE
:104860002D7F09F0F4C0882319F0823061F0EFC089
:104870008091AF02813009F0EAC0933009F080E006
:104880008093AA022EC08091AF0281112AC080912C
:10489000B1028F702FEF280F263008F0D8C0809318
:1048A000E9002091EB0020FF1CC0933021F480919F
:1048B000EB00806214C09091EB0090619093EB004C
:1048C00021E030E0A90102C0440F551F8A95E2F7AC
:1048D0004093EA001092EA008091EB008860809398
:1048E000EB001092E9008091E800877F8093E80058
:1048F0000E94FC21ACC08111AAC01091AF021F77A9
:104900008091E3008078812B8093E3008091E80020
:10491000877F8093E8000E94FC218091E80080FF5F
:10492000FCCF8091E30080688093E300111102C006
:1049300082E001C083E08093AC0289C0805882305D
:1049400008F085C08091AF029091B0028C3D53E099
:10495000950779F583E08A838AE289834FB7F894D3
:10496000DE01139620E03EE051E2E32FF0E05093A9
:104970005700E49120FF03C0E295EF703F5FEF70B6
:104980008E2F90E0EA3010F0C79601C0C0968D934C
:104990009D932F5F243149F74FBF8091E800877FB7
:1049A0008093E8006AE270E0CE0101960E9408213F
:1049B00016C06091B1027091B202AE014F5F5F4FBD
:1049C0000E943720BC01892B09F441C09091E80076
:1049D000977F9093E80089819A810E946621809157
:1049E000E8008B778093E80032C0803881F58091B1
:1049F000E800877F8093E8008091A8028093F1000F
:104A00008091E8008E7772CF811121C08091AF0232
:104A10009091B00299270297D4F48091E800877FA3
:104A20008093E8008091AF028093A8020E94FC214D
:104A30008091A802811106C08091E30087FD02C029
:104A400081E001C084E08093AC020E94311F80911C
:104A5000E80083FF0AC08091E800877F8093E80028
:104A60008091EB0080628093EB00AA960FB6F894D9
:104A7000DEBF0FBECDBFDF91CF911F910895089586
:104A8000CF938091AC028823A1F0C091E900CF7050
:104A90009091EC00892F817090FD80E8C82B1092D6
:104AA000E9008091E80083FD0E94DF23CF70C0936E
:104AB000E900CF9108955058BB27AA270E9473257B
:104AC0000C941E270E94102738F00E94172720F010
:104AD00039F49F3F19F426F40C94E6260EF4E09581
:104AE000E7FB0C94E026E92F0E942F2758F3BA1712
:104AF000620773078407950720F079F4A6F50C94F4
:104B000051270EF4E0950B2EBA2FA02D0B01B90101
:104B100090010C01CA01A0011124FF27591B99F033
:104B2000593F50F4503E68F11A16F040A22F232F3F
:104B3000342F4427585FF3CF469537952795A7958F
:104B4000F0405395C9F77EF41F16BA0B620B730B36
:104B5000840BBAF09150A1F0FF0FBB1F661F771FA7
:104B6000881FC2F70EC0BA0F621F731F841F48F45C
:104B7000879577956795B795F7959E3F08F0B0CFE5
:104B80009395880F08F09927EE0F979587950895CC
:104B90000E94DC250C941E270E94172758F00E94C3
:104BA000102740F029F45F3F29F00C94E0265111C2
:104BB0000C9452270C94E6260E942F2768F3992321
:104BC000B1F3552391F3951B550BBB27AA27621709
:104BD0007307840738F09F5F5F4F220F331F441F16
:104BE000AA1FA9F335D00E2E3AF0E0E832D091504A
:104BF0005040E695001CCAF72BD0FE2F29D0660F37
:104C0000771F881FBB1F261737074807AB07B0E879
:104C100009F0BB0B802DBF01FF2793585F4F3AF07F
:104C20009E3F510578F00C94E0260C9452275F3F8C
:104C3000E4F3983ED4F3869577956795B795F79505
:104C40009F5FC9F7880F911D9695879597F90895ED
:104C5000E1E0660F771F881FBB1F62177307840789
:104C6000BA0720F0621B730B840BBA0BEE1F88F798
:104C7000E095089529F416F00C94E0260C94512741
:104C80000C94E6260E943727A8F39638A0F707F879
:104C90000F92E8942BE33AEA48EB5FE70E94E4279F
:104CA0000F920F920F924DB75EB70F920E949A2704
:104CB000E4E2F1E00E94E9264F915F91EF91FF91CC
:104CC000E595EE1FFF1F49F0FE57E0684427EE0F01
:104CD000441FFA95E1F74195550B0E9464270F9008
:104CE00007FE0C94582708950E94372788F09F5795
:104CF00098F0B92F9927B751B0F0E1F0660F771F00
:104D0000881F991F1AF0BA95C9F714C0B13091F0F5
:104D10000E945127B1E008950C945127672F782FF6
:104D20008827B85F39F0B93FCCF3869577956795BA
:104D3000B395D9F73EF490958095709561957F4F26
:104D40008F4F9F4F0895E89409C097FB3EF49095CC
:104D50008095709561957F4F8F4F9F4F9923A9F054
:104D6000F92F96E9BB279395F695879577956795E3
:104D7000B795F111F8CFFAF4BB0F11F460FF1BC027
:104D80006F5F7F4F8F4F9F4F16C0882311F096E9BA
:104D900011C0772321F09EE8872F762F05C0662368
:104DA00071F096E8862F70E060E02AF09A95660F21
:104DB000771F881FDAF7880F9695879597F90895DA
:104DC00097F99F6780E870E060E008959FEF80ECBE
:104DD0000895DF93CF931F930F93FF92EF92DF928B
:104DE0007B018C01689406C0DA2EEF010E94E12756
:104DF000FE01E894A5912591359145915591A6F331
:104E0000EF010E947325FE019701A801DA9469F76A
:104E1000DF90EF90FF900F911F91CF91DF91089558
:104E200000240A9416161706180609060895002489
:104E30000A9412161306140605060895092E039403
:104E4000000C11F4882352F0BB0F40F4BF2B11F477
:104E500060FF04C06F5F7F4F8F4F9F4F089557FDD6
:104E60009058440F551F59F05F3F71F04795880FD8
:104E700097FB991F61F09F3F79F08795089512166F
:104E800013061406551FF2CF4695F1DF08C016161B
:104E900017061806991FF1CF8695710561050894CC
:104EA0000895E894BB2766277727CB0197F90895E3
:104EB0009B01AC0160E070E080E89FE30C94C825A2
:104EC0000C94E0260C9443280E943727D8F39923AA
:104ED000C9F3940F511DA3F39150504094F059F031
:104EE000882332F0660F771F881F91505040C1F71A
:104EF0009E3F51052CF7880F911D9695879597F940
:104F000008955F3FACF0983E9CF0BB27869577955F
:104F10006795B79508F4B1609395C1F7BB0F58F743
:104F200011F460FFE8CF6F5F7F4F8F4F9F4FE3CF4C
:104F30000C945227FA01DC01AA0FBB1F9B01AC01A4
:104F4000BF5728F4222733274427507820C0B75171
:104F500090F4AB2F0024469537952795011CA39517
:104F6000D2F3002071F0220F331F441FB395DAF300
:104F70000ED00C945B2561307105A0E88A07B94614
:104F800030F49B01AC01662777278827907830960C
:104F900021F0208331834283538308950E94E127C7
:104FA0000C941E270E94102738F00E94172720F02B
:104FB000952311F00C94E0260C94E62611240C9411
:104FC00052270E942F2770F3959FC1F3950F50E051
:104FD000551F629FF001729FBB27F00DB11D639FAB
:104FE000AA27F00DB11DAA1F649F6627B00DA11D51
:104FF000661F829F2227B00DA11D621F739FB00DF7
:10500000A11D621F839FA00D611D221F749F332766
:10501000A00D611D231F849F600D211D822F762FFF
:105020006A2F11249F5750409AF0F1F088234AF0DC
:10503000EE0FFF1FBB1F661F771F881F9150504048
:10504000A9F79E3F510580F00C94E0260C9452275E
:105050005F3FE4F3983ED4F3869577956795B795CF
:10506000F795E7959F5FC1F7FE2B880F911D9695E9
:10507000879597F908959F930E9453280F9007FCF6
:10508000EE5F0C947C289F3F31F0915020F487957F
:1050900077956795B795880F911D9695879597F9A0
:1050A00008950C94E6260E943727D8F3E894E0E0B0
:1050B000BB279F57F0F02AED3FE049EC06C0EE0F0A
:1050C000BB0F661F771F881F28F0B23A620773076D
:1050D000840728F0B25A620B730B840BE3959A9500
:1050E00072F7803830F49A95BB0F661F771F881FC0
:1050F000D2F790480C944528EF93E0FF07C0A2EA4E
:105100002AED3FE049EC5FEB0E9473250E941E27C9
:105110000F90039401FC9058ECE4F1E00C9490287B
:105120009F938F937F936F93FF93EF939B01AC01BA
:105130000E94CE27EF91FF910E94E9262F913F9187
:105140004F915F910C94CE27AA1BBB1B51E107C066
:10515000AA1FBB1FA617B70710F0A61BB70B881F07
:10516000991F5A95A9F780959095BC01CD01089596
:10517000EE0FFF1F0590F491E02D0994FC014150C2
:10518000504030F001900616D1F73197CF010895C5
:10519000882799270895F999FECF92BD81BDF89A85
:1051A000992780B50895A6E1B0E044E050E00C9462
:1051B0000529A8E1B0E042E050E00C940529262F33
:1051C000F999FECF92BD81BDF89A019700B40216FD
:1051D00039F01FBA20BD0FB6F894FA9AF99A0FBEAB
:1051E00008950396272F0E94E0280E94DF28252F8C
:1051F0000E94E028242F0C94E0280196272F0E947B
:10520000E0280C94DF28DC01CB01FC01F999FECFEA
:1052100006C0F2BDE1BDF89A319600B40D9241503E
:0A5220005040B8F70895F894FFCF4E
:10522A000B0B0B01090A0B0C0D0E0F1011122402A5
:10523A00881ED51E8B1ED11EBF1E01E200E900EAA0
:10524A0000B500B600B700CD008301CC008A0192F8
:10525A000194012102230224022502260227022A9E
:10526A0002B300B4006F007000818283946697C60F
:10527A003435F4F5F6F73133320001020202020640
:10528A00060609090909090909090909E200E900E3
:10529A00EA00B500B600B700CD008301CC008A0150
:1052AA0092019401210223022402250226022702E6
:0E52BA002A02B300B4006F00700081828300EE
:00000001FF
