:100000000C94CD040C9414050C9414050C94140554
:100010000C9414050C9414050C9414050C941405FC
:100020000C9414050C9414050C945D290C942F2A3F
:100030000C947D210C9414050C9414050C94140557
:100040000C9414050C9414050C9414050C941405CC
:100050000C9414050C94E5210C9414050C941405CF
:100060000C9414050C9414050C9414050C941405AC
:100070000C9414050C9414050C9414050C9414059C
:100080000C9414050C9414050C9414050C9414058C
:100090000C9414050C9414050C9414050C9414057C
:1000A0000C9414050C9414050C941405330F360F9E
:1000B0003B0F400F450F4A0F4F0F540F590F5E0F64
:1000C000630F6A0F6E0F710F7B0F7B0F7B0F7B0F20
:1000D000740F7B0F9F159F15D115D1152A16481641
:1000E000BD17BD178A161F1730173017AD17BD176C
:1000F000BD17B61753185318651865185C1865189E
:100100006518651853185318611865186518611833
:100110009C2AC32ABB2BC32ABB2B0F2B322BBB2BF6
:10012000892B982B07634236B79BD8A71A39685694
:1001300018AEBAAB558C1D3CB7CC5763BD6DEDFD09
:10014000753EF6177231BF000000803F05A84CCD08
:10015000B2D44EB93836A9020C50B9918688083C01
:10016000A6AAAA2ABE000000803F2B6414001A0031
:10017000080015001700E000040016000700090041
:100180000A0002551D001B000600190005001C0096
:1001900018000C00120013002A000B000D000E00C6
:1001A0000F00005734001100100036003700386887
:1001B000310003542C4428450000000000002B644B
:1001C00014001A00090013000A00E00004001500E2
:1001D00016001700070002551D001B00060019003D
:1001E00005000D000F0018001C0000572A000B002E
:1001F000110008000C0012004C000E001000360028
:1002000037003868310003542C44284500000000B2
:1002100000000000000000000000000000000000DE
:1002200000000000000000000000000000000000CE
:1002300000000000000000000000000000000000BE
:1002400000000000000000000000000000000000AE
:10025000000000000000000000000000000000009E
:100260000000000000002B044B004A0052004D002B
:1002700049004C004E00500051004F00280039004A
:10028000A800AA00A900AC00AB00230224022502AA
:100290002602270235021E021F022002210222022C
:1002A00035002D002E002F0030000100310201002A
:1002B000AE00010000000000000029000100F7006E
:1002C000FB00FC00F90001000100F600F500F4005D
:1002D000FA0001000100F8004604160A460C24004A
:1002E0002500260057005600B200210022002300FE
:1002F0005500540001001E001F0020006300010093
:1003000001002B0001002700000000000000C25C7B
:10031000C35CC55CC75CC95C0100085D01003000BE
:100320002F002D022D00095D010030022F022E0248
:100330002E0001004200430044004500005C010023
:100340003E003F0040004100085D01003A003B00D4
:100350003C003D00095D01000100010000000000BB
:10036000000000000000000000000000000000008D
:10037000000000000000000000000000000000007D
:10038000000000000000000000000000000000006D
:10039000000000000000000000000000000000005D
:1006A0000000000000000000000001000100010047
:1006B0000100010001000100010001000100010032
:1006C0000100010001000100010001000100010022
:1006D0000100010001000100010001000100010012
:1006E0000100010001000100010001000100010002
:1006F00001000100010001000000000000001A00DC
:100700000900000014001A000000783C1E1E140AA4
:1007100005FFAA7F5540000101010101010101010E
:1007200002020202020202020203030303030303A2
:10073000030404040404040405050505050606066F
:100740000606070707070708080808090909090A2C
:100750000A0A0B0B0B0C0C0C0D0D0D0E0E0E0F0FD1
:100760000F1010111111121213131414151516165F
:100770001717181819191A1A1B1B1C1D1D1E1E1FCE
:100780002020212222232424252626272829292A1D
:100790002B2C2D2D2E2F3031323233343536373845
:1007A000393A3B3C3D3E3F40414243444546474841
:1007B000494A4C4D4E4F50515354555658595A5B17
:1007C0005D5E5F616264656668696B6C6D6F7072B7
:1007D000737577787A7B7D7E8082838587888A8C23
:1007E0008E8F91939596989A9C9EA0A2A3A5A7A957
:1007F000ABADAFB1B3B5B7BABCBEC0C2C4C6C9CB4E
:10080000CDCFD1D4D6D8DBDDDFE2E4E7E9EBEEF003
:10081000F3F5F8FAFDFF0403300000002003520056
:1008200065007600690075006E00670033003900CE
:1008300020006200790020004E00520000000C03EE
:10084000670074006900700073000000040309046D
:1008500009023B00020100A0FA09040000010301A3
:100860000100092111010001224000070581030850
:10087000000A090401000103000000092111010020
:100880000122BC000705820320000A1201100100AA
:10089000000008EDFE00000100010203010501094E
:1008A00002A10185020901A1000509190129051507
:1008B00000250195057501810295017503810105EA
:1008C00001093009311581257F95027508810609D6
:1008D000381581257F950175088106050C0A3802B7
:1008E0001581257F950175088106C0C00501098025
:1008F000A101850319012AB700150126B70095014A
:1009000075108100C0050C0901A101850419012A97
:10091000A002150126A002950175108100C00501F5
:100920000906A1018505050719E029E7150025013C
:100930009508750181020507190029EF15002501A9
:1009400095F07501810205081901290595057501C4
:100950009102950175039101C005010906A10105E8
:100960000719E029E7150025019508750181029511
:1009700001750881010507190029FF150026FF00F0
:100980009506750881000508190129059505750169
:100990009102950175039101C00011241FBECFEF94
:1009A000DAE0DEBFCDBF04B603FE27C080910B03A3
:1009B00090910C03A0910D03B0910E038730904BE2
:1009C000A740B04BD1F410920B0310920C0310927D
:1009D0000D0310920E0314BE84B7877F84BF0FB639
:1009E000F894A895809160008861809360001092CF
:1009F00060000FBEE0E0F8E3099511E0A0E0B1E08F
:100A0000EAE7FFE502C005900D92AC3CB107D9F7CB
:100A100023E0ACECB1E001C01D92AB30B207E1F7CE
:100A20000E948C260C94BB2F0C940000882319F094
:100A3000813031F00895662349F089E290E004C0E6
:100A4000662321F08BE290E00C94A6050895CF93E5
:100A5000DF93EC010E94B51FBE0180E090E0DF91C2
:100A6000CF910C94881C88302DE5920751F0893085
:100A70009D4589F4FB018281882371F081E090E03B
:100A800006C0FB018281882339F082E090E00E9459
:100A9000270580E0089581E008959C013A9521158D
:100AA0003F4138F5DC01AA27B270AC0144275470ED
:100AB0009C012227387094FF0FC090FF02C080E194
:100AC00001C080E0AB2B09F08062452B09F0806407
:100AD000232B69F080680BC0892F8170AB2B09F044
:100AE0008260452B09F08460232B09F08860FB01AC
:100AF00009940895CF93DF93EC01805E91090897E4
:100B000010F0209719F46FE575E102C069E178E112
:100B1000CE010E944D058C2FDF91CF910C94C21411
:100B2000CF93DF93EC010E941815CE01805E9109EE
:100B3000089710F0209719F466E675E102C060E2AC
:100B400078E1CE01DF91CF910C944D05CF93DF93E7
:100B5000EC010E947A05CE01DF91CF910C949005B3
:100B600081E008950C9433051F93CF93DF9300D059
:100B700000D01F92CDB7DEB749835A836B83209193
:100B8000040289819A81211112C0662349F00E94D2
:100B9000DF1D182F682F89819A810E94861D03C04E
:100BA0000E94B21D182F69817A81812F04C00E9492
:100BB000DF1D69817A810F900F900F900F900F9039
:100BC000DF91CF911F910C947906FC0140815181F6
:100BD0006281738184810C94B4050E941E220E945C
:100BE000A21F811102C00E9447200C9495080E9408
:100BF000B7100E94D0090C94910808950C94FD053B
:100C000081E008950C940006CF93C82F0E94FE0542
:100C10008C2F0E940206CF91089508950E944118DA
:100C20000E940D062FEF84E39CE02150804090400D
:100C3000E1F700C0000087E797E7909301088093F1
:100C400000080C940B220F931F93CF93DF93EC01BA
:100C50000E94E5058C01BE010E941410BE01C8016E
:100C60000E94B2058823D9F1BE01C8010E945B1021
:100C70008823A9F1BE01C8010E94FD09882379F1EA
:100C8000BE01C8010E94B311882349F1BE01C80109
:100C90000E94F411882319F1BE01C8010E941F139C
:100CA0008823E9F0BE01C8010E941C0F8823B9F017
:100CB0008A81882369F001158CE5180731F00E3D13
:100CC0001C4531F40E9447200AC00E940E0607C04E
:100CD000CE01DF91CF911F910F910C94B00580E070
:100CE000DF91CF911F910F91089580E090E00895DA
:100CF00008952AE2829FC0011124FC0126E0729F20
:100D0000E00DF11D1124E60FF11DEE0FFF1FE65956
:100D1000FE4F859194910895880F991FFC01E65F1D
:100D2000F84F859194910895CF93DF930E947906AF
:100D30000E94AC07EC018115904508F041C0C11537
:100D400080E4D80708F0D1C0C83ED10510F5C03EF8
:100D5000D10508F0FDC0C83AD10578F4C53AD105EF
:100D600008F0A2C0C130D10509F4F2C008F4EEC009
:100D7000C430D10508F0ECC0E9C0CF3BD10508F480
:100D80009BC0C03CD10508F4E1C0CE01805C910954
:100D90009EC0C11590E2D90758F4C11521E0D207D1
:100DA00008F0D6C0C03FD10508F4D0C0D065D0C08F
:100DB000C11580E3D80708F08EC0CE019F7087C0B0
:100DC000C11595E5D90708F043C0C11524E5D20740
:100DD00008F0A2C0C11582E5D80708F5C11591E554
:100DE000D90708F085C0CE0174E0969587957A956D
:100DF000E1F783709C2F937021E030E002C0220F56
:100E0000331F9A95E2F73C68382BCF70C695C6958C
:100E100080E2C89FE0011124C22BD32B99C09E0110
:100E2000237033278C2F86958695C115D34508F0FE
:100E300064C0C1E0D0E002C0CC0FDD1F2A95E2F70C
:100E400020E2829FC0011124C82BD92BDC6880C00E
:100E5000C11529E5D207A0F4C11588E5D80708F027
:100E600060C0C11596E5D90708F070C08C2F0E94AC
:100E700040088F71C82FD0E0DC2FCC27D06268C02B
:100E8000C1152AE5D20708F451C0CE01905681154C
:100E9000904208F05BC08D2F8F710E944008DD27C3
:100EA000D0628F71D82B54C0C55AD0E0C958DE4FDC
:100EB000C881D0E0D0644CC0C85AD0E0CC0FDD1F50
:100EC000C75BDE4F0990D881C02DD46441C00E9419
:100ED0008C06EC013DC0CE019927D3FF03C0EC0185
:100EE000D86C36C0EC01D06C33C0DF70D06A30C033
:100EF000DC2FCC27C16FD06A2BC0C1E0D0E002C08C
:100F0000CC0FDD1F2A95E2F720E2829FC001112459
:100F1000C82BD92BDA681CC0DC2FCC27C46FD06A51
:100F200017C0DC2FCC27C06FD06A12C08C2F8F70F7
:100F30000E94400894E0D695C7959A95E1F7CF7046
:100F4000D0E0DC2FCC27D069C82B02C0C0E0D0E0B5
:100F5000CE01DF91CF9108958238910569F1B0F407
:100F60008133910509F46DC048F48932910509F483
:100F700063C08A32910509F469C0089585339105EB
:100F800009F455C089339105B9F00895833E910560
:100F900069F138F4803E9105B1F0823E910509F186
:100FA0000895863E9105A9F1873E9105B9F1843EE9
:100FB000910509F064C023C02091FC0220FD4FC0C0
:100FC00021FD4DC008958091FC0280FD44C08091B8
:100FD000FD0280FF44C08091FC0284FD42C083EE8C
:100FE0004DC08091FC0282FF38C0F5CF8091FC0299
:100FF00082FD33C08091FD0280FD31C0ECCF809135
:10100000FD0281FF32C08091FC0284FD2AC087EE80
:1010100035C08091FC0283FF26C0F5CF8091FC0291
:1010200083FD21C08091FD0281FD1FC0ECCF809126
:10103000FC0285FD1CC01DC08091FC0285FD19C00D
:1010400016C08091FC0286FD16C017C08091FC027C
:1010500086FD13C010C089E311C082EE0FC080EE80
:101060000DC080E00BC086EE09C084EE07C089E2A7
:1010700005C085E303C08AE201C081E390E00895E2
:101080009091FC0292FF0DC0282F2871283019F48E
:10109000877F846006C0282F2471243011F48B7F51
:1010A000886093FF0DC0282F2871283119F4877E9E
:1010B000846106C0282F2471243111F48B7E88614D
:1010C0002091FD0220FF0DC0382F3871383019F4FF
:1010D000877F816006C0382F3171313011F48E7FE7
:1010E000886021FF0DC0282F2871283119F4877ED0
:1010F000816106C0282F2171213111F48E7E886113
:1011000094FD877E0895E82FF0E0E753FD4F80813E
:101110000895089580EA8A95F1F7089508950C944A
:101120008E080C948F080C948E080C949308CF931F
:10113000DF93A0E8B1E047E851E061E070E08D9115
:10114000E82FE295EF70F0E021A18F70EB0102C073
:10115000CC0FDD1F8A95E2F7CE019C2F909592234C
:1011600091A392A1892B82A34A175B0741F7AAE7B3
:10117000B1E040E851E061E070E08D91E82FE29548
:10118000EF70F0E021A18F70EB0102C0CC0FDD1FEA
:101190008A95E2F7CE019C2F9095922391A392A17C
:1011A000892B82A34A175B0741F7E2ECF2E0A9EC36
:1011B000B2E089EC92E011921D928E179F07D9F749
:1011C00087E00E947909DF91CF910C94ED053F9261
:1011D0004F925F926F927F928F929F92AF92BF9247
:1011E000CF92DF92EF92FF920F931F93CF93DF93F3
:1011F00080E8882E81E0982E02EC12E099EC692EAE
:1012000092E0792E512CCC24C394D12C5801D801D2
:101210003C901C92F40181914F01C82FC295CF7070
:10122000D0E099A18F70760101C0EE0C8A95EAF7A3
:10123000892F8E2989A38AA14E2C409484218AA3C8
:101240000E948A08EAE7F1E020E030E09191A92FBE
:10125000A295AF70B0E090964C91D8016C9150E09F
:101260009F7002C0559547959A95E2F740FD08C0DA
:101270009C2D022E01C0990F0A94EAF7892F01C014
:1012800080E0862BD8018C932F5F3F4F26303105AD
:10129000E9F689A1482249A28AA1E82AEAA20F5FB9
:1012A0001F4F81E0F5019081931101C080E0582A21
:1012B0006016710609F0AACF252D47E069EC72E0AF
:1012C00082EC92E00E947A090E94F705852DDF9159
:1012D000CF911F910F91FF90EF90DF90CF90BF9033
:1012E000AF909F908F907F906F905F904F903F90C6
:1012F00008950895FF920F931F93CF93DF938C016E
:10130000F62ED72FC42F222349F081E08093CE01FF
:101310000E94AF219093CD018093CC018091CE01AA
:101320008823C1F08091CC019091CD010E94BB2116
:10133000069780F0EF2DFD2FD8014C2F50E0CD0106
:10134000801B910B841795071CF48D918193F7CF27
:101350001092CE01DF91CF911F910F91FF900895D0
:10136000CF939091DF019923C9F0882311F0C0E059
:1013700003C01092DF0112C08091DF01C817C8F7C7
:10138000EC2FF0E0EE0FFF1FE153FE4F80819181C3
:101390000E947A050E94111FCF5FEECFCF91089572
:1013A000809124018823A1F08091E001882381F0BD
:1013B0008091E3019091E401009751F00E94BB21DC
:1013C0008536910528F01092E00181E00C94B00977
:1013D00008951092E001109224011092E4011092FD
:1013E000E30181E00C94B0098091240181110C94F7
:1013F000E90981E08093240108955F926F927F92C2
:101400008F929F92AF92BF92CF92DF92EF92FF9214
:101410000F931F93CF93DF938C017B011092E10117
:10142000873F2CE5920741F4FB01C281CC23C9F030
:1014300081E0809324010AC1883FFCE59F0739F4CD
:10144000FB01C281CC2369F00E94E909FFC0893FFA
:101450009C4539F4FB01C281CC2319F00E94F409A8
:10146000F5C080912401882309F4EFC01092E201B5
:10147000AA24A394B12C95E0992EC1E0D0E0882451
:1014800083948091E201823008F0A1C0C82ED12C53
:101490009C9CF0019D9CF00D1124E65EFE4F408166
:1014A000518177247A9490E0FA01E90FF11DE90F58
:1014B000F11D259134910217130709F4792E232B7E
:1014C00011F09F5FF1CFFFEF7F1202C0612C66C069
:1014D0005090E001F7016280662069F19C9CF00168
:1014E0009D9CF00D1124E65EFE4F9E0101C0220F6F
:1014F0007A94EAF73481232B2483552039F3AE0103
:1015000002C0440F551F9A95E2F74150510930E04F
:101510004217530709F042C022813381211531055A
:1015200021F0C9010E947A0503C061E00E941605FE
:101530008092E10133C09E0102C0220F331F9A95B1
:10154000E2F7215031099C9CF0019D9CF00D112483
:10155000E65EFE4F448150E02417350769F422818E
:1015600033812115310521F0C9010E94900505C084
:1015700060E00E94160501C0512C9C9CF0019D9CCE
:10158000F00D1124E65EFE4FCE0101C0880F7A9463
:10159000EAF78095948189238483652CB628AA2054
:1015A00069F09C9CF0019D9CF00D1124E65EFE4FBD
:1015B00091E08481811190E0892F01C080E08170E9
:1015C000A82E8091E2018F5F8093E2015ACF809133
:1015D000E101882351F00E94AF219093E4018093B0
:1015E000E30180E00E94B0092CC0B1100DC081E081
:1015F0000E94B009AA2029F11092E4011092E3019F
:1016000081E08093E0011DC0F70182818823C9F049
:101610008091E0018823A9F00E94AF219093E4011A
:101620008093E301E091DF01E83058F481E08E0F10
:101630008093DF01F0E0EE0FFF1FE153FE4F1183B7
:10164000008381E0CB2DC82701C0C1E08C2FDF9142
:10165000CF911F910F91FF90EF90DF90CF90BF90AF
:10166000AF909F908F907F906F905F900895EF92D2
:10167000FF920F931F93CF93DF93F62E472FE82F00
:10168000F0E0711106C0EA5EF84F6491762F862F64
:1016900072C0272F30E0EA5EF84FE4910E2F10E081
:1016A00056E0659FC0011124CFEFD0E0BE010E943B
:1016B000382F5BEA5603C001579F900D11248F0D00
:1016C000911D8F0D911D982F990F890F7E01E21AA0
:1016D000F30AE09ED001E19EB00DF09EB00D112402
:1016E000489FA0011124452F55277E01E41AF50AD1
:1016F000E09EA001E19E500DF09E500D11247E0150
:10170000E81AF108E29EC001E39E900DF29E900D52
:101710001124892F9927C81BD90BC09FC001C19FD5
:10172000900DD09F900D11246230710591F048F416
:1017300061157105E1F061307105A9F48B2F752FEA
:1017400019C06430710561F038F06630710579F0C8
:101750000AC0892F7B2F0EC08E2F7B2FE52F0AC04A
:101760008E2F792F02C0852F7E2FEB2F03C08B2F5A
:101770007E2FE92F6E2FDF91CF911F910F91FF9058
:10178000EF9008950895CF93DF93762FE901682FA6
:10179000842F0E94370B798368838A83DF91CF91EE
:1017A00008958091D002282F269530E0211531052B
:1017B00019F48170826005C02331310524F08170F5
:1017C00084628093D002089588E090E00C947B2F8F
:1017D000CF92DF92EF92FF926B017C010E94D10BBE
:1017E000B701A60188E090E0FF90EF90DF90CF90E6
:1017F0000C94992FE0EDF2E083E0808311828FEF6B
:1018000082838383148260817181828193810C94AD
:10181000E80B8091D00280FF02C08695089580E099
:1018200008958091D402833018F48F5F8093D4029E
:101830006091D0027091D1028091D2029091D30236
:101840000C94E80B8091D402882319F08150809386
:10185000D4026091D0027091D1028091D202909115
:10186000D3020C94E80B6091270170E08091D002C4
:1018700080FF0AC08091E60123E0829FC00111240D
:101880008B529D4F0C943C118091E5019091260163
:10189000891780F7E82FF0E09F01220F331FE20F36
:1018A000F31FEB52FD4F1182108212828F5FF0CF37
:1018B0009091D00290FF16C09091E50120912601F1
:1018C000921770F4E92FF0E0DF01AA0FBB1FEA0FB7
:1018D000FB1FEB52FD4F8183608342839F5FF0CFFC
:1018E0000C94330C0895CF93DF9300D01F92CDB7A3
:1018F000DEB79091D00290FF0AC09E012F5F3F4F4C
:101900000E94C30B4B8169818A810E94580C0F9001
:101910000F900F90DF91CF910895CF93DF93EC015B
:101920006C8170E080E090E00E94392D20E030E092
:101930004FE753E40E945C2C2BED3FE049E450E478
:101940000E94622E0E94CF2E0E94D62C2BE43AE3F6
:101950004EE25FE30E94EF2B20EF3BEF48ED52E4B5
:101960000E94622E0E94082D462FE0EDF2E0628177
:1019700081810E94730C8C818F5F8C83DF91CF916A
:101980000895CF93DF93EC01E0EDF2E043816281B3
:101990008C810E94730C8C818F5F8C83DF91CF913F
:1019A0000895AF92BF92CF92DF92EF92FF920F9382
:1019B0001F93CF93DF9300D01F92CDB7DEB7182FC0
:1019C000F62E042FE22E8091D00280FF6BC0E82F0C
:1019D000E695AE2FB0E0A957BE4F9C919093EE01D3
:1019E0008E7F823061F49E012F5F3F4F812F0E94D6
:1019F000C30B4B8169818A810E94580C41C092308F
:101A000019F40091D3023CC0963019F41091D10220
:101A100037C09930A9F5E9508E2F8170D82EE69500
:101A2000F0E0EF5EF84FA590B490C12CBB2460911C
:101A30002501C61618F52C2D30E0A29EC001A39EEC
:101A4000900DB29E900D112470E00E94382F812FCE
:101A5000D11002C0860F01C0861B9091E501290FAD
:101A6000311DA901440F551F240F351F2B523D4F27
:101A7000402F6F2D0E94C30BC394D9CF0E94330C0B
:101A80001093D102F092D2020093D302EE2051F0D3
:101A90006091D0027091D1028091D2029091D302D4
:101AA0000E94E80B0F900F900F90DF91CF911F9144
:101AB0000F91FF90EF90DF90CF90BF90AF9008957F
:101AC000E0EDF2E09181282F4381628180E1890F6E
:101AD0000C94D10C81E00C94600DE0EDF2E091816A
:101AE000282F4381628180EF890F0C94D10C81E013
:101AF0000C946D0DE0EDF2E0628120E1620F08F4DC
:101B00006FEF282F438181810C94D10C81E00C94DC
:101B10007A0DE0EDF2E0628120E1621B08F460E002
:101B2000282F438181810C94D10C81E00C94890D84
:101B3000E0EDF2E0438120E1420F08F44FEF282F5F
:101B4000628181810C94D10C81E00C94980DE0EDC0
:101B5000F2E0438120E1421B08F440E0282F62813B
:101B600081810C94D10C81E00C94A70D20E00C94A1
:101B7000D10CE0EDF2E080818E7F80836081718105
:101B8000828193810E94E80B1092EF012FEF80E792
:101B900092E0215080409040E1F700C000000C949A
:101BA000330CE0EDF2E080818E7F80831092EF01B4
:101BB0002FEF80E792E0215080409040E1F700C095
:101BC00000000C94330C6091D002669570E04BE0FD
:101BD00050E088E291E00E94662F892B19F481E0A1
:101BE0008093EF010E94AF219093E8018093E70179
:101BF00008959091D00290FF35C09170811102C07C
:101C0000926006C0833110F0946202C0880F982B56
:101C10009093D002662351F06091D0027091D1026E
:101C20008091D2029091D3020E94E80B6091D00281
:101C3000669570E04BE050E088E291E00E94662FEC
:101C4000892B19F01092EF0102C00E94E30D81E090
:101C50008093EA014091D3026091D2028091D10237
:101C60000C94B60D0895682F9091D002969581E05E
:101C7000890F833108F081E00C94F90D81E00C9418
:101C8000330E682F9091D00296958FEF890F09F44B
:101C900082E10C94F90D81E00C94410E61E00C940A
:101CA000F90DE0EDF2E080818160808386950C94EF
:101CB0004E0E8091D00280FD0C94B90D0C94510E03
:101CC00060E00C94F90D8091ED0181112EC00E940D
:101CD000A21F811104C00E9447200E94FA0B0E949B
:101CE000E40B6093D0027093D1028093D202909360
:101CF000D3026E7F61F40E94FA0B0E94E40B6093A2
:101D0000D0027093D1028093D2029093D3020E94AA
:101D1000D10B1092EF018091D00280FF03C0869515
:101D20000E94600E81E08093ED010895E0EDF2E005
:101D300080818160808386950C94600E1092EF0103
:101D400008950F931F93CF93DF938091EF01882322
:101D500009F452C08091EE01E091D002E695E81BB3
:101D6000E093E901823049F4F0E0E35FF84FE49159
:101D7000CE2FD0E00DE81CE00FC0863049F4F0E033
:101D8000E65FF84FE491CE2FD0E001EC1CE004C0F8
:101D9000C0EDD7E002EC1BE08091EA01882389F0D6
:101DA0001092EA010E94AF219E0120953095820F8A
:101DB000931F9093E8018093E7011092EC01109239
:101DC000EB018091E7019091E8010E94BB218C1703
:101DD0009D0790F0E091E701F091E801CE0FDF1F41
:101DE000D093E801C093E70187EE91E0F801DF911D
:101DF000CF911F910F910994DF91CF911F910F9176
:101E00000895882311F0FA0101C0FB010994CF93D2
:101E1000DF93C82FD62F0E94090C8C1740F00E9428
:101E2000090C8D1720F4DF91CF910C943E0E8C2F6E
:101E3000DF91CF910C944E0E0F931F93CF93FB0124
:101E4000C281CC2309F455C08C010E94B11E82725C
:101E5000F801E25CFC45E431F10508F04DC0EA5AB6
:101E6000FF4F0C94602F0E94590E45C04BE45EE07A
:101E70006EE37EE02CC04EE35EE06BE47EE027C0C4
:101E800047E75DE06AE67DE022C04AE65DE067E79D
:101E90007DE01DC045E95DE066E87DE018C046E8EC
:101EA0005DE065E97DE013C043EB5DE064EA7DE061
:101EB0000EC044EA5DE063EB7DE009C042E25CE015
:101EC00061E17CE004C041E15CE062E27CE00E9410
:101ED000010F11C081E00E944E0E0DC065E082E04E
:101EE00005C068E086E002C062E189E00E94070F59
:101EF00002C0C1E001C0C0E08C2FCF911F910F91B3
:101F00000895CF93DF93EC0181E0898B8F810E944C
:101F1000B41E88850E94C71E0E94111FEA81FB81A2
:101F2000CE010696309729F06C897D89DF91CF919B
:101F30000994DF91CF910895CF93DF93FC01208125
:101F4000223041F4FB01EC01828193810E947A05E9
:101F500081E08B87DF91CF910895FC0180818130F2
:101F600021F4FB018081918105C0823029F4FB01BD
:101F7000828193810C947A050895FC0180818130DF
:101F800021F4FB018081918105C0823029F4FB019D
:101F9000828193810C9490050895EF92FF920F93A4
:101FA0001F93CF93DF93FC012285211136C0EC01F2
:101FB000E380F480F7E5FF1A26E12E9DC0012F9DF6
:101FC000900D1124DC01A050BF4F1496ED91FC91AF
:101FD00015978A5F9E4F309729F054966D917C91AA
:101FE0005597099586E18E9D80018F9D100D1124D6
:101FF00000501F4FF80187810E94BA1EF8018085AA
:102000000E94CD1E0E94111F188219861B861E82F7
:102010001D821092F1011092F001DF91CF911F917A
:102020000F91FF90EF900895DF92EF92FF920F9340
:102030001F93CF93DF93FB0122812223A1F12091F3
:1020400033012F3F81F18C01C0E0D1E0E12CF12C74
:10205000DD24D39480913301082E000C990B8E154A
:102060009F050CF18E818823C9F089859A85801798
:10207000910739F48091F0019091F1010817190747
:1020800069F0DF861C870B878989811103C0CE0127
:102090000E94810FCE0106960E94CD0FFFEFEF1A2E
:1020A000FF0A6696D7CFDF91CF911F910F91FF90D6
:1020B000EF90DF900895EF92FF920F931F93CF93CD
:1020C000DF939C0137552F3F310511F008F047C0D1
:1020D00040913301042E000C550B4217530714F4A2
:1020E00020933301FB017C01828196E1929F800164
:1020F000939F100D1124E801C050DF4F888B92810F
:102100008E81992311F1FA86E9868F5F8E830E9472
:10211000AF219E878D870E94E71E8F830E94B11E8C
:1021200088870E94C41E9885892B8887E881F98159
:10213000C8018A5F9E4F309719F06C897D89099597
:10214000F092F101E092F0010AC0882341F0898900
:10215000882329F0C8018A5F9E4F0E94CD0F81E03D
:10216000DF91CF911F910F91FF90EF900895CF9243
:10217000DF92EF92FF920F931F93CF93DF938091A3
:1021800033018F3FF1F1F12C96E1E92E0F2D10E094
:1021900080913301082E000C990B801791078CF168
:1021A000E09EF001E19EF00D1124E050FF4FC28847
:1021B000D388C114D10419F484E6C82ED12CE09E32
:1021C000E001E19ED00D1124C050DF4F8E818823A5
:1021D000B1F08D859E850E94BB21C816D90678F482
:1021E0008989811103C0CE010E94810FE09EC00148
:1021F000E19E900D11248A5F9E4F0E94CD0FF394B3
:10220000C5CFDF91CF911F910F91FF90EF90DF909D
:10221000CF9008952BB1342F309523233BB1432B1E
:102220003FB7F894FC01680F791FE617F70789F0AC
:10223000819198E04BB9000000C087FF2BB9880F4F
:10224000000000C000C000C02BB900C09A9591F7F3
:10225000ECCF3FBF08952AB1242B2AB99B01220F4E
:10226000331F620F731F0E940A1187EC90E00197E1
:10227000F1F700C00000089548E00C942B110F9373
:102280001F93CF93DF93C62FD42F122FFC0182818F
:102290008823C9F06093F4010E94AF219093F30169
:1022A0008093F20180E28C0F883008F057C0C7702D
:1022B00081E001C0880FCA95EAF7DF91CF911F91A5
:1022C0000F910C945F158091F401681330C08091D8
:1022D000F2019091F3010E94BB218436910538F5FB
:1022E00000E20D0FCD17B9F080E28C0F883040F47A
:1022F000C77081E001C0880FCA95EAF70E94661591
:10230000083028F581E09D2F977001C0880F9A95BD
:10231000EAF70E945F15812F0E944C150830F0F4F7
:10232000D77081E001C0880FDA95EAF70AC080E231
:102330008C0F883098F4C77081E001C0880FCA956F
:10234000EAF7DF91CF911F910F910C946615812FC1
:10235000DF91CF911F910F910C944C15DF91CF918C
:102360001F910F9108959C01CB01233F4CE5340749
:10237000F9F078F4283DFCE53F07B9F0293D4CE53C
:10238000340711F1273D3C4531F526E241EE61EE7F
:102390001EC0253FFCE53F0799F070F0263F3C4505
:1023A000D1F427E245EE66EE12C027E245EE0EC0FC
:1023B00026E241EE60EE0BC027E245EE64EE07C078
:1023C00026E241EE62EE03C028E241E065EE0E94A3
:1023D0003F1180E00895FC018281882319F010925A
:1023E000F401089581E00895CF93DF93EC01FB01A0
:1023F0008281882309F41FC1C230FCE5DF0708F49D
:102400001BC1C6319CE5D90738F09E012A5F3C45C7
:102410002930310508F010C10E94BA1F9093FD02C7
:102420008093FC02C031ECE5DE0709F4C3C008F07C
:1024300041C0C8308CE5D80709F49AC0F0F4C43024
:10244000ECE5DE0709F487C068F4C2308CE5D807F4
:1024500009F477C0C330DC4509F0E3C08091FC0289
:10246000826076C0C630ECE5DE0709F46EC008F085
:102470007BC08091FC0288606BC0CC308CE5D807B3
:1024800009F485C068F4CA30ECE5DE0709F474C0CD
:1024900008F079C00E9441188091FC02806858C001
:1024A000CE308CE5D80709F476C008F07FC0809163
:1024B000FC028BC0CB3FECE5DE0709F44FC018F5FA
:1024C000C3318CE5D80709F47DC078F4C131ECE55F
:1024D000DE0709F473C0C231DC4509F0A2C00E94D6
:1024E00041188091FC028F7733C0C5318CE5D80745
:1024F00009F472C008F486C0CA3FDC4509F091C0F7
:102500008091FD023EC0CF3FFCE5DF0709F45FC0CC
:1025100058F4CD3F9CE5D90709F444C008F43FC006
:102520008091FD0282602DC0C130FDE5DF0709F416
:1025300075C008F45DC0C230DD4509F072C080E0AE
:102540006EC08091FC02816003C08091FC028061BA
:102550008093FC0266C08091FC0211C08091FD0254
:1025600082608093FD025DC08091FC028062F0CFAA
:102570008091FC028064ECCF8091FC0288608460D2
:10258000E7CF8160EECF8091FC028E7FE1CF80911A
:10259000FC028D7FDDCF8091FC02877FD9CF8091B7
:1025A000FD0218C08091FD028D7FDBCF8091FC027F
:1025B0008F7ECECF8091FC028F7DCACF8091FC02AE
:1025C0008F7BC6CF8091FC02877F8B7FC1CF8091AC
:1025D000FD028D7F8E7FC5CF8091FC0282FB22277A
:1025E00020F991E0922790FB82F990FB83F9B0CF1C
:1025F0008091FD02982F909591708E7F892B90FB92
:1026000081F9AFCF0E9441188091FC0287FB2227FD
:1026100020F991E0922790FB87F99ACF81E00E9400
:1026200049208091FC029091FD020E94CB1F0E94E4
:10263000411880E001C081E0DF91CF910895CF93F0
:10264000DF9386319C4571F5EB010E94B11E982FF6
:10265000917119F4982F9A7A01C090E08A812091A3
:10266000340130913501882379F081E0911101C066
:1026700080E08093F501911102C069E201C065E339
:10268000C9010E94E4200AC08091F501811102C0B5
:1026900069E201C065E3C9010E94EF200E94111F99
:1026A00080E001C081E0DF91CF9108959093FB011C
:1026B0008093FA010895E091FA01F091FB013097BF
:1026C00021F00190F081E02D099480E00895E091DF
:1026D000FA01F091FB01309799F0209148012223F3
:1026E00059F02091FC0227FF07C0DC012C911196C4
:1026F0002C93119725E02C930280F381E02D09940F
:102700000895E091FA01F091FB01309739F022E051
:10271000DC012C930480F581E02D0994089520912B
:10272000F8013091F9012817390771F09093F901F8
:102730008093F801E091FA01F091FB01309721F0CC
:102740000680F781E02D099408952091F6013091DB
:10275000F7012817390771F09093F7018093F6017C
:10276000E091FA01F091FB01309721F00084F185AE
:10277000E02D0994089585B7806885BF85B7806886
:1027800085BF089508950C94C2130C94C3130C9440
:10279000C2130C94C2130E94BB130E94C7130C9463
:1027A000C51381E008950E94A6210E9497080E9407
:1027B00035220E94630EECEFF2E080818068808316
:1027C0008091FC029091FD020E94CB1F0C94C913D2
:1027D000AF92BF92CF92DF92EF92FF920F931F932F
:1027E000CF93DF93CDB7DEB72A970FB6F894DEBF4D
:1027F0000FBECDBF0E94E7080E94D113811111C006
:102800008FEF89838A831B820E94AF218160782F9A
:102810009D838C8349815A816B818D810E948214B2
:1028200040C08DEFA82E81E0B82E00E010E0C02E51
:10283000802F0E948308E82EF501D1905F01D826F1
:1028400031F40F5F1F4F0730110589F7D9CF809101
:102850008D0281FD0E94890880E0FF24F3949D2D64
:102860009F21D1F08E83CF82EF2081E009F480E0B8
:1028700088870E94AF218160782F9A8789874E814F
:102880005F8168858A850E948214F801E350FE4FBB
:102890008081F826F08205C08F5FFF0C8630F9F644
:1028A000D0CF0E94A10E0E94C7230E945B1390917B
:1028B000FC018917B1F00E945B138093FC012A96FA
:1028C0000FB6F894DEBF0FBECDBFDF91CF911F9141
:1028D0000F91FF90EF90DF90CF90BF90AF900C944E
:1028E00004062A960FB6F894DEBF0FBECDBFDF9167
:1028F000CF911F910F91FF90EF90DF90CF90BF90FD
:10290000AF900895CF93DF93CDB7DEB72B970FB677
:10291000F894DEBF0FBECDBF4F83588769877A8793
:102920008B87DE01119686E0FD0111928A95E9F709
:1029300085E0FE01379601900D928A95E1F70E949D
:102940007F1E882319F082E00E94831F0E94521E7E
:1029500081110E94031F49815A816B817C818D8185
:102960009E810E944B1B2B960FB6F894DEBF0FBEC4
:10297000CDBFDF91CF910895FC01808191810E94AC
:10298000211E0895CF93882309F450C0C82F8CEFDF
:102990008C0F813AD0F46C2F8091340190913501E5
:1029A0000E946420882349F06C2F8091340190911B
:1029B00035010E94EF200E94111F6C2F809134017D
:1029C000909135010E94E4200CC080E28C0F883089
:1029D00058F4C77081E001C0880FCA95EAF70E94D9
:1029E000B41ECF910C94111FEBE5EC0FE33040F4D3
:1029F000F0E0E853FE4F808190E0CF910C948F136C
:102A0000E8E5EC0FE73150F4F0E0EE0FFF1FE6567B
:102A1000FE4F80819181CF910C94A513C03F30F07F
:102A20008C2F0E94CF22CF910C94BC23CF9108957C
:102A3000882389F19CEF980F913A40F4682F809198
:102A40003401909135010E94EF200DC090E2980F63
:102A5000983058F4877091E001C0990F8A95EAF791
:102A6000892F0E94BA1E0C94111F9BE5980F93307A
:102A700020F480E090E00C948F1398E5980F973144
:102A800020F480E090E00C94A513803F20F00E9499
:102A900037230C94BC230895CF93C82F0E94C214EF
:102AA000C93349F42FEF87EE93E0215080409040E6
:102AB000E1F700C000008C2FCF910C9418158823EB
:102AC00021F00E94B41E0C94111F0895882321F058
:102AD0000E94BA1E0C94111F0895CF92DF92EF92BC
:102AE000FF920F931F93CF93DF937C01062FC72F85
:102AF000FC01D581D295DF70128111110E94D41E84
:102B00000E94AA1E882379F0112369F080E2800FC9
:102B1000883048F082E00E94831F0E94AA1E91E044
:102B2000D82ED92601C0D12CCC2EC2948FE0C82239
:102B30008C2D90E0FC01E659FF4F0C94602F8C2FF8
:102B4000807FCF70882311F0C295C07F112399F048
:102B5000CC2309F4ECC180E2800F883010F0011121
:102B600004C08C2F0E94B41E03C08C2F0E94C71E6D
:102B70000E94111FDCC1802F0E941815CC2309F47C
:102B8000FCC180E2800F883010F0011104C08C2F4E
:102B90000E94BA1E03C08C2F0E94CD1E0E94111FDE
:102BA000ECC18C2F807FCF70803211F0C295C07F36
:102BB000002319F0013059F134C01123B1F0DD23A5
:102BC00081F0D13031F40E94E71E8C2B0E94EF1E61
:102BD000D4C1D33031F40E94031F8C2F0E944F1FA9
:102BE00024C00E94E71E8C2B21C0DD2369F0D13068
:102BF00041F40E94B11E8C2309F4BFC10E94581FEA
:102C000003C0D33009F4B9C10E94031F1FC01123B0
:102C100021F0D43008F0B1C108C0D33008F0ADC104
:102C200015C0112331F0D11182C18C2F0E945F1584
:102C3000A4C1DD2359F0093309F08BC1FFEF27EE62
:102C400083E0F15020408040E1F781C18C2F0E9449
:102C5000661593C18C2F86958695837019F0813007
:102C600061F08BC1112321F0802F9C2F937002C043
:102C700080E090E00E948F1388C1112321F0802F03
:102C80009C2F937002C080E090E00E94A5137DC14C
:102C90001123F9F0053F51F0063F71F0043FA9F40C
:102CA0008091F6029091F70281600BC08091F6024C
:102CB0009091F702826005C08091F6029091F70230
:102CC00084609093F7028093F602802F0E94CF22B7
:102CD0001EC0053F51F0063F71F0043FA9F48091FA
:102CE000F6029091F7028E7F0BC08091F6029091D0
:102CF000F7028D7F05C08091F6029091F7028B7FDD
:102D00009093F7028093F602802F0E9437230E944F
:102D1000BC233BC18C2F837009F045C0111131C118
:102D2000402F429546954770440F440F602F6F70B7
:102D3000862F90E0A0E0B0E0042E04C0880F991F19
:102D4000AA1FBB1F0A94D2F704FF10C00FE010E0C7
:102D500020E030E004C0000F111F221F331F4A95EE
:102D6000D2F7009510952095309503C000E010E053
:102D70009801C695C695C370BC01CD01602B712B1F
:102D8000822B932BC23049F058F4C13019F00E94C5
:102D90009C1CF7C00E948A1CF4C00E94AE1CF1C0AB
:102DA0000E94881CEEC0112319F08C2F817001C085
:102DB0008695882309F4E5C0402F429546954770D3
:102DC000440F440F602F6F70862F90E0A0E0B0E0BA
:102DD000042E04C0880F991FAA1FBB1F0A94D2F7A4
:102DE00004FF10C00FE010E020E030E004C0000F4E
:102DF000111F221F331F4A95D2F700951095209579
:102E0000309503C000E010E09801C695C695C370E8
:102E1000BC01CD01602B712B822B932BC23049F06A
:102E200058F4C13019F00E94611DABC00E944F1DC3
:102E3000A8C00E94731DA5C00E94C21CA2C0CF7072
:102E4000112339F08C2F0E94E81C802F0E945F15FF
:102E500098C0802F0E9466158C2F0E94091D91C07A
:102E6000023F01F128F4003F41F0013FA1F05AC0B8
:102E7000033FF9F0043F39F155C0112341F0D3303D
:102E800008F07BC08C2F8F710E942E1D76C0D4302D
:102E900008F073C0F7CF112339F08C2F8F710E9487
:102EA000E81C6BC01123C9F38C2F8F710E94091D80
:102EB00064C0112329F08C2F8F710E94D31C5DC038
:102EC0000E94CE1C5AC01123C9F00E944F1E0E94BE
:102ED000BA1E0E947B1E843039F40E947A1F8C2F08
:102EE0008F710E94091D6CC0D33008F069C0CF718A
:102EF0008C2F0E94E81C63E08C2F0DC00E944F1E97
:102F00000E94B41ED33050F00E947A1F0E94581FB6
:102F100064E08C2F8F710E94641F52C081E00E9478
:102F2000831F4EC0112339F0DD2309F4B6CF802F63
:102F30000E94C21422C0DD2309F4B6CF093349F43C
:102F40009FEFE7EEF3E09150E040F040E1F700C082
:102F50000000802F0E94181510C04C2F4F70602F5A
:102F6000C7010E9475060E94F91B0FC04C2F4F70BD
:102F7000602FC7010E94780608C088EF8C0D84304E
:102F800020F40E945B130E940406DD20D9F00E9409
:102F90007B1E80FD17C0F70112820E94751E0E94E1
:102FA000E81CC7010E94EB170E94751EDF91CF91AC
:102FB0001F910F91FF90EF90DF90CF900C94091D1F
:102FC000D12CDFCFDF91CF911F910F91FF90EF9028
:102FD000DF90CF9008950F931F93CF93DF93EC0171
:102FE000988189812B813C81232B31F08F3F31F4F3
:102FF00081E09F3F19F403C081E001C080E080FDC3
:1030000013C0CE010E942306882371F06881798164
:103010008A810E942C1E8C010E94851D0E94761CB4
:10302000B801CE010E946D15DF91CF911F910F91D4
:103030000895882321F00E94C71E0C94111F089543
:10304000882321F00E94CD1E0C94111F08950E9428
:10305000D41E0E94E41E0E94111F0E94E6240E94BA
:10306000BC2380E090E00E948F1380E090E00C94FD
:10307000A51380913401909135010E94FA200C949F
:1030800027180E94C11E0C943918E92FE295EF70A1
:103090004E2F50E0FA013297EE30F105B0F4E658C9
:1030A000FF4F0C94602F803F91F018F4883E68F435
:1030B0000EC0843F51F40BC0883E48F0813F29F494
:1030C00006C093FB882780F9089580E0089581E089
:1030D00008950E94211E0E9445180895CF93DF9302
:1030E00000D000D01F92CDB7DEB70F900F900F9099
:1030F0000F900F90DF91CF910895CF93DF9300D081
:1031000000D000D0CDB7DEB726960FB6F894DEBF5C
:103110000FBECDBFDF91CF9108951F93CF93DF9363
:10312000C091050216E080910602C81799F0D0E020
:103130001C9FF0011D9FF00D1124E95FFD4F4081A0
:10314000518162817381848195810E947D182196CD
:10315000C770E9CFDF91CF911F9108954091370259
:10316000509138026091390270913A0280913B028D
:1031700090913C020C947D182091050290910602DA
:1031800056E02917A9F030E0529FF001539FF00D4F
:103190001124E95FFD4F7181761306C070817813A9
:1031A00003C07281741306C02F5F3F4F2770E9CFB1
:1031B00080E0089581E00895CF9380913C0282954C
:1031C0008F7009F05FC080913902882309F45AC0DA
:1031D00080910502B091060270913702A0913802E9
:1031E00040913A0250913B0291E07F3F09F090E01C
:1031F000692FC6E08B1709F445C04115510521F030
:10320000AF3F21F020E003C021E001C0262F90E075
:1032100020FD35C0C89FF001C99FF00D1124E95F62
:10322000FD4F21812A132BC02081271328C0228122
:10323000211125C0238134812417350710F4215032
:103240003109241B350B24363105C8F420913C028A
:103250002F70206120933C0226E0289FF001299FD7
:10326000F00D1124E45FFD4F80818F7080618083B9
:1032700087E392E00E94EB17CF910C948D18019692
:103280008770B8CFCF9108959F92AF92BF92CF929F
:10329000DF92EF92FF920F931F93CF93DF93CDB7FF
:1032A000DEB761970FB6F894DEBF0FBECDBF7C01CD
:1032B00085E0F701DE011D9601900D928A95E1F7F8
:1032C000D701DC9011960C9111971296CC90309109
:1032D00037024091380280913A0290913B02009768
:1032E00031F04F3F31F421E03F3F19F403C021E0BA
:1032F00001C020E020FD9FC1F701A380B480909021
:103300003902992009F42BC120913C02A816B90674
:1033100028F0B501681B790BCB0104C0809590950E
:103320008A0D9B1D11E08436910590F010E0207FFE
:1033300009F0DBC07A2DB98AA88A4D2D502F6C2D4B
:1033400089890E946E1887E392E00E94EB176BC197
:10335000822F807F09F091C0041315C0D31213C0CF
:103360001C2DC11010C02F70206120933C020E94C0
:10337000AE1887E392E00E94EB1780913C02D701E0
:1033800015968C9375C1A114B10439F00F3F39F42F
:1033900081E0BFEFDB1203C003C081E001C080E029
:1033A00080FD03C081E08C2502C080E090E080FFBA
:1033B00015C04C2D602F8D2D0E94BC18882371F0F4
:1033C00087E392E00E94EB17E7E3F2E086E0DF019B
:1033D0001D928A95E9F70E94AE184DC0AB2839F0CE
:1033E0000F3F39F481E0BFEFDB1203C003C081E07F
:1033F00001C080E080FD03C081E08C2502C080E038
:1034000090E0E82FE170BE2E80FF2CC04C2D602F85
:103410008D2D0E94BC18182F811124C0DD860E87C7
:103420008D859E850E94211E292F22952F70223086
:1034300018F0243090F405C09F7059F0811109C034
:1034400017C19F7031F0D70115969C91907F09F4B8
:103450000FC1805E883008F40BC1C7010E94EB17D2
:103460001B2D06C11C2DCC2009F402C180913C0209
:10347000816080933C0210E0FBC0041309C0D312AA
:1034800007C0C11005C080913C02F7018583A5C02B
:10349000DD860E878D859E850E946918882379F1C7
:1034A000CC2069F120913C02822F82958F7090E0B0
:1034B000029774F0809137029091380298878F8339
:1034C0001986BB86AA862C87CE0107960E94EB1729
:1034D00086E0F701A7E3B2E001900D928A95E1F74B
:1034E0000E94DC180E94AE180DC0041769F0DD863A
:1034F0000E878D859E850E946918811119C0C701AC
:103500000E94EB1711E0B4C0D312F1CFC110EFCF7E
:1035100080913C02F7018583C7010E94EB1786E08A
:10352000E7E3F2E0DF011D928A95E9F7192DA0C0CB
:10353000CC2029F320913C02822F82958F7090E05D
:10354000029734F280913702909138029A838983EE
:103550001B82BD82AC822E83CE010196B7CFA81606
:10356000B90628F0F501E81BF90BCF0104C08095DE
:1035700090958A0D9B1D8436910558F010E07A2DA8
:10358000B98AA88A4D2D502F6C2D89890E946E18FA
:103590004AC01C2DCC2009F4B2CF041333C0D3127F
:1035A00031C020913C0220FD24C0822F82958F7073
:1035B000482F50E041155105E1F0D70115962C93A5
:1035C00015974F30510549F08F5F982F9295907F56
:1035D000822F8F70892B15968C93C7010E94EB1751
:1035E00086E0F701A7E3B2E001900D928A95E1F73A
:1035F0003DC086E0F701A7E3B2E001900D928A9505
:10360000E1F736C0DD860E878D859E850E9469189C
:1036100081115ECF80913C02816080933C02C701A2
:103620000E94EB1725C0E7E3F2E086E0DF011D9280
:103630008A95E9F71BC0CC2009F461CFDD860E879F
:103640008D859E850E946918182F882309F457CF0D
:1036500086E0F701A7E3B2E001900D928A95E1F7C9
:1036600087E392E00E94BC140E94DC180E94AE180E
:10367000812F61960FB6F894DEBF0FBECDBFDF91EC
:10368000CF911F910F91FF90EF90DF90CF90BF905F
:10369000AF909F9008951F93CF93DF93CDB7DEB780
:1036A0002C970FB6F894DEBF0FBECDBF4F8358875F
:1036B00069877A878B879C87CE0107960E94441979
:1036C0008823D1F09F8188852A853B85232B31F083
:1036D0008F3F31F481E09F3F19F403C081E001C0C6
:1036E00080E080FD47C04F81588569857A858B854C
:1036F0009C850E947D183EC086E0FE013796DE0163
:10370000119601900D928A95E1F7FF81E8856A850F
:103710007B856115710531F0EF3F31F481E0FF3FAA
:1037200019F403C081E001C080E080FD23C0209136
:10373000060230E0C9010196877099274091050281
:1037400050E084179507F1F1F983EA837D836C8358
:1037500096E0929FD001939FB00D1124A95FBD4FB9
:10376000FE01319601900D929A95E1F78093060241
:103770000E948D1816E0809105029091060289172B
:1037800071F1189FC0011124895F9D4F0E94441957
:10379000882329F1E09105021E9FF0011124E95FC1
:1037A000FD4F4081518162817381848195810E94A6
:1037B0007D188091050290E001968770992780938B
:1037C0000502D9CF0E9441181092060210920502FC
:1037D000E7E3F2E086E0DF011D928A95E9F72C9697
:1037E0000FB6F894DEBF0FBECDBFDF91CF911F9112
:1037F0000895EF92FF920F931F93CF93DF938C0165
:10380000892B09F46CC0F12CEE24E394E801219695
:10381000F8018491843740F4843008F051C081303D
:1038200081F0823019F15BC0853709F444C0A8F1FA
:103830009CE7980F903708F052C08F770E941815B8
:1038400041C00E5F1F4FFE01849190E2980F9830A7
:1038500050F48770FE2D01C0FF0F8A95EAF78F2F75
:103860000E94D71E14C00E94C2142DC00E5F1F4FAD
:10387000FE01849190E2980F983060F48770FE2DDD
:1038800001C0FF0F8A95EAF78F2F0E94DD1E0E946C
:10389000111F19C00E94181516C00E5F1F4FFE01A0
:1038A000C491CC2381F08FE99FE00197F1F700C02C
:1038B0000000C150F6CF0E5F1F4FFE01F49003C011
:1038C0000E94C2148E018F2D882309F49FCFEFE947
:1038D000FFE03197F1F700C000008150F5CFDF9194
:1038E000CF911F910F91FF90EF9008950895089543
:1038F0000C94771C0C94781C0E947A1C60935F02D5
:103900007093600280936102909362020C94271876
:103910000C947C1C0F931F9300915F021091600226
:103920002091610230916202602B712B822B932BCC
:103930001F910F910C947C1C0F931F9300915F02B9
:103940001091600220916102309162026023712324
:10395000822393231F910F910C947C1C0F931F9330
:1039600000915F0210916002209161023091620229
:1039700060277127822793271F910F910C947C1C3D
:103980000C94771C0E94C01C60935B0270935C02D5
:1039900080935D0290935E020C94271860E070E0C3
:1039A000CB010C94C21C0F931F9341E050E060E0E8
:1039B00070E08A019B0104C0000F111F221F331FFA
:1039C0008A95D2F7C901B8011F910F910C94C21CBE
:1039D0000F931F9341E050E060E070E004C0440F9B
:1039E000551F661F771F8A95D2F780915B029091D1
:1039F0005C02A0915D02B0915E028A019B01082BDE
:103A0000192B2A2B3B2BC901B8011F910F910C9444
:103A1000C21C0F931F9341E050E060E070E004C0CF
:103A2000440F551F661F771F8A95D2F74095509512
:103A30006095709580915B0290915C02A0915D020F
:103A4000B0915E028A019B01082319232A233B239C
:103A5000C901B8011F910F910C94C21C0F931F93C1
:103A600041E050E060E070E004C0440F551F661F65
:103A7000771F8A95D2F780915B0290915C02A091AA
:103A80005D02B0915E028A019B01082719272A274F
:103A90003B27C901B8011F910F910C94C21C0F93D1
:103AA0001F9300915B0210915C0220915D023091A6
:103AB0005E02602B712B822B932B1F910F910C9424
:103AC000C21C0F931F9300915B0210915C02209126
:103AD0005D0230915E0260237123822393231F9144
:103AE0000F910C94C21C0F931F9300915B021091D5
:103AF0005C0220915D0230915E026027712782276F
:103B000093271F910F910C94C21C0895292F220F07
:103B1000920F990F890FE82FE695E695E695877045
:103B200051E001C0550F8A95EAF785E0E89FF00162
:103B30001124E35CFD4F20E030E070E04081CB01D8
:103B4000022E02C0969587950A94E2F781708195BE
:103B500084278523842781932F5F3F4F25303105AC
:103B600069F70895292F220F920F990F890F682F57
:103B7000669566956695982F977085E0689FB00169
:103B8000112440E050E080E0FB01E40FF51FE35C0E
:103B9000FD4F208130E0092E02C0369527950A940A
:103BA000E2F721703327042E01C0220F0A94EAF7AE
:103BB000822B4F5F5F4F4530510531F70895BF921B
:103BC000CF92DF92EF92FF920F931F93CF93DF93E9
:103BD0008C01C0905B02D0905C02E0905D02F0909E
:103BE0005E0280915F0290916002A0916102B091AB
:103BF0006202C82AD92AEA2AFB2ACFE1D0E0D701FB
:103C0000C6010C2E04C0B695A795979587950A9482
:103C1000D2F780FD04C0219790F7B12C07C0BC2ECD
:103C2000B8018C2F0E9494060197A9F38B2DDF9188
:103C3000CF911F910F91FF90EF90DF90CF90BF90A9
:103C40000895CF93DF93EC010E94DF1DBE010E9417
:103C50009406DF91CF9108951F93CF93DF93EB01EB
:103C600090910402992321F0CB010E94211E13C0E0
:103C7000882349F0CB010E94DF1D182F682FCE0149
:103C80000E94861D04C0CB010E94B21D182FBE01E8
:103C9000812F0E949406DF91CF911F91089580910A
:103CA000680208950E94AF21209166023091670258
:103CB0008217930750F00E94AF2120916602309145
:103CC0006702821B930B9C010AC00E94AF212091C6
:103CD00066023091670220953095280F391F81E0E8
:103CE000283C310508F480E00895809165028595AF
:103CF00085958595089580916502877008950E9445
:103D0000AF21209163023091640282179307A8F0DB
:103D10000E94AF212091630230916402821B930BB9
:103D2000883C910510F480E013C08091650282FB0D
:103D3000882780F991E089270BC00E94AF2120914C
:103D400063023091640220953095820F931FE8CF73
:103D50008170089590916502977081E009F480E088
:103D6000089580918C02089590918C02892B809304
:103D70008C020895809590918C02892380938C0207
:103D8000089510928C02089580918B02089590916D
:103D90008B02892B80938B020895809590918B02E2
:103DA000892380938B02089510928B02089590913D
:103DB0008A02892B80938A020895809590918A02C5
:103DC000892380938A02089510928A02089580912F
:103DD0006902089508950C94EA1E0C94EB1ECF938B
:103DE00090916902981769F0C82F0E94AF219093B3
:103DF000670280936602C09369028C2FCF910C9466
:103E0000ED1ECF91089580916902882349F01092A8
:103E10006902109267021092660280E00C94ED1E17
:103E20000895E0913401F091350180918C028083F6
:103E3000E0913401F0913501908180918B02892BC2
:103E40008083E0913401F0913501908180918A0264
:103E5000892B8083809169028823B9F00E94521EC9
:103E600081110E94031FE0913401F091350190818E
:103E700080916902892B8083809134019091350172
:103E80000E944E2081110E94031F80913401909165
:103E900035010C9467130C94EA1E0C944B1F9091FF
:103EA0006802981721F0809368020C944D1F0895C2
:103EB00080916802882329F01092680280E00C94B7
:103EC0004D1F08950C94EA1E98E0899F90011124DB
:103ED000262B209365020E94E81C0E94AF2190933C
:103EE000640280936302809165028595859585952E
:103EF0000C94621F10926502109264021092630289
:103F000080E00C94621F209165028095822380934B
:103F10006502982F977079F430E0482F082E000C36
:103F2000550B2417350739F08595859585950E94A1
:103F3000091D0C947A1F08956FEF7FEF80E090E0E9
:103F40000C94A52F80E090E00E94812F21E08C3E10
:103F50009E4F09F020E0822F089582E090E00C94BB
:103F6000732F83E090E00C94732F682F83E090E030
:103F70000C94872FCF9384E090E00E94732FC82F7A
:103F800081E290E00E94732F2C2F30E0A901582B82
:103F9000CA01CF910895CF93C92F682F84E090E094
:103FA0000E94872F6C2F81E290E0CF910C94872F95
:103FB000AB01BC018FE090E00C94992FAB01BC01E8
:103FC00083E190E00C94992F60E070E0CB010C94B9
:103FD000DE1F60E070E0CB010E94D81F0C94E41F4C
:103FE0006CEE7EEF80E090E00E94A52F60E082E022
:103FF00090E00E94872F60E083E090E00E94872F8E
:1040000010925F021092600210926102109262029E
:1040100060E084E090E00E94872F60E081E290E021
:104020000E94872F60E085E090E00E94872F60E08B
:1040300086E090E00E94872F6FEF87E090E00E947B
:10404000872F40E050E0BA0188E090E00E94992F6D
:1040500060E08DE090E00E94872F40E050E0BA01E0
:1040600088E190E00E94992F60E087E190E00E9453
:10407000872F40E050E0BA018CE190E00E94992F38
:1040800060E080E290E00E94872F0C94E91F0C947E
:10409000F01F682F8EE090E00C94872FFC01329681
:1040A00080914801882331F08091FC0287FF02C093
:1040B0009EE101C096E080E0915028F021912223FA
:1040C000D9F38F5FF9CF0895662351F1209148010C
:1040D0002223E9F02091FC0227FF19C0462F4695C4
:1040E000469546954E31E0F4677021E030E002C01D
:1040F000220F331F6A95E2F7FC01E40FF11D828164
:1041000090E02823392381E0232B69F409C0FC01C6
:10411000329608962191621729F0E817F907D1F72E
:1041200080E0089581E008959C01FC0132969FEFA4
:1041300080E04191461789F09F3F19F4411101C079
:10414000982F8F5F8630A9F79F3F39F0F901E90F6B
:10415000F11D97FDFA956283089508959C012A5FE9
:104160003F4FFC014281461301C012820196821723
:104170009307B9F70895262F2695269526952E3173
:1041800068F4FC01E20FF11D677021E030E001C02E
:10419000220F6A95EAF78281282B22830895262F21
:1041A0002695269526952E3170F4FC01E20FF11D1F
:1041B000677021E030E001C0220F6A95EAF7209590
:1041C000828128232283089520914801222329F007
:1041D0002091FC0227FD0C94BB200C94942020918C
:1041E0004801222329F02091FC0227FD0C94CF20C6
:1041F0000C94AE2020914801FC013296222331F02C
:104200008091FC0287FF02C08EE101C086E0DF01E1
:104210001D928A95E9F7089508950C940C210C9449
:104220000C21CF930E940F210E94E7080E940D21CC
:10423000C0E08C2F0E948308811104C0CF5FC7307B
:10424000C1F701C081E0CF9108950C940C210C942A
:1042500025210E94272180910203843009F439C06E
:1042600010928E0220E488E190E00FB6F894A895B1
:10427000809360000FBE2093600080E00E940406DF
:104280000E949E0E80918F0281110AC081E080936E
:104290008F028091D0028170809390020E94D10D94
:1042A0000E94272183B7817F846083BF83B78160A9
:1042B00083BF7894889583B78E7F83BF0FB6F894B9
:1042C000A8958091600088618093600010926000E2
:1042D0000FBE08950C940C210E9441180E945B139C
:1042E0000E94040610928F028091900281110E9418
:1042F000960E0E94E30D0C946A211F920F920FB646
:104300000F9211248F939F93AF93BF9380918E024E
:10431000811113C08091F8029091F902A091FA02E4
:10432000B091FB024196A11DB11D8093F8029093BC
:10433000F902A093FA02B093FB02BF91AF919F9153
:104340008F910F900FBE0F901F90189582E084BD43
:1043500093E095BD9AEF97BD80936E0008952FB7B7
:10436000F8948091F8029091F902A091FA02B0912C
:10437000FB022FBF0895CF92DF92EF92FF920F932F
:104380001F932FB7F8944091F8025091F902609171
:10439000FA027091FB022FBF6A017B01EE24FF2419
:1043A0008C0120E030E0C016D106E206F30610F4DE
:1043B000415051099A01281B390BC9011F910F91D6
:1043C000FF90EF90DF90CF90089578941F920F9216
:1043D0000FB60F9211248F939F93AF93BF93809149
:1043E000F8029091F902A091FA02B091FB020196B5
:1043F000A11DB11D8093F8029093F902A093FA02D7
:10440000B093FB02BF91AF919F918F910F900FBE20
:104410000F901F90189587E797E790930108809376
:1044200000089AE088E10FB6F894A89580936000A0
:104430000FBE90936000FFCF0C949C1F0E94E70872
:104440002FEF86E791E0215080409040E1F700C0D7
:1044500000000E94E70880E00E94830880FF04C0FB
:104460000E941C220C940B2208950E94A21F81110D
:1044700002C00E9447200E94AD1F80938D020E94BF
:10448000BA1F9093FD028093FC020E94B11F682F17
:1044900070E080E090E00C94881C8091980280FF8E
:1044A0000BC060913B0185E0689FB00111247595B8
:1044B0006795759567952BC081FF09C060913B0199
:1044C00085E0689FB00111247595679520C082FF33
:1044D00007C060913B0185E0689FB001112417C0BF
:1044E000909197029923D1F060913A01961788F73D
:1044F00020913B0185E0289F90011124929FA0010B
:10450000939F500D112470E0CA010E944C2F603817
:10451000710540F46115710519F406C065E070E09D
:10452000862F08958FE7089581E00895809198027D
:1045300080FF08C06091370170E0759567957595AB
:10454000679521C081FF06C06091370170E07595C5
:10455000679519C082FF04C06091370170E010C0F8
:1045600090919702992399F0609136019617A0F7E0
:1045700080913701899FC001112470E00E944C2F67
:104580006038710540F46115710519F406C061E0E9
:1045900070E0862F08958FE7089581E00895803FA9
:1045A00021F40E944D22819504C0813F29F40E948C
:1045B0004D2280939C020895823F21F40E944D2257
:1045C000819504C0833F29F40E944D2280939B0271
:1045D0000895893F19F40E94962205C08A3F31F45C
:1045E0000E949622819580939D0208958B3F21F42D
:1045F0000E949622819504C08C3F29F40E94962245
:1046000080939E020895843F21F480919A028160F4
:1046100017C0853F21F480919A02826011C0863FC5
:1046200021F480919A0284600BC0873F21F480912D
:104630009A02886005C0883F31F480919A028061B7
:1046400080939A0208958D3F21F4809198028160B1
:104650000BC08E3F21F480919802826005C08F3F8D
:1046600029F4809198028460809398020895803F95
:1046700039F480919C0287FF6CC010929C0269C043
:10468000813F29F480919C021816BCF362C090917E
:104690009B02823F29F497FF5CC010929B0259C095
:1046A000833F19F41916CCF354C0893F41F480912B
:1046B0009D0218160CF04DC010929D024AC08A3F10
:1046C00029F480919D0287FF44C0F6CF8B3F39F4D7
:1046D00080919E0287FF3DC010929E023AC08C3F9F
:1046E00029F480919E021816BCF333C0843F21F454
:1046F00080919A028E7F17C0853F21F480919A02A3
:104700008D7F11C0863F21F480919A028B7F0BC070
:10471000873F21F480919A02877F05C0883F31F45A
:1047200080919A028F7E80939A0213C08D3F21F46C
:10473000809198028E7F0BC08E3F21F48091980269
:104740008D7F05C08F3F29F4809198028B7F8093E5
:10475000980280919B0281110EC080919C02811170
:104760000AC080919D02811106C080919E02811134
:1047700002C010929702089589E992E00E94811385
:104780000E94AF2190939602809395020895CF9353
:10479000DF9300D000D000D0CDB7DEB786E0E9E9E6
:1047A000F2E0DE01119601900D928A95E1F7809179
:1047B0009B02811105C080919C02882309F47AC074
:1047C00080919302909194020E94BB21AC01909140
:1047D0009702992339F020913C0130E024173507E6
:1047E00058F068C020913D018AE0289F9001112473
:1047F0002417350718F05EC09F3F19F09F5F909314
:10480000970210929D0210929E0280919B021816B0
:1048100024F40E944D2280939B0280919B0287FF8B
:1048200005C00E944D22819580939B0280919C023D
:10483000181624F40E944D2280939C0280919C02C1
:1048400087FF05C00E944D22819580939C02309184
:104850009B023323E1F020919C022223C1F045EB1F
:104860003403C0011124992319F090939B0203C0D3
:1048700081E080939B0235EB2303C001112499232F
:1048800019F090939C0203C081E080939C020E94E7
:10489000BC2380919502909196029093940280930C
:1048A000930286E0FE013196A9E9B2E001900D92F3
:1048B0008A95E1F780919D02811105C080919E0249
:1048C000882309F47AC080919102909192020E940B
:1048D000BB21AC0190919702992339F020913801C6
:1048E00030E02417350758F068C0209139018AE07C
:1048F000289F900111242417350718F05EC09F3FB0
:1049000019F09F5F9093970210929B0210929C0265
:1049100080919D02181624F40E94962280939D0295
:1049200080919D0287FF05C00E9496228195809309
:104930009D0280919E02181624F40E949622809374
:104940009E0280919E0287FF05C00E94962281955B
:1049500080939E0230919D023323E1F020919E02CC
:104960002223C1F045EB3403C0011124992319F02F
:1049700090939D0203C081E080939D0235EB230359
:10498000C0011124992319F090939E0203C081E085
:1049900080939E020E94BC23809195029091960282
:1049A000909392028093910286E0FE013196A9E9EC
:1049B000B2E001900D928A95E1F726960FB6F89431
:1049C000DEBF0FBECDBFDF91CF910895E9E9F2E0E0
:1049D00086E0DF011D928A95E9F710929702109206
:1049E000980208958091BF020895CF93DF9300D07D
:1049F0001F92CDB7DEB790910203943019F58983E9
:104A00007B836A8382E08093E9008FEF9091E800D6
:104A1000815095FD06C095ED9A95F1F70000811142
:104A2000F5CF8091E80085FF0DC040E050E063E0E5
:104A300070E0CE0101960E9451278091E8008E77A8
:104A40008093E8000F900F900F90DF91CF91089521
:104A5000CF93DF93EC010E943427823011F0843031
:104A600031F4BE0184E0DF91CF910C94F524DF9105
:104A7000CF910895BC0183E00C94F524CF93DF938C
:104A8000EC010E943427823011F08430F9F482E086
:104A90008093E9008FEF9091E800815095FD06C06A
:104AA00095ED9A95F1F700008111F5CF8091E8001E
:104AB00085FF0CC040E050E066E070E0CE010E944F
:104AC00051278091E8008E778093E800DF91CF91A5
:104AD0000895CF93DF93EC010E943427823011F0C8
:104AE0008430D9F580914801882339F08091FC0207
:104AF00087FF03C060E282E002C068E081E080934B
:104B0000E9008FEF9091E800815095FD06C095ED8A
:104B10009A95F1F700008111F5CF8091E80085FFAB
:104B20001CC080914801811105C040E050E068E060
:104B300070E003C070E040E050E0CE010E945127D9
:104B40008091E8008E778093E80080E2FE01AFE973
:104B5000B2E001900D928A95E1F7DF91CF9108952F
:104B600080910103811109C00E94E2280E943F291F
:104B70008091E20084608093E20008951092010326
:104B80000895089508950C946C2142E061EC81E051
:104B90000E945B2842E261EC82E00C945B288091E9
:104BA0000403833009F460C030F4813071F0823046
:104BB00009F499C008958A3009F485C08B3009F44E
:104BC0006BC0893009F0A7C020C080910303813AEF
:104BD00009F0A1C08091E800877F8093E800809170
:104BE000070390910803892B21F460E28FE992E09A
:104BF00003C060E080E090E070E00E949C2780911C
:104C0000E8008B778093E800089580910303813258
:104C100009F081C08091070390910803029708F082
:104C20007AC08091E800877F8093E8008091E80057
:104C300082FD05C0809102038111F8CF6CC02091E4
:104C4000F3008091F20090E0922B029729F480917A
:104C5000F1008B7F813021F48091F1008093BF02BD
:104C60008091E8008B7753C080910303813A09F06B
:104C700052C08091070390910803892B09F04BC023
:104C80008091E800877F8093E8008091E80080FFB2
:104C9000FCCF8091480136C0809103038132D9F561
:104CA0008091070390910803892BA9F58091E80072
:104CB000877F8093E8000E9490288091050380936D
:104CC00048010C94411880910303813221F58091B1
:104CD000E800877F8093E8000E9490288091060377
:104CE0008093C002089580910303813AA1F48091DA
:104CF000E800877F8093E8008091E80080FFFCCF88
:104D00008091C0028093F1008091E8008E778093BB
:104D1000E8000C949028089584B7877F84BF0FB66D
:104D2000F894A8958091600088618093600010924B
:104D300060000FBE90E080E80FB6F89480936100A9
:104D4000909361000FBE0E94CB130E94E2280E9444
:104D50003F298091E20084608093E20078940E9471
:104D6000D42B0E94D3138EE391E00E9456138091BE
:104D70000203853069F40E94292180910003882371
:104D8000B1F30E941121882391F30E943B27EFCFBA
:104D90000E94E813ECCF0C94CD26292F3327233023
:104DA0003105C9F060F42130310581F02230310540
:104DB00009F04AC08BE390E020E538E049C0213299
:104DC000310511F12232310579F13EC082E190E0E6
:104DD0002BE838E03DC099278130910561F040F023
:104DE0008230910559F0039779F5E6E1F8E008C0C3
:104DF000ECE4F8E005C0EEE3F8E002C0ECE1F8E036
:104E0000849190E09F0124C06115710541F06130EB
:104E10007105D1F489E090E02BE738E019C089E012
:104E200090E022E638E014C06115710541F0613070
:104E3000710551F48CEB90E02DE938E009C080E475
:104E400090E029E539E004C080E090E020E030E027
:104E5000FA0131832083089580910203843011F098
:104E600081E0089582E008958091C102811102C01D
:104E70000C942C27089580E189BD82E189BD09B495
:104E800000FEFDCF8091D8008F7D8093D800809167
:104E9000E00082608093E0008091E00081FDFCCF23
:104EA0000895CF92DF92EF92FF920F931F93CF93CB
:104EB000DF93EC018B017A010E94AF28811133C08E
:104EC000E114F10439F0F70180819181081B190B7D
:104ED000C80FD91FC12CD12C0115110519F18091D2
:104EE000E80085FD16C08091E8008E778093E80089
:104EF000E114F10449F0F70180819181C80ED91EB7
:104F0000D182C08285E00FC00E94AF28882321F3A0
:104F10000AC089918093F10001501109FFEFCF1A67
:104F2000DF0ADACF80E0DF91CF911F910F91FF90E0
:104F3000EF90DF90CF9008952091090330910A03FC
:104F40002617370748F06115710539F42091E800FC
:104F50002E772093E80001C0B901FC0120E0611523
:104F6000710579F1809102038823F1F18530F1F127
:104F70008091E80083FD3CC08091E80082FD2EC056
:104F80008091E80080FFEBCF2091F3008091F20048
:104F900090E0922B6115710551F08830910538F43D
:104FA00021912093F100615071090196F3CF21E026
:104FB000089709F020E08091E8008E778093E80060
:104FC000CECF2111CFCF0AC080910203882361F098
:104FD000853061F08091E80083FD0AC08091E8008F
:104FE00082FFF2CF80E0089582E0089583E0089583
:104FF00081E008952091090330910A0326173707AD
:1050000048F06115710539F42091E8002E7720935E
:10501000E80001C0B901FC0120E06115710591F1C2
:1050200080910203882309F440C0853009F43FC011
:105030008091E80083FD3DC08091E80082FD2FC093
:105040008091E80080FFE9CF2091F3008091F20089
:1050500090E0922B6115710559F08830910540F46C
:1050600024912093F1003196615071090196F2CF9D
:1050700021E0089709F020E08091E8008E77809386
:10508000E800CBCF2111CCCF0AC080910203882346
:1050900061F0853061F08091E80083FD0AC0809165
:1050A000E80082FFF2CF80E0089582E0089583E077
:1050B000089581E00895982F973068F59093E9005E
:1050C000981739F07091EC002091ED005091F000AC
:1050D00003C0242F762F50E021FD02C09F5FECCF4C
:1050E0003091EB003E7F3093EB003091ED003D7F3F
:1050F0003093ED003091EB0031603093EB00709312
:10510000EC002093ED005093F0002091EE0027FD7D
:10511000E5CF80E008958F708093E90081E00895E5
:105120008091030387FF11C08091E80082FD05C0D4
:10513000809102038111F8CF11C08091E8008B7734
:105140000BC080910203882349F08091E80080FF22
:10515000F8CF8091E8008E778093E8000895209141
:10516000E4003091E50095E64091EC00842F8170D9
:1051700040FF23C08091E80080FD1DC080910203A4
:10518000882399F0853099F08091EB0085FD11C05E
:105190004091E4005091E5002417350729F3915020
:1051A00011F09A01E1CF84E0089582E0089583E050
:1051B000089581E0089580E008954091E80042FF5D
:1051C000DDCF08950E9450290E945829E0EEF0E0BA
:1051D000808181608083E8EDF0E080818F7780833B
:1051E00019BCA7EDB0E08C918E7F8C9380818F7E6F
:1051F00080831092010308950F931F93CF93DF9341
:105200000E9450290E945829C8EDD0E088818F77EC
:10521000888388818068888388818F7D888319BC92
:10522000109202031092FE02109200031092FF02ED
:1052300000EE10E0F80180818B7F8083888181609F
:10524000888342E060E080E00E945B28E1EEF0E0CD
:1052500080818E7F8083E2EEF0E0808181608083B8
:10526000808188608083F80180818E7F808388813F
:1052700080618883DF91CF911F910F910895E8EDB0
:10528000F0E080818F7E8083E7EDF0E080818160B7
:10529000808384E082BF81E0809301030C94FC282A
:1052A000E8EDF0E080818E7F80831092E200089527
:1052B0001092DA001092E10008951F920F920FB63B
:1052C0000F9211242F933F934F935F936F937F938C
:1052D0008F939F93AF93BF93EF93FF938091E100E0
:1052E00082FF0BC08091E20082FF07C08091E10045
:1052F0008B7F8093E1000E94D32B8091DA0080FFA6
:105300001FC08091D80080FF1BC08091DA008E7F83
:105310008093DA008091D90080FF0DC080E189BDC3
:1053200082E189BD09B400FEFDCF81E080930203D4
:105330000E94B02505C019BC109202030E94BE2530
:105340008091E10080FF19C08091E20080FF15C0CC
:105350008091E2008E7F8093E2008091E200806184
:105360008093E2008091D80080628093D80019BCBD
:1053700085E0809302030E94C2258091E10084FFB2
:1053800030C08091E20084FF2CC080E189BD82E1C1
:1053900089BD09B400FEFDCF8091D8008F7D809338
:1053A000D8008091E1008F7E8093E1008091E2003F
:1053B0008F7E8093E2008091E20081608093E20022
:1053C0008091FE02882311F084E007C08091E30001
:1053D00087FD02C081E001C083E0809302030E9448
:1053E000C3258091E10083FF29C08091E20083FF03
:1053F00025C08091E100877F8093E10082E0809367
:1054000002031092FE028091E1008E7F8093E10002
:105410008091E2008E7F8093E2008091E2008061C3
:105420008093E20042E060E080E00E945B2880918F
:10543000F00088608093F0000E94C125FF91EF91F9
:10544000BF91AF919F918F917F916F915F914F919C
:105450003F912F910F900FBE0F901F9018951F92A4
:105460000F920FB60F9211242F933F934F935F9398
:105470006F937F938F939F93AF93BF93CF93DF935C
:10548000EF93FF93C091E900CF708091EC00D82F8B
:10549000D17080FDD0E81092E9008091F000877F04
:1054A0008093F00078940E94732A1092E900809112
:1054B000F00088608093F000CD2BCF70C093E9009E
:1054C000FF91EF91DF91CF91BF91AF919F918F911C
:1054D0007F916F915F914F913F912F910F900FBEF0
:1054E0000F901F9018951F93CF93DF93CDB7DEB722
:1054F000AA970FB6F894DEBF0FBECDBFE3E0F3E08E
:105500008091F100819323E0EB30F207C9F70E940C
:10551000CF258091E80083FF2EC1809103039091F5
:105520000403492F50E04A30510508F024C1FA0124
:10553000E857FF4F0C94602F803821F0823809F033
:105540001AC108C08091FF0290910003992389F04D
:1055500082600FC0809107038F70873008F00BC105
:105560008093E9008091EB0085FB882780F91092F9
:10557000E9009091E800977F9093E8008093F10014
:105580001092F100D1C0282F2D7F09F0F4C088239C
:1055900019F0823061F0EFC080910503813009F08D
:1055A000EAC0933009F080E0809300032EC0809120
:1055B000050381112AC0809107038F702FEF280FF8
:1055C000263008F0D8C08093E9002091EB0020FF3E
:1055D0001CC0933021F48091EB00806214C0909144
:1055E000EB0090619093EB0021E030E0A90102C054
:1055F000440F551F8A95E2F74093EA001092EA00A3
:105600008091EB0088608093EB001092E90080911C
:10561000E800877F8093E8000E949028ACC0811149
:10562000AAC0109105031F778091E3008078812B39
:105630008093E3008091E800877F8093E8000E94D8
:1056400090288091E80080FFFCCF8091E300806883
:105650008093E300111102C082E001C083E08093D7
:10566000020389C08058823008F085C0809105030C
:10567000909106038C3D53E0950779F583E08A838A
:105680008AE289834FB7F894DE01139620E03EE06A
:1056900051E2E32FF0E050935700E49120FF03C064
:1056A000E295EF703F5FEF708E2F90E0EA3010F0E0
:1056B000C79601C0C0968D939D932F5F243149F703
:1056C0004FBF8091E800877F8093E8006AE270E036
:1056D000CE0101960E949C2716C06091070370912D
:1056E0000803AE014F5F5F4F0E94CB26BC01892BA0
:1056F00009F441C09091E800977F9093E800898178
:105700009A810E94FA278091E8008B778093E800C5
:1057100032C0803881F58091E800877F8093E8006F
:105720008091FE028093F1008091E8008E7772CF25
:10573000811121C08091050390910603992702975A
:10574000D4F48091E800877F8093E800809105037E
:105750008093FE020E9490288091FE02811106C073
:105760008091E30087FD02C081E001C084E0809366
:1057700002030E94C5258091E80083FF0AC0809142
:10578000E800877F8093E8008091EB00806280933F
:10579000EB00AA960FB6F894DEBF0FBECDBFDF9127
:1057A000CF911F9108950895CF938091020388238C
:1057B000A1F0C091E900CF709091EC00892F817029
:1057C00090FD80E8C82B1092E9008091E80083FDED
:1057D0000E94732ACF70C093E900CF91089550586A
:1057E000BB27AA270E94072C0C94B22D0E94A42D3F
:1057F00038F00E94AB2D20F039F49F3F19F426F4C5
:105800000C947A2D0EF4E095E7FB0C94742DE92F9F
:105810000E94C32D58F3BA176207730784079507D0
:1058200020F079F4A6F50C94E52D0EF4E0950B2EFE
:10583000BA2FA02D0B01B90190010C01CA01A001E2
:105840001124FF27591B99F0593F50F4503E68F13D
:105850001A16F040A22F232F342F4427585FF3CF7E
:10586000469537952795A795F0405395C9F77EF44F
:105870001F16BA0B620B730B840BBAF09150A1F098
:10588000FF0FBB1F661F771F881FC2F70EC0BA0F1E
:10589000621F731F841F48F4879577956795B795A6
:1058A000F7959E3F08F0B0CF9395880F08F09927A1
:1058B000EE0F9795879508950E94702C0C94B22D49
:1058C0000E94AB2D58F00E94A42D40F029F45F3FB8
:1058D00029F00C94742D51110C94E62D0C947A2D12
:1058E0000E94C32D68F39923B1F3552391F3951BBF
:1058F000550BBB27AA2762177307840738F09F5FF1
:105900005F4F220F331F441FAA1FA9F335D00E2E5D
:105910003AF0E0E832D091505040E695001CCAF7CA
:105920002BD0FE2F29D0660F771F881FBB1F26178D
:1059300037074807AB07B0E809F0BB0B802DBF0164
:10594000FF2793585F4F3AF09E3F510578F00C9433
:10595000742D0C94E62D5F3FE4F3983ED4F38695C6
:1059600077956795B795F7959F5FC9F7880F911D54
:105970009695879597F90895E1E0660F771F881F40
:10598000BB1F621773078407BA0720F0621B730BF3
:10599000840BBA0BEE1F88F7E095089529F416F0F2
:1059A0000C94742D0C94E52D0C947A2D0E94CB2D23
:1059B000A8F39638A0F707F80F92E8942BE33AEA99
:1059C00048EB5FE70E94782E0F920F920F924DB72F
:1059D0005EB70F920E942E2EE4E2F1E00E947D2D30
:1059E0004F915F91EF91FF91E595EE1FFF1F49F0F9
:1059F000FE57E0684427EE0F441FFA95E1F7419502
:105A0000550B0E94F82D0F9007FE0C94EC2D089575
:105A10000E94CB2D88F09F5798F0B92F9927B75146
:105A2000B0F0E1F0660F771F881F991F1AF0BA9542
:105A3000C9F714C0B13091F00E94E52DB1E008958E
:105A40000C94E52D672F782F8827B85F39F0B93F80
:105A5000CCF3869577956795B395D9F73EF49095F5
:105A60008095709561957F4F8F4F9F4F0895E89473
:105A700009C097FB3EF490958095709561957F4F96
:105A80008F4F9F4F9923A9F0F92F96E9BB27939544
:105A9000F695879577956795B795F111F8CFFAF454
:105AA000BB0F11F460FF1BC06F5F7F4F8F4F9F4F85
:105AB00016C0882311F096E911C0772321F09EE8E3
:105AC000872F762F05C0662371F096E8862F70E049
:105AD00060E02AF09A95660F771F881FDAF7880F23
:105AE0009695879597F9089597F99F6780E870E0F4
:105AF00060E008959FEF80EC0895DF93CF931F93AC
:105B00000F93FF92EF92DF927B018C01689406C0A5
:105B1000DA2EEF010E94752EFE01E894A5912591E1
:105B2000359145915591A6F3EF010E94072CFE0196
:105B30009701A801DA9469F7DF90EF90FF900F9139
:105B40001F91CF91DF91089500240A94161617062D
:105B500018060906089500240A941216130614065E
:105B600005060895092E0394000C11F4882352F0C1
:105B7000BB0F40F4BF2B11F460FF04C06F5F7F4F79
:105B80008F4F9F4F089557FD9058440F551F59F060
:105B90005F3F71F04795880F97FB991F61F09F3F1A
:105BA00079F087950895121613061406551FF2CF43
:105BB0004695F1DF08C0161617061806991FF1CF93
:105BC00086957105610508940895E894BB276627BA
:105BD0007727CB0197F908959B01AC0160E070E055
:105BE00080E89FE30C945C2C0C94742D0C94D72EBD
:105BF0000E94CB2DD8F39923C9F3940F511DA3F321
:105C00009150504094F059F0882332F0660F771F7E
:105C1000881F91505040C1F79E3F51052CF7880FC7
:105C2000911D9695879597F908955F3FACF0983E42
:105C30009CF0BB27869577956795B79508F4B1607A
:105C40009395C1F7BB0F58F711F460FFE8CF6F5F72
:105C50007F4F8F4F9F4FE3CF0C94E62DFA01DC016D
:105C6000AA0FBB1F9B01AC01BF5728F42227332783
:105C70004427507820C0B75190F4AB2F00244695AC
:105C800037952795011CA395D2F3002071F0220FC0
:105C9000331F441FB395DAF30ED00C94EF2B613011
:105CA0007105A0E88A07B94630F49B01AC0166276C
:105CB000772788279078309621F02083318342839C
:105CC000538308950E94752E0C94B22D0E94A42D2A
:105CD00038F00E94AB2D20F0952311F00C94742D18
:105CE0000C947A2D11240C94E62D0E94C32D70F390
:105CF000959FC1F3950F50E0551F629FF001729F71
:105D0000BB27F00DB11D639FAA27F00DB11DAA1F7F
:105D1000649F6627B00DA11D661F829F2227B00DCC
:105D2000A11D621F739FB00DA11D621F839FA00D57
:105D3000611D221F749F3327A00D611D231F849FA7
:105D4000600D211D822F762F6A2F11249F575040FE
:105D50009AF0F1F088234AF0EE0FFF1FBB1F661F79
:105D6000771F881F91505040A9F79E3F510580F042
:105D70000C94742D0C94E62D5F3FE4F3983ED4F31D
:105D8000869577956795B795F795E7959F5FC1F7E6
:105D9000FE2B880F911D9695879597F908959F93EF
:105DA0000E94E72E0F9007FCEE5F0C94102F9F3F90
:105DB00031F0915020F4879577956795B795880FC6
:105DC000911D9695879597F908950C947A2D0E94C8
:105DD000CB2DD8F3E894E0E0BB279F57F0F02AEDF5
