:100000000C9429070C9470070C9470070C947007DB
:100010000C9470070C9470070C9470070C94700784
:100020000C9470070C9470070C94FF2E0C94D12F35
:100030000C9423270C9470070C9470070C94700791
:100040000C9470070C9470070C9470070C94700754
:100050000C9470070C948B270C9470070C94700709
:100060000C9470070C9470070C9470070C94700734
:100070000C9470070C9470070C9470070C94700724
:100080000C9470070C9470070C9470070C94700714
:100090000C9470070C9470070C9470070C94700704
:1000A0000C9470070C9470070C947007DC14DF1428
:1000B000E414E914EE14F314F814FD1402150715F2
:1000C0000C1513151715271527151A151D152715A6
:1000D00020152715D11BD11B031C031C5C1C7A1C8B
:1000E000EF1DEF1DBC1C511D621D621DDF1DEF1DAC
:1000F000EF1DE81D851E851E971E971E8E1E971EDE
:10010000971E971E851E851E931E971E971E931E73
:100110003E3065305D3165305D31B130D4305D31B8
:100120002B313A3154657374204D6163726F204DE9
:100130003500010128006274207477697474657257
:10014000203C01043135307C0102E0760103E001FE
:10015000043135307C01014D01043135307C010220
:10016000E001012A0103E001043135307C0102E0A5
:1001700001012A0103E001012A3E0001014A0104B4
:100180003135307C0102E001014F0103E00104310F
:1001900030307C0102E001014F0103E00104313005
:1001A000307C0102E001014F0103E00104313030F5
:1001B0007C01014C01043130307C0102E101014A33
:1001C0000103E101043130307C01012A000102E029
:1001D0000101500103E001012A2E01043135307C78
:1001E000000102E00101500103E001043135307CDF
:1001F0000102E00101500103E001043135307C01CE
:10020000012A2E01043135307C000102E101014D4B
:100210000103E101012A2E6A706701043135307C47
:1002200000576F742074686520666F636B20646983
:100230006420796F75206A75737420666F6B696EC0
:1002400027207361792061626F7574206D652C20A1
:10025000796F75206C6974746C652062657463686D
:100260003F2049E280996C6C206861766520796F47
:1002700075206B6E6F7720492067726164756174B9
:10028000656420746F70206F66206D7920636C61E7
:10029000737320696E20746865204D49362C206187
:1002A0006E642049E280997665206265656E2069FA
:1002B0006E766F6C76656420696E206E756D657202
:1002C0006F757320736563726574207261696473FE
:1002D000206F6E2041666768616E697374616E2C71
:1002E00020616E6420492068617665206F766572B2
:1002F0002033303020636F6E6669726D6564206BE9
:10030000696C6C732E204920616D20747261696E76
:10031000656420696E20746561206472696E6B6922
:100320006E272C206272757620616E642049E2800F
:10033000996D2074686520746F7020746561206405
:1003400072696E6B276120696E2074686520656E26
:100350007469726520554B2061726D656420666F0B
:10036000726365732E20596F7520617265206E6F00
:100370007468696E6720746F206D652062757420E3
:100380006A75737420616E6F74686572207461722F
:100390006765742E20492077696C6C2077697065D9
:1003A00020796F752074686520666F636B206F75A8
:1003B00074207769746820707265636973696F6E01
:1003C00020746865206C696B6573206F66207768A0
:1003D00069636820686173206E6576657220626566
:1003E000656E207365656E206265666F7265206F4D
:1003F0006E207468697320626C6F6F647920456148
:100400007274682C206D61726B206D7920666F6349
:100410006B696E2720776F7264732E20596F752079
:100420007468696E6B20796F752063616E206765F3
:1004300074206177617920776974682073617969C4
:100440006E67207468617420736869746520746FC6
:10045000206D65206F7665722074686520496E7422
:1004600065726E65743F205468696E6B20616761C8
:10047000696E2C20666F636B6527722E2041732096
:10048000776520737065616B204920616D20636F13
:100490006E74616374696E67206D79207365637231
:1004A0006574206E6574776F726B206F6620737051
:1004B000696573206163726F73732074686520557A
:1004C0004B20616E6420796F7572204950206973EA
:1004D000206265696E672074726163656420726969
:1004E000676874206E6F7720736F20796F75206254
:1004F0006574746572207072657061726520666FD4
:1005000072207468652073746F726D2C206272752E
:10051000762E205468652073746F726D2074686144
:1005200074207769706573206F7574207468652016
:1005300070617468652763206C6974746C652074DD
:1005400068696E6720796F752063616C6C20796FC4
:100550007572206C6966652E20596F75E2809972FC
:100560006520666F636B696E2720646561642C206B
:10057000627275762E20492063616E20626520616B
:100580006E7977686572652C20616E7974696D6526
:100590002C20616E6420492063616E206B696C6C55
:1005A00020796F7520696E206F766572207365768D
:1005B000656E2068756E6472656420776179732C4E
:1005C00020616E642074686174E2809973206A759A
:1005D00073742077697468206D7920626172652078
:1005E00068616E64732C20627275762E204E6F7473
:1005F000206F6E6C7920616D204920657874656E7E
:10060000736976656C7920747261696E65642069BE
:100610006E20756E61726D656420636F6D626174CA
:100620002C206275742049206861766520616363BF
:1006300065737320746F2074686520656E746972C9
:100640006520617273656E616C206F6620746865E9
:1006500020556E69746564204B696E67646F6D2008
:10066000616E6420492077696C6C20757365206920
:100670007420746F206974732066756C6C206578C3
:1006800074656E7420746F207769706520796F755A
:1006900072206D6973657261626C65206172736549
:1006A000206F6666207468652066616365206F66EA
:1006B0002074686520636F6E74696E656E742C209B
:1006C000796F75206C6974746C65207368697465E2
:1006D00062616C6C2E204966206F6E6C7920796F98
:1006E0007520636F756C642068617665206B6E6F32
:1006F000776E207768617420756E686F6C792072F0
:1007000065747269627574696F6E20796F75722095
:100710006C6974746C6520E2809C636C65766527F7
:1007200061E2809D20636F6D6D656E7420776173EB
:100730002061626F757420746F206272696E672029
:10074000646F776E2075706F6E20796F752C206DD9
:100750006179626520796F7520776F756C642068A8
:100760006176652068656C6420796F757220666FAC
:10077000636B696E2720746F6E6775652E204275F6
:100780007420796F7520636F756C646EE280997464
:100790002C20796F75206469646EE28099742C2036
:1007A000616E64206E6F7720796F75E28099726553
:1007B00020706179696E672074686520626C6F6F64
:1007C00064792070726963652C20796F7520676F7A
:1007D0006464616D6E2061727365686F6C652E2054
:1007E000492077696C6C207368697465206675723E
:1007F0007920616C6C206F76657220796F7520614D
:100800006E6420796F752077696C6C2064726F77E5
:100810006E20696E2069742E20596F75E28099727E
:100820006520626C6F6F647920646561642C20625E
:100830007275762E000104313235307C00010435AA
:1008400030307C76001A000900000014001A000005
:1008500000C75C1A00090013000A000D000F001801
:10086000001C0000572A00C95C150016001700077D
:10087000000B00110008000C0012003400C55CCA17
:100880005C1B000600190005000E00100036003742
:10089000003868C35CC25C165C65642A432A452A3A
:1008A0004401002843E300000014001A000800156A
:1008B0000017001C0018000C0012001300E30004D5
:1008C000001600070009000A000B000D000E000FC3
:1008D0000000573400E1001D001B00060019000550
:1008E0000011001000360037003868E000165CE0A8
:1008F0000065002A002C442A4501004C00E200005B
:1009000000000000000000000000000000000000E7
:1009100000000000000000000000000000000000D7
:1009200000000000000000000000000000000000C7
:1009300000000000000000000000000000000000B7
:1009400000000000000000000000000000000000A7
:100950000000000000000000000E574A0052004D49
:10096000004900230224022502015706574C000DBE
:1009700057500051004F0028001E021F0220022184
:100980000222020100390011570A5709570857106F
:1009900057075705570257035704574C000657018E
:1009A000000B570100105701000100010001000079
:1009B000001E001F00200021002200010042004311
:1009C00000440045000100230024002500260027E4
:1009D0000001003E003F00400041000100C55CC72F
:1009E0005C01004604160A460C46003A003B003CF7
:1009F000003D00C35CC25CC95CCA5C01000100012F
:100A00000001000100010000000000F500F000F40A
:100A100000F9000100F700F80001000100010000EA
:100A200000F200F100F300FA000100F400F500010B
:100A30000001000100085D00000B57F600FB00FC00
:100A4000000100F600010001000100095D005C01E9
:100A50000001000C5701000100010001000100002D
:100A60000000000000000000002A2B280000000009
:100A7000000000000000000000000000290000004D
:100A8000002C1E3420212224342627252E362D37F3
:100A900038271E1F202122232425263333362E37C4
:100AA000381F0405060708090A0B0C0D0E0F10115C
:100AB00012131415161718191A1B1C1D2F31302369
:100AC0002D350405060708090A0B0C0D0E0F101131
:100AD00012131415161718191A1B1C1D2F31303537
:100AE0004C000000000000000000000000000000BA
:100AF00000000000007E0F00D4FFFFFFC7000000D1
:100B0000787F3F1F6432141E140A052223252628ED
:100B1000292A2C2D2F3032333536383A3B3D3E4092
:100B200042434547494A4C4E5051535557595A5CD8
:100B30005E6062646668696B6D6F71737577797BEF
:100B40007D7F81838587898A8C8E90929496989AEE
:100B50009C9E9FA1A3A5A7A8AAACAEAFB1B3B4B603
:100B6000B8B9BBBCBEBFC1C2C3C5C6C7C9CACBCC5E
:100B7000CDCED0D1D2D2D3D4D5D6D7D7D8D9D9DA31
:100B8000DADBDBDBDCDCDCDCDCDDDDDDDDDCDCDCA6
:100B9000DCDCDBDBDBDADAD9D9D8D7D7D6D5D4D3CE
:100BA000D2D2D1D0CECDCCCBCAC9C7C6C5C3C2C1A3
:100BB000BFBEBCBBB9B8B6B4B3B1AFAEACAAA8A700
:100BC000A5A3A19F9E9C9A98969492908E8C8A89B8
:100BD000878583817F7D7B79777573716F6D6B6995
:100BE00068666462605E5C5A5957555351504E4C6A
:100BF0004A4947454342403E3D3B3A383635333219
:100C0000302F2D2C2A292826252322FFAA7F554064
:100C100000010101010101010101020202020202BF
:100C20000202020303030303030303040404040492
:100C30000404050505050506060606060707070759
:100C40000708080808090909090A0A0A0B0B0B0C0E
:100C50000C0C0D0D0D0E0E0E0F0F0F1010111111AB
:100C6000121213131414151516161717181819192C
:100C70001A1A1B1B1C1D1D1E1E1F20202122222391
:100C80002424252626272829292A2B2C2D2D2E2FD2
:100C900030313232333435363738393A3B3C3D3EE9
:100CA0003F404142434445464748494A4C4D4E4FD8
:100CB00050515354555658595A5B5D5E5F6162649A
:100CC000656668696B6C6D6F7072737577787A7B27
:100CD0007D7E8082838587888A8C8E8F919395967E
:100CE000989A9C9EA0A2A3A5A7A9ABADAFB1B3B59E
:100CF000B7BABCBEC0C2C4C6C9CBCDCFD1D4D6D87A
:100D0000DBDDDFE2E4E7E9EBEEF0F3F5F8FAFDFF17
:100D10000403300000000E03540061006E007500F3
:100D20006B00690000001803530061006D006D0046
:100D3000620061007300740069006F006E000000C3
:100D40000403090409023B00020100A0FA0904009F
:100D500000010301010009211101000122400007E7
:100D600005810308000A09040100010300000009CD
:100D700021110100012281000705820320000A12CF
:100D800001100100000008666666660200010203A9
:100D90000105010902A10185020901A10005091946
:100DA000012905150025019505750181029501753B
:100DB0000381010501093009311581257F950275EF
:100DC00008810609381581257F950175088106057A
:100DD0000C0A38021581257F950175088106C0C06F
:100DE00005010980A101850319012AB70015012613
:100DF000B700950175108100C0050C0901A101859E
:100E00000419012AA002150126A00295017510817E
:100E100000C005010906A101050719E029E7150031
:100E20002501950875018102950175088101050765
:100E3000190029FF150026FF009506750881000599
:100E40000819012905950575019102950175039110
:100E500001C011241FBECFEFDAE0DEBFCDBF04B664
:100E600003FE27C080917A0490917B04A0917C04BA
:100E7000B0917D048730904BA740B04BD1F41092D5
:100E80007A0410927B0410927C0410927D0414BEAC
:100E900084B7877F84BF0FB6F894A89580916000CF
:100EA000886180936000109260000FBEE0E0F8E37C
:100EB000099513E0A0E0B1E0E0E6F4E602C0059099
:100EC0000D92A836B107D9F724E0A8E6B3E001C037
:100ED0001D92AA37B207E1F70E942E2C0C942E32F5
:100EE0000C940000CF93DF93EC018881813029F0CE
:100EF000823039F48BE491E002C08EE491E00E94EC
:100F00008809CE01DF91CF910C947915CF93DF93AF
:100F1000EC018881823039F0833041F0813051F426
:100F20008AE191E005C087E193E002C087E191E0AA
:100F30000E948809CE01DF91CF910C947915CF934F
:100F4000DF93EC018881823039F0833041F08130C9
:100F500051F486E091E005C089E191E002C08BE1A7
:100F600091E00E948809CE01DF91CF910C94791510
:100F7000CF93DF93EC018881823039F0833041F0E8
:100F8000813071F48DE492E005C08DE493E002C0FD
:100F900084E091E00E94880986E091E00E9488093F
:100FA000CE01DF91CF910C947915CF93DF93EC01B3
:100FB0008881823039F0833041F0813051F48EE401
:100FC00090E005C08DE490E002C08DE491E00E94C5
:100FD0008809CE01DF91CF910C947915CF93DF93DF
:100FE000EC018881823039F0833041F0813051F456
:100FF0008BE490E005C08AE490E002C08AE491E0CE
:101000000E948809CE01DF91CF910C947915CF937E
:10101000DF93EC018881823039F0833041F08130F8
:1010200051F48AEA90E005C089EA90E002C088EABB
:1010300090E00E948809CE01DF91CF910C94791540
:10104000CF93DF93EC018881823069F028F48130FE
:1010500089F48EEA90E00CC0833041F0843051F482
:101060008FEA90E005C08BEA90E002C08CEA90E045
:101070000E948809CE01DF91CF910C947915CF930E
:10108000DF93EC018881823081F485EF90E00E944B
:1010900088098DE398E00E948A0A85E398E00E941F
:1010A0008A0A88E290E00E948809CE01DF91CF9100
:1010B0000C947915882319F0813031F00895662356
:1010C00049F089E290E004C0662321F08BE290E0D1
:1010D0000C9488090895FC018081823069F0833086
:1010E000A1F08130D9F4818581111BC082858823CC
:1010F000C1F082E090E008958185811115C082855C
:10110000882391F084E090E00895818581110FC0DB
:101110008285882361F086E090E0089580E090E089
:10112000089581E090E0089583E090E0089585E0DF
:1011300090E008950E946B088330910579F034F4B3
:101140008130910549F0029739F008958430910576
:1011500029F0059729F008958AEA03C089EA01C0B9
:1011600088EA0C946C1A0E946B088330910579F020
:1011700034F48130910549F0029739F008958430B4
:10118000910529F0059729F008958AEA03C089EAB4
:1011900001C088EA0C94161BCF93DF93EC010E94E8
:1011A000E525BE0180E090E0DF91CF910C94BA225A
:1011B000CF93FB018D302DE5920709F140F4883083
:1011C0002DE5920799F089309D4551F043C08F304D
:1011D0002DE5920761F1C8F081319D4599F13AC042
:1011E000C281CC23C1F182E090E005C0C281CC2352
:1011F00091F181E090E00E94CC08C0E02CC0C28157
:10120000CC2341F181E292E022C0C281CC2311F1D2
:101210008AE092E00E948A0A81EE91E00E948A0AA6
:101220008DEC91E00E948A0A8BE791E010C0C281A8
:10123000CC2319F086E391E00AC082E391E00E949A
:101240008A0A08C0C281CC2329F084E291E00E947E
:101250008A0A01C0C1E08C2FCF91089508959C01A6
:101260003A9521153F4138F5DC01AA27B270AC014F
:10127000442754709C012227387094FF0FC090FFC0
:1012800002C080E101C080E0AB2B09F08062452BF9
:1012900009F08064232B69F080680BC0892F81706E
:1012A000AB2B09F08260452B09F08460232B09F0F9
:1012B0008860FB0109940895CF93DF93EC01805E71
:1012C0009109089710F0209719F461E97BE102C0B9
:1012D0006BE47EE1CE010E942F098C2FDF91CF912C
:1012E0000C946C1ACF93DF93EC010E94161BCE0175
:1012F000805E9109089710F0209719F468E97BE166
:1013000002C062E57EE1CE01DF91CF910C942F09FE
:10131000CF93DF93EC010E945C09CE01DF91CF9166
:101320000C94720981E008950C94D8081F93CF9310
:10133000DF9300D000D01F92CDB7DEB749835A8328
:101340006B832091A30389819A81211112C06623A6
:1013500049F00E940F24182F682F89819A810E94DA
:10136000B82303C00E94E323182F69817A81812F5B
:1013700004C00E940F2469817A810F900F900F9012
:101380000F900F90DF91CF911F910C94130BFC01E4
:10139000408151816281738184810C949609FF920E
:1013A0000F931F93CF93DF93E82FF0E0EF59F54FA2
:1013B000F490C82FC695C695C695D0E0FE01EF50B3
:1013C000F54F0491877010E0082E02C0159507951F
:1013D0000A94E2F701701127FE01EF51F54FC49115
:1013E000D0E002C0D595C7958A95E2F7C170DD2798
:1013F0000115110519F081EE0E946C1A209719F061
:1014000086EE0E946C1A8F2D0E947E1BCD2B19F048
:1014100086EE0E94161B012B41F081EEDF91CF91E9
:101420001F910F91FF900C94161BDF91CF911F918C
:101430000F91FF900895EF92FF920F931F93CF9318
:10144000DF938C01F62E8AE0E82EF8018491882340
:1014500009F459C0813009F044C0E8012196FE0129
:101460008491813041F42196FE011491812F0E94D4
:101470006C1A812F0FC0823039F4E8012296FE01E8
:1014800084910E946C1A30C0833039F4E8012296AE
:10149000FE0184910E94161B27C0843029F5E801C3
:1014A0002296FE01249180E090E030E02053310943
:1014B0002A30310560F4E89EA001E99E500D112408
:1014C000C901840F951F2196FE012491EECF00974C
:1014D00059F0EFE9FFE03197F1F700C00000019704
:1014E000F6CF0E94CF09E8018E010F5F1F4F8F2DAD
:1014F000882309F4AACFEFE9FFE03197F1F700C0A4
:1015000000008150F5CFDF91CF911F910F91FF9097
:10151000EF90089560E00C941B0A0E94D7270E9468
:10152000D225811102C00E9477260C942E090E94B8
:1015300063160E948C0E0C942E0D08950C949D0A37
:1015400081E008950C94A00ACF93C82F0E949E0AB0
:101550008C2F0E94A20ACF91089508950E94731EB5
:101560000E94AD0A2FEF84E39CE021508040904020
:10157000E1F700C000000C94B1270F931F93CF93A5
:10158000DF93EC010E94C7098C01BE010E94C015C7
:10159000BE01C8010E9494098823D9F1BE01C80187
:1015A0000E9407168823A9F1BE01C8010E94B80E47
:1015B000882379F1BE01C8010E945F17882349F191
:1015C000BE01C8010E94A017882319F1BE01C801FD
:1015D0000E94CB188823E9F0BE01C8010E94C514FF
:1015E0008823B9F08A81882369F001158CE51807F2
:1015F00031F00E3D1C4531F40E9477260AC00E944E
:10160000AE0A07C0CE01DF91CF911F910F910C94CC
:10161000920980E0DF91CF911F910F91089580E0B2
:1016200090E0089508952CE2829FC0011124FC01EE
:101630002BE0729FE00DF11D1124E60FF11DEE0F5E
:10164000FF1FEF5AF74F859194910895880F991FC6
:10165000FC01EF5FF44F859194910895CF93DF9350
:101660000E94130B0E94460CEC018115904508F076
:1016700041C0C11580E4D80708F0D1C0C83ED105EB
:1016800010F5C03ED10508F0FDC0C83AD10578F488
:10169000C53AD10508F0A2C0C130D10509F4F2C0A5
:1016A00008F4EEC0C430D10508F0ECC0E9C0CF3B6F
:1016B000D10508F49BC0C03CD10508F4E1C0CE01BF
:1016C000805C91099EC0C11590E2D90758F4C115FC
:1016D00021E0D20708F0D6C0C03FD10508F4D0C041
:1016E000D065D0C0C11580E3D80708F08EC0CE0108
:1016F0009F7087C0C11595E5D90708F043C0C11593
:1017000024E5D20708F0A2C0C11582E5D80708F584
:10171000C11591E5D90708F085C0CE0174E0969512
:1017200087957A95E1F783709C2F937021E030E0E4
:1017300002C0220F331F9A95E2F73C68382BCF7016
:10174000C695C69580E2C89FE0011124C22BD32B19
:1017500099C09E01237033278C2F86958695C115DD
:10176000D34508F064C0C1E0D0E002C0CC0FDD1F5B
:101770002A95E2F720E2829FC0011124C82BD92BC1
:10178000DC6880C0C11529E5D207A0F4C11588E541
:10179000D80708F060C0C11596E5D90708F070C0F9
:1017A0008C2F0E94DA0C8F71C82FD0E0DC2FCC2751
:1017B000D06268C0C1152AE5D20708F451C0CE0135
:1017C00090568115904208F05BC08D2F8F710E945A
:1017D000DA0CDD27D0628F71D82B54C0C55AD0E007
:1017E000C55FDC4FC881D0E0D0644CC0C85AD0E09F
:1017F000CC0FDD1FC352DD4F0990D881C02DD464BA
:1018000041C00E94260BEC013DC0CE019927D3FFB9
:1018100003C0EC01D86C36C0EC01D06C33C0DF7073
:10182000D06A30C0DC2FCC27C16FD06A2BC0C1E09A
:10183000D0E002C0CC0FDD1F2A95E2F720E2829FA4
:10184000C0011124C82BD92BDA681CC0DC2FCC278F
:10185000C46FD06A17C0DC2FCC27C06FD06A12C00B
:101860008C2F8F700E94DA0C94E0D695C7959A95CC
:10187000E1F7CF70D0E0DC2FCC27D069C82B02C0B5
:10188000C0E0D0E0CE01DF91CF910895823891057C
:1018900069F1B0F48133910509F46DC048F48932DF
:1018A000910509F463C08A32910509F469C008956D
:1018B0008533910509F455C089339105B9F0089530
:1018C000833E910569F138F4803E9105B1F0823E86
:1018D000910509F10895863E9105A9F1873E91058C
:1018E000B9F1843E910509F064C023C020916B04D6
:1018F00020FD4FC021FD4DC0089580916B0480FDF7
:1019000044C080916C0480FF44C080916B0484FDCE
:1019100042C083EE4DC080916B0482FF38C0F5CF8A
:1019200080916B0482FD33C080916C0480FD31C0D6
:10193000ECCF80916C0481FF32C080916B0484FDF8
:101940002AC087EE35C080916B0483FF26C0F5CF97
:1019500080916B0483FD21C080916C0481FD1FC0C8
:10196000ECCF80916B0485FD1CC01DC080916B0481
:1019700085FD19C016C080916B0486FD16C017C086
:1019800080916B0486FD13C010C089E311C082EE04
:101990000FC080EE0DC080E00BC086EE09C084EE63
:1019A00007C089E205C085E303C08AE201C081E384
:1019B00090E0089590916B0492FF0DC0282F28713C
:1019C000283019F4877F846006C0282F24712430C2
:1019D00011F48B7F886093FF0DC0282F2871283168
:1019E00019F4877E846106C0282F2471243111F4F4
:1019F0008B7E886120916C0420FF0DC0382F3871D8
:101A0000383019F4877F816006C0382F317131304A
:101A100011F48E7F886021FF0DC0282F2871283196
:101A200019F4877E816106C0282F2171213111F4BC
:101A30008E7E886194FD877E0895E82FF0E0EE0F9A
:101A4000FF1FE95CFB4F808191810895089580EA32
:101A50008A95F1F7089508950C942B0D0C942C0D94
:101A6000CF93DF93A9E1B3E04DE153E061E070E093
:101A70008D91E82FE295EF70F0E021A18F70EB01DE
:101A800002C0CC0FDD1F8A95E2F7CE019C2F909506
:101A9000922391A392A1892B82A34A175B0741F756
:101AA000AEE0B3E041E050E08D91E82FE295EF70B9
:101AB000F0E021A18F70BA0102C0660F771F8A95EE
:101AC000E2F7CB01962F9095922391A392A1892BB7
:101AD00082A373E0A931B70739F71092300410924E
:101AE0002F0410923804109237041092320410928E
:101AF000310410923A041092390410923404109276
:101B0000330410923C0410923B041092360410925D
:101B1000350410923E0410923D0484E00E94310E80
:101B2000DF91CF910C948D0A2F923F924F925F924A
:101B30006F927F928F929F92AF92BF92CF92DF92DD
:101B4000EF92FF920F931F93CF93DF9389E1C82EFB
:101B500083E0D82E0FE214E097E3492E94E0592E4B
:101B6000312C88248394912C5801D8016D907C905D
:101B700011971D921C92F60181916F01C82FC29599
:101B8000CF70D0E099A18F70740101C0EE0C8A95DE
:101B9000EAF7892F8E2989A38AA12E2C20948221ED
:101BA0008AA30E94270DEEE0F3E020E030E061918F
:101BB000A62FA295AF70B0E090968C91D8014D9170
:101BC0005C9190E06F7002C0959587956A95E2F7F9
:101BD00080FD08C0C401022E02C0880F991F0A941C
:101BE000E2F702C080E090E0482B592BD8014D93DA
:101BF0005C932F5F3F4F2B303105C9F689A1282216
:101C000029A28AA1E82AEAA20E5F1F4F81E0F5010E
:101C1000208131812615370509F480E0382A4016E5
:101C2000510609F0A1CF232D44E067E374E08FE271
:101C300094E00E94320E0E94970A832DDF91CF918B
:101C40001F910F91FF90EF90DF90CF90BF90AF90DA
:101C50009F908F907F906F905F904F903F902F90CC
:101C600008950895FF920F931F93CF93DF93F82E5B
:101C7000092F162FD72FC42F222349F081E08093FC
:101C80006A030E94552790936903809368038091AB
:101C90006A038823D9F080916803909169030E94B8
:101CA0006127069798F0EF2DF02FA12FBD2F80E030
:101CB00090E04C2F50E08417950734F42191319136
:101CC0002D933D930196F7CF10926A03DF91CF9148
:101CD0001F910F91FF900895CF9390917B039923CB
:101CE000C9F0882311F0C0E003C010927B0312C03A
:101CF00080917B03C817C8F7EC2FF0E0EE0FFF1FB1
:101D0000E559FC4F808191810E945C090E94412528
:101D1000CF5FEECFCF9108958091B602882399F0DE
:101D200080917C03882379F080917F0390918003D8
:101D3000009749F00E9461274A9728F010927C038F
:101D400081E00C946C0E089510927C031092B60200
:101D50001092800310927F0381E00C946C0E8091AE
:101D6000B60281110C94A40E81E08093B60208950E
:101D70005F926F927F928F929F92AF92BF92CF921B
:101D8000DF92EF92FF920F931F93CF93DF938C011B
:101D90007B0110927D03873F2CE5920741F4FB0104
:101DA000C281CC23C9F081E08093B6020AC1883F8A
:101DB000FCE59F0739F4FB01C281CC2369F00E9446
:101DC000A40EFFC0893F9C4539F4FB01C281CC239E
:101DD00019F00E94AF0EF5C08091B602882309F475
:101DE000EFC010927E03AA24A394B12C95E0992E03
:101DF000C1E0D0E08824839480917E03823008F093
:101E0000A1C0C82ED12C9C9CF0019D9CF00D1124EA
:101E1000E455FD4F4081518177247A9490E0FA0196
:101E2000E90FF11DE90FF11D2591349102171307F8
:101E300009F4792E232B11F09F5FF1CFFFEF7F1272
:101E400002C0612C66C050907C03F701628066205E
:101E500069F19C9CF0019D9CF00D1124E455FD4F0F
:101E60009E0101C0220F7A94EAF73481232B248348
:101E7000552039F3AE0102C0440F551F9A95E2F781
:101E80004150510930E04217530709F042C0228106
:101E900033812115310521F0C9010E945C0903C07D
:101EA00061E00E945A0880927D0333C09E0102C007
:101EB000220F331F9A95E2F7215031099C9CF001C3
:101EC0009D9CF00D1124E455FD4F448150E02417F2
:101ED000350769F4228133812115310521F0C901CB
:101EE0000E94720905C060E00E945A0801C0512C8E
:101EF0009C9CF0019D9CF00D1124E455FD4FCE01FA
:101F000001C0880F7A94EAF78095948189238483AD
:101F1000652CB628AA2069F09C9CF0019D9CF00DD0
:101F20001124E455FD4F91E08481811190E0892FC7
:101F300001C080E08170A82E80917E038F5F809326
:101F40007E035ACF80917D03882351F00E9455274C
:101F50009093800380937F0380E00E946C0E2CC0DE
:101F6000B1100DC081E00E946C0EAA2029F11092E0
:101F7000800310927F0381E080937C031DC0F701F2
:101F800082818823C9F080917C038823A9F00E9474
:101F900055279093800380937F03E0917B03E83083
:101FA00058F481E08E0F80937B03F0E0EE0FFF1F6B
:101FB000E559FC4F1183008381E0CB2DC82701C078
:101FC000C1E08C2FDF91CF911F910F91FF90EF9087
:101FD000DF90CF90BF90AF909F908F907F906F9049
:101FE0005F900895EF92FF920F931F93CF93DF932B
:101FF000F62E472FE82FF0E0711106C0E05FF34F97
:102000006491762F862F72C0272F30E0E05FF34F68
:10201000E4910E2F10E056E0659FC0011124CFEF30
:10202000D0E0BE010E949F315BEA5603C001579F7A
:10203000900D11248F0D911D8F0D911D982F990FCB
:10204000890F7E01E21AF30AE09ED001E19EB00DF5
:10205000F09EB00D1124489FA0011124452F552753
:102060007E01E41AF50AE09EA001E19E500DF09E6B
:10207000500D11247E01E81AF108E29EC001E39E92
:10208000900DF29E900D1124892F9927C81BD90B12
:10209000C09FC001C19F900DD09F900D1124623050
:1020A000710591F048F461157105E1F06130710539
:1020B000A9F48B2F752F19C06430710561F038F0C9
:1020C0006630710579F00AC0892F7B2F0EC08E2FE4
:1020D0007B2FE52F0AC08E2F792F02C0852F7E2FF0
:1020E000EB2F03C08B2F7E2FE92F6E2FDF91CF9127
:1020F0001F910F91FF90EF9008950895CF93DF9374
:10210000762FE901682F842F0E94F20F798368836C
:102110008A83DF91CF91089580913F04282F2695DF
:1021200030E02115310519F48170826005C02A3133
:10213000310524F08170826380933F04089588E024
:1021400090E00C94EE31CF92DF92EF92FF926B0110
:102150007C010E948C10B701A60188E090E0FF90FE
:10216000EF90DF90CF900C940C32EFE3F4E083E03B
:10217000808311828FEF82838383148260817181D7
:10218000828193810C94A31080913F0480FF02C050
:102190008695089580E0089580914304833018F473
:1021A0008F5F8093430460913F047091400480915D
:1021B0004104909142040C94A3108091430488231D
:1021C00019F081508093430460913F047091400462
:1021D00080914104909142040C94A3106091BB0241
:1021E00070E080913F0480FF0AC08091840323E067
:1021F000829FC00111248C5B9B4F0C94E816809148
:1022000083039091BA02891780F7E82FF0E09F01CD
:10221000220F331FE20FF31FEC5BFB4F1182108282
:1022200012828F5FF0CF90913F0490FF16C0909183
:1022300083032091BA02921770F4E92FF0E0DF01D6
:10224000AA0FBB1FEA0FFB1FEC5BFB4F8183608370
:1022500042839F5FF0CF0C94EE100895CF93DF93ED
:1022600000D01F92CDB7DEB790913F0490FF0AC017
:102270009E012F5F3F4F0E947E104B8169818A81B2
:102280000E9413110F900F900F90DF91CF9108953E
:10229000CF93DF93EC01EC81F0E0E55FF44F4491E4
:1022A000EFE3F4E0628181810E942E118C818F5FC7
:1022B0008C83DF91CF910895AF92BF92CF92DF923E
:1022C000EF92FF920F931F93CF93DF9300D01F9253
:1022D000CDB7DEB7082FF62E142FE22E80913F04E3
:1022E00080FF66C0E82FE695AE2FB0E0A35EBC4F3E
:1022F0009C9190938C038E7F823061F49E012F5FBE
:102300003F4F802F0E947E104B8169818A810E94FD
:1023100013113CC0923019F41091420437C09F3021
:10232000A9F5EF508E2F8170D82EE695F0E0E55F8D
:10233000F34FA590B490C12CBB246091B902C6168E
:1023400018F52C2D30E0A29EC001A39E900DB29EE8
:10235000900D112470E00E949F31802FD11002C097
:10236000860F01C0861B90918303290F311DA9019F
:10237000440F551F240F351F2C5B3B4F412F6F2DF2
:102380000E947E10C394D9CF0E94EE1000934004A7
:10239000F092410410934204EE2051F060913F040A
:1023A0007091400480914104909142040E94A310D6
:1023B0000F900F900F90DF91CF911F910F91FF9091
:1023C000EF90DF90CF90BF90AF900895EFE3F4E0EF
:1023D0009181282F438162818FE0890F0C945C11D9
:1023E00081E00C94E611EFE3F4E09181282F438122
:1023F000628181EF890F0C945C1181E00C94F311E0
:10240000EFE3F4E0628121E1620F08F46FEF282F1F
:10241000438181810C945C1181E00C940012EFE304
:10242000F4E0628121E1621B08F460E0282F43811F
:1024300081810C945C1181E00C940F12EFE3F4E0C5
:10244000438121E1420F08F44FEF282F62818181FF
:102450000C945C1181E00C941E12EFE3F4E04381D4
:1024600021E1421B08F440E0282F628181810C9415
:102470005C1181E00C942D1220E00C945C11AF9261
:10248000BF92CF92DF92EF92FF920F931F93CF9361
:10249000DF93FC01828180FF02C00FEF01C001E0E9
:1024A00010E04BE0A42E8091B902181708F043C049
:1024B00080918303C12ED12CE601C80FD11DCE011E
:1024C000880F991FC80FD91FCC5BDB4F1982188268
:1024D0001A8234E0E32EF12CB12C809182038B0D13
:1024E0008C302CF06A2D0E949131892F05C087FF16
:1024F00003C09091B902890F082E000C990BC816E1
:10250000D90691F4809142048E9DA0018F9D500DBB
:10251000112455954795559547959E016091410425
:10252000809140040E947E10B00EF1E0EF1AF10895
:10253000A1F61F5FB8CF0E94EE1080918203013098
:1025400031F4811102C08091B902815007C090E03E
:1025500001966091B90270E00E94B33180938203CA
:10256000DF91CF911F910F91FF90EF90DF90CF906F
:10257000BF90AF900895CF93809183039091BA025A
:10258000891770F4E82FF0E09F01220F331FE20F4C
:10259000F31FEC5BFB4F1182108212828F5FF0CF32
:1025A000C0E06091B902C617C0F5EC2FF0E070E012
:1025B000CF010E94B33120918303820F20918103C8
:1025C000022E000C330B90E0E217F307CCF02091C1
:1025D000B802022E000C330B2E173F078CF09C0123
:1025E000220F331F820F931F9C012C5B3B4F4091A6
:1025F000420460914104809140040E947E100BC00F
:10260000FC01EE0FFF1F8E0F9F1FFC01EC5BFB4FC9
:10261000118210821282CF5FC4CF0E94EE102091EF
:10262000B70280918103820F809381039091B80259
:10263000920F9093B80219165CF4082E000C990BB7
:102640004091B90250E041505109841795071CF0A0
:1026500021952093B702CF9108950F931F93CF93A5
:10266000DF93EC0100E010E08091B902282F30E008
:102670000217130724F5909183039801290F311D48
:10268000A901440F551F240F351F2C5B3B4F869526
:1026900090E04C81081719071CF4442331F002C064
:1026A000411103C04091420401C040E060914104E7
:1026B000809140040E947E100F5F1F4FD5CF0E9473
:1026C000EE108C8190E00196817099278C83DF91C8
:1026D000CF911F910F910895EFE3F4E080818E7FF9
:1026E000808360817181828193810E94A310109206
:1026F0008D032FEF80E792E0215080409040E1F77A
:1027000000C000000C94EE1060913F04669570E0EC
:102710004BE050E08CEB92E00E94D931892B19F408
:1027200081E080938D030E945527909386038093C8
:102730008503089590913F0490FF35C091708111F9
:1027400002C0926006C08A3110F0926302C0880F06
:10275000982B90933F04662351F060913F04709151
:10276000400480914104909142040E94A310609122
:102770003F04669570E04BE050E08CEB92E00E94E5
:10278000D931892B19F010928D0302C00E94841355
:1027900081E08093880340914204609141048091DC
:1027A00040040C943C120895682F90913F04969534
:1027B00081E0890F8A3108F081E00C949A1381E05E
:1027C0000C94D413682F90913F0496958FEF890F46
:1027D00009F489E10C949A1381E00C94E21361E00E
:1027E0000C949A13EFE3F4E08081816080838695F6
:1027F0000C94EF1380913F0480FD0C946C130C94A7
:10280000F21360E00C949A1380918B0381112EC017
:102810000E94D225811104C00E9477260E94B51023
:102820000E949F1060933F04709340048093410482
:10283000909342046E7F61F40E94B5100E949F1035
:1028400060933F047093400480934104909342044A
:102850000E948C1010928D0380913F0480FF03C072
:1028600086950E94011481E080938B0308950F9355
:102870001F93CF93DF9380918D03882309F465C064
:1028800080918C03E0913F04E695E81BE093870379
:10289000823049F4F0E0E95FF44FE491CE2FD0E0CC
:1028A00008E411E122C0863051F4E695F0E0EC5FD7
:1028B000F44FE491CE2FD0E00FE312E116C08C303C
:1028C00049F4F0E0EF5FF44FE491CE2FD0E00BEB52
:1028D00012E10BC0893129F4C4EFD1E00DE213E11C
:1028E00004C0C0EDD7E00DE710E180918803882394
:1028F00089F0109288030E9455279E0120953095FB
:10290000820F931F909386038093850310928A030E
:102910001092890380918503909186030E9461271C
:102920008C179D0790F0E0918503F0918603CE0F00
:10293000DF1FD0938603C093850385E893E0F801F9
:10294000DF91CF911F910F910994DF91CF911F914A
:102950000F910895882311F0FA0101C0FB01099439
:10296000CF93DF93C82FD62F0E94C4108C1740F04E
:102970000E94C4108D1720F4DF91CF910C94DF13C7
:102980008C2FDF91CF910C94EF130F931F93CF9364
:10299000FB01C281CC2309F458C08C010E94E124C0
:1029A0008272F801E25CFC45E431F10508F050C0A8
:1029B000EA5AFF4F0C94C7310E94FA1348C04CEEFC
:1029C00053E16FED73E12CC04FED53E16CEE73E119
:1029D00027C04DEF51E160EF71E122C040EF51E1BE
:1029E0006DEF71E11DC04BE152E16CE072E118C086
:1029F0004CE052E16BE172E113C049E352E16AE25B
:102A000072E10EC04AE252E169E372E109C04DEDA4
:102A100050E16CEC70E104C04CEC50E16DED70E104
:102A20000E94AA1414C081E00E94EF1310C065E058
:102A300082E008C06BE086E005C06EE08CE002C07A
:102A400068E18FE00E94B01402C0C1E001C0C0E0A4
:102A50008C2FCF911F910F910895CF93DF93EC01AD
:102A600081E0898B8F810E94E42488850E94F7246D
:102A70000E944125EA81FB81CE010696309729F01C
:102A80006C897D89DF91CF910994DF91CF91089571
:102A9000CF93DF93FC012081223041F4FB01EC0154
:102AA000828193810E945C0981E08B87DF91CF91C5
:102AB0000895FC018081813021F4FB0180819181A6
:102AC00005C0823029F4FB01828193810C945C095A
:102AD0000895FC018081813021F4FB018081918186
:102AE00005C0823029F4FB01828193810C94720924
:102AF0000895EF92FF920F931F93CF93DF93FC0102
:102B00002285211136C0EC01E380F480F7E5FF1A3D
:102B100026E12E9DC0012F9D900D1124DC01A050B7
:102B2000BF4F1496ED91FC9115978A5F9E4F309799
:102B300029F054966D917C915597099586E18E9D6B
:102B400080018F9D100D112400501F4FF8018781C7
:102B50000E94EA24F80180850E94FD240E944125FC
:102B6000188219861B861E821D8210928F03109276
:102B70008E03DF91CF911F910F91FF90EF900895F9
:102B8000DF92EF92FF920F931F93CF93DF93FB019E
:102B900022812223A1F12091C7022F3F81F18C01D4
:102BA000C0E0D1E0E12CF12CDD24D3948091C70268
:102BB000082E000C990B8E159F050CF18E81882331
:102BC000C9F089859A858017910739F480918E0321
:102BD00090918F030817190769F0DF861C870B8710
:102BE0008989811103C0CE010E942D15CE01069660
:102BF0000E947915FFEFEF1AFF0A6696D7CFDF9193
:102C0000CF911F910F91FF90EF90DF900895EF9279
:102C1000FF920F931F93CF93DF939C0137552F3F64
:102C2000310511F008F047C04091C702042E000C96
:102C3000550B4217530714F42093C702FB017C0184
:102C4000828196E1929F8001939F100D1124E801EB
:102C5000C050DF4F888B92818E81992311F1FA86C3
:102C6000E9868F5F8E830E9455279E878D870E94FD
:102C700017258F830E94E12488870E94F424988579
:102C8000892B8887E881F981C8018A5F9E4F309738
:102C900019F06C897D890995F0928F03E0928E037B
:102CA0000AC0882341F08989882329F0C8018A5FF6
:102CB0009E4F0E94791581E0DF91CF911F910F9176
:102CC000FF90EF900895CF92DF92EF92FF920F93D3
:102CD0001F93CF93DF938091C7028F3FF1F1F12CC7
:102CE00096E1E92E0F2D10E08091C702082E000C0E
:102CF000990B801791078CF1E09EF001E19EF00D99
:102D00001124E050FF4FC288D388C114D10419F4B4
:102D100088ECC82ED12CE09EE001E19ED00D11245C
:102D2000C050DF4F8E818823B1F08D859E850E9433
:102D30006127C816D90678F48989811103C0CE01AC
:102D40000E942D15E09EC001E19E900D11248A5F26
:102D50009E4F0E947915F394C5CFDF91CF911F91BB
:102D60000F91FF90EF90DF90CF9008952BB1342F0B
:102D7000309523233BB1432B3FB7F894FC01680FF8
:102D8000791FE617F70789F0819198E04BB90000A9
:102D900000C087FF2BB9880F000000C000C000C032
:102DA0002BB900C09A9591F7ECCF3FBF08952AB197
:102DB000242B2AB99B01220F331F620F731F0E941D
:102DC000B61687EC90E00197F1F700C00000089577
:102DD00040E80C94D7160F931F93CF93DF93C62F21
:102DE000D42F122FFC0182818823C9F060939203B3
:102DF0000E945527909391038093900380E28C0F5B
:102E0000883008F057C0C77081E001C0880FCA95AC
:102E1000EAF7DF91CF911F910F910C94911B809154
:102E20009203681330C080919003909191030E94A7
:102E30006127883C910538F500E20D0FCD17B9F0F8
:102E400080E28C0F883040F4C77081E001C0880FA9
:102E5000CA95EAF70E94981B083028F581E09D2F5B
:102E6000977001C0880F9A95EAF70E94911B812FF5
:102E70000E947E1B0830F0F4D77081E001C0880FFB
:102E8000DA95EAF70AC080E28C0F883098F4C770B0
:102E900081E001C0880FCA95EAF7DF91CF911F91B9
:102EA0000F910C94981B812FDF91CF911F910F915F
:102EB0000C947E1BDF91CF911F910F9108959C017F
:102EC000CB01233F4CE53407F9F078F4283DFCE5CD
:102ED0003F07B9F0293D4CE5340711F1273D3C454A
:102EE00031F526E241EE61EE1EC0253FFCE53F07CD
:102EF00099F070F0263F3C45D1F427E245EE66EEAE
:102F000012C027E245EE0EC026E241EE60EE0BC095
:102F100027E245EE64EE07C026E241EE62EE03C012
:102F200028E241E065EE0E94EB1680E00895FC0186
:102F30008281882319F010929203089581E0089508
:102F4000CF93DF93EC01FB018281882309F41FC139
:102F5000C230FCE5DF0708F41BC1C6319CE5D90788
:102F600038F09E012A5F3C452930310508F010C138
:102F70000E94EA2590936C0480936B04C031ECE5C9
:102F8000DE0709F4C3C008F041C0C8308CE5D8079B
:102F900009F49AC0F0F4C430ECE5DE0709F487C008
:102FA00068F4C2308CE5D80709F477C0C330DC453B
:102FB00009F0E3C080916B04826076C0C630ECE516
:102FC000DE0709F46EC008F07BC080916B04886056
:102FD0006BC0CC308CE5D80709F485C068F4CA30E2
:102FE000ECE5DE0709F474C008F079C00E94731E96
:102FF00080916B04806858C0CE308CE5D80709F406
:1030000076C008F07FC080916B048BC0CB3FECE5AD
:10301000DE0709F44FC018F5C3318CE5D80709F471
:103020007DC078F4C131ECE5DE0709F473C0C2312C
:10303000DC4509F0A2C00E94731E80916B048F775B
:1030400033C0C5318CE5D80709F472C008F486C0D6
:10305000CA3FDC4509F091C080916C043EC0CF3F6F
:10306000FCE5DF0709F45FC058F4CD3F9CE5D907C4
:1030700009F444C008F43FC080916C0482602DC004
:10308000C130FDE5DF0709F475C008F45DC0C2304A
:10309000DD4509F072C080E06EC080916B048160F4
:1030A00003C080916B04806180936B0466C0809143
:1030B0006B0411C080916C04826080936C045DC0CD
:1030C00080916B048062F0CF80916B048064ECCFC0
:1030D00080916B0488608460E7CF8160EECF80913F
:1030E0006B048E7FE1CF80916B048D7FDDCF80916B
:1030F0006B04877FD9CF80916C0418C080916C04D9
:103100008D7FDBCF80916B048F7ECECF80916B045F
:103110008F7DCACF80916B048F7BC6CF80916B046B
:10312000877F8B7FC1CF80916C048D7F8E7FC5CFD1
:1031300080916B0482FB222720F991E0922790FB7B
:1031400082F990FB83F9B0CF80916C04982F909511
:1031500091708E7F892B90FB81F9AFCF0E94731EF7
:1031600080916B0487FB222720F991E0922790FB46
:1031700087F99ACF81E00E94792680916B04909123
:103180006C040E94FB250E94731E80E001C081E058
:10319000DF91CF910895CF93DF9386319C4571F5F0
:1031A000EB010E94E124982F917119F4982F9A7ADB
:1031B00001C090E08A812091C8023091C902882321
:1031C00079F081E0911101C080E080939303911127
:1031D00002C069E201C065E3C9010E94C0260AC0BD
:1031E00080919303811102C069E201C065E3C901C6
:1031F0000E94C2260E94412580E001C081E0DF914B
:10320000CF91089590939903809398030895E09146
:103210009803F0919903309721F00190F081E02D0F
:10322000099480E00895E0919803F0919903309714
:1032300021F00280F381E02D09940895E091980334
:10324000F0919903309739F022E0DC012C9304804F
:10325000F581E02D0994089520919603309197030C
:103260002817390771F09093970380939603E091A4
:103270009803F0919903309721F00680F781E02DB3
:1032800009940895209194033091950328173907E4
:1032900071F09093950380939403E0919803F091DB
:1032A0009903309721F00084F185E02D0994089569
:1032B00085B7806885BF85B7806885BF0895089504
:1032C0000C945F190C9460190C945F190C945F199D
:1032D0000E9458190E9464190C94621981E00895A3
:1032E0000E944C270E94300D0E94EB270E9404147C
:1032F0000C9466197F928F929F92AF92BF92CF9259
:10330000DF92EF92FF920F931F93CF93DF93CDB78E
:10331000DEB72A970FB6F894DEBF0FBECDBF0E946E
:10332000940D0E946E19811111C08FEF89838A83D9
:103330001B820E9455278160782F9D838C83498151
:103340005A816B818D810E942C1A4FC04BE9A42EAB
:1033500043E0B42E00E010E0702E802F0E941D0D7F
:103360006C01F501819091905F0188269926811466
:10337000910431F40F5F1F4F0430110569F7D5CF69
:103380008091140481FD0E94260D80E0EE24E394D8
:10339000F12C94012E213F21232B09F18E837F8272
:1033A000CE20DF2081E0CD2809F480E088870E94CC
:1033B00055278160782F9A8789874E815F8168853C
:1033C0008A850E942C1A000F111FF801E556FC4F48
:1033D00080819181E826F926F182E08206C08F5F24
:1033E000EE0CFF1C8B30A9F6C5CF0E9437140E944B
:1033F0007D290E94071990919A038917C9F00E94AC
:10340000071980939A032A960FB6F894DEBF0FBE71
:10341000CDBFDF91CF911F910F91FF90EF90DF9083
:10342000CF90BF90AF909F908F907F900C94A40A04
:103430002A960FB6F894DEBF0FBECDBFDF91CF91B5
:103440001F910F91FF90EF90DF90CF90BF90AF90C2
:103450009F908F907F900895CF93DF93CDB7DEB785
:103460002B970FB6F894DEBF0FBECDBF4F835887A2
:1034700069877A878B87DE01119686E0FD011192BC
:103480008A95E9F785E0FE01379601900D928A95BD
:10349000E1F70E94AF24882319F082E00E94B3254F
:1034A0000E94822481110E94332549815A816B81B7
:1034B0007C818D819E810E947D212B960FB6F89490
:1034C000DEBF0FBECDBFDF91CF910895FC0180819B
:1034D00091810E9451240895CF93882309F4A4C0B8
:1034E000C82F8238C1F40E94071981FD9DC069E38D
:1034F0008091C8029091C9020E94C0260E94412575
:103500002FEF81EE94E0215080409040E1F700C021
:10351000000069E319C0833801F50E94071980FD96
:1035200083C063E58091C8029091C9020E94C026C1
:103530000E9441252FEF81EE94E021508040904081
:10354000E1F700C0000063E58091C8029091C902D4
:103550000E94C226CF910C9441258438C1F40E9468
:10356000071982FD61C067E48091C8029091C90289
:103570000E94C0260E9441252FEF81EE94E0215049
:1035800080409040E1F700C0000067E4DDCF8CEFA1
:103590008C0F813AD0F46C2F8091C8029091C902AF
:1035A0000E948A26882349F06C2F8091C80290914E
:1035B000C9020E94C2260E9441256C2F8091C80238
:1035C0009091C9020E94C026C5CF80E28C0F88303E
:1035D00048F4C77081E001C0880FCA95EAF70E94DD
:1035E000E424B8CFEBE5EC0FE33040F4F0E0EB5926
:1035F000FC4F808190E0CF910C942C19E8E5EC0F02
:10360000E73150F4F0E0EE0FFF1FE95CFC4F8081E2
:103610009181CF910C944219C03F30F08C2F0E94C1
:103620008528CF910C947229CF910895882309F4AD
:1036300064C0823879F40E94071981FF5EC069E393
:103640008091C8029091C9020E94C0260E94412523
:1036500069E310C08338B1F40E94071980FF4DC0A0
:1036600063E58091C8029091C9020E94C0260E9421
:10367000412563E58091C8029091C9020E94C2264B
:103680000C944125843879F40E94071982FF35C0D3
:1036900067E48091C8029091C9020E94C0260E94EE
:1036A000412567E4E7CF9CEF980F913A10F4682F1B
:1036B000E1CF90E2980F983050F4877091E001C00C
:1036C000990F8A95EAF7892F0E94EA24D9CF9BE5C2
:1036D000980F933020F480E090E00C942C1998E53A
:1036E000980F973120F480E090E00C944219803FCD
:1036F00020F00E94ED280C9472290895CF93C82FD2
:103700000E946C1AC93349F42FEF87EE93E02150E1
:1037100080409040E1F700C000008C2FCF910C94C6
:10372000161B882321F00E94E4240C94412508955F
:10373000882321F00E94EA240C9441250895CF9219
:10374000DF92EF92FF920F931F93CF93DF937C0151
:10375000062FC72FFC01D581D295DF701281111180
:103760000E9404250E94DA24882379F0112369F04D
:1037700080E2800F883048F082E00E94B3250E94EA
:10378000DA2491E0D82ED92601C0D12CCC2EC294B7
:103790008FE0C8228C2D90E0FC01E659FF4F0C947D
:1037A000C7318C2F807FCF70882311F0C295C07FE6
:1037B000112399F0CC2309F4ECC180E2800F88300A
:1037C00010F0011104C08C2F0E94E42403C08C2F40
:1037D0000E94F7240E944125DCC1802F0E94161B05
:1037E000CC2309F4FCC180E2800F883010F0011175
:1037F00004C08C2F0E94EA2403C08C2F0E94FD2459
:103800000E944125ECC18C2F807FCF70803211F057
:10381000C295C07F002319F0013059F134C0112343
:10382000B1F0DD2381F0D13031F40E9417258C2BCB
:103830000E941F25D4C1D33031F40E9433258C2F30
:103840000E947F2524C00E9417258C2B21C0DD23D8
:1038500069F0D13041F40E94E1248C2309F4BFC106
:103860000E94882503C0D33009F4B9C10E943325D2
:103870001FC0112321F0D43008F0B1C108C0D330EB
:1038800008F0ADC115C0112331F0D11182C18C2FC8
:103890000E94911BA4C1DD2359F0093309F08BC1AB
:1038A000FFEF27EE83E0F15020408040E1F781C137
:1038B0008C2F0E94981B93C18C2F869586958370C0
:1038C00019F0813061F08BC1112321F0802F9C2FE2
:1038D000937002C080E090E00E942C1988C11123EF
:1038E00021F0802F9C2F937002C080E090E00E9416
:1038F00042197DC11123F9F0053F51F0063F71F0E7
:10390000043FA9F4809165049091660481600BC026
:103910008091650490916604826005C08091650481
:103920009091660484609093660480936504802F70
:103930000E9485281EC0053F51F0063F71F0043FEC
:10394000A9F480916504909166048E7F0BC08091EC
:103950006504909166048D7F05C080916504909107
:1039600066048B7F9093660480936504802F0E9489
:10397000ED280E9472293BC18C2F837009F045C04D
:10398000111131C1402F429546954770440F440FA5
:10399000602F6F70862F90E0A0E0B0E0042E04C08E
:1039A000880F991FAA1FBB1F0A94D2F704FF10C0EB
:1039B0000FE010E020E030E004C0000F111F221FD4
:1039C000331F4A95D2F7009510952095309503C086
:1039D00000E010E09801C695C695C370BC01CD010A
:1039E000602B712B822B932BC23049F058F4C130DD
:1039F00019F00E94CE22F7C00E94BC22F4C00E949F
:103A0000E022F1C00E94BA22EEC0112319F08C2FDF
:103A1000817001C08695882309F4E5C0402F429546
:103A200046954770440F440F602F6F70862F90E0CB
:103A3000A0E0B0E0042E04C0880F991FAA1FBB1F8E
:103A40000A94D2F704FF10C00FE010E020E030E04D
:103A500004C0000F111F221F331F4A95D2F7009593
:103A600010952095309503C000E010E09801C695B0
:103A7000C695C370BC01CD01602B712B822B932B9B
:103A8000C23049F058F4C13019F00E949323ABC002
:103A90000E948123A8C00E94A523A5C00E94F422F1
:103AA000A2C0CF70112339F08C2F0E941A23802FCF
:103AB0000E94911B98C0802F0E94981B8C2F0E94FF
:103AC0003B2391C0023F01F128F4003F41F0013F48
:103AD000A1F05AC0033FF9F0043F39F155C011235A
:103AE00041F0D33008F07BC08C2F8F710E9460238F
:103AF00076C0D43008F073C0F7CF112339F08C2F83
:103B00008F710E941A236BC01123C9F38C2F8F7100
:103B10000E943B2364C0112329F08C2F8F710E94D7
:103B200005235DC00E9400235AC01123C9F00E94E2
:103B30007F240E94EA240E94AB24843039F40E943E
:103B4000AA258C2F8F710E943B236CC0D33008F0C4
:103B500069C0CF718C2F0E941A2363E08C2F0DC097
:103B60000E947F240E94E424D33050F00E94AA25B2
:103B70000E94882564E08C2F8F710E94942552C08A
:103B800081E00E94B3254EC0112339F0DD2309F4F2
:103B9000B6CF802F0E946C1A22C0DD2309F4B6CF65
:103BA000093349F49FEFE7EEF3E09150E040F04035
:103BB000E1F700C00000802F0E94161B10C04C2FA0
:103BC0004F70602FC7010E940F0B0E942B220FC065
:103BD0004C2F4F70602FC7010E94120B08C088EF56
:103BE0008C0D843020F40E9407190E94A40ADD2065
:103BF000D9F00E94AB2480FD17C0F70112820E9409
:103C0000A5240E941A23C7010E941D1E0E94A524FC
:103C1000DF91CF911F910F91FF90EF90DF90CF90A8
:103C20000C943B23D12CDFCFDF91CF911F910F91CB
:103C3000FF90EF90DF90CF9008950F931F93CF9355
:103C4000DF93EC01988189812B813C81232B31F01A
:103C50008F3F31F481E09F3F19F403C081E001C040
:103C600080E080FD13C0CE010E94BD0A882371F060
:103C7000688179818A810E945C248C010E94B7232B
:103C80000E94A822B801CE010E949F1BDF91CF9114
:103C90001F910F910895882321F00E94F7240C941E
:103CA00041250895882321F00E94FD240C9441258C
:103CB00008950E9404250E9414250E9441250E9417
:103CC0009C2A0E94722980E090E00E942C1980E0DA
:103CD00090E00C9442198091C8029091C9020E9410
:103CE000C4260C94591E0E94F1240C946B1EE92FDB
:103CF000E295EF704E2F50E0FA013297EE30F10569
:103D0000B0F4E658FF4F0C94C731803F91F018F49F
:103D1000883E68F40EC0843F51F40BC0883E48F0E2
:103D2000813F29F406C093FB882780F9089580E03D
:103D3000089581E008950E9451240E94771E0895FD
:103D4000CF93DF9300D000D01F92CDB7DEB70F9096
:103D50000F900F900F900F90DF91CF910895CF9318
:103D6000DF9300D000D000D0CDB7DEB726960FB6D7
:103D7000F894DEBF0FBECDBFDF91CF9108951F93A2
:103D8000CF93DF93C091A40316E08091A503C817D9
:103D900099F0D0E01C9FF0011D9FF00D1124EA5511
:103DA000FC4F4081518162817381848195810E94A1
:103DB000AF1E2196C770E9CFDF91CF911F91089573
:103DC0004091D6035091D7036091D8037091D903E5
:103DD0008091DA039091DB030C94AF1E2091A40331
:103DE0009091A50356E02917A9F030E0529FF00109
:103DF000539FF00D1124EA55FC4F7181761306C0D4
:103E00007081781303C07281741306C02F5F3F4F17
:103E10002770E9CF80E0089581E00895CF938091E5
:103E2000DB0382958F7009F05FC08091D8038823EF
:103E300009F45AC08091A403B091A5037091D603F0
:103E4000A091D7034091D9035091DA0391E07F3FCD
:103E500009F090E0692FC6E08B1709F445C04115C1
:103E6000510521F0AF3F21F020E003C021E001C067
:103E7000262F90E020FD35C0C89FF001C99FF00DAE
:103E80001124EA55FC4F21812A132BC020812713CE
:103E900028C02281211125C02381348124173507B0
:103EA00010F421503109241B350B283C3105C8F48E
:103EB0002091DB032F7020612093DB0326E0289FF5
:103EC000F001299FF00D1124E555FC4F80818F7082
:103ED0008061808386ED93E00E941D1ECF910C943B
:103EE000BF1E01968770B8CFCF9108959F92AF9271
:103EF000BF92CF92DF92EF92FF920F931F93CF93D7
:103F0000DF93CDB7DEB761970FB6F894DEBF0FBE73
:103F1000CDBF7C0185E0F701DE011D9601900D9279
:103F20008A95E1F7D701DC9011960C9111971296C2
:103F3000CC903091D6034091D7038091D9039091D2
:103F4000DA03009731F04F3F31F421E03F3F19F49D
:103F500003C021E001C020E020FD9FC1F701A38044
:103F6000B4809090D803992009F42BC12091DB03F1
:103F7000A816B90628F0B501681B790BCB0104C05F
:103F8000809590958A0D9B1D11E0883C910590F0DD
:103F900010E0207F09F0DBC07A2DB98AA88A4D2D68
:103FA000502F6C2D89890E94A01E86ED93E00E94FF
:103FB0001D1E6BC1822F807F09F091C0041315C0B4
:103FC000D31213C01C2DC11010C02F70206120937C
:103FD000DB030E94E01E86ED93E00E941D1E80918F
:103FE000DB03D70115968C9375C1A114B10439F088
:103FF0000F3F39F481E0BFEFDB1203C003C081E063
:1040000001C080E080FD03C081E08C2502C080E01B
:1040100090E080FF15C04C2D602F8D2D0E94EE1E6C
:10402000882371F086ED93E00E941D1EE6EDF3E01B
:1040300086E0DF011D928A95E9F70E94E01E4DC0DF
:10404000AB2839F00F3F39F481E0BFEFDB1203C03A
:1040500003C081E001C080E080FD03C081E08C25C9
:1040600002C080E090E0E82FE170BE2E80FF2CC0FF
:104070004C2D602F8D2D0E94EE1E182F811124C013
:10408000DD860E878D859E850E945124292F2295DD
:104090002F70223018F0243090F405C09F7059F032
:1040A000811109C017C19F7031F0D70115969C91FD
:1040B000907F09F40FC1805E883008F40BC1C701FE
:1040C0000E941D1E1B2D06C11C2DCC2009F402C10F
:1040D0008091DB0381608093DB0310E0FBC004135D
:1040E00009C0D31207C0C11005C08091DB03F701DE
:1040F0008583A5C0DD860E878D859E850E949B1ECB
:10410000882379F1CC2069F12091DB03822F8295FD
:104110008F7090E0029774F08091D6039091D7034E
:1041200098878F831986BB86AA862C87CE0107962F
:104130000E941D1E86E0F701A6EDB3E001900D92EE
:104140008A95E1F70E940E1F0E94E01E0DC0041721
:1041500069F0DD860E878D859E850E949B1E8111EC
:1041600019C0C7010E941D1E11E0B4C0D312F1CFC7
:10417000C110EFCF8091DB03F7018583C7010E9457
:104180001D1E86E0E6EDF3E0DF011D928A95E9F75A
:10419000192DA0C0CC2029F32091DB03822F82951A
:1041A0008F7090E0029734F28091D6039091D703FC
:1041B0009A8389831B82BD82AC822E83CE010196B5
:1041C000B7CFA816B90628F0F501E81BF90BCF0107
:1041D00004C0809590958A0D9B1D883C910558F0F0
:1041E00010E07A2DB98AA88A4D2D502F6C2D89891F
:1041F0000E94A01E4AC01C2DCC2009F4B2CF04138B
:1042000033C0D31231C02091DB0320FD24C0822FA4
:1042100082958F70482F50E041155105E1F0D7018C
:1042200015962C9315974F30510549F08F5F982FB5
:104230009295907F822F8F70892B15968C93C70152
:104240000E941D1E86E0F701A6EDB3E001900D92DD
:104250008A95E1F73DC086E0F701A6EDB3E0019055
:104260000D928A95E1F736C0DD860E878D859E8595
:104270000E949B1E81115ECF8091DB038160809341
:10428000DB03C7010E941D1E25C0E6EDF3E086E0BA
:10429000DF011D928A95E9F71BC0CC2009F461CF9C
:1042A000DD860E878D859E850E949B1E182F882394
:1042B00009F457CF86E0F701A6EDB3E001900D9227
:1042C0008A95E1F786ED93E00E94661A0E940E1F20
:1042D0000E94E01E812F61960FB6F894DEBF0FBEDC
:1042E000CDBFDF91CF911F910F91FF90EF90DF90A5
:1042F000CF90BF90AF909F9008951F93CF93DF937F
:10430000CDB7DEB72C970FB6F894DEBF0FBECDBF8A
:104310004F83588769877A878B879C87CE0107965A
:104320000E94761F8823D1F09F8188852A853B854E
:10433000232B31F08F3F31F481E09F3F19F403C00C
:1043400081E001C080E080FD47C04F8158856985CC
:104350007A858B859C850E94AF1E3EC086E0FE015B
:104360003796DE01119601900D928A95E1F7FF8153
:10437000E8856A857B856115710531F0EF3F31F481
:1043800081E0FF3F19F403C081E001C080E080FDBF
:1043900023C02091A50330E0C901019687709927B9
:1043A0004091A40350E084179507F1F1F983EA8363
:1043B0007D836C8396E0929FD001939FB00D112472
:1043C000AA55BC4FFE01319601900D929A95E1F7E6
:1043D0008093A5030E94BF1E16E08091A4039091D4
:1043E000A503891771F1189FC00111248A559C4FAC
:1043F0000E94761F882329F1E091A4031E9FF001FB
:104400001124EA55FC4F408151816281738184817E
:1044100095810E94AF1E8091A40390E00196877061
:1044200099278093A403D9CF0E94731E1092A503ED
:104430001092A403E6EDF3E086E0DF011D928A9579
:10444000E9F72C960FB6F894DEBF0FBECDBFDF9113
:10445000CF911F910895EF92FF920F931F93CF93E7
:10446000DF938C01892B09F46CC0F12CEE24E394CA
:10447000E8012196F8018491843740F4843008F0F3
:1044800051C0813081F0823019F15BC0853709F469
:1044900044C0A8F19CE7980F903708F052C08F777E
:1044A0000E94161B41C00E5F1F4FFE01849190E2D7
:1044B000980F983050F48770FE2D01C0FF0F8A9539
:1044C000EAF78F2F0E94072514C00E946C1A2DC096
:1044D0000E5F1F4FFE01849190E2980F983060F4B8
:1044E0008770FE2D01C0FF0F8A95EAF78F2F0E947B
:1044F0000D250E94412519C00E94161B16C00E5F93
:104500001F4FFE01C491CC2381F08FE99FE00197FA
:10451000F1F700C00000C150F6CF0E5F1F4FFE0143
:10452000F49003C00E946C1A8E018F2D882309F429
:104530009FCFEFE9FFE03197F1F700C00000815015
:10454000F5CFDF91CF911F910F91FF90EF900895DC
:10455000089508950C94A9220C94AA220E94AC22DA
:104560006093FE037093FF03809300049093010413
:104570000C94591E0C94AE220F931F930091FE03CE
:104580001091FF032091000430910104602B712BE6
:10459000822B932B1F910F910C94AE220F931F939C
:1045A0000091FE031091FF0320910004309101045B
:1045B00060237123822393231F910F910C94AE22C9
:1045C0000F931F930091FE031091FF0320910004AD
:1045D0003091010460277127822793271F910F9143
:1045E0000C94AE220C94A9220E94F2226093FA034A
:1045F0007093FB038093FC039093FD030C94591E6E
:1046000060E070E0CB010C94F4220F931F9341E023
:1046100050E060E070E08A019B0104C0000F111FB0
:10462000221F331F8A95D2F7C901B8011F910F913C
:104630000C94F4220F931F9341E050E060E070E08F
:1046400004C0440F551F661F771F8A95D2F78091CB
:10465000FA039091FB03A091FC03B091FD038A0142
:104660009B01082B192B2A2B3B2BC901B8011F9149
:104670000F910C94F4220F931F9341E050E060E0FF
:1046800070E004C0440F551F661F771F8A95D2F74C
:1046900040955095609570958091FA039091FB0339
:1046A000A091FC03B091FD038A019B01082319230B
:1046B0002A233B23C901B8011F910F910C94F422C6
:1046C0000F931F9341E050E060E070E004C0440F9E
:1046D000551F661F771F8A95D2F78091FA03909134
:1046E000FB03A091FC03B091FD038A019B01082705
:1046F00019272A273B27C901B8011F910F910C9454
:10470000F4220F931F930091FA031091FB03209161
:10471000FC033091FD03602B712B822B932B1F9197
:104720000F910C94F4220F931F930091FA031091B0
:10473000FB032091FC033091FD036023712382234E
:1047400093231F910F910C94F4220F931F930091C8
:10475000FA031091FB032091FC033091FD036027C5
:104760007127822793271F910F910C94F4220895AB
:104770002BE0929F800D1124E82FE695E695E695B3
:10478000877051E001C0550F8A95EAF785E0E89FF0
:10479000F0011124E452FC4F20E030E070E0408151
:1047A000CB01022E02C0969587950A94E2F781709C
:1047B000819584278523842781932F5F3F4F253060
:1047C000310569F708952BE0929F800D1124682F21
:1047D000669566956695982F977085E0689FB001FD
:1047E000112440E050E080E0FB01E40FF51FE452AB
:1047F000FC4F208130E0092E02C0369527950A949F
:10480000E2F721703327042E01C0220F0A94EAF741
:10481000822B4F5F5F4F4530510531F70895BF92AE
:10482000CF92DF92EF92FF920F931F93CF93DF937C
:104830008C01C090FA03D090FB03E090FC03F09051
:10484000FD038091FE039091FF03A0910004B091BD
:104850000104C82AD92AEA2AFB2ACFE1D0E0D701ED
:10486000C6010C2E04C0B695A795979587950A9416
:10487000D2F780FD04C0219790F7B12C07C0BC2E61
:10488000B8018C2F0E942E0B0197A9F38B2DDF917D
:10489000CF911F910F91FF90EF90DF90CF90BF903D
:1048A0000895CF93DF93EC010E940F24BE010E9474
:1048B0002E0BDF91CF9108951F93CF93DF93EB01E0
:1048C0009091A303992321F0CB010E94512413C09E
:1048D000882349F0CB010E940F24182F682FCE01A6
:1048E0000E94B82304C0CB010E94E323182FBE010D
:1048F000812F0E942E0BDF91CF911F9108958091FF
:10490000070408950E94552720910504309106045C
:104910008217930750F00E9455272091050430918B
:104920000604821B930B9C010AC00E94552720910C
:1049300005043091060420953095280F391F81E039
:104940002E3E324008F480E008958091040485955D
:1049500085958595089580910404877008950E9437
:104960005527209102043091030482179307A8F081
:104970000E9455272091020430910304821B930B5F
:104980008E3E924010F480E013C08091040482FBBC
:10499000882780F991E089270BC00E945527209134
:1049A00002043091030420953095820F931FE8CFC5
:1049B0008170089590910404977081E009F480E07B
:1049C000089580911304089590911304892B809386
:1049D0001304089580959091130489238093130400
:1049E00008951092130408958091120408959091EF
:1049F0001204892B809312040895809590911204DB
:104A000089238093120408951092120408959091BE
:104A10001104892B809311040895809590911104BD
:104A200089238093110408951092110408958091B0
:104A30000804089508950C941A250C941B25CF930F
:104A400090910804981769F0C82F0E9455279093F9
:104A5000060480930504C09308048C2FCF910C9416
:104A60001D25CF91089580910804882349F0109264
:104A70000804109206041092050480E00C941D2591
:104A80000895E091C802F091C902809113048083D7
:104A9000E091C802F091C902908180911204892BA3
:104AA0008083E091C802F091C90290818091110445
:104AB000892B8083809108048823B9F00E94822486
:104AC00081110E943325E091C802F091C9029081C2
:104AD00080910804892B80838091C8029091C9023B
:104AE0000E947E2681110E9433258091C8029091F8
:104AF000C9020C9413190C941A250C947B259091DF
:104B00000704981721F0809307040C947D250895DD
:104B100080910704882329F01092070480E00C9408
:104B20007D2508950C941A2598E0899F9001112401
:104B3000262B209304040E941A230E945527909349
:104B400003048093020480910404859585958595DE
:104B50000C94922510920404109203041092020403
:104B600080E00C9492252091040480958223809308
:104B70000404982F977079F430E0482F082E000C29
:104B8000550B2417350739F08595859585950E9435
:104B90003B230C94AA2508956FEF7FEF80E090E00F
:104BA0000C94183280E090E00E94F43121E08C3EB9
:104BB0009E4F09F020E0822F089582E090E00C944F
:104BC000E63183E090E00C94E631682F83E090E0DA
:104BD0000C94FA31CF9384E090E00E94E631C82F24
:104BE00081E290E00E94E6312C2F30E0A901582BA1
:104BF000CA01CF910895CF93C92F682F84E090E028
:104C00000E94FA316C2F81E290E0CF910C94FA313E
:104C1000AB01BC018FE090E00C940C32AB01BC0105
:104C200083E190E00C940C3260E070E0CB010C94D6
:104C30000E2660E070E0CB010E9408260C9414263A
:104C40006CEE7EEF80E090E00E94183260E082E03F
:104C500090E00E94FA3160E083E090E00E94FA3137
:104C60001092FE031092FF031092000410920104B0
:104C700060E084E090E00E94FA3160E081E290E040
:104C80000E94FA3160E085E090E00E94FA3160E035
:104C900086E090E00E94FA316FEF87E090E00E949A
:104CA000FA3140E050E0BA0188E090E00E940C3216
:104CB00060E08DE090E00E94FA3140E050E0BA01FF
:104CC00088E190E00E940C3260E087E190E00E9471
:104CD000FA3140E050E0BA018CE190E00E940C32E1
:104CE00060E080E290E00E94FA310C9419260C9466
:104CF0002026682F8EE090E00C94FA31FC01329669
:104D000097E080E0915029F021912223D9F38F5F21
:104D1000F9CF0895662349F0FC0132960896219157
:104D2000621729F0E817F907D1F780E0089581E0CC
:104D300008959C01FC0132969FEF80E04191461757
:104D400089F09F3F19F4411101C0982F8F5F863081
:104D5000A9F79F3F39F0F901E90FF11D97FDFA9589
:104D60006283089508959C012A5F3F4FFC014281B0
:104D7000461301C01282019682179307B9F708956E
:104D80000C9499260C94B326029626E0FC0111920D
:104D90002A95E9F7089508950C94CB260C94CB2618
:104DA000CF930E94CE260E94940D0E94CC26C0E094
:104DB0008C2F0E941D0D892B29F4CF5FC430C1F7C1
:104DC00080E001C081E0CF9108950C94CB260C9433
:104DD000E5260E94E72680917104843049F1109203
:104DE000150420E488E190E00FB6F894A89580932C
:104DF00060000FBE2093600080E00E94A40A0E9421
:104E0000E72683B7817F846083BF83B7816083BFD8
:104E10007894889583B78E7F83BF0FB6F894A89552
:104E200080916000886180936000109260000FBEE6
:104E300008950C94CB260E94731E0E9407190E94AD
:104E4000A40A0C9419271F920F920FB60F921124E7
:104E50008F939F93AF93BF9380911504811113C0DB
:104E60008091670490916804A0916904B0916A04EC
:104E70004196A11DB11D8093670490936804A0938F
:104E80006904B0936A04BF91AF919F918F910F9085
:104E90000FBE0F901F90189582E084BD93E095BDE2
:104EA0009AEF97BD80936E0008952FB7F894809184
:104EB000670490916804A0916904B0916A042FBFBF
:104EC0000895CF92DF92EF92FF920F931F932FB727
:104ED000F89440916704509168046091690470915E
:104EE0006A042FBF6A017B01EE24FF248C0120E0BD
:104EF00030E0C016D106E206F30610F44150510925
:104F00009A01281B390BC9011F910F91FF90EF9057
:104F1000DF90CF90089578941F920F920FB60F9262
:104F200011248F939F93AF93BF93809167049091C7
:104F30006804A0916904B0916A040196A11DB11D95
:104F40008093670490936804A0936904B0936A0403
:104F5000BF91AF919F918F910F900FBE0F901F90B7
:104F6000189581E08093E00080E28093D800109251
:104F7000C9008FE19EE40197F1F700C0000087E0CF
:104F800090EBDC0180937A0490937B04A0937C04E3
:104F9000B0937D049CE088E10FB6F894A8958093C7
:104FA00060000FBE90936000FFCF0C94CC250E9450
:104FB000940D8FE39CE90197F1F700C000000E9477
:104FC000940D80E00E941D0D80FF04C00E94D52733
:104FD0000C94B12708950E94D225811102C00E942D
:104FE00077260E94DD25809314040E94EA25909381
:104FF0006C0480936B040E94E125682F70E080E0D0
:1050000090E00C94BA2280911D0480FF0BC0609147
:10501000CF0285E0689FB00111247595679575955D
:1050200067952BC081FF09C06091CF0285E0689F22
:10503000B00111247595679520C082FF07C060916B
:10504000CF0285E0689FB001112417C090911C0425
:105050009923D1F06091CE02961788F72091CF0264
:1050600085E0289F90011124929FA001939F500DED
:10507000112470E0CA010E94B3316038710540F418
:105080006115710519F406C065E070E0862F08957A
:105090008FE7089581E0089580911D0480FF08C086
:1050A0006091CB0270E0759567957595679521C005
:1050B00081FF06C06091CB0270E07595679519C0BD
:1050C00082FF04C06091CB0270E010C090911C047C
:1050D000992399F06091CA029617A0F78091CB02AC
:1050E000899FC001112470E00E94B33160387105BE
:1050F00040F46115710519F406C061E070E0862F77
:1051000008958FE7089581E00895803F21F40E947B
:105110000328819504C0813F29F40E9403288093CD
:1051200021040895823F21F40E940328819504C040
:10513000833F29F40E940328809320040895893F27
:1051400019F40E944C2805C08A3F31F40E944C2873
:1051500081958093220408958B3F21F40E944C286E
:10516000819504C08C3F29F40E944C28809323042D
:105170000895843F21F480911F04816017C0853F0A
:1051800021F480911F04826011C0863F21F4809138
:105190001F0484600BC0873F21F480911F04886046
:1051A00005C0883F31F480911F04806180931F0403
:1051B00008958D3F21F480911D0481600BC08E3FC6
:1051C00021F480911D04826005C08F3F29F48091F5
:1051D0001D04846080931D040895803F39F48091FC
:1051E000210487FF6CC01092210469C0813F29F41B
:1051F000809121041816BCF362C090912004823F74
:1052000029F497FF5CC01092200459C0833F19F421
:105210001916CCF354C0893F41F48091220418162A
:105220000CF04DC0109222044AC08A3F29F48091AC
:10523000220487FF44C0F6CF8B3F39F480912304CA
:1052400087FF3DC0109223043AC08C3F29F480911F
:1052500023041816BCF333C0843F21F480911F044B
:105260008E7F17C0853F21F480911F048D7F11C070
:10527000863F21F480911F048B7F0BC0873F21F470
:1052800080911F04877F05C0883F31F480911F04FF
:105290008F7E80931F0413C08D3F21F480911D04E5
:1052A0008E7F0BC08E3F21F480911D048D7F05C041
:1052B0008F3F29F480911D048B7F80931D04809182
:1052C000200481110EC08091210481110AC08091B7
:1052D0002204811106C080912304811102C0109222
:1052E0001C0408958EE194E00E941E190E94552727
:1052F00090931B0480931A040895CF93DF9300D0FA
:1053000000D000D0CDB7DEB786E0EEE1F4E0DE01FC
:10531000119601900D928A95E1F7809120048111F8
:1053200005C080912104882309F47AC08091180473
:10533000909119040E946127AC0190911C0499235B
:1053400039F02091D00230E02417350758F068C0BA
:105350002091D1028AE0289F90011124241735075B
:1053600018F05EC09F3F19F09F5F90931C0410924D
:1053700022041092230480912004181624F40E9421
:105380000328809320048091200487FF05C00E9499
:10539000032881958093200480912104181624F419
:1053A0000E940328809321048091210487FF05C077
:1053B0000E94032881958093210430912004332397
:1053C000E1F0209121042223C1F045EB3403C00118
:1053D0001124992319F09093200403C081E0809355
:1053E000200435EB2303C0011124992319F0909375
:1053F000210403C081E0809321040E9472298091DE
:105400001A0490911B04909319048093180486E069
:10541000FE013196AEE1B4E001900D928A95E1F77C
:1054200080912204811105C080912304882309F40E
:105430007AC080911604909117040E946127AC01F4
:1054400090911C04992339F02091CC0230E024176C
:10545000350758F068C02091CD028AE0289F90015E
:1054600011242417350718F05EC09F3F19F09F5F85
:1054700090931C0410922004109221048091220425
:10548000181624F40E944C28809322048091220450
:1054900087FF05C00E944C2881958093220480914B
:1054A0002304181624F40E944C288093230480912E
:1054B000230487FF05C00E944C2881958093230414
:1054C000309122043323E1F0209123042223C1F000
:1054D00045EB3403C0011124992319F09093220461
:1054E00003C081E08093220435EB2303C001112423
:1054F000992319F09093230403C081E0809323043F
:105500000E94722980911A0490911B0490931704B1
:105510008093160486E0FE013196AEE1B4E001907E
:105520000D928A95E1F726960FB6F894DEBF0FBE6E
:10553000CDBFDF91CF910895EEE1F4E086E0DF0189
:105540001D928A95E9F710921C0410921D0408958B
:1055500080912C040895CF93DF9300D01F92CDB794
:10556000DEB790917104943019F589837B836A8347
:1055700082E08093E9008FEF9091E800815095FDE3
:1055800006C095ED9A95F1F700008111F5CF809155
:10559000E80085FF0DC040E050E063E070E0CE0120
:1055A00001960E94F32C8091E8008E778093E800AA
:1055B0000F900F900F90DF91CF910895CF93DF93CD
:1055C000EC010E94D62C823011F0843031F4BE01FF
:1055D00084E0DF91CF910C94AB2ADF91CF910895B5
:1055E000BC0183E00C94AB2ACF93DF93EC010E94C3
:1055F000D62C823011F08430F9F482E08093E900F7
:105600008FEF9091E800815095FD06C095ED9A9539
:10561000F1F700008111F5CF8091E80085FF0CC003
:1056200040E050E066E070E0CE010E94F32C8091F3
:10563000E8008E778093E800DF91CF910895CF93B3
:10564000DF93EC010E94D62C823011F0843039F5C2
:1056500081E08093E9008FEF9091E800815095FD03
:1056600006C095ED9A95F1F700008111F5CF809174
:10567000E80085FF14C040E050E068E070E0CE0133
:105680000E94F32C8091E8008E778093E80088E0F8
:10569000FE01A4E2B4E001900D928A95E1F7DF915A
:1056A000CF91089580917004811109C00E94842EC9
:1056B0000E94E12E8091E20084608093E2000895D0
:1056C000109270040895089508950C941B2742E0E9
:1056D00061EC81E00E94FD2D42E261EC82E00C94DD
:1056E000FD2D80917304833009F460C030F4813063
:1056F00071F0823009F499C008958A3009F485C0A8
:105700008B3009F46BC0893009F0A7C020C08091AC
:105710007204813A09F0A1C08091E800877F8093EC
:10572000E8008091760490917704892B21F468E059
:1057300084E294E003C060E080E090E070E00E94CA
:105740003E2D8091E8008B778093E800089580914A
:105750007204813209F081C08091760490917704BF
:10576000029708F07AC08091E800877F8093E80074
:105770008091E80082FD05C0809171048111F8CF0D
:105780006CC02091F3008091F20090E0922B029780
:1057900029F48091F1008B7F813021F48091F10018
:1057A00080932C048091E8008B7753C08091720421
:1057B000813A09F052C08091760490917704892B48
:1057C00009F04BC08091E800877F8093E8008091CA
:1057D000E80080FFFCCF8091DC0236C0809172042B
:1057E0008132D9F58091760490917704892BA9F5BF
:1057F0008091E800877F8093E8000E94322E80919C
:1058000074048093DC020C94731E809172048132C4
:1058100021F58091E800877F8093E8000E94322E76
:105820008091750480932D04089580917204813ACB
:10583000A1F48091E800877F8093E8008091E800E0
:1058400080FFFCCF80912D048093F1008091E800CF
:105850008E778093E8000C94322E089584B7877F6A
:1058600084BF0FB6F894A8958091600088618093FA
:105870006000109260000FBE90E080E80FB6F894D0
:1058800080936100909361000FBE0E9468190E948E
:10589000842E0E94E12E8091E20084608093E200D9
:1058A00078940E9476310E94701982ED92E00E94F5
:1058B000021980917104853069F40E94E926809173
:1058C0006F048823B1F30E94D026882391F30E94AD
:1058D000DD2CEFCF0E947A19ECCF0C946F2C292F7E
:1058E000332723303105C9F060F42130310581F0D0
:1058F0002230310509F04AC08BE390E024E43DE01A
:1059000049C02132310511F12232310579F13EC011
:1059100082E190E02FE73DE03DC09927813091057D
:1059200061F040F08230910559F0039779F5E0E19C
:10593000FDE008C0E0E4FDE005C0E6E2FDE002C0F5
:10594000E6E1FDE0849190E09F0124C061157105BE
:1059500041F061307105D1F489E090E02FE63DE03F
:1059600019C089E090E026E53DE014C0611571059D
:1059700041F06130710551F481E890E021E93DE0AA
:1059800009C080E490E022E13EE004C080E090E0C5
:1059900020E030E0FA013183208308958091710482
:1059A000843011F081E0089582E0089580912E0402
:1059B000811102C00C94CE2C089580E189BD82E152
:1059C00089BD09B400FEFDCF8091D8008F7D809302
:1059D000D8008091E00082608093E0008091E00038
:1059E00081FDFCCF0895CF92DF92EF92FF920F934B
:1059F0001F93CF93DF93EC018B017A010E94512E0C
:105A0000811133C0E114F10439F0F70180819181F3
:105A1000081B190BC80FD91FC12CD12C011511055A
:105A200019F18091E80085FD16C08091E8008E771D
:105A30008093E800E114F10449F0F701808191813D
:105A4000C80ED91ED182C08285E00FC00E94512E9F
:105A5000882321F30AC089918093F1000150110934
:105A6000FFEFCF1ADF0ADACF80E0DF91CF911F91ED
:105A70000F91FF90EF90DF90CF90089520917804E0
:105A8000309179042617370748F06115710539F40C
:105A90002091E8002E772093E80001C0B901FC01B5
:105AA00020E06115710579F1809171048823F1F18D
:105AB0008530F1F18091E80083FD3CC08091E800E1
:105AC00082FD2EC08091E80080FFEBCF2091F30093
:105AD0008091F20090E0922B6115710551F08830B1
