:100000000C9435020C947C020C947C020C947C02BF
:100010000C947C020C947C020C947C020C947C0268
:100020000C947C020C947C020C94F7220C94C9234F
:100030000C941A1B0C947C020C947C020C947C0291
:100040000C947C020C947C020C947C020C947C0238
:100050000C947C020C94821B0C947C020C947C0209
:100060000C947C020C947C020C947C020C947C0218
:100070000C947C020C947C020C947C020C947C0208
:100080000C947C020C947C020C947C020C947C02F8
:100090000C947C020C947C020C947C020C947C02E8
:1000A0000C947C020C947C020C947C02570F570F2A
:1000B000890F890FE20F0010751175114210D710CA
:1000C000E810E8106511751175116E110B120B1205
:1000D0001D121D1214121D121D121D120B120B12D5
:1000E00019121D121D12191236245D2455255D2486
:1000F0005525A924CC2455252325322514001A0082
:100100000800150017001C0018000C001200130056
:1001100004611600070009000A000B000D000E0024
:100120000F0000571D641B62060019000500110036
:10013000106236643761386800002A44000000000D
:100140002C430000000000002845000014001A00A5
:10015000090013000A000D000F0018001C000057D2
:10016000046115001600170007000B0011000800BD
:100170000C0012001D641B620600190005000E0031
:10018000106236643761386800002A4400000000BD
:100190002C43000000000000284500000000000083
:1001A000000000000000000000000000000000004F
:1001B000000000000000000000000000000000003F
:1001C000000000000000000000000000000000002F
:1001D000000000000000000000000000000000001F
:1001E0000000000000000000000000004B004A007A
:1001F00052004D00490023022402250201574C0001
:100200004E00500051004F0028001E021F02200225
:1002100021022202A800AA00A900AC00AB000557E9
:1002200006570257035704570000AE0000000000B5
:100230000100000000000000010000003502350050
:10024000010001000100010042004300440045009C
:10025000310230002F002D022D0001003E003F0032
:1002600040004100310030022F022E022E0001001A
:100270003A003B003C003D0000000100000000008F
:100280004C00000000000000E3000000005CF700EC
:10029000FB00FC00F9002400250026005700560052
:1002A000095DF600F500F400FA00210022002300A9
:1002B00055005400085DF8004604160A460C1E005E
:1002C0001F00200027006300000001000000000064
:1002D0000100000000000000010000001A000900F9
:1002E000000014001A000000040330000000140392
:1002F0005F003300330020006200790020004E00D0
:1003000052000000160374006F006D0069006E005B
:10031000610062006F0078003100000004030904EE
:1003200009023B00020100A0FA09040000010301D8
:100330000100092111010001224000070581030885
:10034000000A090401000103000000092111010055
:100350000122BC000705820320000A1201100100DF
:10036000000008EDFE506A010001020301050109C9
:1003700002A10185020901A100050919012905153C
:10038000002501950575018102950175038101051F
:1003900001093009311581257F950275088106090B
:1003A000381581257F950175088106050C0A3802EC
:1003B0001581257F950175088106C0C0050109805A
:1003C000A101850319012AB700150126B70095017F
:1003D00075108100C0050C0901A101850419012ACD
:1003E000A002150126A002950175108100C005012B
:1003F0000906A1018505050719E029E71500250172
:100400009508750181020507190029EF15002501DE
:1004100095F07501810205081901290595057501F9
:100420009102950175039101C005010906A101051D
:100430000719E029E7150025019508750181029546
:1004400001750881010507190029FF150026FF0025
:10045000950675088100050819012905950575019E
:100460009102950175039101C00011241FBECFEFC9
:10047000DAE0DEBFCDBF04B603FE27C08091520391
:1004800090915303A0915403B09155038730904B42
:10049000A740B04BD1F41092520310925303109224
:1004A00054031092550314BE84B7877F84BF0FB6E0
:1004B000F894A89580916000886180936000109204
:1004C00060000FBEE0E0F8E3099512E0A0E0B1E0C3
:1004D000E6EFFBE402C005900D92A834B107D9F70E
:1004E00023E0A8E4B2E001C01D92A235B207E1F713
:1004F0000E9426200C94F9250C940000882319F002
:10050000813031F00895662349F089E290E004C01B
:10051000662321F08BE290E00C940E030895CF93B4
:10052000DF93EC010E946B19BE0180E090E0DF9147
:10053000CF910C94401688302DE5920751F0893008
:100540009D4589F4FB018281882371F081E090E070
:1005500006C0FB018281882339F082E090E00E948E
:100560008F0280E0089581E008959C013A9521155D
:100570003F4138F5DC01AA27B270AC014427547022
:100580009C012227387094FF0FC090FF02C080E1C9
:1005900001C080E0AB2B09F08062452B09F080643C
:1005A000232B69F080680BC0892F8170AB2B09F079
:1005B0008260452B09F08460232B09F08860FB01E1
:1005C00009940895CF93DF93EC01805E9109089719
:1005D00010F0209719F467E17FE002C061ED71E14E
:1005E000CE010E94B5028C2FDF91CF910C94F20DB9
:1005F000CF93DF93EC010E949C0ECE01805E9109A7
:10060000089710F0209719F46EE17FE002C068EDC2
:1006100071E1CE01DF91CF910C94B502CF93DF93BE
:10062000EC010E94E202CE01DF91CF910C94F8021E
:1006300081E008950C949B021F93CF93DF9300D029
:1006400000D01F92CDB7DEB749835A836B832091C8
:10065000760289819A81211112C0662349F00E9495
:100660009517182F682F89819A810E943E1703C021
:100670000E946917182F69817A81812F04C00E9416
:10068000951769817A810F900F900F900F900F90BE
:10069000DF91CF911F910C94DB03FC0140815181CC
:1006A0006281738184810C941C030E94BB1B0E9495
:1006B0005819811102C00E94FD190C94FA050E947C
:1006C000080A0E946B070C94F60508950C946503C4
:1006D00081E008950C946803CF93C82F0E946603AD
:1006E0008C2F0E946A03CF91089508950E94F911FA
:1006F0000E9475032FEF84E39CE0215080409040DE
:10070000E1F700C0000087E797E790930108809326
:1007100000080C94A81B0F931F93CF93DF93EC0159
:100720000E944D038C01BE010E946509BE01C801F3
:100730000E941A038823A9F1BE01C8010E94AC09D6
:10074000882379F1BE01C8010E949807882349F1E6
:10075000BE01C8010E94CF0A882319F1BE01C80159
:100760000E94100B8823E9F0BE01C8010E943B0CD7
:100770008823B9F08A81882369F001158CE5180770
:1007800031F00E3D1C4531F40E94FD190AC00E9453
:10079000760307C0CE01DF91CF911F910F910C948A
:1007A000180380E0DF91CF911F910F91089580E0B1
:1007B00090E00895089528E2829FC0011124FC0171
:1007C0002AE0729FE00DF11D1124E60FF11DEE0FDE
:1007D000FF1FE450FF4F859194910895880F991F52
:1007E000FC01E851FD4F859194910895CF93DF93DB
:1007F0000E94DB030E940E05EC018115904508F074
:1008000041C0C11580E4D80708F0D1C0C83ED10569
:1008100010F5C03ED10508F0FDC0C83AD10578F406
:10082000C53AD10508F0A2C0C130D10509F4F2C023
:1008300008F4EEC0C430D10508F0ECC0E9C0CF3BED
:10084000D10508F49BC0C03CD10508F4E1C0CE013D
:10085000805C91099EC0C11590E2D90758F4C1157A
:1008600021E0D20708F0D6C0C03FD10508F4D0C0BF
:10087000D065D0C0C11580E3D80708F08EC0CE0186
:100880009F7087C0C11595E5D90708F043C0C11511
:1008900024E5D20708F0A2C0C11582E5D80708F503
:1008A000C11591E5D90708F085C0CE0174E0969591
:1008B00087957A95E1F783709C2F937021E030E063
:1008C00002C0220F331F9A95E2F73C68382BCF7095
:1008D000C695C69580E2C89FE0011124C22BD32B98
:1008E00099C09E01237033278C2F86958695C1155C
:1008F000D34508F064C0C1E0D0E002C0CC0FDD1FDA
:100900002A95E2F720E2829FC0011124C82BD92B3F
:10091000DC6880C0C11529E5D207A0F4C11588E5BF
:10092000D80708F060C0C11596E5D90708F070C077
:100930008C2F0E94A2058F71C82FD0E0DC2FCC270E
:10094000D06268C0C1152AE5D20708F451C0CE01B3
:1009500090568115904208F05BC08D2F8F710E94D8
:10096000A205DD27D0628F71D82B54C0C55AD0E0C4
:10097000CB5FDD4FC881D0E0D0644CC0C85AD0E016
:10098000CC0FDD1FC952DE4F0990D881C02DD46431
:1009900041C00E94EE03EC013DC0CE019927D3FF78
:1009A00003C0EC01D86C36C0EC01D06C33C0DF70F2
:1009B000D06A30C0DC2FCC27C16FD06A2BC0C1E019
:1009C000D0E002C0CC0FDD1F2A95E2F720E2829F23
:1009D000C0011124C82BD92BDA681CC0DC2FCC270E
:1009E000C46FD06A17C0DC2FCC27C06FD06A12C08A
:1009F0008C2F8F700E94A20594E0D695C7959A958A
:100A0000E1F7CF70D0E0DC2FCC27D069C82B02C033
:100A1000C0E0D0E0CE01DF91CF91089582389105FA
:100A200069F1B0F48133910509F46DC048F489325D
:100A3000910509F463C08A32910509F469C00895EB
:100A40008533910509F455C089339105B9F00895AE
:100A5000833E910569F138F4803E9105B1F0823E04
:100A6000910509F10895863E9105A9F1873E91050A
:100A7000B9F1843E910509F064C023C0209143037D
:100A800020FD4FC021FD4DC008958091430380FD9E
:100A900044C08091440380FF44C08091430384FD9F
:100AA00042C083EE4DC08091430382FF38C0F5CF32
:100AB0008091430382FD33C08091440380FD31C0A7
:100AC000ECCF8091440381FF32C08091430384FDC9
:100AD0002AC087EE35C08091430383FF26C0F5CF3F
:100AE0008091430383FD21C08091440381FD1FC099
:100AF000ECCF8091430385FD1CC01DC08091430352
:100B000085FD19C016C08091430386FD16C017C02D
:100B10008091430386FD13C010C089E311C082EEAB
:100B20000FC080EE0DC080E00BC086EE09C084EEE1
:100B300007C089E205C085E303C08AE201C081E302
:100B400090E008959091430392FF0DC0282F2871E3
:100B5000283019F4877F846006C0282F2471243040
:100B600011F48B7F886093FF0DC0282F28712831E6
:100B700019F4877E846106C0282F2471243111F472
:100B80008B7E88612091440320FF0DC0382F38717F
:100B9000383019F4877F816006C0382F31713130C9
:100BA00011F48E7F886021FF0DC0282F2871283115
:100BB00019F4877E816106C0282F2171213111F43B
:100BC0008E7E886194FD877E0895E82FF0E0EE0F19
:100BD000FF1FEB5CFC4F808191810895089580EAAE
:100BE0008A95F1F7089508950C94F3050C94F40593
:100BF0000C94F3050C94F805CF93DF93A8E0B2E0D2
:100C000042E152E061E070E08D91E82FE295EF70F3
:100C1000F0E021A18F70EB0102C0CC0FDD1F8A959F
:100C2000E2F7CE019C2F9095922391A392A1892B5C
:100C300082A34A175B0741F7A2E1B2E041E050E02E
:100C40008D91E82FE295EF70F0E021A18F70BA014D
:100C500002C0660F771F8A95E2F7CB01962F909519
:100C6000922391A392A1892B82A372E0A631B707A8
:100C700039F710922E0310922D0310923603109222
:100C800035031092300310922F0310923803109204
:100C90003703109232031092310310923A031092EC
:100CA0003903109234031092330310923C031092D4
:100CB0003B0384E00E941007DF91CF910C94550311
:100CC0002F923F924F925F926F927F928F929F925C
:100CD000AF92BF92CF92DF92EF92FF920F931F934A
:100CE000CF93DF9300D000D0CDB7DEB788E0C82E19
:100CF00082E0D82EE12CF12C10E0AA24A394B12C90
:100D000025E3422E23E0522ED6018D916D01B82F9E
:100D1000B295BF70EB2FF0E0FC83EB8391A18F7055
:100D2000450101C0880C8A95EAF7892F882981A39B
:100D300082A1382C3094832182A30E94EF05A50163
:100D40000E2C02C0440F551F0A94E2F73A0160943A
:100D5000709422E132E03A832983EDE2F3E0212C22
:100D6000BF0180819181A981BA810D91BA83A98344
:100D7000202F22952F7030E0D90190962C9130E0F1
:100D80000F7002C0359527950A95E2F720FD04C043
:100D90009C01242B352B03C09C0126213721318354
:100DA00020833296DB012D913C918217930711F03D
:100DB000222423944E165F0699F6EB81FC8181A1D3
:100DC000382231A282A1882A82A21229FFEFEF1ACB
:100DD000FF0A2AE0E216F10409F096CF212F44E041
:100DE00065E373E08DE293E00E9411070E945F03C8
:100DF000812F0F900F900F900F90DF91CF911F9147
:100E00000F91FF90EF90DF90CF90BF90AF909F90A9
:100E10008F907F906F905F904F903F902F900895AC
:100E20000895FF920F931F93CF93DF93F82E092F0E
:100E3000162FD72FC42F222349F081E080934A0236
:100E40000E944C1B909349028093480280914A0271
:100E50008823D9F080914802909149020E94581B42
:100E6000069798F0EF2DF02FA12FBD2F80E090E096
:100E70004C2F50E08417950734F4219131912D9334
:100E80003D930196F7CF10924A02DF91CF911F91C7
:100E90000F91FF900895CF9390915B029923C9F031
:100EA000882311F0C0E003C010925B0212C0809151
:100EB0005B02C817C8F7EC2FF0E0EE0FFF1FE55BF1
:100EC000FD4F808191810E94E2020E94C718CF5F8E
:100ED000EECFCF9108958091C0018823A1F0809139
:100EE0005C02882381F080915F02909160020097FC
:100EF00051F00E94581B8536910528F010925C0233
:100F000081E00C944B07089510925C021092C0018E
:100F10001092600210925F0281E00C944B07809166
:100F2000C00181110C94840781E08093C001089571
:100F30005F926F927F928F929F92AF92BF92CF9269
:100F4000DF92EF92FF920F931F93CF93DF938C0169
:100F50007B0110925D02873F2CE5920741F4FB0173
:100F6000C281CC23C9F081E08093C0010AC1883FCF
:100F7000FCE59F0739F4FB01C281CC2369F00E9494
:100F80008407FFC0893F9C4539F4FB01C281CC2313
:100F900019F00E948F07F5C08091C001882309F4E1
:100FA000EFC010925E02AA24A394B12C95E0992E72
:100FB000C1E0D0E08824839480915E02823008F002
:100FC000A1C0C82ED12C9C9CF0019D9CF00D112439
:100FD000EA54FE4F4081518177247A9490E0FA01DF
:100FE000E90FF11DE90FF11D259134910217130747
:100FF00009F4792E232B11F09F5FF1CFFFEF7F12C1
:1010000002C0612C66C050905C02F70162806620CD
:1010100069F19C9CF0019D9CF00D1124EA54FE4F57
:101020009E0101C0220F7A94EAF73481232B248396
:10103000552039F3AE0102C0440F551F9A95E2F7CF
:101040004150510930E04217530709F042C0228154
:1010500033812115310521F0C9010E94E20203C04C
:1010600061E00E947E0280925D0233C09E0102C058
:10107000220F331F9A95E2F7215031099C9CF00111
:101080009D9CF00D1124EA54FE4F448150E024173A
:10109000350769F4228133812115310521F0C90119
:1010A0000E94F80205C060E00E947E0201C0512C3F
:1010B0009C9CF0019D9CF00D1124EA54FE4FCE0142
:1010C00001C0880F7A94EAF78095948189238483FC
:1010D000652CB628AA2069F09C9CF0019D9CF00D1F
:1010E0001124EA54FE4F91E08481811190E0892F10
:1010F00001C080E08170A82E80915E028F5F809396
:101100005E025ACF80915D02882351F00E944C1BF1
:101110009093600280935F0280E00E944B072CC096
:10112000B1100DC081E00E944B07AA2029F1109256
:10113000600210925F0281E080935C021DC0F701A3
:1011400082818823C9F080915C028823A9F00E94E3
:101150004C1B9093600280935F02E0915B02E83049
:1011600058F481E08E0F80935B02F0E0EE0FFF1FDA
:10117000E55BFD4F1183008381E0CB2DC82701C0C3
:10118000C1E08C2FDF91CF911F910F91FF90EF90D5
:10119000DF90CF90BF90AF909F908F907F906F9097
:1011A0005F900895CF93DF93EC0181E0898B8F816D
:1011B0000E946A1888850E947D180E94C718EA81DB
:1011C000FB81CE010696309729F06C897D89DF91ED
:1011D000CF910994DF91CF910895CF93DF93FC01D4
:1011E0002081223041F4FB01EC01828193810E9435
:1011F000E20281E08B87DF91CF910895FC0180812D
:10120000813021F4FB018081918105C0823029F475
:10121000FB01828193810C94E2020895FC0180819C
:10122000813021F4FB018081918105C0823029F455
:10123000FB01828193810C94F8020895EF92FF9252
:101240000F931F93CF93DF93FC012285211136C0AA
:10125000EC01E380F480F7E5FF1A26E12E9DC00142
:101260002F9D900D1124DC01A050BF4F1496ED91DD
:10127000FC9115978A5F9E4F309729F054966D9197
:101280007C915597099586E18E9D80018F9D100D6B
:10129000112400501F4FF80187810E947018F80137
:1012A00080850E9483180E94C718188219861B86A1
:1012B0001E821D821092620210926102DF91CF9114
:1012C0001F910F91FF90EF900895DF92EF92FF92A0
:1012D0000F931F93CF93DF93FB0122812223A1F170
:1012E0002091C1012F3F81F18C01C0E0D1E0E12CC0
:1012F000F12CDD24D3948091C101082E000C990BB0
:101300008E159F050CF18E818823C9F089859A85F9
:101310008017910739F48091610290916202081759
:10132000190769F0DF861C870B878989811103C043
:10133000CE010E94D208CE0106960E941E09FFEF40
:10134000EF1AFF0A6696D7CFDF91CF911F910F91C9
:10135000FF90EF90DF900895EF92FF920F931F930D
:10136000CF93DF939C0137552F3F310511F008F0E3
:1013700047C04091C101042E000C550B4217530782
:1013800014F42093C101FB017C01828196E1929FBC
:101390008001939F100D1124E801C050DF4F888B0E
:1013A00092818E81992311F1FA86E9868F5F8E836F
:1013B0000E944C1B9E878D870E949D188F830E94E0
:1013C000671888870E947A189885892B8887E88112
:1013D000F981C8018A5F9E4F309719F06C897D8929
:1013E0000995F0926202E09261020AC0882341F0FE
:1013F0008989882329F0C8018A5F9E4F0E941E09AF
:1014000081E0DF91CF911F910F91FF90EF900895B0
:10141000CF92DF92EF92FF920F931F93CF93DF93C0
:101420008091C1018F3FF1F1F12C96E1E92E0F2D52
:1014300010E08091C101082E000C990B80179107D4
:101440008CF1E09EF001E19EF00D1124E050FF4F81
:10145000C288D388C114D10419F484E6C82ED12CD3
:10146000E09EE001E19ED00D1124C050DF4F8E813F
:101470008823B1F08D859E850E94581BC816D90619
:1014800078F48989811103C0CE010E94D208E09EC0
:10149000C001E19E900D11248A5F9E4F0E941E099B
:1014A000F394C5CFDF91CF911F910F91FF90EF90F3
:1014B000DF90CF9008950F931F93CF93DF93C62FA4
:1014C000D42F122FFC0182818823C9F0609365021A
:1014D0000E944C1B909364028093630280E28C0F05
:1014E000883008F057C0C77081E001C0880FCA95E6
:1014F000EAF7DF91CF911F910F910C94170F809114
:101500006502681330C080916302909164020E946A
:10151000581B8436910538F500E20D0FCD17B9F050
:1015200080E28C0F883040F4C77081E001C0880FE2
:10153000CA95EAF70E941E0F083028F581E09D2F1A
:10154000977001C0880F9A95EAF70E94170F812FB4
:101550000E94040F0830F0F4D77081E001C0880FBA
:10156000DA95EAF70AC080E28C0F883098F4C770E9
:1015700081E001C0880FCA95EAF7DF91CF911F91F2
:101580000F910C941E0F812FDF91CF911F910F911E
:101590000C94040FDF91CF911F910F9108959C013E
:1015A000CB01233F4CE53407F9F078F4283DFCE506
:1015B0003F07B9F0293D4CE5340711F1273D3C4583
:1015C00031F526E241EE61EE1EC0253FFCE53F0706
:1015D00099F070F0263F3C45D1F427E245EE66EEE7
:1015E00012C027E245EE0EC026E241EE60EE0BC0CF
:1015F00027E245EE64EE07C026E241EE62EE03C04C
:1016000028E241E065EE0E945B0A80E00895FC015B
:101610008281882319F010926502089581E008956F
:10162000CF93DF93EC01FB018281882309F41FC172
:10163000C230FCE5DF0708F41BC1C6319CE5D907C1
:1016400038F09E012A5F3C452930310508F010C171
:101650000E9470199093440380934303C031ECE5DA
:10166000DE0709F4C3C008F041C0C8308CE5D807D4
:1016700009F49AC0F0F4C430ECE5DE0709F487C041
:1016800068F4C2308CE5D80709F477C0C330DC4574
:1016900009F0E3C080914303826076C0C630ECE578
:1016A000DE0709F46EC008F07BC0809143038860B8
:1016B0006BC0CC308CE5D80709F485C068F4CA301B
:1016C000ECE5DE0709F474C008F079C00E94F91156
:1016D00080914303806858C0CE308CE5D80709F468
:1016E00076C008F07FC0809143038BC0CB3FECE510
:1016F000DE0709F44FC018F5C3318CE5D80709F4AB
:101700007DC078F4C131ECE5DE0709F473C0C23165
:10171000DC4509F0A2C00E94F911809143038F7744
:1017200033C0C5318CE5D80709F472C008F486C00F
:10173000CA3FDC4509F091C0809144033EC0CF3FD1
:10174000FCE5DF0709F45FC058F4CD3F9CE5D907FD
:1017500009F444C008F43FC08091440382602DC066
:10176000C130FDE5DF0709F475C008F45DC0C23083
:10177000DD4509F072C080E06EC080914303816056
:1017800003C08091430380618093430366C08091CE
:10179000430311C0809144038260809344035DC081
:1017A000809143038062F0CF809143038064ECCF4B
:1017B0008091430388608460E7CF8160EECF8091A1
:1017C00043038E7FE1CF809143038D7FDDCF8091F6
:1017D0004303877FD9CF8091440318C0809144038D
:1017E0008D7FDBCF809143038F7ECECF80914303EB
:1017F0008F7DCACF809143038F7BC6CF80914303F7
:10180000877F8B7FC1CF809144038D7F8E7FC5CF33
:101810008091430382FB222720F991E0922790FBDD
:1018200082F990FB83F9B0CF80914403982F909573
:1018300091708E7F892B90FB81F9AFCF0E94F911B7
:101840008091430387FB222720F991E0922790FBA8
:1018500087F99ACF81E00E94FF198091430390910C
:1018600044030E9481190E94F91180E001C081E0C7
:10187000DF91CF910895CF93DF9386319C4571F529
:10188000EB010E946718982F917119F4982F9A7A9A
:1018900001C090E08A812091C2013091C301882368
:1018A00079F081E0911101C080E08093660291118E
:1018B00002C069E201C065E3C9010E949A1A0AC028
:1018C00080916602811102C069E201C065E3C9012D
:1018D0000E94A51A0E94C71880E001C081E0DF9134
:1018E000CF91089590936C0280936B020895E091DC
:1018F0006B02F0916C02309721F00190F081E02DA5
:10190000099480E00895E0916B02F0916C023097A9
:1019100099F02091D601222359F02091430327FF0B
:1019200007C0DC012C9111962C93119725E02C9384
:101930000280F381E02D09940895E0916B02F0910B
:101940006C02309739F022E0DC012C930480F581A1
:10195000E02D099408952091690230916A022817B8
:10196000390771F090936A0280936902E0916B02EB
:10197000F0916C02309721F00680F781E02D0994F8
:10198000089520916702309168022817390771F095
:101990009093680280936702E0916B02F0916C0271
:1019A000309721F00084F185E02D0994089585B7E2
:1019B000806885BF85B7806885BF089508950C94B9
:1019C000DE0C0C94DF0C0C94DE0C0C94DE0C0E94EC
:1019D000D70C0E94E30C0C94E10C81E008950E9466
:1019E000431B0E94FC050E94CF1BE3E4F3E08081CF
:1019F0008068808380914303909144030E94811901
:101A00000C94E50C7F928F929F92AF92BF92CF92EF
:101A1000DF92EF92FF920F931F93CF93DF93CDB797
:101A2000DEB72A970FB6F894DEBF0FBECDBF0E9477
:101A300060060E94ED0C811111C08FEF89838A83AB
:101A40001B820E944C1B8160782F9D838C8349816F
:101A50005A816B818D810E94B20D4FC04EE6A42E3B
:101A600042E0B42E00E010E0702E802F0E94E505C9
:101A70006C01F501819091905F018826992681146F
:101A8000910431F40F5F1F4F0430110569F7D5CF72
:101A90008091FA0281FD0E94EE0580E0EE24E3943D
:101AA000F12C94012E213F21232B09F18E837F827B
:101AB000CE20DF2081E0CD2809F480E088870E94D5
:101AC0004C1B8160782F9A8789874E815F8168855A
:101AD0008A850E94B20D000F111FF801E259FD4FD7
:101AE00080819181E826F926F182E08206C08F5F2D
:101AF000EE0CFF1C8A30A9F6C5CF0E94611D0E9422
:101B0000770C90916D028917C9F00E94770C809331
:101B10006D022A960FB6F894DEBF0FBECDBFDF91DF
:101B2000CF911F910F91FF90EF90DF90CF90BF90DA
:101B3000AF909F908F907F900C946C032A960FB675
:101B4000F894DEBF0FBECDBFDF91CF911F910F91F3
:101B5000FF90EF90DF90CF90BF90AF909F908F90CD
:101B60007F900895CF93DF93CDB7DEB72B970FB655
:101B7000F894DEBF0FBECDBF4F83588769877A8741
:101B80008B87DE01119686E0FD0111928A95E9F7B7
:101B900085E0FE01379601900D928A95E1F70E944B
:101BA0003518882319F082E00E9439190E9408181C
:101BB00081110E94B91849815A816B817C818D8184
:101BC0009E810E9403152B960FB6F894DEBF0FBEC0
:101BD000CDBFDF91CF910895FC01808191810E945A
:101BE000D7170895CF93882309F4A4C0C82F82384B
:101BF000C1F40E94770C81FD9DC069E38091C20110
:101C00009091C3010E949A1A0E94C7182FEF81EE8B
:101C100094E0215080409040E1F700C0000069E36B
:101C200019C0833801F50E94770C80FD83C063E5FD
:101C30008091C2019091C3010E949A1A0E94C71814
:101C40002FEF81EE94E0215080409040E1F700C0FA
:101C5000000063E58091C2019091C3010E94A51A22
:101C6000CF910C94C7188438C1F40E94770C82FD80
:101C700061C067E48091C2019091C3010E949A1AE9
:101C80000E94C7182FEF81EE94E0215080409040D1
:101C9000E1F700C0000067E4DDCF8CEF8C0F813AE4
:101CA000D0F46C2F8091C2019091C3010E941A1A46
:101CB000882349F06C2F8091C2019091C3010E944A
:101CC000A51A0E94C7186C2F8091C2019091C30180
:101CD0000E949A1AC5CF80E28C0F883048F4C770F2
:101CE00081E001C0880FCA95EAF70E946A18B8CF50
:101CF000EBE5EC0FE33040F4F0E0EC5BFD4F80816E
:101D000090E0CF910C94AB0CE8E5EC0FE73150F488
:101D1000F0E0EE0FFF1FEA5EFD4F80819181CF91D1
:101D20000C94C10CC03F30F08C2F0E94691CCF91E5
:101D30000C94561DCF910895882309F464C082380D
:101D400079F40E94770C81FF5EC069E38091C20143
:101D50009091C3010E949A1A0E94C71869E310C0AB
:101D60008338B1F40E94770C80FF4DC063E5809109
:101D7000C2019091C3010E949A1A0E94C71863E59C
:101D80008091C2019091C3010E94A51A0C94C718BA
:101D9000843879F40E94770C82FF35C067E4809123
:101DA000C2019091C3010E949A1A0E94C71867E469
:101DB000E7CF9CEF980F913A10F4682FE1CF90E2B3
:101DC000980F983050F4877091E001C0990F8A9570
:101DD000EAF7892F0E947018D9CF9BE5980F9330AE
:101DE00020F480E090E00C94AB0C98E5980F9731CC
:101DF00020F480E090E00C94C10C803F20F00E9421
:101E0000D11C0C94561D0895CF93C82F0E94F20D3B
:101E1000C93349F42FEF87EE93E021508040904082
:101E2000E1F700C000008C2FCF910C949C0E88230A
:101E300021F00E946A180C94C7180895882321F095
:101E40000E9470180C94C7180895CF92DF92EF92F9
:101E5000FF920F931F93CF93DF937C01062FC72F21
:101E6000FC01D581D295DF70128111110E948A1870
:101E70000E946018882379F0112369F080E2800FB6
:101E8000883048F082E00E9439190E94601891E081
:101E9000D82ED92601C0D12CCC2EC2948FE0C822D6
:101EA0008C2D90E0FC01EA5AFF4F0C949D258C2F5D
:101EB000807FCF70882311F0C295C07F112399F0E5
:101EC000CC2309F4ECC180E2800F883010F00111BE
:101ED00004C08C2F0E946A1803C08C2F0E947D18AA
:101EE0000E94C718DCC1802F0E949C0ECC2309F4ED
:101EF000FCC180E2800F883010F0011104C08C2FEB
:101F00000E94701803C08C2F0E9483180E94C7186B
:101F1000ECC18C2F807FCF70803211F0C295C07FD2
:101F2000002319F0013059F134C01123B1F0DD2341
:101F300081F0D13031F40E949D188C2B0E94A5189D
:101F4000D4C1D33031F40E94B9188C2F0E940519E6
:101F500024C00E949D188C2B21C0DD2369F0D13054
:101F600041F40E9467188C2309F4BFC10E940E1926
:101F700003C0D33009F4B9C10E94B9181FC011239E
:101F800021F0D43008F0B1C108C0D33008F0ADC1A1
:101F900015C0112331F0D11182C18C2F0E94170F6F
:101FA000A4C1DD2359F0093309F08BC1FFEF27EEFF
:101FB00083E0F15020408040E1F781C18C2F0E94E6
:101FC0001E0F93C18C2F86958695837019F08130F2
:101FD00061F08BC1112321F0802F9C2F937002C0E0
:101FE00080E090E00E94AB0C88C1112321F0802F8B
:101FF0009C2F937002C080E090E00E94C10C7DC1D4
:102000001123F9F0053F51F0063F71F0043FA9F4A8
:1020100080913D0390913E0381600BC080913D0310
:1020200090913E03826005C080913D0390913E03F4
:10203000846090933E0380933D03802F0E94691C2F
:102040001EC0053F51F0063F71F0043FA9F4809196
:102050003D0390913E038E7F0BC080913D03909194
:102060003E038D7F05C080913D0390913E038B7FA1
:1020700090933E0380933D03802F0E94D11C0E94C9
:10208000561D3BC18C2F837009F045C0111131C121
:10209000402F429546954770440F440F602F6F7054
:1020A000862F90E0A0E0B0E0042E04C0880F991FB6
:1020B000AA1FBB1F0A94D2F704FF10C00FE010E064
:1020C00020E030E004C0000F111F221F331F4A958B
:1020D000D2F7009510952095309503C000E010E0F0
:1020E0009801C695C695C370BC01CD01602B712BBC
:1020F000822B932BC23049F058F4C13019F00E9462
:102100005416F7C00E944216F4C00E946616F1C031
:102110000E944016EEC0112319F08C2F817001C06F
:102120008695882309F4E5C0402F4295469547706F
:10213000440F440F602F6F70862F90E0A0E0B0E056
:10214000042E04C0880F991FAA1FBB1F0A94D2F740
:1021500004FF10C00FE010E020E030E004C0000FEA
:10216000111F221F331F4A95D2F700951095209515
:10217000309503C000E010E09801C695C695C37085
:10218000BC01CD01602B712B822B932BC23049F007
:1021900058F4C13019F00E941917ABC00E940717FC
:1021A000A8C00E942B17A5C00E947A16A2C0CF70AB
:1021B000112339F08C2F0E94A016802F0E94170F38
:1021C00098C0802F0E941E0F8C2F0E94C11691C0B4
:1021D000023F01F128F4003F41F0013FA1F05AC055
:1021E000033FF9F0043F39F155C0112341F0D330DA
:1021F00008F07BC08C2F8F710E94E61676C0D43019
:1022000008F073C0F7CF112339F08C2F8F710E9423
:10221000A0166BC01123C9F38C2F8F710E94C116B9
:1022200064C0112329F08C2F8F710E948B165DC022
:102230000E9486165AC01123C9F00E9405180E94F8
:1022400070180E943118843039F40E9430198C2F94
:102250008F710E94C1166CC0D33008F069C0CF7175
:102260008C2F0E94A01663E08C2F0DC00E940518D1
:102270000E946A18D33050F00E9430190E940E1943
:1022800064E08C2F8F710E941A1952C081E00E9465
:1022900039194EC0112339F0DD2309F4B6CF802F50
:1022A0000E94F20D22C0DD2309F4B6CF093349F4B0
:1022B0009FEFE7EEF3E09150E040F040E1F700C01F
:1022C0000000802F0E949C0E10C04C2F4F70602F7A
:1022D000C7010E94D7030E94B1150FC04C2F4F7049
:1022E000602FC7010E94DA0308C088EF8C0D84308C
:1022F00020F40E94770C0E946C03DD20D9F00E942C
:10230000311880FD17C0F70112820E942B180E941D
:10231000A016C7010E94A3110E942B18DF91CF9134
:102320001F910F91FF90EF90DF90CF900C94C1160A
:10233000D12CDFCFDF91CF911F910F91FF90EF90C4
:10234000DF90CF9008950F931F93CF93DF93EC010D
:10235000988189812B813C81232B31F08F3F31F48F
:1023600081E09F3F19F403C081E001C080E080FD5F
:1023700013C0CE010E948B03882371F0688179819C
:102380008A810E94E2178C010E943D170E942E163E
:10239000B801CE010E94250FDF91CF911F910F91BF
:1023A0000895882321F00E947D180C94C718089581
:1023B000882321F00E9483180C94C71808950E9466
:1023C0008A180E949A180E94C7180E94801E0E94B4
:1023D000561D80E090E00E94AB0C80E090E00C94F1
:1023E000C10C8091C2019091C3010E94B01A0C945B
:1023F000DF110E9477180C94F111E92FE295EF702C
:102400004E2F50E0FA013297EE30F105B0F4EA5960
:10241000FF4F0C949D25803F91F018F4883E68F49E
:102420000EC0843F51F40BC0883E48F0813F29F430
:1024300006C093FB882780F9089580E0089581E025
:1024400008950E94D7170E94FD110895CF93DF933E
:1024500000D000D01F92CDB7DEB70F900F900F9035
:102460000F900F90DF91CF910895CF93DF9300D01D
:1024700000D000D0CDB7DEB726960FB6F894DEBFF9
:102480000FBECDBFDF91CF9108951F93CF93DF9300
:10249000C091770216E080917802C81799F0D0E0D9
:1024A0001C9FF0011D9FF00D1124E758FD4F408146
:1024B000518162817381848195810E9435122196B8
:1024C000C770E9CFDF91CF911F9108954091A90284
:1024D0005091AA026091AB027091AC028091AD0262
:1024E0009091AE020C94351220917702909178026F
:1024F00056E02917A9F030E0529FF001539FF00DEC
:102500001124E758FD4F7181761306C0708178134E
:1025100003C07281741306C02F5F3F4F2770E9CF4D
:1025200080E0089581E00895CF938091AE02829576
:102530008F7009F05FC08091AB02882309F45AC004
:1025400080917702B09178027091A902A091AA02BD
:102550004091AC025091AD0291E07F3F09F090E0D4
:10256000692FC6E08B1709F445C04115510521F0CC
:10257000AF3F21F020E003C021E001C0262F90E012
:1025800020FD35C0C89FF001C99FF00D1124E75808
:10259000FD4F21812A132BC02081271328C02281BF
:1025A000211125C0238134812417350710F42150CF
:1025B0003109241B350B24363105C8F42091AE02B5
:1025C0002F7020612093AE0226E0289FF001299F02
:1025D000F00D1124E258FD4F80818F70806180835F
:1025E00089EA92E00E94A311CF910C9445120196C2
:1025F0008770B8CFCF9108959F92AF92BF92CF923C
:10260000DF92EF92FF920F931F93CF93DF93CDB79B
:10261000DEB761970FB6F894DEBF0FBECDBF7C0169
:1026200085E0F701DE011D9601900D928A95E1F794
:10263000D701DC9011960C9111971296CC903091A5
:10264000A9024091AA028091AC029091AD0200973C
:1026500031F04F3F31F421E03F3F19F403C021E056
:1026600001C020E020FD9FC1F701A380B4809090BD
:10267000AB02992009F42BC12091AE02A816B9062D
:1026800028F0B501681B790BCB0104C080959095AB
:102690008A0D9B1D11E08436910590F010E0207F9B
:1026A00009F0DBC07A2DB98AA88A4D2D502F6C2DE8
:1026B00089890E94261289EA92E00E94A3116BC1C7
:1026C000822F807F09F091C0041315C0D31213C06C
:1026D0001C2DC11010C02F7020612093AE020E94EB
:1026E000661289EA92E00E94A3118091AE02D7019E
:1026F00015968C9375C1A114B10439F00F3F39F4CC
:1027000081E0BFEFDB1203C003C081E001C080E0C5
:1027100080FD03C081E08C2502C080E090E080FF56
:1027200015C04C2D602F8D2D0E947412882371F0DE
:1027300089EA92E00E94A311E9EAF2E086E0DF0173
:102740001D928A95E9F70E9466124DC0AB2839F0B8
:102750000F3F39F481E0BFEFDB1203C003C081E01B
:1027600001C080E080FD03C081E08C2502C080E0D4
:1027700090E0E82FE170BE2E80FF2CC04C2D602F22
:102780008D2D0E947412182F811124C0DD860E87B2
:102790008D859E850E94D717292F22952F70223074
:1027A00018F0243090F405C09F7059F0811109C0D1
:1027B00017C19F7031F0D70115969C91907F09F455
:1027C0000FC1805E883008F40BC1C7010E94A311BD
:1027D0001B2D06C11C2DCC2009F402C18091AE0234
:1027E00081608093AE0210E0FBC0041309C0D312D5
:1027F00007C0C11005C08091AE02F7018583A5C056
:10280000DD860E878D859E850E942112882379F1B1
:10281000CC2069F12091AE02822F82958F7090E0DA
:10282000029774F08091A9029091AA0298878F83F1
:102830001986BB86AA862C87CE0107960E94A31113
:1028400086E0F701A9EAB2E001900D928A95E1F7DE
:102850000E9494120E9466120DC0041769F0DD8672
:102860000E878D859E850E942112811119C0C70196
:102870000E94A31111E0B4C0D312F1CFC110EFCF69
:102880008091AE02F7018583C7010E94A31186E003
:10289000E9EAF2E0DF011D928A95E9F7192DA0C05F
:1028A000CC2029F32091AE02822F82958F7090E088
:1028B000029734F28091A9029091AA029A838983A7
:1028C0001B82BD82AC822E83CE010196B7CFA816A3
:1028D000B90628F0F501E81BF90BCF0104C080957B
:1028E00090958A0D9B1D8436910558F010E07A2D45
:1028F000B98AA88A4D2D502F6C2D89890E942612E5
:102900004AC01C2DCC2009F4B2CF041333C0D3121B
:1029100031C02091AE0220FD24C0822F82958F709D
:10292000482F50E041155105E1F0D70115962C9341
:1029300015974F30510549F08F5F982F9295907FF2
:10294000822F8F70892B15968C93C7010E94A3113B
:1029500086E0F701A9EAB2E001900D928A95E1F7CD
:102960003DC086E0F701A9EAB2E001900D928A9598
:10297000E1F736C0DD860E878D859E850E94211287
:1029800081115ECF8091AE0281608093AE02C7015B
:102990000E94A31125C0E9EAF2E086E0DF011D9262
:1029A0008A95E9F71BC0CC2009F461CFDD860E873C
:1029B0008D859E850E942112182F882309F457CFF8
:1029C00086E0F701A9EAB2E001900D928A95E1F75D
:1029D00089EA92E00E94EC0D0E9494120E94661215
:1029E000812F61960FB6F894DEBF0FBECDBFDF9189
:1029F000CF911F910F91FF90EF90DF90CF90BF90FC
:102A0000AF909F9008951F93CF93DF93CDB7DEB71C
:102A10002C970FB6F894DEBF0FBECDBF4F835887FB
:102A200069877A878B879C87CE0107960E94FC1264
:102A30008823D1F09F8188852A853B85232B31F01F
:102A40008F3F31F481E09F3F19F403C081E001C062
:102A500080E080FD47C04F81588569857A858B85E8
:102A60009C850E9435123EC086E0FE013796DE014D
:102A7000119601900D928A95E1F7FF81E8856A85AC
:102A80007B856115710531F0EF3F31F481E0FF3F47
:102A900019F403C081E001C080E080FD23C02091D3
:102AA000780230E0C901019687709927409177023A
:102AB00050E084179507F1F1F983EA837D836C83F5
:102AC00096E0929FD001939FB00D1124A758BD4F5F
:102AD000FE01319601900D929A95E1F7809378026C
:102AE0000E94451216E08091770290917802891732
:102AF00071F1189FC001112487589D4F0E94FC124C
:102B0000882329F1E09177021E9FF0011124E758F4
:102B1000FD4F4081518162817381848195810E9442
:102B200035128091770290E0019687709927809303
:102B30007702D9CF0E94F911109278021092770291
:102B4000E9EAF2E086E0DF011D928A95E9F72C962A
:102B50000FB6F894DEBF0FBECDBFDF91CF911F91AE
:102B60000895EF92FF920F931F93CF93DF938C0101
:102B7000892B09F46CC0F12CEE24E394E801219632
:102B8000F8018491843740F4843008F051C08130DA
:102B900081F0823019F15BC0853709F444C0A8F197
:102BA0009CE7980F903708F052C08F770E949C0ED8
:102BB00041C00E5F1F4FFE01849190E2980F983044
:102BC00050F48770FE2D01C0FF0F8A95EAF78F2F12
:102BD0000E948D1814C00E94F20D2DC00E5F1F4F71
:102BE000FE01849190E2980F983060F48770FE2D7A
:102BF00001C0FF0F8A95EAF78F2F0E9493180E9459
:102C0000C71819C00E949C0E16C00E5F1F4FFE0110
:102C1000C491CC2381F08FE99FE00197F1F700C0C8
:102C20000000C150F6CF0E5F1F4FFE01F49003C0AD
:102C30000E94F20D8E018F2D882309F49FCFEFE9BA
:102C4000FFE03197F1F700C000008150F5CFDF9130
:102C5000CF911F910F91FF90EF90089508950895DF
:102C60000C942F160C9430160E9432166093CC02EE
:102C70007093CD028093CE029093CF020C94DF111B
:102C80000C9434160F931F930091CC021091CD0237
:102C90002091CE023091CF02602B712B822B932B8F
:102CA0001F910F910C9434160F931F930091CC0237
:102CB0001091CD022091CE023091CF02602371237A
:102CC000822393231F910F910C9434160F931F931B
:102CD0000091CC021091CD022091CE023091CF0212
:102CE00060277127822793271F910F910C94341628
:102CF0000C942F160E9478166093C8027093C90234
:102D00008093CA029093CB020C94DF1160E070E0D4
:102D1000CB010C947A160F931F9341E050E060E0D2
:102D200070E08A019B0104C0000F111F221F331F96
:102D30008A95D2F7C901B8011F910F910C947A16A8
:102D40000F931F9341E050E060E070E004C0440F37
:102D5000551F661F771F8A95D2F78091C802909100
:102D6000C902A091CA02B091CB028A019B01082B33
:102D7000192B2A2B3B2BC901B8011F910F910C94E1
:102D80007A160F931F9341E050E060E070E004C0BA
:102D9000440F551F661F771F8A95D2F740955095AF
:102DA000609570958091C8029091C902A091CA0265
:102DB000B091CB028A019B01082319232A233B23CC
:102DC000C901B8011F910F910C947A160F931F93AC
:102DD00041E050E060E070E004C0440F551F661F02
:102DE000771F8A95D2F78091C8029091C902A0916D
:102DF000CA02B091CB028A019B01082719272A2712
:102E00003B27C901B8011F910F910C947A160F93BB
:102E10001F930091C8021091C9022091CA023091FB
:102E2000CB02602B712B822B932B1F910F910C9453
:102E30007A160F931F930091C8021091C902209136
:102E4000CA023091CB0260237123822393231F9106
:102E50000F910C947A160F931F930091C802109152
:102E6000C9022091CA023091CB02602771278227C4
:102E700093271F910F910C947A1608952AE0929F40
:102E8000800D1124E82FE695E695E695877051E0D0
:102E900001C0550F8A95EAF785E0E89FF0011124FB
:102EA000E155FD4F20E030E070E04081CB01022E83
:102EB00002C0969587950A94E2F7817081958427E0
:102EC0008523842781932F5F3F4F2530310569F794
:102ED00008952AE0929F800D1124682F66956695CB
:102EE0006695982F977085E0689FB001112440E0A7
:102EF00050E080E0FB01E40FF51FE155FD4F20811C
:102F000030E0092E02C0369527950A94E2F7217029
:102F10003327042E01C0220F0A94EAF7822B4F5F59
:102F20005F4F4530510531F70895BF92CF92DF9240
:102F3000EF92FF920F931F93CF93DF938C01C0907A
:102F4000C802D090C902E090CA02F090CB028091F2
:102F5000CC029091CD02A091CE02B091CF02C82AAE
:102F6000D92AEA2AFB2ACFE1D0E0D701C6010C2EEC
:102F700004C0B695A795979587950A94D2F780FDDA
:102F800004C0219790F7B12C07C0BC2EB8018C2F3C
:102F90000E94F6030197A9F38B2DDF91CF911F912A
:102FA0000F91FF90EF90DF90CF90BF900895CF9357
:102FB000DF93EC010E949517BE010E94F603DF919A
:102FC000CF9108951F93CF93DF93EB0190917602F9
:102FD000992321F0CB010E94D71713C0882349F011
:102FE000CB010E949517182F682FCE010E943E1723
:102FF00004C0CB010E946917182FBE01812F0E94C7
:10300000F603DF91CF911F9108958091D502089525
:103010000E944C1B2091D3023091D4028217930757
:1030200050F00E944C1B2091D3023091D402821B9D
:10303000930B9C010AC00E944C1B2091D30230913B
:10304000D40220953095280F391F81E024363105B0
:1030500008F480E008958091D20285958595859544
:1030600008958091D202877008950E944C1B209190
:10307000D0023091D10282179307A8F00E944C1B16
:103080002091D0023091D102821B930B843691059E
:1030900010F480E013C08091D20282FB882780F96F
:1030A00091E089270BC00E944C1B2091D0023091E7
:1030B000D10220953095820F931FE8CF817008953B
:1030C0009091D202977081E009F480E00895809198
:1030D000F90208959091F902892B8093F9020895DD
:1030E00080959091F90289238093F90208951092B6
:1030F000F90208958091F80208959091F802892BC1
:103100008093F802089580959091F8028923809326
:10311000F80208951092F80208959091F702892B11
:103120008093F702089580959091F7028923809308
:10313000F70208951092F70208958091D60208953B
:1031400008950C94A0180C94A118CF939091D602D6
:10315000981769F0C82F0E944C1B9093D40280935B
:10316000D302C093D6028C2FCF910C94A318CF9189
:1031700008958091D602882349F01092D6021092C9
:10318000D4021092D30280E00C94A3180895E09129
:10319000C201F091C3018091F9028083E091C201E4
:1031A000F091C30190818091F802892B8083E09196
:1031B000C201F091C30190818091F702892B808335
:1031C0008091D6028823B9F00E94081881110E94CC
:1031D000B918E091C201F091C30190818091D602AB
:1031E000892B80838091C2019091C3010E94041AAF
:1031F00081110E94B9188091C2019091C3010C9471
:10320000830C0C94A0180C9401199091D502981776
:1032100021F08093D5020C94031908958091D50272
:10322000882329F01092D50280E00C9403190895A8
:103230000C94A01898E0899F90011124262B2093CC
:10324000D2020E94A0160E944C1B9093D102809340
:10325000D0028091D2028595859585950C94181998
:103260001092D2021092D1021092D00280E00C94FF
:1032700018192091D202809582238093D202982F30
:10328000977079F430E0482F082E000C550B241766
:10329000350739F08595859585950E94C1160C9462
:1032A000301908956FEF7FEF80E090E00C94E325F4
:1032B00080E090E00E94BF2521E08C3E9E4F09F007
:1032C00020E0822F089582E090E00C94B72583E0FF
:1032D00090E00C94B725682F83E090E00C94C5250E
:1032E000CF9384E090E00E94B725C82F81E290E060
:1032F0000E94B7252C2F30E0A901582BCA01CF918D
:103300000895CF93C92F682F84E090E00E94C525CF
:103310006C2F81E290E0CF910C94C525AB01BC01EC
:103320008FE090E00C94D725AB01BC0183E190E0E5
:103330000C94D72560E070E0CB010C94941960E008
:1033400070E0CB010E948E190C949A196CEE7EEFFE
:1033500080E090E00E94E32560E082E090E00E943F
:10336000C52560E083E090E00E94C5251092CC0264
:103370001092CD021092CE021092CF0260E084E053
:1033800090E00E94C52560E081E290E00E94C525A2
:1033900060E085E090E00E94C52560E086E090E076
:1033A0000E94C5256FEF87E090E00E94C52540E0B0
:1033B00050E0BA0188E090E00E94D72560E08DE0FF
:1033C00090E00E94C52540E050E0BA0188E190E01D
:1033D0000E94D72560E087E190E00E94C52540E08B
:1033E00050E0BA018CE190E00E94D72560E080E2D5
:1033F00090E00E94C5250C949F190C94A619682F83
:103400008EE090E00C94C525FC0132968091D601A7
:10341000882331F08091430387FF02C09EE101C001
:1034200096E080E0915028F021912223D9F38F5F1C
:10343000F9CF0895662351F12091D6012223E9F0B6
:103440002091430327FF19C0462F46954695469580
:103450004E31E0F4677021E030E002C0220F331FEC
:103460006A95E2F7FC01E40FF11D828190E02823C8
:10347000392381E0232B69F409C0FC0132960896B8
:103480002191621729F0E817F907D1F780E0089534
:1034900081E008959C01FC0132969FEF80E041910C
:1034A000461789F09F3F19F4411101C0982F8F5F93
:1034B0008630A9F79F3F39F0F901E90FF11D97FD1B
:1034C000FA956283089508959C012A5F3F4FFC019D
:1034D0004281461301C01282019682179307B9F701
:1034E0000895262F2695269526952E3168F4FC0101
:1034F000E20FF11D677021E030E001C0220F6A95F4
:10350000EAF78281282B22830895262F2695269577
:1035100026952E3170F4FC01E20FF11D677021E059
:1035200030E001C0220F6A95EAF7209582812823B6
:10353000228308952091D601222329F0209143036C
:1035400027FD0C94711A0C944A1A2091D60122235B
:1035500029F02091430327FD0C94851A0C94641ADA
:103560002091D601FC013296222331F08091430351
:1035700087FF02C08EE101C086E0DF011D928A95BF
:10358000E9F7089508950C94C21A0C94C21ACF93C7
:103590000E94C51A0E9460060E94C31AC0E08C2FC8
:1035A0000E94E505892B29F4CF5FC430C1F780E084
:1035B00001C081E0CF9108950C94C21A0C94DC1ADA
:1035C0000E94DE1A80914903843049F11092FB0277
:1035D00020E488E190E00FB6F894A895809360000D
:1035E0000FBE2093600080E00E946C030E94DE1AF0
:1035F00083B7817F846083BF83B7816083BF789402
:10360000889583B78E7F83BF0FB6F894A895809175
:103610006000886180936000109260000FBE089582
:103620000C94C21A0E94F9110E94770C0E946C033C
:103630000C94101B1F920F920FB60F9211248F93B0
:103640009F93AF93BF938091FB02811113C0809130
:103650003F0390914003A0914103B09142034196F2
:10366000A11DB11D80933F0390934003A09341039C
:10367000B0934203BF91AF919F918F910F900FBE76
:103680000F901F90189582E084BD93E095BD9AEF4E
:1036900097BD80936E0008952FB7F89480913F03F3
:1036A00090914003A0914103B09142032FBF089530
:1036B000CF92DF92EF92FF920F931F932FB7F89460
:1036C00040913F0350914003609141037091420348
:1036D0002FBF6A017B01EE24FF248C0120E030E043
:1036E000C016D106E206F30610F4415051099A01C2
:1036F000281B390BC9011F910F91FF90EF90DF90AC
:10370000CF90089578941F920F920FB60F921124C4
:103710008F939F93AF93BF9380913F03909140030A
:10372000A0914103B09142030196A11DB11D809368
:103730003F0390934003A0934103B0934203BF9192
:10374000AF919F918F910F900FBE0F901F90189582
:1037500087E797E790930108809300089AE088E153
:103760000FB6F894A895809360000FBE9093600008
:10377000FFCF0C9452190E9460068FE39CE90197D9
:10378000F1F700C000000E94600680E00E94E5059D
:1037900080FF04C00E94B91B0C94A81B08950E94CE
:1037A0005819811102C00E94FD190E94631980936B
:1037B000FA020E94701990934403809343030E947D
:1037C0006719682F70E080E090E00C9440168091BB
:1037D000030380FF0BC06091C90185E0689FB001C1
:1037E000112475956795759567952BC081FF09C064
:1037F0006091C90185E0689FB001112475956795B6
:1038000020C082FF07C06091C90185E0689FB001B8
:10381000112417C0909102039923D1F06091C8013F
:10382000961788F72091C90185E0289F90011124FF
:10383000929FA001939F500D112470E0CA010E9435
:1038400089256038710540F46115710519F406C0C9
:1038500065E070E0862F08958FE7089581E0089570
:103860008091030380FF08C06091C50170E07595E9
:1038700067957595679521C081FF06C06091C50168
:1038800070E07595679519C082FF04C06091C5010D
:1038900070E010C090910203992399F06091C401E7
:1038A0009617A0F78091C501899FC001112470E08F
:1038B0000E9489256038710540F46115710519F47D
:1038C00006C061E070E0862F08958FE7089581E0DB
:1038D0000895803F21F40E94E71B819504C0813F39
:1038E00029F40E94E71B809307030895823F21F487
:1038F0000E94E71B819504C0833F29F40E94E71BC7
:10390000809306030895893F19F40E94301C05C076
:103910008A3F31F40E94301C8195809308030895FA
:103920008B3F21F40E94301C819504C08C3F29F408
:103930000E94301C809309030895843F21F48091F4
:103940000503816017C0853F21F4809105038260E3
:1039500011C0863F21F48091050384600BC0873F2E
:1039600021F480910503886005C0883F31F480917F
:10397000050380618093050308958D3F21F48091B4
:10398000030381600BC08E3F21F4809103038260AA
:1039900005C08F3F29F48091030384608093030363
:1039A0000895803F39F48091070387FF6CC010921F
:1039B000070369C0813F29F4809107031816BCF3FF
:1039C00062C090910603823F29F497FF5CC0109279
:1039D000060359C0833F19F41916CCF354C0893F2C
:1039E00041F48091080318160CF04DC010920803A2
:1039F0004AC08A3F29F48091080387FF44C0F6CF6C
:103A00008B3F39F48091090387FF3DC01092090371
:103A10003AC08C3F29F4809109031816BCF333C0D7
:103A2000843F21F4809105038E7F17C0853F21F4E8
:103A3000809105038D7F11C0863F21F4809105039D
:103A40008B7F0BC0873F21F480910503877F05C0E2
:103A5000883F31F4809105038F7E8093050313C066
:103A60008D3F21F4809103038E7F0BC08E3F21F4A4
:103A7000809103038D7F05C08F3F29F4809103035C
:103A80008B7F809303038091060381110EC0809188
:103A9000070381110AC080910803811106C080913B
:103AA0000903811102C010920203089584E093E09B
:103AB0000E949D0C0E944C1B909301038093000375
:103AC0000895CF93DF9300D000D000D0CDB7DEB7FC
:103AD00086E0E4E0F3E0DE01119601900D928A9514
:103AE000E1F780910603811105C0809107038823C7
:103AF00009F47AC08091FE029091FF020E94581B47
:103B0000AC0190910203992339F02091CA0130E071
:103B10002417350758F068C02091CB018AE0289F10
:103B2000900111242417350718F05EC09F3F19F04B
:103B30009F5F9093020310920803109209038091F3
:103B40000603181624F40E94E71B80930603809155
:103B5000060387FF05C00E94E71B8195809306033B
:103B600080910703181624F40E94E71B8093070333
:103B70008091070387FF05C00E94E71B8195809312
:103B80000703309106033323E1F02091070322233A
:103B9000C1F045EB3403C0011124992319F090932F
:103BA000060303C081E08093060335EB2303C001C5
:103BB0001124992319F09093070303C081E08093A7
:103BC00007030E94561D809100039091010390937A
:103BD000FF028093FE0286E0FE013196A4E0B3E08E
:103BE00001900D928A95E1F780910803811105C03B
:103BF00080910903882309F47AC08091FC02909196
:103C0000FD020E94581BAC0190910203992339F0E8
:103C10002091C60130E02417350758F068C0209184
:103C2000C7018AE0289F900111242417350718F056
:103C30005EC09F3F19F09F5F9093020310920603AE
:103C40001092070380910803181624F40E94301C78
:103C5000809308038091080387FF05C00E94301CF1
:103C600081958093080380910903181624F40E941B
:103C7000301C809309038091090387FF05C00E94CF
:103C8000301C819580930903309108033323E1F0C0
:103C9000209109032223C1F045EB3403C001112414
:103CA000992319F09093080303C081E080930803DF
:103CB00035EB2303C0011124992319F090930903D4
:103CC00003C081E0809309030E94561D8091000388
:103CD000909101039093FD028093FC0286E0FE0127
:103CE0003196A4E0B3E001900D928A95E1F7269613
:103CF0000FB6F894DEBF0FBECDBFDF91CF91089510
:103D0000E4E0F3E086E0DF011D928A95E9F7109286
:103D1000020310920303089580912A030895CF931C
:103D2000DF9300D01F92CDB7DEB790914903943056
:103D300019F589837B836A8382E08093E9008FEFA2
:103D40009091E800815095FD06C095ED9A95F1F7A8
:103D500000008111F5CF8091E80085FF0DC040E0A3
:103D600050E063E070E0CE0101960E94EB2080916C
:103D7000E8008E778093E8000F900F900F90DF910E
:103D8000CF910895CF93DF93EC010E94CE20823033
:103D900011F0843031F4BE0184E0DF91CF910C94B6
:103DA0008F1EDF91CF910895BC0183E00C948F1E8C
:103DB000CF93DF93EC010E94CE20823011F084304B
:103DC000F9F482E08093E9008FEF9091E800815050
:103DD00095FD06C095ED9A95F1F700008111F5CF9C
:103DE0008091E80085FF0CC040E050E066E070E0A4
:103DF000CE010E94EB208091E8008E778093E8004E
:103E0000DF91CF910895CF93DF93EC010E94CE20F4
:103E1000823011F08430D9F58091D601882339F0B1
:103E20008091430387FF03C060E282E002C068E044
:103E300081E08093E9008FEF9091E800815095FD3B
:103E400006C095ED9A95F1F700008111F5CF8091AC
:103E5000E80085FF1CC08091D601811105C040E0BB
:103E600050E068E070E003C070E040E050E0CE0158
:103E70000E94EB208091E8008E778093E80080E23A
:103E8000FE01AAE0B3E001900D928A95E1F7DF917F
:103E9000CF91089580914803811109C00E947C222E
:103EA0000E94D9228091E20084608093E20008950C
:103EB000109248030895089508950C94121B42E04F
:103EC00061EC81E00E94F52142E261EC82E00C9419
:103ED000F52180914B03833009F460C030F48130C8
:103EE00071F0823009F499C008958A3009F485C0D0
:103EF0008B3009F46BC0893009F0A7C020C08091D5
:103F00004A03813A09F0A1C08091E800877F80933D
:103F1000E80080914E0390914F03892B21F460E2D9
:103F20008AE093E003C060E080E090E070E00E94EF
:103F300036218091E8008B778093E8000895809186
:103F40004A03813209F081C080914E0390914F0362
:103F5000029708F07AC08091E800877F8093E8009C
:103F60008091E80082FD05C0809149038111F8CF5E
:103F70006CC02091F3008091F20090E0922B0297A8
:103F800029F48091F1008B7F813021F48091F10040
:103F900080932A038091E8008B7753C080914A0375
:103FA000813A09F052C080914E0390914F03892BC2
:103FB00009F04BC08091E800877F8093E8008091F2
:103FC000E80080FFFCCF8091D60136C080914A0383
:103FD0008132D9F580914E0390914F03892BA9F539
:103FE0008091E800877F8093E8000E942A228091D8
:103FF0004C038093D6010C94F91180914A038132CD
:1040000021F58091E800877F8093E8000E942A22B2
:1040100080914D0380932B03089580914A03813A48
:10402000A1F48091E800877F8093E8008091E80008
:1040300080FFFCCF80912B038093F1008091E800FA
:104040008E778093E8000C942A22089584B7877FA6
:1040500084BF0FB6F894A895809160008861809322
:104060006000109260000FBE90E080E80FB6F894F8
:1040700080936100909361000FBE0E94E70C0E9444
:104080007C220E94D9228091E20084608093E20029
:1040900078940E946E250E94EF0C8CEC91E00E94B7
:1040A000720C80914903853069F40E94E01A809176
:1040B00047038823B1F30E94C71A882391F30E9413
:1040C000D520EFCF0E94020DECCF0C946720292F52
:1040D000332723303105C9F060F42130310581F0F8
:1040E0002230310509F04AC08BE390E020E233E052
:1040F00049C02132310511F12232310579F13EC03A
:1041000082E190E02BE533E03DC0992781309105B5
:1041100061F040F08230910559F0039779F5E8EEAF
:10412000F2E008C0ECE1F3E005C0E4E0F3E002C037
:10413000EEEEF2E0849190E09F0124C061157105DC
:1041400041F061307105D1F489E090E02BE433E077
:1041500019C089E090E022E333E014C061157105D5
:1041600041F06130710551F48CEB90E02DE633E0C5
:1041700009C080E490E029E234E004C080E090E0EF
:1041800020E030E0FA0131832083089580914903D3
:10419000843011F081E0089582E0089580912C032D
:1041A000811102C00C94C620089580E189BD82E18E
:1041B00089BD09B400FEFDCF8091D8008F7D80932A
:1041C000D8008091E00082608093E0008091E00060
:1041D00081FDFCCF0895CF92DF92EF92FF920F9373
:1041E0001F93CF93DF93EC018B017A010E94492248
:1041F000811133C0E114F10439F0F701808191811C
:10420000081B190BC80FD91FC12CD12C0115110582
:1042100019F18091E80085FD16C08091E8008E7745
:104220008093E800E114F10449F0F7018081918165
:10423000C80ED91ED182C08285E00FC00E944922DB
:10424000882321F30AC089918093F100015011095C
:10425000FFEFCF1ADF0ADACF80E0DF91CF911F9115
:104260000F91FF90EF90DF90CF9008952091500331
:10427000309151032617370748F06115710539F45D
:104280002091E8002E772093E80001C0B901FC01DD
:1042900020E06115710579F1809149038823F1F1DE
:1042A0008530F1F18091E80083FD3CC08091E80009
:1042B00082FD2EC08091E80080FFEBCF2091F300BB
:1042C0008091F20090E0922B6115710551F08830D9
:1042D000910538F421912093F10061507109019604
:1042E000F3CF21E0089709F020E08091E8008E7775
:1042F0008093E800CECF2111CFCF0AC0809149032F
:10430000882361F0853061F08091E80083FD0AC068
:104310008091E80082FFF2CF80E0089582E0089566
:1043200083E0089581E00895209150033091510376
:104330002617370748F06115710539F42091E80018
:104340002E772093E80001C0B901FC0120E061153F
:10435000710591F180914903882309F440C08530AB
:1043600009F43FC08091E80083FD3DC08091E800E2
:1043700082FD2FC08091E80080FFE9CF2091F300FB
:104380008091F20090E0922B6115710559F0883010
:10439000910540F424912093F10031966150710908
:1043A0000196F2CF21E0089709F020E08091E80023
:1043B0008E778093E800CBCF2111CCCF0AC08091BB
:1043C0004903882361F0853061F08091E80083FD26
:1043D0000AC08091E80082FFF2CF80E0089582E079
:1043E000089583E0089581E00895982F973068F547
:1043F0009093E900981739F07091EC002091ED004E
:104400005091F00003C0242F762F50E021FD02C010
:104410009F5FECCF3091EB003E7F3093EB0030910B
:10442000ED003D7F3093ED003091EB003160309333
:10443000EB007093EC002093ED005093F00020917E
:10444000EE0027FDE5CF80E008958F708093E900AE
:1044500081E0089580914A0387FF11C08091E800B0
:1044600082FD05C0809149038111F8CF11C0809170
:10447000E8008B770BC080914903882349F0809135
:10448000E80080FFF8CF8091E8008E778093E80005
:1044900008952091E4003091E50095E64091EC000C
:1044A000842F817040FF23C08091E80080FD1DC0F3
:1044B00080914903882399F0853099F08091EB0031
:1044C00085FD11C04091E4005091E50024173507A7
:1044D00029F3915011F09A01E1CF84E0089582E030
:1044E000089583E0089581E0089580E00895409163
:1044F000E80042FFDDCF08950E94EA220E94F222E6
:10450000E0EEF0E0808181608083E8EDF0E0808182
:104510008F77808319BCA7EDB0E08C918E7F8C9350
:1045200080818F7E80831092480308950F931F939C
:10453000CF93DF930E94EA220E94F222C8EDD0E0DE
:1045400088818F77888388818068888388818F7D40
:10455000888319BC109249031092450310924703B7
:104560001092460300EE10E0F80180818B7F80837B
:1045700088818160888342E060E080E00E94F521CC
:10458000E1EEF0E080818E7F8083E2EEF0E08081DA
:1045900081608083808188608083F80180818E7F44
:1045A0008083888180618883DF91CF911F910F91F3
:1045B0000895E8EDF0E080818F7E8083E7EDF0E004
:1045C00080818160808384E082BF81E080934803A2
:1045D0000C949622E8EDF0E080818E7F808310922B
:1045E000E20008951092DA001092E10008951F92FF
:1045F0000F920FB60F9211242F933F934F935F9317
:104600006F937F938F939F93AF93BF93EF93FF939A
:104610008091E10082FF0BC08091E20082FF07C021
:104620008091E1008B7F8093E1000E946D25809155
:10463000DA0080FF1FC08091D80080FF1BC08091EE
:10464000DA008E7F8093DA008091D90080FF0DC060
:1046500080E189BD82E189BD09B400FEFDCF81E022
:10466000809349030E944A1F05C019BC1092490358
:104670000E94581F8091E10080FF19C08091E200E4
:1046800080FF15C08091E2008E7F8093E2008091D0
:10469000E20080618093E2008091D8008062809384
:1046A000D80019BC85E0809349030E945C1F80916B
:1046B000E10084FF30C08091E20084FF2CC080E1E3
:1046C00089BD82E189BD09B400FEFDCF8091D8008B
:1046D0008F7D8093D8008091E1008F7E8093E100F0
:1046E0008091E2008F7E8093E2008091E200816001
:1046F0008093E20080914503882311F084E007C095
:104700008091E30087FD02C081E001C083E08093D7
:1047100049030E945D1F8091E10083FF29C08091C1
:10472000E20083FF25C08091E100877F8093E10054
:1047300082E080934903109245038091E1008E7FCF
:104740008093E1008091E2008E7F8093E20080916F
:10475000E20080618093E20042E060E080E00E943D
:10476000F5218091F00088608093F0000E945B1F2B
:10477000FF91EF91BF91AF919F918F917F916F9139
:104780005F914F913F912F910F900FBE0F901F900F
:1047900018951F920F920FB60F9211242F933F93EB
:1047A0004F935F936F937F938F939F93AF93BF9339
:1047B000CF93DF93EF93FF93C091E900CF70809187
:1047C000EC00D82FD17080FDD0E81092E9008091E4
:1047D000F000877F8093F00078940E940D2410925F
:1047E000E9008091F00088608093F000CD2BCF70BD
:1047F000C093E900FF91EF91DF91CF91BF91AF910D
:104800009F918F917F916F915F914F913F912F91E8
:104810000F900FBE0F901F9018951F93CF93DF93AB
:10482000CDB7DEB7AA970FB6F894DEBF0FBECDBFE7
:10483000EAE4F3E08091F100819323E0E235F207AE
:10484000C9F70E94691F8091E80083FF2EC1809103
:104850004A0390914B03492F50E04A30510508F02C
:1048600024C1FA01EC58FF4F0C949D25803821F0AB
:10487000823809F01AC108C080914603909147031D
:10488000992389F082600FC080914E038F7087302A
:1048900008F00BC18093E9008091EB0085FB88272D
:1048A00080F91092E9009091E800977F9093E800DA
:1048B0008093F1001092F100D1C0282F2D7F09F0D4
:1048C000F4C0882319F0823061F0EFC080914C036E
:1048D000813009F0EAC0933009F080E0809347030B
:1048E0002EC080914C0381112AC080914E038F709D
:1048F0002FEF280F263008F0D8C08093E9002091D0
:10490000EB0020FF1CC0933021F48091EB0080620B
:1049100014C09091EB0090619093EB0021E030E0A7
:10492000A90102C0440F551F8A95E2F74093EA009F
:104930001092EA008091EB0088608093EB00109267
:10494000E9008091E800877F8093E8000E942A2296
:10495000ACC08111AAC010914C031F778091E30075
:104960008078812B8093E3008091E800877F80939B
:10497000E8000E942A228091E80080FFFCCF80910D
:10498000E30080688093E300111102C082E001C05F
:1049900083E08093490389C08058823008F085C045
:1049A00080914C0390914D038C3D53E0950779F530
:1049B00083E08A838AE289834FB7F894DE011396F5
:1049C00020E03EE051E2E32FF0E050935700E49105
:1049D00020FF03C0E295EF703F5FEF708E2F90E0F5
:1049E000EA3010F0C79601C0C0968D939D932F5F5B
:1049F000243149F74FBF8091E800877F8093E8001A
:104A00006AE270E0CE0101960E94362116C06091E4
:104A10004E0370914F03AE014F5F5F4F0E946520C0
:104A2000BC01892B09F441C09091E800977F9093D5
:104A3000E80089819A810E9494218091E8008B7717
:104A40008093E80032C0803881F58091E800877F4C
:104A50008093E800809145038093F1008091E80005
:104A60008E7772CF811121C080914C0390914D03BC
:104A700099270297D4F48091E800877F8093E8001B
:104A800080914C03809345030E942A228091450324
:104A9000811106C08091E30087FD02C081E001C062
:104AA00084E0809349030E945F1F8091E80083FFA8
:104AB0000AC08091E800877F8093E8008091EB0036
:104AC00080628093EB00AA960FB6F894DEBF0FBE0B
:104AD000CDBFDF91CF911F9108950895CF9380911D
:104AE00049038823A1F0C091E900CF709091EC00B8
:104AF000892F817090FD80E8C82B1092E900809189
:104B0000E80083FD0E940D24CF70C093E900CF918F
:104B1000089597FB072E16F4009407D077FD09D06F
:104B20000E94A32507FC05D03EF4909581959F4FE8
:104B30000895709561957F4F0895EE0FFF1F0590C2
:104B4000F491E02D0994AA1BBB1B51E107C0AA1FD9
:104B5000BB1FA617B70710F0A61BB70B881F991F1E
:104B60005A95A9F780959095BC01CD010895F999C2
:104B7000FECF92BD81BDF89A992780B50895A8E12E
:104B8000B0E042E050E00C94EB25262FF999FECFDF
:104B900092BD81BDF89A019700B4021639F01FBA90
:104BA00020BD0FB6F894FA9AF99A0FBE08950396AD
:104BB000272F0E94C6250E94C525252F0E94C625A5
:104BC000242F0C94C6250196272F0E94C6250C94ED
:104BD000C525DC01CB01FC01F999FECF06C0F2BD71
:104BE000E1BDF89A319600B40D9241505040B8F7AB
:064BF0000895F894FFCFC8
:104BF600ED08FE080E09000000000000000000009D
:104C060000000000B201ED08FE080E0900000000D9
:104C160000000000000000000000AE01ED08FE08E4
:104C26000E09000000000000000000000000000067
:104C3600AA01ED08FE080E090000000000000000B1
:104C4600000000000000A601ED08FE080E090000A5
:104C5600000000000000000000000000A201ED08B6
:104C6600FE080E0900000000000000000000000021
:104C760000009E01ED08FE080E090000000000007D
:104C860000000000000000009A012E002E022D00F8
:104C96002D02310031022F0230022F003000260291
:104CA600270233003400E202000000DC02000000AC
:104CB60001FFD7022808641E140A321E8C1E031F29
:104CC600D81ED41EC21E01E200E900EA00B500B6F5
:104CD60000B700CD008301CC008A01920194012126
:104CE60002230224022502260227022A02B300B466
:104CF600006F007000818283343595F731F4339765
:104D06003032F5F66690E200E900EA00B500B6003A
:104D1600B700CD008301CC008A01920194012102E3
:104D2600230224022502260227022A02B300B40027
:084D36006F0070008182830010
:00000001FF
