:100000000C9489030C94D0030C94D0030C94D0036B
:100010000C94D0030C94D0030C94D0030C94D00314
:100020000C94D0030C94D0030C949D290C946F2A4B
:100030000C94D4210C94D0030C94D0030C94D003D2
:100040000C94D0030C94D0030C94D0030C94D003E4
:100050000C94D0030C943C220C94D0030C94D00349
:100060000C94D0030C94D0030C94D0030C94D003C4
:100070000C94D0030C94D0030C94D0030C94D003B4
:100080000C94D0030C94D0030C94D0030C94D003A4
:100090000C94D0030C94D0030C94D0030C94D00394
:1000A0000C94D0030C94D0030C94D003900F930FB6
:1000B000980F9D0FA20FA70FAC0FB10FB60FBB0F7C
:1000C000C00FC70FCB0FCE0FD80FD80FD80FD80F38
:1000D000D10FD80F82168216B416B4160D172B172F
:1000E000A018A0186D170218131813189018A0184C
:1000F000A018991836193619481948193F1948197E
:100100004819481936193619441948194819441913
:10011000DC2A032BFB2B032BFB2B4F2B722BFB2BF4
:10012000C92BD82B01043530307C00010435303028
:100130007C76001A000900000014001A0000001468
:10014000001A00090013000A000D000F0018001C1F
:10015000000057046115001600170007000B00117E
:100160000008000C0012001D641B000600190005A9
:10017000000E001000366437613868000002552C0C
:100180004400002A43000028450000E3000000145A
:10019000001A000800150017001C0018000C0012BF
:1001A00000130004611600070009000A000B000D8F
:1001B000000E000F0000571D641B0006001900050B
:1001C0000011001000366437613868000002552CB9
:1001D0004400002A43000028450000E3000000001E
:1001E000000000000000000000000000000000000F
:1001F00000000000000000000000000000000000FF
:1002000000000000000000000000000000000000EE
:1002100000000000000000000000000000000000DE
:100220000000000000000000000000000000000EC0
:10023000574A0052004D00490023022402250201C2
:10024000574C000D57500051004F0028001E021F50
:10025000022002210222020F570A5709570857109D
:10026000570757055702570357045700003900AE88
:10027000000000010000002900000001000000351E
:100280000206570100010001000100420043004442
:10029000004500310230002F002D022D0001003EEC
:1002A000003F0040004100310030022F022E022E9C
:1002B0000046003A003B003C003D000000290001E0
:1002C0000000004C000000010000000100000000E0
:1002D0005CF700FB00FC00F9002400250026005715
:1002E000005600095DF600F500F400FA0021002236
:1002F00000230055005400085DF8004604160A4625
:100300000C1E001F00200063000100000046044690
:100310000C0000160A000001000000270000000089
:10032000000000000000002A2B2800000000000050
:100330000000000000000000000029000000002C68
:100340001E3420212224342627252E362D37382707
:100350001E1F202122232425263333362E37381F13
:100360000405060708090A0B0C0D0E0F10111213D5
:100370001415161718191A1B1C1D2F3130232D3573
:100380000405060708090A0B0C0D0E0F10111213B5
:100390001415161718191A1B1C1D2F3130354C0057
:1003A000000000000000000000000000000000004D
:1003B0000000007E0F00D4FFFFFFC7000000787828
:1003C0003C1E1E140A052223252628292A2C2D2FFF
:1003D0003032333536383A3B3D3E4042434547495B
:1003E0004A4C4E5051535557595A5C5E6062646690
:1003F00068696B6D6F71737577797B7D7F8183859C
:1004000087898A8C8E90929496989A9C9E9FA1A39D
:10041000A5A7A8AAACAEAFB1B3B4B6B8B9BBBCBEC1
:10042000BFC1C2C3C5C6C7C9CACBCCCDCED0D1D23D
:10043000D2D3D4D5D6D7D7D8D9D9DADADBDBDBDC3F
:10044000DCDCDCDCDDDDDDDDDCDCDCDCDCDBDBDBEB
:10045000DADAD9D9D8D7D7D6D5D4D3D2D2D1D0CE4B
:10046000CDCCCBCAC9C7C6C5C3C2C1BFBEBCBBB950
:10047000B8B6B4B3B1AFAEACAAA8A7A5A3A19F9ECE
:100480009C9A98969492908E8C8A89878583817F96
:100490007D7B79777573716F6D6B69686664626077
:1004A0005E5C5A5957555351504E4C4A4947454343
:1004B00042403E3D3B3A3836353332302F2D2C2AE0
:1004C000292826252322FFAA7F554000010101018A
:1004D00001010101010202020202020202020303FF
:1004E00003030303030304040404040404050505CF
:1004F0000505060606060607070707070808080891
:10050000090909090A0A0A0B0B0B0C0C0C0D0D0D3D
:100510000E0E0E0F0F0F10101111111212131314D3
:1005200014151516161717181819191A1A1B1B1C4B
:100530001D1D1E1E1F2020212222232424252626A5
:10054000272829292A2B2C2D2D2E2F3031323233DA
:100550003435363738393A3B3C3D3E3F40414243E3
:100560004445464748494A4C4D4E4F5051535455C7
:100570005658595A5B5D5E5F616264656668696B77
:100580006C6D6F7072737577787A7B7D7E808283F5
:100590008587888A8C8E8F91939596989A9C9EA039
:1005A000A2A3A5A7A9ABADAFB1B3B5B7BABCBEC046
:1005B000C2C4C6C9CBCDCFD1D4D6D8DBDDDFE2E40F
:1005C000E7E9EBEEF0F3F5F8FAFDFF040330000085
:1005D0000014035F00330033002000620079002024
:1005E000004E0052000000160374006F006D006999
:1005F000006E00610062006F0078003100000004AE
:1006000003090409023B00020100A0FA09040000EA
:100610000103010100092111010001224000070529
:10062000810308000A0904010001030000000921F8
:10063000110100012281000705820320000A120136
:10064000100100000008EDFE506A010001020301E4
:1006500005010902A10185020901A100050919018D
:100660002905150025019505750181029501750380
:1006700081010501093009311581257F9502750831
:10068000810609381581257F950175088106050CBD
:100690000A38021581257F950175088106C0C005BD
:1006A000010980A101850319012AB700150126B7A8
:1006B00000950175108100C0050C0901A101850498
:1006C00019012AA002150126A002950175108100CA
:1006D000C005010906A101050719E029E715002554
:1006E00001950875018102950175088101050719B9
:1006F0000029FF150026FF009506750881000508F2
:10070000190129059505750191029501750391015E
:10071000C00011241FBECFEFDAE0DEBFCDBF04B6AC
:1007200003FE27C08091350490913604A0913704D0
:10073000B09138048730904BA740B04BD1F4109261
:10074000350410923604109237041092380414BE07
:1007500084B7877F84BF0FB6F894A8958091600016
:10076000886180936000109260000FBEE0E0F8E3C3
:10077000099513E0A0E0B1E0E8E6F9E502C00590D4
:100780000D92A834B107D9F724E0A8E4B3E001C082
:100790001D92A533B207E1F70E94CC260C94B22C2F
:1007A0000C940000CF93DF93EC018881813029F015
:1007B000823039F48BE491E002C08EE491E00E9433
:1007C0004A05CE01DF91CF910C942A10CF93DF938D
:1007D000EC018881823039F0833041F0813051F46E
:1007E0008AE191E005C087E193E002C087E191E0F2
:1007F0000E944A05CE01DF91CF910C942A10CF932D
:10080000DF93EC018881823039F0833041F0813010
:1008100051F486E091E005C089E191E002C08BE1EE
:1008200091E00E944A05CE01DF91CF910C942A10ED
:10083000CF93DF93EC018881823039F0833041F02F
:10084000813071F48DE492E005C08DE493E002C044
:1008500084E091E00E944A0586E091E00E944A050A
:10086000CE01DF91CF910C942A10CF93DF93EC014E
:100870008881823039F0833041F0813051F48EE448
:1008800090E005C08DE490E002C08DE491E00E940C
:100890004A05CE01DF91CF910C942A10CF93DF93BC
:1008A000EC018881823039F0833041F0813051F49D
:1008B0008BE490E005C08AE490E002C08AE491E015
:1008C0000E944A05CE01DF91CF910C942A10CF935C
:1008D000DF93EC018881823039F0833041F0813040
:1008E00051F48AEA90E005C089EA90E002C088EA03
:1008F00090E00E944A05CE01DF91CF910C942A101E
:10090000CF93DF93EC018881823069F028F4813045
:1009100089F48EEA90E00CC0833041F0843051F4C9
:100920008FEA90E005C08BEA90E002C08CEA90E08C
:100930000E944A05CE01DF91CF910C942A10CF93EB
:10094000DF93EC018881823081F485EF90E00E9492
:100950004A058BE291E00E944C0684E291E00E94FD
:100960004C0688E290E00E944A05CE01DF91CF91CB
:100970000C942A10882319F0813031F008956623F1
:1009800049F089E290E004C0662321F08BE290E018
:100990000C944A050895CF93DF93EC010E949620B2
:1009A000BE0180E090E0DF91CF910C946B1D883008
:1009B0002DE5920751F089309D4589F4FB01828134
:1009C000882371F082E090E006C0FB0182818823D9
:1009D00039F081E090E00E94CB0480E0089581E04E
:1009E00008959C013A9521153F4138F5DC01AA276D
:1009F000B270AC01442754709C012227387094FFD8
:100A00000FC090FF02C080E101C080E0AB2B09F075
:100A10008062452B09F08064232B69F080680BC04D
:100A2000892F8170AB2B09F08260452B09F084601F
:100A3000232B09F08860FB0109940895CF93DF937D
:100A4000EC01805E9109089710F0209719F462E498
:100A500076E102C06CEF78E1CE010E94F1048C2FA8
:100A6000DF91CF910C941D15CF93DF93EC010E9481
:100A7000C715CE01805E9109089710F0209719F4F0
:100A800069E476E102C063E079E1CE01DF91CF91C4
:100A90000C94F104CF93DF93EC010E941E05CE016C
:100AA000DF91CF910C94340581E008950C94D70424
:100AB0001F93CF93DF9300D000D01F92CDB7DEB746
:100AC00049835A836B832091810389819A81211103
:100AD00012C0662349F00E94C01E182F682F89811A
:100AE0009A810E94691E03C00E94941E182F69817A
:100AF0007A81812F04C00E94C01E69817A810F9083
:100B00000F900F900F900F90DF91CF911F910C9449
:100B1000DB06FC01408151816281738184810C94E8
:100B20005805FF920F931F93CF93DF93E82FF0E0C8
:100B3000E15EFC4FF490C82FC695C695C695D0E0EF
:100B4000FE01E155FC4F0491877010E0082E02C0B1
:100B5000159507950A94E2F701701127FE01E156F9
:100B6000FC4FC491D0E002C0D595C7958A95E2F7B5
:100B7000C170DD270115110519F081EE0E941D15C8
:100B8000209719F086EE0E941D158F2D0E942F16BA
:100B9000CD2B19F086EE0E94C715012B41F081EE96
:100BA000DF91CF911F910F91FF900C94C715DF91AA
:100BB000CF911F910F91FF900895EF92FF920F93A5
:100BC0001F93CF93DF938C01F62E8AE0E82EF80175
:100BD0008491882309F459C0813009F044C0E801A8
:100BE0002196FE018491813041F42196FE011491F9
:100BF000812F0E941D15812F0FC0823039F4E8012A
:100C00002296FE0184910E941D1530C0833039F474
:100C1000E8012296FE0184910E94C71527C0843006
:100C200029F5E8012296FE01249180E090E030E071
:100C3000205331092A30310560F4E89EA001E99E75
:100C4000500D1124C901840F951F2196FE01249196
:100C5000EECF009759F0EFE9FFE03197F1F700C0D0
:100C600000000197F6CF0E949105E8018E010F5F09
:100C70001F4F8F2D882309F4AACFEFE9FFE03197AA
:100C8000F1F700C000008150F5CFDF91CF911F91A7
:100C90000F91FF90EF90089560E00C94DD050E94A5
:100CA00075220E948320811102C00E9428210C9489
:100CB000FA080E9414110E946B0A0C94F608089519
:100CC0000C945F0681E008950C946206CF93C82FC0
:100CD0000E9460068C2F0E946406CF9108950895AB
:100CE0000E9424190E946F062FEF84E39CE021509C
:100CF00080409040E1F700C0000087E797E79093BD
:100D00000108809300080C9462220F931F93CF93E5
:100D1000DF93EC010E9489058C01BE010E947110D5
:100D2000BE01C8010E9456058823D9F1BE01C80141
:100D30000E94B8108823A9F1BE01C8010E94970A39
:100D4000882379F1BE01C8010E941012882349F15D
:100D5000BE01C8010E945112882319F1BE01C801C9
:100D60000E947C138823E9F0BE01C8010E94790F1C
:100D70008823B9F08A81882369F001158CE518076A
:100D800031F00E3D1C4531F40E9428210AC00E941A
:100D9000700607C0CE01DF91CF911F910F910C9487
:100DA000540580E0DF91CF911F910F91089580E06D
:100DB00090E00895089528E2829FC0011124FC016B
:100DC0002AE0729FE00DF11D1124E60FF11DEE0FD8
:100DD000FF1FE15CFE4F859194910895880F991F44
:100DE000FC01E154FC4F859194910895CF93DF93DA
:100DF0000E94DB060E940E08EC018115904508F068
:100E000041C0C11580E4D80708F0D1C0C83ED10563
:100E100010F5C03ED10508F0FDC0C83AD10578F400
:100E2000C53AD10508F0A2C0C130D10509F4F2C01D
:100E300008F4EEC0C430D10508F0ECC0E9C0CF3BE7
:100E4000D10508F49BC0C03CD10508F4E1C0CE0137
:100E5000805C91099EC0C11590E2D90758F4C11574
:100E600021E0D20708F0D6C0C03FD10508F4D0C0B9
:100E7000D065D0C0C11580E3D80708F08EC0CE0180
:100E80009F7087C0C11595E5D90708F043C0C1150B
:100E900024E5D20708F0A2C0C11582E5D80708F5FD
:100EA000C11591E5D90708F085C0CE0174E096958B
:100EB00087957A95E1F783709C2F937021E030E05D
:100EC00002C0220F331F9A95E2F73C68382BCF708F
:100ED000C695C69580E2C89FE0011124C22BD32B92
:100EE00099C09E01237033278C2F86958695C11556
:100EF000D34508F064C0C1E0D0E002C0CC0FDD1FD4
:100F00002A95E2F720E2829FC0011124C82BD92B39
:100F1000DC6880C0C11529E5D207A0F4C11588E5B9
:100F2000D80708F060C0C11596E5D90708F070C071
:100F30008C2F0E94A2088F71C82FD0E0DC2FCC2705
:100F4000D06268C0C1152AE5D20708F451C0CE01AD
:100F500090568115904208F05BC08D2F8F710E94D2
:100F6000A208DD27D0628F71D82B54C0C55AD0E0BB
:100F7000CD50DD4FC881D0E0D0644CC0C85AD0E01D
:100F8000CC0FDD1FCB53DD4F0990D881C02DD46429
:100F900041C00E94EE06EC013DC0CE019927D3FF6F
:100FA00003C0EC01D86C36C0EC01D06C33C0DF70EC
:100FB000D06A30C0DC2FCC27C16FD06A2BC0C1E013
:100FC000D0E002C0CC0FDD1F2A95E2F720E2829F1D
:100FD000C0011124C82BD92BDA681CC0DC2FCC2708
:100FE000C46FD06A17C0DC2FCC27C06FD06A12C084
:100FF0008C2F8F700E94A20894E0D695C7959A9581
:10100000E1F7CF70D0E0DC2FCC27D069C82B02C02D
:10101000C0E0D0E0CE01DF91CF91089582389105F4
:1010200069F1B0F48133910509F46DC048F4893257
:10103000910509F463C08A32910509F469C00895E5
:101040008533910509F455C089339105B9F00895A8
:10105000833E910569F138F4803E9105B1F0823EFE
:10106000910509F10895863E9105A9F1873E910504
:10107000B9F1843E910509F064C023C02091260493
:1010800020FD4FC021FD4DC008958091260480FDB4
:1010900044C08091270480FF44C08091260484FDD1
:1010A00042C083EE4DC08091260482FF38C0F5CF48
:1010B0008091260482FD33C08091270480FD31C0D9
:1010C000ECCF8091270481FF32C08091260484FDFB
:1010D0002AC087EE35C08091260483FF26C0F5CF55
:1010E0008091260483FD21C08091270481FD1FC0CB
:1010F000ECCF8091260485FD1CC01DC08091260484
:1011000085FD19C016C08091260486FD16C017C043
:101110008091260486FD13C010C089E311C082EEC1
:101120000FC080EE0DC080E00BC086EE09C084EEDB
:1011300007C089E205C085E303C08AE201C081E3FC
:1011400090E008959091260492FF0DC0282F2871F9
:10115000283019F4877F846006C0282F247124303A
:1011600011F48B7F886093FF0DC0282F28712831E0
:1011700019F4877E846106C0282F2471243111F46C
:101180008B7E88612091270420FF0DC0382F387195
:10119000383019F4877F816006C0382F31713130C3
:1011A00011F48E7F886021FF0DC0282F287128310F
:1011B00019F4877E816106C0282F2171213111F435
:1011C0008E7E886194FD877E0895E82FF0E0EE0F13
:1011D000FF1FE05FFB4F808191810895089580EAB1
:1011E0008A95F1F7089508950C94F3080C94F40887
:1011F0000C94F3080C94F808CF93DF93A6EFB2E0B9
:1012000040E053E061E070E08D91E82FE295EF70EF
:10121000F0E021A18F70EB0102C0CC0FDD1F8A9599
:10122000E2F7CE019C2F9095922391A392A1892B56
:1012300082A34A175B0741F7A0E0B3E041E050E02A
:101240008D91E82FE295EF70F0E021A18F70BA0147
:1012500002C0660F771F8A95E2F7CB01962F909513
:10126000922391A392A1892B82A373E0A430B707A4
:1012700039F7109209041092080410921104109288
:10128000100410920B0410920A041092130410928E
:10129000120410920D0410920C0410921504109276
:1012A000140410920F0410920E041092170410925E
:1012B000160484E00E94100ADF91CF910C944F062F
:1012C0002F923F924F925F926F927F928F929F9256
:1012D000AF92BF92CF92DF92EF92FF920F931F9344
:1012E000CF93DF9300D000D0CDB7DEB786EFC82E06
:1012F00082E0D82EE12CF12C10E0AA24A394B12C8A
:1013000020E1422E24E0522ED6018D916D01B82F9E
:10131000B295BF70EB2FF0E0FC83EB8391A18F704F
:10132000450101C0880C8A95EAF7892F882981A395
:1013300082A1382C3094832182A30E94EF08A5015A
:101340000E2C02C0440F551F0A94E2F73A01609434
:10135000709420E033E03A832983E8E0F4E0212C24
:10136000BF0180819181A981BA810D91BA83A9833E
:10137000202F22952F7030E0D90190962C9130E0EB
:101380000F7002C0359527950A95E2F720FD04C03D
:101390009C01242B352B03C09C012621372131834E
:1013A00020833296DB012D913C918217930711F037
:1013B000222423944E165F0699F6EB81FC8181A1CD
:1013C000382231A282A1882A82A21229FFEFEF1AC5
:1013D000FF0A2AE0E216F10409F096CF212F44E03B
:1013E00060E174E088E094E00E94110A0E945906CE
:1013F000812F0F900F900F900F90DF91CF911F9141
:101400000F91FF90EF90DF90CF90BF90AF909F90A3
:101410008F907F906F905F904F903F902F900895A6
:101420000895FF920F931F93CF93DF93F82E092F08
:10143000162FD72FC42F222349F081E080934A032F
:101440000E940622909349038093480380914A03A7
:101450008823D9F080914803909149030E94122279
:10146000069798F0EF2DF02FA12FBD2F80E090E090
:101470004C2F50E08417950734F4219131912D932E
:101480003D930196F7CF10924A03DF91CF911F91C0
:101490000F91FF900895CF9390915B039923C9F02A
:1014A000882311F0C0E003C010925B0312C080914A
:1014B0005B03C817C8F7EC2FF0E0EE0FFF1FE55BEA
:1014C000FC4F808191810E941E050E94F21FCF5F18
:1014D000EECFCF9108958091A002882399F080915A
:1014E0005C03882379F080915F03909160030097FB
:1014F00049F00E9412224A9728F010925C0381E082
:101500000C944B0A089510925C031092A002109262
:10151000600310925F0381E00C944B0A8091A0025B
:1015200081110C94830A81E08093A00208955F9258
:101530006F927F928F929F92AF92BF92CF92DF92E3
:10154000EF92FF920F931F93CF93DF938C017B0158
:1015500010925D03873F2CE5920741F4FB01C281A5
:10156000CC23C9F081E08093A0020AC1883FFCE54A
:101570009F0739F4FB01C281CC2369F00E94830AE2
:10158000FFC0893F9C4539F4FB01C281CC2319F08F
:101590000E948E0AF5C08091A002882309F4EFC052
:1015A00010925E03AA24A394B12C95E0992EC1E079
:1015B000D0E08824839480915E03823008F0A1C03B
:1015C000C82ED12C9C9CF0019D9CF00D1124EA5654
:1015D000FD4F4081518177247A9490E0FA01E90F20
:1015E000F11DE90FF11D259134910217130709F43C
:1015F000792E232B11F09F5FF1CFFFEF7F1202C0F6
:10160000612C66C050905C03F7016280662069F12E
:101610009C9CF0019D9CF00D1124EA56FD4F9E010B
:1016200001C0220F7A94EAF73481232B24835520BA
:1016300039F3AE0102C0440F551F9A95E2F74150AD
:10164000510930E04217530709F042C0228133812B
:101650002115310521F0C9010E941E0503C061E07A
:101660000E94BA0480925D0333C09E0102C0220F23
:10167000331F9A95E2F7215031099C9CF0019D9C03
:10168000F00D1124EA56FD4F448150E02417350730
:1016900069F4228133812115310521F0C9010E94AD
:1016A000340505C060E00E94BA0401C0512C9C9C26
:1016B000F0019D9CF00D1124EA56FD4FCE0101C0B2
:1016C000880F7A94EAF78095948189238483652C26
:1016D000B628AA2069F09C9CF0019D9CF00D112475
:1016E000EA56FD4F91E08481811190E0892F01C07D
:1016F00080E08170A82E80915E038F5F80935E03EF
:101700005ACF80915D03882351F00E940622909366
:10171000600380935F0380E00E944B0A2CC0B110ED
:101720000DC081E00E944B0AAA2029F110926003AB
:1017300010925F0381E080935C031DC0F7018281FA
:101740008823C9F080915C038823A9F00E940622B7
:101750009093600380935F03E0915B03E83058F45B
:1017600081E08E0F80935B03F0E0EE0FFF1FE55BDF
:10177000FC4F1183008381E0CB2DC82701C0C1E05D
:101780008C2FDF91CF911F910F91FF90EF90DF9001
:10179000CF90BF90AF909F908F907F906F905F9011
:1017A0000895EF92FF920F931F93CF93DF93F62E3E
:1017B000472FE82FF0E0711106C0E553FB4F64910D
:1017C000762F862F72C0272F30E0E553FB4FE49130
:1017D0000E2F10E056E0659FC0011124CFEFD0E03E
:1017E000BE010E942F2C5BEA5603C001579F900D4B
:1017F00011248F0D911D8F0D911D982F990F890F19
:101800007E01E21AF30AE09ED001E19EB00DF09E47
:10181000B00D1124489FA0011124452F55277E01AA
:10182000E41AF50AE09EA001E19E500DF09E500DD5
:1018300011247E01E81AF108E29EC001E39E900D9A
:10184000F29E900D1124892F9927C81BD90BC09F98
:10185000C001C19F900DD09F900D11246230710581
:1018600091F048F461157105E1F061307105A9F45A
:101870008B2F752F19C06430710561F038F0663018
:10188000710579F00AC0892F7B2F0EC08E2F7B2F18
:10189000E52F0AC08E2F792F02C0852F7E2FEB2FC8
:1018A00003C08B2F7E2FE92F6E2FDF91CF911F91D9
:1018B0000F91FF90EF9008950895CF93DF93762FC7
:1018C000E901682F842F0E94D10B798368838A8372
:1018D000DF91CF91089580911804282F269530E04C
:1018E0002115310519F48170826005C0233131055D
:1018F00024F08170846280931804089588E090E059
:101900000C94722CCF92DF92EF92FF926B017C01CC
:101910000E946B0CB701A60188E090E0FF90EF9069
:10192000DF90CF900C94902CE8E1F4E083E080838A
:1019300011828FEF8283838314826081718182811F
:1019400093810C94820C8091180480FF02C08695CC
:10195000089580E0089580911C04833018F48F5F0F
:1019600080931C04609118047091190480911A04EA
:1019700090911B040C94820C80911C04882319F014
:10198000815080931C046091180470911904809117
:101990001A0490911B040C94820C6091A30270E0D5
:1019A0008091180480FF0AC08091620323E0829F27
:1019B000C0011124835E9B4F0C94991180916103A7
:1019C0009091A202891780F7E82FF0E09F01220F83
:1019D000331FE20FF31FE35EFB4F1182108212826E
:1019E0008F5FF0CF9091180490FF16C09091610323
:1019F0002091A202921770F4E92FF0E0DF01AA0F04
:101A0000BB1FEA0FFB1FE35EFB4F818360834283B2
:101A10009F5FF0CF0C94CD0C0895CF93DF9300D04F
:101A20001F92CDB7DEB79091180490FF0AC09E01B7
:101A30002F5F3F4F0E945D0C4B8169818A810E941C
:101A4000F20C0F900F900F90DF91CF910895CF93EC
:101A5000DF93EC01EC81F0E0EA53FC4F4491E8E1C4
:101A6000F4E0628181810E940D0D8C818F5F8C83F7
:101A7000DF91CF910895CF93DF93EC01E8E1F4E09B
:101A8000438162818C810E940D0D8C818F5F8C83DC
:101A9000DF91CF910895AF92BF92CF92DF92EF92F4
:101AA000FF920F931F93CF93DF9300D01F92CDB778
:101AB000DEB7182FF62E042FE22E8091180480FF37
:101AC0006BC0E82FE695AE2FB0E0AC5FBC4F9C91A9
:101AD00090936A038E7F823061F49E012F5F3F4FA7
:101AE000812F0E945D0C4B8169818A810E94F20CDA
:101AF00041C0923019F400911B043CC0963019F497
:101B00001091190437C09930A9F5E9508E2F8170D2
:101B1000D82EE695F0E0EA53FB4FA590B490C12C87
:101B2000BB246091A102C61618F52C2D30E0A29EB0
:101B3000C001A39E900DB29E900D112470E00E94F2
:101B40002F2C812FD11002C0860F01C0861B9091CF
:101B50006103290F311DA901440F551F240F351FA3
:101B6000235E3B4F402F6F2D0E945D0CC394D9CF55
:101B70000E94CD0C10931904F0921A0400931B04D8
:101B8000EE2051F0609118047091190480911A04AC
:101B900090911B040E94820C0F900F900F90DF9188
:101BA000CF911F910F91FF90EF90DF90CF90BF905A
:101BB000AF900895E8E1F4E09181282F438162819C
:101BC0008FE0890F0C944B0D81E00C94DA0DE8E165
:101BD000F4E09181282F4381628181EF890F0C9479
:101BE0004B0D81E00C94E70DE8E1F4E0628121E126
:101BF000620F08F46FEF282F438181810C944B0D05
:101C000081E00C94F40DE8E1F4E0628121E1621BD3
:101C100008F460E0282F438181810C944B0D81E012
:101C20000C94030EE8E1F4E0438121E1420F08F453
:101C30004FEF282F628181810C944B0D81E00C9431
:101C4000120EE8E1F4E0438121E1421B08F440E098
:101C5000282F628181810C944B0D81E00C94210E20
:101C600020E00C944B0DE8E1F4E080818E7F8083CE
:101C700060817181828193810E94820C10926B033A
:101C80002FEF80E792E0215080409040E1F700C0C4
:101C900000000C94CD0C60911804669570E04BE048
:101CA00050E084EA92E00E945D2C892B19F481E0D7
:101CB00080936B030E9406229093640380936303D6
:101CC00008959091180490FF35C09170811102C061
:101CD000926006C0833110F0946202C0880F982B86
:101CE00090931804662351F06091180470911904C0
:101CF00080911A0490911B040E94820C6091180438
:101D0000669570E04BE050E084EA92E00E945D2C22
:101D1000892B19F010926B0302C00E944B0E81E0D8
:101D20008093660340911B0460911A04809119040A
:101D30000C94300E0895682F90911804969581E0C8
:101D4000890F833108F081E00C94610E81E00C94DE
:101D50009B0E682F9091180496958FEF890F09F4C8
:101D600082E10C94610E81E00C94A90E61E00C9468
:101D7000610EE8E1F4E080818160808386950C94B7
:101D8000B60E8091180480FD0C94330E0C94B90E9D
:101D900060E00C94610E8091690381112EC00E9455
:101DA0008320811104C00E9428210E94940C0E946B
:101DB0007E0C609318047093190480931A04909316
:101DC0001B046E7F61F40E94940C0E947E0C609351
:101DD00018047093190480931A0490931B040E94B2
:101DE0006B0C10926B038091180480FF03C08695E2
:101DF0000E94C80E81E08093690308950F931F939A
:101E0000CF93DF9380916B03882309F452C08091B4
:101E10006A03E0911804E695E81BE09365038230BD
:101E200049F4F0E0EE53FC4FE491CE2FD0E007E20E
:101E30001DE00FC0863049F4F0E0E154FC4FE4911E
:101E4000CE2FD0E00BE31DE004C0C0EDD7E00CE5E1
:101E50001CE080916603882389F0109266030E943B
:101E600006229E0120953095820F931F9093640364
:101E70008093630310926803109267038091630359
:101E8000909164030E9412228C179D0790F0E091BC
:101E90006303F0916403CE0FDF1FD0936403C093FC
:101EA000630383E693E0F801DF91CF911F910F91D7
:101EB0000994DF91CF911F910F910895882311F01C
:101EC000FA0101C0FB010994CF93DF93C82FD62FED
:101ED0000E94A30C8C1740F00E94A30C8D1720F4D5
:101EE000DF91CF910C94A60E8C2FDF91CF910C94A3
:101EF000B60E0F931F93CF93FB01C281CC2309F43D
:101F000055C08C010E94921F8272F801E25CFC4570
:101F1000E431F10508F04DC0EA5AFF4F0C94572CFC
:101F20000E94C10E45C043EB5EE066EA7EE02CC035
:101F300046EA5EE063EB7EE027C041EF5DE064EEE1
:101F40007DE022C044EE5DE061EF7DE01DC04FE02A
:101F50005EE060E07EE018C040E05EE06FE07EE0C2
:101F600013C04DE25EE06EE17EE00EC04EE15EE049
:101F70006DE27EE009C04CEB5CE06BEA7CE004C003
:101F80004BEA5CE06CEB7CE00E945E0F11C081E0EC
:101F90000E94B60E0DC065E082E005C068E086E0F4
:101FA00002C062E189E00E94640F02C0C1E001C08A
:101FB000C0E08C2FCF911F910F910895CF93DF93A5
:101FC000EC0181E0898B8F810E94951F88850E949A
:101FD000A81F0E94F21FEA81FB81CE01069630976E
:101FE00029F06C897D89DF91CF910994DF91CF91A0
:101FF0000895CF93DF93FC012081223041F4FB014F
:10200000EC01828193810E941E0581E08B87DF9124
:10201000CF910895FC018081813021F4FB01808102
:10202000918105C0823029F4FB01828193810C9457
:102030001E050895FC018081813021F4FB0180811F
:10204000918105C0823029F4FB01828193810C9437
:1020500034050895EF92FF920F931F93CF93DF9370
:10206000FC012285211136C0EC01E380F480F7E504
:10207000FF1A26E12E9DC0012F9D900D1124DC0139
:10208000A050BF4F1496ED91FC9115978A5F9E4F1B
:10209000309729F054966D917C915597099586E17A
:1020A0008E9D80018F9D100D112400501F4FF8014F
:1020B00087810E949B1FF80180850E94AE1F0E94AD
:1020C000F21F188219861B861E821D8210926D03D4
:1020D00010926C03DF91CF911F910F91FF90EF90C1
:1020E0000895DF92EF92FF920F931F93CF93DF93A8
:1020F000FB0122812223A1F12091AF022F3F81F128
:102100008C01C0E0D1E0E12CF12CDD24D39480914E
:10211000AF02082E000C990B8E159F050CF18E81D5
:102120008823C9F089859A858017910739F48091B1
:102130006C0390916D030817190769F0DF861C87FF
:102140000B878989811103C0CE010E94DE0FCE0169
:1021500006960E942A10FFEFEF1AFF0A6696D7CF65
:10216000DF91CF911F910F91FF90EF90DF90089535
:10217000EF92FF920F931F93CF93DF939C013755FC
:102180002F3F310511F008F047C04091AF02042EF7
:10219000000C550B4217530714F42093AF02FB01B8
:1021A0007C01828196E1929F8001939F100D112402
:1021B000E801C050DF4F888B92818E81992311F105
:1021C000FA86E9868F5F8E830E9406229E878D871E
:1021D0000E94C81F8F830E94921F88870E94A51F9C
:1021E0009885892B8887E881F981C8018A5F9E4F8D
:1021F000309719F06C897D890995F0926D03E09212
:102200006C030AC0882341F08989882329F0C8011A
:102210008A5F9E4F0E942A1081E0DF91CF911F912B
:102220000F91FF90EF900895CF92DF92EF92FF927F
:102230000F931F93CF93DF938091AF028F3FF1F104
:10224000F12C96E1E92E0F2D10E08091AF02082EBF
:10225000000C990B801791078CF1E09EF001E19E34
:10226000F00D1124E050FF4FC288D388C114D1046F
:1022700019F488ECC82ED12CE09EE001E19ED00D2F
:102280001124C050DF4F8E818823B1F08D859E854B
:102290000E941222C816D90678F48989811103C0D8
:1022A000CE010E94DE0FE09EC001E19E900D112440
:1022B0008A5F9E4F0E942A10F394C5CFDF91CF9181
:1022C0001F910F91FF90EF90DF90CF90089525B16F
:1022D000342F3095232335B1432B3FB7F894FC01BD
:1022E000680F791FE617F70789F0819198E045B9E3
:1022F000000000C087FF25B9880F000000C000C0A3
:1023000000C025B900C09A9591F7ECCF3FBF089562
:1023100024B1242B24B99B01220F331F620F731F9A
:102320000E94671187EC90E00197F1F700C0000070
:10233000089540E40C9488110F931F93CF93DF937B
:10234000C62FD42F122FFC0182818823C9F06093FD
:1023500070030E94062290936F0380936E0380E2C5
:102360008C0F883008F057C0C77081E001C0880F1B
:10237000CA95EAF7DF91CF911F910F910C94421605
:1023800080917003681330C080916E0390916F0349
:102390000E941222883C910538F500E20D0FCD17FE
:1023A000B9F080E28C0F883040F4C77081E001C042
:1023B000880FCA95EAF70E944916083028F581E08F
:1023C0009D2F977001C0880F9A95EAF70E944216D8
:1023D000812F0E942F160830F0F4D77081E001C0E1
:1023E000880FDA95EAF70AC080E28C0F883098F4FB
:1023F000C77081E001C0880FCA95EAF7DF91CF91DD
:102400001F910F910C944916812FDF91CF911F914D
:102410000F910C942F16DF91CF911F910F9108957A
:102420009C01CB01233F4CE53407F9F078F4283DBB
:10243000FCE53F07B9F0293D4CE5340711F1273D94
:102440003C4531F526E241EE61EE1EC0253FFCE53C
:102450003F0799F070F0263F3C45D1F427E245EE66
:1024600066EE12C027E245EE0EC026E241EE60EEB7
:102470000BC027E245EE64EE07C026E241EE62EEB5
:1024800003C028E241E065EE0E949C1180E00895BF
:10249000FC018281882319F010927003089581E075
:1024A0000895CF93DF93EC01FB018281882309F427
:1024B0001FC1C230FCE5DF0708F41BC1C6319CE533
:1024C000D90738F09E012A5F3C452930310508F0D4
:1024D00010C10E949B209093270480932604C03152
:1024E000ECE5DE0709F4C3C008F041C0C8308CE554
:1024F000D80709F49AC0F0F4C430ECE5DE0709F41B
:1025000087C068F4C2308CE5D80709F477C0C330BF
:10251000DC4509F0E3C080912604826076C0C630B5
:10252000ECE5DE0709F46EC008F07BC0809126045C
:1025300088606BC0CC308CE5D80709F485C068F49E
:10254000CA30ECE5DE0709F474C008F079C00E94D7
:10255000241980912604806858C0CE308CE5D807B5
:1025600009F476C008F07FC0809126048BC0CB3F71
:10257000ECE5DE0709F44FC018F5C3318CE5D80748
:1025800009F47DC078F4C131ECE5DE0709F473C0CD
:10259000C231DC4509F0A2C00E94241980912604B2
:1025A0008F7733C0C5318CE5D80709F472C008F4C1
:1025B00086C0CA3FDC4509F091C0809127043EC027
:1025C000CF3FFCE5DF0709F45FC058F4CD3F9CE541
:1025D000D90709F444C008F43FC080912704826001
:1025E0002DC0C130FDE5DF0709F475C008F45DC0FA
:1025F000C230DD4509F072C080E06EC080912604D3
:10260000816003C08091260480618093260466C0A7
:102610008091260411C08091270482608093270452
:102620005DC0809126048062F0CF80912604806492
:10263000ECCF8091260488608460E7CF8160EECF84
:10264000809126048E7FE1CF809126048D7FDDCF9F
:1026500080912604877FD9CF8091270418C080916C
:1026600027048D7FDBCF809126048F7ECECF809193
:1026700026048F7DCACF809126048F7BC6CF8091A0
:102680002604877F8B7FC1CF809127048D7F8E7F2B
:10269000C5CF8091260482FB222720F991E0922762
:1026A00090FB82F990FB83F9B0CF80912704982F9B
:1026B000909591708E7F892B90FB81F9AFCF0E940E
:1026C00024198091260487FB222720F991E0922784
:1026D00090FB87F99ACF81E00E942A2180912604FD
:1026E000909127040E94AC200E94241980E001C030
:1026F00081E0DF91CF910895CF93DF9386319C45A0
:1027000071F5EB010E94921F982F917119F4982F87
:102710009A7A01C090E08A812091B0023091B10292
:10272000882379F081E0911101C080E080937103EA
:10273000911102C069E201C065E3C9010E947121E3
:102740000AC080917103811102C069E201C065E392
:10275000C9010E9473210E94F21F80E001C081E044
:10276000DF91CF9108959093770380937603089536
:10277000E0917603F0917703309721F00190F0819A
:10278000E02D099480E00895E0917603F0917703BD
:10279000309721F00280F381E02D09940895E091B3
:1027A0007603F0917703309739F022E0DC012C9327
:1027B0000480F581E02D09940895209174033091EF
:1027C00075032817390771F090937503809374038C
:1027D000E0917603F0917703309721F00680F7813E
:1027E000E02D099408952091720330917303281706
:1027F000390771F09093730380937203E09176032D
:10280000F0917703309721F00084F185E02D099451
:10281000089585B7806885BF85B7806885BF0895AE
:1028200008950C9410140C9411140C9410140C941E
:1028300010140E9409140E9415140C94131481E0C2
:1028400008950E94FD210E94FC080E9489220E9496
:10285000CB0E0C9417147F928F929F92AF92BF92DF
:10286000CF92DF92EF92FF920F931F93CF93DF935C
:10287000CDB7DEB72A970FB6F894DEBF0FBECDBF37
:102880000E9460090E941F14811111C08FEF89837B
:102890008A831B820E9406228160782F9D838C830D
:1028A00049815A816B818D810E94DD144FC049E7B7
:1028B000A42E43E0B42E00E010E0702E802F0E9482
:1028C000E5086C01F501819091905F0188269926B9
:1028D0008114910431F40F5F1F4F0430110569F723
:1028E000D5CF8091ED0381FD0E94EE0880E0EE24BB
:1028F000E394F12C94012E213F21232B09F18E83A7
:102900007F82CE20DF2081E0CD2809F480E0888717
:102910000E9406228160782F9A8789874E815F8185
:1029200068858A850E94DD14000F111FF801E758A1
:10293000FC4F80819181E826F926F182E08206C071
:102940008F5FEE0CFF1C8A30A9F6C5CF0E94FE0EE9
:102950000E941B240E94B813909178038917C9F034
:102960000E94B813809378032A960FB6F894DEBFBE
:102970000FBECDBFDF91CF911F910F91FF90EF90D0
:10298000DF90CF90BF90AF909F908F907F900C94EE
:1029900066062A960FB6F894DEBF0FBECDBFDF9154
:1029A000CF911F910F91FF90EF90DF90CF90BF904C
:1029B000AF909F908F907F900895CF93DF93CDB786
:1029C000DEB72B970FB6F894DEBF0FBECDBF4F8397
:1029D000588769877A878B87DE01119686E0FD012B
:1029E00011928A95E9F785E0FE01379601900D92E4
:1029F0008A95E1F70E94601F882319F082E00E9407
:102A000064200E94331F81110E94E41F49815A8172
:102A10006B817C818D819E810E942E1C2B960FB62E
:102A2000F894DEBF0FBECDBFDF91CF910895FC01BA
:102A3000808191810E94021F0895CF93882309F419
:102A4000A4C0C82F8238C1F40E94B81381FD9DC074
:102A500069E38091B0029091B1020E9471210E94BD
:102A6000F21F2FEF81EE94E0215080409040E1F77B
:102A700000C0000069E319C0833801F50E94B81353
:102A800080FD83C063E58091B0029091B1020E9405
:102A900071210E94F21F2FEF81EE94E021508040BF
:102AA0009040E1F700C0000063E58091B002909192
:102AB000B1020E947321CF910C94F21F8438C1F4AB
:102AC0000E94B81382FD61C067E48091B0029091CA
:102AD000B1020E9471210E94F21F2FEF81EE94E05B
:102AE000215080409040E1F700C0000067E4DDCF56
:102AF0008CEF8C0F813AD0F46C2F8091B0029091C2
:102B0000B1020E943B21882349F06C2F8091B002D2
:102B10009091B1020E9473210E94F21F6C2F80914C
:102B2000B0029091B1020E947121C5CF80E28C0F5A
:102B3000883048F4C77081E001C0880FCA95EAF771
:102B40000E94951FB8CFEBE5EC0FE33040F4F0E0C6
:102B5000EB5BFC4F808190E0CF910C94DD13E8E5B6
:102B6000EC0FE73150F4F0E0EE0FFF1FE95EFC4F91
:102B700080819181CF910C94F313C03F30F08C2F62
:102B80000E942323CF910C941024CF910895882381
:102B900009F464C0823879F40E94B81381FF5EC0E2
:102BA00069E38091B0029091B1020E9471210E946C
:102BB000F21F69E310C08338B1F40E94B81380FF9C
:102BC0004DC063E58091B0029091B1020E947121E5
:102BD0000E94F21F63E58091B0029091B1020E94C1
:102BE00073210C94F21F843879F40E94B81382FF89
:102BF00035C067E48091B0029091B1020E947121CA
:102C00000E94F21F67E4E7CF9CEF980F913A10F40F
:102C1000682FE1CF90E2980F983050F4877091E0E0
:102C200001C0990F8A95EAF7892F0E949B1FD9CF7F
:102C30009BE5980F933020F480E090E00C94DD1336
:102C400098E5980F973120F480E090E00C94F3130E
:102C5000803F20F00E948B230C9410240895CF9382
:102C6000C82F0E941D15C93349F42FEF87EE93E05A
:102C7000215080409040E1F700C000008C2FCF91A0
:102C80000C94C715882321F00E94951F0C94F21F05
:102C90000895882321F00E949B1F0C94F21F089531
:102CA000CF92DF92EF92FF920F931F93CF93DF9318
:102CB0007C01062FC72FFC01D581D295DF701281D0
:102CC00011110E94B51F0E948B1F882379F01123D8
:102CD00069F080E2800F883048F082E00E94642032
:102CE0000E948B1F91E0D82ED92601C0D12CCC2E6A
:102CF000C2948FE0C8228C2D90E0FC01E659FF4F72
:102D00000C94572C8C2F807FCF70882311F0C295A4
:102D1000C07F112399F0CC2309F4ECC180E2800F2D
:102D2000883010F0011104C08C2F0E94951F03C041
:102D30008C2F0E94A81F0E94F21FDCC1802F0E94CE
:102D4000C715CC2309F4FCC180E2800F883010F055
:102D5000011104C08C2F0E949B1F03C08C2F0E9466
:102D6000AE1F0E94F21FECC18C2F807FCF7080328B
:102D700011F0C295C07F002319F0013059F134C021
:102D80001123B1F0DD2381F0D13031F40E94C81F4E
:102D90008C2B0E94D01FD4C1D33031F40E94E41F89
:102DA0008C2F0E94302024C00E94C81F8C2B21C071
:102DB000DD2369F0D13041F40E94921F8C2309F485
:102DC000BFC10E94392003C0D33009F4B9C10E94A9
:102DD000E41F1FC0112321F0D43008F0B1C108C096
:102DE000D33008F0ADC115C0112331F0D11182C12B
:102DF0008C2F0E944216A4C1DD2359F0093309F03B
:102E00008BC1FFEF27EE83E0F15020408040E1F7D7
:102E100081C18C2F0E94491693C18C2F869586956F
:102E2000837019F0813061F08BC1112321F0802F64
:102E30009C2F937002C080E090E00E94DD1388C157
:102E4000112321F0802F9C2F937002C080E090E02E
:102E50000E94F3137DC11123F9F0053F51F0063FA5
:102E600071F0043FA9F480912004909121048160C5
:102E70000BC08091200490912104826005C0809154
:102E80002004909121048460909321048093200475
:102E9000802F0E9423231EC0053F51F0063F71F092
:102EA000043FA9F480912004909121048E7F0BC0EF
:102EB00080912004909121048D7F05C08091200491
:102EC000909121048B7F9093210480932004802F84
:102ED0000E948B230E9410243BC18C2F837009F029
:102EE00045C0111131C1402F429546954770440F9E
:102EF000440F602F6F70862F90E0A0E0B0E0042EAA
:102F000004C0880F991FAA1FBB1F0A94D2F704FFA1
:102F100010C00FE010E020E030E004C0000F111FEF
:102F2000221F331F4A95D2F70095109520953095B2
:102F300003C000E010E09801C695C695C370BC01BF
:102F4000CD01602B712B822B932BC23049F058F4AA
:102F5000C13019F00E947F1DF7C00E946D1DF4C0A2
:102F60000E94911DF1C00E946B1DEEC0112319F04B
:102F70008C2F817001C08695882309F4E5C0402F0D
:102F8000429546954770440F440F602F6F70862F0F
:102F900090E0A0E0B0E0042E04C0880F991FAA1FA3
:102FA000BB1F0A94D2F704FF10C00FE010E020E02E
:102FB00030E004C0000F111F221F331F4A95D2F7C3
:102FC000009510952095309503C000E010E0980121
:102FD000C695C695C370BC01CD01602B712B822BA9
:102FE000932BC23049F058F4C13019F00E94441EAE
:102FF000ABC00E94321EA8C00E94561EA5C00E94EF
:10300000A51DA2C0CF70112339F08C2F0E94CB1DBB
:10301000802F0E94421698C0802F0E9449168C2F44
:103020000E94EC1D91C0023F01F128F4003F41F0E5
:10303000013FA1F05AC0033FF9F0043F39F155C0F8
:10304000112341F0D33008F07BC08C2F8F710E9488
:10305000111E76C0D43008F073C0F7CF112339F0B9
:103060008C2F8F710E94CB1D6BC01123C9F38C2F45
:103070008F710E94EC1D64C0112329F08C2F8F7179
:103080000E94B61D5DC00E94B11D5AC01123C9F037
:103090000E94301F0E949B1F0E945C1F843039F4E5
:1030A0000E945B208C2F8F710E94EC1D6CC0D3306E
:1030B00008F069C0CF718C2F0E94CB1D63E08C2F6C
:1030C0000DC00E94301F0E94951FD33050F00E9407
:1030D0005B200E94392064E08C2F8F710E94452074
:1030E00052C081E00E9464204EC0112339F0DD23DC
:1030F00009F4B6CF802F0E941D1522C0DD2309F4EC
:10310000B6CF093349F49FEFE7EEF3E09150E0408A
:10311000F040E1F700C00000802F0E94C71510C0EA
:103120004C2F4F70602FC7010E94D7060E94DC1CF5
:103130000FC04C2F4F70602FC7010E94DA0608C0E5
:1031400088EF8C0D843020F40E94B8130E9466062C
:10315000DD20D9F00E945C1F80FD17C0F7011282AC
:103160000E94561F0E94CB1DC7010E94CE180E94CC
:10317000561FDF91CF911F910F91FF90EF90DF903D
:10318000CF900C94EC1DD12CDFCFDF91CF911F910C
:103190000F91FF90EF90DF90CF9008950F931F93C2
:1031A000CF93DF93EC01988189812B813C81232B84
:1031B00031F08F3F31F481E09F3F19F403C081E08B
:1031C00001C080E080FD13C0CE010E9485068823E7
:1031D00071F0688179818A810E940D1F8C010E94A3
:1031E000681E0E94591DB801CE010E945016DF9141
:1031F000CF911F910F910895882321F00E94A81F5D
:103200000C94F21F0895882321F00E94AE1F0C94A5
:10321000F21F08950E94B51F0E94C51F0E94F21F51
:103220000E943A250E94102480E090E00E94DD1365
:1032300080E090E00C94F3138091B0029091B10281
:103240000E9475210C940A190E94A21F0C941C194B
:10325000E92FE295EF704E2F50E0FA013297EE30F1
:10326000F105B0F4E658FF4F0C94572C803F91F0D5
:1032700018F4883E68F40EC0843F51F40BC0883EB9
:1032800048F0813F29F406C093FB882780F9089510
:1032900080E0089581E008950E94021F0E9428198D
:1032A0000895CF93DF9300D000D01F92CDB7DEB743
:1032B0000F900F900F900F900F90DF91CF91089586
:1032C000CF93DF9300D000D000D0CDB7DEB72696E5
:1032D0000FB6F894DEBF0FBECDBFDF91CF9108953A
:1032E0001F93CF93DF93C091820316E080918303F5
:1032F000C81799F0D0E01C9FF0011D9FF00D11241C
:10330000EC57FC4F408151816281738184819581AA
:103310000E9460192196C770E9CFDF91CF911F916C
:1033200008954091B4035091B5036091B603709134
:10333000B7038091B8039091B9030C946019209160
:1033400082039091830356E02917A9F030E0529F41
:10335000F001539FF00D1124EC57FC4F718176134F
:1033600006C07081781303C07281741306C02F5F8A
:103370003F4F2770E9CF80E0089581E00895CF9313
:103380008091B90382958F7009F05FC08091B60378
:10339000882309F45AC080918203B091830370910D
:1033A000B403A091B5034091B7035091B80391E0E5
:1033B0007F3F09F090E0692FC6E08B1709F445C004
:1033C0004115510521F0AF3F21F020E003C021E07D
:1033D00001C0262F90E020FD35C0C89FF001C99F95
:1033E000F00D1124EC57FC4F21812A132BC02081B2
:1033F000271328C02281211125C02381348124175D
:10340000350710F421503109241B350B283C3105B8
:10341000C8F42091B9032F7020612093B90326E0EE
:10342000289FF001299FF00D1124E757FC4F808160
:103430008F708061808384EB93E00E94CE18CF91DF
:103440000C94701901968770B8CFCF9108959F9210
:10345000AF92BF92CF92DF92EF92FF920F931F93A2
:10346000CF93DF93CDB7DEB761970FB6F894DEBF89
:103470000FBECDBF7C0185E0F701DE011D960190F6
:103480000D928A95E1F7D701DC9011960C91119776
:103490001296CC903091B4034091B5038091B7035C
:1034A0009091B803009731F04F3F31F421E03F3F56
:1034B00019F403C021E001C020E020FD9FC1F70105
:1034C000A380B4809090B603992009F42BC1209179
:1034D000B903A816B90628F0B501681B790BCB0112
:1034E00004C0809590958A0D9B1D11E0883C910544
:1034F00090F010E0207F09F0DBC07A2DB98AA88A0D
:103500004D2D502F6C2D89890E94511984EB93E029
:103510000E94CE186BC1822F807F09F091C00413E6
:1035200015C0D31213C01C2DC11010C02F70206104
:103530002093B9030E94911984EB93E00E94CE1866
:103540008091B903D70115968C9375C1A114B1046C
:1035500039F00F3F39F481E0BFEFDB1203C003C045
:1035600081E001C080E080FD03C081E08C2502C0C5
:1035700080E090E080FF15C04C2D602F8D2D0E94C3
:103580009F19882371F084EB93E00E94CE18E4EB3E
:10359000F3E086E0DF011D928A95E9F70E94911918
:1035A0004DC0AB2839F00F3F39F481E0BFEFDB129B
:1035B00003C003C081E001C080E080FD03C081E062
:1035C0008C2502C080E090E0E82FE170BE2E80FFE5
:1035D0002CC04C2D602F8D2D0E949F19182F81110A
:1035E00024C0DD860E878D859E850E94021F292FAF
:1035F00022952F70223018F0243090F405C09F706F
:1036000059F0811109C017C19F7031F0D70115968B
:103610009C91907F09F40FC1805E883008F40BC143
:10362000C7010E94CE181B2D06C11C2DCC2009F409
:1036300002C18091B90381608093B90310E0FBC09F
:10364000041309C0D31207C0C11005C08091B9038B
:10365000F7018583A5C0DD860E878D859E850E9436
:103660004C19882379F1CC2069F12091B903822F7C
:1036700082958F7090E0029774F08091B4039091DE
:10368000B50398878F831986BB86AA862C87CE01BF
:1036900007960E94CE1886E0F701A4EBB3E00190F4
:1036A0000D928A95E1F70E94BF190E9491190DC0F1
:1036B000041769F0DD860E878D859E850E944C1962
:1036C000811119C0C7010E94CE1811E0B4C0D312F5
:1036D000F1CFC110EFCF8091B903F7018583C70106
:1036E0000E94CE1886E0E4EBF3E0DF011D928A959C
:1036F000E9F7192DA0C0CC2029F32091B903822F1E
:1037000082958F7090E0029734F28091B40390918B
:10371000B5039A8389831B82BD82AC822E83CE013E
:103720000196B7CFA816B90628F0F501E81BF90BEA
:10373000CF0104C0809590958A0D9B1D883C910512
:1037400058F010E07A2DB98AA88A4D2D502F6C2D93
:1037500089890E9451194AC01C2DCC2009F4B2CF8E
:10376000041333C0D31231C02091B90320FD24C00B
:10377000822F82958F70482F50E041155105E1F05E
:10378000D70115962C9315974F30510549F08F5F4F
:10379000982F9295907F822F8F70892B15968C93FE
:1037A000C7010E94CE1886E0F701A4EBB3E00190B8
:1037B0000D928A95E1F73DC086E0F701A4EBB3E0F6
:1037C00001900D928A95E1F736C0DD860E878D85D2
:1037D0009E850E944C1981115ECF8091B903816052
:1037E0008093B903C7010E94CE1825C0E4EBF3E033
:1037F00086E0DF011D928A95E9F71BC0CC2009F411
:1038000061CFDD860E878D859E850E944C19182F0D
:10381000882309F457CF86E0F701A4EBB3E00190C9
:103820000D928A95E1F784EB93E00E9417150E94B0
:10383000BF190E949119812F61960FB6F894DEBFCF
:103840000FBECDBFDF91CF911F910F91FF90EF90F1
:10385000DF90CF90BF90AF909F9008951F93CF932C
:10386000DF93CDB7DEB72C970FB6F894DEBF0FBE4F
:10387000CDBF4F83588769877A878B879C87CE0116
:1038800007960E94271A8823D1F09F8188852A8570
:103890003B85232B31F08F3F31F481E09F3F19F4BA
:1038A00003C081E001C080E080FD47C04F815885A2
:1038B00069857A858B859C850E9460193EC086E06B
:1038C000FE013796DE01119601900D928A95E1F77F
:1038D000FF81E8856A857B856115710531F0EF3FD1
:1038E00031F481E0FF3F19F403C081E001C080E0C2
:1038F00080FD23C02091830330E0C90101968770C9
:1039000099274091820350E084179507F1F1F983DC
:10391000EA837D836C8396E0929FD001939FB00DE4
:103920001124AC57BC4FFE01319601900D929A952F
:10393000E1F7809383030E94701916E0809182035F
:1039400090918303891771F1189FC00111248C573E
:103950009C4F0E94271A882329F1E09182031E9F21
:10396000F0011124EC57FC4F408151816281738139
:10397000848195810E9460198091820390E0019674
:103980008770992780938203D9CF0E9424191092BF
:10399000830310928203E4EBF3E086E0DF011D92E3
:1039A0008A95E9F72C960FB6F894DEBF0FBECDBF0F
:1039B000DF91CF911F910895EF92FF920F931F9384
:1039C000CF93DF938C01892B09F46CC0F12CEE248A
:1039D000E394E8012196F8018491843740F484301F
:1039E00008F051C0813081F0823019F15BC0853719
:1039F00009F444C0A8F19CE7980F903708F052C032
:103A00008F770E94C71541C00E5F1F4FFE01849142
:103A100090E2980F983050F48770FE2D01C0FF0F90
:103A20008A95EAF78F2F0E94B81F14C00E941D15B7
:103A30002DC00E5F1F4FFE01849190E2980F9830C9
:103A400060F48770FE2D01C0FF0F8A95EAF78F2F73
:103A50000E94BE1F0E94F21F19C00E94C71516C007
:103A60000E5F1F4FFE01C491CC2381F08FE99FE0D0
:103A70000197F1F700C00000C150F6CF0E5F1F4F55
:103A8000FE01F49003C00E941D158E018F2D882326
:103A900009F49FCFEFE9FFE03197F1F700C0000094
:103AA0008150F5CFDF91CF911F910F91FF90EF9053
:103AB0000895089508950C945A1D0C945B1D0E945E
:103AC0005D1D6093D7037093D8038093D9039093BF
:103AD000DA030C940A190C945F1D0F931F93009145
:103AE000D7031091D8032091D9033091DA03602BCA
:103AF000712B822B932B1F910F910C945F1D0F93B1
:103B00001F930091D7031091D8032091D9033091CE
:103B1000DA0360237123822393231F910F910C9466
:103B20005F1D0F931F930091D7031091D80320912D
:103B3000D9033091DA0360277127822793271F91D9
:103B40000F910C945F1D0C945A1D0E94A31D60934D
:103B5000D3037093D4038093D5039093D6030C942E
:103B60000A1960E070E0CB010C94A51D0F931F9320
:103B700041E050E060E070E08A019B0104C0000F6A
:103B8000111F221F331F8A95D2F7C901B8011F9157
:103B90000F910C94A51D0F931F9341E050E060E03E
:103BA00070E004C0440F551F661F771F8A95D2F737
:103BB0008091D3039091D403A091D503B091D60303
:103BC0008A019B01082B192B2A2B3B2BC901B80119
:103BD0001F910F910C94A51D0F931F9341E050E08E
:103BE00060E070E004C0440F551F661F771F8A9580
:103BF000D2F740955095609570958091D303909140
:103C0000D403A091D503B091D6038A019B01082368
:103C100019232A233B23C901B8011F910F910C944A
:103C2000A51D0F931F9341E050E060E070E004C0D9
:103C3000440F551F661F771F8A95D2F78091D303D3
:103C40009091D403A091D503B091D6038A019B0132
:103C5000082719272A273B27C901B8011F910F916F
:103C60000C94A51D0F931F930091D3031091D403BF
:103C70002091D5033091D603602B712B822B932B8F
:103C80001F910F910C94A51D0F931F930091D303C7
:103C90001091D4032091D5033091D6036023712372
:103CA000822393231F910F910C94A51D0F931F93B3
:103CB0000091D3031091D4032091D5033091D60302
:103CC00060277127822793271F910F910C94A51DC0
:103CD00008952AE0929F800D1124E82FE695E6953D
:103CE000E695877051E001C0550F8A95EAF785E0A7
:103CF000E89FF0011124E654FC4F20E030E070E032
:103D00004081CB01022E02C0969587950A94E2F776
:103D10008170819584278523842781932F5F3F4F6E
:103D20002530310569F708952AE0929F800D11240E
:103D3000682F669566956695982F977085E0689FC1
:103D4000B001112440E050E080E0FB01E40FF51FDA
:103D5000E654FC4F208130E0092E02C036952795AD
:103D60000A94E2F721703327042E01C0220F0A942F
:103D7000EAF7822B4F5F5F4F4530510531F70895C9
:103D8000BF92CF92DF92EF92FF920F931F93CF9348
:103D9000DF938C01C090D303D090D403E090D5037F
:103DA000F090D6038091D7039091D803A091D903C6
:103DB000B091DA03C82AD92AEA2AFB2ACFE1D0E057
:103DC000D701C6010C2E04C0B695A7959795879587
:103DD0000A94D2F780FD04C0219790F7B12C07C058
:103DE000BC2EB8018C2F0E94F6060197A9F38B2DEB
:103DF000DF91CF911F910F91FF90EF90DF90CF90C7
:103E0000BF900895CF93DF93EC010E94C01EBE01C6
:103E10000E94F606DF91CF9108951F93CF93DF9311
:103E2000EB0190918103992321F0CB010E94021FA5
:103E300013C0882349F0CB010E94C01E182F682FA1
:103E4000CE010E94691E04C0CB010E94941E182F4F
:103E5000BE01812F0E94F606DF91CF911F91089538
:103E60008091E00308950E9406222091DE033091A4
:103E7000DF038217930750F00E9406222091DE0391
:103E80003091DF03821B930B9C010AC00E94062223
:103E90002091DE033091DF0320953095280F391FE4
:103EA00081E0283C310508F480E008958091DD032D
:103EB00085958595859508958091DD038770089592
:103EC0000E9406222091DB033091DC0382179307C6
:103ED000A8F00E9406222091DB033091DC03821BB4
:103EE000930B883C910510F480E013C08091DD03B2
:103EF00082FB882780F991E089270BC00E94062267
:103F00002091DB033091DC0320953095820F931FC5
:103F1000E8CF817008959091DD03977081E009F4F6
:103F200080E008958091EC0308959091EC03892B33
:103F30008093EC03089580959091EC0389238093FE
:103F4000EC0308951092EC0308958091EB0308951B
:103F50009091EB03892B8093EB03089580959091CA
:103F6000EB0389238093EB0308951092EB030895EC
:103F70009091EA03892B8093EA03089580959091AC
:103F8000EA0389238093EA0308951092EA030895CF
:103F90008091E103089508950C94CB1F0C94CC1FDD
:103FA000CF939091E103981769F0C82F0E940622E1
:103FB0009093DF038093DE03C093E1038C2FCF91B6
:103FC0000C94CE1FCF9108958091E103882349F08E
:103FD0001092E1031092DF031092DE0380E00C9454
:103FE000CE1F0895E091B002F091B1028091EC03F0
:103FF0008083E091B002F091B10290818091EB0357
:10400000892B8083E091B002F091B1029081809180
:10401000EA03892B80838091E1038823B9F00E9411
:10402000331F81110E94E41FE091B002F091B102B0
:1040300090818091E103892B80838091B0029091DF
:10404000B1020E942F2181110E94E41F8091B002D1
:104050009091B1020C94C4130C94CB1F0C942C209F
:104060009091E003981721F08093E0030C942E20A8
:1040700008958091E003882329F01092E00380E006
:104080000C942E2008950C94CB1F98E0899F9001EA
:104090001124262B2093DD030E94CB1D0E940622B3
:1040A0009093DC038093DB038091DD0385958595F8
:1040B00085950C9443201092DD031092DC0310923E
:1040C000DB0380E00C9443202091DD038095822364
:1040D0008093DD03982F977079F430E0482F082EF5
:1040E000000C550B2417350739F085958595859576
:1040F0000E94EC1D0C945B2008956FEF7FEF80E031
:1041000090E00C949C2C80E090E00E94782C21E0C0
:104110008C3E9E4F09F020E0822F089582E090E0CF
:104120000C946A2C83E090E00C946A2C682F83E056
:1041300090E00C947E2CCF9384E090E00E946A2C57
:10414000C82F81E290E00E946A2C2C2F30E0A90158
:10415000582BCA01CF910895CF93C92F682F84E0BF
:1041600090E00E947E2C6C2F81E290E0CF910C9425
:104170007E2CAB01BC018FE090E00C94902CAB0145
:10418000BC0183E190E00C94902C60E070E0CB01E6
:104190000C94BF2060E070E0CB010E94B9200C9429
:1041A000C5206CEE7EEF80E090E00E949C2C60E0E9
:1041B00082E090E00E947E2C60E083E090E00E942C
:1041C0007E2C1092D7031092D8031092D90310922C
:1041D000DA0360E084E090E00E947E2C60E081E2FF
:1041E00090E00E947E2C60E085E090E00E947E2CB2
:1041F00060E086E090E00E947E2C6FEF87E090E028
:104200000E947E2C40E050E0BA0188E090E00E94DD
:10421000902C60E08DE090E00E947E2C40E050E029
:10422000BA0188E190E00E94902C60E087E190E084
:104230000E947E2C40E050E0BA018CE190E00E94A8
:10424000902C60E080E290E00E947E2C0C94CA20CA
:104250000C94D120682F8EE090E00C947E2CFC0111
:10426000329697E080E0915029F021912223D9F3F2
:104270008F5FF9CF0895662349F0FC0132960896C6
:104280002191621729F0E817F907D1F780E0089526
:1042900081E008959C01FC0132969FEF80E04191FE
:1042A000461789F09F3F19F4411101C0982F8F5F85
:1042B0008630A9F79F3F39F0F901E90FF11D97FD0D
:1042C000FA956283089508959C012A5F3F4FFC018F
:1042D0004281461301C01282019682179307B9F7F3
:1042E00008950C944A210C946421029626E0FC0166
:1042F00011922A95E9F7089508950C947C210C9465
:104300007C21CF930E947F210E9460090E947D2121
:10431000C0E08C2F0E94E508892B29F4CF5FC430C0
:10432000C1F780E001C081E0CF9108950C947C2119
:104330000C9496210E94982180912C04843049F19C
:104340001092EE0320E488E190E00FB6F894A8956F
:10435000809360000FBE2093600080E00E9466069C
:104360000E94982183B7817F846083BF83B7816077
:1043700083BF7894889583B78E7F83BF0FB6F894F8
:10438000A895809160008861809360001092600021
:104390000FBE08950C947C210E9424190E94B8132A
:1043A0000E9466060C94CA211F920F920FB60F92BC
:1043B00011248F939F93AF93BF938091EE0381114C
:1043C00013C08091220490912304A0912404B09101
:1043D00025044196A11DB11D8093220490932304CE
:1043E000A0932404B0932504BF91AF919F918F9126
:1043F0000F900FBE0F901F90189582E084BD93E040
:1044000095BD9AEF97BD80936E0008952FB7F894ED
:104410008091220490912304A0912404B09125045A
:104420002FBF0895CF92DF92EF92FF920F931F93C9
:104430002FB7F894409122045091230460912404F2
:10444000709125042FBF6A017B01EE24FF248C01AB
:1044500020E030E0C016D106E206F30610F4415029
:1044600051099A01281B390BC9011F910F91FF9027
:10447000EF90DF90CF90089578941F920F920FB62F
:104480000F9211248F939F93AF93BF938091220437
:1044900090912304A0912404B09125040196A11DBC
:1044A000B11D8093220490932304A0932404B0931D
:1044B0002504BF91AF919F918F910F900FBE0F90E8
:1044C0001F90189587E797E790930108809300085D
:1044D0009AE088E10FB6F894A895809360000FBE2B
:1044E00090936000FFCF0C947D200E9460098FE3C1
:1044F0009CE90197F1F700C000000E94600980E08C
:104500000E94E50880FF04C00E9473220C9462227E
:1045100008950E948320811102C00E9428210E94D8
:104520008E208093ED030E949B209093270480931C
:1045300026040E949220682F70E080E090E00C94A6
:104540006B1D8091F60380FF0BC06091B70285E080
:10455000689FB001112475956795759567952BC077
:1045600081FF09C06091B70285E0689FB001112406
:104570007595679520C082FF07C06091B70285E0FE
:10458000689FB001112417C09091F5039923D1F0D1
:104590006091B602961788F72091B70285E0289FB0
:1045A00090011124929FA001939F500D112470E05F
:1045B000CA010E94432C6038710540F461157105F1
:1045C00019F406C065E070E0862F08958FE708951E
:1045D00081E008958091F60380FF08C06091B302E6
:1045E00070E0759567957595679521C081FF06C048
:1045F0006091B30270E07595679519C082FF04C0A1
:104600006091B30270E010C09091F503992399F086
:104610006091B2029617A0F78091B302899FC00102
:10462000112470E00E94432C6038710540F461153C
:10463000710519F406C061E070E0862F08958FE7D8
:10464000089581E00895803F21F40E94A122819580
:1046500004C0813F29F40E94A1228093FA030895A7
:10466000823F21F40E94A122819504C0833F29F456
:104670000E94A1228093F9030895893F19F40E94B2
:10468000EA2205C08A3F31F40E94EA228195809394
:10469000FB0308958B3F21F40E94EA22819504C018
:1046A0008C3F29F40E94EA228093FC030895843F02
:1046B00021F48091F803816017C0853F21F4809137
:1046C000F803826011C0863F21F48091F803846072
:1046D0000BC0873F21F48091F803886005C0883FB4
:1046E00031F48091F80380618093F80308958D3F41
:1046F00021F48091F60381600BC08E3F21F48091FC
:10470000F603826005C08F3F29F48091F603846030
:104710008093F6030895803F39F48091FA0387FF70
:104720006CC01092FA0369C0813F29F48091FA03AA
:104730001816BCF362C09091F903823F29F497FFE9
:104740005CC01092F90359C0833F19F41916CCF3D9
:1047500054C0893F41F48091FB0318160CF04DC002
:104760001092FB034AC08A3F29F48091FB0387FF24
:1047700044C0F6CF8B3F39F48091FC0387FF3DC0E6
:104780001092FC033AC08C3F29F48091FC03181668
:10479000BCF333C0843F21F48091F8038E7F17C0AF
:1047A000853F21F48091F8038D7F11C0863F21F46D
:1047B0008091F8038B7F0BC0873F21F48091F80331
:1047C000877F05C0883F31F48091F8038F7E809306
:1047D000F80313C08D3F21F48091F6038E7F0BC048
:1047E0008E3F21F48091F6038D7F05C08F3F29F421
:1047F0008091F6038B7F8093F6038091F9038111FA
:104800000EC08091FA0381110AC08091FB038111CF
:1048100006C08091FC03811102C01092F503089537
:1048200087EF93E00E94CF130E9406229093F40337
:104830008093F3030895CF93DF9300D000D000D08E
:10484000CDB7DEB786E0E7EFF3E0DE011196019029
:104850000D928A95E1F78091F903811105C080914D
:10486000FA03882309F47AC08091F1039091F2034E
:104870000E941222AC019091F503992339F0209106
:10488000B80230E02417350758F068C02091B9020B
:104890008AE0289F900111242417350718F05EC084
:1048A0009F3F19F09F5F9093F5031092FB031092C6
:1048B000FC038091F903181624F40E94A12280932E
:1048C000F9038091F90387FF05C00E94A122819519
:1048D0008093F9038091FA03181624F40E94A12210
:1048E0008093FA038091FA0387FF05C00E94A122FA
:1048F00081958093FA033091F9033323E1F02091FD
:10490000FA032223C1F045EB3403C001112499239B
:1049100019F09093F90303C081E08093F90335EB1C
:104920002303C0011124992319F09093FA0303C0C3
:1049300081E08093FA030E9410248091F303909108
:10494000F4039093F2038093F10386E0FE01319625
:10495000A7EFB3E001900D928A95E1F78091FB03F8
:10496000811105C08091FC03882309F47AC08091ED
:10497000EF039091F0030E941222AC019091F50395
:10498000992339F02091B40230E02417350758F00C
:1049900068C02091B5028AE0289F90011124241755
:1049A000350718F05EC09F3F19F09F5F9093F503A5
:1049B0001092F9031092FA038091FB03181624F465
:1049C0000E94EA228093FB038091FB0387FF05C0CE
:1049D0000E94EA2281958093FB038091FC031816C4
:1049E00024F40E94EA228093FC038091FC0387FF59
:1049F00005C00E94EA2281958093FC033091FB035D
:104A00003323E1F02091FC032223C1F045EB340372
:104A1000C0011124992319F09093FB0303C081E096
:104A20008093FB0335EB2303C0011124992319F074
:104A30009093FC0303C081E08093FC030E94102448
:104A40008091F3039091F4039093F0038093EF032C
:104A500086E0FE013196A7EFB3E001900D928A95B2
:104A6000E1F726960FB6F894DEBF0FBECDBFDF91FB
:104A7000CF910895E7EFF3E086E0DF011D928A957C
:104A8000E9F71092F5031092F6030895809105045A
:104A90000895CF93DF9300D01F92CDB7DEB79091EA
:104AA0002C04943019F589837B836A8382E0809398
:104AB000E9008FEF9091E800815095FD06C095EDDB
:104AC0009A95F1F700008111F5CF8091E80085FFFC
:104AD0000DC040E050E063E070E0CE0101960E941E
:104AE00091278091E8008E778093E8000F900F90D7
:104AF0000F90DF91CF910895CF93DF93EC010E9447
:104B00007427823011F0843031F4BE0184E0DF91EB
:104B1000CF910C944925DF91CF910895BC0183E09A
:104B20000C944925CF93DF93EC010E9474278230C7
:104B300011F08430F9F482E08093E9008FEF9091D6
:104B4000E800815095FD06C095ED9A95F1F70000BB
:104B50008111F5CF8091E80085FF0CC040E050E066
:104B600066E070E0CE010E9491278091E8008E7788
:104B70008093E800DF91CF910895CF93DF93EC010C
:104B80000E947427823011F0843039F581E08093DF
:104B9000E9008FEF9091E800815095FD06C095EDFA
:104BA0009A95F1F700008111F5CF8091E80085FF1B
:104BB00014C040E050E068E070E0CE010E94912710
:104BC0008091E8008E778093E80088E0FE01ADEFE9
:104BD000B3E001900D928A95E1F7DF91CF910895AE
:104BE00080912B04811109C00E9422290E947F29F3
:104BF0008091E20084608093E200089510922B047B
:104C00000895089508950C94CC2142E061EC81E070
:104C10000E949B2842E261EC82E00C949B288091E8
:104C20002E04833009F460C030F4813071F082309A
:104C300009F499C008958A3009F485C08B3009F4CD
:104C40006BC0893009F0A7C020C080912D04813A43
:104C500009F0A1C08091E800877F8093E8008091EF
:104C6000310490913204892B21F468E08DEF93E0B8
:104C700003C060E080E090E070E00E94DC2780915B
:104C8000E8008B778093E800089580912D048132AD
:104C900009F081C08091310490913204029708F0AC
:104CA0007AC08091E800877F8093E8008091E800D7
:104CB00082FD05C080912C048111F8CF6CC0209139
:104CC000F3008091F20090E0922B029729F48091FA
:104CD000F1008B7F813021F48091F10080930504F5
:104CE0008091E8008B7753C080912D04813A09F0C0
:104CF00052C08091310490913204892B09F04BC04D
:104D00008091E800877F8093E8008091E80080FF31
:104D1000FCCF8091C40236C080912D048132D9F538
:104D20008091310490913204892BA9F58091E8009B
:104D3000877F8093E8000E94D02880912F04809381
:104D4000C4020C94241980912D04813221F58091A4
:104D5000E800877F8093E8000E94D028809130048B
:104D600080930604089580912D04813AA1F48091E6
:104D7000E800877F8093E8008091E80080FFFCCF07
:104D8000809106048093F1008091E8008E778093F3
:104D9000E8000C94D028089584B7877F84BF0FB6AD
:104DA000F894A895809160008861809360001092CB
:104DB00060000FBE90E080E80FB6F8948093610029
:104DC000909361000FBE0E9419140E9422290E9434
:104DD0007F298091E20084608093E20078940E94B1
:104DE000142C0E9421148AEB92E00E94B31380914C
:104DF0002C04853069F40E949A2180912A0488232A
:104E0000B1F30E948121882391F30E947B27EFCF89
:104E10000E942B14ECCF0C940D27292F332723301D
:104E20003105C9F060F42130310581F022303105BF
:104E300009F04AC08BE390E023E036E049C021321C
:104E4000310511F12232310579F13EC082E190E065
:104E50002EE336E03DC099278130910561F040F0A6
:104E60008230910559F0039779F5EBECF5E008C035
:104E7000EFEFF5E005C0E7EEF5E002C0E1EDF5E0AB
:104E8000849190E09F0124C06115710541F061306B
:104E90007105D1F489E090E02EE236E019C089E096
:104EA00090E025E136E014C06115710541F06130F4
:104EB000710551F481E890E020E536E009C080E416
:104EC00090E021ED36E004C080E090E020E030E0AA
:104ED000FA0131832083089580912C04843011F0ED
:104EE00081E0089582E0089580910704811102C055
:104EF0000C946C27089580E189BD82E189BD09B4D5
:104F000000FEFDCF8091D8008F7D8093D8008091E6
:104F1000E00082608093E0008091E00081FDFCCFA2
:104F20000895CF92DF92EF92FF920F931F93CF934A
:104F3000DF93EC018B017A010E94EF28811133C0CD
:104F4000E114F10439F0F70180819181081B190BFC
:104F5000C80FD91FC12CD12C0115110519F1809151
:104F6000E80085FD16C08091E8008E778093E80008
:104F7000E114F10449F0F70180819181C80ED91E36
:104F8000D182C08285E00FC00E94EF28882321F3E0
:104F90000AC089918093F10001501109FFEFCF1AE7
:104FA000DF0ADACF80E0DF91CF911F910F91FF9060
:104FB000EF90DF90CF900895209133043091340426
:104FC0002617370748F06115710539F42091E8007C
:104FD0002E772093E80001C0B901FC0120E06115A3
:104FE000710579F180912C048823F1F18530F1F17C
:104FF0008091E80083FD3CC08091E80082FD2EC0D6
:105000008091E80080FFEBCF2091F3008091F200C7
:1050100090E0922B6115710551F08830910538F4BC
:1050200021912093F100615071090196F3CF21E0A5
:10503000089709F020E08091E8008E778093E800DF
:10504000CECF2111CFCF0AC080912C04882361F0EC
:10505000853061F08091E80083FD0AC08091E8000E
:1050600082FFF2CF80E0089582E0089583E0089502
:1050700081E00895209133043091340426173707D6
:1050800048F06115710539F42091E8002E772093DE
:10509000E80001C0B901FC0120E06115710591F142
:1050A00080912C04882309F440C0853009F43FC066
:1050B0008091E80083FD3DC08091E80082FD2FC013
:1050C0008091E80080FFE9CF2091F3008091F20009
:1050D00090E0922B6115710559F08830910540F4EC
:1050E00024912093F1003196615071090196F2CF1D
:1050F00021E0089709F020E08091E8008E77809306
:10510000E800CBCF2111CCCF0AC080912C0488239A
:1051100061F0853061F08091E80083FD0AC08091E4
:10512000E80082FFF2CF80E0089582E0089583E0F6
:10513000089581E00895982F973068F59093E900DD
:10514000981739F07091EC002091ED005091F0002B
:1051500003C0242F762F50E021FD02C09F5FECCFCB
:105160003091EB003E7F3093EB003091ED003D7FBE
:105170003093ED003091EB0031603093EB00709391
:10518000EC002093ED005093F0002091EE0027FDFD
:10519000E5CF80E008958F708093E90081E0089565
:1051A00080912D0487FF11C08091E80082FD05C029
:1051B00080912C048111F8CF11C08091E8008B7789
:1051C0000BC080912C04882349F08091E80080FF77
:1051D000F8CF8091E8008E778093E80008952091C1
:1051E000E4003091E50095E64091EC00842F817059
:1051F00040FF23C08091E80080FD1DC080912C04F9
:10520000882399F0853099F08091EB0085FD11C0DD
:105210004091E4005091E5002417350729F391509F
:1052200011F09A01E1CF84E0089582E0089583E0CF
:10523000089581E0089580E008954091E80042FFDC
:10524000DDCF08950E9490290E949829E0EEF0E0B9
:10525000808181608083E8EDF0E080818F778083BA
:1052600019BCA7EDB0E08C918E7F8C9380818F7EEE
:10527000808310922B0408950F931F93CF93DF9395
:105280000E9490290E949829C8EDD0E088818F77EC
:10529000888388818068888388818F7D888319BC12
:1052A00010922C041092280410922A0410922904BF
:1052B00000EE10E0F80180818B7F8083888181601F
:1052C000888342E060E080E00E949B28E1EEF0E00D
:1052D00080818E7F8083E2EEF0E080818160808338
:1052E000808188608083F80180818E7F80838881BF
:1052F00080618883DF91CF911F910F910895E8ED30
:10530000F0E080818F7E8083E7EDF0E08081816036
:10531000808384E082BF81E080932B040C943C293D
:10532000E8EDF0E080818E7F80831092E2000895A6
:105330001092DA001092E10008951F920F920FB6BA
:105340000F9211242F933F934F935F936F937F930B
:105350008F939F93AF93BF93EF93FF938091E1005F
:1053600082FF0BC08091E20082FF07C08091E100C4
:105370008B7F8093E1000E94132C8091DA0080FFE4
:105380001FC08091D80080FF1BC08091DA008E7F03
:105390008093DA008091D90080FF0DC080E189BD43
:1053A00082E189BD09B400FEFDCF81E080932C0429
:1053B0000E94F02505C019BC10922C040E94FE2505
:1053C0008091E10080FF19C08091E20080FF15C04C
:1053D0008091E2008E7F8093E2008091E200806104
:1053E0008093E2008091D80080628093D80019BC3D
:1053F00085E080932C040E9402268091E10084FFC6
:1054000030C08091E20084FF2CC080E189BD82E140
:1054100089BD09B400FEFDCF8091D8008F7D8093B7
:10542000D8008091E1008F7E8093E1008091E200BE
:105430008F7E8093E2008091E20081608093E200A1
:1054400080912804882311F084E007C08091E30054
:1054500087FD02C081E001C083E080932C040E949C
:1054600003268091E10083FF29C08091E20083FF41
:1054700025C08091E100877F8093E10082E08093E6
:105480002C04109228048091E1008E7F8093E1002B
:105490008091E2008E7F8093E2008091E200806143
:1054A0008093E20042E060E080E00E949B288091CF
:1054B000F00088608093F0000E940126FF91EF9138
:1054C000BF91AF919F918F917F916F915F914F911C
:1054D0003F912F910F900FBE0F901F9018951F9224
:1054E0000F920FB60F9211242F933F934F935F9318
:1054F0006F937F938F939F93AF93BF93CF93DF93DC
:10550000EF93FF93C091E900CF708091EC00D82F0A
:10551000D17080FDD0E81092E9008091F000877F83
:105520008093F00078940E94B32A1092E900809151
:10553000F00088608093F000CD2BCF70C093E9001D
:10554000FF91EF91DF91CF91BF91AF919F918F919B
:105550007F916F915F914F913F912F910F900FBE6F
:105560000F901F9018951F93CF93DF93CDB7DEB7A1
:10557000AA970FB6F894DEBF0FBECDBFEDE2F4E000
:105580008091F100819324E0E533F207C9F70E948E
:105590000F268091E80083FF2EC180912D04909109
:1055A0002E04492F50E04A30510508F024C1FA0179
:1055B000E857FF4F0C94572C803821F0823809F0BF
:1055C0001AC108C08091290490912A04992389F076
:1055D00082600FC0809131048F70873008F00BC15A
:1055E0008093E9008091EB0085FB882780F9109279
:1055F000E9009091E800977F9093E8008093F10094
:105600001092F100D1C0282F2D7F09F0F4C088231B
:1056100019F0823061F0EFC080912F04813009F0E1
:10562000EAC0933009F080E080932A042EC0809174
:105630002F0481112AC0809131048F702FEF280F21
:10564000263008F0D8C08093E9002091EB0020FFBD
:105650001CC0933021F48091EB00806214C09091C3
:10566000EB0090619093EB0021E030E0A90102C0D3
:10567000440F551F8A95E2F74093EA001092EA0022
:105680008091EB0088608093EB001092E90080919C
:10569000E800877F8093E8000E94D028ACC0811189
:1056A000AAC010912F041F778091E3008078812B8E
:1056B0008093E3008091E800877F8093E8000E9458
:1056C000D0288091E80080FFFCCF8091E3008068C3
:1056D0008093E300111102C082E001C083E0809357
:1056E0002C0489C08058823008F085C080912F0436
:1056F000909130048C3D53E0950779F583E08A83DF
:105700008AE289834FB7F894DE01139620E03EE0E9
:1057100051E2E32FF0E050935700E49120FF03C0E3
:10572000E295EF703F5FEF708E2F90E0EA3010F05F
:10573000C79601C0C0968D939D932F5F243149F782
:105740004FBF8091E800877F8093E8006AE270E0B5
:10575000CE0101960E94DC2716C060913104709141
:105760003204AE014F5F5F4F0E940B27BC01892BB3
:1057700009F441C09091E800977F9093E8008981F7
:105780009A810E943A288091E8008B778093E80004
:1057900032C0803881F58091E800877F8093E800EF
:1057A000809128048093F1008091E8008E7772CF79
:1057B000811121C080912F04909130049927029784
:1057C000D4F48091E800877F8093E80080912F04D3
:1057D000809328040E94D02880912804811106C05B
:1057E0008091E30087FD02C081E001C084E08093E6
:1057F0002C040E9405268091E80083FF0AC0809156
:10580000E800877F8093E8008091EB0080628093BE
:10581000EB00AA960FB6F894DEBF0FBECDBFDF91A6
:10582000CF911F9108950895CF9380912C048823E0
:10583000A1F0C091E900CF709091EC00892F8170A8
:1058400090FD80E8C82B1092E9008091E80083FD6C
:105850000E94B32ACF70C093E900CF910895AA1B8C
:10586000BB1B51E107C0AA1FBB1FA617B70710F04B
:10587000A61BB70B881F991F5A95A9F7809590957D
:10588000BC01CD01089597FB072E16F4009407D0B4
:1058900077FD09D00E942F2C07FC05D03EF490958F
:1058A00081959F4F0895709561957F4F0895EE0FF4
:1058B000FF1F0590F491E02D0994FC0141505040E8
:1058C00030F001900616D1F73197CF01089588275F
:1058D00099270895F999FECF92BD81BDF89A99272D
:1058E00080B50895A6E1B0E044E050E00C94A42C0B
:1058F000A8E1B0E042E050E00C94A42C262FF999E6
:10590000FECF92BD81BDF89A019700B4021639F01E
:105910001FBA20BD0FB6F894FA9AF99A0FBE0895EF
:105920000396272F0E947F2C0E947E2C252F0E94F9
:105930007F2C242F0C947F2C0196272F0E947F2CE4
:105940000C947E2CDC01CB01FC01F999FECF06C042
:10595000F2BDE1BDF89A319600B40D92415050402D
:08596000B8F70895F894FFCF99
:10596800F90F0A101A1000000000000000000000E3
:10597800000000009202F90F0A101A10000000003F
:10598800000000000000000000008E02F90F0A105D
:105998001A100000000000000000000000000000D5
:1059A8008A02F90F0A101A10000000000000000017
:1059B8000000000000008602F90F0A101A1000000B
:1059C8000000000000000000000000008202F90F43
:1059D8000A101A100000000000000000000000007B
:1059E80000007E02F90F0A101A10000000000000E3
:1059F80000000000000000007A02F90F0A101A10D7
:105A08000000000000000000000000000000760216
:105A18000000D203000000000000000000000000A9
:105A28000000000000000000E60300000000000085
:105A38000000000000000000000000000000FF035C
:105A4800000000000000000000000000000000004E
:105A58000000000018040000000000000000000022
:105A6800000000000000000000009F04000000008B
:105A7800000000000000000000000000000000001E
:105A880035040000000000000000000000000000D5
:105A98000000000000004E040000000000000000AC
:105AA8000000000000000000000000006704000083
:105AB80000000000000000000000000000000000DE
:105AC800000080040000000000000000000000004A
