:100000000C9435020C947C020C947C020C947C02BF
:100010000C947C020C947C020C947C020C947C0268
:100020000C947C020C947C020C94DB220C94AD2387
:100030000C94EB1A0C947C020C947C020C947C02C1
:100040000C947C020C947C020C947C020C947C0238
:100050000C947C020C94531B0C947C020C947C0238
:100060000C947C020C947C020C947C020C947C0218
:100070000C947C020C947C020C947C020C947C0208
:100080000C947C020C947C020C947C020C947C02F8
:100090000C947C020C947C020C947C020C947C02E8
:1000A0000C947C020C947C020C947C022D0F2D0F7E
:1000B0005F0F5F0FB80FD60F4B114B111810AD101B
:1000C000BE10BE103B114B114B114411E111E11157
:1000D000F311F311EA11F311F311F311E111E1112D
:1000E000EF11F311F311EF111A24412439254124A2
:1000F00039258D24B02439250725162514001A002A
:100100000800150017001C0018000C001200130056
:1001100004611600070009000A000B000D000E0024
:100120000F0000571D641B00060019000500110098
:100130001000366437613868000002552C44000016
:100140002A430000284500000100000014001A00A6
:10015000090013000A000D000F0018001C000057D2
:10016000046115001600170007000B0011000800BD
:100170000C0012001D641B000600190005000E0093
:100180001000366437613868000002552C440000C6
:100190002A43000028450000010000000000000084
:1001A000000000000000000000000000000000004F
:1001B000000000000000000000000000000000003F
:1001C000000000000000000000000000000000002F
:1001D000000000000000000000000000000000001F
:1001E0000000000000000000000000004B004A007A
:1001F00052004D0049002302240225022602270254
:100200004E00500051004F0001001E021F0220024C
:1002100021022202A800AA00A900AC00AB002D0018
:100220002E002F003000310000002B00AE00000037
:100230000100000029000000010000003502350027
:10024000010001000100010042004300440045009C
:10025000310230002F002D022D0001003E003F0032
:1002600040004100310030022F022E022E0001001A
:100270003A003B003C003D00000029000100000066
:100280004C0000000100000001000000005C095D5E
:10029000085D0100010024002500260057005600DB
:1002A00001000100010001000100210022002300E3
:1002B00055005400010001000100010001001E0072
:1002C0001F0020006300010000004604460C0000EF
:1002D000160A000001000000270000001A000800B4
:1002E000000014001A000000040330000000140392
:1002F0005F003300330020006200790020004E00D0
:1003000052000000160374006F006D0069006E005B
:10031000610062006F0078003100000004030904EE
:1003200009023B00020100A0FA09040000010301D8
:100330000100092111010001224000070581030885
:10034000000A090401000103000000092111010055
:100350000122BC000705820320000A1201100100DF
:10036000000008EDFE506A010001020301050109C9
:1003700002A10185020901A100050919012905153C
:10038000002501950575018102950175038101051F
:1003900001093009311581257F950275088106090B
:1003A000381581257F950175088106050C0A3802EC
:1003B0001581257F950175088106C0C0050109805A
:1003C000A101850319012AB700150126B70095017F
:1003D00075108100C0050C0901A101850419012ACD
:1003E000A002150126A002950175108100C005012B
:1003F0000906A1018505050719E029E71500250172
:100400009508750181020507190029EF15002501DE
:1004100095F07501810205081901290595057501F9
:100420009102950175039101C005010906A101051D
:100430000719E029E7150025019508750181029546
:1004400001750881010507190029FF150026FF0025
:10045000950675088100050819012905950575019E
:100460009102950175039101C00011241FBECFEFC9
:10047000DAE0DEBFCDBF04B603FE27C08091B6022E
:100480009091B702A091B802B091B9028730904B19
:10049000A740B04BD1F41092B6021092B70210925E
:1004A000B8021092B90214BE84B7877F84BF0FB61A
:1004B000F894A89580916000886180936000109204
:1004C00060000FBEE0E0F8E3099511E0A0E0B1E0C4
:1004D000EEEBFBE402C005900D92AC3AB107D9F700
:1004E00022E0ACEAB1E001C01D92A63BB207E1F701
:1004F0000E940A200C94DD250C940000882319F03A
:10050000813031F00895662349F089E290E004C01B
:10051000662321F08BE290E00C94E80208959C01A0
:100520003A9521153F4138F5DC01AA27B270AC019C
:10053000442754709C012227387094FF0FC090FF0D
:1005400002C080E101C080E0AB2B09F08062452B46
:1005500009F08064232B69F080680BC0892F8170BB
:10056000AB2B09F08260452B09F08460232B09F046
:100570008860FB0109940895CF93DF93EC01805EBE
:100580009109089710F0209719F46DEE7EE002C0F3
:1005900067EA71E1CE010E948F028C2FDF91CF912B
:1005A0000C94C80DCF93DF93EC010E94720ECE0124
:1005B000805E9109089710F0209719F464EF7EE0AF
:1005C00002C06EEA71E1CE01DF91CF910C948F02EF
:1005D000CF93DF93EC010E94BC02CE01DF91CF915B
:1005E0000C94D20281E0089581E008950C94F40205
:1005F0001F93CF93DF9300D000D01F92CDB7DEB70B
:1006000049835A836B832091DA0189819A81211170
:1006100012C0662349F00E946B17182F682F89813A
:100620009A810E94141703C00E943F17182F6981F6
:100630007A81812F04C00E946B1769817A810F90A3
:100640000F900F900F900F90DF91CF911F910C940E
:10065000B103FC01408151816281738184810C94DA
:10066000F8020E949F1B0E942E19811102C00E9455
:10067000CE190C94D0050E94DE090E9441070C940B
:10068000CC0508950C94410381E008950C94440333
:10069000CF93C82F0E9442038C2F0E944603CF9114
:1006A000089508950E94CF110E9451032FEF84E313
:1006B0009CE0215080409040E1F700C000000C9485
:1006C000791B0F931F93CF93DF93EC010E942903B3
:1006D0008C01BE010E943B09BE01C8010E94F602C6
:1006E0008823A9F1BE01C8010E948209882379F1FB
:1006F000BE01C8010E946E07882349F1BE01C801EE
:100700000E94A50A882319F1BE01C8010E94E60AC9
:100710008823E9F0BE01C8010E94110C8823B9F0BA
:100720008A81882369F001158CE5180731F00E3DA8
:100730001C4531F40E94CE190AC00E94520307C022
:10074000CE01DF91CF911F910F910C94F20280E0C6
:10075000DF91CF911F910F91089580E090E008956F
:10076000089528E2829FC0011124FC012AE0729FB3
:10077000E00DF11D1124E60FF11DEE0FFF1FE450F7
:10078000FF4F859194910895880F991FFC01E851BE
:10079000FD4F859194910895CF93DF930E94B1030B
:1007A0000E94E404EC018115904508F041C0C11598
:1007B00080E4D80708F0D1C0C83ED10510F5C03E8E
:1007C000D10508F0FDC0C83AD10578F4C53AD10585
:1007D00008F0A2C0C130D10509F4F2C008F4EEC09F
:1007E000C430D10508F0ECC0E9C0CF3BD10508F416
:1007F0009BC0C03CD10508F4E1C0CE01805C9109EA
:100800009EC0C11590E2D90758F4C11521E0D20766
:1008100008F0D6C0C03FD10508F4D0C0D065D0C024
:10082000C11580E3D80708F08EC0CE019F7087C045
:10083000C11595E5D90708F043C0C11524E5D207D5
:1008400008F0A2C0C11582E5D80708F5C11591E5E9
:10085000D90708F085C0CE0174E0969587957A9502
:10086000E1F783709C2F937021E030E002C0220FEB
:10087000331F9A95E2F73C68382BCF70C695C69522
:1008800080E2C89FE0011124C22BD32B99C09E01A6
:10089000237033278C2F86958695C115D34508F094
:1008A00064C0C1E0D0E002C0CC0FDD1F2A95E2F7A2
:1008B00020E2829FC0011124C82BD92BDC6880C0A4
:1008C000C11529E5D207A0F4C11588E5D80708F0BD
:1008D00060C0C11596E5D90708F070C08C2F0E9442
:1008E00078058F71C82FD0E0DC2FCC27D06268C08C
:1008F000C1152AE5D20708F451C0CE0190568115E2
:10090000904208F05BC08D2F8F710E947805DD2723
:10091000D0628F71D82B54C0C55AD0E0C759DE4F72
:10092000C881D0E0D0644CC0C85AD0E0CC0FDD1FE5
:10093000C55CDE4F0990D881C02DD46441C00E94AF
:10094000C403EC013DC0CE019927D3FF03C0EC01E5
:10095000D86C36C0EC01D06C33C0DF70D06A30C0C8
:10096000DC2FCC27C16FD06A2BC0C1E0D0E002C021
:10097000CC0FDD1F2A95E2F720E2829FC0011124EF
:10098000C82BD92BDA681CC0DC2FCC27C46FD06AE7
:1009900017C0DC2FCC27C06FD06A12C08C2F8F708D
:1009A0000E94780594E0D695C7959A95E1F7CF70A7
:1009B000D0E0DC2FCC27D069C82B02C0C0E0D0E04B
:1009C000CE01DF91CF9108958238910569F1B0F49D
:1009D0008133910509F46DC048F48932910509F419
:1009E00063C08A32910509F469C008958533910581
:1009F00009F455C089339105B9F00895833E9105F6
:100A000069F138F4803E9105B1F0823E910509F11B
:100A10000895863E9105A9F1873E9105B9F1843E7E
:100A2000910509F064C023C02091A70220FD4FC0AA
:100A300021FD4DC008958091A70280FD44C08091A2
:100A4000A80280FF44C08091A70284FD42C083EECB
:100A50004DC08091A70282FF38C0F5CF8091A702D8
:100A600082FD33C08091A80280FD31C0ECCF80911F
:100A7000A80281FF32C08091A70284FD2AC087EEC0
:100A800035C08091A70283FF26C0F5CF8091A702D1
:100A900083FD21C08091A80281FD1FC0ECCF809111
:100AA000A70285FD1CC01DC08091A70285FD19C04D
:100AB00016C08091A70286FD16C017C08091A702BC
:100AC00086FD13C010C089E311C082EE0FC080EE16
:100AD0000DC080E00BC086EE09C084EE07C089E23D
:100AE00005C085E303C08AE201C081E390E0089578
:100AF0009091A70292FF0DC0282F2871283019F479
:100B0000877F846006C0282F2471243011F48B7FE6
:100B1000886093FF0DC0282F2871283119F4877E33
:100B2000846106C0282F2471243111F48B7E8861E2
:100B30002091A80220FF0DC0382F3871383019F4E9
:100B4000877F816006C0382F3171313011F48E7F7C
:100B5000886021FF0DC0282F2871283119F4877E65
:100B6000816106C0282F2171213111F48E7E8861A8
:100B700094FD877E0895E82FF0E0EE0FFF1FE75603
:100B8000FD4F808191810895089580EA8A95F1F75B
:100B9000089508950C94C9050C94CA050C94C905D0
:100BA0000C94CE05CF93DF93ACE6B1E046E751E07D
:100BB00061E070E08D91E82FE295EF70F0E021A107
:100BC0008F70EB0102C0CC0FDD1F8A95E2F7CE01DA
:100BD0009C2F9095922391A392A1892B82A34A17CF
:100BE0005B0741F7A6E7B1E041E050E08D91E82FC7
:100BF000E295EF70F0E021A18F70BA0102C0660F9C
:100C0000771F8A95E2F7CB01962F9095922391A3B7
:100C100092A1892B82A371E0AA37B70739F7109206
:100C200092021092910210929A02109299021092DE
:100C300094021092930210929C0210929B021092C6
:100C400096021092950210929E0210929D021092AE
:100C50009802109297021092A00210929F0284E0D4
:100C60000E94E606DF91CF910C9431032F923F92C0
:100C70004F925F926F927F928F929F92AF92BF92AC
:100C8000CF92DF92EF92FF920F931F93CF93DF9358
:100C900000D000D0CDB7DEB78CE6C82E81E0D82ECC
:100CA000E12CF12C10E0AA24A394B12C29E9422EC6
:100CB00022E0522ED6018D916D01B82FB295BF70F2
:100CC000EB2FF0E0FC83EB8391A18F70450101C015
:100CD000880C8A95EAF7892F882981A382A1382C6C
:100CE0003094832182A30E94C505A5010E2C02C069
:100CF000440F551F0A94E2F73A016094709426E776
:100D000031E03A832983E1E9F2E0212CBF018081BF
:100D10009181A981BA810D91BA83A983202F22954F
:100D20002F7030E0D90190962C9130E00F7002C006
:100D3000359527950A95E2F720FD04C09C01242BE8
:100D4000352B03C09C012621372131832083329625
:100D5000DB012D913C918217930711F022242394FB
:100D60004E165F0699F6EB81FC8181A1382231A2F3
:100D700082A1882A82A21229FFEFEF1AFF0A2AE035
:100D8000E216F10409F096CF212F44E069E972E000
:100D900081E992E00E94E7060E943B03812F0F90B9
:100DA0000F900F900F90DF91CF911F910F91FF90B7
:100DB000EF90DF90CF90BF90AF909F908F907F90FB
:100DC0006F905F904F903F902F9008950895FF92FD
:100DD0000F931F93CF93DF93F82E092F162FD72F42
:100DE000C42F222349F081E08093AE010E941D1B95
:100DF0009093AD018093AC018091AE018823D9F02E
:100E00008091AC019091AD010E94291B069798F04A
:100E1000EF2DF02FA12FBD2F80E090E04C2F50E060
:100E20008417950734F4219131912D933D930196C8
:100E3000F7CF1092AE01DF91CF911F910F91FF90EC
:100E40000895CF939091BF019923C9F0882311F0A1
:100E5000C0E003C01092BF0112C08091BF01C8174B
:100E6000C8F7EC2FF0E0EE0FFF1FE155FE4F808139
:100E700091810E94BC020E949D18CF5FEECFCF915E
:100E80000895809124018823A1F08091C0018823D6
:100E900081F08091C3019091C401009751F00E94AC
:100EA000291B893C910528F01092C00181E00C9427
:100EB000210708951092C001109224011092C401DC
:100EC0001092C30181E00C942107809124018111CB
:100ED0000C945A0781E08093240108955F926F92E9
:100EE0007F928F929F92AF92BF92CF92DF92EF92BA
:100EF000FF920F931F93CF93DF938C017B0110928E
:100F0000C101873F2CE5920741F4FB01C281CC234C
:100F1000C9F081E0809324010AC1883FFCE59F0766
:100F200039F4FB01C281CC2369F00E945A07FFC04B
:100F3000893F9C4539F4FB01C281CC2319F00E9402
:100F40006507F5C080912401882309F4EFC0109251
:100F5000C201AA24A394B12C95E0992EC1E0D0E05F
:100F6000882483948091C201823008F0A1C0C82EE9
:100F7000D12C9C9CF0019D9CF00D1124E65EFE4F4F
:100F80004081518177247A9490E0FA01E90FF11DB4
:100F9000E90FF11D259134910217130709F4792EF9
:100FA000232B11F09F5FF1CFFFEF7F1202C0612C66
:100FB00066C05090C001F7016280662069F19C9C78
:100FC000F0019D9CF00D1124E65EFE4F9E0101C0D4
:100FD000220F7A94EAF73481232B2483552039F3A6
:100FE000AE0102C0440F551F9A95E2F741505109D6
:100FF00030E04217530709F042C0228133812115A6
:10100000310521F0C9010E94BC0203C061E00E94C9
:101010007E028092C10133C09E0102C0220F331FA5
:101020009A95E2F7215031099C9CF0019D9CF00DAE
:101030001124E65EFE4F448150E02417350769F421
:10104000228133812115310521F0C9010E94D2028C
:1010500005C060E00E947E0201C0512C9C9CF00102
:101060009D9CF00D1124E65EFE4FCE0101C0880F5D
:101070007A94EAF78095948189238483652CB62835
:10108000AA2069F09C9CF0019D9CF00D1124E65E65
:10109000FE4F91E08481811190E0892F01C080E0B2
:1010A0008170A82E8091C2018F5F8093C2015ACFB8
:1010B0008091C101882351F00E941D1B9093C401AF
:1010C0008093C30180E00E9421072CC0B1100DC0A5
:1010D00081E00E942107AA2029F11092C4011092F8
:1010E000C30181E08093C0011DC0F7018281882384
:1010F000C9F08091C0018823A9F00E941D1B909324
:10110000C4018093C301E091BF01E83058F481E04D
:101110008E0F8093BF01F0E0EE0FFF1FE155FE4FF1
:101120001183008381E0CB2DC82701C0C1E08C2F43
:10113000DF91CF911F910F91FF90EF90DF90CF90B3
:10114000BF90AF909F908F907F906F905F90089529
:10115000CF93DF93EC0181E0898B8F810E9440184F
:1011600088850E9453180E949D18EA81FB81CE0158
:101170000696309729F06C897D89DF91CF9109948B
:10118000DF91CF910895CF93DF93FC01208122302E
:1011900041F4FB01EC01828193810E94BC0281E059
:1011A0008B87DF91CF910895FC018081813021F4FC
:1011B000FB018081918105C0823029F4FB0182818D
:1011C00093810C94BC020895FC018081813021F44C
:1011D000FB018081918105C0823029F4FB0182816D
:1011E00093810C94D2020895EF92FF920F931F9374
:1011F000CF93DF93FC012285211136C0EC01E380FF
:10120000F480F7E5FF1A26E12E9DC0012F9D900D79
:101210001124DC01A050BF4F1496ED91FC9115975D
:101220008A5F9E4F309729F054966D917C91559727
:10123000099586E18E9D80018F9D100D112400502F
:101240001F4FF80187810E944618F80180850E948F
:1012500059180E949D18188219861B861E821D82AD
:101260001092C6011092C501DF91CF911F910F918D
:10127000FF90EF900895DF92EF92FF920F931F93EC
:10128000CF93DF93FB0122812223A1F1209125013D
:101290002F3F81F18C01C0E0D1E0E12CF12CDD2465
:1012A000D39480912501082E000C990B8E159F0573
:1012B0000CF18E818823C9F089859A858017910762
:1012C00039F48091C5019091C6010817190769F09A
:1012D000DF861C870B878989811103C0CE010E949C
:1012E000A808CE0106960E94F408FFEFEF1AFF0A45
:1012F0006696D7CFDF91CF911F910F91FF90EF901E
:10130000DF900895EF92FF920F931F93CF93DF9397
:101310009C0137552F3F310511F008F047C040912F
:101320002501042E000C550B4217530714F420938B
:101330002501FB017C01828196E1929F8001939FB0
:10134000100D1124E801C050DF4F888B92818E81EF
:10135000992311F1FA86E9868F5F8E830E941D1B07
:101360009E878D870E9473188F830E943D188887FF
:101370000E9450189885892B8887E881F981C801D7
:101380008A5F9E4F309719F06C897D890995F0929C
:10139000C601E092C5010AC0882341F089898823EB
:1013A00029F0C8018A5F9E4F0E94F40881E0DF9116
:1013B000CF911F910F91FF90EF900895CF92DF9200
:1013C000EF92FF920F931F93CF93DF9380912501AC
:1013D0008F3FF1F1F12C96E1E92E0F2D10E0809175
:1013E0002501082E000C990B801791078CF1E09EC7
:1013F000F001E19EF00D1124E050FF4FC288D38828
:10140000C114D10419F488ECC82ED12CE09EE0015F
:10141000E19ED00D1124C050DF4F8E818823B1F0A2
:101420008D859E850E94291BC816D90678F4898966
:10143000811103C0CE010E94A808E09EC001E19E78
:10144000900D11248A5F9E4F0E94F408F394C5CF3B
:10145000DF91CF911F910F91FF90EF90DF90CF9090
:1014600008950F931F93CF93DF93C62FD42F122F7E
:10147000FC0182818823C9F06093C9010E941D1B71
:101480009093C8018093C70180E28C0F883008F0E8
:1014900057C0C77081E001C0880FCA95EAF7DF9195
:1014A000CF911F910F910C94ED0E8091C90168139B
:1014B00030C08091C7019091C8010E94291B883CCF
:1014C000910538F500E20D0FCD17B9F080E28C0FD1
:1014D000883040F4C77081E001C0880FCA95EAF7F0
:1014E0000E94F40E083028F581E09D2F977001C00E
:1014F000880F9A95EAF70E94ED0E812F0E94DA0E6E
:101500000830F0F4D77081E001C0880FDA95EAF76F
:101510000AC080E28C0F883098F4C77081E001C067
:10152000880FCA95EAF7DF91CF911F910F910C9424
:10153000F40E812FDF91CF911F910F910C94DA0E51
:10154000DF91CF911F910F9108959C01CB01233F13
:101550004CE53407F9F078F4283DFCE53F07B9F095
:10156000293D4CE5340711F1273D3C4531F526E294
:1015700041EE61EE1EC0253FFCE53F0799F070F09B
:10158000263F3C45D1F427E245EE66EE12C027E245
:1015900045EE0EC026E241EE60EE0BC027E245EEBE
:1015A00064EE07C026E241EE62EE03C028E241E0AD
:1015B00065EE0E94310A80E00895FC018281882353
:1015C00019F01092C901089581E00895CF93DF9337
:1015D000EC01FB018281882309F41FC1C230FCE5C4
:1015E000DF0708F41BC1C6319CE5D90738F09E011E
:1015F0002A5F3C452930310508F010C10E9441198D
:101600009093A8028093A702C031ECE5DE0709F4AD
:10161000C3C008F041C0C8308CE5D80709F49AC0AF
:10162000F0F4C430ECE5DE0709F487C068F4C2309A
:101630008CE5D80709F477C0C330DC4509F0E3C076
:101640008091A702826076C0C630ECE5DE0709F41F
:101650006EC008F07BC08091A70288606BC0CC3060
:101660008CE5D80709F485C068F4CA30ECE5DE07DC
:1016700009F474C008F079C00E94CF118091A702CC
:10168000806858C0CE308CE5D80709F476C008F0E1
:101690007FC08091A7028BC0CB3FECE5DE0709F449
:1016A0004FC018F5C3318CE5D80709F47DC078F434
:1016B000C131ECE5DE0709F473C0C231DC4509F045
:1016C000A2C00E94CF118091A7028F7733C0C5318D
:1016D0008CE5D80709F472C008F486C0CA3FDC451F
:1016E00009F091C08091A8023EC0CF3FFCE5DF0722
:1016F00009F45FC058F4CD3F9CE5D90709F444C014
:1017000008F43FC08091A80282602DC0C130FDE581
:10171000DF0709F475C008F45DC0C230DD4509F08B
:1017200072C080E06EC08091A702816003C080918A
:10173000A70280618093A70266C08091A70211C0B2
:101740008091A80282608093A8025DC08091A70268
:101750008062F0CF8091A7028064ECCF8091A702D5
:1017600088608460E7CF8160EECF8091A7028E7F92
:10177000E1CF8091A7028D7FDDCF8091A702877F87
:10178000D9CF8091A80218C08091A8028D7FDBCFAD
:101790008091A7028F7ECECF8091A7028F7DCACF86
:1017A0008091A7028F7BC6CF8091A702877F8B7F16
:1017B000C1CF8091A8028D7F8E7FC5CF8091A70277
:1017C00082FB222720F991E0922790FB82F990FB7F
:1017D00083F9B0CF8091A802982F909591708E7F59
:1017E000892B90FB81F9AFCF0E94CF118091A70286
:1017F00087FB222720F991E0922790FB87F99ACF67
:1018000081E00E94D0198091A7029091A8020E94C5
:1018100052190E94CF1180E001C081E0DF91CF9189
:101820000895CF93DF9386319C4571F5EB010E94BB
:101830003D18982F917119F4982F9A7A01C090E071
:101840008A812091260130912701882379F081E057
:10185000911101C080E08093CA01911102C069E238
:1018600001C065E3C9010E946B1A0AC08091CA01D8
:10187000811102C069E201C065E3C9010E94761AC4
:101880000E949D1880E001C081E0DF91CF91089512
:101890009093D0018093CF010895E091CF01F09112
:1018A000D001309721F00190F081E02D099480E083
:1018B0000895E091CF01F091D001309799F02091F7
:1018C0003A01222359F02091A70227FF07C0DC012B
:1018D0002C9111962C93119725E02C930280F38183
:1018E000E02D09940895E091CF01F091D001309757
:1018F00039F022E0DC012C930480F581E02D09947D
:1019000008952091CD013091CE012817390771F04B
:101910009093CE018093CD01E091CF01F091D00161
:10192000309721F00680F781E02D099408952091E9
:10193000CB013091CC012817390771F09093CC017D
:101940008093CB01E091CF01F091D001309721F04D
:101950000084F185E02D0994089585B7806885BFDE
:1019600085B7806885BF089508950C94B40C0C94D5
:10197000B50C0C94B40C0C94B40C0E94AD0C0E94E9
:10198000B90C0C94B70C81E008950E94141B0E94BE
:10199000D2050E94B31BE7EAF2E080818068808371
:1019A0008091A7029091A8020E9452190C94BB0C3E
:1019B0007F928F929F92AF92BF92CF92DF92EF92DF
:1019C000FF920F931F93CF93DF93CDB7DEB72A9784
:1019D0000FB6F894DEBF0FBECDBF0E9436060E9440
:1019E000C30C811111C08FEF89838A831B820E94EF
:1019F0001D1B8160782F9D838C8349815A816B8167
:101A00008D810E94880D4FC042EDA42E41E0B42E7E
:101A100000E010E0702E802F0E94BB056C01F501E4
:101A2000819091905F01882699268114910431F468
:101A30000F5F1F4F0430110569F7D5CF80915E020B
:101A400081FD0E94C40580E0EE24E394F12C940112
:101A50002E213F21232B09F18E837F82CE20DF2090
:101A600081E0CD2809F480E088870E941D1B8160F9
:101A7000782F9A8789874E815F8168858A850E9441
:101A8000880D000F111FF801EE52FE4F80819181E9
:101A9000E826F926F182E08206C08F5FEE0CFF1C7B
:101AA0008A30A9F6C5CF0E94451D0E944D0C909129
:101AB000D1018917C9F00E944D0C8093D1012A965B
:101AC0000FB6F894DEBF0FBECDBFDF91CF911F914F
:101AD0000F91FF90EF90DF90CF90BF90AF909F90CD
:101AE0008F907F900C9448032A960FB6F894DEBF2F
:101AF0000FBECDBFDF91CF911F910F91FF90EF905F
:101B0000DF90CF90BF90AF909F908F907F9008957F
:101B1000CF93DF93CDB7DEB72B970FB6F894DEBF28
:101B20000FBECDBF4F83588769877A878B87DE01C9
:101B3000119686E0FD0111928A95E9F785E0FE0194
:101B4000379601900D928A95E1F70E940B18882331
:101B500019F082E00E940F190E94DE1781110E9485
:101B60008F1849815A816B817C818D819E810E9471
:101B7000D9142B960FB6F894DEBF0FBECDBFDF9100
:101B8000CF910895FC01808191810E94AD17089545
:101B9000CF93882309F4A4C0C82F8238C1F40E94CF
:101BA0004D0C81FD9DC069E3809126019091270134
:101BB0000E946B1A0E949D182FEF81EE94E0215035
:101BC00080409040E1F700C0000069E319C083380D
:101BD00001F50E944D0C80FD83C063E580912601D4
:101BE000909127010E946B1A0E949D182FEF81EEA1
:101BF00094E0215080409040E1F700C0000063E590
:101C000080912601909127010E94761ACF910C9421
:101C10009D188438C1F40E944D0C82FD61C067E4B8
:101C200080912601909127010E946B1A0E949D18B5
:101C30002FEF81EE94E0215080409040E1F700C00A
:101C4000000067E4DDCF8CEF8C0F813AD0F46C2F6D
:101C500080912601909127010E94EB19882349F079
:101C60006C2F80912601909127010E94761A0E9484
:101C70009D186C2F80912601909127010E946B1A6C
:101C8000C5CF80E28C0F883048F4C77081E001C076
:101C9000880FCA95EAF70E944018B8CFEBE5EC0F21
:101CA000E33040F4F0E0E855FE4F808190E0CF91C2
:101CB0000C94810CE8E5EC0FE73150F4F0E0EE0F06
:101CC000FF1FE658FE4F80819181CF910C94970CB5
:101CD000C03F30F08C2F0E944D1CCF910C943A1DC8
:101CE000CF910895882309F464C0823879F40E9462
:101CF0004D0C81FF5EC069E3809126019091270120
:101D00000E946B1A0E949D1869E310C08338B1F4D9
:101D10000E944D0C80FF4DC063E58091260190919B
:101D200027010E946B1A0E949D1863E5809126018D
:101D3000909127010E94761A0C949D18843879F4AA
:101D40000E944D0C82FF35C067E48091260190917E
:101D500027010E946B1A0E949D1867E4E7CF9CEF51
:101D6000980F913A10F4682FE1CF90E2980F9830D5
:101D700050F4877091E001C0990F8A95EAF7892F96
:101D80000E944618D9CF9BE5980F933020F480E04D
:101D900090E00C94810C98E5980F973120F480E046
:101DA00090E00C94970C803F20F00E94B51C0C949E
:101DB0003A1D0895CF93C82F0E94C80DC93349F426
:101DC0002FEF87EE93E0215080409040E1F700C074
:101DD00000008C2FCF910C94720E882321F00E946A
:101DE00040180C949D180895882321F00E944618ED
:101DF0000C949D180895CF92DF92EF92FF920F936B
:101E00001F93CF93DF937C01062FC72FFC01D58151
:101E1000D295DF70128111110E9460180E9436184D
:101E2000882379F0112369F080E2800F883048F030
:101E300082E00E940F190E94361891E0D82ED92610
:101E400001C0D12CCC2EC2948FE0C8228C2D90E002
:101E5000FC01EA5AFF4F0C9481258C2F807FCF70B4
:101E6000882311F0C295C07F112399F0CC2309F487
:101E7000ECC180E2800F883010F0011104C08C2F7B
:101E80000E94401803C08C2F0E9453180E949D1876
:101E9000DCC1802F0E94720ECC2309F4FCC180E2C9
:101EA000800F883010F0011104C08C2F0E9446185A
:101EB00003C08C2F0E9459180E949D18ECC18C2FD2
:101EC000807FCF70803211F0C295C07F002319F05F
:101ED000013059F134C01123B1F0DD2381F0D1304C
:101EE00031F40E9473188C2B0E947B18D4C1D3301C
:101EF00031F40E948F188C2F0E94DB1824C00E949E
:101F000073188C2B21C0DD2369F0D13041F40E947D
:101F10003D188C2309F4BFC10E94E41803C0D330DC
:101F200009F4B9C10E948F181FC0112321F0D430C9
:101F300008F0B1C108C0D33008F0ADC115C01123FD
:101F400031F0D11182C18C2F0E94ED0EA4C1DD238E
:101F500059F0093309F08BC1FFEF27EE83E0F15010
:101F600020408040E1F781C18C2F0E94F40E93C184
:101F70008C2F86958695837019F0813061F08BC126
:101F8000112321F0802F9C2F937002C080E090E0FD
:101F90000E94810C88C1112321F0802F9C2F937007
:101FA00002C080E090E00E94970C7DC11123F9F0FF
:101FB000053F51F0063F71F0043FA9F48091A10262
:101FC0009091A20281600BC08091A1029091A20227
:101FD000826005C08091A1029091A20284609093DA
:101FE000A2028093A102802F0E944D1C1EC0053FBB
:101FF00051F0063F71F0043FA9F48091A102909145
:10200000A2028E7F0BC08091A1029091A2028D7FCF
:1020100005C08091A1029091A2028B7F9093A202B1
:102020008093A102802F0E94B51C0E943A1D3BC1E3
:102030008C2F837009F045C0111131C1402F42959A
:1020400046954770440F440F602F6F70862F90E0C5
:10205000A0E0B0E0042E04C0880F991FAA1FBB1F88
:102060000A94D2F704FF10C00FE010E020E030E047
:1020700004C0000F111F221F331F4A95D2F700958D
:1020800010952095309503C000E010E09801C695AA
:10209000C695C370BC01CD01602B712B822B932B95
:1020A000C23049F058F4C13019F00E942A16F7C026
:1020B0000E941816F4C00E943C16F1C00E94161629
:1020C000EEC0112319F08C2F817001C086958823F2
:1020D00009F4E5C0402F429546954770440F440FE0
:1020E000602F6F70862F90E0A0E0B0E0042E04C057
:1020F000880F991FAA1FBB1F0A94D2F704FF10C0B4
:102100000FE010E020E030E004C0000F111F221F9C
:10211000331F4A95D2F7009510952095309503C04E
:1021200000E010E09801C695C695C370BC01CD01D2
:10213000602B712B822B932BC23049F058F4C130A5
:1021400019F00E94EF16ABC00E94DD16A8C00E94D5
:102150000117A5C00E945016A2C0CF70112339F0FC
:102160008C2F0E947616802F0E94ED0E98C0802F33
:102170000E94F40E8C2F0E94971691C0023F01F12D
:1021800028F4003F41F0013FA1F05AC0033FF9F0AD
:10219000043F39F155C0112341F0D33008F07BC022
:1021A0008C2F8F710E94BC1676C0D43008F073C09B
:1021B000F7CF112339F08C2F8F710E9476166BC0E8
:1021C0001123C9F38C2F8F710E94971664C01123BD
:1021D00029F08C2F8F710E9461165DC00E945C16E1
:1021E0005AC01123C9F00E94DB170E9446180E94B2
:1021F0000718843039F40E9406198C2F8F710E94C1
:1022000097166CC0D33008F069C0CF718C2F0E9434
:10221000761663E08C2F0DC00E94DB170E944018D9
:10222000D33050F00E9406190E94E41864E08C2F0D
:102230008F710E94F01852C081E00E940F194EC0A9
:10224000112339F0DD2309F4B6CF802F0E94C80D89
:1022500022C0DD2309F4B6CF093349F49FEFE7EE3E
:10226000F3E09150E040F040E1F700C00000802F23
:102270000E94720E10C04C2F4F70602FC7010E9439
:10228000AD030E9487150FC04C2F4F70602FC70100
:102290000E94B00308C088EF8C0D843020F40E94A7
:1022A0004D0C0E944803DD20D9F00E94071880FDE4
:1022B00017C0F70112820E9401180E947616C7010A
:1022C0000E9479110E940118DF91CF911F910F9107
:1022D000FF90EF90DF90CF900C949716D12CDFCF2A
:1022E000DF91CF911F910F91FF90EF90DF90CF90F2
:1022F00008950F931F93CF93DF93EC019881898109
:102300002B813C81232B31F08F3F31F481E09F3FC3
:1023100019F403C081E001C080E080FD13C0CE014C
:102320000E946103882371F0688179818A810E940B
:10233000B8178C010E9413170E940416B801CE0131
:102340000E94FB0EDF91CF911F910F91089588237A
:1023500021F00E9453180C949D180895882321F0B1
:102360000E9459180C949D1808950E9460180E94AC
:1023700070180E949D180E94641E0E943A1D80E001
:1023800090E00E94810C80E090E00C94970C80918A
:102390002601909127010E94811A0C94B5110E9488
:1023A0004D180C94C711E92FE295EF704E2F50E0B5
:1023B000FA013297EE30F105B0F4EA59FF4F0C9470
:1023C0008125803F91F018F4883E68F40EC0843F68
:1023D00051F40BC0883E48F0813F29F406C093FBBE
:1023E000882780F9089580E0089581E008950E948B
:1023F000AD170E94D3110895CF93DF9300D000D082
:102400001F92CDB7DEB70F900F900F900F900F90E7
:10241000DF91CF910895CF93DF9300D000D000D00B
:10242000CDB7DEB726960FB6F894DEBF0FBECDBF90
:10243000DF91CF9108951F93CF93DF93C091DB017C
:1024400016E08091DC01C81799F0D0E01C9FF001E4
:102450001D9FF00D1124E352FE4F40815181628196
:102460007381848195810E940B122196C770E9CFF8
:10247000DF91CF911F91089540910D0250910E026E
:1024800060910F02709110028091110290911202DE
:102490000C940B122091DB019091DC0156E029177E
:1024A000A9F030E0529FF001539FF00D1124E35248
:1024B000FE4F7181761306C07081781303C072815C
:1024C000741306C02F5F3F4F2770E9CF80E0089557
:1024D00081E00895CF938091120282958F7009F068
:1024E0005FC080910F02882309F45AC08091DB01FC
:1024F000B091DC0170910D02A0910E02409110028A
:102500005091110291E07F3F09F090E0692FC6E001
:102510008B1709F445C04115510521F0AF3F21F05B
:1025200020E003C021E001C0262F90E020FD35C04F
:10253000C89FF001C99FF00D1124E352FE4F218185
:102540002A132BC02081271328C02281211125C0E6
:10255000238134812417350710F421503109241BBD
:10256000350B283C3105C8F4209112022F702061F0
:102570002093120226E0289FF001299FF00D1124DC
:10258000EE51FE4F80818F70806180838DE092E0FC
:102590000E947911CF910C941B1201968770B8CFCD
:1025A000CF9108959F92AF92BF92CF92DF92EF9218
:1025B000FF920F931F93CF93DF93CDB7DEB7619751
:1025C0000FB6F894DEBF0FBECDBF7C0185E0F701EA
:1025D000DE011D9601900D928A95E1F7D701DC90FE
:1025E00011960C9111971296CC9030910D0240915A
:1025F0000E028091100290911102009731F04F3F2E
:1026000031F421E03F3F19F403C021E001C020E094
:1026100020FD9FC1F701A380B48090900F02992004
:1026200009F42BC120911202A816B90628F0B501B1
:10263000681B790BCB0104C0809590958A0D9B1D7A
:1026400011E0883C910590F010E0207F09F0DBC09C
:102650007A2DB98AA88A4D2D502F6C2D89890E9418
:10266000FC118DE092E00E9479116BC1822F807F76
:1026700009F091C0041315C0D31213C01C2DC11052
:1026800010C02F702061209312020E943C128DE036
:1026900092E00E94791180911202D70115968C93D5
:1026A00075C1A114B10439F00F3F39F481E0BFEFD7
:1026B000DB1203C003C081E001C080E080FD03C0E5
:1026C00081E08C2502C080E090E080FF15C04C2D99
:1026D000602F8D2D0E944A12882371F08DE092E0C8
:1026E0000E947911EDE0F2E086E0DF011D928A950B
:1026F000E9F70E943C124DC0AB2839F00F3F39F486
:1027000081E0BFEFDB1203C003C081E001C080E0C5
:1027100080FD03C081E08C2502C080E090E0E82FBE
:10272000E170BE2E80FF2CC04C2D602F8D2D0E949D
:102730004A12182F811124C0DD860E878D859E8553
:102740000E94AD17292F22952F70223018F02430C7
:1027500090F405C09F7059F0811109C017C19F7096
:1027600031F0D70115969C91907F09F40FC1805EDE
:10277000883008F40BC1C7010E9479111B2D06C1D6
:102780001C2DCC2009F402C180911202816080933B
:10279000120210E0FBC0041309C0D31207C0C1101D
:1027A00005C080911202F7018583A5C0DD860E87E2
:1027B0008D859E850E94F711882379F1CC2069F1DF
:1027C00020911202822F82958F7090E0029774F010
:1027D00080910D0290910E0298878F831986BB8697
:1027E000AA862C87CE0107960E94791186E0F70110
:1027F000ADE0B2E001900D928A95E1F70E946A1275
:102800000E943C120DC0041769F0DD860E878D858D
:102810009E850E94F711811119C0C7010E9479118C
:1028200011E0B4C0D312F1CFC110EFCF80911202EA
:10283000F7018583C7010E94791186E0EDE0F2E09F
:10284000DF011D928A95E9F7192DA0C0CC2029F34C
:1028500020911202822F82958F7090E0029734F2BD
:1028600080910D0290910E029A8389831B82BD8212
:10287000AC822E83CE010196B7CFA816B90628F0F8
:10288000F501E81BF90BCF0104C0809590958A0DE6
:102890009B1D883C910558F010E07A2DB98AA88AD2
:1028A0004D2D502F6C2D89890E94FC114AC01C2D82
:1028B000CC2009F4B2CF041333C0D31231C020911D
:1028C000120220FD24C0822F82958F70482F50E085
:1028D00041155105E1F0D70115962C9315974F300E
:1028E000510549F08F5F982F9295907F822F8F70BE
:1028F000892B15968C93C7010E94791186E0F70108
:10290000ADE0B2E001900D928A95E1F73DC086E01E
:10291000F701ADE0B2E001900D928A95E1F736C083
:10292000DD860E878D859E850E94F71181115ECF11
:1029300080911202816080931202C7010E94791176
:1029400025C0EDE0F2E086E0DF011D928A95E9F70F
:102950001BC0CC2009F461CFDD860E878D859E8556
:102960000E94F711182F882309F457CF86E0F7014A
:10297000ADE0B2E001900D928A95E1F78DE092E032
:102980000E94C20D0E946A120E943C12812F619621
:102990000FB6F894DEBF0FBECDBFDF91CF911F9170
:1029A0000F91FF90EF90DF90CF90BF90AF909F90EE
:1029B00008951F93CF93DF93CDB7DEB72C970FB653
:1029C000F894DEBF0FBECDBF4F83588769877A87E3
:1029D0008B879C87CE0107960E94D2128823D1F064
:1029E0009F8188852A853B85232B31F08F3F31F4E9
:1029F00081E09F3F19F403C081E001C080E080FDC9
:102A000047C04F81588569857A858B859C850E9452
:102A10000B123EC086E0FE013796DE011196019052
:102A20000D928A95E1F7FF81E8856A857B856115BE
:102A3000710531F0EF3F31F481E0FF3F19F403C03D
:102A400081E001C080E080FD23C02091DC0130E006
:102A5000C9010196877099274091DB0150E08417E6
:102A60009507F1F1F983EA837D836C8396E0929F69
:102A7000D001939FB00D1124A352BE4FFE01319699
:102A800001900D929A95E1F78093DC010E941B1250
:102A900016E08091DB019091DC01891771F1189F9C
:102AA000C001112483529E4F0E94D212882329F123
:102AB000E091DB011E9FF0011124E352FE4F4081A3
:102AC000518162817381848195810E940B12809172
:102AD000DB0190E00196877099278093DB01D9CFC5
:102AE0000E94CF111092DC011092DB01EDE0F2E0C8
:102AF00086E0DF011D928A95E9F72C960FB6F894CF
:102B0000DEBF0FBECDBFDF91CF911F910895EF9231
:102B1000FF920F931F93CF93DF938C01892B09F4BE
:102B20006CC0F12CEE24E394E8012196F801849125
:102B3000843740F4843008F051C0813081F0823015
:102B400019F15BC0853709F444C0A8F19CE7980FE0
:102B5000903708F052C08F770E94720E41C00E5F0E
:102B60001F4FFE01849190E2980F983050F48770C7
:102B7000FE2D01C0FF0F8A95EAF78F2F0E94631880
:102B800014C00E94C80D2DC00E5F1F4FFE0184911E
:102B900090E2980F983060F48770FE2D01C0FF0F0F
:102BA0008A95EAF78F2F0E9469180E949D1819C014
:102BB0000E94720E16C00E5F1F4FFE01C491CC23FF
:102BC00081F08FE99FE00197F1F700C00000C1504C
:102BD000F6CF0E5F1F4FFE01F49003C00E94C80D98
:102BE0008E018F2D882309F49FCFEFE9FFE0319705
:102BF000F1F700C000008150F5CFDF91CF911F9118
:102C00000F91FF90EF900895089508950C94051684
:102C10000C9406160E9408166093300270933102DD
:102C200080933202909333020C94B5110C940A16DF
:102C30000F931F93009130021091310220913202C4
:102C400030913302602B712B822B932B1F910F91AC
:102C50000C940A160F931F930091300210913102C9
:102C60002091320230913302602371238223932317
:102C70001F910F910C940A160F931F93009130022D
:102C80001091310220913202309133026027712776
:102C9000822793271F910F910C940A160C94051606
:102CA0000E944E1660932C0270932D0280932E0288
:102CB00090932F020C94B51160E070E0CB010C945E
:102CC00050160F931F9341E050E060E070E08A01DE
:102CD0009B0104C0000F111F221F331F8A95D2F7DA
:102CE000C901B8011F910F910C9450160F931F93B7
:102CF00041E050E060E070E004C0440F551F661FE3
:102D0000771F8A95D2F780912C0290912D02A09185
:102D10002E02B0912F028A019B01082B192B2A2B1E
:102D20003B2BC901B8011F910F910C9450160F93C2
:102D30001F9341E050E060E070E004C0440F551F75
:102D4000661F771F8A95D2F74095509560957095CC
:102D500080912C0290912D02A0912E02B0912F0211
:102D60008A019B01082319232A233B23C901B801A7
:102D70001F910F910C9450160F931F9341E050E058
:102D800060E070E004C0440F551F661F771F8A95EE
:102D9000D2F780912C0290912D02A0912E02B09139
:102DA0002F028A019B01082719272A273B27C901DF
:102DB000B8011F910F910C9450160F931F9300911F
:102DC0002C0210912D0220912E0230912F02602BA7
:102DD000712B822B932B1F910F910C9450160F93F4
:102DE0001F9300912C0210912D0220912E02309100
:102DF0002F0260237123822393231F910F910C9440
:102E000050160F931F9300912C0210912D022091C8
:102E10002E0230912F0260277127822793271F915E
:102E20000F910C94501608952AE0929F800D112462
:102E3000E82FE695E695E695877051E001C0550FBD
:102E40008A95EAF785E0E89FF0011124ED5EFD4FD9
:102E500020E030E070E04081CB01022E02C0969568
:102E600087950A94E2F781708195842785238427CA
:102E700081932F5F3F4F2530310569F708952AE090
:102E8000929F800D1124682F669566956695982F00
:102E9000977085E0689FB001112440E050E080E029
:102EA000FB01E40FF51FED5EFD4F208130E0092EA0
:102EB00002C0369527950A94E2F721703327042E35
:102EC00001C0220F0A94EAF7822B4F5F5F4F453013
:102ED000510531F70895BF92CF92DF92EF92FF92A2
:102EE0000F931F93CF93DF938C01C0902C02D0904F
:102EF0002D02E0902E02F0902F02809130029091EE
:102F00003102A0913202B0913302C82AD92AEA2AAA
:102F1000FB2ACFE1D0E0D701C6010C2E04C0B69544
:102F2000A795979587950A94D2F780FD04C02197BD
:102F300090F7B12C07C0BC2EB8018C2F0E94CC0397
:102F40000197A9F38B2DDF91CF911F910F91FF90E6
:102F5000EF90DF90CF90BF900895CF93DF93EC0177
:102F60000E946B17BE010E94CC03DF91CF910895A0
:102F70001F93CF93DF93EB019091DA01992321F016
:102F8000CB010E94AD1713C0882349F0CB010E94EA
:102F90006B17182F682FCE010E94141704C0CB01A5
:102FA0000E943F17182FBE01812F0E94CC03DF9192
:102FB000CF911F9108958091390208950E941D1BA1
:102FC00020913702309138028217930750F00E9407
:102FD0001D1B2091370230913802821B930B9C01FC
:102FE0000AC00E941D1B20913702309138022095A3
:102FF0003095280F391F81E02838334108F480E0EC
:1030000008958091360285958595859508958091DE
:103010003602877008950E941D1B20913402309162
:10302000350282179307A8F00E941D1B20913402DD
:1030300030913502821B930B8838934110F480E065
:1030400013C08091360282FB882780F991E089279E
:103050000BC00E941D1B2091340230913502209537
:103060003095820F931FE8CF8170089590913602BA
:10307000977081E009F480E0089580915D020895E1
:1030800090915D02892B80935D02089580959091C7
:103090005D02892380935D02089510925D02089578
:1030A00080915C02089590915C02892B80935C0270
:1030B0000895809590915C02892380935C02089525
:1030C00010925C02089590915B02892B80935B02C1
:1030D0000895809590915B02892380935B02089507
:1030E00010925B02089580913A02089508950C941D
:1030F00076180C947718CF9390913A02981769F04C
:10310000C82F0E941D1B9093380280933702C093F2
:103110003A028C2FCF910C947918CF910895809119
:103120003A02882349F010923A0210923802109223
:10313000370280E00C9479180895E0912601F0910F
:10314000270180915D028083E0912601F0912701A3
:10315000908180915C02892B8083E0912601F0911F
:103160002701908180915B02892B808380913A02B4
:103170008823B9F00E94DE1781110E948F18E09118
:103180002601F0912701908180913A02892B80835A
:1031900080912601909127010E94D51981110E94EA
:1031A0008F1880912601909127010C94590C0C9452
:1031B00076180C94D71890913902981721F08093C3
:1031C00039020C94D918089580913902882329F086
:1031D0001092390280E00C94D91808950C94761856
:1031E00098E0899F90011124262B209336020E949B
:1031F00076160E941D1B90933502809334028091B5
:1032000036028595859585950C94EE1810923602B8
:10321000109235021092340280E00C94EE18209146
:1032200036028095822380933602982F977079F426
:1032300030E0482F082E000C550B2417350739F0C5
:103240008595859585950E9497160C940619089585
:103250006FEF7FEF80E090E00C94C72580E090E076
:103260000E94A32521E08C3E9E4F09F020E0822F92
:10327000089582E090E00C949B2583E090E00C940C
:103280009B25CF9384E090E00E949B25C82F81E28C
:1032900090E00E949B252C2F30E0A901582BCA01F9
:1032A000CF910895CF93C92F682F84E090E00E94BA
:1032B000A9256C2F81E290E0CF910C94A925AB0158
:1032C000BC018FE090E00C94BB25AB01BC0183E115
:1032D00090E00C94BB2560E070E0CB010C94651984
:1032E00060E070E0CB010E945F190C946B196CEEEA
:1032F0007EEF80E090E00E94C72560E082E090E0F1
:103300000E94A92560E083E090E00E94A925109228
:10331000300210923102109232021092330260E0B9
:1033200084E090E00E94A92560E081E290E00E94A4
:10333000A92560E085E090E00E94A92560E086E094
:1033400090E00E94A9256FEF87E090E00E94A925F8
:1033500040E050E0BA0188E090E00E94BB2560E0C8
:103360008DE090E00E94A92540E050E0BA0188E19C
:1033700090E00E94BB2560E087E190E00E94A925D3
:1033800040E050E0BA018CE190E00E94BB2560E093
:1033900080E290E00E94A9250C9470190C94771992
:1033A000682F8EE090E00C94A925FC013296809164
:1033B0003A01882331F08091A70287FF02C09EE185
:1033C00001C096E080E0915028F021912223D9F3AA
:1033D0008F5FF9CF0895662351F120913A0122239E
:1033E000E9F02091A70227FF19C0462F4695469580
:1033F00046954E31E0F4677021E030E002C0220FC4
:10340000331F6A95E2F7FC01E40FF11D828190E021
:103410002823392381E0232B69F409C0FC0132966B
:1034200008962191621729F0E817F907D1F780E093
:10343000089581E008959C01FC0132969FEF80E0A1
:103440004191461789F09F3F19F4411101C0982F0F
:103450008F5F8630A9F79F3F39F0F901E90FF11D21
:1034600097FDFA956283089508959C012A5F3F4F66
:10347000FC014281461301C0128201968217930714
:10348000B9F70895262F2695269526952E3168F4AE
:10349000FC01E20FF11D677021E030E001C0220F56
:1034A0006A95EAF78281282B22830895262F269594
:1034B000269526952E3170F4FC01E20FF11D677000
:1034C00021E030E001C0220F6A95EAF72095828161
:1034D00028232283089520913A01222329F0209164
:1034E000A70227FD0C94421A0C941B1A20913A0152
:1034F000222329F02091A70227FD0C94561A0C9440
:10350000351A20913A01FC013296222331F0809144
:10351000A70287FF02C08EE101C086E0DF011D9295
:103520008A95E9F7089508950C94931A0C94931AC8
:10353000CF930E94961A0E9436060E94941AC0E009
:103540008C2F0E94BB05892B29F4CF5FC430C1F7B3
:1035500080E001C081E0CF9108950C94931A0C94FF
:10356000AD1A0E94AF1A8091AD02843049F11092D9
:103570005F0220E488E190E00FB6F894A89580936C
:1035800060000FBE2093600080E00E9448030E940C
:10359000AF1A83B7817F846083BF83B7816083BFA5
:1035A0007894889583B78E7F83BF0FB6F894A895DB
:1035B00080916000886180936000109260000FBE6F
:1035C00008950C94931A0E94CF110E944D0C0E94F2
:1035D00048030C94E11A1F920F920FB60F92112418
:1035E0008F939F93AF93BF9380915F02811113C01C
:1035F0008091A3029091A402A091A502B091A6028D
:103600004196A11DB11D8093A3029093A402A093A3
:10361000A502B093A602BF91AF919F918F910F9099
:103620000FBE0F901F90189582E084BD93E095BD6A
:103630009AEF97BD80936E0008952FB7F89480910C
:10364000A3029091A402A091A502B091A6022FBF5F
:103650000895CF92DF92EF92FF920F931F932FB7AF
:10366000F8944091A3025091A4026091A502709138
:10367000A6022FBF6A017B01EE24FF248C0120E00B
:1036800030E0C016D106E206F30610F441505109AD
:103690009A01281B390BC9011F910F91FF90EF90E0
:1036A000DF90CF90089578941F920F920FB60F92EB
:1036B00011248F939F93AF93BF938091A302909116
:1036C000A402A091A502B091A6020196A11DB11D70
:1036D0008093A3029093A402A093A502B093A602A4
:1036E000BF91AF919F918F910F900FBE0F901F9040
:1036F000189581E08093E00080E28093D8001092DA
:10370000C9008FE19EE40197F1F700C0000087E057
:1037100090EBDC018093B6029093B702A093B802BD
:10372000B093B9029CE088E10FB6F894A895809315
:1037300060000FBE90936000FFCF0C9428190E9488
:1037400036068FE39CE90197F1F700C000000E9464
:10375000360680E00E94BB0580FF04C00E949D1BCE
:103760000C94791B08950E942E19811102C00E94A9
:10377000CE190E94391980935E020E9441199093DC
:10378000A8028093A7020E943D19682F70E080E094
:1037900090E00C9416168091670280FF0BC0609138
:1037A0002D0185E0689FB001112475956795759589
:1037B00067952BC081FF09C060912D0185E0689F4E
:1037C000B00111247595679520C082FF07C06091F4
:1037D0002D0185E0689FB001112417C09091660209
:1037E0009923D1F060912C01961788F720912D0133
:1037F00085E0289F90011124929FA001939F500D76
:10380000112470E0CA010E946D256038710540F4F2
:103810006115710519F406C065E070E0862F089502
:103820008FE7089581E008958091670280FF08C0C6
:103830006091290170E0759567957595679521C030
:1038400081FF06C06091290170E07595679519C0E8
:1038500082FF04C06091290170E010C0909166025F
:10386000992399F0609128019617A0F7809129017A
:10387000899FC001112470E00E946D256038710598
:1038800040F46115710519F406C061E070E0862FFF
:1038900008958FE7089581E00895803F21F40E9404
:1038A000CB1B819504C0813F29F40E94CB1B8093E0
:1038B0006B020895823F21F40E94CB1B819504C0C6
:1038C000833F29F40E94CB1B80936A020895893FAD
:1038D00019F40E94141C05C08A3F31F40E94141C84
:1038E000819580936C0208958B3F21F40E94141CF3
:1038F000819504C08C3F29F40E94141C80936D02B2
:103900000895843F21F480916902816017C0853F4A
:1039100021F480916902826011C0863F21F4809178
:10392000690284600BC0873F21F48091690288603E
:1039300005C0883F31F480916902806180936902FB
:1039400008958D3F21F48091670281600BC08E3F06
:1039500021F480916702826005C08F3F29F4809135
:1039600067028460809367020895803F39F48091F4
:103970006B0287FF6CC010926B0269C0813F29F413
:1039800080916B021816BCF362C090916A02823F6C
:1039900029F497FF5CC010926A0259C0833F19F462
:1039A0001916CCF354C0893F41F480916C0218166B
:1039B0000CF04DC010926C024AC08A3F29F48091ED
:1039C0006C0287FF44C0F6CF8B3F39F480916D02C3
:1039D00087FF3DC010926D023AC08C3F29F4809160
:1039E0006D021816BCF333C0843F21F48091690244
:1039F0008E7F17C0853F21F4809169028D7F11C0B1
:103A0000863F21F4809169028B7F0BC0873F21F4B0
:103A100080916902877F05C0883F31F480916902F7
:103A20008F7E8093690213C08D3F21F480916702DD
:103A30008E7F0BC08E3F21F4809167028D7F05C081
:103A40008F3F29F4809167028B7F8093670280917A
:103A50006A0281110EC080916B0281110AC08091AF
:103A60006C02811106C080916D02811102C010921A
:103A70006602089588E692E00E94730C0E941D1B66
:103A800090936502809364020895CF93DF9300D0F2
:103A900000D000D0CDB7DEB786E0E8E6F2E0DE0188
:103AA000119601900D928A95E1F780916A02811139
:103AB00005C080916B02882309F47AC0809162026C
:103AC000909163020E94291BAC0190916602992398
:103AD00039F020912E0130E02417350758F068C0E6
:103AE00020912F018AE0289F900111242417350787
:103AF00018F05EC09F3F19F09F5F9093660210928E
:103B00006C0210926D0280916A02181624F40E94D1
:103B1000CB1B80936A0280916A0287FF05C00E94D6
:103B2000CB1B819580936A0280916B02181624F456
:103B30000E94CB1B80936B0280916B0287FF05C0B4
:103B40000E94CB1B819580936B0230916A023323D4
:103B5000E1F020916B022223C1F045EB3403C00158
:103B60001124992319F090936A0203C081E0809395
:103B70006A0235EB2303C0011124992319F09093B5
:103B80006B0203C081E080936B020E943A1D80911A
:103B9000640290916502909363028093620286E0D2
:103BA000FE013196A8E6B2E001900D928A95E1F708
:103BB00080916C02811105C080916D02882309F407
:103BC0007AC080916002909161020E94291BAC0131
:103BD00090916602992339F020912A0130E0241750
:103BE000350758F068C020912B018AE0289F90018A
:103BF00011242417350718F05EC09F3F19F09F5F0E
:103C00009093660210926A0210926B0280916C028D
:103C1000181624F40E94141C80936C0280916C028C
:103C200087FF05C00E94141C819580936C028091CF
:103C30006D02181624F40E94141C80936D0280916A
:103C40006D0287FF05C00E94141C819580936D0250
:103C500030916C023323E1F020916D022223C1F0F8
:103C600045EB3403C0011124992319F090936C02A1
:103C700003C081E080936C0235EB2303C001112463
:103C8000992319F090936D0203C081E080936D0237
:103C90000E943A1D809164029091650290936102A6
:103CA0008093600286E0FE013196A8E6B2E00190C2
:103CB0000D928A95E1F726960FB6F894DEBF0FBEF7
:103CC000CDBFDF91CF910895E8E6F2E086E0DF0115
:103CD0001D928A95E9F71092660210926702089584
:103CE00080918E020895CF93DF9300D01F92CDB7BD
:103CF000DEB79091AD02943019F589837B836A8396
:103D000082E08093E9008FEF9091E800815095FD6B
:103D100006C095ED9A95F1F700008111F5CF8091DD
:103D2000E80085FF0DC040E050E063E070E0CE01A8
:103D300001960E94CF208091E8008E778093E80062
:103D40000F900F900F90DF91CF910895CF93DF9355
:103D5000EC010E94B220823011F0843031F4BE01B7
:103D600084E0DF91CF910C94731EDF91CF91089581
:103D7000BC0183E00C94731ECF93DF93EC010E948F
:103D8000B220823011F08430F9F482E08093E900AF
:103D90008FEF9091E800815095FD06C095ED9A95C2
:103DA000F1F700008111F5CF8091E80085FF0CC08C
:103DB00040E050E066E070E0CE010E94CF208091AC
:103DC000E8008E778093E800DF91CF910895CF933C
:103DD000DF93EC010E94B220823011F08430D9F5DB
:103DE00080913A01882339F08091A70287FF03C0B0
:103DF00060E282E002C068E081E08093E9008FEF3A
:103E00009091E800815095FD06C095ED9A95F1F7E7
:103E100000008111F5CF8091E80085FF1CC08091E2
:103E20003A01811105C040E050E068E070E003C055
:103E300070E040E050E0CE010E94CF208091E80089
:103E40008E778093E80080E2FE01AEE6B2E001905A
:103E50000D928A95E1F7DF91CF9108958091AC02A0
:103E6000811109C00E9460220E94BD228091E2005F
:103E700084608093E20008951092AC020895089542
:103E800008950C94E31A42E061EC81E00E94D9218C
:103E900042E261EC82E00C94D9218091AF02833040
:103EA00009F460C030F4813071F0823009F499C0B7
:103EB00008958A3009F485C08B3009F46BC08930CD
:103EC00009F0A7C020C08091AE02813A09F0A1C0DC
:103ED0008091E800877F8093E8008091B202909102
:103EE000B302892B21F460E28EE692E003C060E029
:103EF00080E090E070E00E941A218091E8008B77CA
:103F00008093E80008958091AE02813209F081C06B
:103F10008091B2029091B302029708F07AC080912A
:103F2000E800877F8093E8008091E80082FD05C06B
:103F30008091AD028111F8CF6CC02091F300809187
:103F4000F20090E0922B029729F48091F1008B7F90
:103F5000813021F48091F10080938E028091E800FD
:103F60008B7753C08091AE02813A09F052C08091A4
:103F7000B2029091B302892B09F04BC08091E80006
:103F8000877F8093E8008091E80080FFFCCF8091DC
:103F90003A0136C08091AE028132D9F58091B202E9
:103FA0009091B302892BA9F58091E800877F8093D7
:103FB000E8000E940E228091B00280933A010C9496
:103FC000CF118091AE02813221F58091E800877F88
:103FD0008093E8000E940E228091B10280938F02AC
:103FE00008958091AE02813AA1F48091E800877F24
:103FF0008093E8008091E80080FFFCCF80918F02E1
:104000008093F1008091E8008E778093E8000C9413
:104010000E22089584B7877F84BF0FB6F894A895C1
:1040200080916000886180936000109260000FBEF4
:1040300090E080E80FB6F89480936100909361005F
:104040000FBE0E94BD0C0E9460220E94BD22809182
:10405000E20084608093E20078940E9452250E94DE
:10406000C50C80E391E00E94480C8091AD02853040
:1040700069F40E94B11A8091AB028823B1F30E94C7
:10408000981A882391F30E94B920EFCF0E94D80C90
:10409000ECCF0C944B20292F332723303105C9F066
:1040A00060F42130310581F02230310509F04AC039
:1040B0008BE390E020E233E049C02132310511F179
:1040C0002232310579F13EC082E190E02BE533E008
:1040D0003DC099278130910561F040F08230910513
:1040E00059F0039779F5E8EEF2E008C0ECE1F3E06F
:1040F00005C0E4E0F3E002C0EEEEF2E0849190E06F
:104100009F0124C06115710541F061307105D1F442
:1041100089E090E02BE433E019C089E090E022E3ED
:1041200033E014C06115710541F06130710551F43F
:104130008CEB90E02DE633E009C080E490E029E2CA
:1041400034E004C080E090E020E030E0FA01318308
:10415000208308958091AD02843011F081E00895AC
:1041600082E0089580919002811102C00C94AA20EF
:10417000089580E189BD82E189BD09B400FEFDCFCB
:104180008091D8008F7D8093D8008091E00082607C
:104190008093E0008091E00081FDFCCF0895CF92F4
:1041A000DF92EF92FF920F931F93CF93DF93EC0177
:1041B0008B017A010E942D22811133C0E114F10498
:1041C00039F0F70180819181081B190BC80FD91FA5
:1041D000C12CD12C0115110519F18091E80085FD44
:1041E00016C08091E8008E778093E800E114F10416
:1041F00049F0F70180819181C80ED91ED182C08219
:1042000085E00FC00E942D22882321F30AC08991E6
:104210008093F10001501109FFEFCF1ADF0ADACFC6
:1042200080E0DF91CF911F910F91FF90EF90DF9091
:10423000CF9008952091B4023091B5022617370728
:1042400048F06115710539F42091E8002E7720932C
:10425000E80001C0B901FC0120E06115710579F1A8
:104260008091AD028823F1F18530F1F18091E80071
:1042700083FD3CC08091E80082FD2EC08091E80063
:1042800080FFEBCF2091F3008091F20090E0922B21
:104290006115710551F08830910538F42191209312
:1042A000F100615071090196F3CF21E0089709F000
:1042B00020E08091E8008E778093E800CECF211136
:1042C000CFCF0AC08091AD02882361F0853061F0C4
:1042D0008091E80083FD0AC08091E80082FFF2CF60
:1042E00080E0089582E0089583E0089581E00895D4
:1042F0002091B4023091B5022617370748F06115B6
:10430000710539F42091E8002E772093E80001C070
:10431000B901FC0120E06115710591F18091AD02B8
:10432000882309F440C0853009F43FC08091E8003B
:1043300083FD3DC08091E80082FD2FC08091E800A0
:1043400080FFE9CF2091F3008091F20090E0922B62
:104350006115710559F08830910540F4249120933E
:10436000F1003196615071090196F2CF21E0089772
:1043700009F020E08091E8008E778093E800CBCFB1
:104380002111CCCF0AC08091AD02882361F0853025
:1043900061F08091E80083FD0AC08091E80082FF0F
:1043A000F2CF80E0089582E0089583E0089581E0EF
:1043B0000895982F973068F59093E900981739F091
:1043C0007091EC002091ED005091F00003C0242F7B
:1043D000762F50E021FD02C09F5FECCF3091EB00C3
:1043E0003E7F3093EB003091ED003D7F3093ED0048
:1043F0003091EB0031603093EB007093EC00209330
:10440000ED005093F0002091EE0027FDE5CF80E015
:1044100008958F708093E90081E008958091AE0245
:1044200087FF11C08091E80082FD05C08091AD0238
:104430008111F8CF11C08091E8008B770BC080917B
:10444000AD02882349F08091E80080FFF8CF809189
:10445000E8008E778093E80008952091E400309181
:10446000E50095E64091EC00842F817040FF23C069
:104470008091E80080FD1DC08091AD02882399F0F5
:10448000853099F08091EB0085FD11C04091E400EA
:104490005091E5002417350729F3915011F09A0146
:1044A000E1CF84E0089582E0089583E0089581E0FB
:1044B000089580E008954091E80042FFDDCF08951F
:1044C0000E94CE220E94D622E0EEF0E08081816040
:1044D0008083E8EDF0E080818F77808319BCA7EDC1
:1044E000B0E08C918E7F8C9380818F7E8083109240
:1044F000AC0208950F931F93CF93DF930E94CE22B7
:104500000E94D622C8EDD0E088818F778883888189
:104510008068888388818F7D888319BC1092AD0262
:104520001092A9021092AB021092AA0200EE10E0C3
:10453000F80180818B7F808388818160888342E05D
:1045400060E080E00E94D921E1EEF0E080818E7F82
:104550008083E2EEF0E080818160808380818860EA
:104560008083F80180818E7F808388818061888349
:10457000DF91CF911F910F910895E8EDF0E08081D8
:104580008F7E8083E7EDF0E080818160808384E02E
:1045900082BF81E08093AC020C947A22E8EDF0E0D7
:1045A00080818E7F80831092E20008951092DA005D
:1045B0001092E10008951F920F920FB60F921124EE
:1045C0002F933F934F935F936F937F938F939F931B
:1045D000AF93BF93EF93FF938091E10082FF0BC0F5
:1045E0008091E20082FF07C08091E1008B7F809381
:1045F000E1000E9451258091DA0080FF1FC0809168
:10460000D80080FF1BC08091DA008E7F8093DA0093
:104610008091D90080FF0DC080E189BD82E189BD14
:1046200009B400FEFDCF81E08093AD020E942E1FF1
:1046300005C019BC1092AD020E943C1F8091E100A0
:1046400080FF19C08091E20080FF15C08091E200D8
:104650008E7F8093E2008091E20080618093E2008F
:104660008091D80080628093D80019BC85E0809347
:10467000AD020E94401F8091E10084FF30C0809114
:10468000E20084FF2CC080E189BD82E189BD09B4CC
:1046900000FEFDCF8091D8008F7D8093D80080915F
:1046A000E1008F7E8093E1008091E2008F7E809315
:1046B000E2008091E20081608093E2008091A90293
:1046C000882311F084E007C08091E30087FD02C0D9
:1046D00081E001C083E08093AD020E94411F809180
:1046E000E10083FF29C08091E20083FF25C0809113
:1046F000E100877F8093E10082E08093AD02109219
:10470000A9028091E1008E7F8093E1008091E20018
:104710008E7F8093E2008091E20080618093E200CE
:1047200042E060E080E00E94D9218091F000886042
:104730008093F0000E943F1FFF91EF91BF91AF91D6
:104740009F918F917F916F915F914F913F912F91A9
:104750000F900FBE0F901F9018951F920F920FB6DB
:104760000F9211242F933F934F935F936F937F93F7
:104770008F939F93AF93BF93CF93DF93EF93FF9369
:10478000C091E900CF708091EC00D82FD17080FDEE
:10479000D0E81092E9008091F000877F8093F000CC
:1047A00078940E94F1231092E9008091F0008860D3
:1047B0008093F000CD2BCF70C093E900FF91EF9173
:1047C000DF91CF91BF91AF919F918F917F916F9129
:1047D0005F914F913F912F910F900FBE0F901F90BF
:1047E00018951F93CF93DF93CDB7DEB7AA970FB677
:1047F000F894DEBF0FBECDBFEEEAF2E08091F1008B
:10480000819322E0E63BF207C9F70E944D1F809199
:10481000E80083FF2EC18091AE029091AF02492F34
:1048200050E04A30510508F024C1FA01EC58FF4F1E
:104830000C948125803821F0823809F01AC108C013
:104840008091AA029091AB02992389F082600FC0F7
:104850008091B2028F70873008F00BC18093E9001D
:104860008091EB0085FB882780F91092E9009091F8
:10487000E800977F9093E8008093F1001092F10098
:10488000D1C0282F2D7F09F0F4C0882319F0823081
:1048900061F0EFC08091B002813009F0EAC093303E
:1048A00009F080E08093AB022EC08091B0028111AC
:1048B0002AC08091B2028F702FEF280F263008F0A7
:1048C000D8C08093E9002091EB0020FF1CC09330FA
:1048D00021F48091EB00806214C09091EB00906114
:1048E0009093EB0021E030E0A90102C0440F551F76
:1048F0008A95E2F74093EA001092EA008091EB007B
:1049000088608093EB001092E9008091E800877F37
:104910008093E8000E940E22ACC08111AAC01091C1
:10492000B0021F778091E3008078812B8093E300B1
:104930008091E800877F8093E8000E940E2280919A
:10494000E80080FFFCCF8091E30080688093E30063
:10495000111102C082E001C083E08093AD0289C0E2
:104960008058823008F085C08091B0029091B102E9
:104970008C3D53E0950779F583E08A838AE2898349
:104980004FB7F894DE01139620E03EE051E2E32FAA
:10499000F0E050935700E49120FF03C0E295EF70E0
:1049A0003F5FEF708E2F90E0EA3010F0C79601C0A5
:1049B000C0968D939D932F5F243149F74FBF80910F
:1049C000E800877F8093E8006AE270E0CE010196FC
:1049D0000E941A2116C06091B2027091B302AE011A
:1049E0004F5F5F4F0E944920BC01892B09F441C0F1
:1049F0009091E800977F9093E80089819A810E94C6
:104A000078218091E8008B778093E80032C080386D
:104A100081F58091E800877F8093E8008091A9026A
:104A20008093F1008091E8008E7772CF811121C0D0
:104A30008091B0029091B10299270297D4F48091AD
:104A4000E800877F8093E8008091B0028093A902FC
:104A50000E940E228091A902811106C08091E3007C
:104A600087FD02C081E001C084E08093AD020E9416
:104A7000431F8091E80083FF0AC08091E800877F90
:104A80008093E8008091EB0080628093EB00AA960F
:104A90000FB6F894DEBF0FBECDBFDF91CF911F914F
:104AA00008950895CF938091AD028823A1F0C0911D
:104AB000E900CF709091EC00892F817090FD80E823
:104AC000C82B1092E9008091E80083FD0E94F12339
:104AD000CF70C093E900CF91089597FB072E16F48D
:104AE000009407D077FD09D00E94872507FC05D0E8
:104AF0003EF4909581959F4F0895709561957F4FF5
:104B00000895EE0FFF1F0590F491E02D0994AA1B64
:104B1000BB1B51E107C0AA1FBB1FA617B70710F0A8
:104B2000A61BB70B881F991F5A95A9F780959095DA
:104B3000BC01CD010895F999FECF92BD81BDF89ACF
:104B4000992780B50895A8E1B0E042E050E00C94C8
:104B5000CF25262FF999FECF92BD81BDF89A0197F6
:104B600000B4021639F01FBA20BD0FB6F894FA9AB5
:104B7000F99A0FBE08950396272F0E94AA250E9436
:104B8000A925252F0E94AA25242F0C94AA25019639
:104B9000272F0E94AA250C94A925DC01CB01FC013A
:104BA000F999FECF06C0F2BDE1BDF89A319600B486
:0E4BB0000D9241505040B8F70895F894FFCF91
:104BBE00C308D408E4080000000000000000000054
:104BCE0000000000160133003400E202000000DC99
:104BDE000200000001FF3B022808641E140A321E68
:104BEE00701EE71EBC1EB81EA61E01E200E900EAFA
:104BFE0000B500B600B700CD008301CC008A01924B
:104C0E000194012102230224022502260227022AF0
:104C1E0002B300B4006F007000818283343595F7C3
:104C2E0031F433973032F5F66690E200E900EA008F
:104C3E00B500B600B700CD008301CC008A01920109
:104C4E0094012102230224022502260227022A02AF
:0C4C5E00B300B4006F007000818283007E
:00000001FF
