:100000000C9445030C948C030C948C030C948C037B
:100010000C948C030C948C030C948C030C948C0324
:100020000C948C030C948C030C948C030C94182863
:100030000C94C7280C945D200C948C030C948C03B6
:100040000C948C030C948C030C948C030C94C5209E
:100050000C948C030C948C030C948C030C948C03E4
:100060000C948C030C948C030C948C030C948C03D4
:100070000C948C03000E030E080E0D0E120E170EBC
:100080001C0E210E260E2B0E300E370E3B0E3E0E92
:10009000480E480E480E480E410E480EF014F0145B
:1000A000221522157B1599150E170E17DB157016E4
:1000B00081168116FE160E170E170717A417A41720
:1000C000B617B617AD17B617B617B617A417A417F5
:1000D000B217B617B617B21734295B29532A5B2912
:1000E000532AA729CA29532A212A302A1A0009008B
:1000F000000014001A0000002B6414001A0009000C
:1001000013000A000D000F0018001C0000572A0001
:10011000E000046115001600170007000B00110035
:1001200008000C001200340002551D001B000600E0
:10013000190005000E001000360037003800045783
:10014000165CE300656428452A432C002C002844F3
:100150005000510052004F002B6414001A00080098
:10016000150017001C0018000C00120013002A00D4
:10017000E00004611600070009000A000B000D00F2
:100180000E000F000057340002551D001B00060032
:10019000190005001100100036003700380031004A
:1001A000165CE300656428452A432C002C00284493
:1001B0005000510052004F000000000000000000FD
:1001C000000000000000000000000000000000002F
:1001D000000000000000000000000000000000001F
:1001E000000000000000000000000000000000000F
:1001F00000000000000000000000000000000000FF
:1002000000000000000000000000000000000000EE
:100210000000000000000000065709574A00520085
:100220004D004900230224022502015727024C00F9
:100230002A000857500051004F0028001E021F02DC
:100240002002210222020457A80001000A57AC0034
:10025000AB00075705570257300003573002010023
:10026000390001000100010001000B570B5701008C
:100270000100010001000100C25C1E001F002000FF
:10028000210022000100420043004400450001001B
:10029000C35C2300240025002600270001003E0047
:1002A0003F00400041000100C55CC75C0100010047
:1002B0000100010046003A003B003C003D00010007
:1002C00001000100C95CCA5C010046004600010053
:1002D0000100010001000100005C0100F700FB00CB
:1002E000FC00F90001000100F00001000100010024
:1002F000095D0100F600F500F400FA000100F200CB
:10030000F100F30001000100085D0100F80046045F
:10031000160A460C01000100010001000100010065
:1003200001000100010001000100460C460C010023
:100330000100010001000100783C1E1E140A052284
:1003400023252628292A2C2D2F3032333536383ACA
:100350003B3D3E4042434547494A4C4E5051535520
:1003600057595A5C5E6062646668696B6D6F717341
:100370007577797B7D7F81838587898A8C8E909242
:100380009496989A9C9E9FA1A3A5A7A8AAACAEAF4D
:10039000B1B3B4B6B8B9BBBCBEBFC1C2C3C5C6C792
:1003A000C9CACBCCCDCED0D1D2D2D3D4D5D6D7D743
:1003B000D8D9D9DADADBDBDBDCDCDCDCDCDDDDDD8B
:1003C000DDDCDCDCDCDCDBDBDBDADAD9D9D8D7D787
:1003D000D6D5D4D3D2D2D1D0CECDCCCBCAC9C7C634
:1003E000C5C3C2C1BFBEBCBBB9B8B6B4B3B1AFAE72
:1003F000ACAAA8A7A5A3A19F9E9C9A989694929018
:100400008E8C8A89878583817F7D7B7977757371EF
:100410006F6D6B6968666462605E5C5A59575553CC
:1004200051504E4C4A4947454342403E3D3B3A3885
:1004300036353332302F2D2C2A292826252322FF2A
:10044000AA7F5540000101010101010101010202E1
:100450000202020202020203030303030303030472
:10046000040404040404050505050506060606063D
:10047000070707070708080808090909090A0A0AF7
:100480000B0B0B0C0C0C0D0D0D0E0E0E0F0F0F1099
:100490001011111112121313141415151616171723
:1004A000181819191A1A1B1B1C1D1D1E1E1F20208F
:1004B000212222232424252626272829292A2B2CD9
:1004C0002D2D2E2F30313232333435363738393AFC
:1004D0003B3C3D3E3F404142434445464748494AF4
:1004E0004C4D4E4F50515354555658595A5B5D5EC2
:1004F0005F616264656668696B6C6D6F707273755D
:1005000077787A7B7D7E8082838587888A8C8E8FC0
:1005100091939596989A9C9EA0A2A3A5A7A9ABADEE
:10052000AFB1B3B5B7BABCBEC0C2C4C6C9CBCDCFDC
:10053000D1D4D6D8DBDDDFE2E4E7E9EBEEF0F3F58A
:10054000F8FAFDFF0403300000001A0355005400C0
:10055000340037002E0032002000620079002000B5
:100560004E005200000010034B0065007900680047
:1005700069007600650000000403090409023B00DD
:10058000020100A0FA090400000103010100092191
:10059000110100012240000705810308000A090437
:1005A0000100010300000009211101000122810066
:1005B0000705820320000A1201100100000008ED67
:1005C000FE000001000102030105010902A10185ED
:1005D000020901A100050919012905150025019548
:1005E0000575018102950175038101050109300935
:1005F000311581257F9502750881060938158125F9
:100600007F950175088106050C0A38021581257F42
:10061000950175088106C0C005010980A101850307
:1006200019012AB700150126B70095017510810040
:10063000C0050C0901A101850419012AA0021501B8
:1006400026A002950175108100C005010906A101CF
:10065000050719E029E715002501950875018102B4
:100660009501750881010507190029FF150026FF6E
:10067000009506750881000508190129059505757D
:10068000019102950175039101C011241FBECFEFA6
:10069000D4E0DEBFCDBF04B603FE27C080912504A1
:1006A00090912604A0912704B09128048730904BA4
:1006B000A740B04BD1F4109225041092260410925A
:1006C00027041092280414BE84B7877F84BF0FB616
:1006D000F894A895809160008861809360001092E2
:1006E00060000FBEE0E0F8E3099512E0A0E0B1E0A1
:1006F000ECE4F6E502C005900D92AC3DB107D9F7E8
:1007000024E0ACEDB2E001C01D92A532B207E1F7E2
:100710000E9465250C94242B0C940000CF93DF934A
:10072000EC018881823039F0833041F0813051F41E
:100730008EE490E005C08DE490E002C08DE491E08D
:100740000E948C04CE01DF91CF910C949A0ECF932E
:10075000DF93EC018881823039F0833041F08130C1
:1007600051F48BE490E005C08AE490E002C08AE492
:1007700091E00E948C04CE01DF91CF910C949A0EEF
:10078000CF93DF93EC018881823039F0833041F0E0
:10079000813051F48AEA90E005C089EA90E002C015
:1007A00088EA90E00E948C04CE01DF91CF910C94F6
:1007B0009A0ECF93DF93EC018881823069F028F4A0
:1007C000813089F48EEA90E00CC0833041F08430AF
:1007D00051F48FEA90E005C08BEA90E002C08CEA09
:1007E00090E00E948C04CE01DF91CF910C949A0E80
:1007F000882319F0813031F00895662349F089E2A9
:1008000090E004C0662321F08BE290E00C948C040D
:100810000895CF93DF93EC010E941F1FBE0180E07B
:1008200090E0DF91CF910C94EB1B88302DE592077F
:1008300051F089309D4589F4FB018281882371F054
:1008400082E090E006C0FB018281882339F081E0DC
:1008500090E00E94090480E0089581E008950C94DE
:1008600083070C9481079C013A9521153F4138F587
:10087000DC01AA27B270AC01442754709C012227E6
:10088000387094FF0FC090FF02C080E101C080E08B
:10089000AB2B09F08062452B09F08064232B69F0B3
:1008A00080680BC0892F8170AB2B09F08260452BCB
:1008B00009F08460232B09F08860FB0109940895F6
:1008C000CF93DF93EC01805E9109089710F0209799
:1008D00019F460EB74E102C06AE677E1CE010E9490
:1008E00033048C2FDF91CF910C948B13CF93DF9334
:1008F000EC010E943514CE01805E9109089710F03A
:10090000209719F467EB74E102C061E777E1CE014B
:10091000DF91CF910C943304CF93DF93EC010E94CD
:100920006004CE01DF91CF910C94760481E00895AC
:100930000C9415041F93CF93DF9300D000D01F9227
:10094000CDB7DEB749835A836B8320911503898124
:100950009A81211112C0662349F00E94491D182F67
:10096000682F89819A810E94E91C03C00E941A1D88
:10097000182F69817A81812F04C00E94491D6981E5
:100980007A810F900F900F900F900F90DF91CF9181
:100990001F910C945905FC01408151816281738142
:1009A00084810C949A040E9411210E940C1F8111D1
:1009B00002C00E94B11F0C942F040E94870F0E9456
:1009C000E1080C94310408950C94E30481E0089547
:1009D0000C94E604CF93C82F0E94E4048C2F0E944D
:1009E000E804CF91089508950E9492170E94F3049D
:1009F0002FEF84E39CE0215080409040E1F700C05D
:100A000000000C94EB200F931F93CF93DF93EC0126
:100A10000E94CB048C01BE010E94DB0EBE01C80106
:100A20000E9498048823D9F1BE01C8010E94220FB8
:100A30008823A9F1BE01C8010E940D09882379F11C
:100A4000BE01C8010E948710882349F1BE01C80178
:100A50000E94C810882319F1BE01C8010E94F31139
:100A60008823E9F0BE01C8010E94E90D8823B9F08E
:100A70008A81882369F001158CE5180731F00E3D55
:100A80001C4531F40E94B11F0AC00E94F40407C043
:100A9000CE01DF91CF911F910F910C94960480E0CD
:100AA000DF91CF911F910F91089580E090E008951C
:100AB0000895382F262F872F90E06CE070E00E9479
:100AC000902AFC01832F90E060E370E00E94902A5E
:100AD0008E0F9F1FFC01E20FF11DEE0FFF1FE8506C
:100AE000FF4F859194910895880F991FFC01E85C50
:100AF000FC4F859194910895CF93DF930E945905FF
:100B00000E949B06EC018115904508F041C0C1157B
:100B100080E4D80708F0D6C0C83ED10510F5C03E25
:100B2000D10508F004C1C83AD10578F4C53AD10519
:100B300008F0A7C0C130D10509F4F9C008F4F5C028
:100B4000C430D10508F0F3C0F0C0CF3BD10508F4A4
:100B5000A0C0C03CD10508F4E8C0CE01805C91097A
:100B6000A3C0C11590E2D90758F4C11521E0D207FE
:100B700008F0DDC0C03FD10508F4D7C0D065D7C0AC
:100B8000C11580E3D80708F093C0CE019F708CC0D8
:100B9000C11595E5D90708F048C0C11524E5D2076D
:100BA00008F0A9C0C11582E5D80720F5C11591E567
:100BB000D90708F08AC0CE01F4E096958795FA959A
:100BC000E1F7282F23703C2F337081E090E002C0C2
:100BD000880F991F3A95E2F79C68922BCF70C695C3
:100BE000C695D0E0A5E0CC0FDD1FAA95E1F7C82B94
:100BF000D92B9DC09E01237033278C2F8695869517
:100C0000C115D34508F066C0C1E0D0E002C0CC0FEA
:100C1000DD1F2A95E2F790E075E0880F991F7A951D
:100C2000E1F7C82BD92BDC6882C0C11529E5D207B2
:100C3000A0F4C11588E5D80708F062C0C11596E593
:100C4000D90708F072C08C2F0E942F078F71C82F10
:100C5000D0E0DC2FCC27D0626AC0C1152AE5D207CC
:100C600008F453C0CE0190568115904208F05DC043
:100C70008D2F8F710E942F07DD27D0628F71D82BA7
:100C800056C0C55AD0E0CB57DD4FC881D0E0D06404
:100C90004EC0C85AD0E0CC0FDD1FC95ADD4F0990B5
:100CA000D881C02DD46443C00E947405EC013FC0BC
:100CB000CE019927D3FF03C0EC01D86C38C0EC01FA
:100CC000D06C35C0DF70D06A32C0DC2FCC27C16F4A
:100CD000D06A2DC0C1E0D0E002C0CC0FDD1F2A9544
:100CE000E2F790E065E0880F991F6A95E1F7C82B5D
:100CF000D92BDA681CC0DC2FCC27C46FD06A17C090
:100D0000DC2FCC27C06FD06A12C08C2F8F700E944E
:100D10002F0794E0D695C7959A95E1F7CF70D0E06C
:100D2000DC2FCC27D069C82B02C0C0E0D0E0CE01B8
:100D3000DF91CF9108958238910569F1B0F4813344
:100D4000910509F46DC048F48932910509F463C036
:100D50008A32910509F469C008958533910509F433
:100D600055C089339105B9F00895833E910569F125
:100D700038F4803E9105B1F0823E910509F1089565
:100D8000863E9105A9F1873E9105B9F1843E910512
:100D900009F064C023C02091160420FD4FC021FD3E
:100DA0004DC008958091160480FD44C080911704C1
:100DB00080FF44C08091160484FD42C083EE4DC084
:100DC0008091160482FF38C0F5CF8091160482FD11
:100DD00033C08091170480FD31C0ECCF809117049F
:100DE00081FF32C08091160484FD2AC087EE35C091
:100DF0008091160483FF26C0F5CF8091160483FDF1
:100E000021C08091170481FD1FC0ECCF8091160492
:100E100085FD1CC01DC08091160485FD19C016C03B
:100E20008091160486FD16C017C08091160486FDB9
:100E300013C010C089E311C082EE0FC080EE0DC058
:100E400080E00BC086EE09C084EE07C089E205C0D1
:100E500085E303C08AE201C081E390E008959091A8
:100E6000160492FF0DC0282F2871283019F4877FAF
:100E7000846006C0282F2471243011F48B7F886091
:100E800093FF0DC0282F2871283119F4877E8461C3
:100E900006C0282F2471243111F48B7E88612091A3
:100EA000170420FF0DC0382F3871383019F4877FB0
:100EB000816006C0382F3171313011F48E7F886027
:100EC00021FF0DC0282F2871283119F4877E8161F8
:100ED00006C0282F2171213111F48E7E886194FD86
:100EE000877E0895E82FF0E0EE0FFF1FE755FC4FD7
:100EF000808191810895089580EA8A95F1F7089597
:100F000008950C9480070C948007CF93DF93A4E995
:100F1000B2E048E952E061E070E08D91E82FE2959F
:100F2000EF70F0E021A18F70EB0102C0CC0FDD1F4C
:100F30008A95E2F7CE019C2F9095922391A392A1DE
:100F4000892B82A34A175B0741F7A8E8B2E041E08A
:100F500050E08D91E82FE295EF70F0E021A18F70C5
:100F6000BA0102C0660F771F8A95E2F7CB01962F70
:100F70009095922391A392A1892B82A372E0A43928
:100F8000B70739F71092A2031092A1031092AA0397
:100F90001092A9031092A4031092A3031092AC0321
:100FA0001092AB031092A6031092A5031092AE0309
:100FB0001092AD031092A8031092A7031092B003F1
:100FC0001092AF0384E00E948608DF91CF910C94C9
:100FD000D3042F923F924F925F926F927F928F92A3
:100FE0009F92AF92BF92CF92DF92EF92FF920F93B8
:100FF0001F93CF93DF9384E9C82E82E0D82E01EAB5
:1010000013E099EA492E93E0592E312C88248394D9
:10101000912C5801D8016D907C9011971D921C92D3
:10102000F60181916F01C82FC295CF70D0E099A1D0
:101030008F70740101C0EE0C8A95EAF7892F8E2912
:1010400089A38AA12E2C209482218AA30E947C0746
:10105000E8E8F2E020E030E06191A62FA295AF70C1
:10106000B0E090968C91D8014D915C9190E06F70BA
:1010700002C0959587956A95E2F780FD08C0C40186
:10108000022E02C0880F991F0A94E2F702C080E086
:1010900090E0482B592BD8014D935C932F5F3F4F25
:1010A0002C303105C9F689A1282229A28AA1E82A73
:1010B000EAA20E5F1F4F81E0F501208131812615E4
:1010C000370509F480E0382A4016510609F0A1CF0F
:1010D000232D44E069EA73E081EA93E00E948708E7
:1010E0000E94DD04832DDF91CF911F910F91FF901E
:1010F000EF90DF90CF90BF90AF909F908F907F90B8
:101100006F905F904F903F902F9008950895FF92B9
:101110000F931F93CF93DF93F82E092F162FD72FFE
:10112000C42F222349F081E08093DE020E948F20A9
:101130009093DD028093DC028091DE028823D9F057
:101140008091DC029091DD020E949B20069798F02E
:10115000EF2DF02FA12FBD2F80E090E04C2F50E01D
:101160008417950734F4219131912D933D93019685
:10117000F7CF1092DE02DF91CF911F910F91FF9078
:101180000895CF939091EF029923C9F0882311F02D
:10119000C0E003C01092EF0212C08091EF02C817A6
:1011A000C8F7EC2FF0E0EE0FFF1FE152FD4F8081FA
:1011B00091810E9460040E947B1ECF5FEECFCF9191
:1011C000089580913202882399F08091F00288235B
:1011D00079F08091F3029091F402009749F00E9417
:1011E0009B204A9728F01092F00281E00C94C108ED
:1011F00008951092F002109232021092F4021092AE
:10120000F30281E00C94C1088091320281110C94A8
:10121000F90881E08093320208956F927F928F9255
:101220009F92AF92BF92CF92DF92EF92FF920F9375
:101230001F93CF93DF938C017B011092F102073F44
:101240008CE5180741F4FB01C281CC23D1F081E089
:10125000809332020BC1083FFCE51F0739F4FB0104
:10126000C281CC2371F00E94F90800C1093FFCE55E
:101270001F0739F4FB01C281CC2319F00E94040935
:10128000F5C080913202882309F4EFC01092F20277
:10129000D1E0C0E0AA24A394B12C88248394309197
:1012A000F202323008F0A4C0C32ED12CC60165E092
:1012B00070E00E94902A885D9D4FFC0180819181A1
:1012C00099249A9420E0E22FF0E0EE0FFF1FE80F40
:1012D000F91F459154910417150709F4922E452BD7
:1012E00011F02F5FF0CFFFEF9F1202C0712C6AC088
:1012F0006090F002F7017280772061F1C60165E02D
:1013000070E00E94902AFC01E85DFD4FA50101C03C
:10131000440F9A94EAF78481482B4483662031F382
:10132000C50102C0880F991F2A95E2F7019750E086
:101330008417950709F046C082819381009719F0C0
:101340000E94600404C061E0832F0E94F803809231
:10135000F10238C0F50102C0EE0FFF1F2A95E2F737
:101360003197C60165E070E00E94902ADC01A85D1B
:10137000BD4F14964C91149750E0E417F50771F4A3
:1013800012968D919C911397009719F00E94760404
:1013900006C060E0832F0E94F80301C0612CC601E3
:1013A00065E070E00E94902AFC01E85DFD4F950128
:1013B00001C0220F9A94EAF7922F909524819223EC
:1013C0009483762CC729DD2359F0C60165E070E0CF
:1013D0000E94902A885D9D4FD1E0FC01848181119B
:1013E000D0E0D1708091F2028F5F8093F20257CFEC
:1013F0008091F102882351F00E948F209093F40293
:101400008093F30280E00E94C1082CC0C1110DC07E
:1014100081E00E94C108DD2329F11092F4021092AC
:10142000F30281E08093F0021DC0F70182818823DE
:10143000C9F08091F0028823A9F00E948F20909338
:10144000F4028093F302E091EF02E83058F481E077
:101450008E0F8093EF02F0E0EE0FFF1FE152FD4F81
:101460001183008381E0C82701C0C1E08C2FDF9188
:10147000CF911F910F91FF90EF90DF90CF90BF9091
:10148000AF909F908F907F906F900895EF92FF9212
:101490000F931F93CF93DF93E82FF0E0711106C0F5
:1014A000EC5BFB4F6491762F862F67C0262F30E0D0
:1014B000C72FD0E0EC5BFB4FE491EE2EF12CC9017D
:1014C00066E070E00E94902A0FEF10E0B8010E94E1
:1014D000A12ADB01220F331FCB016BEA7FEF0E94B1
:1014E000902A820F931F282F220F280FC8018C1BD0
:1014F0009D0BB7010E94902A492F30E0C901BE011F
:101500000E94902A692F70E0C801861B970BB701D3
:101510000E94902AF92FC801821B930BBE010E94E2
:10152000902A292F30E0C801821B930BB7010E943B
:10153000902AA230B10579F038F41097D1F01197C4
:10154000A1F4842F7F2F18C0A430B10559F030F0DA
:10155000169779F00AC0892F742F0EC08E2F742F22
:10156000EF2F0AC08E2F792F02C08F2F7E2FE42FEE
:1015700003C0842F7E2FE92F6E2FDF91CF911F9113
:101580000F91FF90EF9008950895CF93DF93762FFA
:10159000E901682F842F0E94460A798368838A8331
:1015A000DF91CF9108958091B103282F269530E0E7
:1015B0002115310519F48170826005C02331310590
:1015C00024F0817084628093B103089588E090E0F4
:1015D0000C94E42ACF92DF92EF92FF926B017C0190
:1015E0000E94D30AB701A60188E090E0FF90EF9037
:1015F000DF90CF900C94022BE1EBF3E083E080834B
:1016000011828FEF82838383148260817181828152
:1016100093810C94EA0A8091B10380FF02C0869501
:10162000089580E008958091B503833018F48F5FAA
:101630008093B5036091B1037091B2038091B303BD
:101640009091B4030C94EA0A8091B503882319F0B1
:1016500081508093B5036091B1037091B203809182
:10166000B3039091B4030C94EA0AE0913502F0E0E0
:101670008091B10380FF0CC08091F60290E063E09E
:1016800070E00E94902ABF018A549C4F0C94101065
:101690002091F50230913402231770F7822F90E0E9
:1016A00063E070E00E94902ADC01AA54BC4F1196BE
:1016B0001C9211971C9212961C922F5FEDCFA82FAF
:1016C000B62F8091B10380FF16C02091F5023091B2
:1016D0003402231770F4822F90E063E070E00E94E0
:1016E000902AFC01EA54FC4FA183B08342832F5F10
:1016F000F0CF0C94350B0895CF93DF9300D01F9259
:10170000CDB7DEB79091B10390FF0AC09E012F5F65
:101710003F4F0E94C50A4B8169818A810E945F0BFD
:101720000F900F900F90DF91CF910895CF93DF939B
:10173000EC01EC81F0E0E15CFC4F4491E1EBF3E083
:10174000628181810E947C0B8C818F5F8C83DF9111
:10175000CF910895CF93DF93EC01E1EBF3E0438168
:1017600062818C810E947C0B8C818F5F8C83DF91E6
:10177000CF910895AF92BF92CF92DF92EF92FF92F6
:101780000F931F93CF93DF9300D01F92CDB7DEB797
:10179000182FF62E042FE22E8091B10380FF6CC02B
:1017A000E82FE695AE2FB0E0A856BD4F9C919093E0
:1017B000FE028E7F823061F49E012F5F3F4F812FAA
:1017C0000E94C50A4B8169818A810E945F0B42C0D9
:1017D000923019F40091B4033DC0963019F4109181
:1017E000B20338C09930B1F5E9504E2F4170D42E74
:1017F000E695F0E0E15CFB4FA590B490C12CBB24D2
:1018000040913302C41620F52C2D30E0C501B901FA
:101810000E94902A642F70E00E94A12AE12FD1102B
:1018200002C0E60F01C0E61B8091F502A901480F36
:10183000511DCA0163E070E00E94902A9C012A5465
:101840003C4F402F6F2D8E2F0E94C50AC394D8CFD6
:101850000E94350B1093B203F092B3030093B403CC
:10186000EE2051F06091B1037091B2038091B30307
:101870009091B4030E94EA0A0F900F900F90DF91AD
:10188000CF911F910F91FF90EF90DF90CF90BF907D
:10189000AF900895E1EBF3E09181282F43816281BD
:1018A0008FE0890F0C94BA0B81E00C944A0CE1EBA9
:1018B000F3E09181282F4381628181EF890F0C949D
:1018C000BA0B81E00C94570CE1EBF3E0628121E16B
:1018D000620F08F46FEF282F438181810C94BA0BBB
:1018E00081E00C94640CE1EBF3E0628121E1621B86
:1018F00008F460E0282F438181810C94BA0B81E0C9
:101900000C94730CE1EBF3E0438121E1420F08F406
:101910004FEF282F628181810C94BA0B81E00C94E7
:10192000820CE1EBF3E0438121E1421B08F440E04B
:10193000282F628181810C94BA0B81E00C94910C68
:1019400020E00C94BA0BE1EBF3E080818E7F808382
:1019500060817181828193810E94EA0A1092FF0264
:101960002FEF80E792E0215080409040E1F700C0E7
:1019700000000C94350B6091B103669570E04BE06C
:1019800050E086E392E00E94CF2A892B19F481E08F
:101990008093FF020E948F209093F8028093F702B9
:1019A00008959091B10390FF35C09170811102C0EC
:1019B000926006C0833110F0946202C0880F982BA9
:1019C0009093B103662351F06091B1037091B2031B
:1019D0008091B3039091B4030E94EA0A6091B1032D
:1019E000669570E04BE050E086E392E00E94CF2ADB
:1019F000892B19F01092FF0202C00E94BB0C81E0FB
:101A00008093FA024091B4036091B3038091B203D2
:101A10000C94A00C0895682F9091B103969581E0E5
:101A2000890F833108F081E00C94D10C81E00C9493
:101A30000B0D682F9091B10396958FEF890F09F4E4
:101A400082E10C94D10C81E00C94190D61E00C94AE
:101A5000D10CE1EBF3E080818160808386950C946A
:101A6000260D8091B10380FD0C94A30C0C94290DDC
:101A700060E00C94D10C8091FD0281112EC00E9477
:101A80000C1F811104C00E94B11F0E94FC0A0E9419
:101A9000E60A6093B1037093B2038093B30390930B
:101AA000B4036E7F61F40E94FC0A0E94E60A609310
:101AB000B1037093B2038093B3039093B4030E9475
:101AC000D30A1092FF028091B10380FF03C0869574
:101AD0000E94380D81E08093FD0208950F931F93BB
:101AE000CF93DF938091FF02882309F452C0809145
:101AF000FE02E091B103E695E81BE093F902823023
:101B000049F4F0E0E55CFC4FE491CE2FD0E006E92B
:101B10001BE00FC0863049F4F0E0E85CFC4FE49134
:101B2000CE2FD0E00AEA1BE004C0C0EDD7E004EC01
:101B30001AE08091FA02882389F01092FA020E943A
:101B40008F209E0120953095820F931F9093F8026D
:101B50008093F7021092FC021092FB028091F70230
:101B60009091F8020E949B208C179D0790F0E091C5
:101B7000F702F091F802CE0FDF1FD093F802C09366
:101B8000F70287EF92E0F801DF91CF911F910F915B
:101B90000994DF91CF911F910F910895882311F03F
:101BA000FA0101C0FB010994CF93DF93C82FD62F10
:101BB0000E940B0B8C1740F00E940B0B8D1720F42A
:101BC000DF91CF910C94160D8C2FDF91CF910C9457
:101BD000260D0F931F93CF93FB01C281CC2309F4F1
:101BE00055C08C010E941B1E8272F801E25CFC450C
:101BF000E431F10508F04DC0E65CFF4F0C94C92AB2
:101C00000E94310D45C043E25DE066E17DE02CC0FD
:101C100046E15DE063E27DE027C041E65CE064E52B
:101C20007CE022C044E55CE061E67CE01DC04FE75B
:101C30005CE060E77CE018C040E75CE06FE77CE0D8
:101C400013C04DE95CE06EE87CE00EC04EE85CE05D
:101C50006DE97CE009C044E25BE063E17BE004C045
:101C600043E15BE064E27BE00E94CE0D11C081E0C5
:101C70000E94260D0DC065E082E005C068E086E0A8
:101C800002C062E189E00E94D40D02C0C1E001C03F
:101C9000C0E08C2FCF911F910F910895CF93DF93C8
:101CA000EC0181E0898B8F810E941E1E88850E9435
:101CB000311E0E947B1EEA81FB81CE010696309781
:101CC00029F06C897D89DF91CF910994DF91CF91C3
:101CD0000895CF93DF93FC012081223041F4FB0172
:101CE000EC01828193810E94600481E08B87DF9107
:101CF000CF910895FC018081813021F4FB01808126
:101D0000918105C0823029F4FB01828193810C947A
:101D100060040895FC018081813021F4FB01808101
:101D2000918105C0823029F4FB01828193810C945A
:101D3000760408950F931F93CF93DF93FC012285C0
:101D4000211134C0EC01038114811755C80166E1EB
:101D500070E00E94902ADC01A050BF4F1496ED91D4
:101D6000FC9115978A5F9E4F309729F054966D919C
:101D70007C9155970995C80166E170E00E94902A10
:101D80008C0100501F4FF80187810E94241EF8012A
:101D900080850E94371E0E947B1E188219861B8632
:101DA0001E821D821092010310920003DF91CF91D9
:101DB0001F910F910895DF92EF92FF920F931F935F
:101DC000CF93DF93FB0122812223A1F120914102D5
:101DD0002F3F81F18C01C0E0D1E0E12CF12CDD241A
:101DE000D39480914102082E000C990B8E159F050B
:101DF0000CF18E818823C9F089859A858017910717
:101E000039F480910003909101030817190769F0D4
:101E1000DF861C870B878989811103C0CE010E9450
:101E20004E0ECE0106960E949A0EFFEFEF1AFF0AA1
:101E30006696D7CFDF91CF911F910F91FF90EF90D2
:101E4000DF900895CF92DF92EF92FF920F931F934E
:101E5000CF93DF938C0117550F3F110511F008F058
:101E60004CC020914102022E000C330B2017310789
:101E700014F400934102FB017C012281C80166E158
:101E800070E00E94902A6C01EC01C050DF4F288B5B
:101E900082819E81882319F1FA86E9869F5F9E835D
:101EA0000E948F209E878D870E94511E8F830E94E3
:101EB0001B1E88870E942E1E9885892B8887E881A3
:101EC000F98196012A5F3E4F309721F06C897D8918
:101ED000C9010995F0920103E09200030EC0992315
:101EE00061F08989882349F0C80166E170E00E94A9
:101EF000902A8A5F9E4F0E949A0E81E0DF91CF91D7
:101F00001F910F91FF90EF90DF90CF900895CF92A7
:101F1000DF92FF920F931F93CF93DF938091410243
:101F20008F3F09F440C0F12CCF2DD0E080914102C9
:101F3000082E000C990B8C179D07ACF1CE0166E1C1
:101F400070E00E94902A80509F4FFC01C288D38885
:101F5000C114D10419F488ECC82ED12CCE0166E14D
:101F600070E00E94902A8C0100501F4FF80186817A
:101F70008823B9F0858596850E949B20C816D906CE
:101F800080F4F8018189811103C0C8010E944E0EBE
:101F9000CE0166E170E00E94902A8A5F9E4F0E9407
:101FA0009A0EF394C1CFDF91CF911F910F91FF90C3
:101FB000DF90CF90089528B1342F3095232338B186
:101FC000432B3FB7F894FC01680F791FE617F7071A
:101FD00089F0819198E048B9000000C087FF28B9D6
:101FE000880F000000C000C000C028B900C09A954A
:101FF00091F7ECCF3FBF08959C0197B1942B97B90F
:10200000CB0163E070E00E94902ABC01C9010E94EC
:10201000DB0F87EC90E00197F1F700C00000089516
:1020200040E40C94FC0F0F931F93CF93DF93C62FC4
:10203000D42F122FFC0182818823C9F060930403FE
:102040000E948F20909303038093020380E28C0F01
:10205000883008F057C0C77081E001C0880FCA956A
:10206000EAF7DF91CF911F910F910C94B0148091FA
:102070000403681330C080910203909103030E940F
:102080009B20883C910538F500E20D0FCD17B9F083
:1020900080E28C0F883040F4C77081E001C0880F67
:1020A000CA95EAF70E94B714083028F581E09D2F01
:1020B000977001C0880F9A95EAF70E94B014812F9B
:1020C0000E949D140830F0F4D77081E001C0880FA1
:1020D000DA95EAF70AC080E28C0F883098F4C7706E
:1020E00081E001C0880FCA95EAF7DF91CF911F9177
:1020F0000F910C94B714812FDF91CF911F910F9105
:102100000C949D14DF91CF911F910F9108959C0124
:10211000CB01233F4CE53407F9F078F4283DFCE58A
:102120003F07B9F0293D4CE5340711F1273D3C4507
:1021300031F526E241EE61EE1EC0253FFCE53F078A
:1021400099F070F0263F3C45D1F427E245EE66EE6B
:1021500012C027E245EE0EC026E241EE60EE0BC053
:1021600027E245EE64EE07C026E241EE62EE03C0D0
:1021700028E241E065EE0E94131080E00895FC0122
:102180008281882319F010920403089581E0089554
:10219000CF93DF93EC01FB018281882309F41FC1F7
:1021A000C230FCE5DF0708F41BC1C6319CE5D90746
:1021B00038F09E012A5F3C452930310508F010C1F6
:1021C0000E94241F9093170480931604C031ECE5FD
:1021D000DE0709F4C3C008F041C0C8308CE5D80759
:1021E00009F49AC0F0F4C430ECE5DE0709F487C0C6
:1021F00068F4C2308CE5D80709F477C0C330DC45F9
:1022000009F0E3C080911604826076C0C630ECE528
:10221000DE0709F46EC008F07BC080911604886068
:102220006BC0CC308CE5D80709F485C068F4CA309F
:10223000ECE5DE0709F474C008F079C00E9492173B
:1022400080911604806858C0CE308CE5D80709F418
:1022500076C008F07FC0809116048BC0CB3FECE5C0
:10226000DE0709F44FC018F5C3318CE5D80709F42F
:102270007DC078F4C131ECE5DE0709F473C0C231EA
:10228000DC4509F0A2C00E949217809116048F7756
:1022900033C0C5318CE5D80709F472C008F486C094
:1022A000CA3FDC4509F091C0809117043EC0CF3F82
:1022B000FCE5DF0709F45FC058F4CD3F9CE5D90782
:1022C00009F444C008F43FC08091170482602DC017
:1022D000C130FDE5DF0709F475C008F45DC0C23008
:1022E000DD4509F072C080E06EC080911604816007
:1022F00003C08091160480618093160466C08091AB
:10230000160411C0809117048260809317045DC089
:10231000809116048062F0CF809116048064ECCF27
:102320008091160488608460E7CF8160EECF809151
:1023300016048E7FE1CF809116048D7FDDCF8091D2
:102340001604877FD9CF8091170418C08091170495
:102350008D7FDBCF809116048F7ECECF80911604C7
:102360008F7DCACF809116048F7BC6CF80911604D3
:10237000877F8B7FC1CF809117048D7F8E7FC5CFE4
:102380008091160482FB222720F991E0922790FB8E
:1023900082F990FB83F9B0CF80911704982F909524
:1023A00091708E7F892B90FB81F9AFCF0E9492179D
:1023B0008091160487FB222720F991E0922790FB59
:1023C00087F99ACF81E00E94B31F80911604909103
:1023D00017040E94351F0E94921780E001C081E01F
:1023E000DF91CF910895CF93DF9386319C4571F5AE
:1023F000EB010E941B1E982F917119F4982F9A7A65
:1024000001C090E08A8120914202309143028823EA
:1024100079F081E0911101C080E080930503911172
:1024200002C069E201C065E3C9010E94FA1F0AC047
:1024300080910503811102C069E201C065E3C90111
:102440000E94FC1F0E947B1E80E001C081E0DF91A2
:10245000CF91089590930B0380930A030895E09120
:102460000A03F0910B03309721F00190F081E02DE9
:10247000099480E00895E0910A03F0910B033097EE
:1024800021F00280F381E02D09940895E0910A0380
:10249000F0910B03309739F022E0DC012C9304809B
:1024A000F581E02D099408952091080330910903E6
:1024B0002817390771F09093090380930803E0917E
:1024C0000A03F0910B03309721F00680F781E02D8D
:1024D00009940895209106033091070328173907BE
:1024E00071F09093070380930603E0910A03F09143
:1024F0000B03309721F00084F185E02D09940895B5
:1025000008950C9480120C9481120C9480120C94F7
:1025100080120E9485120C94831281E008950E941B
:1025200086200E9485070E9425210E943B0D0C9465
:1025300087127F928F929F92AF92BF92CF92DF923B
:10254000EF92FF920F931F93CF93DF93CDB7DEB738
:102550002A970FB6F894DEBF0FBECDBF0E94E907E1
:102560000E948D12811111C08FEF89838A831B8293
:102570000E948F208160782F9D838C8349815A81AE
:102580006B818D810E944B134FC04DE0A42E43E020
:10259000B42E00E010E0702E802F0E9472076C01B4
:1025A000F501819091905F0188269926811491040C
:1025B00031F40F5F1F4F0430110569F7D5CF8091BB
:1025C000860381FD0E947B0780E0EE24E394F12CDA
:1025D00094012E213F21232B09F18E837F82CE206F
:1025E000DF2081E0CD2809F480E088870E948F20D9
:1025F0008160782F9A8789874E815F8168858A8577
:102600000E944B13000F111FF801E35FFC4F808104
:102610009181E826F926F182E08206C08F5FEE0CF8
:10262000FF1C8C30A9F6C5CF0E946E0D0E94BB2204
:102630000E942F1290910C038917C9F00E942F124B
:1026400080930C032A960FB6F894DEBF0FBECDBF61
:10265000DF91CF911F910F91FF90EF90DF90CF907E
:10266000BF90AF909F908F907F900C94EA042A9631
:102670000FB6F894DEBF0FBECDBFDF91CF911F9193
:102680000F91FF90EF90DF90CF90BF90AF909F9011
:102690008F907F900895CF93DF93CDB7DEB72B97C0
:1026A0000FB6F894DEBF0FBECDBF4F835887698742
:1026B0007A878B87DE01119686E0FD0111928A955B
:1026C000E9F785E0FE01379601900D928A95E1F7D2
:1026D0000E94E91D882319F082E00E94ED1E0E94ED
:1026E000BC1D81110E946D1E49815A816B817C81C4
:1026F0008D819E810E94A91A2B960FB6F894DEBF99
:102700000FBECDBFDF91CF910895FC0180819181F3
:102710000E948B1D0895CF93882309F4A4C0C82F6D
:102720008238C1F40E942F1281FD9DC069E380911F
:102730004202909143020E94FA1F0E947B1E2FEFDB
:1027400081EE94E0215080409040E1F700C000000D
:1027500069E319C0833801F50E942F1280FD83C000
:1027600063E580914202909143020E94FA1F0E9409
:102770007B1E2FEF81EE94E0215080409040E1F7E6
:1027800000C0000063E580914202909143020E94E4
:10279000FC1FCF910C947B1E8438C1F40E942F1231
:1027A00082FD61C067E480914202909143020E94E1
:1027B000FA1F0E947B1E2FEF81EE94E02150804093
:1027C0009040E1F700C0000067E4DDCF8CEF8C0F94
:1027D000813AD0F46C2F80914202909143020E9482
:1027E000C41F882349F06C2F8091420290914302CC
:1027F0000E94FC1F0E947B1E6C2F809142029091D0
:1028000043020E94FA1FC5CF80E28C0F883048F443
:10281000C77081E001C0880FCA95EAF70E941E1EAA
:10282000B8CFEBE5EC0FE33040F4F0E0E752FD4FBA
:10283000808190E0CF910C945412E8E5EC0FE731E1
:1028400050F4F0E0EE0FFF1FE555FD4F80819181C0
:10285000CF910C946A12C03F30F08C2F0E94C3219C
:10286000CF910C94B022CF910895882309F464C0CD
:10287000823879F40E942F1281FF5EC069E3809153
:102880004202909143020E94FA1F0E947B1E69E35C
:1028900010C08338B1F40E942F1280FF4DC063E551
:1028A00080914202909143020E94FA1F0E947B1E77
:1028B00063E580914202909143020E94FC1F0C94B8
:1028C0007B1E843879F40E942F1282FF35C067E4A2
:1028D00080914202909143020E94FA1F0E947B1E47
:1028E00067E4E7CF9CEF980F913A10F4682FE1CF9F
:1028F00090E2980F983050F4877091E001C0990FE2
:102900008A95EAF7892F0E94241ED9CF9BE5980F5C
:10291000933020F480E090E00C94541298E5980FE6
:10292000973120F480E090E00C946A12803F20F010
:102930000E942B220C94B0220895CF93C82F0E949E
:102940008B13C93349F42FEF87EE93E02150804079
:102950009040E1F700C000008C2FCF910C9435140B
:10296000882321F00E941E1E0C947B1E089588234C
:1029700021F00E94241E0C947B1E0895CF92DF92BA
:10298000EF92FF920F931F93CF93DF937C01062F5B
:10299000C72FFC01D581D295DF70128111110E94E1
:1029A0003E1E0E94141E882379F0112369F080E2F4
:1029B000800F883048F082E00E94ED1E0E94141EB5
:1029C00091E0D82ED92601C0D12CCC2EC2948FE014
:1029D000C8228C2D90E0FC01E25BFF4F0C94C92AC9
:1029E0008C2F807FCF70882311F0C295C07F112378
:1029F00099F0CC2309F4ECC180E2800F883010F00C
:102A0000011104C08C2F0E941E1E03C08C2F0E9437
:102A1000311E0E947B1EDCC1802F0E943514CC2306
:102A200009F4FCC180E2800F883010F0011104C06D
:102A30008C2F0E94241E03C08C2F0E94371E0E94E0
:102A40007B1EECC18C2F807FCF70803211F0C2953D
:102A5000C07F002319F0013059F134C01123B1F0C7
:102A6000DD2381F0D13031F40E94511E8C2B0E9465
:102A7000591ED4C1D33031F40E946D1E8C2F0E9498
:102A8000B91E24C00E94511E8C2B21C0DD2369F089
:102A9000D13041F40E941B1E8C2309F4BFC10E9457
:102AA000C21E03C0D33009F4B9C10E946D1E1FC0FD
:102AB000112321F0D43008F0B1C108C0D33008F0A0
:102AC000ADC115C0112331F0D11182C18C2F0E94EC
:102AD000B014A4C1DD2359F0093309F08BC1FFEF15
:102AE00027EE83E0F15020408040E1F781C18C2F38
:102AF0000E94B71493C18C2F86958695837019F028
:102B0000813061F08BC1112321F0802F9C2F9370B5
:102B100002C080E090E00E94541288C1112321F08D
:102B2000802F9C2F937002C080E090E00E946A1278
:102B30007DC11123F9F0053F51F0063F71F0043FCC
:102B4000A9F4809110049091110481600BC08091D0
:102B5000100490911104826005C08091100490913E
:102B6000110484609093110480931004802F0E94BC
:102B7000C3211EC0053F51F0063F71F0043FA9F488
:102B800080911004909111048E7F0BC080911004ED
:102B9000909111048D7F05C08091100490911104D3
:102BA0008B7F9093110480931004802F0E942B221E
:102BB0000E94B0223BC18C2F837009F045C01111D7
:102BC00031C1402F429546954770440F440F602F06
:102BD0006F70862F90E0A0E0B0E0042E04C0880F54
:102BE000991FAA1FBB1F0A94D2F704FF10C00FE061
:102BF00010E020E030E004C0000F111F221F331F3F
:102C00004A95D2F7009510952095309503C000E0C5
:102C100010E09801C695C695C370BC01CD01602B2C
:102C2000712B822B932BC23049F058F4C13019F02C
:102C30000E94FF1BF7C00E94ED1BF4C00E94111CF4
:102C4000F1C00E94EB1BEEC0112319F08C2F817094
:102C500001C08695882309F4E5C0402F429546952A
:102C60004770440F440F602F6F70862F90E0A0E0F4
:102C7000B0E0042E04C0880F991FAA1FBB1F0A943E
:102C8000D2F704FF10C00FE010E020E030E004C0F5
:102C9000000F111F221F331F4A95D2F70095109580
:102CA0002095309503C000E010E09801C695C695C8
:102CB000C370BC01CD01602B712B822B932BC230D2
:102CC00049F058F4C13019F00E94C41CABC00E94F6
:102CD000B21CA8C00E94D61CA5C00E94251CA2C080
:102CE000CF70112339F08C2F0E944B1C802F0E9433
:102CF000B01498C0802F0E94B7148C2F0E946C1CB7
:102D000091C0023F01F128F4003F41F0013FA1F0E2
:102D10005AC0033FF9F0043F39F155C0112341F087
:102D2000D33008F07BC08C2F8F710E94911C76C02D
:102D3000D43008F073C0F7CF112339F08C2F8F7186
:102D40000E944B1C6BC01123C9F38C2F8F710E9402
:102D50006C1C64C0112329F08C2F8F710E94361CCB
:102D60005DC00E94311C5AC01123C9F00E94B91DD8
:102D70000E94241E0E94E51D843039F40E94E41E46
:102D80008C2F8F710E946C1C6CC0D33008F069C00E
:102D9000CF718C2F0E944B1C63E08C2F0DC00E94C2
:102DA000B91D0E941E1ED33050F00E94E41E0E94E6
:102DB000C21E64E08C2F8F710E94CE1E52C081E033
:102DC0000E94ED1E4EC0112339F0DD2309F4B6CF69
:102DD000802F0E948B1322C0DD2309F4B6CF093364
:102DE00049F49FEFE7EEF3E09150E040F040E1F767
:102DF00000C00000802F0E94351410C04C2F4F706F
:102E0000602FC7010E9455050E945C1B0FC04C2F0C
:102E10004F70602FC7010E94580508C088EF8C0DC5
:102E2000843020F40E942F120E94EA04DD20D9F0A1
:102E30000E94E51D80FD17C0F70112820E94DF1D70
:102E40000E944B1CC7010E943C170E94DF1DDF91AE
:102E5000CF911F910F91FF90EF90DF90CF900C9446
:102E60006C1CD12CDFCFDF91CF911F910F91FF9080
:102E7000EF90DF90CF9008950F931F93CF93DF9340
:102E8000EC01988189812B813C81232B31F08F3F8C
:102E900031F481E09F3F19F403C081E001C080E07C
:102EA00080FD13C0CE010E940305882371F0688164
:102EB00079818A810E94961D8C010E94E81C0E94E3
:102EC000D91BB801CE010E94BE14DF91CF911F9192
:102ED0000F910895882321F00E94311E0C947B1ECF
:102EE0000895882321F00E94371E0C947B1E0895BC
:102EF0000E943E1E0E944E1E0E947B1E0E94E823DE
:102F00000E94B02280E090E00E94541280E090E0A5
:102F10000C946A1280914202909143020E94FE1F1B
:102F20000C9478170E942B1E0C948A17E92FE295B7
:102F3000EF704E2F50E0FA013297EE30F105B0F409
:102F4000E25AFF4F0C94C92A803F91F018F4883E52
:102F500068F40EC0843F51F40BC0883E48F0813FB6
:102F600029F406C093FB882780F9089580E008952E
:102F700081E008950E948B1D0E9496170895CF93BB
:102F8000DF9300D000D01F92CDB7DEB70F900F9027
:102F90000F900F900F90DF91CF910895CF93DF9313
:102FA00000D000D000D0CDB7DEB726960FB6F8948B
:102FB000DEBF0FBECDBFDF91CF910895CF93DF93DA
:102FC000C091160380911703C817A1F0D0E0CE017D
:102FD00066E070E00E94902AFC01E85EFC4F4081B0
:102FE000518162817381848195810E94CE172196DF
:102FF000C770E8CFDF91CF91089540914803509179
:10300000490360914A0370914B0380914C03909166
:103010004D030C94CE17CF93B82FC62F20911603D3
:10302000A09117032A17B1F030E0C90166E070E003
:103030000E94902AFC01E85EFC4F81818C1306C03F
:1030400080818B1303C08281841306C02F5F3F4FA2
:103050002770E8CF80E001C081E0CF9108951F93F1
:10306000CF93DF9380914D0382958F7009F066C0F6
:1030700080914A03882309F461C0209116031091BE
:103080001703C0914803D0914903E0914B03F0919D
:103090004C0381E0CF3F09F080E0482F211709F46D
:1030A0004DC0309721F0DF3F21F080E003C081E088
:1030B00001C0842F30E080FD3DC0C90166E070E0B2
:1030C0000E94902ADC01A85EBC4F11968C9111974A
:1030D0008D1330C08C918C132DC012968C91129749
:1030E000811128C013968D919C9114978E179F077C
:1030F00008F401978E1B9F0B883C9105D8F48091B2
:103100004D038F70806180934D03C90166E070E0CC
:103110000E94902AFC01E35EFC4F90819F709061B9
:10312000908388E493E00E943C17DF91CF911F9138
:103130000C94DE172F5F3F4F2770B0CFDF91CF91F8
:103140001F9108959F92AF92BF92CF92DF92EF921C
:10315000FF920F931F93CF93DF93CDB7DEB76197A5
:103160000FB6F894DEBF0FBECDBF7C0185E0F7013E
:10317000DE011D9601900D928A95E1F7D701DC9052
:1031800011960C9111971296CC9030914803409172
:10319000490380914B0390914C03009731F04F3FCE
:1031A00031F421E03F3F19F403C021E001C020E0E9
:1031B00020FD9FC1F701A380B48090904A0399201D
:1031C00009F42BC120914D03A816B90628F0B501CA
:1031D000681B790BCB0104C0809590958A0D9B1DCF
:1031E00011E0883C910590F010E0207F09F0DBC0F1
:1031F0007A2DB98AA88A4D2D502F6C2D89890E946D
:10320000BF1788E493E00E943C176BC1822F807F38
:1032100009F091C0041315C0D31213C01C2DC110A6
:1032200010C02F70206120934D030E94FD1788E489
:1032300093E00E943C1780914D03D70115968C9323
:1032400075C1A114B10439F00F3F39F481E0BFEF2B
:10325000DB1203C003C081E001C080E080FD03C039
:1032600081E08C2502C080E090E080FF15C04C2DED
:10327000602F8D2D0E940B18882371F088E493E055
:103280000E943C17E8E4F3E086E0DF011D928A9596
:10329000E9F70E94FD174DC0AB2839F00F3F39F414
:1032A00081E0BFEFDB1203C003C081E001C080E01A
:1032B00080FD03C081E08C2502C080E090E0E82F13
:1032C000E170BE2E80FF2CC04C2D602F8D2D0E94F2
:1032D0000B18182F811124C0DD860E878D859E85E1
:1032E0000E948B1D292F22952F70223018F0243038
:1032F00090F405C09F7059F0811109C017C19F70EB
:1033000031F0D70115969C91907F09F40FC1805E32
:10331000883008F40BC1C7010E943C171B2D06C161
:103320001C2DCC2009F402C180914D038160809353
:103330004D0310E0FBC0041309C0D31207C0C11035
:1033400005C080914D03F7018583A5C0DD860E87FA
:103350008D859E850E94BA17882379F1CC2069F16A
:1033600020914D03822F82958F7090E0029774F028
:10337000809148039091490398878F831986BB8673
:10338000AA862C87CE0107960E943C1786E0F7019B
:10339000A8E4B3E001900D928A95E1F70E942F18FE
:1033A0000E94FD170DC0041769F0DD860E878D851C
:1033B0009E850E94BA17811119C0C7010E943C174F
:1033C00011E0B4C0D312F1CFC110EFCF80914D0303
:1033D000F7018583C7010E943C1786E0E8E4F3E02B
:1033E000DF011D928A95E9F7192DA0C0CC2029F3A1
:1033F00020914D03822F82958F7090E0029734F2D6
:1034000080914803909149039A8389831B82BD82EE
:10341000AC822E83CE010196B7CFA816B90628F04C
:10342000F501E81BF90BCF0104C0809590958A0D3A
:103430009B1D883C910558F010E07A2DB98AA88A26
:103440004D2D502F6C2D89890E94BF174AC01C2D0D
:10345000CC2009F4B2CF041333C0D31231C0209171
:103460004D0320FD24C0822F82958F70482F50E09D
:1034700041155105E1F0D70115962C9315974F3062
:10348000510549F08F5F982F9295907F822F8F7012
:10349000892B15968C93C7010E943C1786E0F70193
:1034A000A8E4B3E001900D928A95E1F73DC086E073
:1034B000F701A8E4B3E001900D928A95E1F736C0D8
:1034C000DD860E878D859E850E94BA1781115ECF9D
:1034D00080914D03816080934D03C7010E943C178A
:1034E00025C0E8E4F3E086E0DF011D928A95E9F764
:1034F0001BC0CC2009F461CFDD860E878D859E85AB
:103500000E94BA17182F882309F457CF86E0F701D5
:10351000A8E4B3E001900D928A95E1F788E493E086
:103520000E9485130E942F180E94FD17812F61961B
:103530000FB6F894DEBF0FBECDBFDF91CF911F91C4
:103540000F91FF90EF90DF90CF90BF90AF909F9042
:103550000895CF93DF93CDB7DEB72C970FB6F894CD
:10356000DEBF0FBECDBF4F83588769877A878B87B1
:103570009C87CE0107960E94A2188823D1F09F81D4
:1035800088852A853B85232B31F08F3F31F481E0FC
:103590009F3F19F403C081E001C080E080FD6FC04F
:1035A0004F81588569857A858B859C850E94CE17C9
:1035B00066C086E0FE013796DE01119601900D92FD
:1035C0008A95E1F7FF81E8856A857B85611571053C
:1035D00031F0EF3F31F481E0FF3F19F403C081E0A7
:1035E00001C080E080FD4BC08091170390E09C01FA
:1035F0002F5F3F4F277033274091160350E0241769
:10360000350709F443C0F983EA837D836C8366E060
:1036100070E00E94902ADC01A85EBC4F96E0FE019B
:10362000319601900D929A95E1F7209317030E942D
:10363000DE1725C090E066E070E00E94902A885E68
:103640009C4F0E94A218882371F18091160390E08C
:1036500066E070E00E94902AFC01E85EFC4F408129
:10366000518162817381848195810E94CE178091FE
:10367000160390E001968770992780931603809136
:103680001603909117038913D5CF0DC00E9492178E
:103690001092170310921603E8E4F3E086E0DF01CE
:1036A0001D928A95E9F72C960FB6F894DEBF0FBEEF
:1036B000CDBFDF91CF910895EF92FF920F931F93AB
:1036C000CF93DF938C01892B09F46CC0F12CEE248D
:1036D000E394E8012196F8018491843740F4843022
:1036E00008F051C0813081F0823019F15BC085371C
:1036F00009F444C0A8F19CE7980F903708F052C035
:103700008F770E94351441C00E5F1F4FFE018491D8
:1037100090E2980F983050F48770FE2D01C0FF0F93
:103720008A95EAF78F2F0E94411E14C00E948B13C6
:103730002DC00E5F1F4FFE01849190E2980F9830CC
:1037400060F48770FE2D01C0FF0F8A95EAF78F2F76
:103750000E94471E0E947B1E19C00E94351416C08D
:103760000E5F1F4FFE01C491CC2381F08FE99FE0D3
:103770000197F1F700C00000C150F6CF0E5F1F4F58
:10378000FE01F49003C00E948B138E018F2D8823BD
:1037900009F49FCFEFE9FFE03197F1F700C0000097
:1037A0008150F5CFDF91CF911F910F91FF90EF9056
:1037B0000895089508950C94DA1B0C94DB1B0E9465
:1037C000DD1B609370037093710380937203909379
:1037D00073030C9478170C94DF1B0F931F930091C5
:1037E0007003109171032091720330917303602B69
:1037F000712B822B932B1F910F910C94DF1B0F9336
:103800001F93009170031091710320917203309106
:10381000730360237123822393231F910F910C94D0
:10382000DF1B0F931F930091700310917103209180
:1038300072033091730360277127822793271F91AA
:103840000F910C94DF1B0C94DA1B0E94231C6093D5
:103850006C0370936D0380936E0390936F030C94CD
:10386000781760E070E0CB010C94251C0F931F9338
:1038700041E050E060E070E08A019B0104C0000F6D
:10388000111F221F331F8A95D2F7C901B8011F915A
:103890000F910C94251C0F931F9341E050E060E0C2
:1038A00070E004C0440F551F661F771F8A95D2F73A
:1038B00080916C0390916D03A0916E03B0916F03A2
:1038C0008A019B01082B192B2A2B3B2BC901B8011C
:1038D0001F910F910C94251C0F931F9341E050E012
:1038E00060E070E004C0440F551F661F771F8A9583
:1038F000D2F7409550956095709580916C039091AA
:103900006D03A0916E03B0916F038A019B010823A0
:1039100019232A233B23C901B8011F910F910C944D
:10392000251C0F931F9341E050E060E070E004C05D
:10393000440F551F661F771F8A95D2F780916C033D
:1039400090916D03A0916E03B0916F038A019B016A
:10395000082719272A273B27C901B8011F910F9172
:103960000C94251C0F931F9300916C0310916D0311
:1039700020916E0330916F03602B712B822B932B60
:103980001F910F910C94251C0F931F9300916C03B2
:1039900010916D0320916E0330916F0360237123AA
:1039A000822393231F910F910C94251C0F931F9337
:1039B00000916C0310916D0320916E0330916F03A1
:1039C00060277127822793271F910F910C94251C44
:1039D0000895282F362F892F6CE00E94872A820FA6
:1039E000982F9770A1E001C0AA0F9A95EAF78695E3
:1039F0008695869590E065E070E00E94902AFC0133
:103A0000E25BFC4F40E050E0632F70E090819B014F
:103A1000042E02C0369527950A94E2F7217021956D
:103A200029272A23292721934F5F5F4F45305105CE
:103A300069F70895282F892F6CE00E94872A820F4A
:103A4000A82FA77086958695869590E065E070E032
:103A50000E94902ABC0140E050E080E0FB01E40FAE
:103A6000F51FE25BFC4F208130E00A2E02C0369544
:103A700027950A94E2F721703327042E01C0220F04
:103A80000A94EAF7822B4F5F5F4F4530510531F7BB
:103A90000895BF92CF92DF92EF92FF920F931F9300
:103AA000CF93DF938C01C0906C03D0906D03E090B6
:103AB0006E03F0906F038091700390917103A09159
:103AC0007203B0917303C82AD92AEA2AFB2ACFE1EC
:103AD000D0E0D701C6010C2E04C0B695A7959795E6
:103AE00087950A94D2F780FD04C0219790F7B12CF6
:103AF00007C0BC2EB8018C2F0E947C050197A9F34A
:103B00008B2DDF91CF911F910F91FF90EF90DF9060
:103B1000CF90BF900895CF93DF93EC010E94491D91
:103B2000BE010E947C05DF91CF9108951F93CF9332
:103B3000DF93EB0190911503992321F0CB010E94B3
:103B40008B1D13C0882349F0CB010E94491D182FFB
:103B5000682FCE010E94E91C04C0CB010E941A1DEF
:103B6000182FBE01812F0E947C05DF91CF911F91FC
:103B700008958091790308950E948F202091770302
:103B8000309178038217930750F00E948F20209184
:103B9000770330917803821B930B9C010AC00E942B
:103BA0008F20209177033091780320953095280F4E
:103BB000391F81E0283C310508F480E008958091A8
:103BC0007603859585958595089580917603877010
:103BD00008950E948F2020917403309175038217FD
:103BE0009307A8F00E948F202091740330917503F1
:103BF000821B930B883C910510F480E013C08091E8
:103C0000760382FB882780F991E089270BC00E9408
:103C10008F20209174033091750320953095820F89
:103C2000931FE8CF8170089590917603977081E09B
:103C300009F480E0089580918503089590918503AB
:103C4000892B80938503089580959091850389231E
:103C500080938503089510928503089580918403CD
:103C6000089590918403892B80938403089580950F
:103C70009091840389238093840308951092840390
:103C8000089590918303892B8093830308958095F1
:103C90009091830389238093830308951092830373
:103CA000089580917A03089508950C94541E0C94FD
:103CB000551ECF9390917A03981769F0C82F0E94F0
:103CC0008F209093780380937703C0937A038C2F8F
:103CD000CF910C94571ECF91089580917A03882339
:103CE00049F010927A03109278031092770380E0E3
:103CF0000C94571E0895E0914202F0914302809186
:103D000085038083E0914202F0914302908180918B
:103D10008403892B8083E0914202F09143029081D9
:103D200080918303892B808380917A038823B9F063
:103D30000E94BC1D81110E946D1EE0914202F09113
:103D40004302908180917A03892B80838091420283
:103D5000909143020E94B81F81110E946D1E8091B4
:103D60004202909143020C943B120C94541E0C940A
:103D7000B51E90917903981721F0809379030C94E4
:103D8000B71E089580917903882329F01092790352
:103D900080E00C94B71E08950C94541E982F990F30
:103DA000990F990F692B609376030E944B1C0E9418
:103DB0008F2090937503809374038091760385958B
:103DC000859585950C94CC1E109276031092750300
:103DD0001092740380E00C94CC1E209176038095A1
:103DE000822380937603982F977079F430E0482FE0
:103DF000082E000C550B2417350739F0859585954D
:103E000085950E946C1C0C94E41E08956FEF7FEF63
:103E100080E090E00C940E2B80E090E00E94EA2A73
:103E200021E08C3E9E4F09F020E0822F089582E031
:103E300090E00C94DC2A83E090E00C94DC2A682F5C
:103E400083E090E00C94F02ACF9384E090E00E940D
:103E5000DC2AC82F81E290E00E94DC2A2C2F30E07F
:103E6000A901582BCA01CF910895CF93C92F682F6C
:103E700084E090E00E94F02A6C2F81E290E0CF91E4
:103E80000C94F02AAB01BC018FE090E00C94022B63
:103E9000AB01BC0183E190E00C94022B60E070E088
:103EA000CB010C94481F60E070E0CB010E94421FE0
:103EB0000C944E1F6CEE7EEF80E090E00E940E2B83
:103EC00060E082E090E00E94F02A60E083E090E011
:103ED0000E94F02A109270031092710310927203E4
:103EE0001092730360E084E090E00E94F02A60E0AA
:103EF00081E290E00E94F02A60E085E090E00E947C
:103F0000F02A60E086E090E00E94F02A6FEF87E000
:103F100090E00E94F02A40E050E0BA0188E090E092
:103F20000E94022B60E08DE090E00E94F02A40E0C9
:103F300050E0BA0188E190E00E94022B60E087E146
:103F400090E00E94F02A40E050E0BA018CE190E05D
:103F50000E94022B60E080E290E00E94F02A0C9424
:103F6000531F0C945A1F682F8EE090E00C94F02A97
:103F7000FC01329697E080E0915029F021912223B4
:103F8000D9F38F5FF9CF0895662349F0FC0132968B
:103F900008962191621729F0E817F907D1F780E018
:103FA000089581E008959C01FC0132969FEF80E026
:103FB0004191461789F09F3F19F4411101C0982F94
:103FC0008F5F8630A9F79F3F39F0F901E90FF11DA6
:103FD00097FDFA956283089508959C012A5F3F4FEB
:103FE000FC014281461301C0128201968217930799
:103FF000B9F708950C94D31F0C94ED1F029626E098
:10400000FC0111922A95E9F7089508950C94052072
:104010000C940520CF930E9408200E94E9070E947B
:104020000620C0E08C2F0E947207892B29F4CF5FF5
:10403000C430C1F780E001C081E0CF9108950C94B5
:1040400005200C941F200E94212080911C048430A4
:1040500049F11092870320E488E190E00FB6F894CC
:10406000A895809360000FBE2093600080E00E94BE
:10407000EA040E94212083B7817F846083BF83B7D5
:10408000816083BF7894889583B78E7F83BF0FB696
:10409000F894A895809160008861809360001092E8
:1040A00060000FBE08950C9405200E9492170E9494
:1040B0002F120E94EA040C9453201F920F920FB605
:1040C0000F9211248F939F93AF93BF938091870397
:1040D000811113C08091120490911304A0911404D3
:1040E000B09115044196A11DB11D809312049093C7
:1040F0001304A0931404B0931504BF91AF919F9142
:104100008F910F900FBE0F901F90189582E084BD85
:1041100093E095BD9AEF97BD80936E0008952FB7F9
:10412000F8948091120490911304A0911404B0911A
:1041300015042FBF0895CF92DF92EF92FF920F9355
:104140001F932FB7F894409112045091130460917B
:104150001404709115042FBF6A017B01EE24FF2423
:104160008C0120E030E0C016D106E206F30610F420
:10417000415051099A01281B390BC9011F910F9118
:10418000FF90EF90DF90CF90089578941F920F9258
:104190000FB60F9211248F939F93AF93BF9380918B
:1041A000120490911304A0911404B0911504019687
:1041B000A11DB11D8093120490931304A0931404C5
:1041C000B0931504BF91AF919F918F910F900FBE47
:1041D0000F901F90189581E08093E00080E280931B
:1041E000D8001092C9008FE19EE40197F1F700C05A
:1041F000000087E090EBDC01809325049093260477
:10420000A0932704B09328049CE088E10FB6F894AB
:10421000A895809360000FBE90936000FFCF0C9430
:10422000061F0E94E9078FE39CE90197F1F700C0A0
:1042300000000E94E90780E00E94720780FF04C02E
:104240000E940F210C94EB2008950E940C1F8111F5
:1042500002C00E94B11F0E94171F809386030E9414
:10426000241F90931704809316040E941B1F682F2D
:1042700070E080E090E00C94EB1B80918F0380FF56
:104280000CC08091490290E065E070E00E94902AA5
:1042900095958795959587952EC081FF0AC0809149
:1042A000490290E065E070E00E94902A959587951C
:1042B00022C082FF08C08091490290E065E070E072
:1042C0000E94902A18C020918E032223D9F03091A9
:1042D0004802231780F78091490290E065E070E082
:1042E0000E94902A622F70E00E94902A632F70E053
:1042F0000E94B52ACB018038910538F4009739F433
:1043000081E005C085E090E008958FE70895089565
:1043100080918F0380FF08C06091450270E0759521
:1043200067957595679523C081FF06C0609145022A
:1043300070E0759567951BC082FF04C060914502CF
:1043400070E012C060918E036623A9F020914402B0
:104350006217A0F78091450270E090E00E94902AD9
:10436000622F70E00E94B52A6038710540F4611533
:10437000710519F406C061E070E0862F08958FE79B
:10438000089581E00895803F21F40E943D218195A8
:1043900004C0813F29F40E943D2180939303089536
:1043A000823F21F40E943D21819504C0833F29F47E
:1043B0000E943D21809392030895893F19F40E9441
:1043C000882105C08A3F31F40E948821819580931D
:1043D000940308958B3F21F40E948821819504C0A5
:1043E0008C3F29F40E948821809395030895843F8F
:1043F00021F480919103816017C0853F21F4809161
:104400009103826011C0863F21F480919103846002
:104410000BC0873F21F480919103886005C0883FDD
:1044200031F48091910380618093910308958D3FD1
:1044300021F480918F0381600BC08E3F21F4809125
:104440008F03826005C08F3F29F480918F038460C1
:1044500080938F030895803F39F48091930387FF01
:104460006CC01092930369C0813F29F4809193033B
:104470001816BCF362C090919203823F29F497FF13
:104480005CC01092920359C0833F19F41916CCF303
:1044900054C0893F41F48091940318160CF04DC02C
:1044A000109294034AC08A3F29F48091940387FFB5
:1044B00044C0F6CF8B3F39F48091950387FF3DC010
:1044C000109295033AC08C3F29F4809195031816F9
:1044D000BCF333C0843F21F4809191038E7F17C0D9
:1044E000853F21F4809191038D7F11C0863F21F497
:1044F000809191038B7F0BC0873F21F480919103C2
:10450000877F05C0883F31F4809191038F7E80932F
:10451000910313C08D3F21F480918F038E7F0BC0D8
:104520008E3F21F480918F038D7F05C08F3F29F44A
:1045300080918F038B7F80938F03809192038111F1
:104540000EC08091930381110AC080919403811160
:1045500006C080919503811102C010928E030895C8
:1045600080E993E00E9446120E948F2090938D0371
:1045700080938C030895CF93DF9300D000D000D0B8
:10458000CDB7DEB786E0E0E9F3E0DE0111960190F9
:104590000D928A95E1F780919203811105C0809177
:1045A0009303882309F481C080918A0390918B033F
:1045B0000E949B20FC0120918E03222339F08091E0
:1045C0004A0290E08E179F0760F06FC080914B0207
:1045D00090E06AE070E00E94902A8E179F0718F022
:1045E00064C02F3F19F02F5F20938E031092940325
:1045F0001092950380919203181624F40E943D2195
:10460000809392038091920387FF05C00E943D2111
:1046100081958093920380919303181624F40E944D
:104620003D21809393038091930387FF05C00E94EF
:104630003D2181958093930380919203882311F10A
:10464000209193032223F1F0082E000C990B65EBC7
:1046500070E00E94902A992319F09093920303C06E
:1046600081E080939203822F220F990B65EB70E01B
:104670000E94902A992319F09093930303C081E03C
:10468000809393030E94B02280918C0390918D03BC
:1046900090938B0380938A0386E0FE013196A0E914
:1046A000B3E001900D928A95E1F780919403811116
:1046B00005C080919503882309F481C08091880307
:1046C000909189030E949B20FC0120918E0322235C
:1046D00039F08091460290E08E179F0760F06FC01E
:1046E0008091470290E06AE070E00E94902A8E1765
:1046F0009F0718F064C02F3F19F02F5F20938E039F
:10470000109292031092930380919403181624F44C
:104710000E948821809394038091940387FF05C0B1
:104720000E948821819580939403809195031816A7
:1047300024F40E948821809395038091950387FF3C
:1047400005C00E94882181958093950380919403F0
:10475000882311F1209195032223F1F0082E000CFB
:10476000990B65EB70E00E94902A992319F09093C1
:10477000940303C081E080939403822F220F990B4E
:1047800065EB70E00E94902A992319F090939503AD
:1047900003C081E0809395030E94B02280918C0336
:1047A00090918D03909389038093880386E0FE01A6
:1047B0003196A0E9B3E001900D928A95E1F7269633
:1047C0000FB6F894DEBF0FBECDBFDF91CF91089535
:1047D000E0E9F3E086E0DF011D928A95E9F71092A7
:1047E0008E0310928F03089580919E030895CF93B6
:1047F000DF9300D01F92CDB7DEB790911C049430A8
:1048000019F589837B836A8382E08093E9008FEFC7
:104810009091E800815095FD06C095ED9A95F1F7CD
:1048200000008111F5CF8091E80085FF0DC040E0C8
:1048300050E063E070E0CE0101960E942A2680914C
:10484000E8008E778093E8000F900F900F90DF9133
:10485000CF910895CF93DF93EC010E940D26823013
:1048600011F0843031F4BE0184E0DF91CF910C94DB
:10487000F723DF91CF910895BC0183E00C94F723D7
:10488000CF93DF93EC010E940D26823011F084302B
:10489000F9F482E08093E9008FEF9091E800815075
:1048A00095FD06C095ED9A95F1F700008111F5CFC1
:1048B0008091E80085FF0CC040E050E066E070E0C9
:1048C000CE010E942A268091E8008E778093E8002E
:1048D000DF91CF910895CF93DF93EC010E940D26D5
:1048E000823011F0843039F581E08093E9008FEF58
:1048F0009091E800815095FD06C095ED9A95F1F7ED
:1049000000008111F5CF8091E80085FF14C040E0E0
:1049100050E068E070E0CE010E942A268091E80015
:104920008E778093E80088E0FE01A6E9B3E001906D
:104930000D928A95E1F7DF91CF910895089508953A
:104940000C94552042E061EC81E00E942E2742E267
:1049500061EC82E00C942E2780911E04833009F4D0
:104960005CC030F4813071F0823009F495C0089554
:104970008A3009F481C08B3009F467C0893009F0AE
:10498000A3C020C080911D04813A09F09DC0809190
:10499000E800877F8093E8008091210490912204B1
:1049A000892B21F468E086E993E003C060E080E0B1
:1049B00090E070E00E9475268091E8008B778093EC
:1049C000E800089580911D04813209F07DC0809136
:1049D000210490912204029708F076C08091E800AB
:1049E000877F8093E8008091E80082FD05C0809178
:1049F0001C048111F8CF68C08091F200823029F444
:104A00008091F1008B7F813021F48091F1008093BF
:104A10009E038091E8008B7753C080911D04813AFA
:104A200009F052C08091210490912204892B09F051
:104A30004BC08091E800877F8093E8008091E80078
:104A400080FFFCCF8091560236C080911D048132D8
:104A5000D9F58091210490912204892BA9F58091A8
:104A6000E800877F8093E8000E94632780911F04FD
:104A7000809356020C94921780911D04813221F587
:104A80008091E800877F8093E8000E9463278091EF
:104A9000200480939F03089580911D04813AA1F41E
:104AA0008091E800877F8093E8008091E80080FF94
:104AB000FCCF80919F038093F1008091E8008E7776
:104AC0008093E8000C946327089584B7877F84BFA0
:104AD0000FB6F894A895809160008861809360007B
:104AE000109260000FBE90E080E80FB6F8948093BB
:104AF0006100909361000FBE0E9489120E94B52749
:104B00000E9408288091E20084608093E2007894FB
:104B10000E946C2A0E948F128CE492E00E942A125A
:104B200080911C04853069F40E94232080911A042E
:104B30008823B1F30E940A20882391F30E9414264F
:104B4000EFCF0E949912ECCF0C94A625292F332782
:104B500023303105C9F060F42130310581F0223075
:104B6000310509F04AC08BE390E02CE735E049C0FD
:104B70002132310511F12232310579F13EC082E155
:104B800090E027EB35E03DC099278130910561F039
:104B900040F08230910559F0039779F5E4E4F5E0AF
:104BA00008C0E8E7F5E005C0E6E6F5E002C0EAE4A3
:104BB000F5E0849190E09F0124C06115710541F0FA
:104BC00061307105D1F489E090E027EA35E019C041
:104BD00089E090E02EE835E014C06115710541F0E0
:104BE0006130710551F481E890E029EC35E009C0AD
:104BF00080E490E02AE436E004C080E090E020E029
:104C000030E0FA0131832083089580911C048430C0
:104C100011F081E0089582E008958091A003811150
:104C200002C00C940526089584E089BD86E089BD04
:104C300009B400FEFDCF8091D8008F7D8093D8000D
:104C40008091E00082608093E0008091E00081FD2F
:104C5000FCCF0895CF92DF92EF92FF920F931F93B4
:104C6000CF93DF93EC018B017A010E94822781119F
:104C700033C0E114F10439F0F70180819181081B00
:104C8000190BC80FD91FC12CD12C0115110519F111
:104C90008091E80085FD16C08091E8008E778093B2
:104CA000E800E114F10449F0F70180819181C80E18
:104CB000D91ED182C08285E00FC00E94822788233E
:104CC00021F30AC089918093F10001501109FFEF8F
:104CD000CF1ADF0ADACF80E0DF91CF911F910F91D9
:104CE000FF90EF90DF90CF900895209123043091B2
:104CF00024042617370748F06115710539F420910F
:104D0000E8002E772093E80001C0B901FC0120E003
:104D10006115710561F180911C048823D9F18530FA
:104D2000D9F18091E80083FD39C08091E80082FDCF
:104D30002BC08091E80080FFEBCF8091F20090E0E3
:104D40006115710551F08830910538F42191209357
:104D5000F100615071090196F3CF21E0089709F045
:104D600020E08091E8008E778093E800D1CF211178
:104D7000D2CF0AC080911C04882361F0853061F095
:104D80008091E80083FD0AC08091E80082FFF2CFA5
:104D900080E0089582E0089583E0089581E0089519
:104DA00020912304309124042617370748F0611519
:104DB000710539F42091E8002E772093E80001C0B6
:104DC000B901FC0120E06115710579F180911C04A5
:104DD000882309F43DC0853009F43CC08091E80087
:104DE00083FD3AC08091E80082FD2CC08091E800EC
:104DF00080FFE9CF8091F20090E06115710559F0D4
:104E00008830910540F424912093F100319661504F
:104E100071090196F2CF21E0089709F020E0809116
:104E2000E8008E778093E800CECF2111CFCF0AC063
:104E300080911C04882361F0853061F08091E80046
:104E400083FD0AC08091E80082FFF2CF80E00895E0
:104E500082E0089583E0089581E00895982F9530C9
:104E600068F59093E900981739F07091EC00209163
:104E7000ED005091F00003C0242F762F50E021FD6B
:104E800002C09F5FECCF3091EB003E7F3093EB0090
:104E90003091ED003D7F3093ED003091EB003160BB
:104EA0003093EB007093EC002093ED005093F000F2
:104EB0002091EE0027FDE5CF80E008958F7080936C
:104EC000E90081E0089580911D0487FF11C0809161
:104ED000E80082FD05C080911C048111F8CF11C04B
:104EE0008091E8008B770BC080911C04882349F0E7
:104EF0008091E80080FFF8CF8091E8008E77809362
:104F0000E80008952091E4003091E50095E6409195
:104F1000EC00842F817040FF23C08091E80080FD69
:104F20001DC080911C04882399F0853099F08091F0
:104F3000EB0085FD11C04091E4005091E50024177D
:104F4000350729F3915011F09A01E1CF84E00895DB
:104F500082E0089583E0089581E0089580E0089557
:104F60004091E80042FFDDCF08950E9412280E9480
:104F70001528E0EEF0E0808181608083E8EDF0E0CC
:104F800080818F77808319BCE3E6F0E080818160C7
:104F9000808310921B0408950E9412280E941528F5
:104FA0008091D8008F778093D8008091D800806856
:104FB0008093D8008091D8008F7D8093D80084E0C2
:104FC00089BD86E089BD09B400FEFDCF10921C04A6
:104FD0001092180410921A041092190442E060E032
:104FE00080E00E942E278091E1008E7F8093E10077
:104FF0008091E20081608093E2008091E20088600D
:105000008093E2008091E0008E7F8093E00008951D
:10501000E3E6F0E080818E7F808381E080931B0453
:105020000C94CC271092E20008951092E1000895AC
:105030001F920F920FB60F9211242F933F934F930D
:105040005F936F937F938F939F93AF93BF93EF93F0
:10505000FF938091E10082FF0BC08091E20082FF0C
:1050600007C08091E1008B7F8093E1000E946B2A52
:105070008091E10080FF19C08091E20080FF15C09F
:105080008091E2008E7F8093E2008091E200806157
:105090008093E2008091D80080628093D80019BC90
:1050A00085E080931C040E949F248091E10084FF8E
:1050B00030C08091E20084FF2CC084E089BD86E08E
:1050C00089BD09B400FEFDCF8091D8008F7D80930B
:1050D000D8008091E1008F7E8093E1008091E20012
:1050E0008F7E8093E2008091E20081608093E200F5
:1050F00080911804882311F084E007C08091E300B8
:1051000087FD02C081E001C083E080931C040E94FF
:10511000A0248091E10083FF29C08091E20083FFF9
:1051200025C08091E100877F8093E10082E0809339
:105130001C04109218048091E1008E7F8093E1009E
:105140008091E2008E7F8093E2008091E200806196
:105150008093E20042E060E080E00E942E27809190
:10516000F00088608093F0000E949E24FF91EF91F0
:10517000BF91AF919F918F917F916F915F914F916F
:105180003F912F910F900FBE0F901F9018951F9277
:105190000F920FB60F9211242F933F934F935F936B
:1051A0006F937F938F939F93AF93BF93CF93DF932F
:1051B000EF93FF93C091E900CF708091EC00D82F5E
:1051C000D17080FDD0E81092E9008091F000877FD7
:1051D0008093F00078940E940B291092E90080914E
:1051E000F00088608093F000CD2BCF70C093E90071
:1051F000FF91EF91DF91CF91BF91AF919F918F91EF
:105200007F916F915F914F913F912F910F900FBEC2
:105210000F901F9018951F93CF93DF93CDB7DEB7F4
:10522000AA970FB6F894DEBF0FBECDBFEDE1F4E054
:105230008091F100819324E0E532F207C9F70E94E2
:10524000AC248091E80083FF2EC180911D049091D1
:105250001E04492F50E04A30510508F024C1FA01DC
:10526000E459FF4F0C94C92A803821F0823809F0A4
:105270001AC108C08091190490911A04992389F0E9
:1052800082600FC0809121048F70853008F00BC1BF
:105290008093E9008091EB0085FB882780F91092CC
:1052A000E9009091E800977F9093E8008093F100E7
:1052B0001092F100D1C0282F2D7F09F0F4C088236F
:1052C00019F0823061F0EFC080911F04813009F045
:1052D000EAC0933009F080E080931A042EC08091D8
:1052E0001F0481112AC0809121048F702FEF280F95
:1052F000243008F0D8C08093E9002091EB0020FF13
:105300001CC0933021F48091EB00806214C0909116
:10531000EB0090619093EB0021E030E0A90102C026
:10532000440F551F8A95E2F74093EA001092EA0075
:105330008091EB0088608093EB001092E9008091EF
:10534000E800877F8093E8000E946327ACC081114A
:10535000AAC010911F041F778091E3008078812BF1
:105360008093E3008091E800877F8093E8000E94AB
:1053700063278091E80080FFFCCF8091E300806884
:105380008093E300111102C082E001C083E08093AA
:105390001C0489C08058823008F085C080911F04A9
:1053A000909120048C3D53E0950779F583E08A8342
:1053B0008AE289834FB7F894DE01139620E03EE03D
:1053C00051E2E32FF0E050935700E49120FF03C037
:1053D000E295EF703F5FEF708E2F90E0EA3010F0B3
:1053E000C79601C0C0968D939D932F5F243149F7D6
:1053F0004FBF8091E800877F8093E8006AE270E009
:10540000CE0101960E94752616C06091210470910C
:105410002204AE014F5F5F4F0E94A425BC01892B7F
:1054200009F441C09091E800977F9093E80089814A
:105430009A810E94D0268091E8008B778093E800C3
:1054400032C0803881F58091E800877F8093E80042
:10545000809118048093F1008091E8008E7772CFDC
:10546000811121C080911F049091200499270297F7
:10547000D4F48091E800877F8093E80080911F0436
:10548000809318040E94632780911804811106C03C
:105490008091E30087FD02C081E001C084E0809339
:1054A0001C040E94A2248091E80083FF0AC080911E
:1054B000E800877F8093E8008091EB008062809312
:1054C000EB00AA960FB6F894DEBF0FBECDBFDF91FA
:1054D000CF911F9108950895CF9380911C04882344
:1054E000A1F0C091E900CF709091EC00892F8170FC
:1054F00090FD80E8C82B1092E9008091E80083FDC0
:105500000E940B29CF70C093E900CF910895002429
:1055100080FD060E660F11F08695D1F7802D089557
:105520000024552704C0080E591F880F991F0097A3
:1055300029F076956795B8F37105B9F7802D952F09
:105540000895AA1BBB1B51E107C0AA1FBB1FA617CA
:10555000B70710F0A61BB70B881F991F5A95A9F71C
:1055600080959095BC01CD01089597FB072E16F408
:10557000009407D077FD09D00E94A12A07FC05D02E
:105580003EF4909581959F4F0895709561957F4F5A
:105590000895EE0FFF1F0590F491E02D0994FC0192
:1055A0004150504030F001900616D1F73197CF01AD
:1055B0000895882799270895F999FECF92BD81BD56
:1055C000F89A992780B50895A6E1B0E044E050E04C
:1055D0000C94162BA8E1B0E042E050E00C94162B9E
:1055E000262FF999FECF92BD81BDF89A019700B49C
:1055F000021639F01FBA20BD0FB6F894FA9AF99A3C
:105600000FBE08950396272F0E94F12A0E94F02AC8
:10561000252F0E94F12A242F0C94F12A0196272F7E
:105620000E94F12A0C94F02ADC01CB01FC01F999CB
:10563000FECF06C0F2BDE1BDF89A319600B40D92DE
:0C56400041505040B8F70895F894FFCF97
:10564C00690E7A0E8A0E00000000000000000000B7
:10565C00000000002402690E7A0E8A0E0000000081
:10566C00000000000000000000002002690E7A0E0D
:10567C008A0E000000000000000000000000000086
:10568C001C02690E7A0E8A0E000000000000000059
:10569C000000000000001802690E7A0E8A0E00004D
:1056AC000000000000000000000000001402690E61
:1056BC007A0E8A0E000000000000000000000000BE
:1056CC0000001002690E7A0E8A0E00000000000025
:1056DC0000000000000000000C02690E7A0E8A0E19
:1056EC0000000000000000000000000000000802A4
:1056FC0000008E030000000000000000000000000D
:10570C000000000000000000A703000000000000E3
:10571C000000000000000000000000000000C003BA
:10572C00000000000000000000000000000000006D
:10573C0000000000D9030000000000000000000081
:10574C0000000000000000002E002E023500350283
:10575C002D002D02310031022F0230022F003000BB
:10576C002602270233003400F200000000EC000097
:10577C000000011E1E1E01090A0B0C0D0E0F10114C
:10578C0012FF7B036408641E1407101EF4236B24A1
:10579C0040243C242A2401E200E900EA00B500B6CA
:1057AC0000B700CD008301CC008A01920194012145
:1057BC0002230224022502260227022A02B300B485
:1057CC00006F007000818283646537363534333264
:1057DC0031309695919293940001020202020606D2
:1057EC000609090909090909090909E200E900EA98
:1057FC0000B500B600B700CD008301CC008A019241
:10580C000194012102230224022502260227022AE6
:0C581C0002B300B4006F007000818283B2
:00000001FF
