:100000000C94B0070C94F7070C94F7070C94F707BF
:100010000C94F7070C94F7070C94F7070C94F70768
:100020000C94F7070C94F7070C949F2C0C94712DEB
:100030000C94C5240C94F7070C94F7070C94F7075D
:100040000C94F7070C94F7070C94F7070C94F70738
:100050000C94F7070C942D250C94F7070C94F707D4
:100060000C94F7070C94F7070C94F7070C94F70718
:100070000C94F7070C94F7070C94F7070C94F70708
:100080000C94F7070C94F7070C94F7070C94F707F8
:100090000C94F7070C94F7070C94F7070C94F707E8
:1000A0000C94F7070C94F7070C94F7074B084008DB
:1000B00053085B085F0863087808820890084908BD
:1000C00049080C120F12141219121E1223122812B0
:1000D0002D12321237123C12431247124A12541296
:1000E0005412541254124D125412FC18FC182E19AA
:1000F0002E198719A5191A1B1A1BE7197C1A8D1AB4
:100100008D1A0A1B1A1B1A1B131BA21BA21BB41B42
:10011000B41BAB1BB41BB41BB41BA21BA21BB01B98
:10012000B41BB41BB01BDE2D052EFD2E052EFD2E9F
:10013000512E742EFD2ECB2EDA2E01012800010146
:100140002800165C1E001F00200021002200230052
:1001500024002500260027002D002E002A00010083
:100160002B0014001A000800150017001C001800CE
:100170000C00120013002F00300031000000E000DE
:1001800004001600070009000A000B000D000E0015
:100190000F00330034000100280000000255010068
:1001A0001D001B000600190005001100100036009C
:1001B0003700380001003500E500105DE300E20083
:1001C0000B5D0000000000002C002A0028445000B5
:1001D000510052004F000000165C1E001F0020005E
:1001E00021002200230024002500260027002D00E6
:1001F0002E002A0001002B0014001A000900130031
:100200000A000D000F0018001C0033002F00300002
:1002100031000000E0000400150016001700070080
:100220000B00110008000C0012003400010028002F
:100230000000025501001D001B000600190005000A
:100240000E00100036003700380001003500E500D0
:10025000105DE300E2000B5D0000000000002C00D8
:100260002A0028445000510052004F000000165C44
:100270001E001F0020002100220023002400250072
:10028000260027002D002E002A0001002B0014005C
:100290001A000800150017001C0018000C001200BE
:1002A00013002F00300031000000E00004001600B1
:1002B000070009000A000B000D000E000F003300BC
:1002C0003400010028000000025501001D001B0041
:1002D0000600190005001100100036003700380034
:1002E00001003500E500105DE30088000B5D0000B3
:1002F000000000002C002A00284450005100520049
:100300004F00000035023A003B003C003D003E003B
:100310003F004000410042004300440045004C00C3
:1003200001004C004B004A0052004D004900010002
:1003300001000100010001000100010001000000B6
:100340002A004E00500051004F00460001000100FD
:10035000010001000100010001000100000039005E
:100360000100A800AA00A90001000100010001008D
:10037000010001000100010001000100AC00AB0020
:10038000AE0001000000000000000100F400F500D4
:10039000F200F100F000F3000000115D0100010027
:1003A0000100010001000100010001000100010045
:1003B000010001000100010001001E001F002000DB
:1003C00021002200010001000100010001000100E4
:1003D0000100010000000100230024002500260088
:1003E00027000100010001000100010001000100DF
:1003F00001000000010001000100570055005400F9
:10040000560001000100010001000100010001008F
:10041000010001004604160A460C0000000000001E
:100420000100010076000100010001000100000050
:1004300000000000000000000000000000000000BC
:1004400000000000000000000000000000000000AC
:10045000000000000000000000000000000000009C
:10046000000000000000000000000000000000008C
:100AA0000000C25CC35CC95CC55CC75C010001009E
:100AB0000100010001000A5D085D095D0100005CA4
:100AC000BF5CCA5CC65CC85C01000100010001009B
:100AD000010001000100010001000E5D0000C05C8A
:100AE00001000100010001000100010001000100FE
:100AF00001000100010001000F5D0000C15C010068
:100B000001000100010001000100010001000100DD
:100B100001000100010001000100000001000100CE
:100B200001000000000000000100010001000100C0
:100B300001000100010000000000000000000000B2
:100B40002A2B280000000000000000000000000028
:100B500000000029000000002C1E34202122243433
:100B60002627252E362D3738271E1F202122232405
:100B700025263333362E37381F0405060708090AA1
:100B80000B0C0D0E0F101112131415161718191A3D
:100B90001B1C1D2F3130232D350405060708090ABB
:100BA0000B0C0D0E0F101112131415161718191A1D
:100BB0001B1C1D2F3130354C0000000000000000D0
:100BC0000000000000000000000000007E0F00D4C4
:100BD000FFFFFFC700000078783C1E1E140A0522A4
:100BE00023252628292A2C2D2F3032333536383A22
:100BF0003B3D3E4042434547494A4C4E5051535578
:100C000057595A5C5E6062646668696B6D6F717398
:100C10007577797B7D7F81838587898A8C8E909299
:100C20009496989A9C9E9FA1A3A5A7A8AAACAEAFA4
:100C3000B1B3B4B6B8B9BBBCBEBFC1C2C3C5C6C7E9
:100C4000C9CACBCCCDCED0D1D2D2D3D4D5D6D7D79A
:100C5000D8D9D9DADADBDBDBDCDCDCDCDCDDDDDDE2
:100C6000DDDCDCDCDCDCDBDBDBDADAD9D9D8D7D7DE
:100C7000D6D5D4D3D2D2D1D0CECDCCCBCAC9C7C68B
:100C8000C5C3C2C1BFBEBCBBB9B8B6B4B3B1AFAEC9
:100C9000ACAAA8A7A5A3A19F9E9C9A98969492906F
:100CA0008E8C8A89878583817F7D7B797775737147
:100CB0006F6D6B6968666462605E5C5A5957555324
:100CC00051504E4C4A4947454342403E3D3B3A38DD
:100CD00036353332302F2D2C2A292826252322FF82
:100CE000AA7F554000010101010101010101020239
:100CF00002020202020202030303030303030304CA
:100D00000404040404040505050505060606060694
:100D1000070707070708080808090909090A0A0A4E
:100D20000B0B0B0C0C0C0D0D0D0E0E0E0F0F0F10F0
:100D3000101111111212131314141515161617177A
:100D4000181819191A1A1B1B1C1D1D1E1E1F2020E6
:100D5000212222232424252626272829292A2B2C30
:100D60002D2D2E2F30313232333435363738393A53
:100D70003B3C3D3E3F404142434445464748494A4B
:100D80004C4D4E4F50515354555658595A5B5D5E19
:100D90005F616264656668696B6C6D6F70727375B4
:100DA00077787A7B7D7E8082838587888A8C8E8F18
:100DB00091939596989A9C9EA0A2A3A5A7A9ABAD46
:100DC000AFB1B3B5B7BABCBEC0C2C4C6C9CBCDCF34
:100DD000D1D4D6D8DBDDDFE2E4E7E9EBEEF0F3F5E2
:100DE000F8FAFDFF0403300000001A034D0069000B
:100DF0006E0069006C006100200062007900200034
:100E00004E00520000000A0359004D0044004B0000
:100E100000000403090409023B00020100A0FA09D2
:100E20000400000103010100092111010001224019
:100E3000000705810308000A0904010001030000FE
:100E40000009211101000122BC00070582032000D6
:100E50000A1201100100000008EDFE6060010001AF
:100E600002030105010902A10185020901A1000592
:100E700009190129051500250195057501810295BE
:100E800001750381010501093009311581257F951F
:100E9000027508810609381581257F95017508813D
:100EA00006050C0A38021581257F95017508810613
:100EB000C0C005010980A101850319012AB70015E9
:100EC0000126B700950175108100C0050C0901A12C
:100ED00001850419012AA002150126A002950175B9
:100EE000108100C005010906A1018505050719E06B
:100EF00029E71500250195087501810205071900EC
:100F000029EF1500250195F07501810205081901E9
:100F10002905950575019102950175039101C0059B
:100F2000010906A101050719E029E715002501952A
:100F300008750181029501750881010507190029CD
:100F4000FF150026FF0095067508810005081901A8
:100F50002905950575019102950175039101C00060
:100F600011241FBECFEFDAE0DEBFCDBF04B603FE13
:100F700027C08091080390910903A0910A03B091C2
:100F80000B038730904BA740B04BD1F4109208036D
:100F90001092090310920A0310920B0314BE84B737
:100FA000877F84BF0FB6F894A89580916000886110
:100FB00080936000109260000FBEE0E0F8E30995B6
:100FC00011E0A0E0B1E0E4E0F0E602C005900D928F
:100FD000A03CB107D9F723E0A0ECB1E001C01D921D
:100FE000A830B207E1F70E94CE290C9400300C948F
:100FF0000000849A8C9A0895CF93C82F0E94850A86
:10100000882329F0C1FD02C08C9A01C08C98CF9131
:10101000089508950895CF93DF93EC010E94F9227B
:10102000BE0180E090E0DF91CF910C94D71F1F9319
:10103000CF93DF93CDB7DEB763970FB6F894DEBFDB
:101040000FBECDBF29E0E3E2F1E0DE011B96019087
:101050000D922A95E1F72AE0ECE2F1E0DE0111962B
:1010600001900D922A95E1F788509D458B309105AE
:1010700008F061C0DB018A5A9F4FFC010C948B2F52
:1010800012961C91112309F457C081E090E00E9450
:101090000B0810E051C012961C91112309F44CC0AA
:1010A00082E090E0F4CF12961C91112309F444C021
:1010B00084E090E0ECCF12961C9183E007C012967A
:1010C0001C9184E003C012961C9185E0112341F02D
:1010D0000E94372045E064E083E00E94640AD9CF93
:1010E0000E94582045E064E083E00E94640A24C026
:1010F00012961C91112319F0CE010B9609C08EE3B4
:1011000091E00BC012961C91112329F0CE0101969B
:101110000E949B09BECF8AE391E00E940D0A0CC099
:1011200012961C9180E1112319F00E943720B1CF53
:101130000E94582001C011E0812F63960FB6F894E9
:10114000DEBF0FBECDBFDF91CF911F91089581E02B
:1011500008950C9417081F93CF93DF9300D000D00D
:101160001F92CDB7DEB749835A836B832091E30189
:1011700089819A81211112C0662349F00E942C2195
:10118000182F682F89819A810E94D52003C00E9460
:101190000021182F69817A81812F04C00E942C219F
:1011A00069817A810F900F900F900F900F90DF91CF
:1011B000CF911F910C94EC0AFC0140815181628116
:1011C000738184810C94AB08FF920F931F93CF938C
:1011D000DF93E82FF0E0E85CF44FF490C82FC69559
:1011E000C695C695D0E0FE01E853F44F0491877090
:1011F00010E0082E02C0159507950A94E2F70170D9
:101200001127FE01E854F44FC491D0E002C0D595F7
:10121000C7958A95E2F7C170DD270115110519F010
:1012200081EE0E94AF17209719F086EE0E94AF174B
:101230008F2D0E94A918CD2B19F086EE0E944D1813
:10124000012B41F081EEDF91CF911F910F91FF9023
:101250000C944D18DF91CF911F910F91FF9008953D
:10126000EF92FF920F931F93CF93DF93EC01162F12
:101270000AE08881882309F457C0813009F045C00D
:101280008981813051F47E0182E0E80EF11CCA812F
:101290008C2F0E94AF178C2F12C0823049F47E0130
:1012A000E2E0EE0EF11C8A810E94AF17E7012FC029
:1012B000833041F47E01F2E0EF0EF11C8A810E943E
:1012C0004D18F4CF843011F0219621C02A81229646
:1012D00080E090E030E0205331092A30310558F4A5
:1012E000089FA001099F500D1124C901840F951F6B
:1012F00021962881EFCF009751F0EFE9FFE0319779
:10130000F1F700C000000197F6CF0E94E408219693
:10131000812F882309F4ADCFEFE9FFE03197F1F792
:1013200000C000008150F5CFDF91CF911F910F9148
:10133000FF90EF90089560E00C943009EF92FF92D7
:101340000F931F93CF93DF938C01F62E8AE0E82E44
:10135000F8018491882309F459C0813009F044C010
:10136000E8012196FE018491813041F42196FE012D
:101370001491812F0E94AF17812F0FC0823039F452
:10138000E8012296FE0184910E94AF1730C083309D
:1013900039F4E8012296FE0184910E944D1827C07D
:1013A000843029F5E8012296FE01249180E090E046
:1013B00030E0205331092A30310560F4E89EA00165
:1013C000E99E500D1124C901840F951F2196FE013D
:1013D0002491EECF009759F0EFE9FFE03197F1F754
:1013E00000C000000197F6CF0E94E408E8018E01DA
:1013F0000F5F1F4F8F2D882309F4AACFEFE9FFE07D
:101400003197F1F700C000008150F5CFDF91CF9107
:101410001F910F91FF90EF90089560E00C949E094A
:101420008F929F92AF92BF92CF92DF92EF92FF92F4
:101430000F931F936B017C0181E090E0A0E0B0E08E
:101440004C015D0104C0880C991CAA1CBB1C4A9568
:10145000D2F7AC01BD0104C0440F551F661F771FB2
:101460002A95D2F7482959296A297B2904C0880F6F
:10147000991FAA1FBB1F0A95D2F78A019B010C2155
:101480001D212E213F21401751076207730739F4B0
:10149000BC01CD016C297D298E299F290AC0809528
:1014A0009095A095B095BC01CD016C217D218E2138
:1014B0009F211F910F91FF90EF90DF90CF90BF90F1
:1014C000AF909F908F9008950F93382F262F6091A3
:1014D0004E0270914F028091500290915102042F60
:1014E000432F0E94100A0F910C9411200E94E622B3
:1014F000811102C00E9489230E94CB130C94F9072A
:101500000C94040D08950C94820A81E00895CF9301
:10151000C82F0E94830A8C2F0E94FC07CF91089548
:1015200008950E94901B0E94900A2FEF84E39CE094
:10153000215080409040E1F700C000000C945325FA
:101540000F931F93CF93DF93EC010E94DC088C0173
:10155000BE010E94A9088823A9F1BE01C8010E940A
:101560003413882379F1BE01C8010E9484148823B2
:1015700049F1BE01C8010E94C514882319F1BE01BA
:10158000C8010E94F0158823E9F0BE01C8010E943D
:10159000F5118823B9F08A81882369F001158CE55B
:1015A000180731F00E3D1C4531F40E9489230AC012
:1015B0000E94910A07C0CE01DF91CF911F910F9138
:1015C0000C94A70880E0DF91CF911F910F910895AF
:1015D00080E090E0089508952BE4829FC0011124DB
:1015E000FC012FE0729FE00DF11D1124E60FF11DAB
:1015F000EE0FFF1FEE5BFE4F859194910895880FCB
:10160000991FFC01E852F44F859194910895CF936E
:10161000DF930E94EC0A0E941F0CEC01811590459B
:1016200008F041C0C11580E4D80708F0D1C0C83E19
:10163000D10510F5C03ED10508F0FDC0C83AD1056E
:1016400078F4C53AD10508F0A2C0C130D10509F43B
:10165000F2C008F4EEC0C430D10508F0ECC0E9C017
:10166000CF3BD10508F49BC0C03CD10508F4E1C0D4
:10167000CE01805C91099EC0C11590E2D90758F453
:10168000C11521E0D20708F0D6C0C03FD10508F44B
:10169000D0C0D065D0C0C11580E3D80708F08EC097
:1016A000CE019F7087C0C11595E5D90708F043C0EA
:1016B000C11524E5D20708F0A2C0C11582E5D807FC
:1016C00008F5C11591E5D90708F085C0CE0174E091
:1016D000969587957A95E1F783709C2F937021E01A
:1016E00030E002C0220F331F9A95E2F73C68382B96
:1016F000CF70C695C69580E2C89FE0011124C22B29
:10170000D32B99C09E01237033278C2F8695869505
:10171000C115D34508F064C0C1E0D0E002C0CC0FD1
:10172000DD1F2A95E2F720E2829FC0011124C82B19
:10173000D92BDC6880C0C11529E5D207A0F4C115FA
:1017400088E5D80708F060C0C11596E5D90708F00C
:1017500070C08C2F0E94B30C8F71C82FD0E0DC2F8B
:10176000CC27D06268C0C1152AE5D20708F451C061
:10177000CE0190568115904208F05BC08D2F8F717D
:101780000E94B30CDD27D0628F71D82B54C0C55A8C
:10179000D0E0CC59DE4FC881D0E0D0644CC0C85AEC
:1017A000D0E0CC0FDD1FCA5CDE4F0990D881C02D80
:1017B000D46441C00E94FF0AEC013DC0CE019927CC
:1017C000D3FF03C0EC01D86C36C0EC01D06C33C041
:1017D000DF70D06A30C0DC2FCC27C16FD06A2BC03D
:1017E000C1E0D0E002C0CC0FDD1F2A95E2F720E275
:1017F000829FC0011124C82BD92BDA681CC0DC2FB2
:10180000CC27C46FD06A17C0DC2FCC27C06FD06A3A
:1018100012C08C2F8F700E94B30C94E0D695C795A0
:101820009A95E1F7CF70D0E0DC2FCC27D069C82B98
:1018300002C0C0E0D0E0CE01DF91CF9108958238A0
:10184000910569F1B0F48133910509F46DC048F454
:101850008932910509F463C08A32910509F469C09F
:1018600008958533910509F455C089339105B9F080
:101870000895833E910569F138F4803E9105B1F0F9
:10188000823E910509F10895863E9105A9F1873EB2
:101890009105B9F1843E910509F064C023C02091FF
:1018A000F90220FD4FC021FD4DC008958091F9023D
:1018B00080FD44C08091FA0280FF44C08091F9020B
:1018C00084FD42C083EE4DC08091F90282FF38C092
:1018D000F5CF8091F90282FD33C08091FA0280FD3C
:1018E00031C0ECCF8091FA0281FF32C08091F902C1
:1018F00084FD2AC087EE35C08091F90283FF26C09F
:10190000F5CF8091F90283FD21C08091FA0281FD1B
:101910001FC0ECCF8091F90285FD1CC01DC08091D5
:10192000F90285FD19C016C08091F90286FD16C026
:1019300017C08091F90286FD13C010C089E311C061
:1019400082EE0FC080EE0DC080E00BC086EE09C0B5
:1019500084EE07C089E205C085E303C08AE201C0C6
:1019600081E390E008959091F90292FF0DC0282F35
:101970002871283019F4877F846006C0282F2471CD
:10198000243011F48B7F886093FF0DC0282F2871BD
:10199000283119F4877E846106C0282F24712431F0
:1019A00011F48B7E88612091FA0220FF0DC0382F40
:1019B0003871383019F4877F816006C0382F317153
:1019C000313011F48E7F886021FF0DC0282F2871DF
:1019D000283119F4877E816106C0282F21712131B9
:1019E00011F48E7E886194FD877E0895E82FF0E0E3
:1019F000EE0FFF1FE154FD4F8081918108950895FE
:101A000080EA8A95F1F708950C940908CF93DF9343
:101A1000A6E7B1E04BE751E061E070E08D91E82F7F
:101A2000E295EF70F0E021A18F70EB0102C0CC0FC6
:101A3000DD1F8A95E2F7CE019C2F9095922391A30A
:101A400092A1892B82A34A175B0741F7A7E6B1E071
:101A500046E751E061E070E08D91E82FE295EF708C
:101A6000F0E021A18F70EB0102C0CC0FDD1F8A9541
:101A7000E2F7CE019C2F9095922391A392A1892BFE
:101A800082A34A175B0741F7E5EBF2E0AFEBB2E068
:101A90008FEB92E0119211921D921D928E179F076B
:101AA000C9F785E00E94F50DDF91CF910C94760A7D
:101AB0002F923F924F925F926F927F928F929F925E
:101AC000AF92BF92CF92DF92EF92FF920F931F934C
:101AD000CF93DF9386E7C82E81E0D82E05EB12E086
:101AE0009FEB492E92E0592E312C88248394912C1F
:101AF0005801D8016D907C9011971D921C92F601AF
:101B000081916F01C82FC295CF70D0E099A18F70DD
:101B1000740101C0EE0C8A95EAF7892F8E2989A3FA
:101B20008AA12E2C209482218AA30E94000DE7E630
:101B3000F1E020E030E06191A62FA295AF70B0E017
:101B400090968C91D8014D915C9190E06F7002C09D
:101B5000959587956A95E2F780FD08C0C401022E2D
:101B600002C0880F991F0A94E2F702C080E090E05B
:101B7000482B592BD8014D935C932F5F3F4F2F304B
:101B80003105C9F689A1282229A28AA1E82AEAA258
:101B90000E5F1F4F81E0F501208131812615370549
:101BA00009F480E0382A4016510609F0A1CF232D10
:101BB00045E06FEB72E085EB92E00E94F60D0E942B
:101BC000800A832DDF91CF911F910F91FF90EF90AD
:101BD000DF90CF90BF90AF909F908F907F906F904D
:101BE0005F904F903F902F9008950895FF920F932C
:101BF0001F93CF93DF93F82E092F162FD72FC42FC3
:101C0000222349F081E08093C2010E94F72490933F
:101C1000C1018093C0018091C2018823D9F08091D5
:101C2000C0019091C1010E940325069798F0EF2D05
:101C3000F02FA12FBD2F80E090E04C2F50E08417B3
:101C4000950734F4219131912D933D930196F7CF6F
:101C50001092C201DF91CF911F910F91FF900895D3
:101C6000EF92FF920F931F93CF93DF93F62E472FA0
:101C7000E82FF0E0711106C0EC51F34F6491762F1C
:101C8000862F72C0272F30E0EC51F34FE4910E2FD6
:101C900010E056E0659FC0011124CFEFD0E0BE01F7
:101CA0000E94412F5BEA5603C001579F900D1124FB
:101CB0008F0D911D8F0D911D982F990F890F7E010A
:101CC000E21AF30AE09ED001E19EB00DF09EB00D45
:101CD0001124489FA0011124452F55277E01E41AA5
:101CE000F50AE09EA001E19E500DF09E500D1124DA
:101CF0007E01E81AF108E29EC001E39E900DF29E7B
:101D0000900D1124892F9927C81BD90BC09FC001A2
:101D1000C19F900DD09F900D11246230710591F0FC
:101D200048F461157105E1F061307105A9F48B2F5C
:101D3000752F19C06430710561F038F06630710597
:101D400079F00AC0892F7B2F0EC08E2F7B2FE52FB5
:101D50000AC08E2F792F02C0852F7E2FEB2F03C054
:101D60008B2F7E2FE92F6E2FDF91CF911F910F9137
:101D7000FF90EF9008950895CF93DF93762FE901B8
:101D8000682F842F0E94300E798368838A83DF91C5
:101D9000CF9108958091C902282F269530E0211512
:101DA000310519F48170826005C02331310524F0BA
:101DB000817084628093C902089588E090E00C9459
:101DC000C02FCF92DF92EF92FF926B017C010E94B5
:101DD000CA0EB701A60188E090E0FF90EF90DF9077
:101DE000CF900C94DE2FE9ECF2E083E08083118247
:101DF0008FEF8283838314826081718182819381DA
:101E00000C94E10E8091C90280FF02C0869508956E
:101E100080E008958091CD02833018F48F5F809325
:101E2000CD026091C9027091CA028091CB0290915B
:101E3000CC020C94E10E8091CD02882319F08150E0
:101E40008093CD026091C9027091CA028091CB0249
:101E50009091CC020C94E10E6091020170E08091AF
:101E6000C90280FF0AC08091C40123E0829FC001A3
:101E7000112482539D4F0C940D148091C3019091B5
:101E80000101891780F7E82FF0E09F01220F331F2F
:101E9000E20FF31FE253FD4F1182108212828F5F17
:101EA000F0CF9091C90290FF16C09091C30120918C
:101EB0000101921770F4E92FF0E0DF01AA0FBB1FB8
:101EC000EA0FFB1FE253FD4F8183608342839F5FD4
:101ED000F0CF0C942C0F0895CF93DF9300D01F9276
:101EE000CDB7DEB79091C90290FF0AC09E012F5F67
:101EF0003F4F0E94BC0E4B8169818A810E94510F25
:101F00000F900F900F90DF91CF910895CF93DF93B3
:101F1000EC01EC81F0E0E152F44F4491E9ECF2E0A5
:101F2000628181810E946C0F8C818F5F8C83DF9135
:101F3000CF910895CF93DF93EC01E9ECF2E0438178
:101F400062818C810E946C0F8C818F5F8C83DF910A
:101F5000CF910895AF92BF92CF92DF92EF92FF920E
:101F60000F931F93CF93DF9300D01F92CDB7DEB7AF
:101F7000182FF62E042FE22E8091C90280FF6BC02D
:101F8000E82FE695AE2FB0E0A558BE4F9C919093F8
:101F9000CC018E7F823061F49E012F5F3F4F812FF5
:101FA0000E94BC0E4B8169818A810E94510F41C001
:101FB000923019F40091CC023CC0963019F4109183
:101FC000CA0237C09930A9F5E9508E2F8170D82EFA
:101FD000E695F0E0E152F34FA590B490C12CBB24FC
:101FE00060910001C61618F52C2D30E0A29EC001AC
:101FF000A39E900DB29E900D112470E00E94412F7F
:10200000812FD11002C0860F01C0861B9091C301A1
:10201000290F311DA901440F551F240F351F2253CD
:102020003D4F402F6F2D0E94BC0EC394D9CF0E940C
:102030002C0F1093CA02F092CB020093CC02EE2038
:1020400051F06091C9027091CA028091CB029091C7
:10205000CC020E94E10E0F900F900F90DF91CF9174
:102060001F910F91FF90EF90DF90CF90BF90AF90B6
:102070000895E9ECF2E09181282F438162818AE0A2
:10208000890F0C94AA0F81E00C943910E9ECF2E06E
:102090009181282F4381628186EF890F0C94AA0FCA
:1020A00081E00C944610E9ECF2E0628128E0620FD6
:1020B00008F46FEF282F438181810C94AA0F81E0EF
:1020C0000C945310E9ECF2E0628128E0621B08F402
:1020D00060E0282F438181810C94AA0F81E00C9449
:1020E0006210E9ECF2E0438128E0420F08F44FEF80
:1020F000282F628181810C94AA0F81E00C947110C9
:10210000E9ECF2E0438128E0421B08F440E0282F8C
:10211000628181810C94AA0F81E00C94801020E0F0
:102120000C94AA0FE9ECF2E080818E7F80836081BD
:102130007181828193810E94E10E1092CD012FEF77
:1021400080E792E0215080409040E1F700C000001D
:102150000C942C0FE9ECF2E080818E7F808310924A
:10216000CD012FEF80E792E0215080409040E1F7D1
:1021700000C000000C942C0F6091C902669570E0BD
:102180004BE050E083E091E00E94AB2F892B19F4E3
:1021900081E08093CD010E94F7249093C601809343
:1021A000C50108959091C90290FF35C091708111C9
:1021B00002C0926006C0833110F0946202C0880FA2
:1021C000982B9093C902662351F06091C9027091D7
:1021D000CA028091CB029091CC020E94E10E6091E4
:1021E000C902669570E04BE050E083E091E00E9408
:1021F000AB2F892B19F01092CD0102C00E94BC10A8
:1022000081E08093C8014091CC026091CB02809123
:10221000CA020C948F100895682F9091C902969568
:1022200081E0890F833108F081E00C94D21081E0C5
:102230000C940C11682F9091C90296958FEF890F1D
:1022400009F482E10C94D21081E00C941A1161E03F
:102250000C94D210E9ECF2E0808181608083869555
:102260000C9427118091C90280FD0C9492100C945B
:102270002A1160E00C94D2108091CB0181112EC004
:102280000E94E622811104C00E9489230E94F30E5D
:102290000E94DD0E6093C9027093CA028093CB0244
:1022A0009093CC026E7F61F40E94F30E0E94DD0ECB
:1022B0006093C9027093CA028093CB029093CC02C0
:1022C0000E94CA0E1092CD018091C90280FF03C006
:1022D00086950E94391181E08093CB010895E9EC45
:1022E000F2E080818160808386950C943911109290
:1022F000CD0108950F931F93CF93DF938091CD016C
:10230000882309F452C08091CC01E091C902E6957E
:10231000E81BE093C701823049F4F0E0E552F44F46
:10232000E491CE2FD0E006E81FE00FC0863049F4DC
:10233000F0E0E852F44FE491CE2FD0E00AE91FE03C
:1023400004C0C0EDD7E00BEB1EE08091C8018823EC
:1023500089F01092C8010E94F7249E0120953095C3
:10236000820F931F9093C6018093C5011092CA01FA
:102370001092C9018091C5019091C6010E94032568
:102380008C179D0790F0E091C501F091C601CE0F2A
:10239000DF1FD093C601C093C50185EC91E0F80121
:1023A000DF91CF911F910F910994DF91CF911F91F0
:1023B0000F910895882311F0FA0101C0FB010994DF
:1023C000CF93DF93C82FD62F0E94020F8C1740F0B7
:1023D0000E94020F8D1720F4DF91CF910C941711FA
:1023E0008C2FDF91CF910C9427110F931F93CF93D4
:1023F000FB01C281CC2309F455C08C010E94FE214F
:102400008272F801E25CFC45E431F10508F04DC050
:10241000EF59FF4F0C948B2F0E94321145C044E2BC
:1024200051E167E171E12CC047E151E164E271E102
:1024300027C040E550E163E470E122C043E450E18D
:1024400060E570E11DC04EE650E16FE570E118C037
:102450004FE550E16EE670E113C04CE850E16DE7E6
:1024600070E10EC04DE750E16CE870E109C04BE14E
:102470005FE06AE07FE004C04AE05FE06BE17FE09C
:102480000E94DA1111C081E00E9427110DC065E0A1
:1024900082E005C068E086E002C062E189E00E9457
:1024A000E01102C0C1E001C0C0E08C2FCF911F91AC
:1024B0000F9108950E94E622811102C00E94892393
:1024C0000E941C238093F202282F2695269526959C
:1024D00030E02630310524F0877088628093F20264
:1024E0008091F20280FF04C086958695869501C092
:1024F00080E00C9469132091F202822F86958695D4
:102500008695482F50E04530510554F48F5F982F41
:10251000990F990F990F822F8770892B8093F20260
:102520008091F20281608093F2020E9420238091C8
:10253000F2028695869586950C9469138091F20235
:10254000982F969596959695A1F0915E990F990F73
:10255000990F8770892B8093F202887F91E009F4AC
:1025600090E08091F20290FB80F98093F2020E9449
:1025700020238091F2028695869586950C946913A6
:102580008091F20280FD13C081608093F20281305D
:1025900019F489E08093F2028091F2020E942023D4
:1025A0008091F2028695869586950C94691308951C
:1025B0008091F20280FF08C08E7F8093F2020E9419
:1025C000202380E00C94691308958091F20280FD2D
:1025D0000C94D8120C94C0129091F202892F869517
:1025E000869586958F5F8F719770863038F4880F47
:1025F000880F880F892B8093F20202C09093F20219
:102600008091F202887F91E009F490E08091F202DB
:1026100090FB80F98093F2020E9420238091F202C5
:102620008695869586950C946913863008F085E02A
:102630009091F2029770282F220F220F220F922BD7
:102640009093F202987F21E009F420E09091F20249
:1026500020FB90F99093F2020C9469130E941513D9
:102660008091F2020C9420239C01FB01828188233B
:1026700049F12D3BFCE53F07C9F040F42B3BECE56D
:102680003E0769F02C3B3C4561F008952F3B9CE5EB
:10269000390791F070F0203C3C4589F0089585E0C1
:1026A00001C080E00E942E1380E008950E949E12D7
:1026B000FBCF0E947B12F8CF0E94E512F5CF0E945B
:1026C000EC12F2CF81E00895279A2F9808952F9861
:1026D0000895CF92DF92EF92FF92CF93C82F86306A
:1026E00050F4811109C080918000877F8093800021
:1026F0000E94671306C0C5E08091800088608093C7
:1027000080002C2F30E0AFEFBFEF0E94912F25E02B
:1027100030E040E050E00E94692FC9012C3764E1AD
:10272000360728F469E070E00E94412F29C0DA01E1
:10273000C9018A50974DAF4FBF4F6627782F892F19
:102740009A2F25EF38E241E050E00E94692F69019D
:102750007A01CA01B9010E94312F9B01AC01C70166
:10276000B6010E94312FBB27A92F982F872F0097E2
:1027700021E0A207B10511F0BC0102C06FEF7FEFAD
:1027800070938D0060938C00CF91FF90EF90DF905D
:10279000CF90089508950E9464138AE0809380008A
:1027A00089E1809381008FEF9FEF90938700809362
:1027B00086000C945A122EB1342F309523233EB14B
:1027C000432B3FB7F894FC01680F791FE617F70712
:1027D00089F0819198E04EB9000000C087FF2EB9C2
:1027E000880F000000C000C000C02EB900C09A953C
:1027F00091F7ECCF3FBF08952DB1242B2DB99B014C
:10280000220F331F620F731F0E94DB1387EC90E0CF
:102810000197F1F700C00000089544E00C94FC1308
:102820000F931F93CF93DF93C62FD42F122FFC014A
:1028300082818823C9F06093D0010E94F72490938D
:10284000CF018093CE0180E28C0F883008F057C012
:10285000C77081E001C0880FCA95EAF7DF91CF9178
:102860001F910F910C94BC188091D001681330C057
:102870008091CE019091CF010E940325883C910563
:1028800038F500E20D0FCD17B9F080E28C0F8830DB
:1028900040F4C77081E001C0880FCA95EAF70E9432
:1028A000C318083028F581E09D2F977001C0880F6C
:1028B0009A95EAF70E94BC18812F0E94A918083047
:1028C000F0F4D77081E001C0880FDA95EAF70AC00A
:1028D00080E28C0F883098F4C77081E001C0880FC7
:1028E000CA95EAF7DF91CF911F910F910C94C3180D
:1028F000812FDF91CF911F910F910C94A918DF9137
:10290000CF911F910F9108959C01CB01233F4CE57E
:102910003407F9F078F4283DFCE53F07B9F0293D8C
:102920004CE5340711F1273D3C4531F526E241EEF7
:1029300061EE1EC0253FFCE53F0799F070F0263F91
:102940003C45D1F427E245EE66EE12C027E245EEA3
:102950000EC026E241EE60EE0BC027E245EE64EECB
:1029600007C026E241EE62EE03C028E241E065EED8
:102970000E94101480E00895FC018281882319F0E0
:102980001092D001089581E00895CF93DF93EC0178
:10299000FB018281882309F41FC1C230FCE5DF07F7
:1029A00008F41BC1C6319CE5D90738F09E012A5FA7
:1029B0003C452930310508F010C10E94FE22909359
:1029C000FA028093F902C031ECE5DE0709F4C3C0D6
:1029D00008F041C0C8308CE5D80709F49AC0F0F47B
:1029E000C430ECE5DE0709F487C068F4C2308CE53A
:1029F000D80709F477C0C330DC4509F0E3C0809103
:102A0000F902826076C0C630ECE5DE0709F46EC0DC
:102A100008F07BC08091F90288606BC0CC308CE5F7
:102A2000D80709F485C068F4CA30ECE5DE0709F47C
:102A300074C008F079C00E94901B8091F9028068F0
:102A400058C0CE308CE5D80709F476C008F07FC0B6
:102A50008091F9028BC0CB3FECE5DE0709F44FC053
:102A600018F5C3318CE5D80709F47DC078F4C1317D
:102A7000ECE5DE0709F473C0C231DC4509F0A2C001
:102A80000E94901B8091F9028F7733C0C5318CE58D
:102A9000D80709F472C008F486C0CA3FDC4509F0C3
:102AA00091C08091FA023EC0CF3FFCE5DF0709F4F8
:102AB0005FC058F4CD3F9CE5D90709F444C008F441
:102AC0003FC08091FA0282602DC0C130FDE5DF0772
:102AD00009F475C008F45DC0C230DD4509F072C06C
:102AE00080E06EC08091F902816003C08091F9029C
:102AF00080618093F90266C08091F90211C08091D3
:102B0000FA0282608093FA025DC08091F9028062CD
:102B1000F0CF8091F9028064ECCF8091F902886057
:102B20008460E7CF8160EECF8091F9028E7FE1CFA4
:102B30008091F9028D7FDDCF8091F902877FD9CF17
:102B40008091FA0218C08091FA028D7FDBCF8091CC
:102B5000F9028F7ECECF8091F9028F7DCACF80910E
:102B6000F9028F7BC6CF8091F902877F8B7FC1CF1F
:102B70008091FA028D7F8E7FC5CF8091F90282FB12
:102B8000222720F991E0922790FB82F990FB83F9AC
:102B9000B0CF8091FA02982F909591708E7F892BFB
:102BA00090FB81F9AFCF0E94901B8091F90287FBC7
:102BB000222720F991E0922790FB87F99ACF81E0B4
:102BC0000E948B238091F9029091FA020E940F23B8
:102BD0000E94901B80E001C081E0DF91CF910895B9
:102BE000CF93DF9386319C4571F5EB010E94FE2166
:102BF000982F917119F4982F9A7A01C090E08A81E8
:102C000020910E0130910F01882379F081E091111C
:102C100001C080E08093D101911102C069E201C03E
:102C200065E3C9010E9426240AC08091D101811167
:102C300002C069E201C065E3C9010E9431240E941B
:102C40005B2280E001C081E0DF91CF9108959093F5
:102C5000D7018093D6010895E091D601F091D70174
:102C6000309721F00190F081E02D099480E00895E3
:102C7000E091D601F091D701309799F0209122018F
:102C8000222359F02091F90227FF07C0DC012C9183
:102C900011962C93119725E02C930280F381E02D5F
:102CA00009940895E091D601F091D701309739F059
:102CB00022E0DC012C930480F581E02D0994089535
:102CC0002091D4013091D5012817390771F09093E4
:102CD000D5018093D401E091D601F091D7013097CE
:102CE00021F00680F781E02D099408952091D2010A
:102CF0003091D3012817390771F09093D301809355
:102D0000D201E091D601F091D701309721F00084F3
:102D1000F185E02D0994089585B7806885BF85B752
:102D2000806885BF089508950C9493160C949416AA
:102D30000C9493160C9493160E948C160E9498166D
:102D40000C94961681E008950E94EE240E94060DD0
:102D50000E9477250E945A120E943C11E9EFF2E08E
:102D60008081806880838091F9029091FA020E94AC
:102D70000F230C949A167F928F929F92AF92BF92DC
:102D8000CF92DF92EF92FF920F931F93CF93DF9337
:102D9000CDB7DEB72A970FB6F894DEBF0FBECDBF12
:102DA0000E94580D0E94A216811111C08FEF8983D5
:102DB0008A831B820E94F7248160782F9D838C83F5
:102DC00049815A816B818D810E946F174FC049EDF7
:102DD000A42E41E0B42E00E010E0702E802F0E945F
:102DE000F60C6C01F501819091905F01882699267F
:102DF0008114910431F40F5F1F4F0530110569F7FD
:102E0000D5CF8091800281FD0E94FF0C80E0EE24EE
:102E1000E394F12C94012E213F21232B09F18E8381
:102E20007F82CE20DF2081E0CD2809F480E08887F2
:102E30000E94F7248160782F9A8789874E815F816D
:102E400068858A850E946F17000F111FF801E752ED
:102E5000FE4F80819181E826F926F182E08206C04A
:102E60008F5FEE0CFF1C8F30A9F6C5CF0E947A1140
:102E70000E94CA130E9409270E942C169091D80123
:102E80008917C9F00E942C168093D8012A960FB694
:102E9000F894DEBF0FBECDBFDF91CF911F910F9190
:102EA000FF90EF90DF90CF90BF90AF909F908F906A
:102EB0007F900C94870A2A960FB6F894DEBF0FBE57
:102EC000CDBFDF91CF911F910F91FF90EF90DF90D9
:102ED000CF90BF90AF909F908F907F900895CF93A9
:102EE000DF93CDB7DEB72B970FB6F894DEBF0FBEDA
:102EF000CDBF4F83588769877A878B87DE0111960C
:102F000086E0FD0111928A95E9F785E0FE0137968A
:102F100001900D928A95E1F70E94CC21882319F047
:102F200082E00E94CD220E949F2181110E944D22A9
:102F300049815A816B817C818D819E810E949A1E7C
:102F40002B960FB6F894DEBF0FBECDBFDF91CF91A9
:102F50000895FC01808191810E946E210895CF9394
:102F6000882309F498C0C82F8238A1F469E38091BE
:102F70000E0190910F010E9426240E945B222FEFE8
:102F800081EE94E0215080409040E1F700C00000C5
:102F900069E315C08338E1F463E580910E019091F7
:102FA0000F010E9426240E945B222FEF81EE94E005
:102FB000215080409040E1F700C0000063E580911F
:102FC0000E0190910F010E943124CF910C945B224D
:102FD0008438A1F467E480910E0190910F010E9462
:102FE00026240E945B222FEF81EE94E02150804046
:102FF0009040E1F700C0000067E4E1CF8CEF8C0F58
:10300000813AD0F46C2F80910E0190910F010E94B3
:10301000A623882349F06C2F80910E0190910F0117
:103020000E9431240E945B226C2F80910E019091AE
:103030000F010E942624C9CF80E28C0F883048F40B
:10304000C77081E001C0880FCA95EAF70E9401228B
:10305000BCCFEBE5EC0FE33040F4F0E0E454FE4F7E
:10306000808190E0CF910C946016E8E5EC0FE73199
:1030700050F4F0E0EE0FFF1FE257FE4F8081918188
:10308000CF910C947616C03F30F08C2F0E94112601
:10309000CF910C94FE26CF910895882309F458C04F
:1030A000823859F469E380910E0190910F010E94DA
:1030B00026240E945B2269E30CC0833891F463E507
:1030C00080910E0190910F010E9426240E945B22A4
:1030D00063E580910E0190910F010E9431240C94C0
:1030E0005B22843859F467E480910E0190910F01BE
:1030F0000E9426240E945B2267E4EBCF9CEF980F8E
:10310000913A10F4682FE5CF90E2980F983050F480
:10311000877091E001C0990F8A95EAF7892F0E9484
:103120000722DDCF9BE5980F933020F480E090E0FC
:103130000C94601698E5980F973120F480E090E0A9
:103140000C947616803F20F00E9479260C94FE267F
:103150000895CF93C82F0E94AF17C93349F42FEFBA
:1031600087EE93E0215080409040E1F700C00000DE
:103170008C2FCF910C944D18882321F00E940122AE
:103180000C945B220895882321F00E9407220C945E
:103190005B220895CF92DF92EF92FF920F931F93DD
:1031A000CF93DF937C01062FC72FFC01D581D295E9
:1031B000DF70128111110E941E220E94F7218823C4
:1031C00079F0112369F080E2800F883048F082E0C6
:1031D0000E94CD220E94F72191E0D82ED92601C06D
:1031E000D12CCC2EC2948FE0C8228C2D90E0FC0113
:1031F000EB58FF4F0C948B2F8C2F807FCF70882340
:1032000011F0C295C07F112399F0CC2309F4ECC1D1
:1032100080E2800F883010F0011104C08C2F0E94D2
:10322000012203C08C2F0E9411220E945B22DCC16C
:10323000802F0E944D18CC2309F4FCC180E2800F3E
:10324000883010F0011104C08C2F0E94072203C0A7
:103250008C2F0E9417220E945B22ECC18C2F807F52
:10326000CF70803211F0C295C07F002319F0013079
:1032700059F134C01123B1F0DD2381F0D13031F4A4
:103280000E9431228C2B0E943922D4C1D33031F4D8
:103290000E944D228C2F0E94992224C00E9431222C
:1032A0008C2B21C0DD2369F0D13041F40E94FE2136
:1032B0008C2309F4BFC10E94A22203C0D33009F4B9
:1032C000B9C10E944D221FC0112321F0D43008F053
:1032D000B1C108C0D33008F0ADC115C0112331F021
:1032E000D11182C18C2F0E94BC18A4C1DD2359F0DA
:1032F000093309F08BC1FFEF27EE83E0F150204046
:103300008040E1F781C18C2F0E94C31893C18C2F9C
:1033100086958695837019F0813061F08BC11123F9
:1033200021F0802F9C2F937002C080E090E00E94DB
:10333000601688C1112321F0802F9C2F937002C04A
:1033400080E090E00E9476167DC11123F9F0053FE0
:1033500051F0063F71F0043FA9F48091F30290917F
:10336000F40281600BC08091F3029091F4028260BC
:1033700005C08091F3029091F40284609093F4026E
:103380008093F302802F0E9411261EC0053F51F04A
:10339000063F71F0043FA9F48091F3029091F4028A
:1033A0008E7F0BC08091F3029091F4028D7F05C057
:1033B0008091F3029091F4028B7F9093F4028093BA
:1033C000F302802F0E9479260E94FE263BC18C2F9B
:1033D000837009F045C0111131C1402F42954695C7
:1033E0004770440F440F602F6F70862F90E0A0E06D
:1033F000B0E0042E04C0880F991FAA1FBB1F0A94B7
:10340000D2F704FF10C00FE010E020E030E004C06D
:10341000000F111F221F331F4A95D2F700951095F8
:103420002095309503C000E010E09801C695C69540
:10343000C370BC01CD01602B712B822B932BC2304A
:1034400049F058F4C13019F00E94EB1FF7C00E94F8
:10345000D91FF4C00E94FD1FF1C00E94D71FEEC00B
:10346000112319F08C2F817001C08695882309F4EF
:10347000E5C0402F429546954770440F440F602F9A
:103480006F70862F90E0A0E0B0E0042E04C0880F9B
:10349000991FAA1FBB1F0A94D2F704FF10C00FE0A8
:1034A00010E020E030E004C0000F111F221F331F86
:1034B0004A95D2F7009510952095309503C000E00D
:1034C00010E09801C695C695C370BC01CD01602B74
:1034D000712B822B932BC23049F058F4C13019F074
:1034E0000E94B020ABC00E949E20A8C00E94C220B3
:1034F000A5C00E941120A2C0CF70112339F08C2FDB
:103500000E943720802F0E94BC1898C0802F0E94F4
:10351000C3188C2F0E94582091C0023F01F128F45B
:10352000003F41F0013FA1F05AC0033FF9F0043FD2
:1035300039F155C0112341F0D33008F07BC08C2FF6
:103540008F710E947D2076C0D43008F073C0F7CF11
:10355000112339F08C2F8F710E9437206BC01123FB
:10356000C9F38C2F8F710E94582064C0112329F059
:103570008C2F8F710E9422205DC00E941D205AC096
:103580001123C9F00E949C210E9407220E94C82199
:10359000843039F40E94C4228C2F8F710E945820ED
:1035A0006CC0D33008F069C0CF718C2F0E943720D7
:1035B00063E08C2F0DC00E949C210E940122D33019
:1035C00050F00E94C4220E94A22264E08C2F8F71CE
:1035D0000E94AE2252C081E00E94CD224EC0112333
:1035E00039F0DD2309F4B6CF802F0E94AF1722C037
:1035F000DD2309F4B6CF093349F49FEFE7EEF3E09A
:103600009150E040F040E1F700C00000802F0E94A0
:103610004D1810C04C2F4F70602FC7010E94E80A50
:103620000E94481F0FC04C2F4F70602FC7010E948F
:10363000EB0A08C088EF8C0D843020F40E942C1611
:103640000E94870ADD20D9F00E94C82180FD17C0A2
:10365000F70112820E94C2210E943720C7010E94F6
:10366000481B0E94C221DF91CF911F910F91FF90C3
:10367000EF90DF90CF900C945820D12CDFCFDF91CA
:10368000CF911F910F91FF90EF90DF90CF90089511
:103690000F931F93CF93DF93EC01988189812B8146
:1036A0003C81232B31F08F3F31F481E09F3F19F4AF
:1036B00003C081E001C080E080FD13C0CE010E9404
:1036C000A00A882371F0688179818A810E9479211A
:1036D0008C010E94D4200E94C51FB801CE010E9417
:1036E000CA18DF91CF911F910F9108950E941E2259
:1036F0000E942E220E945B220E9428280E94FE2601
:1037000080E090E00E94601680E090E00C947616D5
:1037100080910E0190910F010E943C240C94761B25
:103720000E940E220C94881BE92FE295EF704E2F19
:1037300050E0FA013297EE30F105B0F4EB57FF4F4D
:103740000C948B2F803F91F018F4883E68F40EC0E3
:10375000843F51F40BC0883E48F0813F29F406C0F5
:1037600093FB882780F9089580E0089581E008950B
:103770000E946E210E94941B0895CF93DF9300D086
:1037800000D01F92CDB7DEB70F900F900F900F9023
:103790000F90DF91CF910895CF93DF9300D000D0A9
:1037A00000D0CDB7DEB726960FB6F894DEBF0FBEB9
:1037B000CDBFDF91CF9108951F93CF93DF93C09139
:1037C000E40116E08091E501C81799F0D0E01C9F54
:1037D000F0011D9FF00D1124EA51FE4F40815181EF
:1037E00062817381848195810E94CC1B2196C77070
:1037F000E9CFDF91CF911F9108954091160250912A
:103800001702609118027091190280911A0290912A
:103810001B020C94CC1B2091E4019091E50156E031
:103820002917A9F030E0529FF001539FF00D1124A9
:10383000EA51FE4F7181761306C07081781303C080
:103840007281741306C02F5F3F4F2770E9CF80E06D
:10385000089581E00895CF9380911B0282958F7027
:1038600009F05FC080911802882309F45AC0809142
:10387000E401B091E50170911602A0911702409108
:10388000190250911A0291E07F3F09F090E0692FF0
:10389000C6E08B1709F445C04115510521F0AF3F33
:1038A00021F020E003C021E001C0262F90E020FDA0
:1038B00035C0C89FF001C99FF00D1124EA51FE4F99
:1038C00021812A132BC02081271328C02281211196
:1038D00025C0238134812417350710F42150310984
:1038E000241B350B283C3105C8F420911B022F7096
:1038F000206120931B0226E0289FF001299FF00DF4
:103900001124E551FE4F80818F708061808386E1B4
:1039100092E00E94481BCF910C94DC1B01968770AB
:10392000B8CFCF9108959F92AF92BF92CF92DF927E
:10393000EF92FF920F931F93CF93DF93CDB7DEB734
:1039400061970FB6F894DEBF0FBECDBF7C0185E056
:10395000F701DE011D9601900D928A95E1F7D701DE
:10396000DC9011960C9111971296CC903091160222
:10397000409117028091190290911A02009731F03C
:103980004F3F31F421E03F3F19F403C021E001C073
:1039900020E020FD9FC1F701A380B4809090180221
:1039A000992009F42BC120911B02A816B90628F012
:1039B000B501681B790BCB0104C0809590958A0DE9
:1039C0009B1D11E0883C910590F010E0207F09F0EC
:1039D000DBC07A2DB98AA88A4D2D502F6C2D89898C
:1039E0000E94BD1B86E192E00E94481B6BC1822FA2
:1039F000807F09F091C0041315C0D31213C01C2D91
:103A0000C11010C02F70206120931B020E94FD1B6B
:103A100086E192E00E94481B80911B02D701159617
:103A20008C9375C1A114B10439F00F3F39F481E0D2
:103A3000BFEFDB1203C003C081E001C080E080FD66
:103A400003C081E08C2502C080E090E080FF15C0BB
:103A50004C2D602F8D2D0E940B1C882371F086E168
:103A600092E00E94481BE6E1F2E086E0DF011D9251
:103A70008A95E9F70E94FD1B4DC0AB2839F00F3F36
:103A800039F481E0BFEFDB1203C003C081E001C065
:103A900080E080FD03C081E08C2502C080E090E0E2
:103AA000E82FE170BE2E80FF2CC04C2D602F8D2D95
:103AB0000E940B1C182F811124C0DD860E878D8576
:103AC0009E850E946E21292F22952F70223018F09A
:103AD000243090F405C09F7059F0811109C017C1BE
:103AE0009F7031F0D70115969C91907F09F40FC11A
:103AF000805E883008F40BC1C7010E94481B1B2D53
:103B000006C11C2DCC2009F402C180911B028160EA
:103B100080931B0210E0FBC0041309C0D31207C03E
:103B2000C11005C080911B02F7018583A5C0DD8609
:103B30000E878D859E850E94B81B882379F1CC2045
:103B400069F120911B02822F82958F7090E002977D
:103B500074F0809116029091170298878F831986CE
:103B6000BB86AA862C87CE0107960E94481B86E05A
:103B7000F701A6E1B2E001900D928A95E1F70E946B
:103B80002B1C0E94FD1B0DC0041769F0DD860E87FB
:103B90008D859E850E94B81B811119C0C7010E94A6
:103BA000481B11E0B4C0D312F1CFC110EFCF809108
:103BB0001B02F7018583C7010E94481B86E0E6E1EE
:103BC000F2E0DF011D928A95E9F7192DA0C0CC2003
:103BD00029F320911B02822F82958F7090E002972B
:103BE00034F280911602909117029A8389831B8286
:103BF000BD82AC822E83CE010196B7CFA816B9063E
:103C000028F0F501E81BF90BCF0104C080959095D1
:103C10008A0D9B1D883C910558F010E07A2DB98AD9
:103C2000A88A4D2D502F6C2D89890E94BD1B4AC03A
:103C30001C2DCC2009F4B2CF041333C0D31231C0F1
:103C400020911B0220FD24C0822F82958F70482F67
:103C500050E041155105E1F0D70115962C931597C9
:103C60004F30510549F08F5F982F9295907F822FAA
:103C70008F70892B15968C93C7010E94481B86E094
:103C8000F701A6E1B2E001900D928A95E1F73DC0FF
:103C900086E0F701A6E1B2E001900D928A95E1F786
:103CA00036C0DD860E878D859E850E94B81B8111EA
:103CB0005ECF80911B02816080931B02C7010E942E
:103CC000481B25C0E6E1F2E086E0DF011D928A95FF
:103CD000E9F71BC0CC2009F461CFDD860E878D8506
:103CE0009E850E94B81B182F882309F457CF86E0C1
:103CF000F701A6E1B2E001900D928A95E1F786E125
:103D000092E00E94A9170E942B1C0E94FD1B812F8C
:103D100061960FB6F894DEBF0FBECDBFDF91CF9195
:103D20001F910F91FF90EF90DF90CF90BF90AF90D9
:103D30009F9008951F93CF93DF93CDB7DEB72C9755
:103D40000FB6F894DEBF0FBECDBF4F83588769878B
:103D50007A878B879C87CE0107960E94931C8823C5
:103D6000D1F09F8188852A853B85232B31F08F3FB9
:103D700031F481E09F3F19F403C081E001C080E08D
:103D800080FD47C04F81588569857A858B859C85E4
:103D90000E94CC1B3EC086E0FE013796DE011196E4
:103DA00001900D928A95E1F7FF81E8856A857B8510
:103DB0006115710531F0EF3F31F481E0FF3F19F4F7
:103DC00003C081E001C080E080FD23C02091E501B7
:103DD00030E0C9010196877099274091E40150E0D5
:103DE00084179507F1F1F983EA837D836C8396E06C
:103DF000929FD001939FB00D1124AA51BE4FFE0196
:103E0000319601900D929A95E1F78093E5010E9419
:103E1000DC1B16E08091E4019091E501891771F1B6
:103E2000189FC00111248A519E4F0E94931C882321
:103E300029F1E091E4011E9FF0011124EA51FE4FA7
:103E40004081518162817381848195810E94CC1B64
:103E50008091E40190E00196877099278093E401B6
:103E6000D9CF0E94901B1092E5011092E401E6E187
:103E7000F2E086E0DF011D928A95E9F72C960FB6F5
:103E8000F894DEBF0FBECDBFDF91CF911F91089593
:103E9000EF92FF920F931F93CF93DF938C01892BA7
:103EA00009F46CC0F12CEE24E394E8012196F801AA
:103EB0008491843740F4843008F051C0813081F01F
:103EC000823019F15BC0853709F444C0A8F19CE742
:103ED000980F903708F052C08F770E944D1841C05C
:103EE0000E5F1F4FFE01849190E2980F983050F4BE
:103EF0008770FE2D01C0FF0F8A95EAF78F2F0E9471
:103F0000212214C00E94AF172DC00E5F1F4FFE016B
:103F1000849190E2980F983060F48770FE2D01C074
:103F2000FF0F8A95EAF78F2F0E9427220E945B22BB
:103F300019C00E944D1816C00E5F1F4FFE01C4919C
:103F4000CC2381F08FE99FE00197F1F700C00000DA
:103F5000C150F6CF0E5F1F4FFE01F49003C00E94C8
:103F6000AF178E018F2D882309F49FCFEFE9FFE073
:103F70003197F1F700C000008150F5CFDF91CF916C
:103F80001F910F91FF90EF900895089508950C945C
:103F9000C61F0C94C71F0E94C91F609352027093E2
:103FA000530280935402909355020C94761B0C9408
:103FB000CB1F0F931F930091520210915302209137
:103FC000540230915502602B712B822B932B1F9141
:103FD0000F910C94CB1F0F931F93009152021091DD
:103FE00053022091540230915502602371238223A1
:103FF00093231F910F910C94CB1F0F931F9300914C
:1040000052021091530220915402309155026027C0
:104010007127822793271F910F910C94CB1F0C942B
:10402000C61F0E940F2060934E0270934F02809330
:104030005002909351020C94761B60E070E0CB012B
:104040000C9411200F931F9341E050E060E070E06A
:104050008A019B0104C0000F111F221F331F8A9584
:10406000D2F7C901B8011F910F910C9411200F9341
:104070001F9341E050E060E070E004C0440F551F22
:10408000661F771F8A95D2F780914E0290914F025A
:10409000A0915002B09151028A019B01082B192B6B
:1040A0002A2B3B2BC901B8011F910F910C941120B1
:1040B0000F931F9341E050E060E070E004C0440FB4
:1040C000551F661F771F8A95D2F7409550956095CA
:1040D000709580914E0290914F02A0915002B09144
:1040E00051028A019B01082319232A233B23C9017A
:1040F000B8011F910F910C9411200F931F9341E071
:1041000050E060E070E004C0440F551F661F771F49
:104110008A95D2F780914E0290914F02A091500261
:10412000B09151028A019B01082719272A273B27B2
:10413000C901B8011F910F910C9411200F931F9387
:1041400000914E0210914F02209150023091510285
:10415000602B712B822B932B1F910F910C941120AC
:104160000F931F9300914E0210914F022091500225
:104170003091510260237123822393231F910F9169
:104180000C9411200F931F9300914E0210914F0237
:104190002091500230915102602771278227932786
:1041A0001F910F910C94112008952FE0929F800D84
:1041B0001124E82FE695E695E695877051E001C059
:1041C000550F8A95EAF785E0E89FF0011124E45E37
:1041D000FD4F20E030E070E04081CB01022E02C0B4
:1041E000969587950A94E2F78170819584278523B7
:1041F000842781932F5F3F4F2530310569F708955C
:104200002FE0929F800D1124682F66956695669524
:10421000982F977085E0689FB001112440E050E02E
:1042200080E0FB01E40FF51FE45EFD4F208130E0EC
:10423000092E02C0369527950A94E2F7217033279C
:10424000042E01C0220F0A94EAF7822B4F5F5F4FC2
:104250004530510531F70895BF92CF92DF92EF922A
:10426000FF920F931F93CF93DF938C01C0904E0268
:10427000D0904F02E0905002F09051028091520293
:1042800090915302A0915402B0915502C82AD92AA4
:10429000EA2AFB2ACFE1D0E0D701C6010C2E04C0E8
:1042A000B695A795979587950A94D2F780FD04C097
:1042B000219790F7B12C07C0BC2EB8018C2F0E941B
:1042C000070B0197A9F38B2DDF91CF911F910F91D0
:1042D000FF90EF90DF90CF90BF900895CF93DF9342
:1042E000EC010E942C21BE010E94070BDF91CF91AF
:1042F00008951F93CF93DF93EB019091E3019923EE
:1043000021F0CB010E946E2113C0882349F0CB011C
:104310000E942C21182F682FCE010E94D52004C0A6
:10432000CB010E940021182FBE01812F0E94070B94
:10433000DF91CF911F91089580915B0208950E94B3
:10434000F7242091590230915A028217930750F0B6
:104350000E94F7242091590230915A02821B930B3C
:104360009C010AC00E94F7242091590230915A0200
:1043700020953095280F391F81E02838334108F403
:1043800080E00895809158028595859585950895DA
:1043900080915802877008950E94F7242091560258
:1043A0003091570282179307A8F00E94F7242091BA
:1043B000560230915702821B930B8838934110F4B8
:1043C00080E013C08091580282FB882780F991E039
:1043D00089270BC00E94F724209156023091570282
:1043E00020953095820F931FE8CF817008959091AA
:1043F0005802977081E009F480E0089580917F026F
:10440000089590917F02892B80937F020895809573
:1044100090917F02892380937F02089510927F02FA
:10442000089590917E02892B80937E020895809555
:1044300090917E02892380937E02089510927E02DD
:10444000089590917D02892B80937D020895809537
:1044500090917D02892380937D02089510927D02C0
:10446000089580915C02089508950C9434220C9470
:104470003522CF9390915C02981769F0C82F0E9463
:10448000F72490935A0280935902C0935C028C2FB8
:10449000CF910C943722CF91089580915C028823AC
:1044A00049F010925C0210925A021092590280E078
:1044B0000C9437220895E0910E01F0910F01809144
:1044C0007F028083E0910E01F0910F019081809135
:1044D0007E02892B8083E0910E01F0910F01908183
:1044E00080917D02892B808380915C028823B9F0C2
:1044F0000E949F2181110E944D22E0910E01F091B6
:104500000F01908180915C02892B808380910E0144
:1045100090910F010E94902381110E944D22809161
:104520000E0190910F010C9438160C9434220C94C7
:10453000952290915B02981721F080935B020C9476
:104540009722089580915B02882329F010925B02E4
:1045500080E00C94972208950C94342298E0899F6F
:1045600090011124262B209358020E9437200E948C
:10457000F7249093570280935602809158028595B4
:10458000859585950C94AC22109258021092570292
:104590001092560280E00C94AC2220915802809533
:1045A000822380935802982F977079F430E0482F37
:1045B000082E000C550B2417350739F08595859585
:1045C00085950E9458200C94C422089580E090E0C4
:1045D0000E94C62F21E08C3E9E4F09F020E0822FE2
:1045E000089582E090E00C94B82F83E090E00C9462
:1045F000B82F682F83E090E00C94CC2FCF9384E009
:1046000090E00E94B82FC82F81E290E00E94B82F5E
:104610002C2F30E0A901582BCA01CF910895CF93D8
:10462000C92F682F84E090E00E94CC2F6C2F81E28C
:1046300090E0CF910C94CC2F86E090E00C94B82FB2
:10464000682F86E090E00C94CC2FAB01BC018FE08A
:1046500090E00C94DE2F60E070E0CB010E942523F7
:104660000C940A086CEE7EEF80E090E00E94EA2F46
:1046700060E082E090E00E94CC2F60E083E090E078
:104680000E94CC2F109252021092530210925402A8
:104690001092550260E084E090E00E94CC2F60E030
:1046A00081E290E00E94CC2F60E085E090E00E94E3
:1046B000CC2F60E086E090E00E94CC2F6FEF87E087
:1046C00090E00E94CC2F40E050E0BA0188E090E0FA
:1046D0000E94DE2F60E08DE090E00E94CC2F40E051
:1046E00050E0BA0188E190E00E94DE2F60E087E1AF
:1046F00090E00E94CC2F40E050E0BA018CE190E0C5
:104700000E94DE2F60E080E290E00E94CC2F0C94AB
:104710002B230C943223682F8EE090E00C94CC2F46
:10472000FC01329680912201882331F08091F902B8
:1047300087FF02C09EE101C096E080E0915028F022
:1047400021912223D9F38F5FF9CF0895662351F188
:10475000209122012223E9F02091F90227FF19C0BC
:10476000462F4695469546954E31E0F4677021E018
:1047700030E002C0220F331F6A95E2F7FC01E40F1C
:10478000F11D828190E02823392381E0232B69F4F5
:1047900009C0FC01329608962191621729F0E817AA
:1047A000F907D1F780E0089581E008959C01FC01AC
:1047B00032969FEF80E04191461789F09F3F19F4B0
:1047C000411101C0982F8F5F8630A9F79F3F39F0C4
:1047D000F901E90FF11D97FDFA9562830895089597
:1047E0009C012A5F3F4FFC014281461301C01282A7
:1047F000019682179307B9F70895262F26952695D7
:1048000026952E3168F4FC01E20FF11D677021E05E
:1048100030E001C0220F6A95EAF78281282B2283BB
:104820000895262F2695269526952E3170F4FC01A5
:10483000E20FF11D677021E030E001C0220F6A95A0
:10484000EAF720958281282322830895209122016E
:10485000222329F02091F90227FD0C94FD230C94CA
:10486000D62320912201222329F02091F90227FD4D
:104870000C9411240C94F02320912201FC01329617
:10488000222331F08091F90287FF02C08EE101C03E
:1048900086E0DF011D928A95E9F7089508950C944A
:1048A0004E240C944E24CF930E9451240E94580D04
:1048B0000E944F24C0E08C2F0E94F60C892B29F413
:1048C000CF5FC530C1F780E001C081E0CF9108958E
:1048D0000C944E240C9468240E946A248091FF0258
:1048E000843009F43CC01092810220E488E190E019
:1048F0000FB6F894A895809360000FBE20936000D7
:1049000080E00E94691380E00E94870A0E9477116C
:104910008091820281110AC081E08093820280919D
:10492000C9028170809383020E94AA100E946A24A7
:1049300083B7817F846083BF83B7816083BF7894AE
:10494000889583B78E7F83BF0FB6F894A895809122
:104950006000886180936000109260000FBE08952F
:104960000C944E240E94901B0E945A120E942C16F6
:104970000E94870A109282028091830281110E9414
:104980006F110E94BC100C94B0241F920F920FB6AE
:104990000F9211248F939F93AF93BF9380918102C5
:1049A000811113C08091F5029091F602A091F70257
:1049B000B091F8024196A11DB11D8093F50290932C
:1049C000F602A093F702B093F802BF91AF919F91C6
:1049D0008F910F900FBE0F901F90189582E084BDAD
:1049E00093E095BD9AEF97BD80936E0008952FB721
:1049F000F8948091F5029091F602A091F702B0919F
:104A0000F8022FBF0895CF92DF92EF92FF920F939B
:104A10001F932FB7F8944091F5025091F6026091E0
:104A2000F7027091F8022FBF6A017B01EE24FF2488
:104A30008C0120E030E0C016D106E206F30610F447
:104A4000415051099A01281B390BC9011F910F913F
:104A5000FF90EF90DF90CF90089578941F920F927F
:104A60000FB60F9211248F939F93AF93BF938091B2
:104A7000F5029091F602A091F702B091F80201962A
:104A8000A11DB11D8093F5029093F602A093F70249
:104A9000B093F802BF91AF919F918F910F900FBE8D
:104AA0000F901F90189581E08093E00080E2809342
:104AB000D8001092C9008FE19EE40197F1F700C081
:104AC000000087E090EBDC018093080390930903DA
:104AD000A0930A03B0930B039CE088E10FB6F8940F
:104AE000A895809360000FBE90936000FFCF0E9456
:104AF000E622811102C00E9489230E94F122809344
:104B000080020E94FE229093FA028093F9020E9492
:104B1000F522682F70E080E090E00C94D71F809120
:104B20008B0280FF0BC06091150185E0689FB0018A
:104B3000112475956795759567952BC081FF09C000
:104B40006091150185E0689FB00111247595679506
:104B500020C082FF07C06091150185E0689FB00109
:104B6000112417C090918A029923D1F06091140109
:104B7000961788F72091150185E0289F9001112450
:104B8000929FA001939F500D112470E0CA010E94D2
:104B9000552F6038710540F46115710519F406C090
:104BA00065E070E0862F08958FE7089581E008950D
:104BB00080918B0280FF08C06091110170E07595B3
:104BC00067957595679521C081FF06C060911101B9
:104BD00070E07595679519C082FF04C0609111015E
:104BE00070E010C090918A02992399F060911001B1
:104BF0009617A0F780911101899FC001112470E0E0
:104C00000E94552F6038710540F46115710519F443
:104C100006C061E070E0862F08958FE7089581E077
:104C20000895803F21F40E948F25819504C0813F23
:104C300029F40E948F2580938F020895823F21F4EA
:104C40000E948F25819504C0833F29F40E948F25FF
:104C500080938E020895893F19F40E94D82505C0DB
:104C60008A3F31F40E94D82581958093900208955F
:104C70008B3F21F40E94D825819504C08C3F29F4F4
:104C80000E94D825809391020895843F21F4809159
:104C90008D02816017C0853F21F480918D02826072
:104CA00011C0863F21F480918D0284600BC0873F44
:104CB00021F480918D02886005C0883F31F4809195
:104CC0008D02806180938D0208958D3F21F4809143
:104CD0008B0281600BC08E3F21F480918B02826039
:104CE00005C08F3F29F480918B02846080938B02F2
:104CF0000895803F39F480918F0287FF6CC0109235
:104D00008F0269C0813F29F480918F021816BCF38D
:104D100062C090918E02823F29F497FF5CC010928E
:104D20008E0259C0833F19F41916CCF354C0893F41
:104D300041F48091900218160CF04DC01092900230
:104D40004AC08A3F29F48091900287FF44C0F6CF81
:104D50008B3F39F48091910287FF3DC01092910200
:104D60003AC08C3F29F4809191021816BCF333C0ED
:104D7000843F21F480918D028E7F17C0853F21F4FE
:104D800080918D028D7F11C0863F21F480918D022C
:104D90008B7F0BC0873F21F480918D02877F05C0F8
:104DA000883F31F480918D028F7E80938D0213C0F5
:104DB0008D3F21F480918B028E7F0BC08E3F21F4BA
:104DC00080918B028D7F05C08F3F29F480918B02EB
:104DD0008B7F80938B0280918E0281110EC0809117
:104DE0008F0281110AC080919002811106C08091CA
:104DF0009102811102C010928A0208958CE892E01B
:104E00000E9452160E94F724909389028093880290
:104E10000895CF93DF9300D000D000D0CDB7DEB798
:104E200086E0ECE8F2E0DE01119601900D928A95A1
:104E3000E1F780918E02811105C080918F02882355
:104E400009F47AC080918602909187020E9403251E
:104E5000AC0190918A02992339F02091160130E03B
:104E60002417350758F068C0209117018AE0289F61
:104E7000900111242417350718F05EC09F3F19F0E8
:104E80009F5F90938A0210929002109291028091FB
:104E90008E02181624F40E948F2580938E02809132
:104EA0008E0287FF05C00E948F25819580938E0218
:104EB00080918F02181624F40E948F2580938F0210
:104EC00080918F0287FF05C00E948F258195809376
:104ED0008F0230918E023323E1F020918F02222342
:104EE000C1F045EB3403C0011124992319F09093CC
:104EF0008E0203C081E080938E0235EB2303C00154
:104F00001124992319F090938F0203C081E08093BC
:104F10008F020E94FE2680918802909189029093D0
:104F200087028093860286E0FE013196ACE8B2E00B
:104F300001900D928A95E1F780919002811105C050
:104F400080919102882309F47AC080918402909123
:104F500085020E940325AC0190918A02992339F0C1
:104F60002091120130E02417350758F068C02091D5
:104F700013018AE0289F900111242417350718F0A7
:104F80005EC09F3F19F09F5F90938A0210928E023D
:104F900010928F0280919002181624F40E94D82556
:104FA000809390028091900287FF05C00E94D825CF
:104FB00081958093900280919102181624F40E94AA
:104FC000D825809391028091910287FF05C00E94AD
:104FD000D825819580939102309190023323E1F09E
:104FE000209191022223C1F045EB3403C00111242A
:104FF000992319F09093900203C081E0809390026E
:1050000035EB2303C0011124992319F090939102E9
:1050100003C081E0809391020E94FE268091880265
:1050200090918902909385028093840286E0FE012C
:105030003196ACE8B2E001900D928A95E1F72696A0
:105040000FB6F894DEBF0FBECDBFDF91CF910895AC
:10505000ECE8F2E086E0DF011D928A95E9F7109214
:105060008A0210928B0208958091B2020895CF9324
:10507000DF9300D01F92CDB7DEB79091FF0294303E
:1050800019F589837B836A8382E08093E9008FEF3F
:105090009091E800815095FD06C095ED9A95F1F745
:1050A00000008111F5CF8091E80085FF0DC040E040
:1050B00050E063E070E0CE0101960E94932A809157
:1050C000E8008E778093E8000F900F900F90DF91AB
:1050D000CF910895CF93DF93EC010E94762A82301E
:1050E00011F0843031F4BE0184E0DF91CF910C9453
:1050F0003728DF91CF910895BC0183E00C943728C5
:10510000CF93DF93EC010E94762A823011F0843035
:10511000F9F482E08093E9008FEF9091E8008150EC
:1051200095FD06C095ED9A95F1F700008111F5CF38
:105130008091E80085FF0CC040E050E066E070E040
:10514000CE010E94932A8091E8008E778093E80038
:10515000DF91CF910895CF93DF93EC010E94762ADF
:10516000823011F08430D9F580912201882339F002
:105170008091F90287FF03C060E282E002C068E02C
:1051800081E08093E9008FEF9091E800815095FDD8
:1051900006C095ED9A95F1F700008111F5CF809149
:1051A000E80085FF1CC080912201811105C040E00C
:1051B00050E068E070E003C070E040E050E0CE01F5
:1051C0000E94932A8091E8008E778093E80080E225
:1051D000FE01A2E9B2E001900D928A95E1F7DF911C
:1051E000CF9108958091FE02811109C00E94242C64
:1051F0000E94812C8091E20084608093E2000895F7
:105200001092FE020895089508950C94B22442E08D
:1052100061EC81E00E949D2B42E261EC82E00C9403
:105220009D2B80910103833009F460C030F48130FC
:1052300071F0823009F499C008958A3009F485C06C
:105240008B3009F46BC0893009F0A7C020C0809171
:105250000003813A09F0A1C08091E800877F809324
:10526000E8008091040390910503892B21F460E20A
:1052700082E992E003C060E080E090E070E00E948C
:10528000DE2A8091E8008B778093E8000895809172
:105290000003813209F081C08091040390910503DD
:1052A000029708F07AC08091E800877F8093E80039
:1052B0008091E80082FD05C08091FF028111F8CF46
:1052C0006CC02091F3008091F20090E0922B029745
:1052D00029F48091F1008B7F813021F48091F100DD
:1052E0008093B2028091E8008B7753C080910003D5
:1052F000813A09F052C08091040390910503892BF3
:1053000009F04BC08091E800877F8093E80080918E
:10531000E80080FFFCCF8091220136C0809100031D
:105320008132D9F58091040390910503892BA9F569
:105330008091E800877F8093E8000E94D22B8091C3
:105340000203809322010C94901B80910003813210
:1053500021F58091E800877F8093E8000E94D22B9E
:10536000809103038093B302089580910003813AF2
:10537000A1F48091E800877F8093E8008091E800A5
:1053800080FFFCCF8091B3028093F1008091E80010
:105390008E778093E8000C94D22B089584B7877F92
:1053A00084BF0FB6F894A8958091600088618093BF
:1053B0006000109260000FBE90E080E80FB6F89495
:1053C00080936100909361000FBE0E949C160E9422
:1053D000242C0E94812C8091E20084608093E20062
:1053E00078940E94162F0E94A41688E191E00E94F2
:1053F00027168091FF02853069F40E946C24809109
:10540000FD028823B1F30E945324882391F30E9464
:105410007D2AEFCF0E94BB16ECCF0C940F2A292FC8
:10542000332723303105C9F060F42130310581F094
:105430002230310509F04AC08BE390E026E13EE0DE
:1054400049C02132310511F12232310579F13EC0D6
:1054500082E190E021E53EE03DC099278130910551
:1054600061F040F08230910559F0039779F5E4EE50
:10547000FDE008C0E2E1FEE005C0E6E0FEE002C0BB
:10548000EAEEFDE0849190E09F0124C06115710572
:1054900041F061307105D1F489E090E021E43EE013
:1054A00019C089E090E028E23EE014C06115710562
:1054B00041F06130710551F48CEB90E023E63EE061
:1054C00009C080E490E02FE13FE004C080E090E07C
:1054D00020E030E0FA013183208308958091FF02BB
:1054E000843011F081E0089582E008958091B40243
:1054F000811102C00C946E2A089580E189BD82E179
:1055000089BD09B400FEFDCF8091D8008F7D8093C6
:10551000D8008091E00082608093E0008091E000FC
:1055200081FDFCCF0895CF92DF92EF92FF920F930F
:105530001F93CF93DF93EC018B017A010E94F12B33
:10554000811133C0E114F10439F0F70180819181B8
:10555000081B190BC80FD91FC12CD12C011511051F
:1055600019F18091E80085FD16C08091E8008E77E2
:105570008093E800E114F10449F0F7018081918102
:10558000C80ED91ED182C08285E00FC00E94F12BC7
:10559000882321F30AC089918093F10001501109F9
:1055A000FFEFCF1ADF0ADACF80E0DF91CF911F91B2
:1055B0000F91FF90EF90DF90CF9008952091060318
:1055C000309107032617370748F06115710539F444
:1055D0002091E8002E772093E80001C0B901FC017A
:1055E00020E06115710579F18091FF028823F1F1C6
:1055F0008530F1F18091E80083FD3CC08091E800A6
:1056000082FD2EC08091E80080FFEBCF2091F30057
:105610008091F20090E0922B6115710551F0883075
:10562000910538F421912093F100615071090196A0
:10563000F3CF21E0089709F020E08091E8008E7711
:105640008093E800CECF2111CFCF0AC08091FF0216
:10565000882361F0853061F08091E80083FD0AC005
:105660008091E80082FFF2CF80E0089582E0089503
:1056700083E0089581E008952091060330910703A7
:105680002617370748F06115710539F42091E800B5
:105690002E772093E80001C0B901FC0120E06115DC
:1056A000710591F18091FF02882309F440C0853093
:1056B00009F43FC08091E80083FD3DC08091E8007F
:1056C00082FD2FC08091E80080FFE9CF2091F30098
:1056D0008091F20090E0922B6115710559F08830AD
:1056E000910540F424912093F100319661507109A5
:1056F0000196F2CF21E0089709F020E08091E800C0
:105700008E778093E800CBCF2111CCCF0AC0809157
:10571000FF02882361F0853061F08091E80083FD0D
:105720000AC08091E80082FFF2CF80E0089582E015
:10573000089583E0089581E00895982F973068F5E3
:105740009093E900981739F07091EC002091ED00EA
:105750005091F00003C0242F762F50E021FD02C0AD
:105760009F5FECCF3091EB003E7F3093EB003091A8
:10577000ED003D7F3093ED003091EB0031603093D0
:10578000EB007093EC002093ED005093F00020911B
:10579000EE0027FDE5CF80E008958F708093E9004B
:1057A00081E008958091000387FF11C08091E80097
:1057B00082FD05C08091FF028111F8CF11C0809158
:1057C000E8008B770BC08091FF02882349F080911D
:1057D000E80080FFF8CF8091E8008E778093E800A2
:1057E00008952091E4003091E50095E64091EC00A9
:1057F000842F817040FF23C08091E80080FD1DC090
:105800008091FF02882399F0853099F08091EB0018
:1058100085FD11C04091E4005091E5002417350743
:1058200029F3915011F09A01E1CF84E0089582E0CC
:10583000089583E0089581E0089580E008954091FF
:10584000E80042FFDDCF08950E94922C0E949A2C1E
:10585000E0EEF0E0808181608083E8EDF0E080811F
:105860008F77808319BCA7EDB0E08C918E7F8C93ED
:1058700080818F7E80831092FE0208950F931F9384
:10588000CF93DF930E94922C0E949A2CC8EDD0E017
:1058900088818F77888388818068888388818F7DDD
:1058A000888319BC1092FF021092FB021092FD0235
:1058B0001092FC0200EE10E0F80180818B7F808363
:1058C00088818160888342E060E080E00E949D2BB7
:1058D000E1EEF0E080818E7F8083E2EEF0E0808177
:1058E00081608083808188608083F80180818E7FE1
:1058F0008083888180618883DF91CF911F910F9190
:105900000895E8EDF0E080818F7E8083E7EDF0E0A0
:1059100080818160808384E082BF81E08093FE0289
:105920000C943E2CE8EDF0E080818E7F8083109215
:10593000E20008951092DA001092E10008951F929B
:105940000F920FB60F9211242F933F934F935F93B3
:105950006F937F938F939F93AF93BF93EF93FF9337
:105960008091E10082FF0BC08091E20082FF07C0BE
:105970008091E1008B7F8093E1000E94152F809140
:10598000DA0080FF1FC08091D80080FF1BC080918B
:10599000DA008E7F8093DA008091D90080FF0DC0FD
:1059A00080E189BD82E189BD09B400FEFDCF81E0BF
:1059B0008093FF020E94F22805C019BC1092FF02DA
:1059C0000E9400298091E10080FF19C08091E200CF
:1059D00080FF15C08091E2008E7F8093E20080916D
:1059E000E20080618093E2008091D8008062809321
:1059F000D80019BC85E08093FF020E9404298091A1
:105A0000E10084FF30C08091E20084FF2CC080E17F
:105A100089BD82E189BD09B400FEFDCF8091D80027
:105A20008F7D8093D8008091E1008F7E8093E1008C
:105A30008091E2008F7E8093E2008091E20081609D
:105A40008093E2008091FB02882311F084E007C07C
:105A50008091E30087FD02C081E001C083E0809374
:105A6000FF020E9405298091E10083FF29C08091F7
:105A7000E20083FF25C08091E100877F8093E100F1
:105A800082E08093FF021092FB028091E1008E7F02
:105A90008093E1008091E2008E7F8093E20080910C
:105AA000E20080618093E20042E060E080E00E94DA
:105AB0009D2B8091F00088608093F0000E94032964
:105AC000FF91EF91BF91AF919F918F917F916F91D6
:105AD0005F914F913F912F910F900FBE0F901F90AC
:105AE00018951F920F920FB60F9211242F933F9388
:105AF0004F935F936F937F938F939F93AF93BF93D6
:105B0000CF93DF93EF93FF93C091E900CF70809123
:105B1000EC00D82FD17080FDD0E81092E900809180
:105B2000F000877F8093F00078940E94B52D10924A
:105B3000E9008091F00088608093F000CD2BCF7059
:105B4000C093E900FF91EF91DF91CF91BF91AF91A9
:105B50009F918F917F916F915F914F913F912F9185
:105B60000F900FBE0F901F9018951F93CF93DF9348
:105B7000CDB7DEB7AA970FB6F894DEBF0FBECDBF84
:105B8000E0E0F3E08091F100819323E0E830F20758
:105B9000C9F70E9411298091E80083FF2EC18091EE
:105BA000000390910103492F50E04A30510508F05D
:105BB00024C1FA01ED56FF4F0C948B2F803821F051
:105BC000823809F01AC108C08091FC029091FD0250
:105BD000992389F082600FC0809104038F70873011
:105BE00008F00BC18093E9008091EB0085FB8827CA
:105BF00080F91092E9009091E800977F9093E80077
:105C00008093F1001092F100D1C0282F2D7F09F070
:105C1000F4C0882319F0823061F0EFC08091020354
:105C2000813009F0EAC0933009F080E08093FD02F2
:105C30002EC08091020381112AC0809104038F70CD
:105C40002FEF280F263008F0D8C08093E90020916C
:105C5000EB0020FF1CC0933021F48091EB008062A8
:105C600014C09091EB0090619093EB0021E030E044
:105C7000A90102C0440F551F8A95E2F74093EA003C
:105C80001092EA008091EB0088608093EB00109204
:105C9000E9008091E800877F8093E8000E94D22B82
:105CA000ACC08111AAC0109102031F778091E3005C
:105CB0008078812B8093E3008091E800877F809338
:105CC000E8000E94D22B8091E80080FFFCCF8091F9
:105CD000E30080688093E300111102C082E001C0FC
:105CE00083E08093FF0289C08058823008F085C02D
:105CF00080910203909103038C3D53E0950779F561
:105D000083E08A838AE289834FB7F894DE01139691
:105D100020E03EE051E2E32FF0E050935700E491A1
:105D200020FF03C0E295EF703F5FEF708E2F90E091
:105D3000EA3010F0C79601C0C0968D939D932F5FF7
:105D4000243149F74FBF8091E800877F8093E800B6
:105D50006AE270E0CE0101960E94DE2A16C06091D0
:105D6000040370910503AE014F5F5F4F0E940D2A3F
:105D7000BC01892B09F441C09091E800977F909372
:105D8000E80089819A810E943C2B8091E8008B7702
:105D90008093E80032C0803881F58091E800877FE9
:105DA0008093E8008091FB028093F1008091E800ED
:105DB0008E7772CF811121C08091020390910303ED
:105DC00099270297D4F48091E800877F8093E800B8
:105DD000809102038093FB020E94D22B8091FB02F0
:105DE000811106C08091E30087FD02C081E001C0FF
:105DF00084E08093FF020E9407298091E80083FFDE
:105E00000AC08091E800877F8093E8008091EB00D2
:105E100080628093EB00AA960FB6F894DEBF0FBEA7
:105E2000CDBFDF91CF911F9108950895CF938091B9
:105E3000FF028823A1F0C091E900CF709091EC009F
:105E4000892F817090FD80E8C82B1092E900809125
:105E5000E80083FD0E94B52DCF70C093E900CF917B
:105E60000895DB018F939F930E94A02FBF91AF9164
:105E7000A29F800D911DA39F900DB29F900D1124A4
:105E80000895AA1BBB1B51E107C0AA1FBB1FA61781
:105E9000B70710F0A61BB70B881F991F5A95A9F7D3
:105EA00080959095BC01CD01089597FB072E16F4BF
:105EB000009407D077FD09D00E94412F07FC05D040
:105EC0003EF4909581959F4F0895709561957F4F11
:105ED0000895A1E21A2EAA1BBB1BFD010DC0AA1F2B
:105EE000BB1FEE1FFF1FA217B307E407F50720F043
:105EF000A21BB30BE40BF50B661F771F881F991FBE
:105F00001A9469F760957095809590959B01AC0106
:105F1000BD01CF010895EE0FFF1F0590F491E02D14
:105F20000994A29FB001B39FC001A39F700D811D72
:105F30001124911DB29F700D811D1124911D089592
:105F40000E94912FA59F900DB49F900DA49F800D4E
:105F5000911D11240895FC014150504030F00190F2
:105F60000616D1F73197CF0108958827992708950C
:105F7000F999FECF92BD81BDF89A992780B5089511
:105F8000A6E1B0E044E050E00C94F22FA8E1B0E0CC
:105F900042E050E00C94F22F262FF999FECF92BDEB
:105FA00081BDF89A019700B4021639F01FBA20BDDE
:105FB0000FB6F894FA9AF99A0FBE08950396272F10
:105FC0000E94CD2F0E94CC2F252F0E94CD2F242F51
:105FD0000C94CD2F0196272F0E94CD2F0C94CC2FFF
:105FE000DC01CB01FC01F999FECF06C0F2BDE1BD99
:105FF000F89A319600B40D9241505040B8F7089588
:04600000F894FFCF42
:106004000C0C0C01090A0B0C0D0E0F1011125D0281
:106014002808641E1408101E3428AB2880287C2805
:106024006A2801717766703331322F00617273749C
:10603400403132333400E200E900EA00B500B60032
:10604400B700CD008301CC008A01920194012102A2
:10605400230224022502260227022A02B300B400E6
:106064006F007000818283F0F1C66766369431F761
:10607400353497963332909192939500010202023F
:106084000206060609090909090909090909E200BC
:10609400E900EA00B500B600B700CD008301CC00EA
:1060A4008A0192019401210223022402250226027C
:1060B40027022A02B300B4006F00700081828300BB
:00000001FF
